{
	"contracts/Voting.sol": {
		"Voting": {
			"abi": [
				{
					"inputs": [],
					"stateMutability": "nonpayable",
					"type": "constructor"
				},
				{
					"inputs": [
						{
							"internalType": "address",
							"name": "owner",
							"type": "address"
						}
					],
					"name": "OwnableInvalidOwner",
					"type": "error"
				},
				{
					"inputs": [
						{
							"internalType": "address",
							"name": "account",
							"type": "address"
						}
					],
					"name": "OwnableUnauthorizedAccount",
					"type": "error"
				},
				{
					"anonymous": false,
					"inputs": [
						{
							"indexed": true,
							"internalType": "address",
							"name": "previousOwner",
							"type": "address"
						},
						{
							"indexed": true,
							"internalType": "address",
							"name": "newOwner",
							"type": "address"
						}
					],
					"name": "OwnershipTransferred",
					"type": "event"
				},
				{
					"anonymous": false,
					"inputs": [
						{
							"indexed": false,
							"internalType": "uint256",
							"name": "proposalId",
							"type": "uint256"
						}
					],
					"name": "ProposalRegistered",
					"type": "event"
				},
				{
					"anonymous": false,
					"inputs": [
						{
							"indexed": false,
							"internalType": "address",
							"name": "voter",
							"type": "address"
						},
						{
							"indexed": false,
							"internalType": "uint256",
							"name": "proposalId",
							"type": "uint256"
						}
					],
					"name": "Voted",
					"type": "event"
				},
				{
					"anonymous": false,
					"inputs": [
						{
							"indexed": false,
							"internalType": "address",
							"name": "voterAddress",
							"type": "address"
						}
					],
					"name": "VoterRegistered",
					"type": "event"
				},
				{
					"anonymous": false,
					"inputs": [
						{
							"indexed": false,
							"internalType": "enum Voting.WorkflowStatus",
							"name": "previousStatus",
							"type": "uint8"
						},
						{
							"indexed": false,
							"internalType": "enum Voting.WorkflowStatus",
							"name": "newStatus",
							"type": "uint8"
						}
					],
					"name": "WorkflowStatusChange",
					"type": "event"
				},
				{
					"inputs": [
						{
							"internalType": "string",
							"name": "_description",
							"type": "string"
						}
					],
					"name": "addProposal",
					"outputs": [],
					"stateMutability": "nonpayable",
					"type": "function"
				},
				{
					"inputs": [
						{
							"internalType": "address",
							"name": "_address",
							"type": "address"
						}
					],
					"name": "addVoter",
					"outputs": [],
					"stateMutability": "nonpayable",
					"type": "function"
				},
				{
					"inputs": [],
					"name": "endProposal",
					"outputs": [],
					"stateMutability": "nonpayable",
					"type": "function"
				},
				{
					"inputs": [],
					"name": "endVote",
					"outputs": [],
					"stateMutability": "nonpayable",
					"type": "function"
				},
				{
					"inputs": [],
					"name": "getProposals",
					"outputs": [
						{
							"components": [
								{
									"internalType": "string",
									"name": "description",
									"type": "string"
								},
								{
									"internalType": "uint256",
									"name": "voteCount",
									"type": "uint256"
								}
							],
							"internalType": "struct Voting.Proposal[]",
							"name": "",
							"type": "tuple[]"
						}
					],
					"stateMutability": "view",
					"type": "function"
				},
				{
					"inputs": [
						{
							"internalType": "address",
							"name": "_address",
							"type": "address"
						}
					],
					"name": "getVoteTo",
					"outputs": [
						{
							"components": [
								{
									"internalType": "bool",
									"name": "isRegistered",
									"type": "bool"
								},
								{
									"internalType": "bool",
									"name": "hasVoted",
									"type": "bool"
								},
								{
									"internalType": "uint256",
									"name": "votedProposalId",
									"type": "uint256"
								}
							],
							"internalType": "struct Voting.Voter",
							"name": "",
							"type": "tuple"
						}
					],
					"stateMutability": "view",
					"type": "function"
				},
				{
					"inputs": [],
					"name": "getWinner",
					"outputs": [
						{
							"components": [
								{
									"internalType": "string",
									"name": "description",
									"type": "string"
								},
								{
									"internalType": "uint256",
									"name": "voteCount",
									"type": "uint256"
								}
							],
							"internalType": "struct Voting.Proposal",
							"name": "",
							"type": "tuple"
						}
					],
					"stateMutability": "view",
					"type": "function"
				},
				{
					"inputs": [],
					"name": "owner",
					"outputs": [
						{
							"internalType": "address",
							"name": "",
							"type": "address"
						}
					],
					"stateMutability": "view",
					"type": "function"
				},
				{
					"inputs": [],
					"name": "renounceOwnership",
					"outputs": [],
					"stateMutability": "nonpayable",
					"type": "function"
				},
				{
					"inputs": [],
					"name": "startProposal",
					"outputs": [],
					"stateMutability": "nonpayable",
					"type": "function"
				},
				{
					"inputs": [],
					"name": "startVote",
					"outputs": [],
					"stateMutability": "nonpayable",
					"type": "function"
				},
				{
					"inputs": [],
					"name": "talliedVote",
					"outputs": [],
					"stateMutability": "nonpayable",
					"type": "function"
				},
				{
					"inputs": [
						{
							"internalType": "address",
							"name": "newOwner",
							"type": "address"
						}
					],
					"name": "transferOwnership",
					"outputs": [],
					"stateMutability": "nonpayable",
					"type": "function"
				},
				{
					"inputs": [
						{
							"internalType": "uint256",
							"name": "_id",
							"type": "uint256"
						}
					],
					"name": "vote",
					"outputs": [],
					"stateMutability": "nonpayable",
					"type": "function"
				}
			],
			"devdoc": {
				"errors": {
					"OwnableInvalidOwner(address)": [
						{
							"details": "The owner is not a valid owner account. (eg. `address(0)`)"
						}
					],
					"OwnableUnauthorizedAccount(address)": [
						{
							"details": "The caller account is not authorized to perform an operation."
						}
					]
				},
				"kind": "dev",
				"methods": {
					"addProposal(string)": {
						"params": {
							"_description": "string"
						}
					},
					"addVoter(address)": {
						"params": {
							"_address": "address"
						}
					},
					"getProposals()": {
						"returns": {
							"_0": "Proposal[]"
						}
					},
					"getVoteTo(address)": {
						"params": {
							"_address": "address"
						},
						"returns": {
							"_0": "Voter"
						}
					},
					"getWinner()": {
						"returns": {
							"_0": "Proposal"
						}
					},
					"owner()": {
						"details": "Returns the address of the current owner."
					},
					"renounceOwnership()": {
						"details": "Leaves the contract without owner. It will not be possible to call `onlyOwner` functions. Can only be called by the current owner. NOTE: Renouncing ownership will leave the contract without an owner, thereby disabling any functionality that is only available to the owner."
					},
					"transferOwnership(address)": {
						"details": "Transfers ownership of the contract to a new account (`newOwner`). Can only be called by the current owner."
					},
					"vote(uint256)": {
						"params": {
							"_id": "uint"
						}
					}
				},
				"version": 1
			},
			"evm": {
				"assembly": "    /* \"contracts/Voting.sol\":113:5816  contract Voting is Ownable {... */\n  mstore(0x40, 0x80)\n    /* \"contracts/Voting.sol\":147:188  constructor() Ownable(msg.sender) {... */\n  callvalue\n  dup1\n  iszero\n  tag_1\n  jumpi\n  0x00\n  dup1\n  revert\ntag_1:\n  pop\n    /* \"contracts/Voting.sol\":169:179  msg.sender */\n  caller\n    /* \"@openzeppelin/contracts/access/Ownable.sol\":1297:1298  0 */\n  0x00\n    /* \"@openzeppelin/contracts/access/Ownable.sol\":1273:1299  initialOwner == address(0) */\n  0xffffffffffffffffffffffffffffffffffffffff\n  and\n    /* \"@openzeppelin/contracts/access/Ownable.sol\":1273:1285  initialOwner */\n  dup2\n    /* \"@openzeppelin/contracts/access/Ownable.sol\":1273:1299  initialOwner == address(0) */\n  0xffffffffffffffffffffffffffffffffffffffff\n  and\n  sub\n    /* \"@openzeppelin/contracts/access/Ownable.sol\":1269:1364  if (initialOwner == address(0)) {... */\n  tag_5\n  jumpi\n    /* \"@openzeppelin/contracts/access/Ownable.sol\":1350:1351  0 */\n  0x00\n    /* \"@openzeppelin/contracts/access/Ownable.sol\":1322:1353  OwnableInvalidOwner(address(0)) */\n  mload(0x40)\n  0x1e4fbdf700000000000000000000000000000000000000000000000000000000\n  dup2\n  mstore\n  0x04\n  add\n  tag_6\n  swap2\n  swap1\n  tag_7\n  jump\t// in\ntag_6:\n  mload(0x40)\n  dup1\n  swap2\n  sub\n  swap1\n  revert\n    /* \"@openzeppelin/contracts/access/Ownable.sol\":1269:1364  if (initialOwner == address(0)) {... */\ntag_5:\n    /* \"@openzeppelin/contracts/access/Ownable.sol\":1373:1405  _transferOwnership(initialOwner) */\n  tag_8\n    /* \"@openzeppelin/contracts/access/Ownable.sol\":1392:1404  initialOwner */\n  dup2\n    /* \"@openzeppelin/contracts/access/Ownable.sol\":1373:1391  _transferOwnership */\n  shl(0x20, tag_9)\n    /* \"@openzeppelin/contracts/access/Ownable.sol\":1373:1405  _transferOwnership(initialOwner) */\n  0x20\n  shr\n  jump\t// in\ntag_8:\n    /* \"@openzeppelin/contracts/access/Ownable.sol\":1225:1412  constructor(address initialOwner) {... */\n  pop\n    /* \"contracts/Voting.sol\":113:5816  contract Voting is Ownable {... */\n  jump(tag_11)\n    /* \"@openzeppelin/contracts/access/Ownable.sol\":2912:3099  function _transferOwnership(address newOwner) internal virtual {... */\ntag_9:\n    /* \"@openzeppelin/contracts/access/Ownable.sol\":2985:3001  address oldOwner */\n  0x00\n    /* \"@openzeppelin/contracts/access/Ownable.sol\":3004:3010  _owner */\n  dup1\n  0x00\n  swap1\n  sload\n  swap1\n  0x0100\n  exp\n  swap1\n  div\n  0xffffffffffffffffffffffffffffffffffffffff\n  and\n    /* \"@openzeppelin/contracts/access/Ownable.sol\":2985:3010  address oldOwner = _owner */\n  swap1\n  pop\n    /* \"@openzeppelin/contracts/access/Ownable.sol\":3029:3037  newOwner */\n  dup2\n    /* \"@openzeppelin/contracts/access/Ownable.sol\":3020:3026  _owner */\n  0x00\n  dup1\n    /* \"@openzeppelin/contracts/access/Ownable.sol\":3020:3037  _owner = newOwner */\n  0x0100\n  exp\n  dup2\n  sload\n  dup2\n  0xffffffffffffffffffffffffffffffffffffffff\n  mul\n  not\n  and\n  swap1\n  dup4\n  0xffffffffffffffffffffffffffffffffffffffff\n  and\n  mul\n  or\n  swap1\n  sstore\n  pop\n    /* \"@openzeppelin/contracts/access/Ownable.sol\":3083:3091  newOwner */\n  dup2\n    /* \"@openzeppelin/contracts/access/Ownable.sol\":3052:3092  OwnershipTransferred(oldOwner, newOwner) */\n  0xffffffffffffffffffffffffffffffffffffffff\n  and\n    /* \"@openzeppelin/contracts/access/Ownable.sol\":3073:3081  oldOwner */\n  dup2\n    /* \"@openzeppelin/contracts/access/Ownable.sol\":3052:3092  OwnershipTransferred(oldOwner, newOwner) */\n  0xffffffffffffffffffffffffffffffffffffffff\n  and\n  0x8be0079c531659141344cd1fd0a4f28419497f9722a3daafe3b4186f6b6457e0\n  mload(0x40)\n  mload(0x40)\n  dup1\n  swap2\n  sub\n  swap1\n  log3\n    /* \"@openzeppelin/contracts/access/Ownable.sol\":2975:3099  {... */\n  pop\n    /* \"@openzeppelin/contracts/access/Ownable.sol\":2912:3099  function _transferOwnership(address newOwner) internal virtual {... */\n  pop\n  jump\t// out\n    /* \"#utility.yul\":7:133   */\ntag_13:\n    /* \"#utility.yul\":44:51   */\n  0x00\n    /* \"#utility.yul\":84:126   */\n  0xffffffffffffffffffffffffffffffffffffffff\n    /* \"#utility.yul\":77:82   */\n  dup3\n    /* \"#utility.yul\":73:127   */\n  and\n    /* \"#utility.yul\":62:127   */\n  swap1\n  pop\n    /* \"#utility.yul\":7:133   */\n  swap2\n  swap1\n  pop\n  jump\t// out\n    /* \"#utility.yul\":139:235   */\ntag_14:\n    /* \"#utility.yul\":176:183   */\n  0x00\n    /* \"#utility.yul\":205:229   */\n  tag_19\n    /* \"#utility.yul\":223:228   */\n  dup3\n    /* \"#utility.yul\":205:229   */\n  tag_13\n  jump\t// in\ntag_19:\n    /* \"#utility.yul\":194:229   */\n  swap1\n  pop\n    /* \"#utility.yul\":139:235   */\n  swap2\n  swap1\n  pop\n  jump\t// out\n    /* \"#utility.yul\":241:359   */\ntag_15:\n    /* \"#utility.yul\":328:352   */\n  tag_21\n    /* \"#utility.yul\":346:351   */\n  dup2\n    /* \"#utility.yul\":328:352   */\n  tag_14\n  jump\t// in\ntag_21:\n    /* \"#utility.yul\":323:326   */\n  dup3\n    /* \"#utility.yul\":316:353   */\n  mstore\n    /* \"#utility.yul\":241:359   */\n  pop\n  pop\n  jump\t// out\n    /* \"#utility.yul\":365:587   */\ntag_7:\n    /* \"#utility.yul\":458:462   */\n  0x00\n    /* \"#utility.yul\":496:498   */\n  0x20\n    /* \"#utility.yul\":485:494   */\n  dup3\n    /* \"#utility.yul\":481:499   */\n  add\n    /* \"#utility.yul\":473:499   */\n  swap1\n  pop\n    /* \"#utility.yul\":509:580   */\n  tag_23\n    /* \"#utility.yul\":577:578   */\n  0x00\n    /* \"#utility.yul\":566:575   */\n  dup4\n    /* \"#utility.yul\":562:579   */\n  add\n    /* \"#utility.yul\":553:559   */\n  dup5\n    /* \"#utility.yul\":509:580   */\n  tag_15\n  jump\t// in\ntag_23:\n    /* \"#utility.yul\":365:587   */\n  swap3\n  swap2\n  pop\n  pop\n  jump\t// out\n    /* \"contracts/Voting.sol\":113:5816  contract Voting is Ownable {... */\ntag_11:\n  dataSize(sub_0)\n  dup1\n  dataOffset(sub_0)\n  0x00\n  codecopy\n  0x00\n  return\nstop\n\nsub_0: assembly {\n        /* \"contracts/Voting.sol\":113:5816  contract Voting is Ownable {... */\n      mstore(0x40, 0x80)\n      callvalue\n      dup1\n      iszero\n      tag_1\n      jumpi\n      0x00\n      dup1\n      revert\n    tag_1:\n      pop\n      jumpi(tag_2, lt(calldatasize, 0x04))\n      shr(0xe0, calldataload(0x00))\n      dup1\n      0x8e7ea5b2\n      gt\n      tag_17\n      jumpi\n      dup1\n      0xa587f077\n      gt\n      tag_18\n      jumpi\n      dup1\n      0xa587f077\n      eq\n      tag_13\n      jumpi\n      dup1\n      0xb9223946\n      eq\n      tag_14\n      jumpi\n      dup1\n      0xf2fde38b\n      eq\n      tag_15\n      jumpi\n      dup1\n      0xf4ab9adf\n      eq\n      tag_16\n      jumpi\n      jump(tag_2)\n    tag_18:\n      dup1\n      0x8e7ea5b2\n      eq\n      tag_10\n      jumpi\n      dup1\n      0x98f6560b\n      eq\n      tag_11\n      jumpi\n      dup1\n      0x9c6a46c4\n      eq\n      tag_12\n      jumpi\n      jump(tag_2)\n    tag_17:\n      dup1\n      0x4c0a6af0\n      gt\n      tag_19\n      jumpi\n      dup1\n      0x4c0a6af0\n      eq\n      tag_6\n      jumpi\n      dup1\n      0x62564c48\n      eq\n      tag_7\n      jumpi\n      dup1\n      0x715018a6\n      eq\n      tag_8\n      jumpi\n      dup1\n      0x8da5cb5b\n      eq\n      tag_9\n      jumpi\n      jump(tag_2)\n    tag_19:\n      dup1\n      0x0121b93f\n      eq\n      tag_3\n      jumpi\n      dup1\n      0x274da81f\n      eq\n      tag_4\n      jumpi\n      dup1\n      0x2fdae3c5\n      eq\n      tag_5\n      jumpi\n    tag_2:\n      0x00\n      dup1\n      revert\n        /* \"contracts/Voting.sol\":4410:4905  function vote(uint _id) external isAuthorize {... */\n    tag_3:\n      tag_20\n      0x04\n      dup1\n      calldatasize\n      sub\n      dup2\n      add\n      swap1\n      tag_21\n      swap2\n      swap1\n      tag_22\n      jump\t// in\n    tag_21:\n      tag_23\n      jump\t// in\n    tag_20:\n      stop\n        /* \"contracts/Voting.sol\":1388:1678  function startProposal() external onlyOwner {... */\n    tag_4:\n      tag_24\n      tag_25\n      jump\t// in\n    tag_24:\n      stop\n        /* \"contracts/Voting.sol\":3983:4267  function addProposal(string calldata _description) external isAuthorize {... */\n    tag_5:\n      tag_26\n      0x04\n      dup1\n      calldatasize\n      sub\n      dup2\n      add\n      swap1\n      tag_27\n      swap2\n      swap1\n      tag_28\n      jump\t// in\n    tag_27:\n      tag_29\n      jump\t// in\n    tag_26:\n      stop\n        /* \"contracts/Voting.sol\":1735:2033  function startVote() external onlyOwner {... */\n    tag_6:\n      tag_30\n      tag_31\n      jump\t// in\n    tag_30:\n      stop\n        /* \"contracts/Voting.sol\":5022:5197  function getProposals() external view isAuthorize returns(Proposal[] memory) {... */\n    tag_7:\n      tag_32\n      tag_33\n      jump\t// in\n    tag_32:\n      mload(0x40)\n      tag_34\n      swap2\n      swap1\n      tag_35\n      jump\t// in\n    tag_34:\n      mload(0x40)\n      dup1\n      swap2\n      sub\n      swap1\n      return\n        /* \"@openzeppelin/contracts/access/Ownable.sol\":2293:2394  function renounceOwnership() public virtual onlyOwner {... */\n    tag_8:\n      tag_36\n      tag_37\n      jump\t// in\n    tag_36:\n      stop\n        /* \"@openzeppelin/contracts/access/Ownable.sol\":1638:1723  function owner() public view virtual returns (address) {... */\n    tag_9:\n      tag_38\n      tag_39\n      jump\t// in\n    tag_38:\n      mload(0x40)\n      tag_40\n      swap2\n      swap1\n      tag_41\n      jump\t// in\n    tag_40:\n      mload(0x40)\n      dup1\n      swap2\n      sub\n      swap1\n      return\n        /* \"contracts/Voting.sol\":5614:5813  function getWinner() external view returns (Proposal memory) {... */\n    tag_10:\n      tag_42\n      tag_43\n      jump\t// in\n    tag_42:\n      mload(0x40)\n      tag_44\n      swap2\n      swap1\n      tag_45\n      jump\t// in\n    tag_44:\n      mload(0x40)\n      dup1\n      swap2\n      sub\n      swap1\n      return\n        /* \"contracts/Voting.sol\":2100:2400  function endProposal() external onlyOwner {... */\n    tag_11:\n      tag_46\n      tag_47\n      jump\t// in\n    tag_46:\n      stop\n        /* \"contracts/Voting.sol\":2793:3404  function talliedVote() external onlyOwner {... */\n    tag_12:\n      tag_48\n      tag_49\n      jump\t// in\n    tag_48:\n      stop\n        /* \"contracts/Voting.sol\":5338:5543  function getVoteTo(address _address) external view isAuthorize returns(Voter memory) {... */\n    tag_13:\n      tag_50\n      0x04\n      dup1\n      calldatasize\n      sub\n      dup2\n      add\n      swap1\n      tag_51\n      swap2\n      swap1\n      tag_52\n      jump\t// in\n    tag_51:\n      tag_53\n      jump\t// in\n    tag_50:\n      mload(0x40)\n      tag_54\n      swap2\n      swap1\n      tag_55\n      jump\t// in\n    tag_54:\n      mload(0x40)\n      dup1\n      swap2\n      sub\n      swap1\n      return\n        /* \"contracts/Voting.sol\":2460:2728  function endVote() external onlyOwner {... */\n    tag_14:\n      tag_56\n      tag_57\n      jump\t// in\n    tag_56:\n      stop\n        /* \"@openzeppelin/contracts/access/Ownable.sol\":2543:2758  function transferOwnership(address newOwner) public virtual onlyOwner {... */\n    tag_15:\n      tag_58\n      0x04\n      dup1\n      calldatasize\n      sub\n      dup2\n      add\n      swap1\n      tag_59\n      swap2\n      swap1\n      tag_52\n      jump\t// in\n    tag_59:\n      tag_60\n      jump\t// in\n    tag_58:\n      stop\n        /* \"contracts/Voting.sol\":3521:3859  function addVoter(address _address) external onlyOwner {... */\n    tag_16:\n      tag_61\n      0x04\n      dup1\n      calldatasize\n      sub\n      dup2\n      add\n      swap1\n      tag_62\n      swap2\n      swap1\n      tag_52\n      jump\t// in\n    tag_62:\n      tag_63\n      jump\t// in\n    tag_61:\n      stop\n        /* \"contracts/Voting.sol\":4410:4905  function vote(uint _id) external isAuthorize {... */\n    tag_23:\n        /* \"contracts/Voting.sol\":1236:1245  whiteList */\n      0x01\n        /* \"contracts/Voting.sol\":1236:1257  whiteList[msg.sender] */\n      0x00\n        /* \"contracts/Voting.sol\":1246:1256  msg.sender */\n      caller\n        /* \"contracts/Voting.sol\":1236:1257  whiteList[msg.sender] */\n      0xffffffffffffffffffffffffffffffffffffffff\n      and\n      0xffffffffffffffffffffffffffffffffffffffff\n      and\n      dup2\n      mstore\n      0x20\n      add\n      swap1\n      dup2\n      mstore\n      0x20\n      add\n      0x00\n      keccak256\n        /* \"contracts/Voting.sol\":1236:1270  whiteList[msg.sender].isRegistered */\n      0x00\n      add\n      0x00\n      swap1\n      sload\n      swap1\n      0x0100\n      exp\n      swap1\n      div\n      0xff\n      and\n        /* \"contracts/Voting.sol\":1228:1306  require(whiteList[msg.sender].isRegistered, \"Your are not registered in list\") */\n      tag_65\n      jumpi\n      mload(0x40)\n      0x08c379a000000000000000000000000000000000000000000000000000000000\n      dup2\n      mstore\n      0x04\n      add\n      tag_66\n      swap1\n      tag_67\n      jump\t// in\n    tag_66:\n      mload(0x40)\n      dup1\n      swap2\n      sub\n      swap1\n      revert\n    tag_65:\n        /* \"contracts/Voting.sol\":4483:4518  WorkflowStatus.VotingSessionStarted */\n      0x03\n        /* \"contracts/Voting.sol\":4473:4518  status == WorkflowStatus.VotingSessionStarted */\n      0x05\n      dup2\n      gt\n      iszero\n      tag_69\n      jumpi\n      tag_70\n      tag_71\n      jump\t// in\n    tag_70:\n    tag_69:\n        /* \"contracts/Voting.sol\":4473:4479  status */\n      0x03\n      0x00\n      swap1\n      sload\n      swap1\n      0x0100\n      exp\n      swap1\n      div\n      0xff\n      and\n        /* \"contracts/Voting.sol\":4473:4518  status == WorkflowStatus.VotingSessionStarted */\n      0x05\n      dup2\n      gt\n      iszero\n      tag_72\n      jumpi\n      tag_73\n      tag_71\n      jump\t// in\n    tag_73:\n    tag_72:\n      eq\n        /* \"contracts/Voting.sol\":4465:4548  require(status == WorkflowStatus.VotingSessionStarted, \"It must be voting session\") */\n      tag_74\n      jumpi\n      mload(0x40)\n      0x08c379a000000000000000000000000000000000000000000000000000000000\n      dup2\n      mstore\n      0x04\n      add\n      tag_75\n      swap1\n      tag_76\n      jump\t// in\n    tag_75:\n      mload(0x40)\n      dup1\n      swap2\n      sub\n      swap1\n      revert\n    tag_74:\n        /* \"contracts/Voting.sol\":4567:4576  whiteList */\n      0x01\n        /* \"contracts/Voting.sol\":4567:4588  whiteList[msg.sender] */\n      0x00\n        /* \"contracts/Voting.sol\":4577:4587  msg.sender */\n      caller\n        /* \"contracts/Voting.sol\":4567:4588  whiteList[msg.sender] */\n      0xffffffffffffffffffffffffffffffffffffffff\n      and\n      0xffffffffffffffffffffffffffffffffffffffff\n      and\n      dup2\n      mstore\n      0x20\n      add\n      swap1\n      dup2\n      mstore\n      0x20\n      add\n      0x00\n      keccak256\n        /* \"contracts/Voting.sol\":4567:4597  whiteList[msg.sender].hasVoted */\n      0x00\n      add\n      0x01\n      swap1\n      sload\n      swap1\n      0x0100\n      exp\n      swap1\n      div\n      0xff\n      and\n        /* \"contracts/Voting.sol\":4566:4597  !whiteList[msg.sender].hasVoted */\n      iszero\n        /* \"contracts/Voting.sol\":4558:4624  require(!whiteList[msg.sender].hasVoted, \"You have already voted\") */\n      tag_77\n      jumpi\n      mload(0x40)\n      0x08c379a000000000000000000000000000000000000000000000000000000000\n      dup2\n      mstore\n      0x04\n      add\n      tag_78\n      swap1\n      tag_79\n      jump\t// in\n    tag_78:\n      mload(0x40)\n      dup1\n      swap2\n      sub\n      swap1\n      revert\n    tag_77:\n        /* \"contracts/Voting.sol\":4662:4663  0 */\n      0x00\n        /* \"contracts/Voting.sol\":4642:4651  proposals */\n      0x02\n        /* \"contracts/Voting.sol\":4642:4658  proposals.length */\n      dup1\n      sload\n      swap1\n      pop\n        /* \"contracts/Voting.sol\":4642:4663  proposals.length != 0 */\n      eq\n      iszero\n        /* \"contracts/Voting.sol\":4642:4690  proposals.length != 0 && _id <= proposals.length */\n      dup1\n      iszero\n      tag_80\n      jumpi\n      pop\n        /* \"contracts/Voting.sol\":4674:4683  proposals */\n      0x02\n        /* \"contracts/Voting.sol\":4674:4690  proposals.length */\n      dup1\n      sload\n      swap1\n      pop\n        /* \"contracts/Voting.sol\":4667:4670  _id */\n      dup2\n        /* \"contracts/Voting.sol\":4667:4690  _id <= proposals.length */\n      gt\n      iszero\n        /* \"contracts/Voting.sol\":4642:4690  proposals.length != 0 && _id <= proposals.length */\n    tag_80:\n        /* \"contracts/Voting.sol\":4634:4722  require(proposals.length != 0 && _id <= proposals.length, \"This proposal doesn't exist\") */\n      tag_81\n      jumpi\n      mload(0x40)\n      0x08c379a000000000000000000000000000000000000000000000000000000000\n      dup2\n      mstore\n      0x04\n      add\n      tag_82\n      swap1\n      tag_83\n      jump\t// in\n    tag_82:\n      mload(0x40)\n      dup1\n      swap2\n      sub\n      swap1\n      revert\n    tag_81:\n        /* \"contracts/Voting.sol\":4765:4769  true */\n      0x01\n        /* \"contracts/Voting.sol\":4732:4741  whiteList */\n      dup1\n        /* \"contracts/Voting.sol\":4732:4753  whiteList[msg.sender] */\n      0x00\n        /* \"contracts/Voting.sol\":4742:4752  msg.sender */\n      caller\n        /* \"contracts/Voting.sol\":4732:4753  whiteList[msg.sender] */\n      0xffffffffffffffffffffffffffffffffffffffff\n      and\n      0xffffffffffffffffffffffffffffffffffffffff\n      and\n      dup2\n      mstore\n      0x20\n      add\n      swap1\n      dup2\n      mstore\n      0x20\n      add\n      0x00\n      keccak256\n        /* \"contracts/Voting.sol\":4732:4762  whiteList[msg.sender].hasVoted */\n      0x00\n      add\n      0x01\n        /* \"contracts/Voting.sol\":4732:4769  whiteList[msg.sender].hasVoted = true */\n      0x0100\n      exp\n      dup2\n      sload\n      dup2\n      0xff\n      mul\n      not\n      and\n      swap1\n      dup4\n      iszero\n      iszero\n      mul\n      or\n      swap1\n      sstore\n      pop\n        /* \"contracts/Voting.sol\":4819:4822  _id */\n      dup1\n        /* \"contracts/Voting.sol\":4779:4788  whiteList */\n      0x01\n        /* \"contracts/Voting.sol\":4779:4800  whiteList[msg.sender] */\n      0x00\n        /* \"contracts/Voting.sol\":4789:4799  msg.sender */\n      caller\n        /* \"contracts/Voting.sol\":4779:4800  whiteList[msg.sender] */\n      0xffffffffffffffffffffffffffffffffffffffff\n      and\n      0xffffffffffffffffffffffffffffffffffffffff\n      and\n      dup2\n      mstore\n      0x20\n      add\n      swap1\n      dup2\n      mstore\n      0x20\n      add\n      0x00\n      keccak256\n        /* \"contracts/Voting.sol\":4779:4816  whiteList[msg.sender].votedProposalId */\n      0x01\n      add\n        /* \"contracts/Voting.sol\":4779:4822  whiteList[msg.sender].votedProposalId = _id */\n      dup2\n      swap1\n      sstore\n      pop\n        /* \"contracts/Voting.sol\":4860:4861  1 */\n      0x01\n        /* \"contracts/Voting.sol\":4832:4841  proposals */\n      0x02\n        /* \"contracts/Voting.sol\":4842:4845  _id */\n      dup3\n        /* \"contracts/Voting.sol\":4832:4846  proposals[_id] */\n      dup2\n      sload\n      dup2\n      lt\n      tag_84\n      jumpi\n      tag_85\n      tag_86\n      jump\t// in\n    tag_85:\n    tag_84:\n      swap1\n      0x00\n      mstore\n      keccak256(0x00, 0x20)\n      swap1\n      0x02\n      mul\n      add\n        /* \"contracts/Voting.sol\":4832:4856  proposals[_id].voteCount */\n      0x01\n      add\n      0x00\n        /* \"contracts/Voting.sol\":4832:4861  proposals[_id].voteCount += 1 */\n      dup3\n      dup3\n      sload\n      tag_88\n      swap2\n      swap1\n      tag_89\n      jump\t// in\n    tag_88:\n      swap3\n      pop\n      pop\n      dup2\n      swap1\n      sstore\n      pop\n        /* \"contracts/Voting.sol\":4876:4898  Voted(msg.sender, _id) */\n      0x4d99b957a2bc29a30ebd96a7be8e68fe50a3c701db28a91436490b7d53870ca4\n        /* \"contracts/Voting.sol\":4882:4892  msg.sender */\n      caller\n        /* \"contracts/Voting.sol\":4894:4897  _id */\n      dup3\n        /* \"contracts/Voting.sol\":4876:4898  Voted(msg.sender, _id) */\n      mload(0x40)\n      tag_90\n      swap3\n      swap2\n      swap1\n      tag_91\n      jump\t// in\n    tag_90:\n      mload(0x40)\n      dup1\n      swap2\n      sub\n      swap1\n      log1\n        /* \"contracts/Voting.sol\":4410:4905  function vote(uint _id) external isAuthorize {... */\n      pop\n      jump\t// out\n        /* \"contracts/Voting.sol\":1388:1678  function startProposal() external onlyOwner {... */\n    tag_25:\n        /* \"@openzeppelin/contracts/access/Ownable.sol\":1531:1544  _checkOwner() */\n      tag_93\n        /* \"@openzeppelin/contracts/access/Ownable.sol\":1531:1542  _checkOwner */\n      tag_94\n        /* \"@openzeppelin/contracts/access/Ownable.sol\":1531:1544  _checkOwner() */\n      jump\t// in\n    tag_93:\n        /* \"contracts/Voting.sol\":1460:1492  WorkflowStatus.RegisteringVoters */\n      0x00\n        /* \"contracts/Voting.sol\":1450:1492  status == WorkflowStatus.RegisteringVoters */\n      0x05\n      dup2\n      gt\n      iszero\n      tag_96\n      jumpi\n      tag_97\n      tag_71\n      jump\t// in\n    tag_97:\n    tag_96:\n        /* \"contracts/Voting.sol\":1450:1456  status */\n      0x03\n      0x00\n      swap1\n      sload\n      swap1\n      0x0100\n      exp\n      swap1\n      div\n      0xff\n      and\n        /* \"contracts/Voting.sol\":1450:1492  status == WorkflowStatus.RegisteringVoters */\n      0x05\n      dup2\n      gt\n      iszero\n      tag_98\n      jumpi\n      tag_99\n      tag_71\n      jump\t// in\n    tag_99:\n    tag_98:\n      eq\n        /* \"contracts/Voting.sol\":1442:1532  require(status == WorkflowStatus.RegisteringVoters, \"It must be registering voter before\") */\n      tag_100\n      jumpi\n      mload(0x40)\n      0x08c379a000000000000000000000000000000000000000000000000000000000\n      dup2\n      mstore\n      0x04\n      add\n      tag_101\n      swap1\n      tag_102\n      jump\t// in\n    tag_101:\n      mload(0x40)\n      dup1\n      swap2\n      sub\n      swap1\n      revert\n    tag_100:\n        /* \"contracts/Voting.sol\":1551:1594  WorkflowStatus.ProposalsRegistrationStarted */\n      0x01\n        /* \"contracts/Voting.sol\":1542:1548  status */\n      0x03\n      0x00\n        /* \"contracts/Voting.sol\":1542:1594  status = WorkflowStatus.ProposalsRegistrationStarted */\n      0x0100\n      exp\n      dup2\n      sload\n      dup2\n      0xff\n      mul\n      not\n      and\n      swap1\n      dup4\n      0x05\n      dup2\n      gt\n      iszero\n      tag_103\n      jumpi\n      tag_104\n      tag_71\n      jump\t// in\n    tag_104:\n    tag_103:\n      mul\n      or\n      swap1\n      sstore\n      pop\n        /* \"contracts/Voting.sol\":1609:1671  WorkflowStatusChange(WorkflowStatus.RegisteringVoters, status) */\n      0x0a97a4ee45751e2abf3e4fc8946939630b11b371ea8ae39ccdc3056e98f5cc3f\n        /* \"contracts/Voting.sol\":1630:1662  WorkflowStatus.RegisteringVoters */\n      0x00\n        /* \"contracts/Voting.sol\":1664:1670  status */\n      0x03\n      0x00\n      swap1\n      sload\n      swap1\n      0x0100\n      exp\n      swap1\n      div\n      0xff\n      and\n        /* \"contracts/Voting.sol\":1609:1671  WorkflowStatusChange(WorkflowStatus.RegisteringVoters, status) */\n      mload(0x40)\n      tag_105\n      swap3\n      swap2\n      swap1\n      tag_106\n      jump\t// in\n    tag_105:\n      mload(0x40)\n      dup1\n      swap2\n      sub\n      swap1\n      log1\n        /* \"contracts/Voting.sol\":1388:1678  function startProposal() external onlyOwner {... */\n      jump\t// out\n        /* \"contracts/Voting.sol\":3983:4267  function addProposal(string calldata _description) external isAuthorize {... */\n    tag_29:\n        /* \"contracts/Voting.sol\":1236:1245  whiteList */\n      0x01\n        /* \"contracts/Voting.sol\":1236:1257  whiteList[msg.sender] */\n      0x00\n        /* \"contracts/Voting.sol\":1246:1256  msg.sender */\n      caller\n        /* \"contracts/Voting.sol\":1236:1257  whiteList[msg.sender] */\n      0xffffffffffffffffffffffffffffffffffffffff\n      and\n      0xffffffffffffffffffffffffffffffffffffffff\n      and\n      dup2\n      mstore\n      0x20\n      add\n      swap1\n      dup2\n      mstore\n      0x20\n      add\n      0x00\n      keccak256\n        /* \"contracts/Voting.sol\":1236:1270  whiteList[msg.sender].isRegistered */\n      0x00\n      add\n      0x00\n      swap1\n      sload\n      swap1\n      0x0100\n      exp\n      swap1\n      div\n      0xff\n      and\n        /* \"contracts/Voting.sol\":1228:1306  require(whiteList[msg.sender].isRegistered, \"Your are not registered in list\") */\n      tag_108\n      jumpi\n      mload(0x40)\n      0x08c379a000000000000000000000000000000000000000000000000000000000\n      dup2\n      mstore\n      0x04\n      add\n      tag_109\n      swap1\n      tag_67\n      jump\t// in\n    tag_109:\n      mload(0x40)\n      dup1\n      swap2\n      sub\n      swap1\n      revert\n    tag_108:\n        /* \"contracts/Voting.sol\":4083:4126  WorkflowStatus.ProposalsRegistrationStarted */\n      0x01\n        /* \"contracts/Voting.sol\":4073:4126  status == WorkflowStatus.ProposalsRegistrationStarted */\n      0x05\n      dup2\n      gt\n      iszero\n      tag_111\n      jumpi\n      tag_112\n      tag_71\n      jump\t// in\n    tag_112:\n    tag_111:\n        /* \"contracts/Voting.sol\":4073:4079  status */\n      0x03\n      0x00\n      swap1\n      sload\n      swap1\n      0x0100\n      exp\n      swap1\n      div\n      0xff\n      and\n        /* \"contracts/Voting.sol\":4073:4126  status == WorkflowStatus.ProposalsRegistrationStarted */\n      0x05\n      dup2\n      gt\n      iszero\n      tag_113\n      jumpi\n      tag_114\n      tag_71\n      jump\t// in\n    tag_114:\n    tag_113:\n      eq\n        /* \"contracts/Voting.sol\":4065:4158  require(status == WorkflowStatus.ProposalsRegistrationStarted, \"It must be proposal session\") */\n      tag_115\n      jumpi\n      mload(0x40)\n      0x08c379a000000000000000000000000000000000000000000000000000000000\n      dup2\n      mstore\n      0x04\n      add\n      tag_116\n      swap1\n      tag_117\n      jump\t// in\n    tag_116:\n      mload(0x40)\n      dup1\n      swap2\n      sub\n      swap1\n      revert\n    tag_115:\n        /* \"contracts/Voting.sol\":4168:4177  proposals */\n      0x02\n        /* \"contracts/Voting.sol\":4183:4208  Proposal(_description, 0) */\n      mload(0x40)\n      dup1\n      0x40\n      add\n      0x40\n      mstore\n      dup1\n        /* \"contracts/Voting.sol\":4192:4204  _description */\n      dup5\n      dup5\n        /* \"contracts/Voting.sol\":4183:4208  Proposal(_description, 0) */\n      dup1\n      dup1\n      0x1f\n      add\n      0x20\n      dup1\n      swap2\n      div\n      mul\n      0x20\n      add\n      mload(0x40)\n      swap1\n      dup2\n      add\n      0x40\n      mstore\n      dup1\n      swap4\n      swap3\n      swap2\n      swap1\n      dup2\n      dup2\n      mstore\n      0x20\n      add\n      dup4\n      dup4\n      dup1\n      dup3\n      dup5\n      calldatacopy\n      0x00\n      dup2\n      dup5\n      add\n      mstore\n      not(0x1f)\n      0x1f\n      dup3\n      add\n      and\n      swap1\n      pop\n      dup1\n      dup4\n      add\n      swap3\n      pop\n      pop\n      pop\n      pop\n      pop\n      pop\n      pop\n      dup2\n      mstore\n      0x20\n      add\n        /* \"contracts/Voting.sol\":4206:4207  0 */\n      0x00\n        /* \"contracts/Voting.sol\":4183:4208  Proposal(_description, 0) */\n      dup2\n      mstore\n      pop\n        /* \"contracts/Voting.sol\":4168:4209  proposals.push(Proposal(_description, 0)) */\n      swap1\n      dup1\n      0x01\n      dup2\n      sload\n      add\n      dup1\n      dup3\n      sstore\n      dup1\n      swap2\n      pop\n      pop\n      0x01\n      swap1\n      sub\n      swap1\n      0x00\n      mstore\n      keccak256(0x00, 0x20)\n      swap1\n      0x02\n      mul\n      add\n      0x00\n      swap1\n      swap2\n      swap1\n      swap2\n      swap1\n      swap2\n      pop\n      0x00\n      dup3\n      add\n      mload\n      dup2\n      0x00\n      add\n      swap1\n      dup2\n      tag_119\n      swap2\n      swap1\n      tag_120\n      jump\t// in\n    tag_119:\n      pop\n      0x20\n      dup3\n      add\n      mload\n      dup2\n      0x01\n      add\n      sstore\n      pop\n      pop\n        /* \"contracts/Voting.sol\":4224:4260  ProposalRegistered(proposals.length) */\n      0x92e393e9b54e2f801d3ea4beb0c5e71a21cc34a5d34b77d0fb8a3aa1650dc18f\n        /* \"contracts/Voting.sol\":4243:4252  proposals */\n      0x02\n        /* \"contracts/Voting.sol\":4243:4259  proposals.length */\n      dup1\n      sload\n      swap1\n      pop\n        /* \"contracts/Voting.sol\":4224:4260  ProposalRegistered(proposals.length) */\n      mload(0x40)\n      tag_121\n      swap2\n      swap1\n      tag_122\n      jump\t// in\n    tag_121:\n      mload(0x40)\n      dup1\n      swap2\n      sub\n      swap1\n      log1\n        /* \"contracts/Voting.sol\":3983:4267  function addProposal(string calldata _description) external isAuthorize {... */\n      pop\n      pop\n      jump\t// out\n        /* \"contracts/Voting.sol\":1735:2033  function startVote() external onlyOwner {... */\n    tag_31:\n        /* \"@openzeppelin/contracts/access/Ownable.sol\":1531:1544  _checkOwner() */\n      tag_124\n        /* \"@openzeppelin/contracts/access/Ownable.sol\":1531:1542  _checkOwner */\n      tag_94\n        /* \"@openzeppelin/contracts/access/Ownable.sol\":1531:1544  _checkOwner() */\n      jump\t// in\n    tag_124:\n        /* \"contracts/Voting.sol\":1803:1844  WorkflowStatus.ProposalsRegistrationEnded */\n      0x02\n        /* \"contracts/Voting.sol\":1793:1844  status == WorkflowStatus.ProposalsRegistrationEnded */\n      0x05\n      dup2\n      gt\n      iszero\n      tag_126\n      jumpi\n      tag_127\n      tag_71\n      jump\t// in\n    tag_127:\n    tag_126:\n        /* \"contracts/Voting.sol\":1793:1799  status */\n      0x03\n      0x00\n      swap1\n      sload\n      swap1\n      0x0100\n      exp\n      swap1\n      div\n      0xff\n      and\n        /* \"contracts/Voting.sol\":1793:1844  status == WorkflowStatus.ProposalsRegistrationEnded */\n      0x05\n      dup2\n      gt\n      iszero\n      tag_128\n      jumpi\n      tag_129\n      tag_71\n      jump\t// in\n    tag_129:\n    tag_128:\n      eq\n        /* \"contracts/Voting.sol\":1785:1886  require(status == WorkflowStatus.ProposalsRegistrationEnded, \"It must be the end of proposal before\") */\n      tag_130\n      jumpi\n      mload(0x40)\n      0x08c379a000000000000000000000000000000000000000000000000000000000\n      dup2\n      mstore\n      0x04\n      add\n      tag_131\n      swap1\n      tag_132\n      jump\t// in\n    tag_131:\n      mload(0x40)\n      dup1\n      swap2\n      sub\n      swap1\n      revert\n    tag_130:\n        /* \"contracts/Voting.sol\":1905:1940  WorkflowStatus.VotingSessionStarted */\n      0x03\n        /* \"contracts/Voting.sol\":1896:1902  status */\n      dup1\n      0x00\n        /* \"contracts/Voting.sol\":1896:1940  status = WorkflowStatus.VotingSessionStarted */\n      0x0100\n      exp\n      dup2\n      sload\n      dup2\n      0xff\n      mul\n      not\n      and\n      swap1\n      dup4\n      0x05\n      dup2\n      gt\n      iszero\n      tag_133\n      jumpi\n      tag_134\n      tag_71\n      jump\t// in\n    tag_134:\n    tag_133:\n      mul\n      or\n      swap1\n      sstore\n      pop\n        /* \"contracts/Voting.sol\":1955:2026  WorkflowStatusChange(WorkflowStatus.ProposalsRegistrationEnded, status) */\n      0x0a97a4ee45751e2abf3e4fc8946939630b11b371ea8ae39ccdc3056e98f5cc3f\n        /* \"contracts/Voting.sol\":1976:2017  WorkflowStatus.ProposalsRegistrationEnded */\n      0x02\n        /* \"contracts/Voting.sol\":2019:2025  status */\n      0x03\n      0x00\n      swap1\n      sload\n      swap1\n      0x0100\n      exp\n      swap1\n      div\n      0xff\n      and\n        /* \"contracts/Voting.sol\":1955:2026  WorkflowStatusChange(WorkflowStatus.ProposalsRegistrationEnded, status) */\n      mload(0x40)\n      tag_135\n      swap3\n      swap2\n      swap1\n      tag_106\n      jump\t// in\n    tag_135:\n      mload(0x40)\n      dup1\n      swap2\n      sub\n      swap1\n      log1\n        /* \"contracts/Voting.sol\":1735:2033  function startVote() external onlyOwner {... */\n      jump\t// out\n        /* \"contracts/Voting.sol\":5022:5197  function getProposals() external view isAuthorize returns(Proposal[] memory) {... */\n    tag_33:\n        /* \"contracts/Voting.sol\":5080:5097  Proposal[] memory */\n      0x60\n        /* \"contracts/Voting.sol\":1236:1245  whiteList */\n      0x01\n        /* \"contracts/Voting.sol\":1236:1257  whiteList[msg.sender] */\n      0x00\n        /* \"contracts/Voting.sol\":1246:1256  msg.sender */\n      caller\n        /* \"contracts/Voting.sol\":1236:1257  whiteList[msg.sender] */\n      0xffffffffffffffffffffffffffffffffffffffff\n      and\n      0xffffffffffffffffffffffffffffffffffffffff\n      and\n      dup2\n      mstore\n      0x20\n      add\n      swap1\n      dup2\n      mstore\n      0x20\n      add\n      0x00\n      keccak256\n        /* \"contracts/Voting.sol\":1236:1270  whiteList[msg.sender].isRegistered */\n      0x00\n      add\n      0x00\n      swap1\n      sload\n      swap1\n      0x0100\n      exp\n      swap1\n      div\n      0xff\n      and\n        /* \"contracts/Voting.sol\":1228:1306  require(whiteList[msg.sender].isRegistered, \"Your are not registered in list\") */\n      tag_137\n      jumpi\n      mload(0x40)\n      0x08c379a000000000000000000000000000000000000000000000000000000000\n      dup2\n      mstore\n      0x04\n      add\n      tag_138\n      swap1\n      tag_67\n      jump\t// in\n    tag_138:\n      mload(0x40)\n      dup1\n      swap2\n      sub\n      swap1\n      revert\n    tag_137:\n        /* \"contracts/Voting.sol\":5137:5138  0 */\n      0x00\n        /* \"contracts/Voting.sol\":5117:5126  proposals */\n      0x02\n        /* \"contracts/Voting.sol\":5117:5133  proposals.length */\n      dup1\n      sload\n      swap1\n      pop\n        /* \"contracts/Voting.sol\":5117:5138  proposals.length != 0 */\n      sub\n        /* \"contracts/Voting.sol\":5109:5164  require(proposals.length != 0, \"There aren't proposal\") */\n      tag_140\n      jumpi\n      mload(0x40)\n      0x08c379a000000000000000000000000000000000000000000000000000000000\n      dup2\n      mstore\n      0x04\n      add\n      tag_141\n      swap1\n      tag_142\n      jump\t// in\n    tag_141:\n      mload(0x40)\n      dup1\n      swap2\n      sub\n      swap1\n      revert\n    tag_140:\n        /* \"contracts/Voting.sol\":5181:5190  proposals */\n      0x02\n        /* \"contracts/Voting.sol\":5174:5190  return proposals */\n      dup1\n      sload\n      dup1\n      0x20\n      mul\n      0x20\n      add\n      mload(0x40)\n      swap1\n      dup2\n      add\n      0x40\n      mstore\n      dup1\n      swap3\n      swap2\n      swap1\n      dup2\n      dup2\n      mstore\n      0x20\n      add\n      0x00\n      swap1\n    tag_143:\n      dup3\n      dup3\n      lt\n      iszero\n      tag_144\n      jumpi\n      dup4\n      dup3\n      swap1\n      0x00\n      mstore\n      keccak256(0x00, 0x20)\n      swap1\n      0x02\n      mul\n      add\n      mload(0x40)\n      dup1\n      0x40\n      add\n      0x40\n      mstore\n      swap1\n      dup2\n      0x00\n      dup3\n      add\n      dup1\n      sload\n      tag_146\n      swap1\n      tag_147\n      jump\t// in\n    tag_146:\n      dup1\n      0x1f\n      add\n      0x20\n      dup1\n      swap2\n      div\n      mul\n      0x20\n      add\n      mload(0x40)\n      swap1\n      dup2\n      add\n      0x40\n      mstore\n      dup1\n      swap3\n      swap2\n      swap1\n      dup2\n      dup2\n      mstore\n      0x20\n      add\n      dup3\n      dup1\n      sload\n      tag_148\n      swap1\n      tag_147\n      jump\t// in\n    tag_148:\n      dup1\n      iszero\n      tag_149\n      jumpi\n      dup1\n      0x1f\n      lt\n      tag_150\n      jumpi\n      0x0100\n      dup1\n      dup4\n      sload\n      div\n      mul\n      dup4\n      mstore\n      swap2\n      0x20\n      add\n      swap2\n      jump(tag_149)\n    tag_150:\n      dup3\n      add\n      swap2\n      swap1\n      0x00\n      mstore\n      keccak256(0x00, 0x20)\n      swap1\n    tag_151:\n      dup2\n      sload\n      dup2\n      mstore\n      swap1\n      0x01\n      add\n      swap1\n      0x20\n      add\n      dup1\n      dup4\n      gt\n      tag_151\n      jumpi\n      dup3\n      swap1\n      sub\n      0x1f\n      and\n      dup3\n      add\n      swap2\n    tag_149:\n      pop\n      pop\n      pop\n      pop\n      pop\n      dup2\n      mstore\n      0x20\n      add\n      0x01\n      dup3\n      add\n      sload\n      dup2\n      mstore\n      pop\n      pop\n      dup2\n      mstore\n      0x20\n      add\n      swap1\n      0x01\n      add\n      swap1\n      jump(tag_143)\n    tag_144:\n      pop\n      pop\n      pop\n      pop\n      swap1\n      pop\n        /* \"contracts/Voting.sol\":5022:5197  function getProposals() external view isAuthorize returns(Proposal[] memory) {... */\n      swap1\n      jump\t// out\n        /* \"@openzeppelin/contracts/access/Ownable.sol\":2293:2394  function renounceOwnership() public virtual onlyOwner {... */\n    tag_37:\n        /* \"@openzeppelin/contracts/access/Ownable.sol\":1531:1544  _checkOwner() */\n      tag_153\n        /* \"@openzeppelin/contracts/access/Ownable.sol\":1531:1542  _checkOwner */\n      tag_94\n        /* \"@openzeppelin/contracts/access/Ownable.sol\":1531:1544  _checkOwner() */\n      jump\t// in\n    tag_153:\n        /* \"@openzeppelin/contracts/access/Ownable.sol\":2357:2387  _transferOwnership(address(0)) */\n      tag_155\n        /* \"@openzeppelin/contracts/access/Ownable.sol\":2384:2385  0 */\n      0x00\n        /* \"@openzeppelin/contracts/access/Ownable.sol\":2357:2375  _transferOwnership */\n      tag_156\n        /* \"@openzeppelin/contracts/access/Ownable.sol\":2357:2387  _transferOwnership(address(0)) */\n      jump\t// in\n    tag_155:\n        /* \"@openzeppelin/contracts/access/Ownable.sol\":2293:2394  function renounceOwnership() public virtual onlyOwner {... */\n      jump\t// out\n        /* \"@openzeppelin/contracts/access/Ownable.sol\":1638:1723  function owner() public view virtual returns (address) {... */\n    tag_39:\n        /* \"@openzeppelin/contracts/access/Ownable.sol\":1684:1691  address */\n      0x00\n        /* \"@openzeppelin/contracts/access/Ownable.sol\":1710:1716  _owner */\n      dup1\n      0x00\n      swap1\n      sload\n      swap1\n      0x0100\n      exp\n      swap1\n      div\n      0xffffffffffffffffffffffffffffffffffffffff\n      and\n        /* \"@openzeppelin/contracts/access/Ownable.sol\":1703:1716  return _owner */\n      swap1\n      pop\n        /* \"@openzeppelin/contracts/access/Ownable.sol\":1638:1723  function owner() public view virtual returns (address) {... */\n      swap1\n      jump\t// out\n        /* \"contracts/Voting.sol\":5614:5813  function getWinner() external view returns (Proposal memory) {... */\n    tag_43:\n        /* \"contracts/Voting.sol\":5658:5673  Proposal memory */\n      tag_158\n      tag_159\n      jump\t// in\n    tag_158:\n        /* \"contracts/Voting.sol\":5703:5730  WorkflowStatus.VotesTallied */\n      0x05\n        /* \"contracts/Voting.sol\":5693:5730  status == WorkflowStatus.VotesTallied */\n      dup1\n      dup2\n      gt\n      iszero\n      tag_161\n      jumpi\n      tag_162\n      tag_71\n      jump\t// in\n    tag_162:\n    tag_161:\n        /* \"contracts/Voting.sol\":5693:5699  status */\n      0x03\n      0x00\n      swap1\n      sload\n      swap1\n      0x0100\n      exp\n      swap1\n      div\n      0xff\n      and\n        /* \"contracts/Voting.sol\":5693:5730  status == WorkflowStatus.VotesTallied */\n      0x05\n      dup2\n      gt\n      iszero\n      tag_163\n      jumpi\n      tag_164\n      tag_71\n      jump\t// in\n    tag_164:\n    tag_163:\n      eq\n        /* \"contracts/Voting.sol\":5685:5761  require(status == WorkflowStatus.VotesTallied, \"It must be tallied session\") */\n      tag_165\n      jumpi\n      mload(0x40)\n      0x08c379a000000000000000000000000000000000000000000000000000000000\n      dup2\n      mstore\n      0x04\n      add\n      tag_166\n      swap1\n      tag_167\n      jump\t// in\n    tag_166:\n      mload(0x40)\n      dup1\n      swap2\n      sub\n      swap1\n      revert\n    tag_165:\n        /* \"contracts/Voting.sol\":5778:5787  proposals */\n      0x02\n        /* \"contracts/Voting.sol\":5788:5805  winningProposalId */\n      sload(0x04)\n        /* \"contracts/Voting.sol\":5778:5806  proposals[winningProposalId] */\n      dup2\n      sload\n      dup2\n      lt\n      tag_168\n      jumpi\n      tag_169\n      tag_86\n      jump\t// in\n    tag_169:\n    tag_168:\n      swap1\n      0x00\n      mstore\n      keccak256(0x00, 0x20)\n      swap1\n      0x02\n      mul\n      add\n        /* \"contracts/Voting.sol\":5771:5806  return proposals[winningProposalId] */\n      mload(0x40)\n      dup1\n      0x40\n      add\n      0x40\n      mstore\n      swap1\n      dup2\n      0x00\n      dup3\n      add\n      dup1\n      sload\n      tag_171\n      swap1\n      tag_147\n      jump\t// in\n    tag_171:\n      dup1\n      0x1f\n      add\n      0x20\n      dup1\n      swap2\n      div\n      mul\n      0x20\n      add\n      mload(0x40)\n      swap1\n      dup2\n      add\n      0x40\n      mstore\n      dup1\n      swap3\n      swap2\n      swap1\n      dup2\n      dup2\n      mstore\n      0x20\n      add\n      dup3\n      dup1\n      sload\n      tag_172\n      swap1\n      tag_147\n      jump\t// in\n    tag_172:\n      dup1\n      iszero\n      tag_173\n      jumpi\n      dup1\n      0x1f\n      lt\n      tag_174\n      jumpi\n      0x0100\n      dup1\n      dup4\n      sload\n      div\n      mul\n      dup4\n      mstore\n      swap2\n      0x20\n      add\n      swap2\n      jump(tag_173)\n    tag_174:\n      dup3\n      add\n      swap2\n      swap1\n      0x00\n      mstore\n      keccak256(0x00, 0x20)\n      swap1\n    tag_175:\n      dup2\n      sload\n      dup2\n      mstore\n      swap1\n      0x01\n      add\n      swap1\n      0x20\n      add\n      dup1\n      dup4\n      gt\n      tag_175\n      jumpi\n      dup3\n      swap1\n      sub\n      0x1f\n      and\n      dup3\n      add\n      swap2\n    tag_173:\n      pop\n      pop\n      pop\n      pop\n      pop\n      dup2\n      mstore\n      0x20\n      add\n      0x01\n      dup3\n      add\n      sload\n      dup2\n      mstore\n      pop\n      pop\n      swap1\n      pop\n        /* \"contracts/Voting.sol\":5614:5813  function getWinner() external view returns (Proposal memory) {... */\n      swap1\n      jump\t// out\n        /* \"contracts/Voting.sol\":2100:2400  function endProposal() external onlyOwner {... */\n    tag_47:\n        /* \"@openzeppelin/contracts/access/Ownable.sol\":1531:1544  _checkOwner() */\n      tag_177\n        /* \"@openzeppelin/contracts/access/Ownable.sol\":1531:1542  _checkOwner */\n      tag_94\n        /* \"@openzeppelin/contracts/access/Ownable.sol\":1531:1544  _checkOwner() */\n      jump\t// in\n    tag_177:\n        /* \"contracts/Voting.sol\":2170:2213  WorkflowStatus.ProposalsRegistrationStarted */\n      0x01\n        /* \"contracts/Voting.sol\":2160:2213  status == WorkflowStatus.ProposalsRegistrationStarted */\n      0x05\n      dup2\n      gt\n      iszero\n      tag_179\n      jumpi\n      tag_180\n      tag_71\n      jump\t// in\n    tag_180:\n    tag_179:\n        /* \"contracts/Voting.sol\":2160:2166  status */\n      0x03\n      0x00\n      swap1\n      sload\n      swap1\n      0x0100\n      exp\n      swap1\n      div\n      0xff\n      and\n        /* \"contracts/Voting.sol\":2160:2213  status == WorkflowStatus.ProposalsRegistrationStarted */\n      0x05\n      dup2\n      gt\n      iszero\n      tag_181\n      jumpi\n      tag_182\n      tag_71\n      jump\t// in\n    tag_182:\n    tag_181:\n      eq\n        /* \"contracts/Voting.sol\":2152:2245  require(status == WorkflowStatus.ProposalsRegistrationStarted, \"It must be proposal session\") */\n      tag_183\n      jumpi\n      mload(0x40)\n      0x08c379a000000000000000000000000000000000000000000000000000000000\n      dup2\n      mstore\n      0x04\n      add\n      tag_184\n      swap1\n      tag_117\n      jump\t// in\n    tag_184:\n      mload(0x40)\n      dup1\n      swap2\n      sub\n      swap1\n      revert\n    tag_183:\n        /* \"contracts/Voting.sol\":2264:2305  WorkflowStatus.ProposalsRegistrationEnded */\n      0x02\n        /* \"contracts/Voting.sol\":2255:2261  status */\n      0x03\n      0x00\n        /* \"contracts/Voting.sol\":2255:2305  status = WorkflowStatus.ProposalsRegistrationEnded */\n      0x0100\n      exp\n      dup2\n      sload\n      dup2\n      0xff\n      mul\n      not\n      and\n      swap1\n      dup4\n      0x05\n      dup2\n      gt\n      iszero\n      tag_185\n      jumpi\n      tag_186\n      tag_71\n      jump\t// in\n    tag_186:\n    tag_185:\n      mul\n      or\n      swap1\n      sstore\n      pop\n        /* \"contracts/Voting.sol\":2320:2393  WorkflowStatusChange(WorkflowStatus.ProposalsRegistrationStarted, status) */\n      0x0a97a4ee45751e2abf3e4fc8946939630b11b371ea8ae39ccdc3056e98f5cc3f\n        /* \"contracts/Voting.sol\":2341:2384  WorkflowStatus.ProposalsRegistrationStarted */\n      0x01\n        /* \"contracts/Voting.sol\":2386:2392  status */\n      0x03\n      0x00\n      swap1\n      sload\n      swap1\n      0x0100\n      exp\n      swap1\n      div\n      0xff\n      and\n        /* \"contracts/Voting.sol\":2320:2393  WorkflowStatusChange(WorkflowStatus.ProposalsRegistrationStarted, status) */\n      mload(0x40)\n      tag_187\n      swap3\n      swap2\n      swap1\n      tag_106\n      jump\t// in\n    tag_187:\n      mload(0x40)\n      dup1\n      swap2\n      sub\n      swap1\n      log1\n        /* \"contracts/Voting.sol\":2100:2400  function endProposal() external onlyOwner {... */\n      jump\t// out\n        /* \"contracts/Voting.sol\":2793:3404  function talliedVote() external onlyOwner {... */\n    tag_49:\n        /* \"@openzeppelin/contracts/access/Ownable.sol\":1531:1544  _checkOwner() */\n      tag_189\n        /* \"@openzeppelin/contracts/access/Ownable.sol\":1531:1542  _checkOwner */\n      tag_94\n        /* \"@openzeppelin/contracts/access/Ownable.sol\":1531:1544  _checkOwner() */\n      jump\t// in\n    tag_189:\n        /* \"contracts/Voting.sol\":2863:2896  WorkflowStatus.VotingSessionEnded */\n      0x04\n        /* \"contracts/Voting.sol\":2853:2896  status == WorkflowStatus.VotingSessionEnded */\n      0x05\n      dup2\n      gt\n      iszero\n      tag_191\n      jumpi\n      tag_192\n      tag_71\n      jump\t// in\n    tag_192:\n    tag_191:\n        /* \"contracts/Voting.sol\":2853:2859  status */\n      0x03\n      0x00\n      swap1\n      sload\n      swap1\n      0x0100\n      exp\n      swap1\n      div\n      0xff\n      and\n        /* \"contracts/Voting.sol\":2853:2896  status == WorkflowStatus.VotingSessionEnded */\n      0x05\n      dup2\n      gt\n      iszero\n      tag_193\n      jumpi\n      tag_194\n      tag_71\n      jump\t// in\n    tag_194:\n    tag_193:\n      eq\n        /* \"contracts/Voting.sol\":2845:2934  require(status == WorkflowStatus.VotingSessionEnded, \"It must be the end of the session\") */\n      tag_195\n      jumpi\n      mload(0x40)\n      0x08c379a000000000000000000000000000000000000000000000000000000000\n      dup2\n      mstore\n      0x04\n      add\n      tag_196\n      swap1\n      tag_197\n      jump\t// in\n    tag_196:\n      mload(0x40)\n      dup1\n      swap2\n      sub\n      swap1\n      revert\n    tag_195:\n        /* \"contracts/Voting.sol\":2982:3004  Proposal memory winner */\n      tag_198\n      tag_159\n      jump\t// in\n    tag_198:\n        /* \"contracts/Voting.sol\":3019:3025  uint i */\n      0x00\n        /* \"contracts/Voting.sol\":3014:3273  for (uint i = 0 ; i < proposals.length ; i++) {... */\n    tag_199:\n        /* \"contracts/Voting.sol\":3036:3045  proposals */\n      0x02\n        /* \"contracts/Voting.sol\":3036:3052  proposals.length */\n      dup1\n      sload\n      swap1\n      pop\n        /* \"contracts/Voting.sol\":3032:3033  i */\n      dup2\n        /* \"contracts/Voting.sol\":3032:3052  i < proposals.length */\n      lt\n        /* \"contracts/Voting.sol\":3014:3273  for (uint i = 0 ; i < proposals.length ; i++) {... */\n      iszero\n      tag_200\n      jumpi\n        /* \"contracts/Voting.sol\":3097:3106  proposals */\n      0x02\n        /* \"contracts/Voting.sol\":3107:3108  i */\n      dup2\n        /* \"contracts/Voting.sol\":3097:3109  proposals[i] */\n      dup2\n      sload\n      dup2\n      lt\n      tag_202\n      jumpi\n      tag_203\n      tag_86\n      jump\t// in\n    tag_203:\n    tag_202:\n      swap1\n      0x00\n      mstore\n      keccak256(0x00, 0x20)\n      swap1\n      0x02\n      mul\n      add\n        /* \"contracts/Voting.sol\":3097:3119  proposals[i].voteCount */\n      0x01\n      add\n      sload\n        /* \"contracts/Voting.sol\":3078:3084  winner */\n      dup3\n        /* \"contracts/Voting.sol\":3078:3094  winner.voteCount */\n      0x20\n      add\n      mload\n        /* \"contracts/Voting.sol\":3078:3119  winner.voteCount < proposals[i].voteCount */\n      lt\n        /* \"contracts/Voting.sol\":3074:3263  if (winner.voteCount < proposals[i].voteCount) { // le nb de vote est supp on replace le gagnant ... */\n      iszero\n      tag_205\n      jumpi\n        /* \"contracts/Voting.sol\":3197:3206  proposals */\n      0x02\n        /* \"contracts/Voting.sol\":3207:3208  i */\n      dup2\n        /* \"contracts/Voting.sol\":3197:3209  proposals[i] */\n      dup2\n      sload\n      dup2\n      lt\n      tag_206\n      jumpi\n      tag_207\n      tag_86\n      jump\t// in\n    tag_207:\n    tag_206:\n      swap1\n      0x00\n      mstore\n      keccak256(0x00, 0x20)\n      swap1\n      0x02\n      mul\n      add\n        /* \"contracts/Voting.sol\":3188:3209  winner = proposals[i] */\n      mload(0x40)\n      dup1\n      0x40\n      add\n      0x40\n      mstore\n      swap1\n      dup2\n      0x00\n      dup3\n      add\n      dup1\n      sload\n      tag_209\n      swap1\n      tag_147\n      jump\t// in\n    tag_209:\n      dup1\n      0x1f\n      add\n      0x20\n      dup1\n      swap2\n      div\n      mul\n      0x20\n      add\n      mload(0x40)\n      swap1\n      dup2\n      add\n      0x40\n      mstore\n      dup1\n      swap3\n      swap2\n      swap1\n      dup2\n      dup2\n      mstore\n      0x20\n      add\n      dup3\n      dup1\n      sload\n      tag_210\n      swap1\n      tag_147\n      jump\t// in\n    tag_210:\n      dup1\n      iszero\n      tag_211\n      jumpi\n      dup1\n      0x1f\n      lt\n      tag_212\n      jumpi\n      0x0100\n      dup1\n      dup4\n      sload\n      div\n      mul\n      dup4\n      mstore\n      swap2\n      0x20\n      add\n      swap2\n      jump(tag_211)\n    tag_212:\n      dup3\n      add\n      swap2\n      swap1\n      0x00\n      mstore\n      keccak256(0x00, 0x20)\n      swap1\n    tag_213:\n      dup2\n      sload\n      dup2\n      mstore\n      swap1\n      0x01\n      add\n      swap1\n      0x20\n      add\n      dup1\n      dup4\n      gt\n      tag_213\n      jumpi\n      dup3\n      swap1\n      sub\n      0x1f\n      and\n      dup3\n      add\n      swap2\n    tag_211:\n      pop\n      pop\n      pop\n      pop\n      pop\n      dup2\n      mstore\n      0x20\n      add\n      0x01\n      dup3\n      add\n      sload\n      dup2\n      mstore\n      pop\n      pop\n      swap2\n      pop\n        /* \"contracts/Voting.sol\":3247:3248  i */\n      dup1\n        /* \"contracts/Voting.sol\":3227:3244  winningProposalId */\n      0x04\n        /* \"contracts/Voting.sol\":3227:3248  winningProposalId = i */\n      dup2\n      swap1\n      sstore\n      pop\n        /* \"contracts/Voting.sol\":3074:3263  if (winner.voteCount < proposals[i].voteCount) { // le nb de vote est supp on replace le gagnant ... */\n    tag_205:\n        /* \"contracts/Voting.sol\":3055:3058  i++ */\n      dup1\n      dup1\n      tag_214\n      swap1\n      tag_215\n      jump\t// in\n    tag_214:\n      swap2\n      pop\n      pop\n        /* \"contracts/Voting.sol\":3014:3273  for (uint i = 0 ; i < proposals.length ; i++) {... */\n      jump(tag_199)\n    tag_200:\n      pop\n        /* \"contracts/Voting.sol\":3292:3319  WorkflowStatus.VotesTallied */\n      0x05\n        /* \"contracts/Voting.sol\":3283:3289  status */\n      0x03\n      0x00\n        /* \"contracts/Voting.sol\":3283:3319  status = WorkflowStatus.VotesTallied */\n      0x0100\n      exp\n      dup2\n      sload\n      dup2\n      0xff\n      mul\n      not\n      and\n      swap1\n      dup4\n      0x05\n      dup2\n      gt\n      iszero\n      tag_216\n      jumpi\n      tag_217\n      tag_71\n      jump\t// in\n    tag_217:\n    tag_216:\n      mul\n      or\n      swap1\n      sstore\n      pop\n        /* \"contracts/Voting.sol\":3334:3397  WorkflowStatusChange(WorkflowStatus.VotingSessionEnded, status) */\n      0x0a97a4ee45751e2abf3e4fc8946939630b11b371ea8ae39ccdc3056e98f5cc3f\n        /* \"contracts/Voting.sol\":3355:3388  WorkflowStatus.VotingSessionEnded */\n      0x04\n        /* \"contracts/Voting.sol\":3390:3396  status */\n      0x03\n      0x00\n      swap1\n      sload\n      swap1\n      0x0100\n      exp\n      swap1\n      div\n      0xff\n      and\n        /* \"contracts/Voting.sol\":3334:3397  WorkflowStatusChange(WorkflowStatus.VotingSessionEnded, status) */\n      mload(0x40)\n      tag_218\n      swap3\n      swap2\n      swap1\n      tag_106\n      jump\t// in\n    tag_218:\n      mload(0x40)\n      dup1\n      swap2\n      sub\n      swap1\n      log1\n        /* \"contracts/Voting.sol\":2835:3404  {... */\n      pop\n        /* \"contracts/Voting.sol\":2793:3404  function talliedVote() external onlyOwner {... */\n      jump\t// out\n        /* \"contracts/Voting.sol\":5338:5543  function getVoteTo(address _address) external view isAuthorize returns(Voter memory) {... */\n    tag_53:\n        /* \"contracts/Voting.sol\":5409:5421  Voter memory */\n      tag_219\n      tag_220\n      jump\t// in\n    tag_219:\n        /* \"contracts/Voting.sol\":1236:1245  whiteList */\n      0x01\n        /* \"contracts/Voting.sol\":1236:1257  whiteList[msg.sender] */\n      0x00\n        /* \"contracts/Voting.sol\":1246:1256  msg.sender */\n      caller\n        /* \"contracts/Voting.sol\":1236:1257  whiteList[msg.sender] */\n      0xffffffffffffffffffffffffffffffffffffffff\n      and\n      0xffffffffffffffffffffffffffffffffffffffff\n      and\n      dup2\n      mstore\n      0x20\n      add\n      swap1\n      dup2\n      mstore\n      0x20\n      add\n      0x00\n      keccak256\n        /* \"contracts/Voting.sol\":1236:1270  whiteList[msg.sender].isRegistered */\n      0x00\n      add\n      0x00\n      swap1\n      sload\n      swap1\n      0x0100\n      exp\n      swap1\n      div\n      0xff\n      and\n        /* \"contracts/Voting.sol\":1228:1306  require(whiteList[msg.sender].isRegistered, \"Your are not registered in list\") */\n      tag_222\n      jumpi\n      mload(0x40)\n      0x08c379a000000000000000000000000000000000000000000000000000000000\n      dup2\n      mstore\n      0x04\n      add\n      tag_223\n      swap1\n      tag_67\n      jump\t// in\n    tag_223:\n      mload(0x40)\n      dup1\n      swap2\n      sub\n      swap1\n      revert\n    tag_222:\n        /* \"contracts/Voting.sol\":5441:5450  whiteList */\n      0x01\n        /* \"contracts/Voting.sol\":5441:5462  whiteList[msg.sender] */\n      0x00\n        /* \"contracts/Voting.sol\":5451:5461  msg.sender */\n      caller\n        /* \"contracts/Voting.sol\":5441:5462  whiteList[msg.sender] */\n      0xffffffffffffffffffffffffffffffffffffffff\n      and\n      0xffffffffffffffffffffffffffffffffffffffff\n      and\n      dup2\n      mstore\n      0x20\n      add\n      swap1\n      dup2\n      mstore\n      0x20\n      add\n      0x00\n      keccak256\n        /* \"contracts/Voting.sol\":5441:5471  whiteList[msg.sender].hasVoted */\n      0x00\n      add\n      0x01\n      swap1\n      sload\n      swap1\n      0x0100\n      exp\n      swap1\n      div\n      0xff\n      and\n        /* \"contracts/Voting.sol\":5433:5500  require(whiteList[msg.sender].hasVoted, \"This person hasn't voted\") */\n      tag_225\n      jumpi\n      mload(0x40)\n      0x08c379a000000000000000000000000000000000000000000000000000000000\n      dup2\n      mstore\n      0x04\n      add\n      tag_226\n      swap1\n      tag_227\n      jump\t// in\n    tag_226:\n      mload(0x40)\n      dup1\n      swap2\n      sub\n      swap1\n      revert\n    tag_225:\n        /* \"contracts/Voting.sol\":5517:5526  whiteList */\n      0x01\n        /* \"contracts/Voting.sol\":5517:5536  whiteList[_address] */\n      0x00\n        /* \"contracts/Voting.sol\":5527:5535  _address */\n      dup4\n        /* \"contracts/Voting.sol\":5517:5536  whiteList[_address] */\n      0xffffffffffffffffffffffffffffffffffffffff\n      and\n      0xffffffffffffffffffffffffffffffffffffffff\n      and\n      dup2\n      mstore\n      0x20\n      add\n      swap1\n      dup2\n      mstore\n      0x20\n      add\n      0x00\n      keccak256\n        /* \"contracts/Voting.sol\":5510:5536  return whiteList[_address] */\n      mload(0x40)\n      dup1\n      0x60\n      add\n      0x40\n      mstore\n      swap1\n      dup2\n      0x00\n      dup3\n      add\n      0x00\n      swap1\n      sload\n      swap1\n      0x0100\n      exp\n      swap1\n      div\n      0xff\n      and\n      iszero\n      iszero\n      iszero\n      iszero\n      dup2\n      mstore\n      0x20\n      add\n      0x00\n      dup3\n      add\n      0x01\n      swap1\n      sload\n      swap1\n      0x0100\n      exp\n      swap1\n      div\n      0xff\n      and\n      iszero\n      iszero\n      iszero\n      iszero\n      dup2\n      mstore\n      0x20\n      add\n      0x01\n      dup3\n      add\n      sload\n      dup2\n      mstore\n      pop\n      pop\n      swap1\n      pop\n        /* \"contracts/Voting.sol\":5338:5543  function getVoteTo(address _address) external view isAuthorize returns(Voter memory) {... */\n      swap2\n      swap1\n      pop\n      jump\t// out\n        /* \"contracts/Voting.sol\":2460:2728  function endVote() external onlyOwner {... */\n    tag_57:\n        /* \"@openzeppelin/contracts/access/Ownable.sol\":1531:1544  _checkOwner() */\n      tag_229\n        /* \"@openzeppelin/contracts/access/Ownable.sol\":1531:1542  _checkOwner */\n      tag_94\n        /* \"@openzeppelin/contracts/access/Ownable.sol\":1531:1544  _checkOwner() */\n      jump\t// in\n    tag_229:\n        /* \"contracts/Voting.sol\":2526:2561  WorkflowStatus.VotingSessionStarted */\n      0x03\n        /* \"contracts/Voting.sol\":2516:2561  status == WorkflowStatus.VotingSessionStarted */\n      0x05\n      dup2\n      gt\n      iszero\n      tag_231\n      jumpi\n      tag_232\n      tag_71\n      jump\t// in\n    tag_232:\n    tag_231:\n        /* \"contracts/Voting.sol\":2516:2522  status */\n      0x03\n      0x00\n      swap1\n      sload\n      swap1\n      0x0100\n      exp\n      swap1\n      div\n      0xff\n      and\n        /* \"contracts/Voting.sol\":2516:2561  status == WorkflowStatus.VotingSessionStarted */\n      0x05\n      dup2\n      gt\n      iszero\n      tag_233\n      jumpi\n      tag_234\n      tag_71\n      jump\t// in\n    tag_234:\n    tag_233:\n      eq\n        /* \"contracts/Voting.sol\":2508:2591  require(status == WorkflowStatus.VotingSessionStarted, \"It must be voting session\") */\n      tag_235\n      jumpi\n      mload(0x40)\n      0x08c379a000000000000000000000000000000000000000000000000000000000\n      dup2\n      mstore\n      0x04\n      add\n      tag_236\n      swap1\n      tag_76\n      jump\t// in\n    tag_236:\n      mload(0x40)\n      dup1\n      swap2\n      sub\n      swap1\n      revert\n    tag_235:\n        /* \"contracts/Voting.sol\":2610:2643  WorkflowStatus.VotingSessionEnded */\n      0x04\n        /* \"contracts/Voting.sol\":2601:2607  status */\n      0x03\n      0x00\n        /* \"contracts/Voting.sol\":2601:2643  status = WorkflowStatus.VotingSessionEnded */\n      0x0100\n      exp\n      dup2\n      sload\n      dup2\n      0xff\n      mul\n      not\n      and\n      swap1\n      dup4\n      0x05\n      dup2\n      gt\n      iszero\n      tag_237\n      jumpi\n      tag_238\n      tag_71\n      jump\t// in\n    tag_238:\n    tag_237:\n      mul\n      or\n      swap1\n      sstore\n      pop\n        /* \"contracts/Voting.sol\":2658:2721  WorkflowStatusChange(WorkflowStatus.VotingSessionEnded, status) */\n      0x0a97a4ee45751e2abf3e4fc8946939630b11b371ea8ae39ccdc3056e98f5cc3f\n        /* \"contracts/Voting.sol\":2679:2712  WorkflowStatus.VotingSessionEnded */\n      0x04\n        /* \"contracts/Voting.sol\":2714:2720  status */\n      0x03\n      0x00\n      swap1\n      sload\n      swap1\n      0x0100\n      exp\n      swap1\n      div\n      0xff\n      and\n        /* \"contracts/Voting.sol\":2658:2721  WorkflowStatusChange(WorkflowStatus.VotingSessionEnded, status) */\n      mload(0x40)\n      tag_239\n      swap3\n      swap2\n      swap1\n      tag_106\n      jump\t// in\n    tag_239:\n      mload(0x40)\n      dup1\n      swap2\n      sub\n      swap1\n      log1\n        /* \"contracts/Voting.sol\":2460:2728  function endVote() external onlyOwner {... */\n      jump\t// out\n        /* \"@openzeppelin/contracts/access/Ownable.sol\":2543:2758  function transferOwnership(address newOwner) public virtual onlyOwner {... */\n    tag_60:\n        /* \"@openzeppelin/contracts/access/Ownable.sol\":1531:1544  _checkOwner() */\n      tag_241\n        /* \"@openzeppelin/contracts/access/Ownable.sol\":1531:1542  _checkOwner */\n      tag_94\n        /* \"@openzeppelin/contracts/access/Ownable.sol\":1531:1544  _checkOwner() */\n      jump\t// in\n    tag_241:\n        /* \"@openzeppelin/contracts/access/Ownable.sol\":2647:2648  0 */\n      0x00\n        /* \"@openzeppelin/contracts/access/Ownable.sol\":2627:2649  newOwner == address(0) */\n      0xffffffffffffffffffffffffffffffffffffffff\n      and\n        /* \"@openzeppelin/contracts/access/Ownable.sol\":2627:2635  newOwner */\n      dup2\n        /* \"@openzeppelin/contracts/access/Ownable.sol\":2627:2649  newOwner == address(0) */\n      0xffffffffffffffffffffffffffffffffffffffff\n      and\n      sub\n        /* \"@openzeppelin/contracts/access/Ownable.sol\":2623:2714  if (newOwner == address(0)) {... */\n      tag_243\n      jumpi\n        /* \"@openzeppelin/contracts/access/Ownable.sol\":2700:2701  0 */\n      0x00\n        /* \"@openzeppelin/contracts/access/Ownable.sol\":2672:2703  OwnableInvalidOwner(address(0)) */\n      mload(0x40)\n      0x1e4fbdf700000000000000000000000000000000000000000000000000000000\n      dup2\n      mstore\n      0x04\n      add\n      tag_244\n      swap2\n      swap1\n      tag_41\n      jump\t// in\n    tag_244:\n      mload(0x40)\n      dup1\n      swap2\n      sub\n      swap1\n      revert\n        /* \"@openzeppelin/contracts/access/Ownable.sol\":2623:2714  if (newOwner == address(0)) {... */\n    tag_243:\n        /* \"@openzeppelin/contracts/access/Ownable.sol\":2723:2751  _transferOwnership(newOwner) */\n      tag_245\n        /* \"@openzeppelin/contracts/access/Ownable.sol\":2742:2750  newOwner */\n      dup2\n        /* \"@openzeppelin/contracts/access/Ownable.sol\":2723:2741  _transferOwnership */\n      tag_156\n        /* \"@openzeppelin/contracts/access/Ownable.sol\":2723:2751  _transferOwnership(newOwner) */\n      jump\t// in\n    tag_245:\n        /* \"@openzeppelin/contracts/access/Ownable.sol\":2543:2758  function transferOwnership(address newOwner) public virtual onlyOwner {... */\n      pop\n      jump\t// out\n        /* \"contracts/Voting.sol\":3521:3859  function addVoter(address _address) external onlyOwner {... */\n    tag_63:\n        /* \"@openzeppelin/contracts/access/Ownable.sol\":1531:1544  _checkOwner() */\n      tag_247\n        /* \"@openzeppelin/contracts/access/Ownable.sol\":1531:1542  _checkOwner */\n      tag_94\n        /* \"@openzeppelin/contracts/access/Ownable.sol\":1531:1544  _checkOwner() */\n      jump\t// in\n    tag_247:\n        /* \"contracts/Voting.sol\":3604:3636  WorkflowStatus.RegisteringVoters */\n      0x00\n        /* \"contracts/Voting.sol\":3594:3636  status == WorkflowStatus.RegisteringVoters */\n      0x05\n      dup2\n      gt\n      iszero\n      tag_249\n      jumpi\n      tag_250\n      tag_71\n      jump\t// in\n    tag_250:\n    tag_249:\n        /* \"contracts/Voting.sol\":3594:3600  status */\n      0x03\n      0x00\n      swap1\n      sload\n      swap1\n      0x0100\n      exp\n      swap1\n      div\n      0xff\n      and\n        /* \"contracts/Voting.sol\":3594:3636  status == WorkflowStatus.RegisteringVoters */\n      0x05\n      dup2\n      gt\n      iszero\n      tag_251\n      jumpi\n      tag_252\n      tag_71\n      jump\t// in\n    tag_252:\n    tag_251:\n      eq\n        /* \"contracts/Voting.sol\":3586:3669  require(status == WorkflowStatus.RegisteringVoters, \"It must be registering voter\") */\n      tag_253\n      jumpi\n      mload(0x40)\n      0x08c379a000000000000000000000000000000000000000000000000000000000\n      dup2\n      mstore\n      0x04\n      add\n      tag_254\n      swap1\n      tag_255\n      jump\t// in\n    tag_254:\n      mload(0x40)\n      dup1\n      swap2\n      sub\n      swap1\n      revert\n    tag_253:\n        /* \"contracts/Voting.sol\":3688:3697  whiteList */\n      0x01\n        /* \"contracts/Voting.sol\":3688:3707  whiteList[_address] */\n      0x00\n        /* \"contracts/Voting.sol\":3698:3706  _address */\n      dup3\n        /* \"contracts/Voting.sol\":3688:3707  whiteList[_address] */\n      0xffffffffffffffffffffffffffffffffffffffff\n      and\n      0xffffffffffffffffffffffffffffffffffffffff\n      and\n      dup2\n      mstore\n      0x20\n      add\n      swap1\n      dup2\n      mstore\n      0x20\n      add\n      0x00\n      keccak256\n        /* \"contracts/Voting.sol\":3688:3720  whiteList[_address].isRegistered */\n      0x00\n      add\n      0x00\n      swap1\n      sload\n      swap1\n      0x0100\n      exp\n      swap1\n      div\n      0xff\n      and\n        /* \"contracts/Voting.sol\":3687:3720  !whiteList[_address].isRegistered */\n      iszero\n        /* \"contracts/Voting.sol\":3679:3759  require(!whiteList[_address].isRegistered, \"This address is already registered\") */\n      tag_256\n      jumpi\n      mload(0x40)\n      0x08c379a000000000000000000000000000000000000000000000000000000000\n      dup2\n      mstore\n      0x04\n      add\n      tag_257\n      swap1\n      tag_258\n      jump\t// in\n    tag_257:\n      mload(0x40)\n      dup1\n      swap2\n      sub\n      swap1\n      revert\n    tag_256:\n        /* \"contracts/Voting.sol\":3791:3812  Voter(true, false, 0) */\n      mload(0x40)\n      dup1\n      0x60\n      add\n      0x40\n      mstore\n      dup1\n        /* \"contracts/Voting.sol\":3797:3801  true */\n      0x01\n        /* \"contracts/Voting.sol\":3791:3812  Voter(true, false, 0) */\n      iszero\n      iszero\n      dup2\n      mstore\n      0x20\n      add\n        /* \"contracts/Voting.sol\":3803:3808  false */\n      0x00\n        /* \"contracts/Voting.sol\":3791:3812  Voter(true, false, 0) */\n      iszero\n      iszero\n      dup2\n      mstore\n      0x20\n      add\n        /* \"contracts/Voting.sol\":3810:3811  0 */\n      0x00\n        /* \"contracts/Voting.sol\":3791:3812  Voter(true, false, 0) */\n      dup2\n      mstore\n      pop\n        /* \"contracts/Voting.sol\":3769:3778  whiteList */\n      0x01\n        /* \"contracts/Voting.sol\":3769:3788  whiteList[_address] */\n      0x00\n        /* \"contracts/Voting.sol\":3779:3787  _address */\n      dup4\n        /* \"contracts/Voting.sol\":3769:3788  whiteList[_address] */\n      0xffffffffffffffffffffffffffffffffffffffff\n      and\n      0xffffffffffffffffffffffffffffffffffffffff\n      and\n      dup2\n      mstore\n      0x20\n      add\n      swap1\n      dup2\n      mstore\n      0x20\n      add\n      0x00\n      keccak256\n        /* \"contracts/Voting.sol\":3769:3812  whiteList[_address] = Voter(true, false, 0) */\n      0x00\n      dup3\n      add\n      mload\n      dup2\n      0x00\n      add\n      exp(0x0100, 0x00)\n      dup2\n      sload\n      dup2\n      0xff\n      mul\n      not\n      and\n      swap1\n      dup4\n      iszero\n      iszero\n      mul\n      or\n      swap1\n      sstore\n      pop\n      0x20\n      dup3\n      add\n      mload\n      dup2\n      0x00\n      add\n      exp(0x0100, 0x01)\n      dup2\n      sload\n      dup2\n      0xff\n      mul\n      not\n      and\n      swap1\n      dup4\n      iszero\n      iszero\n      mul\n      or\n      swap1\n      sstore\n      pop\n      0x40\n      dup3\n      add\n      mload\n      dup2\n      0x01\n      add\n      sstore\n      swap1\n      pop\n      pop\n        /* \"contracts/Voting.sol\":3827:3852  VoterRegistered(_address) */\n      0xb6be2187d059cc2a55fe29e0e503b566e1e0f8c8780096e185429350acffd3dd\n        /* \"contracts/Voting.sol\":3843:3851  _address */\n      dup2\n        /* \"contracts/Voting.sol\":3827:3852  VoterRegistered(_address) */\n      mload(0x40)\n      tag_259\n      swap2\n      swap1\n      tag_41\n      jump\t// in\n    tag_259:\n      mload(0x40)\n      dup1\n      swap2\n      sub\n      swap1\n      log1\n        /* \"contracts/Voting.sol\":3521:3859  function addVoter(address _address) external onlyOwner {... */\n      pop\n      jump\t// out\n        /* \"@openzeppelin/contracts/access/Ownable.sol\":1796:1958  function _checkOwner() internal view virtual {... */\n    tag_94:\n        /* \"@openzeppelin/contracts/access/Ownable.sol\":1866:1878  _msgSender() */\n      tag_261\n        /* \"@openzeppelin/contracts/access/Ownable.sol\":1866:1876  _msgSender */\n      tag_262\n        /* \"@openzeppelin/contracts/access/Ownable.sol\":1866:1878  _msgSender() */\n      jump\t// in\n    tag_261:\n        /* \"@openzeppelin/contracts/access/Ownable.sol\":1855:1878  owner() != _msgSender() */\n      0xffffffffffffffffffffffffffffffffffffffff\n      and\n        /* \"@openzeppelin/contracts/access/Ownable.sol\":1855:1862  owner() */\n      tag_263\n        /* \"@openzeppelin/contracts/access/Ownable.sol\":1855:1860  owner */\n      tag_39\n        /* \"@openzeppelin/contracts/access/Ownable.sol\":1855:1862  owner() */\n      jump\t// in\n    tag_263:\n        /* \"@openzeppelin/contracts/access/Ownable.sol\":1855:1878  owner() != _msgSender() */\n      0xffffffffffffffffffffffffffffffffffffffff\n      and\n      eq\n        /* \"@openzeppelin/contracts/access/Ownable.sol\":1851:1952  if (owner() != _msgSender()) {... */\n      tag_264\n      jumpi\n        /* \"@openzeppelin/contracts/access/Ownable.sol\":1928:1940  _msgSender() */\n      tag_265\n        /* \"@openzeppelin/contracts/access/Ownable.sol\":1928:1938  _msgSender */\n      tag_262\n        /* \"@openzeppelin/contracts/access/Ownable.sol\":1928:1940  _msgSender() */\n      jump\t// in\n    tag_265:\n        /* \"@openzeppelin/contracts/access/Ownable.sol\":1901:1941  OwnableUnauthorizedAccount(_msgSender()) */\n      mload(0x40)\n      0x118cdaa700000000000000000000000000000000000000000000000000000000\n      dup2\n      mstore\n      0x04\n      add\n      tag_266\n      swap2\n      swap1\n      tag_41\n      jump\t// in\n    tag_266:\n      mload(0x40)\n      dup1\n      swap2\n      sub\n      swap1\n      revert\n        /* \"@openzeppelin/contracts/access/Ownable.sol\":1851:1952  if (owner() != _msgSender()) {... */\n    tag_264:\n        /* \"@openzeppelin/contracts/access/Ownable.sol\":1796:1958  function _checkOwner() internal view virtual {... */\n      jump\t// out\n        /* \"@openzeppelin/contracts/access/Ownable.sol\":2912:3099  function _transferOwnership(address newOwner) internal virtual {... */\n    tag_156:\n        /* \"@openzeppelin/contracts/access/Ownable.sol\":2985:3001  address oldOwner */\n      0x00\n        /* \"@openzeppelin/contracts/access/Ownable.sol\":3004:3010  _owner */\n      dup1\n      0x00\n      swap1\n      sload\n      swap1\n      0x0100\n      exp\n      swap1\n      div\n      0xffffffffffffffffffffffffffffffffffffffff\n      and\n        /* \"@openzeppelin/contracts/access/Ownable.sol\":2985:3010  address oldOwner = _owner */\n      swap1\n      pop\n        /* \"@openzeppelin/contracts/access/Ownable.sol\":3029:3037  newOwner */\n      dup2\n        /* \"@openzeppelin/contracts/access/Ownable.sol\":3020:3026  _owner */\n      0x00\n      dup1\n        /* \"@openzeppelin/contracts/access/Ownable.sol\":3020:3037  _owner = newOwner */\n      0x0100\n      exp\n      dup2\n      sload\n      dup2\n      0xffffffffffffffffffffffffffffffffffffffff\n      mul\n      not\n      and\n      swap1\n      dup4\n      0xffffffffffffffffffffffffffffffffffffffff\n      and\n      mul\n      or\n      swap1\n      sstore\n      pop\n        /* \"@openzeppelin/contracts/access/Ownable.sol\":3083:3091  newOwner */\n      dup2\n        /* \"@openzeppelin/contracts/access/Ownable.sol\":3052:3092  OwnershipTransferred(oldOwner, newOwner) */\n      0xffffffffffffffffffffffffffffffffffffffff\n      and\n        /* \"@openzeppelin/contracts/access/Ownable.sol\":3073:3081  oldOwner */\n      dup2\n        /* \"@openzeppelin/contracts/access/Ownable.sol\":3052:3092  OwnershipTransferred(oldOwner, newOwner) */\n      0xffffffffffffffffffffffffffffffffffffffff\n      and\n      0x8be0079c531659141344cd1fd0a4f28419497f9722a3daafe3b4186f6b6457e0\n      mload(0x40)\n      mload(0x40)\n      dup1\n      swap2\n      sub\n      swap1\n      log3\n        /* \"@openzeppelin/contracts/access/Ownable.sol\":2975:3099  {... */\n      pop\n        /* \"@openzeppelin/contracts/access/Ownable.sol\":2912:3099  function _transferOwnership(address newOwner) internal virtual {... */\n      pop\n      jump\t// out\n        /* \"@openzeppelin/contracts/utils/Context.sol\":656:752  function _msgSender() internal view virtual returns (address) {... */\n    tag_262:\n        /* \"@openzeppelin/contracts/utils/Context.sol\":709:716  address */\n      0x00\n        /* \"@openzeppelin/contracts/utils/Context.sol\":735:745  msg.sender */\n      caller\n        /* \"@openzeppelin/contracts/utils/Context.sol\":728:745  return msg.sender */\n      swap1\n      pop\n        /* \"@openzeppelin/contracts/utils/Context.sol\":656:752  function _msgSender() internal view virtual returns (address) {... */\n      swap1\n      jump\t// out\n    tag_159:\n      mload(0x40)\n      dup1\n      0x40\n      add\n      0x40\n      mstore\n      dup1\n      0x60\n      dup2\n      mstore\n      0x20\n      add\n      0x00\n      dup2\n      mstore\n      pop\n      swap1\n      jump\t// out\n    tag_220:\n      mload(0x40)\n      dup1\n      0x60\n      add\n      0x40\n      mstore\n      dup1\n      iszero(iszero(0x00))\n      dup2\n      mstore\n      0x20\n      add\n      iszero(iszero(0x00))\n      dup2\n      mstore\n      0x20\n      add\n      0x00\n      dup2\n      mstore\n      pop\n      swap1\n      jump\t// out\n        /* \"#utility.yul\":88:205   */\n    tag_270:\n        /* \"#utility.yul\":197:198   */\n      0x00\n        /* \"#utility.yul\":194:195   */\n      dup1\n        /* \"#utility.yul\":187:199   */\n      revert\n        /* \"#utility.yul\":211:328   */\n    tag_271:\n        /* \"#utility.yul\":320:321   */\n      0x00\n        /* \"#utility.yul\":317:318   */\n      dup1\n        /* \"#utility.yul\":310:322   */\n      revert\n        /* \"#utility.yul\":334:411   */\n    tag_272:\n        /* \"#utility.yul\":371:378   */\n      0x00\n        /* \"#utility.yul\":400:405   */\n      dup2\n        /* \"#utility.yul\":389:405   */\n      swap1\n      pop\n        /* \"#utility.yul\":334:411   */\n      swap2\n      swap1\n      pop\n      jump\t// out\n        /* \"#utility.yul\":417:539   */\n    tag_273:\n        /* \"#utility.yul\":490:514   */\n      tag_357\n        /* \"#utility.yul\":508:513   */\n      dup2\n        /* \"#utility.yul\":490:514   */\n      tag_272\n      jump\t// in\n    tag_357:\n        /* \"#utility.yul\":483:488   */\n      dup2\n        /* \"#utility.yul\":480:515   */\n      eq\n        /* \"#utility.yul\":470:533   */\n      tag_358\n      jumpi\n        /* \"#utility.yul\":529:530   */\n      0x00\n        /* \"#utility.yul\":526:527   */\n      dup1\n        /* \"#utility.yul\":519:531   */\n      revert\n        /* \"#utility.yul\":470:533   */\n    tag_358:\n        /* \"#utility.yul\":417:539   */\n      pop\n      jump\t// out\n        /* \"#utility.yul\":545:684   */\n    tag_274:\n        /* \"#utility.yul\":591:596   */\n      0x00\n        /* \"#utility.yul\":629:635   */\n      dup2\n        /* \"#utility.yul\":616:636   */\n      calldataload\n        /* \"#utility.yul\":607:636   */\n      swap1\n      pop\n        /* \"#utility.yul\":645:678   */\n      tag_360\n        /* \"#utility.yul\":672:677   */\n      dup2\n        /* \"#utility.yul\":645:678   */\n      tag_273\n      jump\t// in\n    tag_360:\n        /* \"#utility.yul\":545:684   */\n      swap3\n      swap2\n      pop\n      pop\n      jump\t// out\n        /* \"#utility.yul\":690:1019   */\n    tag_22:\n        /* \"#utility.yul\":749:755   */\n      0x00\n        /* \"#utility.yul\":798:800   */\n      0x20\n        /* \"#utility.yul\":786:795   */\n      dup3\n        /* \"#utility.yul\":777:784   */\n      dup5\n        /* \"#utility.yul\":773:796   */\n      sub\n        /* \"#utility.yul\":769:801   */\n      slt\n        /* \"#utility.yul\":766:885   */\n      iszero\n      tag_362\n      jumpi\n        /* \"#utility.yul\":804:883   */\n      tag_363\n      tag_270\n      jump\t// in\n    tag_363:\n        /* \"#utility.yul\":766:885   */\n    tag_362:\n        /* \"#utility.yul\":924:925   */\n      0x00\n        /* \"#utility.yul\":949:1002   */\n      tag_364\n        /* \"#utility.yul\":994:1001   */\n      dup5\n        /* \"#utility.yul\":985:991   */\n      dup3\n        /* \"#utility.yul\":974:983   */\n      dup6\n        /* \"#utility.yul\":970:992   */\n      add\n        /* \"#utility.yul\":949:1002   */\n      tag_274\n      jump\t// in\n    tag_364:\n        /* \"#utility.yul\":939:1002   */\n      swap2\n      pop\n        /* \"#utility.yul\":895:1012   */\n      pop\n        /* \"#utility.yul\":690:1019   */\n      swap3\n      swap2\n      pop\n      pop\n      jump\t// out\n        /* \"#utility.yul\":1025:1142   */\n    tag_275:\n        /* \"#utility.yul\":1134:1135   */\n      0x00\n        /* \"#utility.yul\":1131:1132   */\n      dup1\n        /* \"#utility.yul\":1124:1136   */\n      revert\n        /* \"#utility.yul\":1148:1265   */\n    tag_276:\n        /* \"#utility.yul\":1257:1258   */\n      0x00\n        /* \"#utility.yul\":1254:1255   */\n      dup1\n        /* \"#utility.yul\":1247:1259   */\n      revert\n        /* \"#utility.yul\":1271:1388   */\n    tag_277:\n        /* \"#utility.yul\":1380:1381   */\n      0x00\n        /* \"#utility.yul\":1377:1378   */\n      dup1\n        /* \"#utility.yul\":1370:1382   */\n      revert\n        /* \"#utility.yul\":1408:1961   */\n    tag_278:\n        /* \"#utility.yul\":1466:1474   */\n      0x00\n        /* \"#utility.yul\":1476:1482   */\n      dup1\n        /* \"#utility.yul\":1526:1529   */\n      dup4\n        /* \"#utility.yul\":1519:1523   */\n      0x1f\n        /* \"#utility.yul\":1511:1517   */\n      dup5\n        /* \"#utility.yul\":1507:1524   */\n      add\n        /* \"#utility.yul\":1503:1530   */\n      slt\n        /* \"#utility.yul\":1493:1615   */\n      tag_369\n      jumpi\n        /* \"#utility.yul\":1534:1613   */\n      tag_370\n      tag_275\n      jump\t// in\n    tag_370:\n        /* \"#utility.yul\":1493:1615   */\n    tag_369:\n        /* \"#utility.yul\":1647:1653   */\n      dup3\n        /* \"#utility.yul\":1634:1654   */\n      calldataload\n        /* \"#utility.yul\":1624:1654   */\n      swap1\n      pop\n        /* \"#utility.yul\":1677:1695   */\n      0xffffffffffffffff\n        /* \"#utility.yul\":1669:1675   */\n      dup2\n        /* \"#utility.yul\":1666:1696   */\n      gt\n        /* \"#utility.yul\":1663:1780   */\n      iszero\n      tag_371\n      jumpi\n        /* \"#utility.yul\":1699:1778   */\n      tag_372\n      tag_276\n      jump\t// in\n    tag_372:\n        /* \"#utility.yul\":1663:1780   */\n    tag_371:\n        /* \"#utility.yul\":1813:1817   */\n      0x20\n        /* \"#utility.yul\":1805:1811   */\n      dup4\n        /* \"#utility.yul\":1801:1818   */\n      add\n        /* \"#utility.yul\":1789:1818   */\n      swap2\n      pop\n        /* \"#utility.yul\":1867:1870   */\n      dup4\n        /* \"#utility.yul\":1859:1863   */\n      0x01\n        /* \"#utility.yul\":1851:1857   */\n      dup3\n        /* \"#utility.yul\":1847:1864   */\n      mul\n        /* \"#utility.yul\":1837:1845   */\n      dup4\n        /* \"#utility.yul\":1833:1865   */\n      add\n        /* \"#utility.yul\":1830:1871   */\n      gt\n        /* \"#utility.yul\":1827:1955   */\n      iszero\n      tag_373\n      jumpi\n        /* \"#utility.yul\":1874:1953   */\n      tag_374\n      tag_277\n      jump\t// in\n    tag_374:\n        /* \"#utility.yul\":1827:1955   */\n    tag_373:\n        /* \"#utility.yul\":1408:1961   */\n      swap3\n      pop\n      swap3\n      swap1\n      pop\n      jump\t// out\n        /* \"#utility.yul\":1967:2496   */\n    tag_28:\n        /* \"#utility.yul\":2038:2044   */\n      0x00\n        /* \"#utility.yul\":2046:2052   */\n      dup1\n        /* \"#utility.yul\":2095:2097   */\n      0x20\n        /* \"#utility.yul\":2083:2092   */\n      dup4\n        /* \"#utility.yul\":2074:2081   */\n      dup6\n        /* \"#utility.yul\":2070:2093   */\n      sub\n        /* \"#utility.yul\":2066:2098   */\n      slt\n        /* \"#utility.yul\":2063:2182   */\n      iszero\n      tag_376\n      jumpi\n        /* \"#utility.yul\":2101:2180   */\n      tag_377\n      tag_270\n      jump\t// in\n    tag_377:\n        /* \"#utility.yul\":2063:2182   */\n    tag_376:\n        /* \"#utility.yul\":2249:2250   */\n      0x00\n        /* \"#utility.yul\":2238:2247   */\n      dup4\n        /* \"#utility.yul\":2234:2251   */\n      add\n        /* \"#utility.yul\":2221:2252   */\n      calldataload\n        /* \"#utility.yul\":2279:2297   */\n      0xffffffffffffffff\n        /* \"#utility.yul\":2271:2277   */\n      dup2\n        /* \"#utility.yul\":2268:2298   */\n      gt\n        /* \"#utility.yul\":2265:2382   */\n      iszero\n      tag_378\n      jumpi\n        /* \"#utility.yul\":2301:2380   */\n      tag_379\n      tag_271\n      jump\t// in\n    tag_379:\n        /* \"#utility.yul\":2265:2382   */\n    tag_378:\n        /* \"#utility.yul\":2414:2479   */\n      tag_380\n        /* \"#utility.yul\":2471:2478   */\n      dup6\n        /* \"#utility.yul\":2462:2468   */\n      dup3\n        /* \"#utility.yul\":2451:2460   */\n      dup7\n        /* \"#utility.yul\":2447:2469   */\n      add\n        /* \"#utility.yul\":2414:2479   */\n      tag_278\n      jump\t// in\n    tag_380:\n        /* \"#utility.yul\":2396:2479   */\n      swap3\n      pop\n      swap3\n      pop\n        /* \"#utility.yul\":2192:2489   */\n      pop\n        /* \"#utility.yul\":1967:2496   */\n      swap3\n      pop\n      swap3\n      swap1\n      pop\n      jump\t// out\n        /* \"#utility.yul\":2502:2641   */\n    tag_279:\n        /* \"#utility.yul\":2594:2600   */\n      0x00\n        /* \"#utility.yul\":2628:2633   */\n      dup2\n        /* \"#utility.yul\":2622:2634   */\n      mload\n        /* \"#utility.yul\":2612:2634   */\n      swap1\n      pop\n        /* \"#utility.yul\":2502:2641   */\n      swap2\n      swap1\n      pop\n      jump\t// out\n        /* \"#utility.yul\":2647:2856   */\n    tag_280:\n        /* \"#utility.yul\":2771:2782   */\n      0x00\n        /* \"#utility.yul\":2805:2811   */\n      dup3\n        /* \"#utility.yul\":2800:2803   */\n      dup3\n        /* \"#utility.yul\":2793:2812   */\n      mstore\n        /* \"#utility.yul\":2845:2849   */\n      0x20\n        /* \"#utility.yul\":2840:2843   */\n      dup3\n        /* \"#utility.yul\":2836:2850   */\n      add\n        /* \"#utility.yul\":2821:2850   */\n      swap1\n      pop\n        /* \"#utility.yul\":2647:2856   */\n      swap3\n      swap2\n      pop\n      pop\n      jump\t// out\n        /* \"#utility.yul\":2862:3019   */\n    tag_281:\n        /* \"#utility.yul\":2954:2958   */\n      0x00\n        /* \"#utility.yul\":2977:2980   */\n      dup2\n        /* \"#utility.yul\":2969:2980   */\n      swap1\n      pop\n        /* \"#utility.yul\":3007:3011   */\n      0x20\n        /* \"#utility.yul\":3002:3005   */\n      dup3\n        /* \"#utility.yul\":2998:3012   */\n      add\n        /* \"#utility.yul\":2990:3012   */\n      swap1\n      pop\n        /* \"#utility.yul\":2862:3019   */\n      swap2\n      swap1\n      pop\n      jump\t// out\n        /* \"#utility.yul\":3025:3124   */\n    tag_282:\n        /* \"#utility.yul\":3077:3083   */\n      0x00\n        /* \"#utility.yul\":3111:3116   */\n      dup2\n        /* \"#utility.yul\":3105:3117   */\n      mload\n        /* \"#utility.yul\":3095:3117   */\n      swap1\n      pop\n        /* \"#utility.yul\":3025:3124   */\n      swap2\n      swap1\n      pop\n      jump\t// out\n        /* \"#utility.yul\":3130:3289   */\n    tag_283:\n        /* \"#utility.yul\":3204:3215   */\n      0x00\n        /* \"#utility.yul\":3238:3244   */\n      dup3\n        /* \"#utility.yul\":3233:3236   */\n      dup3\n        /* \"#utility.yul\":3226:3245   */\n      mstore\n        /* \"#utility.yul\":3278:3282   */\n      0x20\n        /* \"#utility.yul\":3273:3276   */\n      dup3\n        /* \"#utility.yul\":3269:3283   */\n      add\n        /* \"#utility.yul\":3254:3283   */\n      swap1\n      pop\n        /* \"#utility.yul\":3130:3289   */\n      swap3\n      swap2\n      pop\n      pop\n      jump\t// out\n        /* \"#utility.yul\":3295:3541   */\n    tag_284:\n        /* \"#utility.yul\":3376:3377   */\n      0x00\n        /* \"#utility.yul\":3386:3499   */\n    tag_387:\n        /* \"#utility.yul\":3400:3406   */\n      dup4\n        /* \"#utility.yul\":3397:3398   */\n      dup2\n        /* \"#utility.yul\":3394:3407   */\n      lt\n        /* \"#utility.yul\":3386:3499   */\n      iszero\n      tag_389\n      jumpi\n        /* \"#utility.yul\":3485:3486   */\n      dup1\n        /* \"#utility.yul\":3480:3483   */\n      dup3\n        /* \"#utility.yul\":3476:3487   */\n      add\n        /* \"#utility.yul\":3470:3488   */\n      mload\n        /* \"#utility.yul\":3466:3467   */\n      dup2\n        /* \"#utility.yul\":3461:3464   */\n      dup5\n        /* \"#utility.yul\":3457:3468   */\n      add\n        /* \"#utility.yul\":3450:3489   */\n      mstore\n        /* \"#utility.yul\":3422:3424   */\n      0x20\n        /* \"#utility.yul\":3419:3420   */\n      dup2\n        /* \"#utility.yul\":3415:3425   */\n      add\n        /* \"#utility.yul\":3410:3425   */\n      swap1\n      pop\n        /* \"#utility.yul\":3386:3499   */\n      jump(tag_387)\n    tag_389:\n        /* \"#utility.yul\":3533:3534   */\n      0x00\n        /* \"#utility.yul\":3524:3530   */\n      dup5\n        /* \"#utility.yul\":3519:3522   */\n      dup5\n        /* \"#utility.yul\":3515:3531   */\n      add\n        /* \"#utility.yul\":3508:3535   */\n      mstore\n        /* \"#utility.yul\":3357:3541   */\n      pop\n        /* \"#utility.yul\":3295:3541   */\n      pop\n      pop\n      pop\n      jump\t// out\n        /* \"#utility.yul\":3547:3649   */\n    tag_285:\n        /* \"#utility.yul\":3588:3594   */\n      0x00\n        /* \"#utility.yul\":3639:3641   */\n      0x1f\n        /* \"#utility.yul\":3635:3642   */\n      not\n        /* \"#utility.yul\":3630:3632   */\n      0x1f\n        /* \"#utility.yul\":3623:3628   */\n      dup4\n        /* \"#utility.yul\":3619:3633   */\n      add\n        /* \"#utility.yul\":3615:3643   */\n      and\n        /* \"#utility.yul\":3605:3643   */\n      swap1\n      pop\n        /* \"#utility.yul\":3547:3649   */\n      swap2\n      swap1\n      pop\n      jump\t// out\n        /* \"#utility.yul\":3655:4012   */\n    tag_286:\n        /* \"#utility.yul\":3733:3736   */\n      0x00\n        /* \"#utility.yul\":3761:3800   */\n      tag_392\n        /* \"#utility.yul\":3794:3799   */\n      dup3\n        /* \"#utility.yul\":3761:3800   */\n      tag_282\n      jump\t// in\n    tag_392:\n        /* \"#utility.yul\":3816:3877   */\n      tag_393\n        /* \"#utility.yul\":3870:3876   */\n      dup2\n        /* \"#utility.yul\":3865:3868   */\n      dup6\n        /* \"#utility.yul\":3816:3877   */\n      tag_283\n      jump\t// in\n    tag_393:\n        /* \"#utility.yul\":3809:3877   */\n      swap4\n      pop\n        /* \"#utility.yul\":3886:3951   */\n      tag_394\n        /* \"#utility.yul\":3944:3950   */\n      dup2\n        /* \"#utility.yul\":3939:3942   */\n      dup6\n        /* \"#utility.yul\":3932:3936   */\n      0x20\n        /* \"#utility.yul\":3925:3930   */\n      dup7\n        /* \"#utility.yul\":3921:3937   */\n      add\n        /* \"#utility.yul\":3886:3951   */\n      tag_284\n      jump\t// in\n    tag_394:\n        /* \"#utility.yul\":3976:4005   */\n      tag_395\n        /* \"#utility.yul\":3998:4004   */\n      dup2\n        /* \"#utility.yul\":3976:4005   */\n      tag_285\n      jump\t// in\n    tag_395:\n        /* \"#utility.yul\":3971:3974   */\n      dup5\n        /* \"#utility.yul\":3967:4006   */\n      add\n        /* \"#utility.yul\":3960:4006   */\n      swap2\n      pop\n        /* \"#utility.yul\":3737:4012   */\n      pop\n        /* \"#utility.yul\":3655:4012   */\n      swap3\n      swap2\n      pop\n      pop\n      jump\t// out\n        /* \"#utility.yul\":4018:4126   */\n    tag_287:\n        /* \"#utility.yul\":4095:4119   */\n      tag_397\n        /* \"#utility.yul\":4113:4118   */\n      dup2\n        /* \"#utility.yul\":4095:4119   */\n      tag_272\n      jump\t// in\n    tag_397:\n        /* \"#utility.yul\":4090:4093   */\n      dup3\n        /* \"#utility.yul\":4083:4120   */\n      mstore\n        /* \"#utility.yul\":4018:4126   */\n      pop\n      pop\n      jump\t// out\n        /* \"#utility.yul\":4188:4796   */\n    tag_288:\n        /* \"#utility.yul\":4297:4300   */\n      0x00\n        /* \"#utility.yul\":4333:4337   */\n      0x40\n        /* \"#utility.yul\":4328:4331   */\n      dup4\n        /* \"#utility.yul\":4324:4338   */\n      add\n        /* \"#utility.yul\":4427:4431   */\n      0x00\n        /* \"#utility.yul\":4420:4425   */\n      dup4\n        /* \"#utility.yul\":4416:4432   */\n      add\n        /* \"#utility.yul\":4410:4433   */\n      mload\n        /* \"#utility.yul\":4480:4483   */\n      dup5\n        /* \"#utility.yul\":4474:4478   */\n      dup3\n        /* \"#utility.yul\":4470:4484   */\n      sub\n        /* \"#utility.yul\":4463:4467   */\n      0x00\n        /* \"#utility.yul\":4458:4461   */\n      dup7\n        /* \"#utility.yul\":4454:4468   */\n      add\n        /* \"#utility.yul\":4447:4485   */\n      mstore\n        /* \"#utility.yul\":4506:4579   */\n      tag_399\n        /* \"#utility.yul\":4574:4578   */\n      dup3\n        /* \"#utility.yul\":4560:4572   */\n      dup3\n        /* \"#utility.yul\":4506:4579   */\n      tag_286\n      jump\t// in\n    tag_399:\n        /* \"#utility.yul\":4498:4579   */\n      swap2\n      pop\n        /* \"#utility.yul\":4348:4590   */\n      pop\n        /* \"#utility.yul\":4677:4681   */\n      0x20\n        /* \"#utility.yul\":4670:4675   */\n      dup4\n        /* \"#utility.yul\":4666:4682   */\n      add\n        /* \"#utility.yul\":4660:4683   */\n      mload\n        /* \"#utility.yul\":4696:4759   */\n      tag_400\n        /* \"#utility.yul\":4753:4757   */\n      0x20\n        /* \"#utility.yul\":4748:4751   */\n      dup7\n        /* \"#utility.yul\":4744:4758   */\n      add\n        /* \"#utility.yul\":4730:4742   */\n      dup3\n        /* \"#utility.yul\":4696:4759   */\n      tag_287\n      jump\t// in\n    tag_400:\n        /* \"#utility.yul\":4600:4769   */\n      pop\n        /* \"#utility.yul\":4786:4790   */\n      dup1\n        /* \"#utility.yul\":4779:4790   */\n      swap2\n      pop\n        /* \"#utility.yul\":4302:4796   */\n      pop\n        /* \"#utility.yul\":4188:4796   */\n      swap3\n      swap2\n      pop\n      pop\n      jump\t// out\n        /* \"#utility.yul\":4802:5058   */\n    tag_289:\n        /* \"#utility.yul\":4921:4931   */\n      0x00\n        /* \"#utility.yul\":4956:5052   */\n      tag_402\n        /* \"#utility.yul\":5048:5051   */\n      dup4\n        /* \"#utility.yul\":5040:5046   */\n      dup4\n        /* \"#utility.yul\":4956:5052   */\n      tag_288\n      jump\t// in\n    tag_402:\n        /* \"#utility.yul\":4942:5052   */\n      swap1\n      pop\n        /* \"#utility.yul\":4802:5058   */\n      swap3\n      swap2\n      pop\n      pop\n      jump\t// out\n        /* \"#utility.yul\":5064:5202   */\n    tag_290:\n        /* \"#utility.yul\":5159:5163   */\n      0x00\n        /* \"#utility.yul\":5191:5195   */\n      0x20\n        /* \"#utility.yul\":5186:5189   */\n      dup3\n        /* \"#utility.yul\":5182:5196   */\n      add\n        /* \"#utility.yul\":5174:5196   */\n      swap1\n      pop\n        /* \"#utility.yul\":5064:5202   */\n      swap2\n      swap1\n      pop\n      jump\t// out\n        /* \"#utility.yul\":5268:6379   */\n    tag_291:\n        /* \"#utility.yul\":5437:5440   */\n      0x00\n        /* \"#utility.yul\":5466:5545   */\n      tag_405\n        /* \"#utility.yul\":5539:5544   */\n      dup3\n        /* \"#utility.yul\":5466:5545   */\n      tag_279\n      jump\t// in\n    tag_405:\n        /* \"#utility.yul\":5561:5672   */\n      tag_406\n        /* \"#utility.yul\":5665:5671   */\n      dup2\n        /* \"#utility.yul\":5660:5663   */\n      dup6\n        /* \"#utility.yul\":5561:5672   */\n      tag_280\n      jump\t// in\n    tag_406:\n        /* \"#utility.yul\":5554:5672   */\n      swap4\n      pop\n        /* \"#utility.yul\":5698:5701   */\n      dup4\n        /* \"#utility.yul\":5743:5747   */\n      0x20\n        /* \"#utility.yul\":5735:5741   */\n      dup3\n        /* \"#utility.yul\":5731:5748   */\n      mul\n        /* \"#utility.yul\":5726:5729   */\n      dup6\n        /* \"#utility.yul\":5722:5749   */\n      add\n        /* \"#utility.yul\":5773:5854   */\n      tag_407\n        /* \"#utility.yul\":5848:5853   */\n      dup6\n        /* \"#utility.yul\":5773:5854   */\n      tag_281\n      jump\t// in\n    tag_407:\n        /* \"#utility.yul\":5877:5884   */\n      dup1\n        /* \"#utility.yul\":5908:5909   */\n      0x00\n        /* \"#utility.yul\":5893:6334   */\n    tag_408:\n        /* \"#utility.yul\":5918:5924   */\n      dup6\n        /* \"#utility.yul\":5915:5916   */\n      dup2\n        /* \"#utility.yul\":5912:5925   */\n      lt\n        /* \"#utility.yul\":5893:6334   */\n      iszero\n      tag_410\n      jumpi\n        /* \"#utility.yul\":5989:5998   */\n      dup5\n        /* \"#utility.yul\":5983:5987   */\n      dup5\n        /* \"#utility.yul\":5979:5999   */\n      sub\n        /* \"#utility.yul\":5974:5977   */\n      dup10\n        /* \"#utility.yul\":5967:6000   */\n      mstore\n        /* \"#utility.yul\":6040:6046   */\n      dup2\n        /* \"#utility.yul\":6034:6047   */\n      mload\n        /* \"#utility.yul\":6068:6182   */\n      tag_411\n        /* \"#utility.yul\":6177:6181   */\n      dup6\n        /* \"#utility.yul\":6162:6175   */\n      dup3\n        /* \"#utility.yul\":6068:6182   */\n      tag_289\n      jump\t// in\n    tag_411:\n        /* \"#utility.yul\":6060:6182   */\n      swap5\n      pop\n        /* \"#utility.yul\":6205:6290   */\n      tag_412\n        /* \"#utility.yul\":6283:6289   */\n      dup4\n        /* \"#utility.yul\":6205:6290   */\n      tag_290\n      jump\t// in\n    tag_412:\n        /* \"#utility.yul\":6195:6290   */\n      swap3\n      pop\n        /* \"#utility.yul\":6319:6323   */\n      0x20\n        /* \"#utility.yul\":6314:6317   */\n      dup11\n        /* \"#utility.yul\":6310:6324   */\n      add\n        /* \"#utility.yul\":6303:6324   */\n      swap10\n      pop\n        /* \"#utility.yul\":5953:6334   */\n      pop\n        /* \"#utility.yul\":5940:5941   */\n      0x01\n        /* \"#utility.yul\":5937:5938   */\n      dup2\n        /* \"#utility.yul\":5933:5942   */\n      add\n        /* \"#utility.yul\":5928:5942   */\n      swap1\n      pop\n        /* \"#utility.yul\":5893:6334   */\n      jump(tag_408)\n    tag_410:\n        /* \"#utility.yul\":5897:5911   */\n      pop\n        /* \"#utility.yul\":6350:6354   */\n      dup3\n        /* \"#utility.yul\":6343:6354   */\n      swap8\n      pop\n        /* \"#utility.yul\":6370:6373   */\n      dup8\n        /* \"#utility.yul\":6363:6373   */\n      swap6\n      pop\n        /* \"#utility.yul\":5442:6379   */\n      pop\n      pop\n      pop\n      pop\n      pop\n        /* \"#utility.yul\":5268:6379   */\n      swap3\n      swap2\n      pop\n      pop\n      jump\t// out\n        /* \"#utility.yul\":6385:6858   */\n    tag_35:\n        /* \"#utility.yul\":6578:6582   */\n      0x00\n        /* \"#utility.yul\":6616:6618   */\n      0x20\n        /* \"#utility.yul\":6605:6614   */\n      dup3\n        /* \"#utility.yul\":6601:6619   */\n      add\n        /* \"#utility.yul\":6593:6619   */\n      swap1\n      pop\n        /* \"#utility.yul\":6665:6674   */\n      dup2\n        /* \"#utility.yul\":6659:6663   */\n      dup2\n        /* \"#utility.yul\":6655:6675   */\n      sub\n        /* \"#utility.yul\":6651:6652   */\n      0x00\n        /* \"#utility.yul\":6640:6649   */\n      dup4\n        /* \"#utility.yul\":6636:6653   */\n      add\n        /* \"#utility.yul\":6629:6676   */\n      mstore\n        /* \"#utility.yul\":6693:6851   */\n      tag_414\n        /* \"#utility.yul\":6846:6850   */\n      dup2\n        /* \"#utility.yul\":6837:6843   */\n      dup5\n        /* \"#utility.yul\":6693:6851   */\n      tag_291\n      jump\t// in\n    tag_414:\n        /* \"#utility.yul\":6685:6851   */\n      swap1\n      pop\n        /* \"#utility.yul\":6385:6858   */\n      swap3\n      swap2\n      pop\n      pop\n      jump\t// out\n        /* \"#utility.yul\":6864:6990   */\n    tag_292:\n        /* \"#utility.yul\":6901:6908   */\n      0x00\n        /* \"#utility.yul\":6941:6983   */\n      0xffffffffffffffffffffffffffffffffffffffff\n        /* \"#utility.yul\":6934:6939   */\n      dup3\n        /* \"#utility.yul\":6930:6984   */\n      and\n        /* \"#utility.yul\":6919:6984   */\n      swap1\n      pop\n        /* \"#utility.yul\":6864:6990   */\n      swap2\n      swap1\n      pop\n      jump\t// out\n        /* \"#utility.yul\":6996:7092   */\n    tag_293:\n        /* \"#utility.yul\":7033:7040   */\n      0x00\n        /* \"#utility.yul\":7062:7086   */\n      tag_417\n        /* \"#utility.yul\":7080:7085   */\n      dup3\n        /* \"#utility.yul\":7062:7086   */\n      tag_292\n      jump\t// in\n    tag_417:\n        /* \"#utility.yul\":7051:7086   */\n      swap1\n      pop\n        /* \"#utility.yul\":6996:7092   */\n      swap2\n      swap1\n      pop\n      jump\t// out\n        /* \"#utility.yul\":7098:7216   */\n    tag_294:\n        /* \"#utility.yul\":7185:7209   */\n      tag_419\n        /* \"#utility.yul\":7203:7208   */\n      dup2\n        /* \"#utility.yul\":7185:7209   */\n      tag_293\n      jump\t// in\n    tag_419:\n        /* \"#utility.yul\":7180:7183   */\n      dup3\n        /* \"#utility.yul\":7173:7210   */\n      mstore\n        /* \"#utility.yul\":7098:7216   */\n      pop\n      pop\n      jump\t// out\n        /* \"#utility.yul\":7222:7444   */\n    tag_41:\n        /* \"#utility.yul\":7315:7319   */\n      0x00\n        /* \"#utility.yul\":7353:7355   */\n      0x20\n        /* \"#utility.yul\":7342:7351   */\n      dup3\n        /* \"#utility.yul\":7338:7356   */\n      add\n        /* \"#utility.yul\":7330:7356   */\n      swap1\n      pop\n        /* \"#utility.yul\":7366:7437   */\n      tag_421\n        /* \"#utility.yul\":7434:7435   */\n      0x00\n        /* \"#utility.yul\":7423:7432   */\n      dup4\n        /* \"#utility.yul\":7419:7436   */\n      add\n        /* \"#utility.yul\":7410:7416   */\n      dup5\n        /* \"#utility.yul\":7366:7437   */\n      tag_294\n      jump\t// in\n    tag_421:\n        /* \"#utility.yul\":7222:7444   */\n      swap3\n      swap2\n      pop\n      pop\n      jump\t// out\n        /* \"#utility.yul\":7506:8124   */\n    tag_295:\n        /* \"#utility.yul\":7625:7628   */\n      0x00\n        /* \"#utility.yul\":7661:7665   */\n      0x40\n        /* \"#utility.yul\":7656:7659   */\n      dup4\n        /* \"#utility.yul\":7652:7666   */\n      add\n        /* \"#utility.yul\":7755:7759   */\n      0x00\n        /* \"#utility.yul\":7748:7753   */\n      dup4\n        /* \"#utility.yul\":7744:7760   */\n      add\n        /* \"#utility.yul\":7738:7761   */\n      mload\n        /* \"#utility.yul\":7808:7811   */\n      dup5\n        /* \"#utility.yul\":7802:7806   */\n      dup3\n        /* \"#utility.yul\":7798:7812   */\n      sub\n        /* \"#utility.yul\":7791:7795   */\n      0x00\n        /* \"#utility.yul\":7786:7789   */\n      dup7\n        /* \"#utility.yul\":7782:7796   */\n      add\n        /* \"#utility.yul\":7775:7813   */\n      mstore\n        /* \"#utility.yul\":7834:7907   */\n      tag_423\n        /* \"#utility.yul\":7902:7906   */\n      dup3\n        /* \"#utility.yul\":7888:7900   */\n      dup3\n        /* \"#utility.yul\":7834:7907   */\n      tag_286\n      jump\t// in\n    tag_423:\n        /* \"#utility.yul\":7826:7907   */\n      swap2\n      pop\n        /* \"#utility.yul\":7676:7918   */\n      pop\n        /* \"#utility.yul\":8005:8009   */\n      0x20\n        /* \"#utility.yul\":7998:8003   */\n      dup4\n        /* \"#utility.yul\":7994:8010   */\n      add\n        /* \"#utility.yul\":7988:8011   */\n      mload\n        /* \"#utility.yul\":8024:8087   */\n      tag_424\n        /* \"#utility.yul\":8081:8085   */\n      0x20\n        /* \"#utility.yul\":8076:8079   */\n      dup7\n        /* \"#utility.yul\":8072:8086   */\n      add\n        /* \"#utility.yul\":8058:8070   */\n      dup3\n        /* \"#utility.yul\":8024:8087   */\n      tag_287\n      jump\t// in\n    tag_424:\n        /* \"#utility.yul\":7928:8097   */\n      pop\n        /* \"#utility.yul\":8114:8118   */\n      dup1\n        /* \"#utility.yul\":8107:8118   */\n      swap2\n      pop\n        /* \"#utility.yul\":7630:8124   */\n      pop\n        /* \"#utility.yul\":7506:8124   */\n      swap3\n      swap2\n      pop\n      pop\n      jump\t// out\n        /* \"#utility.yul\":8130:8503   */\n    tag_45:\n        /* \"#utility.yul\":8273:8277   */\n      0x00\n        /* \"#utility.yul\":8311:8313   */\n      0x20\n        /* \"#utility.yul\":8300:8309   */\n      dup3\n        /* \"#utility.yul\":8296:8314   */\n      add\n        /* \"#utility.yul\":8288:8314   */\n      swap1\n      pop\n        /* \"#utility.yul\":8360:8369   */\n      dup2\n        /* \"#utility.yul\":8354:8358   */\n      dup2\n        /* \"#utility.yul\":8350:8370   */\n      sub\n        /* \"#utility.yul\":8346:8347   */\n      0x00\n        /* \"#utility.yul\":8335:8344   */\n      dup4\n        /* \"#utility.yul\":8331:8348   */\n      add\n        /* \"#utility.yul\":8324:8371   */\n      mstore\n        /* \"#utility.yul\":8388:8496   */\n      tag_426\n        /* \"#utility.yul\":8491:8495   */\n      dup2\n        /* \"#utility.yul\":8482:8488   */\n      dup5\n        /* \"#utility.yul\":8388:8496   */\n      tag_295\n      jump\t// in\n    tag_426:\n        /* \"#utility.yul\":8380:8496   */\n      swap1\n      pop\n        /* \"#utility.yul\":8130:8503   */\n      swap3\n      swap2\n      pop\n      pop\n      jump\t// out\n        /* \"#utility.yul\":8509:8631   */\n    tag_296:\n        /* \"#utility.yul\":8582:8606   */\n      tag_428\n        /* \"#utility.yul\":8600:8605   */\n      dup2\n        /* \"#utility.yul\":8582:8606   */\n      tag_293\n      jump\t// in\n    tag_428:\n        /* \"#utility.yul\":8575:8580   */\n      dup2\n        /* \"#utility.yul\":8572:8607   */\n      eq\n        /* \"#utility.yul\":8562:8625   */\n      tag_429\n      jumpi\n        /* \"#utility.yul\":8621:8622   */\n      0x00\n        /* \"#utility.yul\":8618:8619   */\n      dup1\n        /* \"#utility.yul\":8611:8623   */\n      revert\n        /* \"#utility.yul\":8562:8625   */\n    tag_429:\n        /* \"#utility.yul\":8509:8631   */\n      pop\n      jump\t// out\n        /* \"#utility.yul\":8637:8776   */\n    tag_297:\n        /* \"#utility.yul\":8683:8688   */\n      0x00\n        /* \"#utility.yul\":8721:8727   */\n      dup2\n        /* \"#utility.yul\":8708:8728   */\n      calldataload\n        /* \"#utility.yul\":8699:8728   */\n      swap1\n      pop\n        /* \"#utility.yul\":8737:8770   */\n      tag_431\n        /* \"#utility.yul\":8764:8769   */\n      dup2\n        /* \"#utility.yul\":8737:8770   */\n      tag_296\n      jump\t// in\n    tag_431:\n        /* \"#utility.yul\":8637:8776   */\n      swap3\n      swap2\n      pop\n      pop\n      jump\t// out\n        /* \"#utility.yul\":8782:9111   */\n    tag_52:\n        /* \"#utility.yul\":8841:8847   */\n      0x00\n        /* \"#utility.yul\":8890:8892   */\n      0x20\n        /* \"#utility.yul\":8878:8887   */\n      dup3\n        /* \"#utility.yul\":8869:8876   */\n      dup5\n        /* \"#utility.yul\":8865:8888   */\n      sub\n        /* \"#utility.yul\":8861:8893   */\n      slt\n        /* \"#utility.yul\":8858:8977   */\n      iszero\n      tag_433\n      jumpi\n        /* \"#utility.yul\":8896:8975   */\n      tag_434\n      tag_270\n      jump\t// in\n    tag_434:\n        /* \"#utility.yul\":8858:8977   */\n    tag_433:\n        /* \"#utility.yul\":9016:9017   */\n      0x00\n        /* \"#utility.yul\":9041:9094   */\n      tag_435\n        /* \"#utility.yul\":9086:9093   */\n      dup5\n        /* \"#utility.yul\":9077:9083   */\n      dup3\n        /* \"#utility.yul\":9066:9075   */\n      dup6\n        /* \"#utility.yul\":9062:9084   */\n      add\n        /* \"#utility.yul\":9041:9094   */\n      tag_297\n      jump\t// in\n    tag_435:\n        /* \"#utility.yul\":9031:9094   */\n      swap2\n      pop\n        /* \"#utility.yul\":8987:9104   */\n      pop\n        /* \"#utility.yul\":8782:9111   */\n      swap3\n      swap2\n      pop\n      pop\n      jump\t// out\n        /* \"#utility.yul\":9117:9207   */\n    tag_298:\n        /* \"#utility.yul\":9151:9158   */\n      0x00\n        /* \"#utility.yul\":9194:9199   */\n      dup2\n        /* \"#utility.yul\":9187:9200   */\n      iszero\n        /* \"#utility.yul\":9180:9201   */\n      iszero\n        /* \"#utility.yul\":9169:9201   */\n      swap1\n      pop\n        /* \"#utility.yul\":9117:9207   */\n      swap2\n      swap1\n      pop\n      jump\t// out\n        /* \"#utility.yul\":9213:9312   */\n    tag_299:\n        /* \"#utility.yul\":9284:9305   */\n      tag_438\n        /* \"#utility.yul\":9299:9304   */\n      dup2\n        /* \"#utility.yul\":9284:9305   */\n      tag_298\n      jump\t// in\n    tag_438:\n        /* \"#utility.yul\":9279:9282   */\n      dup3\n        /* \"#utility.yul\":9272:9306   */\n      mstore\n        /* \"#utility.yul\":9213:9312   */\n      pop\n      pop\n      jump\t// out\n        /* \"#utility.yul\":9368:10054   */\n    tag_300:\n        /* \"#utility.yul\":9509:9513   */\n      0x60\n        /* \"#utility.yul\":9504:9507   */\n      dup3\n        /* \"#utility.yul\":9500:9514   */\n      add\n        /* \"#utility.yul\":9604:9608   */\n      0x00\n        /* \"#utility.yul\":9597:9602   */\n      dup3\n        /* \"#utility.yul\":9593:9609   */\n      add\n        /* \"#utility.yul\":9587:9610   */\n      mload\n        /* \"#utility.yul\":9623:9680   */\n      tag_440\n        /* \"#utility.yul\":9674:9678   */\n      0x00\n        /* \"#utility.yul\":9669:9672   */\n      dup6\n        /* \"#utility.yul\":9665:9679   */\n      add\n        /* \"#utility.yul\":9651:9663   */\n      dup3\n        /* \"#utility.yul\":9623:9680   */\n      tag_299\n      jump\t// in\n    tag_440:\n        /* \"#utility.yul\":9524:9690   */\n      pop\n        /* \"#utility.yul\":9776:9780   */\n      0x20\n        /* \"#utility.yul\":9769:9774   */\n      dup3\n        /* \"#utility.yul\":9765:9781   */\n      add\n        /* \"#utility.yul\":9759:9782   */\n      mload\n        /* \"#utility.yul\":9795:9852   */\n      tag_441\n        /* \"#utility.yul\":9846:9850   */\n      0x20\n        /* \"#utility.yul\":9841:9844   */\n      dup6\n        /* \"#utility.yul\":9837:9851   */\n      add\n        /* \"#utility.yul\":9823:9835   */\n      dup3\n        /* \"#utility.yul\":9795:9852   */\n      tag_299\n      jump\t// in\n    tag_441:\n        /* \"#utility.yul\":9700:9862   */\n      pop\n        /* \"#utility.yul\":9955:9959   */\n      0x40\n        /* \"#utility.yul\":9948:9953   */\n      dup3\n        /* \"#utility.yul\":9944:9960   */\n      add\n        /* \"#utility.yul\":9938:9961   */\n      mload\n        /* \"#utility.yul\":9974:10037   */\n      tag_442\n        /* \"#utility.yul\":10031:10035   */\n      0x40\n        /* \"#utility.yul\":10026:10029   */\n      dup6\n        /* \"#utility.yul\":10022:10036   */\n      add\n        /* \"#utility.yul\":10008:10020   */\n      dup3\n        /* \"#utility.yul\":9974:10037   */\n      tag_287\n      jump\t// in\n    tag_442:\n        /* \"#utility.yul\":9872:10047   */\n      pop\n        /* \"#utility.yul\":9478:10054   */\n      pop\n        /* \"#utility.yul\":9368:10054   */\n      pop\n      pop\n      jump\t// out\n        /* \"#utility.yul\":10060:10370   */\n    tag_55:\n        /* \"#utility.yul\":10197:10201   */\n      0x00\n        /* \"#utility.yul\":10235:10237   */\n      0x60\n        /* \"#utility.yul\":10224:10233   */\n      dup3\n        /* \"#utility.yul\":10220:10238   */\n      add\n        /* \"#utility.yul\":10212:10238   */\n      swap1\n      pop\n        /* \"#utility.yul\":10248:10363   */\n      tag_444\n        /* \"#utility.yul\":10360:10361   */\n      0x00\n        /* \"#utility.yul\":10349:10358   */\n      dup4\n        /* \"#utility.yul\":10345:10362   */\n      add\n        /* \"#utility.yul\":10336:10342   */\n      dup5\n        /* \"#utility.yul\":10248:10363   */\n      tag_300\n      jump\t// in\n    tag_444:\n        /* \"#utility.yul\":10060:10370   */\n      swap3\n      swap2\n      pop\n      pop\n      jump\t// out\n        /* \"#utility.yul\":10376:10545   */\n    tag_301:\n        /* \"#utility.yul\":10460:10471   */\n      0x00\n        /* \"#utility.yul\":10494:10500   */\n      dup3\n        /* \"#utility.yul\":10489:10492   */\n      dup3\n        /* \"#utility.yul\":10482:10501   */\n      mstore\n        /* \"#utility.yul\":10534:10538   */\n      0x20\n        /* \"#utility.yul\":10529:10532   */\n      dup3\n        /* \"#utility.yul\":10525:10539   */\n      add\n        /* \"#utility.yul\":10510:10539   */\n      swap1\n      pop\n        /* \"#utility.yul\":10376:10545   */\n      swap3\n      swap2\n      pop\n      pop\n      jump\t// out\n        /* \"#utility.yul\":10551:10732   */\n    tag_302:\n        /* \"#utility.yul\":10691:10724   */\n      0x596f757220617265206e6f74207265676973746572656420696e206c69737400\n        /* \"#utility.yul\":10687:10688   */\n      0x00\n        /* \"#utility.yul\":10679:10685   */\n      dup3\n        /* \"#utility.yul\":10675:10689   */\n      add\n        /* \"#utility.yul\":10668:10725   */\n      mstore\n        /* \"#utility.yul\":10551:10732   */\n      pop\n      jump\t// out\n        /* \"#utility.yul\":10738:11104   */\n    tag_303:\n        /* \"#utility.yul\":10880:10883   */\n      0x00\n        /* \"#utility.yul\":10901:10968   */\n      tag_448\n        /* \"#utility.yul\":10965:10967   */\n      0x1f\n        /* \"#utility.yul\":10960:10963   */\n      dup4\n        /* \"#utility.yul\":10901:10968   */\n      tag_301\n      jump\t// in\n    tag_448:\n        /* \"#utility.yul\":10894:10968   */\n      swap2\n      pop\n        /* \"#utility.yul\":10977:11070   */\n      tag_449\n        /* \"#utility.yul\":11066:11069   */\n      dup3\n        /* \"#utility.yul\":10977:11070   */\n      tag_302\n      jump\t// in\n    tag_449:\n        /* \"#utility.yul\":11095:11097   */\n      0x20\n        /* \"#utility.yul\":11090:11093   */\n      dup3\n        /* \"#utility.yul\":11086:11098   */\n      add\n        /* \"#utility.yul\":11079:11098   */\n      swap1\n      pop\n        /* \"#utility.yul\":10738:11104   */\n      swap2\n      swap1\n      pop\n      jump\t// out\n        /* \"#utility.yul\":11110:11529   */\n    tag_67:\n        /* \"#utility.yul\":11276:11280   */\n      0x00\n        /* \"#utility.yul\":11314:11316   */\n      0x20\n        /* \"#utility.yul\":11303:11312   */\n      dup3\n        /* \"#utility.yul\":11299:11317   */\n      add\n        /* \"#utility.yul\":11291:11317   */\n      swap1\n      pop\n        /* \"#utility.yul\":11363:11372   */\n      dup2\n        /* \"#utility.yul\":11357:11361   */\n      dup2\n        /* \"#utility.yul\":11353:11373   */\n      sub\n        /* \"#utility.yul\":11349:11350   */\n      0x00\n        /* \"#utility.yul\":11338:11347   */\n      dup4\n        /* \"#utility.yul\":11334:11351   */\n      add\n        /* \"#utility.yul\":11327:11374   */\n      mstore\n        /* \"#utility.yul\":11391:11522   */\n      tag_451\n        /* \"#utility.yul\":11517:11521   */\n      dup2\n        /* \"#utility.yul\":11391:11522   */\n      tag_303\n      jump\t// in\n    tag_451:\n        /* \"#utility.yul\":11383:11522   */\n      swap1\n      pop\n        /* \"#utility.yul\":11110:11529   */\n      swap2\n      swap1\n      pop\n      jump\t// out\n        /* \"#utility.yul\":11535:11715   */\n    tag_71:\n        /* \"#utility.yul\":11583:11660   */\n      0x4e487b7100000000000000000000000000000000000000000000000000000000\n        /* \"#utility.yul\":11580:11581   */\n      0x00\n        /* \"#utility.yul\":11573:11661   */\n      mstore\n        /* \"#utility.yul\":11680:11684   */\n      0x21\n        /* \"#utility.yul\":11677:11678   */\n      0x04\n        /* \"#utility.yul\":11670:11685   */\n      mstore\n        /* \"#utility.yul\":11704:11708   */\n      0x24\n        /* \"#utility.yul\":11701:11702   */\n      0x00\n        /* \"#utility.yul\":11694:11709   */\n      revert\n        /* \"#utility.yul\":11721:11896   */\n    tag_304:\n        /* \"#utility.yul\":11861:11888   */\n      0x4974206d75737420626520766f74696e672073657373696f6e00000000000000\n        /* \"#utility.yul\":11857:11858   */\n      0x00\n        /* \"#utility.yul\":11849:11855   */\n      dup3\n        /* \"#utility.yul\":11845:11859   */\n      add\n        /* \"#utility.yul\":11838:11889   */\n      mstore\n        /* \"#utility.yul\":11721:11896   */\n      pop\n      jump\t// out\n        /* \"#utility.yul\":11902:12268   */\n    tag_305:\n        /* \"#utility.yul\":12044:12047   */\n      0x00\n        /* \"#utility.yul\":12065:12132   */\n      tag_455\n        /* \"#utility.yul\":12129:12131   */\n      0x19\n        /* \"#utility.yul\":12124:12127   */\n      dup4\n        /* \"#utility.yul\":12065:12132   */\n      tag_301\n      jump\t// in\n    tag_455:\n        /* \"#utility.yul\":12058:12132   */\n      swap2\n      pop\n        /* \"#utility.yul\":12141:12234   */\n      tag_456\n        /* \"#utility.yul\":12230:12233   */\n      dup3\n        /* \"#utility.yul\":12141:12234   */\n      tag_304\n      jump\t// in\n    tag_456:\n        /* \"#utility.yul\":12259:12261   */\n      0x20\n        /* \"#utility.yul\":12254:12257   */\n      dup3\n        /* \"#utility.yul\":12250:12262   */\n      add\n        /* \"#utility.yul\":12243:12262   */\n      swap1\n      pop\n        /* \"#utility.yul\":11902:12268   */\n      swap2\n      swap1\n      pop\n      jump\t// out\n        /* \"#utility.yul\":12274:12693   */\n    tag_76:\n        /* \"#utility.yul\":12440:12444   */\n      0x00\n        /* \"#utility.yul\":12478:12480   */\n      0x20\n        /* \"#utility.yul\":12467:12476   */\n      dup3\n        /* \"#utility.yul\":12463:12481   */\n      add\n        /* \"#utility.yul\":12455:12481   */\n      swap1\n      pop\n        /* \"#utility.yul\":12527:12536   */\n      dup2\n        /* \"#utility.yul\":12521:12525   */\n      dup2\n        /* \"#utility.yul\":12517:12537   */\n      sub\n        /* \"#utility.yul\":12513:12514   */\n      0x00\n        /* \"#utility.yul\":12502:12511   */\n      dup4\n        /* \"#utility.yul\":12498:12515   */\n      add\n        /* \"#utility.yul\":12491:12538   */\n      mstore\n        /* \"#utility.yul\":12555:12686   */\n      tag_458\n        /* \"#utility.yul\":12681:12685   */\n      dup2\n        /* \"#utility.yul\":12555:12686   */\n      tag_305\n      jump\t// in\n    tag_458:\n        /* \"#utility.yul\":12547:12686   */\n      swap1\n      pop\n        /* \"#utility.yul\":12274:12693   */\n      swap2\n      swap1\n      pop\n      jump\t// out\n        /* \"#utility.yul\":12699:12871   */\n    tag_306:\n        /* \"#utility.yul\":12839:12863   */\n      0x596f75206861766520616c726561647920766f74656400000000000000000000\n        /* \"#utility.yul\":12835:12836   */\n      0x00\n        /* \"#utility.yul\":12827:12833   */\n      dup3\n        /* \"#utility.yul\":12823:12837   */\n      add\n        /* \"#utility.yul\":12816:12864   */\n      mstore\n        /* \"#utility.yul\":12699:12871   */\n      pop\n      jump\t// out\n        /* \"#utility.yul\":12877:13243   */\n    tag_307:\n        /* \"#utility.yul\":13019:13022   */\n      0x00\n        /* \"#utility.yul\":13040:13107   */\n      tag_461\n        /* \"#utility.yul\":13104:13106   */\n      0x16\n        /* \"#utility.yul\":13099:13102   */\n      dup4\n        /* \"#utility.yul\":13040:13107   */\n      tag_301\n      jump\t// in\n    tag_461:\n        /* \"#utility.yul\":13033:13107   */\n      swap2\n      pop\n        /* \"#utility.yul\":13116:13209   */\n      tag_462\n        /* \"#utility.yul\":13205:13208   */\n      dup3\n        /* \"#utility.yul\":13116:13209   */\n      tag_306\n      jump\t// in\n    tag_462:\n        /* \"#utility.yul\":13234:13236   */\n      0x20\n        /* \"#utility.yul\":13229:13232   */\n      dup3\n        /* \"#utility.yul\":13225:13237   */\n      add\n        /* \"#utility.yul\":13218:13237   */\n      swap1\n      pop\n        /* \"#utility.yul\":12877:13243   */\n      swap2\n      swap1\n      pop\n      jump\t// out\n        /* \"#utility.yul\":13249:13668   */\n    tag_79:\n        /* \"#utility.yul\":13415:13419   */\n      0x00\n        /* \"#utility.yul\":13453:13455   */\n      0x20\n        /* \"#utility.yul\":13442:13451   */\n      dup3\n        /* \"#utility.yul\":13438:13456   */\n      add\n        /* \"#utility.yul\":13430:13456   */\n      swap1\n      pop\n        /* \"#utility.yul\":13502:13511   */\n      dup2\n        /* \"#utility.yul\":13496:13500   */\n      dup2\n        /* \"#utility.yul\":13492:13512   */\n      sub\n        /* \"#utility.yul\":13488:13489   */\n      0x00\n        /* \"#utility.yul\":13477:13486   */\n      dup4\n        /* \"#utility.yul\":13473:13490   */\n      add\n        /* \"#utility.yul\":13466:13513   */\n      mstore\n        /* \"#utility.yul\":13530:13661   */\n      tag_464\n        /* \"#utility.yul\":13656:13660   */\n      dup2\n        /* \"#utility.yul\":13530:13661   */\n      tag_307\n      jump\t// in\n    tag_464:\n        /* \"#utility.yul\":13522:13661   */\n      swap1\n      pop\n        /* \"#utility.yul\":13249:13668   */\n      swap2\n      swap1\n      pop\n      jump\t// out\n        /* \"#utility.yul\":13674:13851   */\n    tag_308:\n        /* \"#utility.yul\":13814:13843   */\n      0x546869732070726f706f73616c20646f65736e27742065786973740000000000\n        /* \"#utility.yul\":13810:13811   */\n      0x00\n        /* \"#utility.yul\":13802:13808   */\n      dup3\n        /* \"#utility.yul\":13798:13812   */\n      add\n        /* \"#utility.yul\":13791:13844   */\n      mstore\n        /* \"#utility.yul\":13674:13851   */\n      pop\n      jump\t// out\n        /* \"#utility.yul\":13857:14223   */\n    tag_309:\n        /* \"#utility.yul\":13999:14002   */\n      0x00\n        /* \"#utility.yul\":14020:14087   */\n      tag_467\n        /* \"#utility.yul\":14084:14086   */\n      0x1b\n        /* \"#utility.yul\":14079:14082   */\n      dup4\n        /* \"#utility.yul\":14020:14087   */\n      tag_301\n      jump\t// in\n    tag_467:\n        /* \"#utility.yul\":14013:14087   */\n      swap2\n      pop\n        /* \"#utility.yul\":14096:14189   */\n      tag_468\n        /* \"#utility.yul\":14185:14188   */\n      dup3\n        /* \"#utility.yul\":14096:14189   */\n      tag_308\n      jump\t// in\n    tag_468:\n        /* \"#utility.yul\":14214:14216   */\n      0x20\n        /* \"#utility.yul\":14209:14212   */\n      dup3\n        /* \"#utility.yul\":14205:14217   */\n      add\n        /* \"#utility.yul\":14198:14217   */\n      swap1\n      pop\n        /* \"#utility.yul\":13857:14223   */\n      swap2\n      swap1\n      pop\n      jump\t// out\n        /* \"#utility.yul\":14229:14648   */\n    tag_83:\n        /* \"#utility.yul\":14395:14399   */\n      0x00\n        /* \"#utility.yul\":14433:14435   */\n      0x20\n        /* \"#utility.yul\":14422:14431   */\n      dup3\n        /* \"#utility.yul\":14418:14436   */\n      add\n        /* \"#utility.yul\":14410:14436   */\n      swap1\n      pop\n        /* \"#utility.yul\":14482:14491   */\n      dup2\n        /* \"#utility.yul\":14476:14480   */\n      dup2\n        /* \"#utility.yul\":14472:14492   */\n      sub\n        /* \"#utility.yul\":14468:14469   */\n      0x00\n        /* \"#utility.yul\":14457:14466   */\n      dup4\n        /* \"#utility.yul\":14453:14470   */\n      add\n        /* \"#utility.yul\":14446:14493   */\n      mstore\n        /* \"#utility.yul\":14510:14641   */\n      tag_470\n        /* \"#utility.yul\":14636:14640   */\n      dup2\n        /* \"#utility.yul\":14510:14641   */\n      tag_309\n      jump\t// in\n    tag_470:\n        /* \"#utility.yul\":14502:14641   */\n      swap1\n      pop\n        /* \"#utility.yul\":14229:14648   */\n      swap2\n      swap1\n      pop\n      jump\t// out\n        /* \"#utility.yul\":14654:14834   */\n    tag_86:\n        /* \"#utility.yul\":14702:14779   */\n      0x4e487b7100000000000000000000000000000000000000000000000000000000\n        /* \"#utility.yul\":14699:14700   */\n      0x00\n        /* \"#utility.yul\":14692:14780   */\n      mstore\n        /* \"#utility.yul\":14799:14803   */\n      0x32\n        /* \"#utility.yul\":14796:14797   */\n      0x04\n        /* \"#utility.yul\":14789:14804   */\n      mstore\n        /* \"#utility.yul\":14823:14827   */\n      0x24\n        /* \"#utility.yul\":14820:14821   */\n      0x00\n        /* \"#utility.yul\":14813:14828   */\n      revert\n        /* \"#utility.yul\":14840:15020   */\n    tag_310:\n        /* \"#utility.yul\":14888:14965   */\n      0x4e487b7100000000000000000000000000000000000000000000000000000000\n        /* \"#utility.yul\":14885:14886   */\n      0x00\n        /* \"#utility.yul\":14878:14966   */\n      mstore\n        /* \"#utility.yul\":14985:14989   */\n      0x11\n        /* \"#utility.yul\":14982:14983   */\n      0x04\n        /* \"#utility.yul\":14975:14990   */\n      mstore\n        /* \"#utility.yul\":15009:15013   */\n      0x24\n        /* \"#utility.yul\":15006:15007   */\n      0x00\n        /* \"#utility.yul\":14999:15014   */\n      revert\n        /* \"#utility.yul\":15026:15217   */\n    tag_89:\n        /* \"#utility.yul\":15066:15069   */\n      0x00\n        /* \"#utility.yul\":15085:15105   */\n      tag_474\n        /* \"#utility.yul\":15103:15104   */\n      dup3\n        /* \"#utility.yul\":15085:15105   */\n      tag_272\n      jump\t// in\n    tag_474:\n        /* \"#utility.yul\":15080:15105   */\n      swap2\n      pop\n        /* \"#utility.yul\":15119:15139   */\n      tag_475\n        /* \"#utility.yul\":15137:15138   */\n      dup4\n        /* \"#utility.yul\":15119:15139   */\n      tag_272\n      jump\t// in\n    tag_475:\n        /* \"#utility.yul\":15114:15139   */\n      swap3\n      pop\n        /* \"#utility.yul\":15162:15163   */\n      dup3\n        /* \"#utility.yul\":15159:15160   */\n      dup3\n        /* \"#utility.yul\":15155:15164   */\n      add\n        /* \"#utility.yul\":15148:15164   */\n      swap1\n      pop\n        /* \"#utility.yul\":15183:15186   */\n      dup1\n        /* \"#utility.yul\":15180:15181   */\n      dup3\n        /* \"#utility.yul\":15177:15187   */\n      gt\n        /* \"#utility.yul\":15174:15210   */\n      iszero\n      tag_476\n      jumpi\n        /* \"#utility.yul\":15190:15208   */\n      tag_477\n      tag_310\n      jump\t// in\n    tag_477:\n        /* \"#utility.yul\":15174:15210   */\n    tag_476:\n        /* \"#utility.yul\":15026:15217   */\n      swap3\n      swap2\n      pop\n      pop\n      jump\t// out\n        /* \"#utility.yul\":15223:15341   */\n    tag_311:\n        /* \"#utility.yul\":15310:15334   */\n      tag_479\n        /* \"#utility.yul\":15328:15333   */\n      dup2\n        /* \"#utility.yul\":15310:15334   */\n      tag_272\n      jump\t// in\n    tag_479:\n        /* \"#utility.yul\":15305:15308   */\n      dup3\n        /* \"#utility.yul\":15298:15335   */\n      mstore\n        /* \"#utility.yul\":15223:15341   */\n      pop\n      pop\n      jump\t// out\n        /* \"#utility.yul\":15347:15679   */\n    tag_91:\n        /* \"#utility.yul\":15468:15472   */\n      0x00\n        /* \"#utility.yul\":15506:15508   */\n      0x40\n        /* \"#utility.yul\":15495:15504   */\n      dup3\n        /* \"#utility.yul\":15491:15509   */\n      add\n        /* \"#utility.yul\":15483:15509   */\n      swap1\n      pop\n        /* \"#utility.yul\":15519:15590   */\n      tag_481\n        /* \"#utility.yul\":15587:15588   */\n      0x00\n        /* \"#utility.yul\":15576:15585   */\n      dup4\n        /* \"#utility.yul\":15572:15589   */\n      add\n        /* \"#utility.yul\":15563:15569   */\n      dup6\n        /* \"#utility.yul\":15519:15590   */\n      tag_294\n      jump\t// in\n    tag_481:\n        /* \"#utility.yul\":15600:15672   */\n      tag_482\n        /* \"#utility.yul\":15668:15670   */\n      0x20\n        /* \"#utility.yul\":15657:15666   */\n      dup4\n        /* \"#utility.yul\":15653:15671   */\n      add\n        /* \"#utility.yul\":15644:15650   */\n      dup5\n        /* \"#utility.yul\":15600:15672   */\n      tag_311\n      jump\t// in\n    tag_482:\n        /* \"#utility.yul\":15347:15679   */\n      swap4\n      swap3\n      pop\n      pop\n      pop\n      jump\t// out\n        /* \"#utility.yul\":15685:15907   */\n    tag_312:\n        /* \"#utility.yul\":15825:15859   */\n      0x4974206d757374206265207265676973746572696e6720766f74657220626566\n        /* \"#utility.yul\":15821:15822   */\n      0x00\n        /* \"#utility.yul\":15813:15819   */\n      dup3\n        /* \"#utility.yul\":15809:15823   */\n      add\n        /* \"#utility.yul\":15802:15860   */\n      mstore\n        /* \"#utility.yul\":15894:15899   */\n      0x6f72650000000000000000000000000000000000000000000000000000000000\n        /* \"#utility.yul\":15889:15891   */\n      0x20\n        /* \"#utility.yul\":15881:15887   */\n      dup3\n        /* \"#utility.yul\":15877:15892   */\n      add\n        /* \"#utility.yul\":15870:15900   */\n      mstore\n        /* \"#utility.yul\":15685:15907   */\n      pop\n      jump\t// out\n        /* \"#utility.yul\":15913:16279   */\n    tag_313:\n        /* \"#utility.yul\":16055:16058   */\n      0x00\n        /* \"#utility.yul\":16076:16143   */\n      tag_485\n        /* \"#utility.yul\":16140:16142   */\n      0x23\n        /* \"#utility.yul\":16135:16138   */\n      dup4\n        /* \"#utility.yul\":16076:16143   */\n      tag_301\n      jump\t// in\n    tag_485:\n        /* \"#utility.yul\":16069:16143   */\n      swap2\n      pop\n        /* \"#utility.yul\":16152:16245   */\n      tag_486\n        /* \"#utility.yul\":16241:16244   */\n      dup3\n        /* \"#utility.yul\":16152:16245   */\n      tag_312\n      jump\t// in\n    tag_486:\n        /* \"#utility.yul\":16270:16272   */\n      0x40\n        /* \"#utility.yul\":16265:16268   */\n      dup3\n        /* \"#utility.yul\":16261:16273   */\n      add\n        /* \"#utility.yul\":16254:16273   */\n      swap1\n      pop\n        /* \"#utility.yul\":15913:16279   */\n      swap2\n      swap1\n      pop\n      jump\t// out\n        /* \"#utility.yul\":16285:16704   */\n    tag_102:\n        /* \"#utility.yul\":16451:16455   */\n      0x00\n        /* \"#utility.yul\":16489:16491   */\n      0x20\n        /* \"#utility.yul\":16478:16487   */\n      dup3\n        /* \"#utility.yul\":16474:16492   */\n      add\n        /* \"#utility.yul\":16466:16492   */\n      swap1\n      pop\n        /* \"#utility.yul\":16538:16547   */\n      dup2\n        /* \"#utility.yul\":16532:16536   */\n      dup2\n        /* \"#utility.yul\":16528:16548   */\n      sub\n        /* \"#utility.yul\":16524:16525   */\n      0x00\n        /* \"#utility.yul\":16513:16522   */\n      dup4\n        /* \"#utility.yul\":16509:16526   */\n      add\n        /* \"#utility.yul\":16502:16549   */\n      mstore\n        /* \"#utility.yul\":16566:16697   */\n      tag_488\n        /* \"#utility.yul\":16692:16696   */\n      dup2\n        /* \"#utility.yul\":16566:16697   */\n      tag_313\n      jump\t// in\n    tag_488:\n        /* \"#utility.yul\":16558:16697   */\n      swap1\n      pop\n        /* \"#utility.yul\":16285:16704   */\n      swap2\n      swap1\n      pop\n      jump\t// out\n        /* \"#utility.yul\":16710:16833   */\n    tag_314:\n        /* \"#utility.yul\":16801:16802   */\n      0x06\n        /* \"#utility.yul\":16794:16799   */\n      dup2\n        /* \"#utility.yul\":16791:16803   */\n      lt\n        /* \"#utility.yul\":16781:16827   */\n      tag_490\n      jumpi\n        /* \"#utility.yul\":16807:16825   */\n      tag_491\n      tag_71\n      jump\t// in\n    tag_491:\n        /* \"#utility.yul\":16781:16827   */\n    tag_490:\n        /* \"#utility.yul\":16710:16833   */\n      pop\n      jump\t// out\n        /* \"#utility.yul\":16839:16986   */\n    tag_315:\n        /* \"#utility.yul\":16894:16901   */\n      0x00\n        /* \"#utility.yul\":16923:16928   */\n      dup2\n        /* \"#utility.yul\":16912:16928   */\n      swap1\n      pop\n        /* \"#utility.yul\":16929:16980   */\n      tag_493\n        /* \"#utility.yul\":16974:16979   */\n      dup3\n        /* \"#utility.yul\":16929:16980   */\n      tag_314\n      jump\t// in\n    tag_493:\n        /* \"#utility.yul\":16839:16986   */\n      swap2\n      swap1\n      pop\n      jump\t// out\n        /* \"#utility.yul\":16992:17139   */\n    tag_316:\n        /* \"#utility.yul\":17058:17067   */\n      0x00\n        /* \"#utility.yul\":17091:17133   */\n      tag_495\n        /* \"#utility.yul\":17127:17132   */\n      dup3\n        /* \"#utility.yul\":17091:17133   */\n      tag_315\n      jump\t// in\n    tag_495:\n        /* \"#utility.yul\":17078:17133   */\n      swap1\n      pop\n        /* \"#utility.yul\":16992:17139   */\n      swap2\n      swap1\n      pop\n      jump\t// out\n        /* \"#utility.yul\":17145:17308   */\n    tag_317:\n        /* \"#utility.yul\":17248:17301   */\n      tag_497\n        /* \"#utility.yul\":17295:17300   */\n      dup2\n        /* \"#utility.yul\":17248:17301   */\n      tag_316\n      jump\t// in\n    tag_497:\n        /* \"#utility.yul\":17243:17246   */\n      dup3\n        /* \"#utility.yul\":17236:17302   */\n      mstore\n        /* \"#utility.yul\":17145:17308   */\n      pop\n      pop\n      jump\t// out\n        /* \"#utility.yul\":17314:17710   */\n    tag_106:\n        /* \"#utility.yul\":17467:17471   */\n      0x00\n        /* \"#utility.yul\":17505:17507   */\n      0x40\n        /* \"#utility.yul\":17494:17503   */\n      dup3\n        /* \"#utility.yul\":17490:17508   */\n      add\n        /* \"#utility.yul\":17482:17508   */\n      swap1\n      pop\n        /* \"#utility.yul\":17518:17605   */\n      tag_499\n        /* \"#utility.yul\":17602:17603   */\n      0x00\n        /* \"#utility.yul\":17591:17600   */\n      dup4\n        /* \"#utility.yul\":17587:17604   */\n      add\n        /* \"#utility.yul\":17578:17584   */\n      dup6\n        /* \"#utility.yul\":17518:17605   */\n      tag_317\n      jump\t// in\n    tag_499:\n        /* \"#utility.yul\":17615:17703   */\n      tag_500\n        /* \"#utility.yul\":17699:17701   */\n      0x20\n        /* \"#utility.yul\":17688:17697   */\n      dup4\n        /* \"#utility.yul\":17684:17702   */\n      add\n        /* \"#utility.yul\":17675:17681   */\n      dup5\n        /* \"#utility.yul\":17615:17703   */\n      tag_317\n      jump\t// in\n    tag_500:\n        /* \"#utility.yul\":17314:17710   */\n      swap4\n      swap3\n      pop\n      pop\n      pop\n      jump\t// out\n        /* \"#utility.yul\":17716:17893   */\n    tag_318:\n        /* \"#utility.yul\":17856:17885   */\n      0x4974206d7573742062652070726f706f73616c2073657373696f6e0000000000\n        /* \"#utility.yul\":17852:17853   */\n      0x00\n        /* \"#utility.yul\":17844:17850   */\n      dup3\n        /* \"#utility.yul\":17840:17854   */\n      add\n        /* \"#utility.yul\":17833:17886   */\n      mstore\n        /* \"#utility.yul\":17716:17893   */\n      pop\n      jump\t// out\n        /* \"#utility.yul\":17899:18265   */\n    tag_319:\n        /* \"#utility.yul\":18041:18044   */\n      0x00\n        /* \"#utility.yul\":18062:18129   */\n      tag_503\n        /* \"#utility.yul\":18126:18128   */\n      0x1b\n        /* \"#utility.yul\":18121:18124   */\n      dup4\n        /* \"#utility.yul\":18062:18129   */\n      tag_301\n      jump\t// in\n    tag_503:\n        /* \"#utility.yul\":18055:18129   */\n      swap2\n      pop\n        /* \"#utility.yul\":18138:18231   */\n      tag_504\n        /* \"#utility.yul\":18227:18230   */\n      dup3\n        /* \"#utility.yul\":18138:18231   */\n      tag_318\n      jump\t// in\n    tag_504:\n        /* \"#utility.yul\":18256:18258   */\n      0x20\n        /* \"#utility.yul\":18251:18254   */\n      dup3\n        /* \"#utility.yul\":18247:18259   */\n      add\n        /* \"#utility.yul\":18240:18259   */\n      swap1\n      pop\n        /* \"#utility.yul\":17899:18265   */\n      swap2\n      swap1\n      pop\n      jump\t// out\n        /* \"#utility.yul\":18271:18690   */\n    tag_117:\n        /* \"#utility.yul\":18437:18441   */\n      0x00\n        /* \"#utility.yul\":18475:18477   */\n      0x20\n        /* \"#utility.yul\":18464:18473   */\n      dup3\n        /* \"#utility.yul\":18460:18478   */\n      add\n        /* \"#utility.yul\":18452:18478   */\n      swap1\n      pop\n        /* \"#utility.yul\":18524:18533   */\n      dup2\n        /* \"#utility.yul\":18518:18522   */\n      dup2\n        /* \"#utility.yul\":18514:18534   */\n      sub\n        /* \"#utility.yul\":18510:18511   */\n      0x00\n        /* \"#utility.yul\":18499:18508   */\n      dup4\n        /* \"#utility.yul\":18495:18512   */\n      add\n        /* \"#utility.yul\":18488:18535   */\n      mstore\n        /* \"#utility.yul\":18552:18683   */\n      tag_506\n        /* \"#utility.yul\":18678:18682   */\n      dup2\n        /* \"#utility.yul\":18552:18683   */\n      tag_319\n      jump\t// in\n    tag_506:\n        /* \"#utility.yul\":18544:18683   */\n      swap1\n      pop\n        /* \"#utility.yul\":18271:18690   */\n      swap2\n      swap1\n      pop\n      jump\t// out\n        /* \"#utility.yul\":18696:18876   */\n    tag_320:\n        /* \"#utility.yul\":18744:18821   */\n      0x4e487b7100000000000000000000000000000000000000000000000000000000\n        /* \"#utility.yul\":18741:18742   */\n      0x00\n        /* \"#utility.yul\":18734:18822   */\n      mstore\n        /* \"#utility.yul\":18841:18845   */\n      0x41\n        /* \"#utility.yul\":18838:18839   */\n      0x04\n        /* \"#utility.yul\":18831:18846   */\n      mstore\n        /* \"#utility.yul\":18865:18869   */\n      0x24\n        /* \"#utility.yul\":18862:18863   */\n      0x00\n        /* \"#utility.yul\":18855:18870   */\n      revert\n        /* \"#utility.yul\":18882:19062   */\n    tag_321:\n        /* \"#utility.yul\":18930:19007   */\n      0x4e487b7100000000000000000000000000000000000000000000000000000000\n        /* \"#utility.yul\":18927:18928   */\n      0x00\n        /* \"#utility.yul\":18920:19008   */\n      mstore\n        /* \"#utility.yul\":19027:19031   */\n      0x22\n        /* \"#utility.yul\":19024:19025   */\n      0x04\n        /* \"#utility.yul\":19017:19032   */\n      mstore\n        /* \"#utility.yul\":19051:19055   */\n      0x24\n        /* \"#utility.yul\":19048:19049   */\n      0x00\n        /* \"#utility.yul\":19041:19056   */\n      revert\n        /* \"#utility.yul\":19068:19388   */\n    tag_147:\n        /* \"#utility.yul\":19112:19118   */\n      0x00\n        /* \"#utility.yul\":19149:19150   */\n      0x02\n        /* \"#utility.yul\":19143:19147   */\n      dup3\n        /* \"#utility.yul\":19139:19151   */\n      div\n        /* \"#utility.yul\":19129:19151   */\n      swap1\n      pop\n        /* \"#utility.yul\":19196:19197   */\n      0x01\n        /* \"#utility.yul\":19190:19194   */\n      dup3\n        /* \"#utility.yul\":19186:19198   */\n      and\n        /* \"#utility.yul\":19217:19235   */\n      dup1\n        /* \"#utility.yul\":19207:19288   */\n      tag_510\n      jumpi\n        /* \"#utility.yul\":19273:19277   */\n      0x7f\n        /* \"#utility.yul\":19265:19271   */\n      dup3\n        /* \"#utility.yul\":19261:19278   */\n      and\n        /* \"#utility.yul\":19251:19278   */\n      swap2\n      pop\n        /* \"#utility.yul\":19207:19288   */\n    tag_510:\n        /* \"#utility.yul\":19335:19337   */\n      0x20\n        /* \"#utility.yul\":19327:19333   */\n      dup3\n        /* \"#utility.yul\":19324:19338   */\n      lt\n        /* \"#utility.yul\":19304:19322   */\n      dup2\n        /* \"#utility.yul\":19301:19339   */\n      sub\n        /* \"#utility.yul\":19298:19382   */\n      tag_511\n      jumpi\n        /* \"#utility.yul\":19354:19372   */\n      tag_512\n      tag_321\n      jump\t// in\n    tag_512:\n        /* \"#utility.yul\":19298:19382   */\n    tag_511:\n        /* \"#utility.yul\":19119:19388   */\n      pop\n        /* \"#utility.yul\":19068:19388   */\n      swap2\n      swap1\n      pop\n      jump\t// out\n        /* \"#utility.yul\":19394:19535   */\n    tag_322:\n        /* \"#utility.yul\":19443:19447   */\n      0x00\n        /* \"#utility.yul\":19466:19469   */\n      dup2\n        /* \"#utility.yul\":19458:19469   */\n      swap1\n      pop\n        /* \"#utility.yul\":19489:19492   */\n      dup2\n        /* \"#utility.yul\":19486:19487   */\n      0x00\n        /* \"#utility.yul\":19479:19493   */\n      mstore\n        /* \"#utility.yul\":19523:19527   */\n      0x20\n        /* \"#utility.yul\":19520:19521   */\n      0x00\n        /* \"#utility.yul\":19510:19528   */\n      keccak256\n        /* \"#utility.yul\":19502:19528   */\n      swap1\n      pop\n        /* \"#utility.yul\":19394:19535   */\n      swap2\n      swap1\n      pop\n      jump\t// out\n        /* \"#utility.yul\":19541:19634   */\n    tag_323:\n        /* \"#utility.yul\":19578:19584   */\n      0x00\n        /* \"#utility.yul\":19625:19627   */\n      0x20\n        /* \"#utility.yul\":19620:19622   */\n      0x1f\n        /* \"#utility.yul\":19613:19618   */\n      dup4\n        /* \"#utility.yul\":19609:19623   */\n      add\n        /* \"#utility.yul\":19605:19628   */\n      div\n        /* \"#utility.yul\":19595:19628   */\n      swap1\n      pop\n        /* \"#utility.yul\":19541:19634   */\n      swap2\n      swap1\n      pop\n      jump\t// out\n        /* \"#utility.yul\":19640:19747   */\n    tag_324:\n        /* \"#utility.yul\":19684:19692   */\n      0x00\n        /* \"#utility.yul\":19734:19739   */\n      dup3\n        /* \"#utility.yul\":19728:19732   */\n      dup3\n        /* \"#utility.yul\":19724:19740   */\n      shl\n        /* \"#utility.yul\":19703:19740   */\n      swap1\n      pop\n        /* \"#utility.yul\":19640:19747   */\n      swap3\n      swap2\n      pop\n      pop\n      jump\t// out\n        /* \"#utility.yul\":19753:20146   */\n    tag_325:\n        /* \"#utility.yul\":19822:19828   */\n      0x00\n        /* \"#utility.yul\":19872:19873   */\n      0x08\n        /* \"#utility.yul\":19860:19870   */\n      dup4\n        /* \"#utility.yul\":19856:19874   */\n      mul\n        /* \"#utility.yul\":19895:19992   */\n      tag_517\n        /* \"#utility.yul\":19925:19991   */\n      0xffffffffffffffffffffffffffffffffffffffffffffffffffffffffffffffff\n        /* \"#utility.yul\":19914:19923   */\n      dup3\n        /* \"#utility.yul\":19895:19992   */\n      tag_324\n      jump\t// in\n    tag_517:\n        /* \"#utility.yul\":20013:20052   */\n      tag_518\n        /* \"#utility.yul\":20043:20051   */\n      dup7\n        /* \"#utility.yul\":20032:20041   */\n      dup4\n        /* \"#utility.yul\":20013:20052   */\n      tag_324\n      jump\t// in\n    tag_518:\n        /* \"#utility.yul\":20001:20052   */\n      swap6\n      pop\n        /* \"#utility.yul\":20085:20089   */\n      dup1\n        /* \"#utility.yul\":20081:20090   */\n      not\n        /* \"#utility.yul\":20074:20079   */\n      dup5\n        /* \"#utility.yul\":20070:20091   */\n      and\n        /* \"#utility.yul\":20061:20091   */\n      swap4\n      pop\n        /* \"#utility.yul\":20134:20138   */\n      dup1\n        /* \"#utility.yul\":20124:20132   */\n      dup7\n        /* \"#utility.yul\":20120:20139   */\n      and\n        /* \"#utility.yul\":20113:20118   */\n      dup5\n        /* \"#utility.yul\":20110:20140   */\n      or\n        /* \"#utility.yul\":20100:20140   */\n      swap3\n      pop\n        /* \"#utility.yul\":19829:20146   */\n      pop\n      pop\n        /* \"#utility.yul\":19753:20146   */\n      swap4\n      swap3\n      pop\n      pop\n      pop\n      jump\t// out\n        /* \"#utility.yul\":20152:20212   */\n    tag_326:\n        /* \"#utility.yul\":20180:20183   */\n      0x00\n        /* \"#utility.yul\":20201:20206   */\n      dup2\n        /* \"#utility.yul\":20194:20206   */\n      swap1\n      pop\n        /* \"#utility.yul\":20152:20212   */\n      swap2\n      swap1\n      pop\n      jump\t// out\n        /* \"#utility.yul\":20218:20360   */\n    tag_327:\n        /* \"#utility.yul\":20268:20277   */\n      0x00\n        /* \"#utility.yul\":20301:20354   */\n      tag_521\n        /* \"#utility.yul\":20319:20353   */\n      tag_522\n        /* \"#utility.yul\":20328:20352   */\n      tag_523\n        /* \"#utility.yul\":20346:20351   */\n      dup5\n        /* \"#utility.yul\":20328:20352   */\n      tag_272\n      jump\t// in\n    tag_523:\n        /* \"#utility.yul\":20319:20353   */\n      tag_326\n      jump\t// in\n    tag_522:\n        /* \"#utility.yul\":20301:20354   */\n      tag_272\n      jump\t// in\n    tag_521:\n        /* \"#utility.yul\":20288:20354   */\n      swap1\n      pop\n        /* \"#utility.yul\":20218:20360   */\n      swap2\n      swap1\n      pop\n      jump\t// out\n        /* \"#utility.yul\":20366:20441   */\n    tag_328:\n        /* \"#utility.yul\":20409:20412   */\n      0x00\n        /* \"#utility.yul\":20430:20435   */\n      dup2\n        /* \"#utility.yul\":20423:20435   */\n      swap1\n      pop\n        /* \"#utility.yul\":20366:20441   */\n      swap2\n      swap1\n      pop\n      jump\t// out\n        /* \"#utility.yul\":20447:20716   */\n    tag_329:\n        /* \"#utility.yul\":20557:20596   */\n      tag_526\n        /* \"#utility.yul\":20588:20595   */\n      dup4\n        /* \"#utility.yul\":20557:20596   */\n      tag_327\n      jump\t// in\n    tag_526:\n        /* \"#utility.yul\":20618:20709   */\n      tag_527\n        /* \"#utility.yul\":20667:20708   */\n      tag_528\n        /* \"#utility.yul\":20691:20707   */\n      dup3\n        /* \"#utility.yul\":20667:20708   */\n      tag_328\n      jump\t// in\n    tag_528:\n        /* \"#utility.yul\":20659:20665   */\n      dup5\n        /* \"#utility.yul\":20652:20656   */\n      dup5\n        /* \"#utility.yul\":20646:20657   */\n      sload\n        /* \"#utility.yul\":20618:20709   */\n      tag_325\n      jump\t// in\n    tag_527:\n        /* \"#utility.yul\":20612:20616   */\n      dup3\n        /* \"#utility.yul\":20605:20710   */\n      sstore\n        /* \"#utility.yul\":20523:20716   */\n      pop\n        /* \"#utility.yul\":20447:20716   */\n      pop\n      pop\n      pop\n      jump\t// out\n        /* \"#utility.yul\":20722:20795   */\n    tag_330:\n        /* \"#utility.yul\":20767:20770   */\n      0x00\n        /* \"#utility.yul\":20722:20795   */\n      swap1\n      jump\t// out\n        /* \"#utility.yul\":20801:20990   */\n    tag_331:\n        /* \"#utility.yul\":20878:20910   */\n      tag_531\n      tag_330\n      jump\t// in\n    tag_531:\n        /* \"#utility.yul\":20919:20984   */\n      tag_532\n        /* \"#utility.yul\":20977:20983   */\n      dup2\n        /* \"#utility.yul\":20969:20975   */\n      dup5\n        /* \"#utility.yul\":20963:20967   */\n      dup5\n        /* \"#utility.yul\":20919:20984   */\n      tag_329\n      jump\t// in\n    tag_532:\n        /* \"#utility.yul\":20854:20990   */\n      pop\n        /* \"#utility.yul\":20801:20990   */\n      pop\n      pop\n      jump\t// out\n        /* \"#utility.yul\":20996:21182   */\n    tag_332:\n        /* \"#utility.yul\":21056:21176   */\n    tag_534:\n        /* \"#utility.yul\":21073:21076   */\n      dup2\n        /* \"#utility.yul\":21066:21071   */\n      dup2\n        /* \"#utility.yul\":21063:21077   */\n      lt\n        /* \"#utility.yul\":21056:21176   */\n      iszero\n      tag_536\n      jumpi\n        /* \"#utility.yul\":21127:21166   */\n      tag_537\n        /* \"#utility.yul\":21164:21165   */\n      0x00\n        /* \"#utility.yul\":21157:21162   */\n      dup3\n        /* \"#utility.yul\":21127:21166   */\n      tag_331\n      jump\t// in\n    tag_537:\n        /* \"#utility.yul\":21100:21101   */\n      0x01\n        /* \"#utility.yul\":21093:21098   */\n      dup2\n        /* \"#utility.yul\":21089:21102   */\n      add\n        /* \"#utility.yul\":21080:21102   */\n      swap1\n      pop\n        /* \"#utility.yul\":21056:21176   */\n      jump(tag_534)\n    tag_536:\n        /* \"#utility.yul\":20996:21182   */\n      pop\n      pop\n      jump\t// out\n        /* \"#utility.yul\":21188:21731   */\n    tag_333:\n        /* \"#utility.yul\":21289:21291   */\n      0x1f\n        /* \"#utility.yul\":21284:21287   */\n      dup3\n        /* \"#utility.yul\":21281:21292   */\n      gt\n        /* \"#utility.yul\":21278:21724   */\n      iszero\n      tag_539\n      jumpi\n        /* \"#utility.yul\":21323:21361   */\n      tag_540\n        /* \"#utility.yul\":21355:21360   */\n      dup2\n        /* \"#utility.yul\":21323:21361   */\n      tag_322\n      jump\t// in\n    tag_540:\n        /* \"#utility.yul\":21407:21436   */\n      tag_541\n        /* \"#utility.yul\":21425:21435   */\n      dup5\n        /* \"#utility.yul\":21407:21436   */\n      tag_323\n      jump\t// in\n    tag_541:\n        /* \"#utility.yul\":21397:21405   */\n      dup2\n        /* \"#utility.yul\":21393:21437   */\n      add\n        /* \"#utility.yul\":21590:21592   */\n      0x20\n        /* \"#utility.yul\":21578:21588   */\n      dup6\n        /* \"#utility.yul\":21575:21593   */\n      lt\n        /* \"#utility.yul\":21572:21621   */\n      iszero\n      tag_542\n      jumpi\n        /* \"#utility.yul\":21611:21619   */\n      dup2\n        /* \"#utility.yul\":21596:21619   */\n      swap1\n      pop\n        /* \"#utility.yul\":21572:21621   */\n    tag_542:\n        /* \"#utility.yul\":21634:21714   */\n      tag_543\n        /* \"#utility.yul\":21690:21712   */\n      tag_544\n        /* \"#utility.yul\":21708:21711   */\n      dup6\n        /* \"#utility.yul\":21690:21712   */\n      tag_323\n      jump\t// in\n    tag_544:\n        /* \"#utility.yul\":21680:21688   */\n      dup4\n        /* \"#utility.yul\":21676:21713   */\n      add\n        /* \"#utility.yul\":21663:21674   */\n      dup3\n        /* \"#utility.yul\":21634:21714   */\n      tag_332\n      jump\t// in\n    tag_543:\n        /* \"#utility.yul\":21293:21724   */\n      pop\n      pop\n        /* \"#utility.yul\":21278:21724   */\n    tag_539:\n        /* \"#utility.yul\":21188:21731   */\n      pop\n      pop\n      pop\n      jump\t// out\n        /* \"#utility.yul\":21737:21854   */\n    tag_334:\n        /* \"#utility.yul\":21791:21799   */\n      0x00\n        /* \"#utility.yul\":21841:21846   */\n      dup3\n        /* \"#utility.yul\":21835:21839   */\n      dup3\n        /* \"#utility.yul\":21831:21847   */\n      shr\n        /* \"#utility.yul\":21810:21847   */\n      swap1\n      pop\n        /* \"#utility.yul\":21737:21854   */\n      swap3\n      swap2\n      pop\n      pop\n      jump\t// out\n        /* \"#utility.yul\":21860:22029   */\n    tag_335:\n        /* \"#utility.yul\":21904:21910   */\n      0x00\n        /* \"#utility.yul\":21937:21988   */\n      tag_547\n        /* \"#utility.yul\":21985:21986   */\n      0x00\n        /* \"#utility.yul\":21981:21987   */\n      not\n        /* \"#utility.yul\":21973:21978   */\n      dup5\n        /* \"#utility.yul\":21970:21971   */\n      0x08\n        /* \"#utility.yul\":21966:21979   */\n      mul\n        /* \"#utility.yul\":21937:21988   */\n      tag_334\n      jump\t// in\n    tag_547:\n        /* \"#utility.yul\":21933:21989   */\n      not\n        /* \"#utility.yul\":22018:22022   */\n      dup1\n        /* \"#utility.yul\":22012:22016   */\n      dup4\n        /* \"#utility.yul\":22008:22023   */\n      and\n        /* \"#utility.yul\":21998:22023   */\n      swap2\n      pop\n        /* \"#utility.yul\":21911:22029   */\n      pop\n        /* \"#utility.yul\":21860:22029   */\n      swap3\n      swap2\n      pop\n      pop\n      jump\t// out\n        /* \"#utility.yul\":22034:22329   */\n    tag_336:\n        /* \"#utility.yul\":22110:22114   */\n      0x00\n        /* \"#utility.yul\":22256:22285   */\n      tag_549\n        /* \"#utility.yul\":22281:22284   */\n      dup4\n        /* \"#utility.yul\":22275:22279   */\n      dup4\n        /* \"#utility.yul\":22256:22285   */\n      tag_335\n      jump\t// in\n    tag_549:\n        /* \"#utility.yul\":22248:22285   */\n      swap2\n      pop\n        /* \"#utility.yul\":22318:22321   */\n      dup3\n        /* \"#utility.yul\":22315:22316   */\n      0x02\n        /* \"#utility.yul\":22311:22322   */\n      mul\n        /* \"#utility.yul\":22305:22309   */\n      dup3\n        /* \"#utility.yul\":22302:22323   */\n      or\n        /* \"#utility.yul\":22294:22323   */\n      swap1\n      pop\n        /* \"#utility.yul\":22034:22329   */\n      swap3\n      swap2\n      pop\n      pop\n      jump\t// out\n        /* \"#utility.yul\":22334:23729   */\n    tag_120:\n        /* \"#utility.yul\":22451:22488   */\n      tag_551\n        /* \"#utility.yul\":22484:22487   */\n      dup3\n        /* \"#utility.yul\":22451:22488   */\n      tag_282\n      jump\t// in\n    tag_551:\n        /* \"#utility.yul\":22553:22571   */\n      0xffffffffffffffff\n        /* \"#utility.yul\":22545:22551   */\n      dup2\n        /* \"#utility.yul\":22542:22572   */\n      gt\n        /* \"#utility.yul\":22539:22595   */\n      iszero\n      tag_552\n      jumpi\n        /* \"#utility.yul\":22575:22593   */\n      tag_553\n      tag_320\n      jump\t// in\n    tag_553:\n        /* \"#utility.yul\":22539:22595   */\n    tag_552:\n        /* \"#utility.yul\":22619:22657   */\n      tag_554\n        /* \"#utility.yul\":22651:22655   */\n      dup3\n        /* \"#utility.yul\":22645:22656   */\n      sload\n        /* \"#utility.yul\":22619:22657   */\n      tag_147\n      jump\t// in\n    tag_554:\n        /* \"#utility.yul\":22704:22771   */\n      tag_555\n        /* \"#utility.yul\":22764:22770   */\n      dup3\n        /* \"#utility.yul\":22756:22762   */\n      dup3\n        /* \"#utility.yul\":22750:22754   */\n      dup6\n        /* \"#utility.yul\":22704:22771   */\n      tag_333\n      jump\t// in\n    tag_555:\n        /* \"#utility.yul\":22798:22799   */\n      0x00\n        /* \"#utility.yul\":22822:22826   */\n      0x20\n        /* \"#utility.yul\":22809:22826   */\n      swap1\n      pop\n        /* \"#utility.yul\":22854:22856   */\n      0x1f\n        /* \"#utility.yul\":22846:22852   */\n      dup4\n        /* \"#utility.yul\":22843:22857   */\n      gt\n        /* \"#utility.yul\":22871:22872   */\n      0x01\n        /* \"#utility.yul\":22866:23484   */\n      dup2\n      eq\n      tag_557\n      jumpi\n        /* \"#utility.yul\":23528:23529   */\n      0x00\n        /* \"#utility.yul\":23545:23551   */\n      dup5\n        /* \"#utility.yul\":23542:23619   */\n      iszero\n      tag_558\n      jumpi\n        /* \"#utility.yul\":23594:23603   */\n      dup3\n        /* \"#utility.yul\":23589:23592   */\n      dup8\n        /* \"#utility.yul\":23585:23604   */\n      add\n        /* \"#utility.yul\":23579:23605   */\n      mload\n        /* \"#utility.yul\":23570:23605   */\n      swap1\n      pop\n        /* \"#utility.yul\":23542:23619   */\n    tag_558:\n        /* \"#utility.yul\":23645:23712   */\n      tag_559\n        /* \"#utility.yul\":23705:23711   */\n      dup6\n        /* \"#utility.yul\":23698:23703   */\n      dup3\n        /* \"#utility.yul\":23645:23712   */\n      tag_336\n      jump\t// in\n    tag_559:\n        /* \"#utility.yul\":23639:23643   */\n      dup7\n        /* \"#utility.yul\":23632:23713   */\n      sstore\n        /* \"#utility.yul\":23501:23723   */\n      pop\n        /* \"#utility.yul\":22836:23723   */\n      jump(tag_556)\n        /* \"#utility.yul\":22866:23484   */\n    tag_557:\n        /* \"#utility.yul\":22918:22922   */\n      0x1f\n        /* \"#utility.yul\":22914:22923   */\n      not\n        /* \"#utility.yul\":22906:22912   */\n      dup5\n        /* \"#utility.yul\":22902:22924   */\n      and\n        /* \"#utility.yul\":22952:22989   */\n      tag_560\n        /* \"#utility.yul\":22984:22988   */\n      dup7\n        /* \"#utility.yul\":22952:22989   */\n      tag_322\n      jump\t// in\n    tag_560:\n        /* \"#utility.yul\":23011:23012   */\n      0x00\n        /* \"#utility.yul\":23025:23233   */\n    tag_561:\n        /* \"#utility.yul\":23039:23046   */\n      dup3\n        /* \"#utility.yul\":23036:23037   */\n      dup2\n        /* \"#utility.yul\":23033:23047   */\n      lt\n        /* \"#utility.yul\":23025:23233   */\n      iszero\n      tag_563\n      jumpi\n        /* \"#utility.yul\":23118:23127   */\n      dup5\n        /* \"#utility.yul\":23113:23116   */\n      dup10\n        /* \"#utility.yul\":23109:23128   */\n      add\n        /* \"#utility.yul\":23103:23129   */\n      mload\n        /* \"#utility.yul\":23095:23101   */\n      dup3\n        /* \"#utility.yul\":23088:23130   */\n      sstore\n        /* \"#utility.yul\":23169:23170   */\n      0x01\n        /* \"#utility.yul\":23161:23167   */\n      dup3\n        /* \"#utility.yul\":23157:23171   */\n      add\n        /* \"#utility.yul\":23147:23171   */\n      swap2\n      pop\n        /* \"#utility.yul\":23216:23218   */\n      0x20\n        /* \"#utility.yul\":23205:23214   */\n      dup6\n        /* \"#utility.yul\":23201:23219   */\n      add\n        /* \"#utility.yul\":23188:23219   */\n      swap5\n      pop\n        /* \"#utility.yul\":23062:23066   */\n      0x20\n        /* \"#utility.yul\":23059:23060   */\n      dup2\n        /* \"#utility.yul\":23055:23067   */\n      add\n        /* \"#utility.yul\":23050:23067   */\n      swap1\n      pop\n        /* \"#utility.yul\":23025:23233   */\n      jump(tag_561)\n    tag_563:\n        /* \"#utility.yul\":23261:23267   */\n      dup7\n        /* \"#utility.yul\":23252:23259   */\n      dup4\n        /* \"#utility.yul\":23249:23268   */\n      lt\n        /* \"#utility.yul\":23246:23425   */\n      iszero\n      tag_564\n      jumpi\n        /* \"#utility.yul\":23319:23328   */\n      dup5\n        /* \"#utility.yul\":23314:23317   */\n      dup10\n        /* \"#utility.yul\":23310:23329   */\n      add\n        /* \"#utility.yul\":23304:23330   */\n      mload\n        /* \"#utility.yul\":23362:23410   */\n      tag_565\n        /* \"#utility.yul\":23404:23408   */\n      0x1f\n        /* \"#utility.yul\":23396:23402   */\n      dup10\n        /* \"#utility.yul\":23392:23409   */\n      and\n        /* \"#utility.yul\":23381:23390   */\n      dup3\n        /* \"#utility.yul\":23362:23410   */\n      tag_335\n      jump\t// in\n    tag_565:\n        /* \"#utility.yul\":23354:23360   */\n      dup4\n        /* \"#utility.yul\":23347:23411   */\n      sstore\n        /* \"#utility.yul\":23269:23425   */\n      pop\n        /* \"#utility.yul\":23246:23425   */\n    tag_564:\n        /* \"#utility.yul\":23471:23472   */\n      0x01\n        /* \"#utility.yul\":23467:23468   */\n      0x02\n        /* \"#utility.yul\":23459:23465   */\n      dup9\n        /* \"#utility.yul\":23455:23469   */\n      mul\n        /* \"#utility.yul\":23451:23473   */\n      add\n        /* \"#utility.yul\":23445:23449   */\n      dup9\n        /* \"#utility.yul\":23438:23474   */\n      sstore\n        /* \"#utility.yul\":22873:23484   */\n      pop\n      pop\n      pop\n        /* \"#utility.yul\":22836:23723   */\n    tag_556:\n      pop\n        /* \"#utility.yul\":22426:23729   */\n      pop\n      pop\n      pop\n        /* \"#utility.yul\":22334:23729   */\n      pop\n      pop\n      jump\t// out\n        /* \"#utility.yul\":23735:23957   */\n    tag_122:\n        /* \"#utility.yul\":23828:23832   */\n      0x00\n        /* \"#utility.yul\":23866:23868   */\n      0x20\n        /* \"#utility.yul\":23855:23864   */\n      dup3\n        /* \"#utility.yul\":23851:23869   */\n      add\n        /* \"#utility.yul\":23843:23869   */\n      swap1\n      pop\n        /* \"#utility.yul\":23879:23950   */\n      tag_567\n        /* \"#utility.yul\":23947:23948   */\n      0x00\n        /* \"#utility.yul\":23936:23945   */\n      dup4\n        /* \"#utility.yul\":23932:23949   */\n      add\n        /* \"#utility.yul\":23923:23929   */\n      dup5\n        /* \"#utility.yul\":23879:23950   */\n      tag_311\n      jump\t// in\n    tag_567:\n        /* \"#utility.yul\":23735:23957   */\n      swap3\n      swap2\n      pop\n      pop\n      jump\t// out\n        /* \"#utility.yul\":23963:24187   */\n    tag_337:\n        /* \"#utility.yul\":24103:24137   */\n      0x4974206d7573742062652074686520656e64206f662070726f706f73616c2062\n        /* \"#utility.yul\":24099:24100   */\n      0x00\n        /* \"#utility.yul\":24091:24097   */\n      dup3\n        /* \"#utility.yul\":24087:24101   */\n      add\n        /* \"#utility.yul\":24080:24138   */\n      mstore\n        /* \"#utility.yul\":24172:24179   */\n      0x65666f7265000000000000000000000000000000000000000000000000000000\n        /* \"#utility.yul\":24167:24169   */\n      0x20\n        /* \"#utility.yul\":24159:24165   */\n      dup3\n        /* \"#utility.yul\":24155:24170   */\n      add\n        /* \"#utility.yul\":24148:24180   */\n      mstore\n        /* \"#utility.yul\":23963:24187   */\n      pop\n      jump\t// out\n        /* \"#utility.yul\":24193:24559   */\n    tag_338:\n        /* \"#utility.yul\":24335:24338   */\n      0x00\n        /* \"#utility.yul\":24356:24423   */\n      tag_570\n        /* \"#utility.yul\":24420:24422   */\n      0x25\n        /* \"#utility.yul\":24415:24418   */\n      dup4\n        /* \"#utility.yul\":24356:24423   */\n      tag_301\n      jump\t// in\n    tag_570:\n        /* \"#utility.yul\":24349:24423   */\n      swap2\n      pop\n        /* \"#utility.yul\":24432:24525   */\n      tag_571\n        /* \"#utility.yul\":24521:24524   */\n      dup3\n        /* \"#utility.yul\":24432:24525   */\n      tag_337\n      jump\t// in\n    tag_571:\n        /* \"#utility.yul\":24550:24552   */\n      0x40\n        /* \"#utility.yul\":24545:24548   */\n      dup3\n        /* \"#utility.yul\":24541:24553   */\n      add\n        /* \"#utility.yul\":24534:24553   */\n      swap1\n      pop\n        /* \"#utility.yul\":24193:24559   */\n      swap2\n      swap1\n      pop\n      jump\t// out\n        /* \"#utility.yul\":24565:24984   */\n    tag_132:\n        /* \"#utility.yul\":24731:24735   */\n      0x00\n        /* \"#utility.yul\":24769:24771   */\n      0x20\n        /* \"#utility.yul\":24758:24767   */\n      dup3\n        /* \"#utility.yul\":24754:24772   */\n      add\n        /* \"#utility.yul\":24746:24772   */\n      swap1\n      pop\n        /* \"#utility.yul\":24818:24827   */\n      dup2\n        /* \"#utility.yul\":24812:24816   */\n      dup2\n        /* \"#utility.yul\":24808:24828   */\n      sub\n        /* \"#utility.yul\":24804:24805   */\n      0x00\n        /* \"#utility.yul\":24793:24802   */\n      dup4\n        /* \"#utility.yul\":24789:24806   */\n      add\n        /* \"#utility.yul\":24782:24829   */\n      mstore\n        /* \"#utility.yul\":24846:24977   */\n      tag_573\n        /* \"#utility.yul\":24972:24976   */\n      dup2\n        /* \"#utility.yul\":24846:24977   */\n      tag_338\n      jump\t// in\n    tag_573:\n        /* \"#utility.yul\":24838:24977   */\n      swap1\n      pop\n        /* \"#utility.yul\":24565:24984   */\n      swap2\n      swap1\n      pop\n      jump\t// out\n        /* \"#utility.yul\":24990:25161   */\n    tag_339:\n        /* \"#utility.yul\":25130:25153   */\n      0x5468657265206172656e27742070726f706f73616c0000000000000000000000\n        /* \"#utility.yul\":25126:25127   */\n      0x00\n        /* \"#utility.yul\":25118:25124   */\n      dup3\n        /* \"#utility.yul\":25114:25128   */\n      add\n        /* \"#utility.yul\":25107:25154   */\n      mstore\n        /* \"#utility.yul\":24990:25161   */\n      pop\n      jump\t// out\n        /* \"#utility.yul\":25167:25533   */\n    tag_340:\n        /* \"#utility.yul\":25309:25312   */\n      0x00\n        /* \"#utility.yul\":25330:25397   */\n      tag_576\n        /* \"#utility.yul\":25394:25396   */\n      0x15\n        /* \"#utility.yul\":25389:25392   */\n      dup4\n        /* \"#utility.yul\":25330:25397   */\n      tag_301\n      jump\t// in\n    tag_576:\n        /* \"#utility.yul\":25323:25397   */\n      swap2\n      pop\n        /* \"#utility.yul\":25406:25499   */\n      tag_577\n        /* \"#utility.yul\":25495:25498   */\n      dup3\n        /* \"#utility.yul\":25406:25499   */\n      tag_339\n      jump\t// in\n    tag_577:\n        /* \"#utility.yul\":25524:25526   */\n      0x20\n        /* \"#utility.yul\":25519:25522   */\n      dup3\n        /* \"#utility.yul\":25515:25527   */\n      add\n        /* \"#utility.yul\":25508:25527   */\n      swap1\n      pop\n        /* \"#utility.yul\":25167:25533   */\n      swap2\n      swap1\n      pop\n      jump\t// out\n        /* \"#utility.yul\":25539:25958   */\n    tag_142:\n        /* \"#utility.yul\":25705:25709   */\n      0x00\n        /* \"#utility.yul\":25743:25745   */\n      0x20\n        /* \"#utility.yul\":25732:25741   */\n      dup3\n        /* \"#utility.yul\":25728:25746   */\n      add\n        /* \"#utility.yul\":25720:25746   */\n      swap1\n      pop\n        /* \"#utility.yul\":25792:25801   */\n      dup2\n        /* \"#utility.yul\":25786:25790   */\n      dup2\n        /* \"#utility.yul\":25782:25802   */\n      sub\n        /* \"#utility.yul\":25778:25779   */\n      0x00\n        /* \"#utility.yul\":25767:25776   */\n      dup4\n        /* \"#utility.yul\":25763:25780   */\n      add\n        /* \"#utility.yul\":25756:25803   */\n      mstore\n        /* \"#utility.yul\":25820:25951   */\n      tag_579\n        /* \"#utility.yul\":25946:25950   */\n      dup2\n        /* \"#utility.yul\":25820:25951   */\n      tag_340\n      jump\t// in\n    tag_579:\n        /* \"#utility.yul\":25812:25951   */\n      swap1\n      pop\n        /* \"#utility.yul\":25539:25958   */\n      swap2\n      swap1\n      pop\n      jump\t// out\n        /* \"#utility.yul\":25964:26140   */\n    tag_341:\n        /* \"#utility.yul\":26104:26132   */\n      0x4974206d7573742062652074616c6c6965642073657373696f6e000000000000\n        /* \"#utility.yul\":26100:26101   */\n      0x00\n        /* \"#utility.yul\":26092:26098   */\n      dup3\n        /* \"#utility.yul\":26088:26102   */\n      add\n        /* \"#utility.yul\":26081:26133   */\n      mstore\n        /* \"#utility.yul\":25964:26140   */\n      pop\n      jump\t// out\n        /* \"#utility.yul\":26146:26512   */\n    tag_342:\n        /* \"#utility.yul\":26288:26291   */\n      0x00\n        /* \"#utility.yul\":26309:26376   */\n      tag_582\n        /* \"#utility.yul\":26373:26375   */\n      0x1a\n        /* \"#utility.yul\":26368:26371   */\n      dup4\n        /* \"#utility.yul\":26309:26376   */\n      tag_301\n      jump\t// in\n    tag_582:\n        /* \"#utility.yul\":26302:26376   */\n      swap2\n      pop\n        /* \"#utility.yul\":26385:26478   */\n      tag_583\n        /* \"#utility.yul\":26474:26477   */\n      dup3\n        /* \"#utility.yul\":26385:26478   */\n      tag_341\n      jump\t// in\n    tag_583:\n        /* \"#utility.yul\":26503:26505   */\n      0x20\n        /* \"#utility.yul\":26498:26501   */\n      dup3\n        /* \"#utility.yul\":26494:26506   */\n      add\n        /* \"#utility.yul\":26487:26506   */\n      swap1\n      pop\n        /* \"#utility.yul\":26146:26512   */\n      swap2\n      swap1\n      pop\n      jump\t// out\n        /* \"#utility.yul\":26518:26937   */\n    tag_167:\n        /* \"#utility.yul\":26684:26688   */\n      0x00\n        /* \"#utility.yul\":26722:26724   */\n      0x20\n        /* \"#utility.yul\":26711:26720   */\n      dup3\n        /* \"#utility.yul\":26707:26725   */\n      add\n        /* \"#utility.yul\":26699:26725   */\n      swap1\n      pop\n        /* \"#utility.yul\":26771:26780   */\n      dup2\n        /* \"#utility.yul\":26765:26769   */\n      dup2\n        /* \"#utility.yul\":26761:26781   */\n      sub\n        /* \"#utility.yul\":26757:26758   */\n      0x00\n        /* \"#utility.yul\":26746:26755   */\n      dup4\n        /* \"#utility.yul\":26742:26759   */\n      add\n        /* \"#utility.yul\":26735:26782   */\n      mstore\n        /* \"#utility.yul\":26799:26930   */\n      tag_585\n        /* \"#utility.yul\":26925:26929   */\n      dup2\n        /* \"#utility.yul\":26799:26930   */\n      tag_342\n      jump\t// in\n    tag_585:\n        /* \"#utility.yul\":26791:26930   */\n      swap1\n      pop\n        /* \"#utility.yul\":26518:26937   */\n      swap2\n      swap1\n      pop\n      jump\t// out\n        /* \"#utility.yul\":26943:27163   */\n    tag_343:\n        /* \"#utility.yul\":27083:27117   */\n      0x4974206d7573742062652074686520656e64206f66207468652073657373696f\n        /* \"#utility.yul\":27079:27080   */\n      0x00\n        /* \"#utility.yul\":27071:27077   */\n      dup3\n        /* \"#utility.yul\":27067:27081   */\n      add\n        /* \"#utility.yul\":27060:27118   */\n      mstore\n        /* \"#utility.yul\":27152:27155   */\n      0x6e00000000000000000000000000000000000000000000000000000000000000\n        /* \"#utility.yul\":27147:27149   */\n      0x20\n        /* \"#utility.yul\":27139:27145   */\n      dup3\n        /* \"#utility.yul\":27135:27150   */\n      add\n        /* \"#utility.yul\":27128:27156   */\n      mstore\n        /* \"#utility.yul\":26943:27163   */\n      pop\n      jump\t// out\n        /* \"#utility.yul\":27169:27535   */\n    tag_344:\n        /* \"#utility.yul\":27311:27314   */\n      0x00\n        /* \"#utility.yul\":27332:27399   */\n      tag_588\n        /* \"#utility.yul\":27396:27398   */\n      0x21\n        /* \"#utility.yul\":27391:27394   */\n      dup4\n        /* \"#utility.yul\":27332:27399   */\n      tag_301\n      jump\t// in\n    tag_588:\n        /* \"#utility.yul\":27325:27399   */\n      swap2\n      pop\n        /* \"#utility.yul\":27408:27501   */\n      tag_589\n        /* \"#utility.yul\":27497:27500   */\n      dup3\n        /* \"#utility.yul\":27408:27501   */\n      tag_343\n      jump\t// in\n    tag_589:\n        /* \"#utility.yul\":27526:27528   */\n      0x40\n        /* \"#utility.yul\":27521:27524   */\n      dup3\n        /* \"#utility.yul\":27517:27529   */\n      add\n        /* \"#utility.yul\":27510:27529   */\n      swap1\n      pop\n        /* \"#utility.yul\":27169:27535   */\n      swap2\n      swap1\n      pop\n      jump\t// out\n        /* \"#utility.yul\":27541:27960   */\n    tag_197:\n        /* \"#utility.yul\":27707:27711   */\n      0x00\n        /* \"#utility.yul\":27745:27747   */\n      0x20\n        /* \"#utility.yul\":27734:27743   */\n      dup3\n        /* \"#utility.yul\":27730:27748   */\n      add\n        /* \"#utility.yul\":27722:27748   */\n      swap1\n      pop\n        /* \"#utility.yul\":27794:27803   */\n      dup2\n        /* \"#utility.yul\":27788:27792   */\n      dup2\n        /* \"#utility.yul\":27784:27804   */\n      sub\n        /* \"#utility.yul\":27780:27781   */\n      0x00\n        /* \"#utility.yul\":27769:27778   */\n      dup4\n        /* \"#utility.yul\":27765:27782   */\n      add\n        /* \"#utility.yul\":27758:27805   */\n      mstore\n        /* \"#utility.yul\":27822:27953   */\n      tag_591\n        /* \"#utility.yul\":27948:27952   */\n      dup2\n        /* \"#utility.yul\":27822:27953   */\n      tag_344\n      jump\t// in\n    tag_591:\n        /* \"#utility.yul\":27814:27953   */\n      swap1\n      pop\n        /* \"#utility.yul\":27541:27960   */\n      swap2\n      swap1\n      pop\n      jump\t// out\n        /* \"#utility.yul\":27966:28199   */\n    tag_215:\n        /* \"#utility.yul\":28005:28008   */\n      0x00\n        /* \"#utility.yul\":28028:28052   */\n      tag_593\n        /* \"#utility.yul\":28046:28051   */\n      dup3\n        /* \"#utility.yul\":28028:28052   */\n      tag_272\n      jump\t// in\n    tag_593:\n        /* \"#utility.yul\":28019:28052   */\n      swap2\n      pop\n        /* \"#utility.yul\":28074:28140   */\n      0xffffffffffffffffffffffffffffffffffffffffffffffffffffffffffffffff\n        /* \"#utility.yul\":28067:28072   */\n      dup3\n        /* \"#utility.yul\":28064:28141   */\n      sub\n        /* \"#utility.yul\":28061:28164   */\n      tag_594\n      jumpi\n        /* \"#utility.yul\":28144:28162   */\n      tag_595\n      tag_310\n      jump\t// in\n    tag_595:\n        /* \"#utility.yul\":28061:28164   */\n    tag_594:\n        /* \"#utility.yul\":28191:28192   */\n      0x01\n        /* \"#utility.yul\":28184:28189   */\n      dup3\n        /* \"#utility.yul\":28180:28193   */\n      add\n        /* \"#utility.yul\":28173:28193   */\n      swap1\n      pop\n        /* \"#utility.yul\":27966:28199   */\n      swap2\n      swap1\n      pop\n      jump\t// out\n        /* \"#utility.yul\":28205:28379   */\n    tag_345:\n        /* \"#utility.yul\":28345:28371   */\n      0x5468697320706572736f6e206861736e277420766f7465640000000000000000\n        /* \"#utility.yul\":28341:28342   */\n      0x00\n        /* \"#utility.yul\":28333:28339   */\n      dup3\n        /* \"#utility.yul\":28329:28343   */\n      add\n        /* \"#utility.yul\":28322:28372   */\n      mstore\n        /* \"#utility.yul\":28205:28379   */\n      pop\n      jump\t// out\n        /* \"#utility.yul\":28385:28751   */\n    tag_346:\n        /* \"#utility.yul\":28527:28530   */\n      0x00\n        /* \"#utility.yul\":28548:28615   */\n      tag_598\n        /* \"#utility.yul\":28612:28614   */\n      0x18\n        /* \"#utility.yul\":28607:28610   */\n      dup4\n        /* \"#utility.yul\":28548:28615   */\n      tag_301\n      jump\t// in\n    tag_598:\n        /* \"#utility.yul\":28541:28615   */\n      swap2\n      pop\n        /* \"#utility.yul\":28624:28717   */\n      tag_599\n        /* \"#utility.yul\":28713:28716   */\n      dup3\n        /* \"#utility.yul\":28624:28717   */\n      tag_345\n      jump\t// in\n    tag_599:\n        /* \"#utility.yul\":28742:28744   */\n      0x20\n        /* \"#utility.yul\":28737:28740   */\n      dup3\n        /* \"#utility.yul\":28733:28745   */\n      add\n        /* \"#utility.yul\":28726:28745   */\n      swap1\n      pop\n        /* \"#utility.yul\":28385:28751   */\n      swap2\n      swap1\n      pop\n      jump\t// out\n        /* \"#utility.yul\":28757:29176   */\n    tag_227:\n        /* \"#utility.yul\":28923:28927   */\n      0x00\n        /* \"#utility.yul\":28961:28963   */\n      0x20\n        /* \"#utility.yul\":28950:28959   */\n      dup3\n        /* \"#utility.yul\":28946:28964   */\n      add\n        /* \"#utility.yul\":28938:28964   */\n      swap1\n      pop\n        /* \"#utility.yul\":29010:29019   */\n      dup2\n        /* \"#utility.yul\":29004:29008   */\n      dup2\n        /* \"#utility.yul\":29000:29020   */\n      sub\n        /* \"#utility.yul\":28996:28997   */\n      0x00\n        /* \"#utility.yul\":28985:28994   */\n      dup4\n        /* \"#utility.yul\":28981:28998   */\n      add\n        /* \"#utility.yul\":28974:29021   */\n      mstore\n        /* \"#utility.yul\":29038:29169   */\n      tag_601\n        /* \"#utility.yul\":29164:29168   */\n      dup2\n        /* \"#utility.yul\":29038:29169   */\n      tag_346\n      jump\t// in\n    tag_601:\n        /* \"#utility.yul\":29030:29169   */\n      swap1\n      pop\n        /* \"#utility.yul\":28757:29176   */\n      swap2\n      swap1\n      pop\n      jump\t// out\n        /* \"#utility.yul\":29182:29360   */\n    tag_347:\n        /* \"#utility.yul\":29322:29352   */\n      0x4974206d757374206265207265676973746572696e6720766f74657200000000\n        /* \"#utility.yul\":29318:29319   */\n      0x00\n        /* \"#utility.yul\":29310:29316   */\n      dup3\n        /* \"#utility.yul\":29306:29320   */\n      add\n        /* \"#utility.yul\":29299:29353   */\n      mstore\n        /* \"#utility.yul\":29182:29360   */\n      pop\n      jump\t// out\n        /* \"#utility.yul\":29366:29732   */\n    tag_348:\n        /* \"#utility.yul\":29508:29511   */\n      0x00\n        /* \"#utility.yul\":29529:29596   */\n      tag_604\n        /* \"#utility.yul\":29593:29595   */\n      0x1c\n        /* \"#utility.yul\":29588:29591   */\n      dup4\n        /* \"#utility.yul\":29529:29596   */\n      tag_301\n      jump\t// in\n    tag_604:\n        /* \"#utility.yul\":29522:29596   */\n      swap2\n      pop\n        /* \"#utility.yul\":29605:29698   */\n      tag_605\n        /* \"#utility.yul\":29694:29697   */\n      dup3\n        /* \"#utility.yul\":29605:29698   */\n      tag_347\n      jump\t// in\n    tag_605:\n        /* \"#utility.yul\":29723:29725   */\n      0x20\n        /* \"#utility.yul\":29718:29721   */\n      dup3\n        /* \"#utility.yul\":29714:29726   */\n      add\n        /* \"#utility.yul\":29707:29726   */\n      swap1\n      pop\n        /* \"#utility.yul\":29366:29732   */\n      swap2\n      swap1\n      pop\n      jump\t// out\n        /* \"#utility.yul\":29738:30157   */\n    tag_255:\n        /* \"#utility.yul\":29904:29908   */\n      0x00\n        /* \"#utility.yul\":29942:29944   */\n      0x20\n        /* \"#utility.yul\":29931:29940   */\n      dup3\n        /* \"#utility.yul\":29927:29945   */\n      add\n        /* \"#utility.yul\":29919:29945   */\n      swap1\n      pop\n        /* \"#utility.yul\":29991:30000   */\n      dup2\n        /* \"#utility.yul\":29985:29989   */\n      dup2\n        /* \"#utility.yul\":29981:30001   */\n      sub\n        /* \"#utility.yul\":29977:29978   */\n      0x00\n        /* \"#utility.yul\":29966:29975   */\n      dup4\n        /* \"#utility.yul\":29962:29979   */\n      add\n        /* \"#utility.yul\":29955:30002   */\n      mstore\n        /* \"#utility.yul\":30019:30150   */\n      tag_607\n        /* \"#utility.yul\":30145:30149   */\n      dup2\n        /* \"#utility.yul\":30019:30150   */\n      tag_348\n      jump\t// in\n    tag_607:\n        /* \"#utility.yul\":30011:30150   */\n      swap1\n      pop\n        /* \"#utility.yul\":29738:30157   */\n      swap2\n      swap1\n      pop\n      jump\t// out\n        /* \"#utility.yul\":30163:30384   */\n    tag_349:\n        /* \"#utility.yul\":30303:30337   */\n      0x54686973206164647265737320697320616c7265616479207265676973746572\n        /* \"#utility.yul\":30299:30300   */\n      0x00\n        /* \"#utility.yul\":30291:30297   */\n      dup3\n        /* \"#utility.yul\":30287:30301   */\n      add\n        /* \"#utility.yul\":30280:30338   */\n      mstore\n        /* \"#utility.yul\":30372:30376   */\n      0x6564000000000000000000000000000000000000000000000000000000000000\n        /* \"#utility.yul\":30367:30369   */\n      0x20\n        /* \"#utility.yul\":30359:30365   */\n      dup3\n        /* \"#utility.yul\":30355:30370   */\n      add\n        /* \"#utility.yul\":30348:30377   */\n      mstore\n        /* \"#utility.yul\":30163:30384   */\n      pop\n      jump\t// out\n        /* \"#utility.yul\":30390:30756   */\n    tag_350:\n        /* \"#utility.yul\":30532:30535   */\n      0x00\n        /* \"#utility.yul\":30553:30620   */\n      tag_610\n        /* \"#utility.yul\":30617:30619   */\n      0x22\n        /* \"#utility.yul\":30612:30615   */\n      dup4\n        /* \"#utility.yul\":30553:30620   */\n      tag_301\n      jump\t// in\n    tag_610:\n        /* \"#utility.yul\":30546:30620   */\n      swap2\n      pop\n        /* \"#utility.yul\":30629:30722   */\n      tag_611\n        /* \"#utility.yul\":30718:30721   */\n      dup3\n        /* \"#utility.yul\":30629:30722   */\n      tag_349\n      jump\t// in\n    tag_611:\n        /* \"#utility.yul\":30747:30749   */\n      0x40\n        /* \"#utility.yul\":30742:30745   */\n      dup3\n        /* \"#utility.yul\":30738:30750   */\n      add\n        /* \"#utility.yul\":30731:30750   */\n      swap1\n      pop\n        /* \"#utility.yul\":30390:30756   */\n      swap2\n      swap1\n      pop\n      jump\t// out\n        /* \"#utility.yul\":30762:31181   */\n    tag_258:\n        /* \"#utility.yul\":30928:30932   */\n      0x00\n        /* \"#utility.yul\":30966:30968   */\n      0x20\n        /* \"#utility.yul\":30955:30964   */\n      dup3\n        /* \"#utility.yul\":30951:30969   */\n      add\n        /* \"#utility.yul\":30943:30969   */\n      swap1\n      pop\n        /* \"#utility.yul\":31015:31024   */\n      dup2\n        /* \"#utility.yul\":31009:31013   */\n      dup2\n        /* \"#utility.yul\":31005:31025   */\n      sub\n        /* \"#utility.yul\":31001:31002   */\n      0x00\n        /* \"#utility.yul\":30990:30999   */\n      dup4\n        /* \"#utility.yul\":30986:31003   */\n      add\n        /* \"#utility.yul\":30979:31026   */\n      mstore\n        /* \"#utility.yul\":31043:31174   */\n      tag_613\n        /* \"#utility.yul\":31169:31173   */\n      dup2\n        /* \"#utility.yul\":31043:31174   */\n      tag_350\n      jump\t// in\n    tag_613:\n        /* \"#utility.yul\":31035:31174   */\n      swap1\n      pop\n        /* \"#utility.yul\":30762:31181   */\n      swap2\n      swap1\n      pop\n      jump\t// out\n\n    auxdata: 0xa2646970667358221220e0e802c2cdec0d91589df405acc86f9cb1d9b2b0e30d06da22ad933027e82f5664736f6c63430008140033\n}\n",
				"bytecode": {
					"linkReferences": {},
					"object": "608060405234801562000010575f80fd5b50335f73ffffffffffffffffffffffffffffffffffffffff168173ffffffffffffffffffffffffffffffffffffffff160362000085575f6040517f1e4fbdf70000000000000000000000000000000000000000000000000000000081526004016200007c9190620001a1565b60405180910390fd5b62000096816200009d60201b60201c565b50620001bc565b5f805f9054906101000a900473ffffffffffffffffffffffffffffffffffffffff169050815f806101000a81548173ffffffffffffffffffffffffffffffffffffffff021916908373ffffffffffffffffffffffffffffffffffffffff1602179055508173ffffffffffffffffffffffffffffffffffffffff168173ffffffffffffffffffffffffffffffffffffffff167f8be0079c531659141344cd1fd0a4f28419497f9722a3daafe3b4186f6b6457e060405160405180910390a35050565b5f73ffffffffffffffffffffffffffffffffffffffff82169050919050565b5f62000189826200015e565b9050919050565b6200019b816200017d565b82525050565b5f602082019050620001b65f83018462000190565b92915050565b6124d180620001ca5f395ff3fe608060405234801561000f575f80fd5b50600436106100e8575f3560e01c80638e7ea5b21161008a578063a587f07711610064578063a587f077146101b0578063b9223946146101e0578063f2fde38b146101ea578063f4ab9adf14610206576100e8565b80638e7ea5b21461017e57806398f6560b1461019c5780639c6a46c4146101a6576100e8565b80634c0a6af0116100c65780634c0a6af01461012e57806362564c4814610138578063715018a6146101565780638da5cb5b14610160576100e8565b80630121b93f146100ec578063274da81f146101085780632fdae3c514610112575b5f80fd5b610106600480360381019061010191906115f9565b610222565b005b61011061051a565b005b61012c60048036038101906101279190611685565b610609565b005b6101366107e9565b005b6101406108d9565b60405161014d919061185e565b60405180910390f35b61015e610aa0565b005b610168610ab3565b60405161017591906118bd565b60405180910390f35b610186610ada565b6040516101939190611910565b60405180910390f35b6101a4610c21565b005b6101ae610d12565b005b6101ca60048036038101906101c5919061195a565b610f2c565b6040516101d791906119df565b60405180910390f35b6101e86110d7565b005b61020460048036038101906101ff919061195a565b6111c8565b005b610220600480360381019061021b919061195a565b61124c565b005b60015f3373ffffffffffffffffffffffffffffffffffffffff1673ffffffffffffffffffffffffffffffffffffffff1681526020019081526020015f205f015f9054906101000a900460ff166102ad576040517f08c379a00000000000000000000000000000000000000000000000000000000081526004016102a490611a52565b60405180910390fd5b600360058111156102c1576102c0611a70565b5b60035f9054906101000a900460ff1660058111156102e2576102e1611a70565b5b14610322576040517f08c379a000000000000000000000000000000000000000000000000000000000815260040161031990611ae7565b60405180910390fd5b60015f3373ffffffffffffffffffffffffffffffffffffffff1673ffffffffffffffffffffffffffffffffffffffff1681526020019081526020015f205f0160019054906101000a900460ff16156103af576040517f08c379a00000000000000000000000000000000000000000000000000000000081526004016103a690611b4f565b60405180910390fd5b5f600280549050141580156103c957506002805490508111155b610408576040517f08c379a00000000000000000000000000000000000000000000000000000000081526004016103ff90611bb7565b60405180910390fd5b6001805f3373ffffffffffffffffffffffffffffffffffffffff1673ffffffffffffffffffffffffffffffffffffffff1681526020019081526020015f205f0160016101000a81548160ff0219169083151502179055508060015f3373ffffffffffffffffffffffffffffffffffffffff1673ffffffffffffffffffffffffffffffffffffffff1681526020019081526020015f20600101819055506001600282815481106104ba576104b9611bd5565b5b905f5260205f2090600202016001015f8282546104d79190611c2f565b925050819055507f4d99b957a2bc29a30ebd96a7be8e68fe50a3c701db28a91436490b7d53870ca4338260405161050f929190611c71565b60405180910390a150565b610522611434565b5f600581111561053557610534611a70565b5b60035f9054906101000a900460ff16600581111561055657610555611a70565b5b14610596576040517f08c379a000000000000000000000000000000000000000000000000000000000815260040161058d90611d08565b60405180910390fd5b600160035f6101000a81548160ff021916908360058111156105bb576105ba611a70565b5b02179055507f0a97a4ee45751e2abf3e4fc8946939630b11b371ea8ae39ccdc3056e98f5cc3f5f60035f9054906101000a900460ff166040516105ff929190611d6c565b60405180910390a1565b60015f3373ffffffffffffffffffffffffffffffffffffffff1673ffffffffffffffffffffffffffffffffffffffff1681526020019081526020015f205f015f9054906101000a900460ff16610694576040517f08c379a000000000000000000000000000000000000000000000000000000000815260040161068b90611a52565b60405180910390fd5b600160058111156106a8576106a7611a70565b5b60035f9054906101000a900460ff1660058111156106c9576106c8611a70565b5b14610709576040517f08c379a000000000000000000000000000000000000000000000000000000000815260040161070090611ddd565b60405180910390fd5b6002604051806040016040528084848080601f0160208091040260200160405190810160405280939291908181526020018383808284375f81840152601f19601f8201169050808301925050505050505081526020015f815250908060018154018082558091505060019003905f5260205f2090600202015f909190919091505f820151815f01908161079c9190612022565b506020820151816001015550507f92e393e9b54e2f801d3ea4beb0c5e71a21cc34a5d34b77d0fb8a3aa1650dc18f6002805490506040516107dd91906120f1565b60405180910390a15050565b6107f1611434565b6002600581111561080557610804611a70565b5b60035f9054906101000a900460ff16600581111561082657610825611a70565b5b14610866576040517f08c379a000000000000000000000000000000000000000000000000000000000815260040161085d9061217a565b60405180910390fd5b6003805f6101000a81548160ff0219169083600581111561088a57610889611a70565b5b02179055507f0a97a4ee45751e2abf3e4fc8946939630b11b371ea8ae39ccdc3056e98f5cc3f600260035f9054906101000a900460ff166040516108cf929190611d6c565b60405180910390a1565b606060015f3373ffffffffffffffffffffffffffffffffffffffff1673ffffffffffffffffffffffffffffffffffffffff1681526020019081526020015f205f015f9054906101000a900460ff16610966576040517f08c379a000000000000000000000000000000000000000000000000000000000815260040161095d90611a52565b60405180910390fd5b5f600280549050036109ad576040517f08c379a00000000000000000000000000000000000000000000000000000000081526004016109a4906121e2565b60405180910390fd5b6002805480602002602001604051908101604052809291908181526020015f905b82821015610a97578382905f5260205f2090600202016040518060400160405290815f820180546109fe90611e55565b80601f0160208091040260200160405190810160405280929190818152602001828054610a2a90611e55565b8015610a755780601f10610a4c57610100808354040283529160200191610a75565b820191905f5260205f20905b815481529060010190602001808311610a5857829003601f168201915b50505050508152602001600182015481525050815260200190600101906109ce565b50505050905090565b610aa8611434565b610ab15f6114bb565b565b5f805f9054906101000a900473ffffffffffffffffffffffffffffffffffffffff16905090565b610ae2611583565b600580811115610af557610af4611a70565b5b60035f9054906101000a900460ff166005811115610b1657610b15611a70565b5b14610b56576040517f08c379a0000000000000000000000000000000000000000000000000000000008152600401610b4d9061224a565b60405180910390fd5b600260045481548110610b6c57610b6b611bd5565b5b905f5260205f2090600202016040518060400160405290815f82018054610b9290611e55565b80601f0160208091040260200160405190810160405280929190818152602001828054610bbe90611e55565b8015610c095780601f10610be057610100808354040283529160200191610c09565b820191905f5260205f20905b815481529060010190602001808311610bec57829003601f168201915b50505050508152602001600182015481525050905090565b610c29611434565b60016005811115610c3d57610c3c611a70565b5b60035f9054906101000a900460ff166005811115610c5e57610c5d611a70565b5b14610c9e576040517f08c379a0000000000000000000000000000000000000000000000000000000008152600401610c9590611ddd565b60405180910390fd5b600260035f6101000a81548160ff02191690836005811115610cc357610cc2611a70565b5b02179055507f0a97a4ee45751e2abf3e4fc8946939630b11b371ea8ae39ccdc3056e98f5cc3f600160035f9054906101000a900460ff16604051610d08929190611d6c565b60405180910390a1565b610d1a611434565b60046005811115610d2e57610d2d611a70565b5b60035f9054906101000a900460ff166005811115610d4f57610d4e611a70565b5b14610d8f576040517f08c379a0000000000000000000000000000000000000000000000000000000008152600401610d86906122d8565b60405180910390fd5b610d97611583565b5f5b600280549050811015610eb65760028181548110610dba57610db9611bd5565b5b905f5260205f2090600202016001015482602001511015610ea35760028181548110610de957610de8611bd5565b5b905f5260205f2090600202016040518060400160405290815f82018054610e0f90611e55565b80601f0160208091040260200160405190810160405280929190818152602001828054610e3b90611e55565b8015610e865780601f10610e5d57610100808354040283529160200191610e86565b820191905f5260205f20905b815481529060010190602001808311610e6957829003601f168201915b505050505081526020016001820154815250509150806004819055505b8080610eae906122f6565b915050610d99565b50600560035f6101000a81548160ff02191690836005811115610edc57610edb611a70565b5b02179055507f0a97a4ee45751e2abf3e4fc8946939630b11b371ea8ae39ccdc3056e98f5cc3f600460035f9054906101000a900460ff16604051610f21929190611d6c565b60405180910390a150565b610f3461159c565b60015f3373ffffffffffffffffffffffffffffffffffffffff1673ffffffffffffffffffffffffffffffffffffffff1681526020019081526020015f205f015f9054906101000a900460ff16610fbf576040517f08c379a0000000000000000000000000000000000000000000000000000000008152600401610fb690611a52565b60405180910390fd5b60015f3373ffffffffffffffffffffffffffffffffffffffff1673ffffffffffffffffffffffffffffffffffffffff1681526020019081526020015f205f0160019054906101000a900460ff1661104b576040517f08c379a000000000000000000000000000000000000000000000000000000000815260040161104290612387565b60405180910390fd5b60015f8373ffffffffffffffffffffffffffffffffffffffff1673ffffffffffffffffffffffffffffffffffffffff1681526020019081526020015f206040518060600160405290815f82015f9054906101000a900460ff161515151581526020015f820160019054906101000a900460ff161515151581526020016001820154815250509050919050565b6110df611434565b600360058111156110f3576110f2611a70565b5b60035f9054906101000a900460ff16600581111561111457611113611a70565b5b14611154576040517f08c379a000000000000000000000000000000000000000000000000000000000815260040161114b90611ae7565b60405180910390fd5b600460035f6101000a81548160ff0219169083600581111561117957611178611a70565b5b02179055507f0a97a4ee45751e2abf3e4fc8946939630b11b371ea8ae39ccdc3056e98f5cc3f600460035f9054906101000a900460ff166040516111be929190611d6c565b60405180910390a1565b6111d0611434565b5f73ffffffffffffffffffffffffffffffffffffffff168173ffffffffffffffffffffffffffffffffffffffff1603611240575f6040517f1e4fbdf700000000000000000000000000000000000000000000000000000000815260040161123791906118bd565b60405180910390fd5b611249816114bb565b50565b611254611434565b5f600581111561126757611266611a70565b5b60035f9054906101000a900460ff16600581111561128857611287611a70565b5b146112c8576040517f08c379a00000000000000000000000000000000000000000000000000000000081526004016112bf906123ef565b60405180910390fd5b60015f8273ffffffffffffffffffffffffffffffffffffffff1673ffffffffffffffffffffffffffffffffffffffff1681526020019081526020015f205f015f9054906101000a900460ff1615611354576040517f08c379a000000000000000000000000000000000000000000000000000000000815260040161134b9061247d565b60405180910390fd5b60405180606001604052806001151581526020015f151581526020015f81525060015f8373ffffffffffffffffffffffffffffffffffffffff1673ffffffffffffffffffffffffffffffffffffffff1681526020019081526020015f205f820151815f015f6101000a81548160ff0219169083151502179055506020820151815f0160016101000a81548160ff021916908315150217905550604082015181600101559050507fb6be2187d059cc2a55fe29e0e503b566e1e0f8c8780096e185429350acffd3dd8160405161142991906118bd565b60405180910390a150565b61143c61157c565b73ffffffffffffffffffffffffffffffffffffffff1661145a610ab3565b73ffffffffffffffffffffffffffffffffffffffff16146114b95761147d61157c565b6040517f118cdaa70000000000000000000000000000000000000000000000000000000081526004016114b091906118bd565b60405180910390fd5b565b5f805f9054906101000a900473ffffffffffffffffffffffffffffffffffffffff169050815f806101000a81548173ffffffffffffffffffffffffffffffffffffffff021916908373ffffffffffffffffffffffffffffffffffffffff1602179055508173ffffffffffffffffffffffffffffffffffffffff168173ffffffffffffffffffffffffffffffffffffffff167f8be0079c531659141344cd1fd0a4f28419497f9722a3daafe3b4186f6b6457e060405160405180910390a35050565b5f33905090565b6040518060400160405280606081526020015f81525090565b60405180606001604052805f151581526020015f151581526020015f81525090565b5f80fd5b5f80fd5b5f819050919050565b6115d8816115c6565b81146115e2575f80fd5b50565b5f813590506115f3816115cf565b92915050565b5f6020828403121561160e5761160d6115be565b5b5f61161b848285016115e5565b91505092915050565b5f80fd5b5f80fd5b5f80fd5b5f8083601f84011261164557611644611624565b5b8235905067ffffffffffffffff81111561166257611661611628565b5b60208301915083600182028301111561167e5761167d61162c565b5b9250929050565b5f806020838503121561169b5761169a6115be565b5b5f83013567ffffffffffffffff8111156116b8576116b76115c2565b5b6116c485828601611630565b92509250509250929050565b5f81519050919050565b5f82825260208201905092915050565b5f819050602082019050919050565b5f81519050919050565b5f82825260208201905092915050565b5f5b83811015611730578082015181840152602081019050611715565b5f8484015250505050565b5f601f19601f8301169050919050565b5f611755826116f9565b61175f8185611703565b935061176f818560208601611713565b6117788161173b565b840191505092915050565b61178c816115c6565b82525050565b5f604083015f8301518482035f8601526117ac828261174b565b91505060208301516117c16020860182611783565b508091505092915050565b5f6117d78383611792565b905092915050565b5f602082019050919050565b5f6117f5826116d0565b6117ff81856116da565b935083602082028501611811856116ea565b805f5b8581101561184c578484038952815161182d85826117cc565b9450611838836117df565b925060208a01995050600181019050611814565b50829750879550505050505092915050565b5f6020820190508181035f83015261187681846117eb565b905092915050565b5f73ffffffffffffffffffffffffffffffffffffffff82169050919050565b5f6118a78261187e565b9050919050565b6118b78161189d565b82525050565b5f6020820190506118d05f8301846118ae565b92915050565b5f604083015f8301518482035f8601526118f0828261174b565b91505060208301516119056020860182611783565b508091505092915050565b5f6020820190508181035f83015261192881846118d6565b905092915050565b6119398161189d565b8114611943575f80fd5b50565b5f8135905061195481611930565b92915050565b5f6020828403121561196f5761196e6115be565b5b5f61197c84828501611946565b91505092915050565b5f8115159050919050565b61199981611985565b82525050565b606082015f8201516119b35f850182611990565b5060208201516119c66020850182611990565b5060408201516119d96040850182611783565b50505050565b5f6060820190506119f25f83018461199f565b92915050565b5f82825260208201905092915050565b7f596f757220617265206e6f74207265676973746572656420696e206c697374005f82015250565b5f611a3c601f836119f8565b9150611a4782611a08565b602082019050919050565b5f6020820190508181035f830152611a6981611a30565b9050919050565b7f4e487b71000000000000000000000000000000000000000000000000000000005f52602160045260245ffd5b7f4974206d75737420626520766f74696e672073657373696f6e000000000000005f82015250565b5f611ad16019836119f8565b9150611adc82611a9d565b602082019050919050565b5f6020820190508181035f830152611afe81611ac5565b9050919050565b7f596f75206861766520616c726561647920766f746564000000000000000000005f82015250565b5f611b396016836119f8565b9150611b4482611b05565b602082019050919050565b5f6020820190508181035f830152611b6681611b2d565b9050919050565b7f546869732070726f706f73616c20646f65736e277420657869737400000000005f82015250565b5f611ba1601b836119f8565b9150611bac82611b6d565b602082019050919050565b5f6020820190508181035f830152611bce81611b95565b9050919050565b7f4e487b71000000000000000000000000000000000000000000000000000000005f52603260045260245ffd5b7f4e487b71000000000000000000000000000000000000000000000000000000005f52601160045260245ffd5b5f611c39826115c6565b9150611c44836115c6565b9250828201905080821115611c5c57611c5b611c02565b5b92915050565b611c6b816115c6565b82525050565b5f604082019050611c845f8301856118ae565b611c916020830184611c62565b9392505050565b7f4974206d757374206265207265676973746572696e6720766f746572206265665f8201527f6f72650000000000000000000000000000000000000000000000000000000000602082015250565b5f611cf26023836119f8565b9150611cfd82611c98565b604082019050919050565b5f6020820190508181035f830152611d1f81611ce6565b9050919050565b60068110611d3757611d36611a70565b5b50565b5f819050611d4782611d26565b919050565b5f611d5682611d3a565b9050919050565b611d6681611d4c565b82525050565b5f604082019050611d7f5f830185611d5d565b611d8c6020830184611d5d565b9392505050565b7f4974206d7573742062652070726f706f73616c2073657373696f6e00000000005f82015250565b5f611dc7601b836119f8565b9150611dd282611d93565b602082019050919050565b5f6020820190508181035f830152611df481611dbb565b9050919050565b7f4e487b71000000000000000000000000000000000000000000000000000000005f52604160045260245ffd5b7f4e487b71000000000000000000000000000000000000000000000000000000005f52602260045260245ffd5b5f6002820490506001821680611e6c57607f821691505b602082108103611e7f57611e7e611e28565b5b50919050565b5f819050815f5260205f209050919050565b5f6020601f8301049050919050565b5f82821b905092915050565b5f60088302611ee17fffffffffffffffffffffffffffffffffffffffffffffffffffffffffffffffff82611ea6565b611eeb8683611ea6565b95508019841693508086168417925050509392505050565b5f819050919050565b5f611f26611f21611f1c846115c6565b611f03565b6115c6565b9050919050565b5f819050919050565b611f3f83611f0c565b611f53611f4b82611f2d565b848454611eb2565b825550505050565b5f90565b611f67611f5b565b611f72818484611f36565b505050565b5b81811015611f9557611f8a5f82611f5f565b600181019050611f78565b5050565b601f821115611fda57611fab81611e85565b611fb484611e97565b81016020851015611fc3578190505b611fd7611fcf85611e97565b830182611f77565b50505b505050565b5f82821c905092915050565b5f611ffa5f1984600802611fdf565b1980831691505092915050565b5f6120128383611feb565b9150826002028217905092915050565b61202b826116f9565b67ffffffffffffffff81111561204457612043611dfb565b5b61204e8254611e55565b612059828285611f99565b5f60209050601f83116001811461208a575f8415612078578287015190505b6120828582612007565b8655506120e9565b601f19841661209886611e85565b5f5b828110156120bf5784890151825560018201915060208501945060208101905061209a565b868310156120dc57848901516120d8601f891682611feb565b8355505b6001600288020188555050505b505050505050565b5f6020820190506121045f830184611c62565b92915050565b7f4974206d7573742062652074686520656e64206f662070726f706f73616c20625f8201527f65666f7265000000000000000000000000000000000000000000000000000000602082015250565b5f6121646025836119f8565b915061216f8261210a565b604082019050919050565b5f6020820190508181035f83015261219181612158565b9050919050565b7f5468657265206172656e27742070726f706f73616c00000000000000000000005f82015250565b5f6121cc6015836119f8565b91506121d782612198565b602082019050919050565b5f6020820190508181035f8301526121f9816121c0565b9050919050565b7f4974206d7573742062652074616c6c6965642073657373696f6e0000000000005f82015250565b5f612234601a836119f8565b915061223f82612200565b602082019050919050565b5f6020820190508181035f83015261226181612228565b9050919050565b7f4974206d7573742062652074686520656e64206f66207468652073657373696f5f8201527f6e00000000000000000000000000000000000000000000000000000000000000602082015250565b5f6122c26021836119f8565b91506122cd82612268565b604082019050919050565b5f6020820190508181035f8301526122ef816122b6565b9050919050565b5f612300826115c6565b91507fffffffffffffffffffffffffffffffffffffffffffffffffffffffffffffffff820361233257612331611c02565b5b600182019050919050565b7f5468697320706572736f6e206861736e277420766f74656400000000000000005f82015250565b5f6123716018836119f8565b915061237c8261233d565b602082019050919050565b5f6020820190508181035f83015261239e81612365565b9050919050565b7f4974206d757374206265207265676973746572696e6720766f746572000000005f82015250565b5f6123d9601c836119f8565b91506123e4826123a5565b602082019050919050565b5f6020820190508181035f830152612406816123cd565b9050919050565b7f54686973206164647265737320697320616c72656164792072656769737465725f8201527f6564000000000000000000000000000000000000000000000000000000000000602082015250565b5f6124676022836119f8565b91506124728261240d565b604082019050919050565b5f6020820190508181035f8301526124948161245b565b905091905056fea2646970667358221220e0e802c2cdec0d91589df405acc86f9cb1d9b2b0e30d06da22ad933027e82f5664736f6c63430008140033",
					"opcodes": "PUSH1 0x80 PUSH1 0x40 MSTORE CALLVALUE DUP1 ISZERO PUSH3 0x10 JUMPI PUSH0 DUP1 REVERT JUMPDEST POP CALLER PUSH0 PUSH20 0xFFFFFFFFFFFFFFFFFFFFFFFFFFFFFFFFFFFFFFFF AND DUP2 PUSH20 0xFFFFFFFFFFFFFFFFFFFFFFFFFFFFFFFFFFFFFFFF AND SUB PUSH3 0x85 JUMPI PUSH0 PUSH1 0x40 MLOAD PUSH32 0x1E4FBDF700000000000000000000000000000000000000000000000000000000 DUP2 MSTORE PUSH1 0x4 ADD PUSH3 0x7C SWAP2 SWAP1 PUSH3 0x1A1 JUMP JUMPDEST PUSH1 0x40 MLOAD DUP1 SWAP2 SUB SWAP1 REVERT JUMPDEST PUSH3 0x96 DUP2 PUSH3 0x9D PUSH1 0x20 SHL PUSH1 0x20 SHR JUMP JUMPDEST POP PUSH3 0x1BC JUMP JUMPDEST PUSH0 DUP1 PUSH0 SWAP1 SLOAD SWAP1 PUSH2 0x100 EXP SWAP1 DIV PUSH20 0xFFFFFFFFFFFFFFFFFFFFFFFFFFFFFFFFFFFFFFFF AND SWAP1 POP DUP2 PUSH0 DUP1 PUSH2 0x100 EXP DUP2 SLOAD DUP2 PUSH20 0xFFFFFFFFFFFFFFFFFFFFFFFFFFFFFFFFFFFFFFFF MUL NOT AND SWAP1 DUP4 PUSH20 0xFFFFFFFFFFFFFFFFFFFFFFFFFFFFFFFFFFFFFFFF AND MUL OR SWAP1 SSTORE POP DUP2 PUSH20 0xFFFFFFFFFFFFFFFFFFFFFFFFFFFFFFFFFFFFFFFF AND DUP2 PUSH20 0xFFFFFFFFFFFFFFFFFFFFFFFFFFFFFFFFFFFFFFFF AND PUSH32 0x8BE0079C531659141344CD1FD0A4F28419497F9722A3DAAFE3B4186F6B6457E0 PUSH1 0x40 MLOAD PUSH1 0x40 MLOAD DUP1 SWAP2 SUB SWAP1 LOG3 POP POP JUMP JUMPDEST PUSH0 PUSH20 0xFFFFFFFFFFFFFFFFFFFFFFFFFFFFFFFFFFFFFFFF DUP3 AND SWAP1 POP SWAP2 SWAP1 POP JUMP JUMPDEST PUSH0 PUSH3 0x189 DUP3 PUSH3 0x15E JUMP JUMPDEST SWAP1 POP SWAP2 SWAP1 POP JUMP JUMPDEST PUSH3 0x19B DUP2 PUSH3 0x17D JUMP JUMPDEST DUP3 MSTORE POP POP JUMP JUMPDEST PUSH0 PUSH1 0x20 DUP3 ADD SWAP1 POP PUSH3 0x1B6 PUSH0 DUP4 ADD DUP5 PUSH3 0x190 JUMP JUMPDEST SWAP3 SWAP2 POP POP JUMP JUMPDEST PUSH2 0x24D1 DUP1 PUSH3 0x1CA PUSH0 CODECOPY PUSH0 RETURN INVALID PUSH1 0x80 PUSH1 0x40 MSTORE CALLVALUE DUP1 ISZERO PUSH2 0xF JUMPI PUSH0 DUP1 REVERT JUMPDEST POP PUSH1 0x4 CALLDATASIZE LT PUSH2 0xE8 JUMPI PUSH0 CALLDATALOAD PUSH1 0xE0 SHR DUP1 PUSH4 0x8E7EA5B2 GT PUSH2 0x8A JUMPI DUP1 PUSH4 0xA587F077 GT PUSH2 0x64 JUMPI DUP1 PUSH4 0xA587F077 EQ PUSH2 0x1B0 JUMPI DUP1 PUSH4 0xB9223946 EQ PUSH2 0x1E0 JUMPI DUP1 PUSH4 0xF2FDE38B EQ PUSH2 0x1EA JUMPI DUP1 PUSH4 0xF4AB9ADF EQ PUSH2 0x206 JUMPI PUSH2 0xE8 JUMP JUMPDEST DUP1 PUSH4 0x8E7EA5B2 EQ PUSH2 0x17E JUMPI DUP1 PUSH4 0x98F6560B EQ PUSH2 0x19C JUMPI DUP1 PUSH4 0x9C6A46C4 EQ PUSH2 0x1A6 JUMPI PUSH2 0xE8 JUMP JUMPDEST DUP1 PUSH4 0x4C0A6AF0 GT PUSH2 0xC6 JUMPI DUP1 PUSH4 0x4C0A6AF0 EQ PUSH2 0x12E JUMPI DUP1 PUSH4 0x62564C48 EQ PUSH2 0x138 JUMPI DUP1 PUSH4 0x715018A6 EQ PUSH2 0x156 JUMPI DUP1 PUSH4 0x8DA5CB5B EQ PUSH2 0x160 JUMPI PUSH2 0xE8 JUMP JUMPDEST DUP1 PUSH4 0x121B93F EQ PUSH2 0xEC JUMPI DUP1 PUSH4 0x274DA81F EQ PUSH2 0x108 JUMPI DUP1 PUSH4 0x2FDAE3C5 EQ PUSH2 0x112 JUMPI JUMPDEST PUSH0 DUP1 REVERT JUMPDEST PUSH2 0x106 PUSH1 0x4 DUP1 CALLDATASIZE SUB DUP2 ADD SWAP1 PUSH2 0x101 SWAP2 SWAP1 PUSH2 0x15F9 JUMP JUMPDEST PUSH2 0x222 JUMP JUMPDEST STOP JUMPDEST PUSH2 0x110 PUSH2 0x51A JUMP JUMPDEST STOP JUMPDEST PUSH2 0x12C PUSH1 0x4 DUP1 CALLDATASIZE SUB DUP2 ADD SWAP1 PUSH2 0x127 SWAP2 SWAP1 PUSH2 0x1685 JUMP JUMPDEST PUSH2 0x609 JUMP JUMPDEST STOP JUMPDEST PUSH2 0x136 PUSH2 0x7E9 JUMP JUMPDEST STOP JUMPDEST PUSH2 0x140 PUSH2 0x8D9 JUMP JUMPDEST PUSH1 0x40 MLOAD PUSH2 0x14D SWAP2 SWAP1 PUSH2 0x185E JUMP JUMPDEST PUSH1 0x40 MLOAD DUP1 SWAP2 SUB SWAP1 RETURN JUMPDEST PUSH2 0x15E PUSH2 0xAA0 JUMP JUMPDEST STOP JUMPDEST PUSH2 0x168 PUSH2 0xAB3 JUMP JUMPDEST PUSH1 0x40 MLOAD PUSH2 0x175 SWAP2 SWAP1 PUSH2 0x18BD JUMP JUMPDEST PUSH1 0x40 MLOAD DUP1 SWAP2 SUB SWAP1 RETURN JUMPDEST PUSH2 0x186 PUSH2 0xADA JUMP JUMPDEST PUSH1 0x40 MLOAD PUSH2 0x193 SWAP2 SWAP1 PUSH2 0x1910 JUMP JUMPDEST PUSH1 0x40 MLOAD DUP1 SWAP2 SUB SWAP1 RETURN JUMPDEST PUSH2 0x1A4 PUSH2 0xC21 JUMP JUMPDEST STOP JUMPDEST PUSH2 0x1AE PUSH2 0xD12 JUMP JUMPDEST STOP JUMPDEST PUSH2 0x1CA PUSH1 0x4 DUP1 CALLDATASIZE SUB DUP2 ADD SWAP1 PUSH2 0x1C5 SWAP2 SWAP1 PUSH2 0x195A JUMP JUMPDEST PUSH2 0xF2C JUMP JUMPDEST PUSH1 0x40 MLOAD PUSH2 0x1D7 SWAP2 SWAP1 PUSH2 0x19DF JUMP JUMPDEST PUSH1 0x40 MLOAD DUP1 SWAP2 SUB SWAP1 RETURN JUMPDEST PUSH2 0x1E8 PUSH2 0x10D7 JUMP JUMPDEST STOP JUMPDEST PUSH2 0x204 PUSH1 0x4 DUP1 CALLDATASIZE SUB DUP2 ADD SWAP1 PUSH2 0x1FF SWAP2 SWAP1 PUSH2 0x195A JUMP JUMPDEST PUSH2 0x11C8 JUMP JUMPDEST STOP JUMPDEST PUSH2 0x220 PUSH1 0x4 DUP1 CALLDATASIZE SUB DUP2 ADD SWAP1 PUSH2 0x21B SWAP2 SWAP1 PUSH2 0x195A JUMP JUMPDEST PUSH2 0x124C JUMP JUMPDEST STOP JUMPDEST PUSH1 0x1 PUSH0 CALLER PUSH20 0xFFFFFFFFFFFFFFFFFFFFFFFFFFFFFFFFFFFFFFFF AND PUSH20 0xFFFFFFFFFFFFFFFFFFFFFFFFFFFFFFFFFFFFFFFF AND DUP2 MSTORE PUSH1 0x20 ADD SWAP1 DUP2 MSTORE PUSH1 0x20 ADD PUSH0 KECCAK256 PUSH0 ADD PUSH0 SWAP1 SLOAD SWAP1 PUSH2 0x100 EXP SWAP1 DIV PUSH1 0xFF AND PUSH2 0x2AD JUMPI PUSH1 0x40 MLOAD PUSH32 0x8C379A000000000000000000000000000000000000000000000000000000000 DUP2 MSTORE PUSH1 0x4 ADD PUSH2 0x2A4 SWAP1 PUSH2 0x1A52 JUMP JUMPDEST PUSH1 0x40 MLOAD DUP1 SWAP2 SUB SWAP1 REVERT JUMPDEST PUSH1 0x3 PUSH1 0x5 DUP2 GT ISZERO PUSH2 0x2C1 JUMPI PUSH2 0x2C0 PUSH2 0x1A70 JUMP JUMPDEST JUMPDEST PUSH1 0x3 PUSH0 SWAP1 SLOAD SWAP1 PUSH2 0x100 EXP SWAP1 DIV PUSH1 0xFF AND PUSH1 0x5 DUP2 GT ISZERO PUSH2 0x2E2 JUMPI PUSH2 0x2E1 PUSH2 0x1A70 JUMP JUMPDEST JUMPDEST EQ PUSH2 0x322 JUMPI PUSH1 0x40 MLOAD PUSH32 0x8C379A000000000000000000000000000000000000000000000000000000000 DUP2 MSTORE PUSH1 0x4 ADD PUSH2 0x319 SWAP1 PUSH2 0x1AE7 JUMP JUMPDEST PUSH1 0x40 MLOAD DUP1 SWAP2 SUB SWAP1 REVERT JUMPDEST PUSH1 0x1 PUSH0 CALLER PUSH20 0xFFFFFFFFFFFFFFFFFFFFFFFFFFFFFFFFFFFFFFFF AND PUSH20 0xFFFFFFFFFFFFFFFFFFFFFFFFFFFFFFFFFFFFFFFF AND DUP2 MSTORE PUSH1 0x20 ADD SWAP1 DUP2 MSTORE PUSH1 0x20 ADD PUSH0 KECCAK256 PUSH0 ADD PUSH1 0x1 SWAP1 SLOAD SWAP1 PUSH2 0x100 EXP SWAP1 DIV PUSH1 0xFF AND ISZERO PUSH2 0x3AF JUMPI PUSH1 0x40 MLOAD PUSH32 0x8C379A000000000000000000000000000000000000000000000000000000000 DUP2 MSTORE PUSH1 0x4 ADD PUSH2 0x3A6 SWAP1 PUSH2 0x1B4F JUMP JUMPDEST PUSH1 0x40 MLOAD DUP1 SWAP2 SUB SWAP1 REVERT JUMPDEST PUSH0 PUSH1 0x2 DUP1 SLOAD SWAP1 POP EQ ISZERO DUP1 ISZERO PUSH2 0x3C9 JUMPI POP PUSH1 0x2 DUP1 SLOAD SWAP1 POP DUP2 GT ISZERO JUMPDEST PUSH2 0x408 JUMPI PUSH1 0x40 MLOAD PUSH32 0x8C379A000000000000000000000000000000000000000000000000000000000 DUP2 MSTORE PUSH1 0x4 ADD PUSH2 0x3FF SWAP1 PUSH2 0x1BB7 JUMP JUMPDEST PUSH1 0x40 MLOAD DUP1 SWAP2 SUB SWAP1 REVERT JUMPDEST PUSH1 0x1 DUP1 PUSH0 CALLER PUSH20 0xFFFFFFFFFFFFFFFFFFFFFFFFFFFFFFFFFFFFFFFF AND PUSH20 0xFFFFFFFFFFFFFFFFFFFFFFFFFFFFFFFFFFFFFFFF AND DUP2 MSTORE PUSH1 0x20 ADD SWAP1 DUP2 MSTORE PUSH1 0x20 ADD PUSH0 KECCAK256 PUSH0 ADD PUSH1 0x1 PUSH2 0x100 EXP DUP2 SLOAD DUP2 PUSH1 0xFF MUL NOT AND SWAP1 DUP4 ISZERO ISZERO MUL OR SWAP1 SSTORE POP DUP1 PUSH1 0x1 PUSH0 CALLER PUSH20 0xFFFFFFFFFFFFFFFFFFFFFFFFFFFFFFFFFFFFFFFF AND PUSH20 0xFFFFFFFFFFFFFFFFFFFFFFFFFFFFFFFFFFFFFFFF AND DUP2 MSTORE PUSH1 0x20 ADD SWAP1 DUP2 MSTORE PUSH1 0x20 ADD PUSH0 KECCAK256 PUSH1 0x1 ADD DUP2 SWAP1 SSTORE POP PUSH1 0x1 PUSH1 0x2 DUP3 DUP2 SLOAD DUP2 LT PUSH2 0x4BA JUMPI PUSH2 0x4B9 PUSH2 0x1BD5 JUMP JUMPDEST JUMPDEST SWAP1 PUSH0 MSTORE PUSH1 0x20 PUSH0 KECCAK256 SWAP1 PUSH1 0x2 MUL ADD PUSH1 0x1 ADD PUSH0 DUP3 DUP3 SLOAD PUSH2 0x4D7 SWAP2 SWAP1 PUSH2 0x1C2F JUMP JUMPDEST SWAP3 POP POP DUP2 SWAP1 SSTORE POP PUSH32 0x4D99B957A2BC29A30EBD96A7BE8E68FE50A3C701DB28A91436490B7D53870CA4 CALLER DUP3 PUSH1 0x40 MLOAD PUSH2 0x50F SWAP3 SWAP2 SWAP1 PUSH2 0x1C71 JUMP JUMPDEST PUSH1 0x40 MLOAD DUP1 SWAP2 SUB SWAP1 LOG1 POP JUMP JUMPDEST PUSH2 0x522 PUSH2 0x1434 JUMP JUMPDEST PUSH0 PUSH1 0x5 DUP2 GT ISZERO PUSH2 0x535 JUMPI PUSH2 0x534 PUSH2 0x1A70 JUMP JUMPDEST JUMPDEST PUSH1 0x3 PUSH0 SWAP1 SLOAD SWAP1 PUSH2 0x100 EXP SWAP1 DIV PUSH1 0xFF AND PUSH1 0x5 DUP2 GT ISZERO PUSH2 0x556 JUMPI PUSH2 0x555 PUSH2 0x1A70 JUMP JUMPDEST JUMPDEST EQ PUSH2 0x596 JUMPI PUSH1 0x40 MLOAD PUSH32 0x8C379A000000000000000000000000000000000000000000000000000000000 DUP2 MSTORE PUSH1 0x4 ADD PUSH2 0x58D SWAP1 PUSH2 0x1D08 JUMP JUMPDEST PUSH1 0x40 MLOAD DUP1 SWAP2 SUB SWAP1 REVERT JUMPDEST PUSH1 0x1 PUSH1 0x3 PUSH0 PUSH2 0x100 EXP DUP2 SLOAD DUP2 PUSH1 0xFF MUL NOT AND SWAP1 DUP4 PUSH1 0x5 DUP2 GT ISZERO PUSH2 0x5BB JUMPI PUSH2 0x5BA PUSH2 0x1A70 JUMP JUMPDEST JUMPDEST MUL OR SWAP1 SSTORE POP PUSH32 0xA97A4EE45751E2ABF3E4FC8946939630B11B371EA8AE39CCDC3056E98F5CC3F PUSH0 PUSH1 0x3 PUSH0 SWAP1 SLOAD SWAP1 PUSH2 0x100 EXP SWAP1 DIV PUSH1 0xFF AND PUSH1 0x40 MLOAD PUSH2 0x5FF SWAP3 SWAP2 SWAP1 PUSH2 0x1D6C JUMP JUMPDEST PUSH1 0x40 MLOAD DUP1 SWAP2 SUB SWAP1 LOG1 JUMP JUMPDEST PUSH1 0x1 PUSH0 CALLER PUSH20 0xFFFFFFFFFFFFFFFFFFFFFFFFFFFFFFFFFFFFFFFF AND PUSH20 0xFFFFFFFFFFFFFFFFFFFFFFFFFFFFFFFFFFFFFFFF AND DUP2 MSTORE PUSH1 0x20 ADD SWAP1 DUP2 MSTORE PUSH1 0x20 ADD PUSH0 KECCAK256 PUSH0 ADD PUSH0 SWAP1 SLOAD SWAP1 PUSH2 0x100 EXP SWAP1 DIV PUSH1 0xFF AND PUSH2 0x694 JUMPI PUSH1 0x40 MLOAD PUSH32 0x8C379A000000000000000000000000000000000000000000000000000000000 DUP2 MSTORE PUSH1 0x4 ADD PUSH2 0x68B SWAP1 PUSH2 0x1A52 JUMP JUMPDEST PUSH1 0x40 MLOAD DUP1 SWAP2 SUB SWAP1 REVERT JUMPDEST PUSH1 0x1 PUSH1 0x5 DUP2 GT ISZERO PUSH2 0x6A8 JUMPI PUSH2 0x6A7 PUSH2 0x1A70 JUMP JUMPDEST JUMPDEST PUSH1 0x3 PUSH0 SWAP1 SLOAD SWAP1 PUSH2 0x100 EXP SWAP1 DIV PUSH1 0xFF AND PUSH1 0x5 DUP2 GT ISZERO PUSH2 0x6C9 JUMPI PUSH2 0x6C8 PUSH2 0x1A70 JUMP JUMPDEST JUMPDEST EQ PUSH2 0x709 JUMPI PUSH1 0x40 MLOAD PUSH32 0x8C379A000000000000000000000000000000000000000000000000000000000 DUP2 MSTORE PUSH1 0x4 ADD PUSH2 0x700 SWAP1 PUSH2 0x1DDD JUMP JUMPDEST PUSH1 0x40 MLOAD DUP1 SWAP2 SUB SWAP1 REVERT JUMPDEST PUSH1 0x2 PUSH1 0x40 MLOAD DUP1 PUSH1 0x40 ADD PUSH1 0x40 MSTORE DUP1 DUP5 DUP5 DUP1 DUP1 PUSH1 0x1F ADD PUSH1 0x20 DUP1 SWAP2 DIV MUL PUSH1 0x20 ADD PUSH1 0x40 MLOAD SWAP1 DUP2 ADD PUSH1 0x40 MSTORE DUP1 SWAP4 SWAP3 SWAP2 SWAP1 DUP2 DUP2 MSTORE PUSH1 0x20 ADD DUP4 DUP4 DUP1 DUP3 DUP5 CALLDATACOPY PUSH0 DUP2 DUP5 ADD MSTORE PUSH1 0x1F NOT PUSH1 0x1F DUP3 ADD AND SWAP1 POP DUP1 DUP4 ADD SWAP3 POP POP POP POP POP POP POP DUP2 MSTORE PUSH1 0x20 ADD PUSH0 DUP2 MSTORE POP SWAP1 DUP1 PUSH1 0x1 DUP2 SLOAD ADD DUP1 DUP3 SSTORE DUP1 SWAP2 POP POP PUSH1 0x1 SWAP1 SUB SWAP1 PUSH0 MSTORE PUSH1 0x20 PUSH0 KECCAK256 SWAP1 PUSH1 0x2 MUL ADD PUSH0 SWAP1 SWAP2 SWAP1 SWAP2 SWAP1 SWAP2 POP PUSH0 DUP3 ADD MLOAD DUP2 PUSH0 ADD SWAP1 DUP2 PUSH2 0x79C SWAP2 SWAP1 PUSH2 0x2022 JUMP JUMPDEST POP PUSH1 0x20 DUP3 ADD MLOAD DUP2 PUSH1 0x1 ADD SSTORE POP POP PUSH32 0x92E393E9B54E2F801D3EA4BEB0C5E71A21CC34A5D34B77D0FB8A3AA1650DC18F PUSH1 0x2 DUP1 SLOAD SWAP1 POP PUSH1 0x40 MLOAD PUSH2 0x7DD SWAP2 SWAP1 PUSH2 0x20F1 JUMP JUMPDEST PUSH1 0x40 MLOAD DUP1 SWAP2 SUB SWAP1 LOG1 POP POP JUMP JUMPDEST PUSH2 0x7F1 PUSH2 0x1434 JUMP JUMPDEST PUSH1 0x2 PUSH1 0x5 DUP2 GT ISZERO PUSH2 0x805 JUMPI PUSH2 0x804 PUSH2 0x1A70 JUMP JUMPDEST JUMPDEST PUSH1 0x3 PUSH0 SWAP1 SLOAD SWAP1 PUSH2 0x100 EXP SWAP1 DIV PUSH1 0xFF AND PUSH1 0x5 DUP2 GT ISZERO PUSH2 0x826 JUMPI PUSH2 0x825 PUSH2 0x1A70 JUMP JUMPDEST JUMPDEST EQ PUSH2 0x866 JUMPI PUSH1 0x40 MLOAD PUSH32 0x8C379A000000000000000000000000000000000000000000000000000000000 DUP2 MSTORE PUSH1 0x4 ADD PUSH2 0x85D SWAP1 PUSH2 0x217A JUMP JUMPDEST PUSH1 0x40 MLOAD DUP1 SWAP2 SUB SWAP1 REVERT JUMPDEST PUSH1 0x3 DUP1 PUSH0 PUSH2 0x100 EXP DUP2 SLOAD DUP2 PUSH1 0xFF MUL NOT AND SWAP1 DUP4 PUSH1 0x5 DUP2 GT ISZERO PUSH2 0x88A JUMPI PUSH2 0x889 PUSH2 0x1A70 JUMP JUMPDEST JUMPDEST MUL OR SWAP1 SSTORE POP PUSH32 0xA97A4EE45751E2ABF3E4FC8946939630B11B371EA8AE39CCDC3056E98F5CC3F PUSH1 0x2 PUSH1 0x3 PUSH0 SWAP1 SLOAD SWAP1 PUSH2 0x100 EXP SWAP1 DIV PUSH1 0xFF AND PUSH1 0x40 MLOAD PUSH2 0x8CF SWAP3 SWAP2 SWAP1 PUSH2 0x1D6C JUMP JUMPDEST PUSH1 0x40 MLOAD DUP1 SWAP2 SUB SWAP1 LOG1 JUMP JUMPDEST PUSH1 0x60 PUSH1 0x1 PUSH0 CALLER PUSH20 0xFFFFFFFFFFFFFFFFFFFFFFFFFFFFFFFFFFFFFFFF AND PUSH20 0xFFFFFFFFFFFFFFFFFFFFFFFFFFFFFFFFFFFFFFFF AND DUP2 MSTORE PUSH1 0x20 ADD SWAP1 DUP2 MSTORE PUSH1 0x20 ADD PUSH0 KECCAK256 PUSH0 ADD PUSH0 SWAP1 SLOAD SWAP1 PUSH2 0x100 EXP SWAP1 DIV PUSH1 0xFF AND PUSH2 0x966 JUMPI PUSH1 0x40 MLOAD PUSH32 0x8C379A000000000000000000000000000000000000000000000000000000000 DUP2 MSTORE PUSH1 0x4 ADD PUSH2 0x95D SWAP1 PUSH2 0x1A52 JUMP JUMPDEST PUSH1 0x40 MLOAD DUP1 SWAP2 SUB SWAP1 REVERT JUMPDEST PUSH0 PUSH1 0x2 DUP1 SLOAD SWAP1 POP SUB PUSH2 0x9AD JUMPI PUSH1 0x40 MLOAD PUSH32 0x8C379A000000000000000000000000000000000000000000000000000000000 DUP2 MSTORE PUSH1 0x4 ADD PUSH2 0x9A4 SWAP1 PUSH2 0x21E2 JUMP JUMPDEST PUSH1 0x40 MLOAD DUP1 SWAP2 SUB SWAP1 REVERT JUMPDEST PUSH1 0x2 DUP1 SLOAD DUP1 PUSH1 0x20 MUL PUSH1 0x20 ADD PUSH1 0x40 MLOAD SWAP1 DUP2 ADD PUSH1 0x40 MSTORE DUP1 SWAP3 SWAP2 SWAP1 DUP2 DUP2 MSTORE PUSH1 0x20 ADD PUSH0 SWAP1 JUMPDEST DUP3 DUP3 LT ISZERO PUSH2 0xA97 JUMPI DUP4 DUP3 SWAP1 PUSH0 MSTORE PUSH1 0x20 PUSH0 KECCAK256 SWAP1 PUSH1 0x2 MUL ADD PUSH1 0x40 MLOAD DUP1 PUSH1 0x40 ADD PUSH1 0x40 MSTORE SWAP1 DUP2 PUSH0 DUP3 ADD DUP1 SLOAD PUSH2 0x9FE SWAP1 PUSH2 0x1E55 JUMP JUMPDEST DUP1 PUSH1 0x1F ADD PUSH1 0x20 DUP1 SWAP2 DIV MUL PUSH1 0x20 ADD PUSH1 0x40 MLOAD SWAP1 DUP2 ADD PUSH1 0x40 MSTORE DUP1 SWAP3 SWAP2 SWAP1 DUP2 DUP2 MSTORE PUSH1 0x20 ADD DUP3 DUP1 SLOAD PUSH2 0xA2A SWAP1 PUSH2 0x1E55 JUMP JUMPDEST DUP1 ISZERO PUSH2 0xA75 JUMPI DUP1 PUSH1 0x1F LT PUSH2 0xA4C JUMPI PUSH2 0x100 DUP1 DUP4 SLOAD DIV MUL DUP4 MSTORE SWAP2 PUSH1 0x20 ADD SWAP2 PUSH2 0xA75 JUMP JUMPDEST DUP3 ADD SWAP2 SWAP1 PUSH0 MSTORE PUSH1 0x20 PUSH0 KECCAK256 SWAP1 JUMPDEST DUP2 SLOAD DUP2 MSTORE SWAP1 PUSH1 0x1 ADD SWAP1 PUSH1 0x20 ADD DUP1 DUP4 GT PUSH2 0xA58 JUMPI DUP3 SWAP1 SUB PUSH1 0x1F AND DUP3 ADD SWAP2 JUMPDEST POP POP POP POP POP DUP2 MSTORE PUSH1 0x20 ADD PUSH1 0x1 DUP3 ADD SLOAD DUP2 MSTORE POP POP DUP2 MSTORE PUSH1 0x20 ADD SWAP1 PUSH1 0x1 ADD SWAP1 PUSH2 0x9CE JUMP JUMPDEST POP POP POP POP SWAP1 POP SWAP1 JUMP JUMPDEST PUSH2 0xAA8 PUSH2 0x1434 JUMP JUMPDEST PUSH2 0xAB1 PUSH0 PUSH2 0x14BB JUMP JUMPDEST JUMP JUMPDEST PUSH0 DUP1 PUSH0 SWAP1 SLOAD SWAP1 PUSH2 0x100 EXP SWAP1 DIV PUSH20 0xFFFFFFFFFFFFFFFFFFFFFFFFFFFFFFFFFFFFFFFF AND SWAP1 POP SWAP1 JUMP JUMPDEST PUSH2 0xAE2 PUSH2 0x1583 JUMP JUMPDEST PUSH1 0x5 DUP1 DUP2 GT ISZERO PUSH2 0xAF5 JUMPI PUSH2 0xAF4 PUSH2 0x1A70 JUMP JUMPDEST JUMPDEST PUSH1 0x3 PUSH0 SWAP1 SLOAD SWAP1 PUSH2 0x100 EXP SWAP1 DIV PUSH1 0xFF AND PUSH1 0x5 DUP2 GT ISZERO PUSH2 0xB16 JUMPI PUSH2 0xB15 PUSH2 0x1A70 JUMP JUMPDEST JUMPDEST EQ PUSH2 0xB56 JUMPI PUSH1 0x40 MLOAD PUSH32 0x8C379A000000000000000000000000000000000000000000000000000000000 DUP2 MSTORE PUSH1 0x4 ADD PUSH2 0xB4D SWAP1 PUSH2 0x224A JUMP JUMPDEST PUSH1 0x40 MLOAD DUP1 SWAP2 SUB SWAP1 REVERT JUMPDEST PUSH1 0x2 PUSH1 0x4 SLOAD DUP2 SLOAD DUP2 LT PUSH2 0xB6C JUMPI PUSH2 0xB6B PUSH2 0x1BD5 JUMP JUMPDEST JUMPDEST SWAP1 PUSH0 MSTORE PUSH1 0x20 PUSH0 KECCAK256 SWAP1 PUSH1 0x2 MUL ADD PUSH1 0x40 MLOAD DUP1 PUSH1 0x40 ADD PUSH1 0x40 MSTORE SWAP1 DUP2 PUSH0 DUP3 ADD DUP1 SLOAD PUSH2 0xB92 SWAP1 PUSH2 0x1E55 JUMP JUMPDEST DUP1 PUSH1 0x1F ADD PUSH1 0x20 DUP1 SWAP2 DIV MUL PUSH1 0x20 ADD PUSH1 0x40 MLOAD SWAP1 DUP2 ADD PUSH1 0x40 MSTORE DUP1 SWAP3 SWAP2 SWAP1 DUP2 DUP2 MSTORE PUSH1 0x20 ADD DUP3 DUP1 SLOAD PUSH2 0xBBE SWAP1 PUSH2 0x1E55 JUMP JUMPDEST DUP1 ISZERO PUSH2 0xC09 JUMPI DUP1 PUSH1 0x1F LT PUSH2 0xBE0 JUMPI PUSH2 0x100 DUP1 DUP4 SLOAD DIV MUL DUP4 MSTORE SWAP2 PUSH1 0x20 ADD SWAP2 PUSH2 0xC09 JUMP JUMPDEST DUP3 ADD SWAP2 SWAP1 PUSH0 MSTORE PUSH1 0x20 PUSH0 KECCAK256 SWAP1 JUMPDEST DUP2 SLOAD DUP2 MSTORE SWAP1 PUSH1 0x1 ADD SWAP1 PUSH1 0x20 ADD DUP1 DUP4 GT PUSH2 0xBEC JUMPI DUP3 SWAP1 SUB PUSH1 0x1F AND DUP3 ADD SWAP2 JUMPDEST POP POP POP POP POP DUP2 MSTORE PUSH1 0x20 ADD PUSH1 0x1 DUP3 ADD SLOAD DUP2 MSTORE POP POP SWAP1 POP SWAP1 JUMP JUMPDEST PUSH2 0xC29 PUSH2 0x1434 JUMP JUMPDEST PUSH1 0x1 PUSH1 0x5 DUP2 GT ISZERO PUSH2 0xC3D JUMPI PUSH2 0xC3C PUSH2 0x1A70 JUMP JUMPDEST JUMPDEST PUSH1 0x3 PUSH0 SWAP1 SLOAD SWAP1 PUSH2 0x100 EXP SWAP1 DIV PUSH1 0xFF AND PUSH1 0x5 DUP2 GT ISZERO PUSH2 0xC5E JUMPI PUSH2 0xC5D PUSH2 0x1A70 JUMP JUMPDEST JUMPDEST EQ PUSH2 0xC9E JUMPI PUSH1 0x40 MLOAD PUSH32 0x8C379A000000000000000000000000000000000000000000000000000000000 DUP2 MSTORE PUSH1 0x4 ADD PUSH2 0xC95 SWAP1 PUSH2 0x1DDD JUMP JUMPDEST PUSH1 0x40 MLOAD DUP1 SWAP2 SUB SWAP1 REVERT JUMPDEST PUSH1 0x2 PUSH1 0x3 PUSH0 PUSH2 0x100 EXP DUP2 SLOAD DUP2 PUSH1 0xFF MUL NOT AND SWAP1 DUP4 PUSH1 0x5 DUP2 GT ISZERO PUSH2 0xCC3 JUMPI PUSH2 0xCC2 PUSH2 0x1A70 JUMP JUMPDEST JUMPDEST MUL OR SWAP1 SSTORE POP PUSH32 0xA97A4EE45751E2ABF3E4FC8946939630B11B371EA8AE39CCDC3056E98F5CC3F PUSH1 0x1 PUSH1 0x3 PUSH0 SWAP1 SLOAD SWAP1 PUSH2 0x100 EXP SWAP1 DIV PUSH1 0xFF AND PUSH1 0x40 MLOAD PUSH2 0xD08 SWAP3 SWAP2 SWAP1 PUSH2 0x1D6C JUMP JUMPDEST PUSH1 0x40 MLOAD DUP1 SWAP2 SUB SWAP1 LOG1 JUMP JUMPDEST PUSH2 0xD1A PUSH2 0x1434 JUMP JUMPDEST PUSH1 0x4 PUSH1 0x5 DUP2 GT ISZERO PUSH2 0xD2E JUMPI PUSH2 0xD2D PUSH2 0x1A70 JUMP JUMPDEST JUMPDEST PUSH1 0x3 PUSH0 SWAP1 SLOAD SWAP1 PUSH2 0x100 EXP SWAP1 DIV PUSH1 0xFF AND PUSH1 0x5 DUP2 GT ISZERO PUSH2 0xD4F JUMPI PUSH2 0xD4E PUSH2 0x1A70 JUMP JUMPDEST JUMPDEST EQ PUSH2 0xD8F JUMPI PUSH1 0x40 MLOAD PUSH32 0x8C379A000000000000000000000000000000000000000000000000000000000 DUP2 MSTORE PUSH1 0x4 ADD PUSH2 0xD86 SWAP1 PUSH2 0x22D8 JUMP JUMPDEST PUSH1 0x40 MLOAD DUP1 SWAP2 SUB SWAP1 REVERT JUMPDEST PUSH2 0xD97 PUSH2 0x1583 JUMP JUMPDEST PUSH0 JUMPDEST PUSH1 0x2 DUP1 SLOAD SWAP1 POP DUP2 LT ISZERO PUSH2 0xEB6 JUMPI PUSH1 0x2 DUP2 DUP2 SLOAD DUP2 LT PUSH2 0xDBA JUMPI PUSH2 0xDB9 PUSH2 0x1BD5 JUMP JUMPDEST JUMPDEST SWAP1 PUSH0 MSTORE PUSH1 0x20 PUSH0 KECCAK256 SWAP1 PUSH1 0x2 MUL ADD PUSH1 0x1 ADD SLOAD DUP3 PUSH1 0x20 ADD MLOAD LT ISZERO PUSH2 0xEA3 JUMPI PUSH1 0x2 DUP2 DUP2 SLOAD DUP2 LT PUSH2 0xDE9 JUMPI PUSH2 0xDE8 PUSH2 0x1BD5 JUMP JUMPDEST JUMPDEST SWAP1 PUSH0 MSTORE PUSH1 0x20 PUSH0 KECCAK256 SWAP1 PUSH1 0x2 MUL ADD PUSH1 0x40 MLOAD DUP1 PUSH1 0x40 ADD PUSH1 0x40 MSTORE SWAP1 DUP2 PUSH0 DUP3 ADD DUP1 SLOAD PUSH2 0xE0F SWAP1 PUSH2 0x1E55 JUMP JUMPDEST DUP1 PUSH1 0x1F ADD PUSH1 0x20 DUP1 SWAP2 DIV MUL PUSH1 0x20 ADD PUSH1 0x40 MLOAD SWAP1 DUP2 ADD PUSH1 0x40 MSTORE DUP1 SWAP3 SWAP2 SWAP1 DUP2 DUP2 MSTORE PUSH1 0x20 ADD DUP3 DUP1 SLOAD PUSH2 0xE3B SWAP1 PUSH2 0x1E55 JUMP JUMPDEST DUP1 ISZERO PUSH2 0xE86 JUMPI DUP1 PUSH1 0x1F LT PUSH2 0xE5D JUMPI PUSH2 0x100 DUP1 DUP4 SLOAD DIV MUL DUP4 MSTORE SWAP2 PUSH1 0x20 ADD SWAP2 PUSH2 0xE86 JUMP JUMPDEST DUP3 ADD SWAP2 SWAP1 PUSH0 MSTORE PUSH1 0x20 PUSH0 KECCAK256 SWAP1 JUMPDEST DUP2 SLOAD DUP2 MSTORE SWAP1 PUSH1 0x1 ADD SWAP1 PUSH1 0x20 ADD DUP1 DUP4 GT PUSH2 0xE69 JUMPI DUP3 SWAP1 SUB PUSH1 0x1F AND DUP3 ADD SWAP2 JUMPDEST POP POP POP POP POP DUP2 MSTORE PUSH1 0x20 ADD PUSH1 0x1 DUP3 ADD SLOAD DUP2 MSTORE POP POP SWAP2 POP DUP1 PUSH1 0x4 DUP2 SWAP1 SSTORE POP JUMPDEST DUP1 DUP1 PUSH2 0xEAE SWAP1 PUSH2 0x22F6 JUMP JUMPDEST SWAP2 POP POP PUSH2 0xD99 JUMP JUMPDEST POP PUSH1 0x5 PUSH1 0x3 PUSH0 PUSH2 0x100 EXP DUP2 SLOAD DUP2 PUSH1 0xFF MUL NOT AND SWAP1 DUP4 PUSH1 0x5 DUP2 GT ISZERO PUSH2 0xEDC JUMPI PUSH2 0xEDB PUSH2 0x1A70 JUMP JUMPDEST JUMPDEST MUL OR SWAP1 SSTORE POP PUSH32 0xA97A4EE45751E2ABF3E4FC8946939630B11B371EA8AE39CCDC3056E98F5CC3F PUSH1 0x4 PUSH1 0x3 PUSH0 SWAP1 SLOAD SWAP1 PUSH2 0x100 EXP SWAP1 DIV PUSH1 0xFF AND PUSH1 0x40 MLOAD PUSH2 0xF21 SWAP3 SWAP2 SWAP1 PUSH2 0x1D6C JUMP JUMPDEST PUSH1 0x40 MLOAD DUP1 SWAP2 SUB SWAP1 LOG1 POP JUMP JUMPDEST PUSH2 0xF34 PUSH2 0x159C JUMP JUMPDEST PUSH1 0x1 PUSH0 CALLER PUSH20 0xFFFFFFFFFFFFFFFFFFFFFFFFFFFFFFFFFFFFFFFF AND PUSH20 0xFFFFFFFFFFFFFFFFFFFFFFFFFFFFFFFFFFFFFFFF AND DUP2 MSTORE PUSH1 0x20 ADD SWAP1 DUP2 MSTORE PUSH1 0x20 ADD PUSH0 KECCAK256 PUSH0 ADD PUSH0 SWAP1 SLOAD SWAP1 PUSH2 0x100 EXP SWAP1 DIV PUSH1 0xFF AND PUSH2 0xFBF JUMPI PUSH1 0x40 MLOAD PUSH32 0x8C379A000000000000000000000000000000000000000000000000000000000 DUP2 MSTORE PUSH1 0x4 ADD PUSH2 0xFB6 SWAP1 PUSH2 0x1A52 JUMP JUMPDEST PUSH1 0x40 MLOAD DUP1 SWAP2 SUB SWAP1 REVERT JUMPDEST PUSH1 0x1 PUSH0 CALLER PUSH20 0xFFFFFFFFFFFFFFFFFFFFFFFFFFFFFFFFFFFFFFFF AND PUSH20 0xFFFFFFFFFFFFFFFFFFFFFFFFFFFFFFFFFFFFFFFF AND DUP2 MSTORE PUSH1 0x20 ADD SWAP1 DUP2 MSTORE PUSH1 0x20 ADD PUSH0 KECCAK256 PUSH0 ADD PUSH1 0x1 SWAP1 SLOAD SWAP1 PUSH2 0x100 EXP SWAP1 DIV PUSH1 0xFF AND PUSH2 0x104B JUMPI PUSH1 0x40 MLOAD PUSH32 0x8C379A000000000000000000000000000000000000000000000000000000000 DUP2 MSTORE PUSH1 0x4 ADD PUSH2 0x1042 SWAP1 PUSH2 0x2387 JUMP JUMPDEST PUSH1 0x40 MLOAD DUP1 SWAP2 SUB SWAP1 REVERT JUMPDEST PUSH1 0x1 PUSH0 DUP4 PUSH20 0xFFFFFFFFFFFFFFFFFFFFFFFFFFFFFFFFFFFFFFFF AND PUSH20 0xFFFFFFFFFFFFFFFFFFFFFFFFFFFFFFFFFFFFFFFF AND DUP2 MSTORE PUSH1 0x20 ADD SWAP1 DUP2 MSTORE PUSH1 0x20 ADD PUSH0 KECCAK256 PUSH1 0x40 MLOAD DUP1 PUSH1 0x60 ADD PUSH1 0x40 MSTORE SWAP1 DUP2 PUSH0 DUP3 ADD PUSH0 SWAP1 SLOAD SWAP1 PUSH2 0x100 EXP SWAP1 DIV PUSH1 0xFF AND ISZERO ISZERO ISZERO ISZERO DUP2 MSTORE PUSH1 0x20 ADD PUSH0 DUP3 ADD PUSH1 0x1 SWAP1 SLOAD SWAP1 PUSH2 0x100 EXP SWAP1 DIV PUSH1 0xFF AND ISZERO ISZERO ISZERO ISZERO DUP2 MSTORE PUSH1 0x20 ADD PUSH1 0x1 DUP3 ADD SLOAD DUP2 MSTORE POP POP SWAP1 POP SWAP2 SWAP1 POP JUMP JUMPDEST PUSH2 0x10DF PUSH2 0x1434 JUMP JUMPDEST PUSH1 0x3 PUSH1 0x5 DUP2 GT ISZERO PUSH2 0x10F3 JUMPI PUSH2 0x10F2 PUSH2 0x1A70 JUMP JUMPDEST JUMPDEST PUSH1 0x3 PUSH0 SWAP1 SLOAD SWAP1 PUSH2 0x100 EXP SWAP1 DIV PUSH1 0xFF AND PUSH1 0x5 DUP2 GT ISZERO PUSH2 0x1114 JUMPI PUSH2 0x1113 PUSH2 0x1A70 JUMP JUMPDEST JUMPDEST EQ PUSH2 0x1154 JUMPI PUSH1 0x40 MLOAD PUSH32 0x8C379A000000000000000000000000000000000000000000000000000000000 DUP2 MSTORE PUSH1 0x4 ADD PUSH2 0x114B SWAP1 PUSH2 0x1AE7 JUMP JUMPDEST PUSH1 0x40 MLOAD DUP1 SWAP2 SUB SWAP1 REVERT JUMPDEST PUSH1 0x4 PUSH1 0x3 PUSH0 PUSH2 0x100 EXP DUP2 SLOAD DUP2 PUSH1 0xFF MUL NOT AND SWAP1 DUP4 PUSH1 0x5 DUP2 GT ISZERO PUSH2 0x1179 JUMPI PUSH2 0x1178 PUSH2 0x1A70 JUMP JUMPDEST JUMPDEST MUL OR SWAP1 SSTORE POP PUSH32 0xA97A4EE45751E2ABF3E4FC8946939630B11B371EA8AE39CCDC3056E98F5CC3F PUSH1 0x4 PUSH1 0x3 PUSH0 SWAP1 SLOAD SWAP1 PUSH2 0x100 EXP SWAP1 DIV PUSH1 0xFF AND PUSH1 0x40 MLOAD PUSH2 0x11BE SWAP3 SWAP2 SWAP1 PUSH2 0x1D6C JUMP JUMPDEST PUSH1 0x40 MLOAD DUP1 SWAP2 SUB SWAP1 LOG1 JUMP JUMPDEST PUSH2 0x11D0 PUSH2 0x1434 JUMP JUMPDEST PUSH0 PUSH20 0xFFFFFFFFFFFFFFFFFFFFFFFFFFFFFFFFFFFFFFFF AND DUP2 PUSH20 0xFFFFFFFFFFFFFFFFFFFFFFFFFFFFFFFFFFFFFFFF AND SUB PUSH2 0x1240 JUMPI PUSH0 PUSH1 0x40 MLOAD PUSH32 0x1E4FBDF700000000000000000000000000000000000000000000000000000000 DUP2 MSTORE PUSH1 0x4 ADD PUSH2 0x1237 SWAP2 SWAP1 PUSH2 0x18BD JUMP JUMPDEST PUSH1 0x40 MLOAD DUP1 SWAP2 SUB SWAP1 REVERT JUMPDEST PUSH2 0x1249 DUP2 PUSH2 0x14BB JUMP JUMPDEST POP JUMP JUMPDEST PUSH2 0x1254 PUSH2 0x1434 JUMP JUMPDEST PUSH0 PUSH1 0x5 DUP2 GT ISZERO PUSH2 0x1267 JUMPI PUSH2 0x1266 PUSH2 0x1A70 JUMP JUMPDEST JUMPDEST PUSH1 0x3 PUSH0 SWAP1 SLOAD SWAP1 PUSH2 0x100 EXP SWAP1 DIV PUSH1 0xFF AND PUSH1 0x5 DUP2 GT ISZERO PUSH2 0x1288 JUMPI PUSH2 0x1287 PUSH2 0x1A70 JUMP JUMPDEST JUMPDEST EQ PUSH2 0x12C8 JUMPI PUSH1 0x40 MLOAD PUSH32 0x8C379A000000000000000000000000000000000000000000000000000000000 DUP2 MSTORE PUSH1 0x4 ADD PUSH2 0x12BF SWAP1 PUSH2 0x23EF JUMP JUMPDEST PUSH1 0x40 MLOAD DUP1 SWAP2 SUB SWAP1 REVERT JUMPDEST PUSH1 0x1 PUSH0 DUP3 PUSH20 0xFFFFFFFFFFFFFFFFFFFFFFFFFFFFFFFFFFFFFFFF AND PUSH20 0xFFFFFFFFFFFFFFFFFFFFFFFFFFFFFFFFFFFFFFFF AND DUP2 MSTORE PUSH1 0x20 ADD SWAP1 DUP2 MSTORE PUSH1 0x20 ADD PUSH0 KECCAK256 PUSH0 ADD PUSH0 SWAP1 SLOAD SWAP1 PUSH2 0x100 EXP SWAP1 DIV PUSH1 0xFF AND ISZERO PUSH2 0x1354 JUMPI PUSH1 0x40 MLOAD PUSH32 0x8C379A000000000000000000000000000000000000000000000000000000000 DUP2 MSTORE PUSH1 0x4 ADD PUSH2 0x134B SWAP1 PUSH2 0x247D JUMP JUMPDEST PUSH1 0x40 MLOAD DUP1 SWAP2 SUB SWAP1 REVERT JUMPDEST PUSH1 0x40 MLOAD DUP1 PUSH1 0x60 ADD PUSH1 0x40 MSTORE DUP1 PUSH1 0x1 ISZERO ISZERO DUP2 MSTORE PUSH1 0x20 ADD PUSH0 ISZERO ISZERO DUP2 MSTORE PUSH1 0x20 ADD PUSH0 DUP2 MSTORE POP PUSH1 0x1 PUSH0 DUP4 PUSH20 0xFFFFFFFFFFFFFFFFFFFFFFFFFFFFFFFFFFFFFFFF AND PUSH20 0xFFFFFFFFFFFFFFFFFFFFFFFFFFFFFFFFFFFFFFFF AND DUP2 MSTORE PUSH1 0x20 ADD SWAP1 DUP2 MSTORE PUSH1 0x20 ADD PUSH0 KECCAK256 PUSH0 DUP3 ADD MLOAD DUP2 PUSH0 ADD PUSH0 PUSH2 0x100 EXP DUP2 SLOAD DUP2 PUSH1 0xFF MUL NOT AND SWAP1 DUP4 ISZERO ISZERO MUL OR SWAP1 SSTORE POP PUSH1 0x20 DUP3 ADD MLOAD DUP2 PUSH0 ADD PUSH1 0x1 PUSH2 0x100 EXP DUP2 SLOAD DUP2 PUSH1 0xFF MUL NOT AND SWAP1 DUP4 ISZERO ISZERO MUL OR SWAP1 SSTORE POP PUSH1 0x40 DUP3 ADD MLOAD DUP2 PUSH1 0x1 ADD SSTORE SWAP1 POP POP PUSH32 0xB6BE2187D059CC2A55FE29E0E503B566E1E0F8C8780096E185429350ACFFD3DD DUP2 PUSH1 0x40 MLOAD PUSH2 0x1429 SWAP2 SWAP1 PUSH2 0x18BD JUMP JUMPDEST PUSH1 0x40 MLOAD DUP1 SWAP2 SUB SWAP1 LOG1 POP JUMP JUMPDEST PUSH2 0x143C PUSH2 0x157C JUMP JUMPDEST PUSH20 0xFFFFFFFFFFFFFFFFFFFFFFFFFFFFFFFFFFFFFFFF AND PUSH2 0x145A PUSH2 0xAB3 JUMP JUMPDEST PUSH20 0xFFFFFFFFFFFFFFFFFFFFFFFFFFFFFFFFFFFFFFFF AND EQ PUSH2 0x14B9 JUMPI PUSH2 0x147D PUSH2 0x157C JUMP JUMPDEST PUSH1 0x40 MLOAD PUSH32 0x118CDAA700000000000000000000000000000000000000000000000000000000 DUP2 MSTORE PUSH1 0x4 ADD PUSH2 0x14B0 SWAP2 SWAP1 PUSH2 0x18BD JUMP JUMPDEST PUSH1 0x40 MLOAD DUP1 SWAP2 SUB SWAP1 REVERT JUMPDEST JUMP JUMPDEST PUSH0 DUP1 PUSH0 SWAP1 SLOAD SWAP1 PUSH2 0x100 EXP SWAP1 DIV PUSH20 0xFFFFFFFFFFFFFFFFFFFFFFFFFFFFFFFFFFFFFFFF AND SWAP1 POP DUP2 PUSH0 DUP1 PUSH2 0x100 EXP DUP2 SLOAD DUP2 PUSH20 0xFFFFFFFFFFFFFFFFFFFFFFFFFFFFFFFFFFFFFFFF MUL NOT AND SWAP1 DUP4 PUSH20 0xFFFFFFFFFFFFFFFFFFFFFFFFFFFFFFFFFFFFFFFF AND MUL OR SWAP1 SSTORE POP DUP2 PUSH20 0xFFFFFFFFFFFFFFFFFFFFFFFFFFFFFFFFFFFFFFFF AND DUP2 PUSH20 0xFFFFFFFFFFFFFFFFFFFFFFFFFFFFFFFFFFFFFFFF AND PUSH32 0x8BE0079C531659141344CD1FD0A4F28419497F9722A3DAAFE3B4186F6B6457E0 PUSH1 0x40 MLOAD PUSH1 0x40 MLOAD DUP1 SWAP2 SUB SWAP1 LOG3 POP POP JUMP JUMPDEST PUSH0 CALLER SWAP1 POP SWAP1 JUMP JUMPDEST PUSH1 0x40 MLOAD DUP1 PUSH1 0x40 ADD PUSH1 0x40 MSTORE DUP1 PUSH1 0x60 DUP2 MSTORE PUSH1 0x20 ADD PUSH0 DUP2 MSTORE POP SWAP1 JUMP JUMPDEST PUSH1 0x40 MLOAD DUP1 PUSH1 0x60 ADD PUSH1 0x40 MSTORE DUP1 PUSH0 ISZERO ISZERO DUP2 MSTORE PUSH1 0x20 ADD PUSH0 ISZERO ISZERO DUP2 MSTORE PUSH1 0x20 ADD PUSH0 DUP2 MSTORE POP SWAP1 JUMP JUMPDEST PUSH0 DUP1 REVERT JUMPDEST PUSH0 DUP1 REVERT JUMPDEST PUSH0 DUP2 SWAP1 POP SWAP2 SWAP1 POP JUMP JUMPDEST PUSH2 0x15D8 DUP2 PUSH2 0x15C6 JUMP JUMPDEST DUP2 EQ PUSH2 0x15E2 JUMPI PUSH0 DUP1 REVERT JUMPDEST POP JUMP JUMPDEST PUSH0 DUP2 CALLDATALOAD SWAP1 POP PUSH2 0x15F3 DUP2 PUSH2 0x15CF JUMP JUMPDEST SWAP3 SWAP2 POP POP JUMP JUMPDEST PUSH0 PUSH1 0x20 DUP3 DUP5 SUB SLT ISZERO PUSH2 0x160E JUMPI PUSH2 0x160D PUSH2 0x15BE JUMP JUMPDEST JUMPDEST PUSH0 PUSH2 0x161B DUP5 DUP3 DUP6 ADD PUSH2 0x15E5 JUMP JUMPDEST SWAP2 POP POP SWAP3 SWAP2 POP POP JUMP JUMPDEST PUSH0 DUP1 REVERT JUMPDEST PUSH0 DUP1 REVERT JUMPDEST PUSH0 DUP1 REVERT JUMPDEST PUSH0 DUP1 DUP4 PUSH1 0x1F DUP5 ADD SLT PUSH2 0x1645 JUMPI PUSH2 0x1644 PUSH2 0x1624 JUMP JUMPDEST JUMPDEST DUP3 CALLDATALOAD SWAP1 POP PUSH8 0xFFFFFFFFFFFFFFFF DUP2 GT ISZERO PUSH2 0x1662 JUMPI PUSH2 0x1661 PUSH2 0x1628 JUMP JUMPDEST JUMPDEST PUSH1 0x20 DUP4 ADD SWAP2 POP DUP4 PUSH1 0x1 DUP3 MUL DUP4 ADD GT ISZERO PUSH2 0x167E JUMPI PUSH2 0x167D PUSH2 0x162C JUMP JUMPDEST JUMPDEST SWAP3 POP SWAP3 SWAP1 POP JUMP JUMPDEST PUSH0 DUP1 PUSH1 0x20 DUP4 DUP6 SUB SLT ISZERO PUSH2 0x169B JUMPI PUSH2 0x169A PUSH2 0x15BE JUMP JUMPDEST JUMPDEST PUSH0 DUP4 ADD CALLDATALOAD PUSH8 0xFFFFFFFFFFFFFFFF DUP2 GT ISZERO PUSH2 0x16B8 JUMPI PUSH2 0x16B7 PUSH2 0x15C2 JUMP JUMPDEST JUMPDEST PUSH2 0x16C4 DUP6 DUP3 DUP7 ADD PUSH2 0x1630 JUMP JUMPDEST SWAP3 POP SWAP3 POP POP SWAP3 POP SWAP3 SWAP1 POP JUMP JUMPDEST PUSH0 DUP2 MLOAD SWAP1 POP SWAP2 SWAP1 POP JUMP JUMPDEST PUSH0 DUP3 DUP3 MSTORE PUSH1 0x20 DUP3 ADD SWAP1 POP SWAP3 SWAP2 POP POP JUMP JUMPDEST PUSH0 DUP2 SWAP1 POP PUSH1 0x20 DUP3 ADD SWAP1 POP SWAP2 SWAP1 POP JUMP JUMPDEST PUSH0 DUP2 MLOAD SWAP1 POP SWAP2 SWAP1 POP JUMP JUMPDEST PUSH0 DUP3 DUP3 MSTORE PUSH1 0x20 DUP3 ADD SWAP1 POP SWAP3 SWAP2 POP POP JUMP JUMPDEST PUSH0 JUMPDEST DUP4 DUP2 LT ISZERO PUSH2 0x1730 JUMPI DUP1 DUP3 ADD MLOAD DUP2 DUP5 ADD MSTORE PUSH1 0x20 DUP2 ADD SWAP1 POP PUSH2 0x1715 JUMP JUMPDEST PUSH0 DUP5 DUP5 ADD MSTORE POP POP POP POP JUMP JUMPDEST PUSH0 PUSH1 0x1F NOT PUSH1 0x1F DUP4 ADD AND SWAP1 POP SWAP2 SWAP1 POP JUMP JUMPDEST PUSH0 PUSH2 0x1755 DUP3 PUSH2 0x16F9 JUMP JUMPDEST PUSH2 0x175F DUP2 DUP6 PUSH2 0x1703 JUMP JUMPDEST SWAP4 POP PUSH2 0x176F DUP2 DUP6 PUSH1 0x20 DUP7 ADD PUSH2 0x1713 JUMP JUMPDEST PUSH2 0x1778 DUP2 PUSH2 0x173B JUMP JUMPDEST DUP5 ADD SWAP2 POP POP SWAP3 SWAP2 POP POP JUMP JUMPDEST PUSH2 0x178C DUP2 PUSH2 0x15C6 JUMP JUMPDEST DUP3 MSTORE POP POP JUMP JUMPDEST PUSH0 PUSH1 0x40 DUP4 ADD PUSH0 DUP4 ADD MLOAD DUP5 DUP3 SUB PUSH0 DUP7 ADD MSTORE PUSH2 0x17AC DUP3 DUP3 PUSH2 0x174B JUMP JUMPDEST SWAP2 POP POP PUSH1 0x20 DUP4 ADD MLOAD PUSH2 0x17C1 PUSH1 0x20 DUP7 ADD DUP3 PUSH2 0x1783 JUMP JUMPDEST POP DUP1 SWAP2 POP POP SWAP3 SWAP2 POP POP JUMP JUMPDEST PUSH0 PUSH2 0x17D7 DUP4 DUP4 PUSH2 0x1792 JUMP JUMPDEST SWAP1 POP SWAP3 SWAP2 POP POP JUMP JUMPDEST PUSH0 PUSH1 0x20 DUP3 ADD SWAP1 POP SWAP2 SWAP1 POP JUMP JUMPDEST PUSH0 PUSH2 0x17F5 DUP3 PUSH2 0x16D0 JUMP JUMPDEST PUSH2 0x17FF DUP2 DUP6 PUSH2 0x16DA JUMP JUMPDEST SWAP4 POP DUP4 PUSH1 0x20 DUP3 MUL DUP6 ADD PUSH2 0x1811 DUP6 PUSH2 0x16EA JUMP JUMPDEST DUP1 PUSH0 JUMPDEST DUP6 DUP2 LT ISZERO PUSH2 0x184C JUMPI DUP5 DUP5 SUB DUP10 MSTORE DUP2 MLOAD PUSH2 0x182D DUP6 DUP3 PUSH2 0x17CC JUMP JUMPDEST SWAP5 POP PUSH2 0x1838 DUP4 PUSH2 0x17DF JUMP JUMPDEST SWAP3 POP PUSH1 0x20 DUP11 ADD SWAP10 POP POP PUSH1 0x1 DUP2 ADD SWAP1 POP PUSH2 0x1814 JUMP JUMPDEST POP DUP3 SWAP8 POP DUP8 SWAP6 POP POP POP POP POP POP SWAP3 SWAP2 POP POP JUMP JUMPDEST PUSH0 PUSH1 0x20 DUP3 ADD SWAP1 POP DUP2 DUP2 SUB PUSH0 DUP4 ADD MSTORE PUSH2 0x1876 DUP2 DUP5 PUSH2 0x17EB JUMP JUMPDEST SWAP1 POP SWAP3 SWAP2 POP POP JUMP JUMPDEST PUSH0 PUSH20 0xFFFFFFFFFFFFFFFFFFFFFFFFFFFFFFFFFFFFFFFF DUP3 AND SWAP1 POP SWAP2 SWAP1 POP JUMP JUMPDEST PUSH0 PUSH2 0x18A7 DUP3 PUSH2 0x187E JUMP JUMPDEST SWAP1 POP SWAP2 SWAP1 POP JUMP JUMPDEST PUSH2 0x18B7 DUP2 PUSH2 0x189D JUMP JUMPDEST DUP3 MSTORE POP POP JUMP JUMPDEST PUSH0 PUSH1 0x20 DUP3 ADD SWAP1 POP PUSH2 0x18D0 PUSH0 DUP4 ADD DUP5 PUSH2 0x18AE JUMP JUMPDEST SWAP3 SWAP2 POP POP JUMP JUMPDEST PUSH0 PUSH1 0x40 DUP4 ADD PUSH0 DUP4 ADD MLOAD DUP5 DUP3 SUB PUSH0 DUP7 ADD MSTORE PUSH2 0x18F0 DUP3 DUP3 PUSH2 0x174B JUMP JUMPDEST SWAP2 POP POP PUSH1 0x20 DUP4 ADD MLOAD PUSH2 0x1905 PUSH1 0x20 DUP7 ADD DUP3 PUSH2 0x1783 JUMP JUMPDEST POP DUP1 SWAP2 POP POP SWAP3 SWAP2 POP POP JUMP JUMPDEST PUSH0 PUSH1 0x20 DUP3 ADD SWAP1 POP DUP2 DUP2 SUB PUSH0 DUP4 ADD MSTORE PUSH2 0x1928 DUP2 DUP5 PUSH2 0x18D6 JUMP JUMPDEST SWAP1 POP SWAP3 SWAP2 POP POP JUMP JUMPDEST PUSH2 0x1939 DUP2 PUSH2 0x189D JUMP JUMPDEST DUP2 EQ PUSH2 0x1943 JUMPI PUSH0 DUP1 REVERT JUMPDEST POP JUMP JUMPDEST PUSH0 DUP2 CALLDATALOAD SWAP1 POP PUSH2 0x1954 DUP2 PUSH2 0x1930 JUMP JUMPDEST SWAP3 SWAP2 POP POP JUMP JUMPDEST PUSH0 PUSH1 0x20 DUP3 DUP5 SUB SLT ISZERO PUSH2 0x196F JUMPI PUSH2 0x196E PUSH2 0x15BE JUMP JUMPDEST JUMPDEST PUSH0 PUSH2 0x197C DUP5 DUP3 DUP6 ADD PUSH2 0x1946 JUMP JUMPDEST SWAP2 POP POP SWAP3 SWAP2 POP POP JUMP JUMPDEST PUSH0 DUP2 ISZERO ISZERO SWAP1 POP SWAP2 SWAP1 POP JUMP JUMPDEST PUSH2 0x1999 DUP2 PUSH2 0x1985 JUMP JUMPDEST DUP3 MSTORE POP POP JUMP JUMPDEST PUSH1 0x60 DUP3 ADD PUSH0 DUP3 ADD MLOAD PUSH2 0x19B3 PUSH0 DUP6 ADD DUP3 PUSH2 0x1990 JUMP JUMPDEST POP PUSH1 0x20 DUP3 ADD MLOAD PUSH2 0x19C6 PUSH1 0x20 DUP6 ADD DUP3 PUSH2 0x1990 JUMP JUMPDEST POP PUSH1 0x40 DUP3 ADD MLOAD PUSH2 0x19D9 PUSH1 0x40 DUP6 ADD DUP3 PUSH2 0x1783 JUMP JUMPDEST POP POP POP POP JUMP JUMPDEST PUSH0 PUSH1 0x60 DUP3 ADD SWAP1 POP PUSH2 0x19F2 PUSH0 DUP4 ADD DUP5 PUSH2 0x199F JUMP JUMPDEST SWAP3 SWAP2 POP POP JUMP JUMPDEST PUSH0 DUP3 DUP3 MSTORE PUSH1 0x20 DUP3 ADD SWAP1 POP SWAP3 SWAP2 POP POP JUMP JUMPDEST PUSH32 0x596F757220617265206E6F74207265676973746572656420696E206C69737400 PUSH0 DUP3 ADD MSTORE POP JUMP JUMPDEST PUSH0 PUSH2 0x1A3C PUSH1 0x1F DUP4 PUSH2 0x19F8 JUMP JUMPDEST SWAP2 POP PUSH2 0x1A47 DUP3 PUSH2 0x1A08 JUMP JUMPDEST PUSH1 0x20 DUP3 ADD SWAP1 POP SWAP2 SWAP1 POP JUMP JUMPDEST PUSH0 PUSH1 0x20 DUP3 ADD SWAP1 POP DUP2 DUP2 SUB PUSH0 DUP4 ADD MSTORE PUSH2 0x1A69 DUP2 PUSH2 0x1A30 JUMP JUMPDEST SWAP1 POP SWAP2 SWAP1 POP JUMP JUMPDEST PUSH32 0x4E487B7100000000000000000000000000000000000000000000000000000000 PUSH0 MSTORE PUSH1 0x21 PUSH1 0x4 MSTORE PUSH1 0x24 PUSH0 REVERT JUMPDEST PUSH32 0x4974206D75737420626520766F74696E672073657373696F6E00000000000000 PUSH0 DUP3 ADD MSTORE POP JUMP JUMPDEST PUSH0 PUSH2 0x1AD1 PUSH1 0x19 DUP4 PUSH2 0x19F8 JUMP JUMPDEST SWAP2 POP PUSH2 0x1ADC DUP3 PUSH2 0x1A9D JUMP JUMPDEST PUSH1 0x20 DUP3 ADD SWAP1 POP SWAP2 SWAP1 POP JUMP JUMPDEST PUSH0 PUSH1 0x20 DUP3 ADD SWAP1 POP DUP2 DUP2 SUB PUSH0 DUP4 ADD MSTORE PUSH2 0x1AFE DUP2 PUSH2 0x1AC5 JUMP JUMPDEST SWAP1 POP SWAP2 SWAP1 POP JUMP JUMPDEST PUSH32 0x596F75206861766520616C726561647920766F74656400000000000000000000 PUSH0 DUP3 ADD MSTORE POP JUMP JUMPDEST PUSH0 PUSH2 0x1B39 PUSH1 0x16 DUP4 PUSH2 0x19F8 JUMP JUMPDEST SWAP2 POP PUSH2 0x1B44 DUP3 PUSH2 0x1B05 JUMP JUMPDEST PUSH1 0x20 DUP3 ADD SWAP1 POP SWAP2 SWAP1 POP JUMP JUMPDEST PUSH0 PUSH1 0x20 DUP3 ADD SWAP1 POP DUP2 DUP2 SUB PUSH0 DUP4 ADD MSTORE PUSH2 0x1B66 DUP2 PUSH2 0x1B2D JUMP JUMPDEST SWAP1 POP SWAP2 SWAP1 POP JUMP JUMPDEST PUSH32 0x546869732070726F706F73616C20646F65736E27742065786973740000000000 PUSH0 DUP3 ADD MSTORE POP JUMP JUMPDEST PUSH0 PUSH2 0x1BA1 PUSH1 0x1B DUP4 PUSH2 0x19F8 JUMP JUMPDEST SWAP2 POP PUSH2 0x1BAC DUP3 PUSH2 0x1B6D JUMP JUMPDEST PUSH1 0x20 DUP3 ADD SWAP1 POP SWAP2 SWAP1 POP JUMP JUMPDEST PUSH0 PUSH1 0x20 DUP3 ADD SWAP1 POP DUP2 DUP2 SUB PUSH0 DUP4 ADD MSTORE PUSH2 0x1BCE DUP2 PUSH2 0x1B95 JUMP JUMPDEST SWAP1 POP SWAP2 SWAP1 POP JUMP JUMPDEST PUSH32 0x4E487B7100000000000000000000000000000000000000000000000000000000 PUSH0 MSTORE PUSH1 0x32 PUSH1 0x4 MSTORE PUSH1 0x24 PUSH0 REVERT JUMPDEST PUSH32 0x4E487B7100000000000000000000000000000000000000000000000000000000 PUSH0 MSTORE PUSH1 0x11 PUSH1 0x4 MSTORE PUSH1 0x24 PUSH0 REVERT JUMPDEST PUSH0 PUSH2 0x1C39 DUP3 PUSH2 0x15C6 JUMP JUMPDEST SWAP2 POP PUSH2 0x1C44 DUP4 PUSH2 0x15C6 JUMP JUMPDEST SWAP3 POP DUP3 DUP3 ADD SWAP1 POP DUP1 DUP3 GT ISZERO PUSH2 0x1C5C JUMPI PUSH2 0x1C5B PUSH2 0x1C02 JUMP JUMPDEST JUMPDEST SWAP3 SWAP2 POP POP JUMP JUMPDEST PUSH2 0x1C6B DUP2 PUSH2 0x15C6 JUMP JUMPDEST DUP3 MSTORE POP POP JUMP JUMPDEST PUSH0 PUSH1 0x40 DUP3 ADD SWAP1 POP PUSH2 0x1C84 PUSH0 DUP4 ADD DUP6 PUSH2 0x18AE JUMP JUMPDEST PUSH2 0x1C91 PUSH1 0x20 DUP4 ADD DUP5 PUSH2 0x1C62 JUMP JUMPDEST SWAP4 SWAP3 POP POP POP JUMP JUMPDEST PUSH32 0x4974206D757374206265207265676973746572696E6720766F74657220626566 PUSH0 DUP3 ADD MSTORE PUSH32 0x6F72650000000000000000000000000000000000000000000000000000000000 PUSH1 0x20 DUP3 ADD MSTORE POP JUMP JUMPDEST PUSH0 PUSH2 0x1CF2 PUSH1 0x23 DUP4 PUSH2 0x19F8 JUMP JUMPDEST SWAP2 POP PUSH2 0x1CFD DUP3 PUSH2 0x1C98 JUMP JUMPDEST PUSH1 0x40 DUP3 ADD SWAP1 POP SWAP2 SWAP1 POP JUMP JUMPDEST PUSH0 PUSH1 0x20 DUP3 ADD SWAP1 POP DUP2 DUP2 SUB PUSH0 DUP4 ADD MSTORE PUSH2 0x1D1F DUP2 PUSH2 0x1CE6 JUMP JUMPDEST SWAP1 POP SWAP2 SWAP1 POP JUMP JUMPDEST PUSH1 0x6 DUP2 LT PUSH2 0x1D37 JUMPI PUSH2 0x1D36 PUSH2 0x1A70 JUMP JUMPDEST JUMPDEST POP JUMP JUMPDEST PUSH0 DUP2 SWAP1 POP PUSH2 0x1D47 DUP3 PUSH2 0x1D26 JUMP JUMPDEST SWAP2 SWAP1 POP JUMP JUMPDEST PUSH0 PUSH2 0x1D56 DUP3 PUSH2 0x1D3A JUMP JUMPDEST SWAP1 POP SWAP2 SWAP1 POP JUMP JUMPDEST PUSH2 0x1D66 DUP2 PUSH2 0x1D4C JUMP JUMPDEST DUP3 MSTORE POP POP JUMP JUMPDEST PUSH0 PUSH1 0x40 DUP3 ADD SWAP1 POP PUSH2 0x1D7F PUSH0 DUP4 ADD DUP6 PUSH2 0x1D5D JUMP JUMPDEST PUSH2 0x1D8C PUSH1 0x20 DUP4 ADD DUP5 PUSH2 0x1D5D JUMP JUMPDEST SWAP4 SWAP3 POP POP POP JUMP JUMPDEST PUSH32 0x4974206D7573742062652070726F706F73616C2073657373696F6E0000000000 PUSH0 DUP3 ADD MSTORE POP JUMP JUMPDEST PUSH0 PUSH2 0x1DC7 PUSH1 0x1B DUP4 PUSH2 0x19F8 JUMP JUMPDEST SWAP2 POP PUSH2 0x1DD2 DUP3 PUSH2 0x1D93 JUMP JUMPDEST PUSH1 0x20 DUP3 ADD SWAP1 POP SWAP2 SWAP1 POP JUMP JUMPDEST PUSH0 PUSH1 0x20 DUP3 ADD SWAP1 POP DUP2 DUP2 SUB PUSH0 DUP4 ADD MSTORE PUSH2 0x1DF4 DUP2 PUSH2 0x1DBB JUMP JUMPDEST SWAP1 POP SWAP2 SWAP1 POP JUMP JUMPDEST PUSH32 0x4E487B7100000000000000000000000000000000000000000000000000000000 PUSH0 MSTORE PUSH1 0x41 PUSH1 0x4 MSTORE PUSH1 0x24 PUSH0 REVERT JUMPDEST PUSH32 0x4E487B7100000000000000000000000000000000000000000000000000000000 PUSH0 MSTORE PUSH1 0x22 PUSH1 0x4 MSTORE PUSH1 0x24 PUSH0 REVERT JUMPDEST PUSH0 PUSH1 0x2 DUP3 DIV SWAP1 POP PUSH1 0x1 DUP3 AND DUP1 PUSH2 0x1E6C JUMPI PUSH1 0x7F DUP3 AND SWAP2 POP JUMPDEST PUSH1 0x20 DUP3 LT DUP2 SUB PUSH2 0x1E7F JUMPI PUSH2 0x1E7E PUSH2 0x1E28 JUMP JUMPDEST JUMPDEST POP SWAP2 SWAP1 POP JUMP JUMPDEST PUSH0 DUP2 SWAP1 POP DUP2 PUSH0 MSTORE PUSH1 0x20 PUSH0 KECCAK256 SWAP1 POP SWAP2 SWAP1 POP JUMP JUMPDEST PUSH0 PUSH1 0x20 PUSH1 0x1F DUP4 ADD DIV SWAP1 POP SWAP2 SWAP1 POP JUMP JUMPDEST PUSH0 DUP3 DUP3 SHL SWAP1 POP SWAP3 SWAP2 POP POP JUMP JUMPDEST PUSH0 PUSH1 0x8 DUP4 MUL PUSH2 0x1EE1 PUSH32 0xFFFFFFFFFFFFFFFFFFFFFFFFFFFFFFFFFFFFFFFFFFFFFFFFFFFFFFFFFFFFFFFF DUP3 PUSH2 0x1EA6 JUMP JUMPDEST PUSH2 0x1EEB DUP7 DUP4 PUSH2 0x1EA6 JUMP JUMPDEST SWAP6 POP DUP1 NOT DUP5 AND SWAP4 POP DUP1 DUP7 AND DUP5 OR SWAP3 POP POP POP SWAP4 SWAP3 POP POP POP JUMP JUMPDEST PUSH0 DUP2 SWAP1 POP SWAP2 SWAP1 POP JUMP JUMPDEST PUSH0 PUSH2 0x1F26 PUSH2 0x1F21 PUSH2 0x1F1C DUP5 PUSH2 0x15C6 JUMP JUMPDEST PUSH2 0x1F03 JUMP JUMPDEST PUSH2 0x15C6 JUMP JUMPDEST SWAP1 POP SWAP2 SWAP1 POP JUMP JUMPDEST PUSH0 DUP2 SWAP1 POP SWAP2 SWAP1 POP JUMP JUMPDEST PUSH2 0x1F3F DUP4 PUSH2 0x1F0C JUMP JUMPDEST PUSH2 0x1F53 PUSH2 0x1F4B DUP3 PUSH2 0x1F2D JUMP JUMPDEST DUP5 DUP5 SLOAD PUSH2 0x1EB2 JUMP JUMPDEST DUP3 SSTORE POP POP POP POP JUMP JUMPDEST PUSH0 SWAP1 JUMP JUMPDEST PUSH2 0x1F67 PUSH2 0x1F5B JUMP JUMPDEST PUSH2 0x1F72 DUP2 DUP5 DUP5 PUSH2 0x1F36 JUMP JUMPDEST POP POP POP JUMP JUMPDEST JUMPDEST DUP2 DUP2 LT ISZERO PUSH2 0x1F95 JUMPI PUSH2 0x1F8A PUSH0 DUP3 PUSH2 0x1F5F JUMP JUMPDEST PUSH1 0x1 DUP2 ADD SWAP1 POP PUSH2 0x1F78 JUMP JUMPDEST POP POP JUMP JUMPDEST PUSH1 0x1F DUP3 GT ISZERO PUSH2 0x1FDA JUMPI PUSH2 0x1FAB DUP2 PUSH2 0x1E85 JUMP JUMPDEST PUSH2 0x1FB4 DUP5 PUSH2 0x1E97 JUMP JUMPDEST DUP2 ADD PUSH1 0x20 DUP6 LT ISZERO PUSH2 0x1FC3 JUMPI DUP2 SWAP1 POP JUMPDEST PUSH2 0x1FD7 PUSH2 0x1FCF DUP6 PUSH2 0x1E97 JUMP JUMPDEST DUP4 ADD DUP3 PUSH2 0x1F77 JUMP JUMPDEST POP POP JUMPDEST POP POP POP JUMP JUMPDEST PUSH0 DUP3 DUP3 SHR SWAP1 POP SWAP3 SWAP2 POP POP JUMP JUMPDEST PUSH0 PUSH2 0x1FFA PUSH0 NOT DUP5 PUSH1 0x8 MUL PUSH2 0x1FDF JUMP JUMPDEST NOT DUP1 DUP4 AND SWAP2 POP POP SWAP3 SWAP2 POP POP JUMP JUMPDEST PUSH0 PUSH2 0x2012 DUP4 DUP4 PUSH2 0x1FEB JUMP JUMPDEST SWAP2 POP DUP3 PUSH1 0x2 MUL DUP3 OR SWAP1 POP SWAP3 SWAP2 POP POP JUMP JUMPDEST PUSH2 0x202B DUP3 PUSH2 0x16F9 JUMP JUMPDEST PUSH8 0xFFFFFFFFFFFFFFFF DUP2 GT ISZERO PUSH2 0x2044 JUMPI PUSH2 0x2043 PUSH2 0x1DFB JUMP JUMPDEST JUMPDEST PUSH2 0x204E DUP3 SLOAD PUSH2 0x1E55 JUMP JUMPDEST PUSH2 0x2059 DUP3 DUP3 DUP6 PUSH2 0x1F99 JUMP JUMPDEST PUSH0 PUSH1 0x20 SWAP1 POP PUSH1 0x1F DUP4 GT PUSH1 0x1 DUP2 EQ PUSH2 0x208A JUMPI PUSH0 DUP5 ISZERO PUSH2 0x2078 JUMPI DUP3 DUP8 ADD MLOAD SWAP1 POP JUMPDEST PUSH2 0x2082 DUP6 DUP3 PUSH2 0x2007 JUMP JUMPDEST DUP7 SSTORE POP PUSH2 0x20E9 JUMP JUMPDEST PUSH1 0x1F NOT DUP5 AND PUSH2 0x2098 DUP7 PUSH2 0x1E85 JUMP JUMPDEST PUSH0 JUMPDEST DUP3 DUP2 LT ISZERO PUSH2 0x20BF JUMPI DUP5 DUP10 ADD MLOAD DUP3 SSTORE PUSH1 0x1 DUP3 ADD SWAP2 POP PUSH1 0x20 DUP6 ADD SWAP5 POP PUSH1 0x20 DUP2 ADD SWAP1 POP PUSH2 0x209A JUMP JUMPDEST DUP7 DUP4 LT ISZERO PUSH2 0x20DC JUMPI DUP5 DUP10 ADD MLOAD PUSH2 0x20D8 PUSH1 0x1F DUP10 AND DUP3 PUSH2 0x1FEB JUMP JUMPDEST DUP4 SSTORE POP JUMPDEST PUSH1 0x1 PUSH1 0x2 DUP9 MUL ADD DUP9 SSTORE POP POP POP JUMPDEST POP POP POP POP POP POP JUMP JUMPDEST PUSH0 PUSH1 0x20 DUP3 ADD SWAP1 POP PUSH2 0x2104 PUSH0 DUP4 ADD DUP5 PUSH2 0x1C62 JUMP JUMPDEST SWAP3 SWAP2 POP POP JUMP JUMPDEST PUSH32 0x4974206D7573742062652074686520656E64206F662070726F706F73616C2062 PUSH0 DUP3 ADD MSTORE PUSH32 0x65666F7265000000000000000000000000000000000000000000000000000000 PUSH1 0x20 DUP3 ADD MSTORE POP JUMP JUMPDEST PUSH0 PUSH2 0x2164 PUSH1 0x25 DUP4 PUSH2 0x19F8 JUMP JUMPDEST SWAP2 POP PUSH2 0x216F DUP3 PUSH2 0x210A JUMP JUMPDEST PUSH1 0x40 DUP3 ADD SWAP1 POP SWAP2 SWAP1 POP JUMP JUMPDEST PUSH0 PUSH1 0x20 DUP3 ADD SWAP1 POP DUP2 DUP2 SUB PUSH0 DUP4 ADD MSTORE PUSH2 0x2191 DUP2 PUSH2 0x2158 JUMP JUMPDEST SWAP1 POP SWAP2 SWAP1 POP JUMP JUMPDEST PUSH32 0x5468657265206172656E27742070726F706F73616C0000000000000000000000 PUSH0 DUP3 ADD MSTORE POP JUMP JUMPDEST PUSH0 PUSH2 0x21CC PUSH1 0x15 DUP4 PUSH2 0x19F8 JUMP JUMPDEST SWAP2 POP PUSH2 0x21D7 DUP3 PUSH2 0x2198 JUMP JUMPDEST PUSH1 0x20 DUP3 ADD SWAP1 POP SWAP2 SWAP1 POP JUMP JUMPDEST PUSH0 PUSH1 0x20 DUP3 ADD SWAP1 POP DUP2 DUP2 SUB PUSH0 DUP4 ADD MSTORE PUSH2 0x21F9 DUP2 PUSH2 0x21C0 JUMP JUMPDEST SWAP1 POP SWAP2 SWAP1 POP JUMP JUMPDEST PUSH32 0x4974206D7573742062652074616C6C6965642073657373696F6E000000000000 PUSH0 DUP3 ADD MSTORE POP JUMP JUMPDEST PUSH0 PUSH2 0x2234 PUSH1 0x1A DUP4 PUSH2 0x19F8 JUMP JUMPDEST SWAP2 POP PUSH2 0x223F DUP3 PUSH2 0x2200 JUMP JUMPDEST PUSH1 0x20 DUP3 ADD SWAP1 POP SWAP2 SWAP1 POP JUMP JUMPDEST PUSH0 PUSH1 0x20 DUP3 ADD SWAP1 POP DUP2 DUP2 SUB PUSH0 DUP4 ADD MSTORE PUSH2 0x2261 DUP2 PUSH2 0x2228 JUMP JUMPDEST SWAP1 POP SWAP2 SWAP1 POP JUMP JUMPDEST PUSH32 0x4974206D7573742062652074686520656E64206F66207468652073657373696F PUSH0 DUP3 ADD MSTORE PUSH32 0x6E00000000000000000000000000000000000000000000000000000000000000 PUSH1 0x20 DUP3 ADD MSTORE POP JUMP JUMPDEST PUSH0 PUSH2 0x22C2 PUSH1 0x21 DUP4 PUSH2 0x19F8 JUMP JUMPDEST SWAP2 POP PUSH2 0x22CD DUP3 PUSH2 0x2268 JUMP JUMPDEST PUSH1 0x40 DUP3 ADD SWAP1 POP SWAP2 SWAP1 POP JUMP JUMPDEST PUSH0 PUSH1 0x20 DUP3 ADD SWAP1 POP DUP2 DUP2 SUB PUSH0 DUP4 ADD MSTORE PUSH2 0x22EF DUP2 PUSH2 0x22B6 JUMP JUMPDEST SWAP1 POP SWAP2 SWAP1 POP JUMP JUMPDEST PUSH0 PUSH2 0x2300 DUP3 PUSH2 0x15C6 JUMP JUMPDEST SWAP2 POP PUSH32 0xFFFFFFFFFFFFFFFFFFFFFFFFFFFFFFFFFFFFFFFFFFFFFFFFFFFFFFFFFFFFFFFF DUP3 SUB PUSH2 0x2332 JUMPI PUSH2 0x2331 PUSH2 0x1C02 JUMP JUMPDEST JUMPDEST PUSH1 0x1 DUP3 ADD SWAP1 POP SWAP2 SWAP1 POP JUMP JUMPDEST PUSH32 0x5468697320706572736F6E206861736E277420766F7465640000000000000000 PUSH0 DUP3 ADD MSTORE POP JUMP JUMPDEST PUSH0 PUSH2 0x2371 PUSH1 0x18 DUP4 PUSH2 0x19F8 JUMP JUMPDEST SWAP2 POP PUSH2 0x237C DUP3 PUSH2 0x233D JUMP JUMPDEST PUSH1 0x20 DUP3 ADD SWAP1 POP SWAP2 SWAP1 POP JUMP JUMPDEST PUSH0 PUSH1 0x20 DUP3 ADD SWAP1 POP DUP2 DUP2 SUB PUSH0 DUP4 ADD MSTORE PUSH2 0x239E DUP2 PUSH2 0x2365 JUMP JUMPDEST SWAP1 POP SWAP2 SWAP1 POP JUMP JUMPDEST PUSH32 0x4974206D757374206265207265676973746572696E6720766F74657200000000 PUSH0 DUP3 ADD MSTORE POP JUMP JUMPDEST PUSH0 PUSH2 0x23D9 PUSH1 0x1C DUP4 PUSH2 0x19F8 JUMP JUMPDEST SWAP2 POP PUSH2 0x23E4 DUP3 PUSH2 0x23A5 JUMP JUMPDEST PUSH1 0x20 DUP3 ADD SWAP1 POP SWAP2 SWAP1 POP JUMP JUMPDEST PUSH0 PUSH1 0x20 DUP3 ADD SWAP1 POP DUP2 DUP2 SUB PUSH0 DUP4 ADD MSTORE PUSH2 0x2406 DUP2 PUSH2 0x23CD JUMP JUMPDEST SWAP1 POP SWAP2 SWAP1 POP JUMP JUMPDEST PUSH32 0x54686973206164647265737320697320616C7265616479207265676973746572 PUSH0 DUP3 ADD MSTORE PUSH32 0x6564000000000000000000000000000000000000000000000000000000000000 PUSH1 0x20 DUP3 ADD MSTORE POP JUMP JUMPDEST PUSH0 PUSH2 0x2467 PUSH1 0x22 DUP4 PUSH2 0x19F8 JUMP JUMPDEST SWAP2 POP PUSH2 0x2472 DUP3 PUSH2 0x240D JUMP JUMPDEST PUSH1 0x40 DUP3 ADD SWAP1 POP SWAP2 SWAP1 POP JUMP JUMPDEST PUSH0 PUSH1 0x20 DUP3 ADD SWAP1 POP DUP2 DUP2 SUB PUSH0 DUP4 ADD MSTORE PUSH2 0x2494 DUP2 PUSH2 0x245B JUMP JUMPDEST SWAP1 POP SWAP2 SWAP1 POP JUMP INVALID LOG2 PUSH5 0x6970667358 0x22 SLT KECCAK256 0xE0 0xE8 MUL 0xC2 0xCD 0xEC 0xD SWAP2 PC SWAP14 DELEGATECALL SDIV 0xAC 0xC8 PUSH16 0x9CB1D9B2B0E30D06DA22AD933027E82F JUMP PUSH5 0x736F6C6343 STOP ADDMOD EQ STOP CALLER "
				},
				"gasEstimates": {
					"creation": {
						"codeDepositCost": "1885000",
						"executionCost": "infinite",
						"totalCost": "infinite"
					},
					"external": {
						"addProposal(string)": "infinite",
						"addVoter(address)": "infinite",
						"endProposal()": "infinite",
						"endVote()": "infinite",
						"getProposals()": "infinite",
						"getVoteTo(address)": "infinite",
						"getWinner()": "infinite",
						"owner()": "2604",
						"renounceOwnership()": "infinite",
						"startProposal()": "infinite",
						"startVote()": "infinite",
						"talliedVote()": "infinite",
						"transferOwnership(address)": "infinite",
						"vote(uint256)": "infinite"
					}
				},
				"methodIdentifiers": {
					"addProposal(string)": "2fdae3c5",
					"addVoter(address)": "f4ab9adf",
					"endProposal()": "98f6560b",
					"endVote()": "b9223946",
					"getProposals()": "62564c48",
					"getVoteTo(address)": "a587f077",
					"getWinner()": "8e7ea5b2",
					"owner()": "8da5cb5b",
					"renounceOwnership()": "715018a6",
					"startProposal()": "274da81f",
					"startVote()": "4c0a6af0",
					"talliedVote()": "9c6a46c4",
					"transferOwnership(address)": "f2fde38b",
					"vote(uint256)": "0121b93f"
				}
			},
			"storageLayout": {
				"storage": [
					{
						"astId": 8,
						"contract": "contracts/Voting.sol:Voting",
						"label": "_owner",
						"offset": 0,
						"slot": "0",
						"type": "t_address"
					},
					{
						"astId": 236,
						"contract": "contracts/Voting.sol:Voting",
						"label": "whiteList",
						"offset": 0,
						"slot": "1",
						"type": "t_mapping(t_address,t_struct(Voter)197_storage)"
					},
					{
						"astId": 240,
						"contract": "contracts/Voting.sol:Voting",
						"label": "proposals",
						"offset": 0,
						"slot": "2",
						"type": "t_array(t_struct(Proposal)202_storage)dyn_storage"
					},
					{
						"astId": 243,
						"contract": "contracts/Voting.sol:Voting",
						"label": "status",
						"offset": 0,
						"slot": "3",
						"type": "t_enum(WorkflowStatus)209"
					},
					{
						"astId": 245,
						"contract": "contracts/Voting.sol:Voting",
						"label": "winningProposalId",
						"offset": 0,
						"slot": "4",
						"type": "t_uint256"
					}
				],
				"types": {
					"t_address": {
						"encoding": "inplace",
						"label": "address",
						"numberOfBytes": "20"
					},
					"t_array(t_struct(Proposal)202_storage)dyn_storage": {
						"base": "t_struct(Proposal)202_storage",
						"encoding": "dynamic_array",
						"label": "struct Voting.Proposal[]",
						"numberOfBytes": "32"
					},
					"t_bool": {
						"encoding": "inplace",
						"label": "bool",
						"numberOfBytes": "1"
					},
					"t_enum(WorkflowStatus)209": {
						"encoding": "inplace",
						"label": "enum Voting.WorkflowStatus",
						"numberOfBytes": "1"
					},
					"t_mapping(t_address,t_struct(Voter)197_storage)": {
						"encoding": "mapping",
						"key": "t_address",
						"label": "mapping(address => struct Voting.Voter)",
						"numberOfBytes": "32",
						"value": "t_struct(Voter)197_storage"
					},
					"t_string_storage": {
						"encoding": "bytes",
						"label": "string",
						"numberOfBytes": "32"
					},
					"t_struct(Proposal)202_storage": {
						"encoding": "inplace",
						"label": "struct Voting.Proposal",
						"members": [
							{
								"astId": 199,
								"contract": "contracts/Voting.sol:Voting",
								"label": "description",
								"offset": 0,
								"slot": "0",
								"type": "t_string_storage"
							},
							{
								"astId": 201,
								"contract": "contracts/Voting.sol:Voting",
								"label": "voteCount",
								"offset": 0,
								"slot": "1",
								"type": "t_uint256"
							}
						],
						"numberOfBytes": "64"
					},
					"t_struct(Voter)197_storage": {
						"encoding": "inplace",
						"label": "struct Voting.Voter",
						"members": [
							{
								"astId": 192,
								"contract": "contracts/Voting.sol:Voting",
								"label": "isRegistered",
								"offset": 0,
								"slot": "0",
								"type": "t_bool"
							},
							{
								"astId": 194,
								"contract": "contracts/Voting.sol:Voting",
								"label": "hasVoted",
								"offset": 1,
								"slot": "0",
								"type": "t_bool"
							},
							{
								"astId": 196,
								"contract": "contracts/Voting.sol:Voting",
								"label": "votedProposalId",
								"offset": 0,
								"slot": "1",
								"type": "t_uint256"
							}
						],
						"numberOfBytes": "64"
					},
					"t_uint256": {
						"encoding": "inplace",
						"label": "uint256",
						"numberOfBytes": "32"
					}
				}
			},
			"userdoc": {
				"kind": "user",
				"methods": {
					"addProposal(string)": {
						"notice": "Fonction permettant d'ajouter une proposition à la liste"
					},
					"addVoter(address)": {
						"notice": "Fonction permettant d'ajouter d'un votant à la liste"
					},
					"endProposal()": {
						"notice": "Permet de terminer les propositions"
					},
					"endVote()": {
						"notice": "Permet de terminer les votes"
					},
					"getProposals()": {
						"notice": "Fonction permettant de regarder la liste des propositions "
					},
					"getVoteTo(address)": {
						"notice": "Fonction permettant de regarder le vote d'une personne "
					},
					"getWinner()": {
						"notice": "Get le winner "
					},
					"startProposal()": {
						"notice": "Permet de start les propositions"
					},
					"startVote()": {
						"notice": "Permet de start les votes"
					},
					"talliedVote()": {
						"notice": "Permet de rendre public les votes"
					},
					"vote(uint256)": {
						"notice": "Fonction permettant de voter pour une proposition et ajouter un vote à la proposition "
					}
				},
				"version": 1
			}
		}
	}
}