{
	"contracts/Voting.sol": {
		"Voting": {
			"abi": [
				{
					"inputs": [],
					"stateMutability": "nonpayable",
					"type": "constructor"
				},
				{
					"inputs": [
						{
							"internalType": "address",
							"name": "owner",
							"type": "address"
						}
					],
					"name": "OwnableInvalidOwner",
					"type": "error"
				},
				{
					"inputs": [
						{
							"internalType": "address",
							"name": "account",
							"type": "address"
						}
					],
					"name": "OwnableUnauthorizedAccount",
					"type": "error"
				},
				{
					"anonymous": false,
					"inputs": [
						{
							"indexed": true,
							"internalType": "address",
							"name": "previousOwner",
							"type": "address"
						},
						{
							"indexed": true,
							"internalType": "address",
							"name": "newOwner",
							"type": "address"
						}
					],
					"name": "OwnershipTransferred",
					"type": "event"
				},
				{
					"anonymous": false,
					"inputs": [
						{
							"indexed": false,
							"internalType": "uint256",
							"name": "proposalId",
							"type": "uint256"
						}
					],
					"name": "ProposalRegistered",
					"type": "event"
				},
				{
					"anonymous": false,
					"inputs": [
						{
							"indexed": false,
							"internalType": "address",
							"name": "voter",
							"type": "address"
						},
						{
							"indexed": false,
							"internalType": "uint256",
							"name": "proposalId",
							"type": "uint256"
						}
					],
					"name": "Voted",
					"type": "event"
				},
				{
					"anonymous": false,
					"inputs": [
						{
							"indexed": false,
							"internalType": "address",
							"name": "voterAddress",
							"type": "address"
						}
					],
					"name": "VoterRegistered",
					"type": "event"
				},
				{
					"anonymous": false,
					"inputs": [
						{
							"indexed": false,
							"internalType": "enum Voting.WorkflowStatus",
							"name": "previousStatus",
							"type": "uint8"
						},
						{
							"indexed": false,
							"internalType": "enum Voting.WorkflowStatus",
							"name": "newStatus",
							"type": "uint8"
						}
					],
					"name": "WorkflowStatusChange",
					"type": "event"
				},
				{
					"inputs": [
						{
							"internalType": "string",
							"name": "_description",
							"type": "string"
						}
					],
					"name": "addProposal",
					"outputs": [],
					"stateMutability": "nonpayable",
					"type": "function"
				},
				{
					"inputs": [
						{
							"internalType": "address",
							"name": "_address",
							"type": "address"
						}
					],
					"name": "addVoter",
					"outputs": [],
					"stateMutability": "nonpayable",
					"type": "function"
				},
				{
					"inputs": [],
					"name": "endProposal",
					"outputs": [],
					"stateMutability": "nonpayable",
					"type": "function"
				},
				{
					"inputs": [],
					"name": "endVote",
					"outputs": [],
					"stateMutability": "nonpayable",
					"type": "function"
				},
				{
					"inputs": [],
					"name": "getProposals",
					"outputs": [
						{
							"components": [
								{
									"internalType": "string",
									"name": "description",
									"type": "string"
								},
								{
									"internalType": "uint256",
									"name": "voteCount",
									"type": "uint256"
								}
							],
							"internalType": "struct Voting.Proposal[]",
							"name": "",
							"type": "tuple[]"
						}
					],
					"stateMutability": "view",
					"type": "function"
				},
				{
					"inputs": [
						{
							"internalType": "address",
							"name": "_address",
							"type": "address"
						}
					],
					"name": "getVoteTo",
					"outputs": [
						{
							"components": [
								{
									"internalType": "bool",
									"name": "isRegistered",
									"type": "bool"
								},
								{
									"internalType": "bool",
									"name": "hasVoted",
									"type": "bool"
								},
								{
									"internalType": "uint256",
									"name": "votedProposalId",
									"type": "uint256"
								}
							],
							"internalType": "struct Voting.Voter",
							"name": "",
							"type": "tuple"
						}
					],
					"stateMutability": "view",
					"type": "function"
				},
				{
					"inputs": [],
					"name": "getWinner",
					"outputs": [
						{
							"components": [
								{
									"internalType": "string",
									"name": "description",
									"type": "string"
								},
								{
									"internalType": "uint256",
									"name": "voteCount",
									"type": "uint256"
								}
							],
							"internalType": "struct Voting.Proposal",
							"name": "",
							"type": "tuple"
						}
					],
					"stateMutability": "view",
					"type": "function"
				},
				{
					"inputs": [],
					"name": "owner",
					"outputs": [
						{
							"internalType": "address",
							"name": "",
							"type": "address"
						}
					],
					"stateMutability": "view",
					"type": "function"
				},
				{
					"inputs": [],
					"name": "renounceOwnership",
					"outputs": [],
					"stateMutability": "nonpayable",
					"type": "function"
				},
				{
					"inputs": [],
					"name": "resetSession",
					"outputs": [],
					"stateMutability": "nonpayable",
					"type": "function"
				},
				{
					"inputs": [],
					"name": "startProposal",
					"outputs": [],
					"stateMutability": "nonpayable",
					"type": "function"
				},
				{
					"inputs": [],
					"name": "startVote",
					"outputs": [],
					"stateMutability": "nonpayable",
					"type": "function"
				},
				{
					"inputs": [],
					"name": "talliedVote",
					"outputs": [],
					"stateMutability": "nonpayable",
					"type": "function"
				},
				{
					"inputs": [
						{
							"internalType": "address",
							"name": "newOwner",
							"type": "address"
						}
					],
					"name": "transferOwnership",
					"outputs": [],
					"stateMutability": "nonpayable",
					"type": "function"
				},
				{
					"inputs": [
						{
							"internalType": "uint256",
							"name": "_id",
							"type": "uint256"
						}
					],
					"name": "vote",
					"outputs": [],
					"stateMutability": "nonpayable",
					"type": "function"
				}
			],
			"devdoc": {
				"errors": {
					"OwnableInvalidOwner(address)": [
						{
							"details": "The owner is not a valid owner account. (eg. `address(0)`)"
						}
					],
					"OwnableUnauthorizedAccount(address)": [
						{
							"details": "The caller account is not authorized to perform an operation."
						}
					]
				},
				"kind": "dev",
				"methods": {
					"addProposal(string)": {
						"params": {
							"_description": "string"
						}
					},
					"addVoter(address)": {
						"params": {
							"_address": "address"
						}
					},
					"getVoteTo(address)": {
						"params": {
							"_address": "address"
						}
					},
					"owner()": {
						"details": "Returns the address of the current owner."
					},
					"renounceOwnership()": {
						"details": "Leaves the contract without owner. It will not be possible to call `onlyOwner` functions. Can only be called by the current owner. NOTE: Renouncing ownership will leave the contract without an owner, thereby disabling any functionality that is only available to the owner."
					},
					"transferOwnership(address)": {
						"details": "Transfers ownership of the contract to a new account (`newOwner`). Can only be called by the current owner."
					},
					"vote(uint256)": {
						"params": {
							"_id": "uint"
						}
					}
				},
				"version": 1
			},
			"evm": {
				"assembly": "    /* \"contracts/Voting.sol\":111:5997  contract Voting is Ownable {... */\n  mstore(0x40, 0x80)\n    /* \"contracts/Voting.sol\":145:186  constructor() Ownable(msg.sender) {... */\n  callvalue\n  dup1\n  iszero\n  tag_1\n  jumpi\n  0x00\n  dup1\n  revert\ntag_1:\n  pop\n    /* \"contracts/Voting.sol\":167:177  msg.sender */\n  caller\n    /* \"@openzeppelin/contracts/access/Ownable.sol\":1297:1298  0 */\n  0x00\n    /* \"@openzeppelin/contracts/access/Ownable.sol\":1273:1299  initialOwner == address(0) */\n  0xffffffffffffffffffffffffffffffffffffffff\n  and\n    /* \"@openzeppelin/contracts/access/Ownable.sol\":1273:1285  initialOwner */\n  dup2\n    /* \"@openzeppelin/contracts/access/Ownable.sol\":1273:1299  initialOwner == address(0) */\n  0xffffffffffffffffffffffffffffffffffffffff\n  and\n  sub\n    /* \"@openzeppelin/contracts/access/Ownable.sol\":1269:1364  if (initialOwner == address(0)) {... */\n  tag_5\n  jumpi\n    /* \"@openzeppelin/contracts/access/Ownable.sol\":1350:1351  0 */\n  0x00\n    /* \"@openzeppelin/contracts/access/Ownable.sol\":1322:1353  OwnableInvalidOwner(address(0)) */\n  mload(0x40)\n  0x1e4fbdf700000000000000000000000000000000000000000000000000000000\n  dup2\n  mstore\n  0x04\n  add\n  tag_6\n  swap2\n  swap1\n  tag_7\n  jump\t// in\ntag_6:\n  mload(0x40)\n  dup1\n  swap2\n  sub\n  swap1\n  revert\n    /* \"@openzeppelin/contracts/access/Ownable.sol\":1269:1364  if (initialOwner == address(0)) {... */\ntag_5:\n    /* \"@openzeppelin/contracts/access/Ownable.sol\":1373:1405  _transferOwnership(initialOwner) */\n  tag_8\n    /* \"@openzeppelin/contracts/access/Ownable.sol\":1392:1404  initialOwner */\n  dup2\n    /* \"@openzeppelin/contracts/access/Ownable.sol\":1373:1391  _transferOwnership */\n  shl(0x20, tag_9)\n    /* \"@openzeppelin/contracts/access/Ownable.sol\":1373:1405  _transferOwnership(initialOwner) */\n  0x20\n  shr\n  jump\t// in\ntag_8:\n    /* \"@openzeppelin/contracts/access/Ownable.sol\":1225:1412  constructor(address initialOwner) {... */\n  pop\n    /* \"contracts/Voting.sol\":111:5997  contract Voting is Ownable {... */\n  jump(tag_11)\n    /* \"@openzeppelin/contracts/access/Ownable.sol\":2912:3099  function _transferOwnership(address newOwner) internal virtual {... */\ntag_9:\n    /* \"@openzeppelin/contracts/access/Ownable.sol\":2985:3001  address oldOwner */\n  0x00\n    /* \"@openzeppelin/contracts/access/Ownable.sol\":3004:3010  _owner */\n  dup1\n  0x00\n  swap1\n  sload\n  swap1\n  0x0100\n  exp\n  swap1\n  div\n  0xffffffffffffffffffffffffffffffffffffffff\n  and\n    /* \"@openzeppelin/contracts/access/Ownable.sol\":2985:3010  address oldOwner = _owner */\n  swap1\n  pop\n    /* \"@openzeppelin/contracts/access/Ownable.sol\":3029:3037  newOwner */\n  dup2\n    /* \"@openzeppelin/contracts/access/Ownable.sol\":3020:3026  _owner */\n  0x00\n  dup1\n    /* \"@openzeppelin/contracts/access/Ownable.sol\":3020:3037  _owner = newOwner */\n  0x0100\n  exp\n  dup2\n  sload\n  dup2\n  0xffffffffffffffffffffffffffffffffffffffff\n  mul\n  not\n  and\n  swap1\n  dup4\n  0xffffffffffffffffffffffffffffffffffffffff\n  and\n  mul\n  or\n  swap1\n  sstore\n  pop\n    /* \"@openzeppelin/contracts/access/Ownable.sol\":3083:3091  newOwner */\n  dup2\n    /* \"@openzeppelin/contracts/access/Ownable.sol\":3052:3092  OwnershipTransferred(oldOwner, newOwner) */\n  0xffffffffffffffffffffffffffffffffffffffff\n  and\n    /* \"@openzeppelin/contracts/access/Ownable.sol\":3073:3081  oldOwner */\n  dup2\n    /* \"@openzeppelin/contracts/access/Ownable.sol\":3052:3092  OwnershipTransferred(oldOwner, newOwner) */\n  0xffffffffffffffffffffffffffffffffffffffff\n  and\n  0x8be0079c531659141344cd1fd0a4f28419497f9722a3daafe3b4186f6b6457e0\n  mload(0x40)\n  mload(0x40)\n  dup1\n  swap2\n  sub\n  swap1\n  log3\n    /* \"@openzeppelin/contracts/access/Ownable.sol\":2975:3099  {... */\n  pop\n    /* \"@openzeppelin/contracts/access/Ownable.sol\":2912:3099  function _transferOwnership(address newOwner) internal virtual {... */\n  pop\n  jump\t// out\n    /* \"#utility.yul\":7:133   */\ntag_13:\n    /* \"#utility.yul\":44:51   */\n  0x00\n    /* \"#utility.yul\":84:126   */\n  0xffffffffffffffffffffffffffffffffffffffff\n    /* \"#utility.yul\":77:82   */\n  dup3\n    /* \"#utility.yul\":73:127   */\n  and\n    /* \"#utility.yul\":62:127   */\n  swap1\n  pop\n    /* \"#utility.yul\":7:133   */\n  swap2\n  swap1\n  pop\n  jump\t// out\n    /* \"#utility.yul\":139:235   */\ntag_14:\n    /* \"#utility.yul\":176:183   */\n  0x00\n    /* \"#utility.yul\":205:229   */\n  tag_19\n    /* \"#utility.yul\":223:228   */\n  dup3\n    /* \"#utility.yul\":205:229   */\n  tag_13\n  jump\t// in\ntag_19:\n    /* \"#utility.yul\":194:229   */\n  swap1\n  pop\n    /* \"#utility.yul\":139:235   */\n  swap2\n  swap1\n  pop\n  jump\t// out\n    /* \"#utility.yul\":241:359   */\ntag_15:\n    /* \"#utility.yul\":328:352   */\n  tag_21\n    /* \"#utility.yul\":346:351   */\n  dup2\n    /* \"#utility.yul\":328:352   */\n  tag_14\n  jump\t// in\ntag_21:\n    /* \"#utility.yul\":323:326   */\n  dup3\n    /* \"#utility.yul\":316:353   */\n  mstore\n    /* \"#utility.yul\":241:359   */\n  pop\n  pop\n  jump\t// out\n    /* \"#utility.yul\":365:587   */\ntag_7:\n    /* \"#utility.yul\":458:462   */\n  0x00\n    /* \"#utility.yul\":496:498   */\n  0x20\n    /* \"#utility.yul\":485:494   */\n  dup3\n    /* \"#utility.yul\":481:499   */\n  add\n    /* \"#utility.yul\":473:499   */\n  swap1\n  pop\n    /* \"#utility.yul\":509:580   */\n  tag_23\n    /* \"#utility.yul\":577:578   */\n  0x00\n    /* \"#utility.yul\":566:575   */\n  dup4\n    /* \"#utility.yul\":562:579   */\n  add\n    /* \"#utility.yul\":553:559   */\n  dup5\n    /* \"#utility.yul\":509:580   */\n  tag_15\n  jump\t// in\ntag_23:\n    /* \"#utility.yul\":365:587   */\n  swap3\n  swap2\n  pop\n  pop\n  jump\t// out\n    /* \"contracts/Voting.sol\":111:5997  contract Voting is Ownable {... */\ntag_11:\n  dataSize(sub_0)\n  dup1\n  dataOffset(sub_0)\n  0x00\n  codecopy\n  0x00\n  return\nstop\n\nsub_0: assembly {\n        /* \"contracts/Voting.sol\":111:5997  contract Voting is Ownable {... */\n      mstore(0x40, 0x80)\n      callvalue\n      dup1\n      iszero\n      tag_1\n      jumpi\n      0x00\n      dup1\n      revert\n    tag_1:\n      pop\n      jumpi(tag_2, lt(calldatasize, 0x04))\n      shr(0xe0, calldataload(0x00))\n      dup1\n      0x8e7ea5b2\n      gt\n      tag_18\n      jumpi\n      dup1\n      0xb9223946\n      gt\n      tag_19\n      jumpi\n      dup1\n      0xb9223946\n      eq\n      tag_14\n      jumpi\n      dup1\n      0xf2fde38b\n      eq\n      tag_15\n      jumpi\n      dup1\n      0xf4ab9adf\n      eq\n      tag_16\n      jumpi\n      dup1\n      0xf8a3ce82\n      eq\n      tag_17\n      jumpi\n      jump(tag_2)\n    tag_19:\n      dup1\n      0x8e7ea5b2\n      eq\n      tag_10\n      jumpi\n      dup1\n      0x98f6560b\n      eq\n      tag_11\n      jumpi\n      dup1\n      0x9c6a46c4\n      eq\n      tag_12\n      jumpi\n      dup1\n      0xa587f077\n      eq\n      tag_13\n      jumpi\n      jump(tag_2)\n    tag_18:\n      dup1\n      0x4c0a6af0\n      gt\n      tag_20\n      jumpi\n      dup1\n      0x4c0a6af0\n      eq\n      tag_6\n      jumpi\n      dup1\n      0x62564c48\n      eq\n      tag_7\n      jumpi\n      dup1\n      0x715018a6\n      eq\n      tag_8\n      jumpi\n      dup1\n      0x8da5cb5b\n      eq\n      tag_9\n      jumpi\n      jump(tag_2)\n    tag_20:\n      dup1\n      0x0121b93f\n      eq\n      tag_3\n      jumpi\n      dup1\n      0x274da81f\n      eq\n      tag_4\n      jumpi\n      dup1\n      0x2fdae3c5\n      eq\n      tag_5\n      jumpi\n    tag_2:\n      0x00\n      dup1\n      revert\n        /* \"contracts/Voting.sol\":4451:4975  function vote(uint _id) external isStatus(WorkflowStatus.VotingSessionStarted) {... */\n    tag_3:\n      tag_21\n      0x04\n      dup1\n      calldatasize\n      sub\n      dup2\n      add\n      swap1\n      tag_22\n      swap2\n      swap1\n      tag_23\n      jump\t// in\n    tag_22:\n      tag_24\n      jump\t// in\n    tag_21:\n      stop\n        /* \"contracts/Voting.sol\":1474:1764  function startProposal() external onlyOwner {... */\n    tag_4:\n      tag_25\n      tag_26\n      jump\t// in\n    tag_25:\n      stop\n        /* \"contracts/Voting.sol\":3926:4308  function addProposal(string calldata _description) external isStatus(WorkflowStatus.ProposalsRegistrationStarted) {... */\n    tag_5:\n      tag_27\n      0x04\n      dup1\n      calldatasize\n      sub\n      dup2\n      add\n      swap1\n      tag_28\n      swap2\n      swap1\n      tag_29\n      jump\t// in\n    tag_28:\n      tag_30\n      jump\t// in\n    tag_27:\n      stop\n        /* \"contracts/Voting.sol\":1821:2119  function startVote() external onlyOwner {... */\n    tag_6:\n      tag_31\n      tag_32\n      jump\t// in\n    tag_31:\n      stop\n        /* \"contracts/Voting.sol\":5065:5251  function getProposals() external view returns(Proposal[] memory) {... */\n    tag_7:\n      tag_33\n      tag_34\n      jump\t// in\n    tag_33:\n      mload(0x40)\n      tag_35\n      swap2\n      swap1\n      tag_36\n      jump\t// in\n    tag_35:\n      mload(0x40)\n      dup1\n      swap2\n      sub\n      swap1\n      return\n        /* \"@openzeppelin/contracts/access/Ownable.sol\":2293:2394  function renounceOwnership() public virtual onlyOwner {... */\n    tag_8:\n      tag_37\n      tag_38\n      jump\t// in\n    tag_37:\n      stop\n        /* \"@openzeppelin/contracts/access/Ownable.sol\":1638:1723  function owner() public view virtual returns (address) {... */\n    tag_9:\n      tag_39\n      tag_40\n      jump\t// in\n    tag_39:\n      mload(0x40)\n      tag_41\n      swap2\n      swap1\n      tag_42\n      jump\t// in\n    tag_41:\n      mload(0x40)\n      dup1\n      swap2\n      sub\n      swap1\n      return\n        /* \"contracts/Voting.sol\":5843:5994  function getWinner() external view isStatus(WorkflowStatus.VotesTallied) returns (Proposal memory) {... */\n    tag_10:\n      tag_43\n      tag_44\n      jump\t// in\n    tag_43:\n      mload(0x40)\n      tag_45\n      swap2\n      swap1\n      tag_46\n      jump\t// in\n    tag_45:\n      mload(0x40)\n      dup1\n      swap2\n      sub\n      swap1\n      return\n        /* \"contracts/Voting.sol\":2186:2483  function endProposal() external onlyOwner {... */\n    tag_11:\n      tag_47\n      tag_48\n      jump\t// in\n    tag_47:\n      stop\n        /* \"contracts/Voting.sol\":2876:3487  function talliedVote() external onlyOwner {... */\n    tag_12:\n      tag_49\n      tag_50\n      jump\t// in\n    tag_49:\n      stop\n        /* \"contracts/Voting.sol\":5370:5574  function getVoteTo(address _address) external view returns(Voter memory) {... */\n    tag_13:\n      tag_51\n      0x04\n      dup1\n      calldatasize\n      sub\n      dup2\n      add\n      swap1\n      tag_52\n      swap2\n      swap1\n      tag_53\n      jump\t// in\n    tag_52:\n      tag_54\n      jump\t// in\n    tag_51:\n      mload(0x40)\n      tag_55\n      swap2\n      swap1\n      tag_56\n      jump\t// in\n    tag_55:\n      mload(0x40)\n      dup1\n      swap2\n      sub\n      swap1\n      return\n        /* \"contracts/Voting.sol\":2543:2811  function endVote() external onlyOwner {... */\n    tag_14:\n      tag_57\n      tag_58\n      jump\t// in\n    tag_57:\n      stop\n        /* \"@openzeppelin/contracts/access/Ownable.sol\":2543:2758  function transferOwnership(address newOwner) public virtual onlyOwner {... */\n    tag_15:\n      tag_59\n      0x04\n      dup1\n      calldatasize\n      sub\n      dup2\n      add\n      swap1\n      tag_60\n      swap2\n      swap1\n      tag_53\n      jump\t// in\n    tag_60:\n      tag_61\n      jump\t// in\n    tag_59:\n      stop\n        /* \"contracts/Voting.sol\":3604:3802  function addVoter(address _address) external onlyOwner isStatus(WorkflowStatus.RegisteringVoters) {... */\n    tag_16:\n      tag_62\n      0x04\n      dup1\n      calldatasize\n      sub\n      dup2\n      add\n      swap1\n      tag_63\n      swap2\n      swap1\n      tag_53\n      jump\t// in\n    tag_63:\n      tag_64\n      jump\t// in\n    tag_62:\n      stop\n        /* \"contracts/Voting.sol\":5626:5797  function resetSession() external onlyOwner {... */\n    tag_17:\n      tag_65\n      tag_66\n      jump\t// in\n    tag_65:\n      stop\n        /* \"contracts/Voting.sol\":4451:4975  function vote(uint _id) external isStatus(WorkflowStatus.VotingSessionStarted) {... */\n    tag_24:\n        /* \"contracts/Voting.sol\":4493:4528  WorkflowStatus.VotingSessionStarted */\n      0x03\n        /* \"contracts/Voting.sol\":1340:1347  _status */\n      dup1\n        /* \"contracts/Voting.sol\":1330:1347  status == _status */\n      0x05\n      dup2\n      gt\n      iszero\n      tag_68\n      jumpi\n      tag_69\n      tag_70\n      jump\t// in\n    tag_69:\n    tag_68:\n        /* \"contracts/Voting.sol\":1330:1336  status */\n      0x03\n      0x00\n      swap1\n      sload\n      swap1\n      0x0100\n      exp\n      swap1\n      div\n      0xff\n      and\n        /* \"contracts/Voting.sol\":1330:1347  status == _status */\n      0x05\n      dup2\n      gt\n      iszero\n      tag_71\n      jumpi\n      tag_72\n      tag_70\n      jump\t// in\n    tag_72:\n    tag_71:\n      eq\n        /* \"contracts/Voting.sol\":1322:1392  require(status == _status, \"You can't do this action, wait the phase\") */\n      tag_73\n      jumpi\n      mload(0x40)\n      0x08c379a000000000000000000000000000000000000000000000000000000000\n      dup2\n      mstore\n      0x04\n      add\n      tag_74\n      swap1\n      tag_75\n      jump\t// in\n    tag_74:\n      mload(0x40)\n      dup1\n      swap2\n      sub\n      swap1\n      revert\n    tag_73:\n        /* \"contracts/Voting.sol\":4548:4557  whiteList */\n      0x01\n        /* \"contracts/Voting.sol\":4548:4569  whiteList[msg.sender] */\n      0x00\n        /* \"contracts/Voting.sol\":4558:4568  msg.sender */\n      caller\n        /* \"contracts/Voting.sol\":4548:4569  whiteList[msg.sender] */\n      0xffffffffffffffffffffffffffffffffffffffff\n      and\n      0xffffffffffffffffffffffffffffffffffffffff\n      and\n      dup2\n      mstore\n      0x20\n      add\n      swap1\n      dup2\n      mstore\n      0x20\n      add\n      0x00\n      keccak256\n        /* \"contracts/Voting.sol\":4548:4582  whiteList[msg.sender].isRegistered */\n      0x00\n      add\n      0x00\n      swap1\n      sload\n      swap1\n      0x0100\n      exp\n      swap1\n      div\n      0xff\n      and\n        /* \"contracts/Voting.sol\":4540:4618  require(whiteList[msg.sender].isRegistered, \"Your are not registered in list\") */\n      tag_77\n      jumpi\n      mload(0x40)\n      0x08c379a000000000000000000000000000000000000000000000000000000000\n      dup2\n      mstore\n      0x04\n      add\n      tag_78\n      swap1\n      tag_79\n      jump\t// in\n    tag_78:\n      mload(0x40)\n      dup1\n      swap2\n      sub\n      swap1\n      revert\n    tag_77:\n        /* \"contracts/Voting.sol\":4637:4646  whiteList */\n      0x01\n        /* \"contracts/Voting.sol\":4637:4658  whiteList[msg.sender] */\n      0x00\n        /* \"contracts/Voting.sol\":4647:4657  msg.sender */\n      caller\n        /* \"contracts/Voting.sol\":4637:4658  whiteList[msg.sender] */\n      0xffffffffffffffffffffffffffffffffffffffff\n      and\n      0xffffffffffffffffffffffffffffffffffffffff\n      and\n      dup2\n      mstore\n      0x20\n      add\n      swap1\n      dup2\n      mstore\n      0x20\n      add\n      0x00\n      keccak256\n        /* \"contracts/Voting.sol\":4637:4667  whiteList[msg.sender].hasVoted */\n      0x00\n      add\n      0x01\n      swap1\n      sload\n      swap1\n      0x0100\n      exp\n      swap1\n      div\n      0xff\n      and\n        /* \"contracts/Voting.sol\":4636:4667  !whiteList[msg.sender].hasVoted */\n      iszero\n        /* \"contracts/Voting.sol\":4628:4694  require(!whiteList[msg.sender].hasVoted, \"You have already voted\") */\n      tag_80\n      jumpi\n      mload(0x40)\n      0x08c379a000000000000000000000000000000000000000000000000000000000\n      dup2\n      mstore\n      0x04\n      add\n      tag_81\n      swap1\n      tag_82\n      jump\t// in\n    tag_81:\n      mload(0x40)\n      dup1\n      swap2\n      sub\n      swap1\n      revert\n    tag_80:\n        /* \"contracts/Voting.sol\":4732:4733  0 */\n      0x00\n        /* \"contracts/Voting.sol\":4712:4721  proposals */\n      0x02\n        /* \"contracts/Voting.sol\":4712:4728  proposals.length */\n      dup1\n      sload\n      swap1\n      pop\n        /* \"contracts/Voting.sol\":4712:4733  proposals.length != 0 */\n      eq\n      iszero\n        /* \"contracts/Voting.sol\":4712:4760  proposals.length != 0 && _id <= proposals.length */\n      dup1\n      iszero\n      tag_83\n      jumpi\n      pop\n        /* \"contracts/Voting.sol\":4744:4753  proposals */\n      0x02\n        /* \"contracts/Voting.sol\":4744:4760  proposals.length */\n      dup1\n      sload\n      swap1\n      pop\n        /* \"contracts/Voting.sol\":4737:4740  _id */\n      dup3\n        /* \"contracts/Voting.sol\":4737:4760  _id <= proposals.length */\n      gt\n      iszero\n        /* \"contracts/Voting.sol\":4712:4760  proposals.length != 0 && _id <= proposals.length */\n    tag_83:\n        /* \"contracts/Voting.sol\":4704:4792  require(proposals.length != 0 && _id <= proposals.length, \"This proposal doesn't exist\") */\n      tag_84\n      jumpi\n      mload(0x40)\n      0x08c379a000000000000000000000000000000000000000000000000000000000\n      dup2\n      mstore\n      0x04\n      add\n      tag_85\n      swap1\n      tag_86\n      jump\t// in\n    tag_85:\n      mload(0x40)\n      dup1\n      swap2\n      sub\n      swap1\n      revert\n    tag_84:\n        /* \"contracts/Voting.sol\":4835:4839  true */\n      0x01\n        /* \"contracts/Voting.sol\":4802:4811  whiteList */\n      dup1\n        /* \"contracts/Voting.sol\":4802:4823  whiteList[msg.sender] */\n      0x00\n        /* \"contracts/Voting.sol\":4812:4822  msg.sender */\n      caller\n        /* \"contracts/Voting.sol\":4802:4823  whiteList[msg.sender] */\n      0xffffffffffffffffffffffffffffffffffffffff\n      and\n      0xffffffffffffffffffffffffffffffffffffffff\n      and\n      dup2\n      mstore\n      0x20\n      add\n      swap1\n      dup2\n      mstore\n      0x20\n      add\n      0x00\n      keccak256\n        /* \"contracts/Voting.sol\":4802:4832  whiteList[msg.sender].hasVoted */\n      0x00\n      add\n      0x01\n        /* \"contracts/Voting.sol\":4802:4839  whiteList[msg.sender].hasVoted = true */\n      0x0100\n      exp\n      dup2\n      sload\n      dup2\n      0xff\n      mul\n      not\n      and\n      swap1\n      dup4\n      iszero\n      iszero\n      mul\n      or\n      swap1\n      sstore\n      pop\n        /* \"contracts/Voting.sol\":4889:4892  _id */\n      dup2\n        /* \"contracts/Voting.sol\":4849:4858  whiteList */\n      0x01\n        /* \"contracts/Voting.sol\":4849:4870  whiteList[msg.sender] */\n      0x00\n        /* \"contracts/Voting.sol\":4859:4869  msg.sender */\n      caller\n        /* \"contracts/Voting.sol\":4849:4870  whiteList[msg.sender] */\n      0xffffffffffffffffffffffffffffffffffffffff\n      and\n      0xffffffffffffffffffffffffffffffffffffffff\n      and\n      dup2\n      mstore\n      0x20\n      add\n      swap1\n      dup2\n      mstore\n      0x20\n      add\n      0x00\n      keccak256\n        /* \"contracts/Voting.sol\":4849:4886  whiteList[msg.sender].votedProposalId */\n      0x01\n      add\n        /* \"contracts/Voting.sol\":4849:4892  whiteList[msg.sender].votedProposalId = _id */\n      dup2\n      swap1\n      sstore\n      pop\n        /* \"contracts/Voting.sol\":4930:4931  1 */\n      0x01\n        /* \"contracts/Voting.sol\":4902:4911  proposals */\n      0x02\n        /* \"contracts/Voting.sol\":4912:4915  _id */\n      dup4\n        /* \"contracts/Voting.sol\":4902:4916  proposals[_id] */\n      dup2\n      sload\n      dup2\n      lt\n      tag_87\n      jumpi\n      tag_88\n      tag_89\n      jump\t// in\n    tag_88:\n    tag_87:\n      swap1\n      0x00\n      mstore\n      keccak256(0x00, 0x20)\n      swap1\n      0x02\n      mul\n      add\n        /* \"contracts/Voting.sol\":4902:4926  proposals[_id].voteCount */\n      0x01\n      add\n      0x00\n        /* \"contracts/Voting.sol\":4902:4931  proposals[_id].voteCount += 1 */\n      dup3\n      dup3\n      sload\n      tag_91\n      swap2\n      swap1\n      tag_92\n      jump\t// in\n    tag_91:\n      swap3\n      pop\n      pop\n      dup2\n      swap1\n      sstore\n      pop\n        /* \"contracts/Voting.sol\":4946:4968  Voted(msg.sender, _id) */\n      0x4d99b957a2bc29a30ebd96a7be8e68fe50a3c701db28a91436490b7d53870ca4\n        /* \"contracts/Voting.sol\":4952:4962  msg.sender */\n      caller\n        /* \"contracts/Voting.sol\":4964:4967  _id */\n      dup4\n        /* \"contracts/Voting.sol\":4946:4968  Voted(msg.sender, _id) */\n      mload(0x40)\n      tag_93\n      swap3\n      swap2\n      swap1\n      tag_94\n      jump\t// in\n    tag_93:\n      mload(0x40)\n      dup1\n      swap2\n      sub\n      swap1\n      log1\n        /* \"contracts/Voting.sol\":4451:4975  function vote(uint _id) external isStatus(WorkflowStatus.VotingSessionStarted) {... */\n      pop\n      pop\n      jump\t// out\n        /* \"contracts/Voting.sol\":1474:1764  function startProposal() external onlyOwner {... */\n    tag_26:\n        /* \"@openzeppelin/contracts/access/Ownable.sol\":1531:1544  _checkOwner() */\n      tag_96\n        /* \"@openzeppelin/contracts/access/Ownable.sol\":1531:1542  _checkOwner */\n      tag_97\n        /* \"@openzeppelin/contracts/access/Ownable.sol\":1531:1544  _checkOwner() */\n      jump\t// in\n    tag_96:\n        /* \"contracts/Voting.sol\":1546:1578  WorkflowStatus.RegisteringVoters */\n      0x00\n        /* \"contracts/Voting.sol\":1536:1578  status == WorkflowStatus.RegisteringVoters */\n      0x05\n      dup2\n      gt\n      iszero\n      tag_99\n      jumpi\n      tag_100\n      tag_70\n      jump\t// in\n    tag_100:\n    tag_99:\n        /* \"contracts/Voting.sol\":1536:1542  status */\n      0x03\n      0x00\n      swap1\n      sload\n      swap1\n      0x0100\n      exp\n      swap1\n      div\n      0xff\n      and\n        /* \"contracts/Voting.sol\":1536:1578  status == WorkflowStatus.RegisteringVoters */\n      0x05\n      dup2\n      gt\n      iszero\n      tag_101\n      jumpi\n      tag_102\n      tag_70\n      jump\t// in\n    tag_102:\n    tag_101:\n      eq\n        /* \"contracts/Voting.sol\":1528:1618  require(status == WorkflowStatus.RegisteringVoters, \"It must be registering voter before\") */\n      tag_103\n      jumpi\n      mload(0x40)\n      0x08c379a000000000000000000000000000000000000000000000000000000000\n      dup2\n      mstore\n      0x04\n      add\n      tag_104\n      swap1\n      tag_105\n      jump\t// in\n    tag_104:\n      mload(0x40)\n      dup1\n      swap2\n      sub\n      swap1\n      revert\n    tag_103:\n        /* \"contracts/Voting.sol\":1637:1680  WorkflowStatus.ProposalsRegistrationStarted */\n      0x01\n        /* \"contracts/Voting.sol\":1628:1634  status */\n      0x03\n      0x00\n        /* \"contracts/Voting.sol\":1628:1680  status = WorkflowStatus.ProposalsRegistrationStarted */\n      0x0100\n      exp\n      dup2\n      sload\n      dup2\n      0xff\n      mul\n      not\n      and\n      swap1\n      dup4\n      0x05\n      dup2\n      gt\n      iszero\n      tag_106\n      jumpi\n      tag_107\n      tag_70\n      jump\t// in\n    tag_107:\n    tag_106:\n      mul\n      or\n      swap1\n      sstore\n      pop\n        /* \"contracts/Voting.sol\":1695:1757  WorkflowStatusChange(WorkflowStatus.RegisteringVoters, status) */\n      0x0a97a4ee45751e2abf3e4fc8946939630b11b371ea8ae39ccdc3056e98f5cc3f\n        /* \"contracts/Voting.sol\":1716:1748  WorkflowStatus.RegisteringVoters */\n      0x00\n        /* \"contracts/Voting.sol\":1750:1756  status */\n      0x03\n      0x00\n      swap1\n      sload\n      swap1\n      0x0100\n      exp\n      swap1\n      div\n      0xff\n      and\n        /* \"contracts/Voting.sol\":1695:1757  WorkflowStatusChange(WorkflowStatus.RegisteringVoters, status) */\n      mload(0x40)\n      tag_108\n      swap3\n      swap2\n      swap1\n      tag_109\n      jump\t// in\n    tag_108:\n      mload(0x40)\n      dup1\n      swap2\n      sub\n      swap1\n      log1\n        /* \"contracts/Voting.sol\":1474:1764  function startProposal() external onlyOwner {... */\n      jump\t// out\n        /* \"contracts/Voting.sol\":3926:4308  function addProposal(string calldata _description) external isStatus(WorkflowStatus.ProposalsRegistrationStarted) {... */\n    tag_30:\n        /* \"contracts/Voting.sol\":3995:4038  WorkflowStatus.ProposalsRegistrationStarted */\n      0x01\n        /* \"contracts/Voting.sol\":1340:1347  _status */\n      dup1\n        /* \"contracts/Voting.sol\":1330:1347  status == _status */\n      0x05\n      dup2\n      gt\n      iszero\n      tag_111\n      jumpi\n      tag_112\n      tag_70\n      jump\t// in\n    tag_112:\n    tag_111:\n        /* \"contracts/Voting.sol\":1330:1336  status */\n      0x03\n      0x00\n      swap1\n      sload\n      swap1\n      0x0100\n      exp\n      swap1\n      div\n      0xff\n      and\n        /* \"contracts/Voting.sol\":1330:1347  status == _status */\n      0x05\n      dup2\n      gt\n      iszero\n      tag_113\n      jumpi\n      tag_114\n      tag_70\n      jump\t// in\n    tag_114:\n    tag_113:\n      eq\n        /* \"contracts/Voting.sol\":1322:1392  require(status == _status, \"You can't do this action, wait the phase\") */\n      tag_115\n      jumpi\n      mload(0x40)\n      0x08c379a000000000000000000000000000000000000000000000000000000000\n      dup2\n      mstore\n      0x04\n      add\n      tag_116\n      swap1\n      tag_75\n      jump\t// in\n    tag_116:\n      mload(0x40)\n      dup1\n      swap2\n      sub\n      swap1\n      revert\n    tag_115:\n        /* \"contracts/Voting.sol\":4129:4138  whiteList */\n      0x01\n        /* \"contracts/Voting.sol\":4129:4150  whiteList[msg.sender] */\n      0x00\n        /* \"contracts/Voting.sol\":4139:4149  msg.sender */\n      caller\n        /* \"contracts/Voting.sol\":4129:4150  whiteList[msg.sender] */\n      0xffffffffffffffffffffffffffffffffffffffff\n      and\n      0xffffffffffffffffffffffffffffffffffffffff\n      and\n      dup2\n      mstore\n      0x20\n      add\n      swap1\n      dup2\n      mstore\n      0x20\n      add\n      0x00\n      keccak256\n        /* \"contracts/Voting.sol\":4129:4163  whiteList[msg.sender].isRegistered */\n      0x00\n      add\n      0x00\n      swap1\n      sload\n      swap1\n      0x0100\n      exp\n      swap1\n      div\n      0xff\n      and\n        /* \"contracts/Voting.sol\":4121:4199  require(whiteList[msg.sender].isRegistered, \"Your are not registered in list\") */\n      tag_118\n      jumpi\n      mload(0x40)\n      0x08c379a000000000000000000000000000000000000000000000000000000000\n      dup2\n      mstore\n      0x04\n      add\n      tag_119\n      swap1\n      tag_79\n      jump\t// in\n    tag_119:\n      mload(0x40)\n      dup1\n      swap2\n      sub\n      swap1\n      revert\n    tag_118:\n        /* \"contracts/Voting.sol\":4209:4218  proposals */\n      0x02\n        /* \"contracts/Voting.sol\":4224:4249  Proposal(_description, 0) */\n      mload(0x40)\n      dup1\n      0x40\n      add\n      0x40\n      mstore\n      dup1\n        /* \"contracts/Voting.sol\":4233:4245  _description */\n      dup6\n      dup6\n        /* \"contracts/Voting.sol\":4224:4249  Proposal(_description, 0) */\n      dup1\n      dup1\n      0x1f\n      add\n      0x20\n      dup1\n      swap2\n      div\n      mul\n      0x20\n      add\n      mload(0x40)\n      swap1\n      dup2\n      add\n      0x40\n      mstore\n      dup1\n      swap4\n      swap3\n      swap2\n      swap1\n      dup2\n      dup2\n      mstore\n      0x20\n      add\n      dup4\n      dup4\n      dup1\n      dup3\n      dup5\n      calldatacopy\n      0x00\n      dup2\n      dup5\n      add\n      mstore\n      not(0x1f)\n      0x1f\n      dup3\n      add\n      and\n      swap1\n      pop\n      dup1\n      dup4\n      add\n      swap3\n      pop\n      pop\n      pop\n      pop\n      pop\n      pop\n      pop\n      dup2\n      mstore\n      0x20\n      add\n        /* \"contracts/Voting.sol\":4247:4248  0 */\n      0x00\n        /* \"contracts/Voting.sol\":4224:4249  Proposal(_description, 0) */\n      dup2\n      mstore\n      pop\n        /* \"contracts/Voting.sol\":4209:4250  proposals.push(Proposal(_description, 0)) */\n      swap1\n      dup1\n      0x01\n      dup2\n      sload\n      add\n      dup1\n      dup3\n      sstore\n      dup1\n      swap2\n      pop\n      pop\n      0x01\n      swap1\n      sub\n      swap1\n      0x00\n      mstore\n      keccak256(0x00, 0x20)\n      swap1\n      0x02\n      mul\n      add\n      0x00\n      swap1\n      swap2\n      swap1\n      swap2\n      swap1\n      swap2\n      pop\n      0x00\n      dup3\n      add\n      mload\n      dup2\n      0x00\n      add\n      swap1\n      dup2\n      tag_121\n      swap2\n      swap1\n      tag_122\n      jump\t// in\n    tag_121:\n      pop\n      0x20\n      dup3\n      add\n      mload\n      dup2\n      0x01\n      add\n      sstore\n      pop\n      pop\n        /* \"contracts/Voting.sol\":4265:4301  ProposalRegistered(proposals.length) */\n      0x92e393e9b54e2f801d3ea4beb0c5e71a21cc34a5d34b77d0fb8a3aa1650dc18f\n        /* \"contracts/Voting.sol\":4284:4293  proposals */\n      0x02\n        /* \"contracts/Voting.sol\":4284:4300  proposals.length */\n      dup1\n      sload\n      swap1\n      pop\n        /* \"contracts/Voting.sol\":4265:4301  ProposalRegistered(proposals.length) */\n      mload(0x40)\n      tag_123\n      swap2\n      swap1\n      tag_124\n      jump\t// in\n    tag_123:\n      mload(0x40)\n      dup1\n      swap2\n      sub\n      swap1\n      log1\n        /* \"contracts/Voting.sol\":3926:4308  function addProposal(string calldata _description) external isStatus(WorkflowStatus.ProposalsRegistrationStarted) {... */\n      pop\n      pop\n      pop\n      jump\t// out\n        /* \"contracts/Voting.sol\":1821:2119  function startVote() external onlyOwner {... */\n    tag_32:\n        /* \"@openzeppelin/contracts/access/Ownable.sol\":1531:1544  _checkOwner() */\n      tag_126\n        /* \"@openzeppelin/contracts/access/Ownable.sol\":1531:1542  _checkOwner */\n      tag_97\n        /* \"@openzeppelin/contracts/access/Ownable.sol\":1531:1544  _checkOwner() */\n      jump\t// in\n    tag_126:\n        /* \"contracts/Voting.sol\":1889:1930  WorkflowStatus.ProposalsRegistrationEnded */\n      0x02\n        /* \"contracts/Voting.sol\":1879:1930  status == WorkflowStatus.ProposalsRegistrationEnded */\n      0x05\n      dup2\n      gt\n      iszero\n      tag_128\n      jumpi\n      tag_129\n      tag_70\n      jump\t// in\n    tag_129:\n    tag_128:\n        /* \"contracts/Voting.sol\":1879:1885  status */\n      0x03\n      0x00\n      swap1\n      sload\n      swap1\n      0x0100\n      exp\n      swap1\n      div\n      0xff\n      and\n        /* \"contracts/Voting.sol\":1879:1930  status == WorkflowStatus.ProposalsRegistrationEnded */\n      0x05\n      dup2\n      gt\n      iszero\n      tag_130\n      jumpi\n      tag_131\n      tag_70\n      jump\t// in\n    tag_131:\n    tag_130:\n      eq\n        /* \"contracts/Voting.sol\":1871:1972  require(status == WorkflowStatus.ProposalsRegistrationEnded, \"It must be the end of proposal before\") */\n      tag_132\n      jumpi\n      mload(0x40)\n      0x08c379a000000000000000000000000000000000000000000000000000000000\n      dup2\n      mstore\n      0x04\n      add\n      tag_133\n      swap1\n      tag_134\n      jump\t// in\n    tag_133:\n      mload(0x40)\n      dup1\n      swap2\n      sub\n      swap1\n      revert\n    tag_132:\n        /* \"contracts/Voting.sol\":1991:2026  WorkflowStatus.VotingSessionStarted */\n      0x03\n        /* \"contracts/Voting.sol\":1982:1988  status */\n      dup1\n      0x00\n        /* \"contracts/Voting.sol\":1982:2026  status = WorkflowStatus.VotingSessionStarted */\n      0x0100\n      exp\n      dup2\n      sload\n      dup2\n      0xff\n      mul\n      not\n      and\n      swap1\n      dup4\n      0x05\n      dup2\n      gt\n      iszero\n      tag_135\n      jumpi\n      tag_136\n      tag_70\n      jump\t// in\n    tag_136:\n    tag_135:\n      mul\n      or\n      swap1\n      sstore\n      pop\n        /* \"contracts/Voting.sol\":2041:2112  WorkflowStatusChange(WorkflowStatus.ProposalsRegistrationEnded, status) */\n      0x0a97a4ee45751e2abf3e4fc8946939630b11b371ea8ae39ccdc3056e98f5cc3f\n        /* \"contracts/Voting.sol\":2062:2103  WorkflowStatus.ProposalsRegistrationEnded */\n      0x02\n        /* \"contracts/Voting.sol\":2105:2111  status */\n      0x03\n      0x00\n      swap1\n      sload\n      swap1\n      0x0100\n      exp\n      swap1\n      div\n      0xff\n      and\n        /* \"contracts/Voting.sol\":2041:2112  WorkflowStatusChange(WorkflowStatus.ProposalsRegistrationEnded, status) */\n      mload(0x40)\n      tag_137\n      swap3\n      swap2\n      swap1\n      tag_109\n      jump\t// in\n    tag_137:\n      mload(0x40)\n      dup1\n      swap2\n      sub\n      swap1\n      log1\n        /* \"contracts/Voting.sol\":1821:2119  function startVote() external onlyOwner {... */\n      jump\t// out\n        /* \"contracts/Voting.sol\":5065:5251  function getProposals() external view returns(Proposal[] memory) {... */\n    tag_34:\n        /* \"contracts/Voting.sol\":5111:5128  Proposal[] memory */\n      0x60\n        /* \"contracts/Voting.sol\":5148:5157  whiteList */\n      0x01\n        /* \"contracts/Voting.sol\":5148:5169  whiteList[msg.sender] */\n      0x00\n        /* \"contracts/Voting.sol\":5158:5168  msg.sender */\n      caller\n        /* \"contracts/Voting.sol\":5148:5169  whiteList[msg.sender] */\n      0xffffffffffffffffffffffffffffffffffffffff\n      and\n      0xffffffffffffffffffffffffffffffffffffffff\n      and\n      dup2\n      mstore\n      0x20\n      add\n      swap1\n      dup2\n      mstore\n      0x20\n      add\n      0x00\n      keccak256\n        /* \"contracts/Voting.sol\":5148:5182  whiteList[msg.sender].isRegistered */\n      0x00\n      add\n      0x00\n      swap1\n      sload\n      swap1\n      0x0100\n      exp\n      swap1\n      div\n      0xff\n      and\n        /* \"contracts/Voting.sol\":5140:5218  require(whiteList[msg.sender].isRegistered, \"Your are not registered in list\") */\n      tag_139\n      jumpi\n      mload(0x40)\n      0x08c379a000000000000000000000000000000000000000000000000000000000\n      dup2\n      mstore\n      0x04\n      add\n      tag_140\n      swap1\n      tag_79\n      jump\t// in\n    tag_140:\n      mload(0x40)\n      dup1\n      swap2\n      sub\n      swap1\n      revert\n    tag_139:\n        /* \"contracts/Voting.sol\":5235:5244  proposals */\n      0x02\n        /* \"contracts/Voting.sol\":5228:5244  return proposals */\n      dup1\n      sload\n      dup1\n      0x20\n      mul\n      0x20\n      add\n      mload(0x40)\n      swap1\n      dup2\n      add\n      0x40\n      mstore\n      dup1\n      swap3\n      swap2\n      swap1\n      dup2\n      dup2\n      mstore\n      0x20\n      add\n      0x00\n      swap1\n    tag_141:\n      dup3\n      dup3\n      lt\n      iszero\n      tag_142\n      jumpi\n      dup4\n      dup3\n      swap1\n      0x00\n      mstore\n      keccak256(0x00, 0x20)\n      swap1\n      0x02\n      mul\n      add\n      mload(0x40)\n      dup1\n      0x40\n      add\n      0x40\n      mstore\n      swap1\n      dup2\n      0x00\n      dup3\n      add\n      dup1\n      sload\n      tag_144\n      swap1\n      tag_145\n      jump\t// in\n    tag_144:\n      dup1\n      0x1f\n      add\n      0x20\n      dup1\n      swap2\n      div\n      mul\n      0x20\n      add\n      mload(0x40)\n      swap1\n      dup2\n      add\n      0x40\n      mstore\n      dup1\n      swap3\n      swap2\n      swap1\n      dup2\n      dup2\n      mstore\n      0x20\n      add\n      dup3\n      dup1\n      sload\n      tag_146\n      swap1\n      tag_145\n      jump\t// in\n    tag_146:\n      dup1\n      iszero\n      tag_147\n      jumpi\n      dup1\n      0x1f\n      lt\n      tag_148\n      jumpi\n      0x0100\n      dup1\n      dup4\n      sload\n      div\n      mul\n      dup4\n      mstore\n      swap2\n      0x20\n      add\n      swap2\n      jump(tag_147)\n    tag_148:\n      dup3\n      add\n      swap2\n      swap1\n      0x00\n      mstore\n      keccak256(0x00, 0x20)\n      swap1\n    tag_149:\n      dup2\n      sload\n      dup2\n      mstore\n      swap1\n      0x01\n      add\n      swap1\n      0x20\n      add\n      dup1\n      dup4\n      gt\n      tag_149\n      jumpi\n      dup3\n      swap1\n      sub\n      0x1f\n      and\n      dup3\n      add\n      swap2\n    tag_147:\n      pop\n      pop\n      pop\n      pop\n      pop\n      dup2\n      mstore\n      0x20\n      add\n      0x01\n      dup3\n      add\n      sload\n      dup2\n      mstore\n      pop\n      pop\n      dup2\n      mstore\n      0x20\n      add\n      swap1\n      0x01\n      add\n      swap1\n      jump(tag_141)\n    tag_142:\n      pop\n      pop\n      pop\n      pop\n      swap1\n      pop\n        /* \"contracts/Voting.sol\":5065:5251  function getProposals() external view returns(Proposal[] memory) {... */\n      swap1\n      jump\t// out\n        /* \"@openzeppelin/contracts/access/Ownable.sol\":2293:2394  function renounceOwnership() public virtual onlyOwner {... */\n    tag_38:\n        /* \"@openzeppelin/contracts/access/Ownable.sol\":1531:1544  _checkOwner() */\n      tag_151\n        /* \"@openzeppelin/contracts/access/Ownable.sol\":1531:1542  _checkOwner */\n      tag_97\n        /* \"@openzeppelin/contracts/access/Ownable.sol\":1531:1544  _checkOwner() */\n      jump\t// in\n    tag_151:\n        /* \"@openzeppelin/contracts/access/Ownable.sol\":2357:2387  _transferOwnership(address(0)) */\n      tag_153\n        /* \"@openzeppelin/contracts/access/Ownable.sol\":2384:2385  0 */\n      0x00\n        /* \"@openzeppelin/contracts/access/Ownable.sol\":2357:2375  _transferOwnership */\n      tag_154\n        /* \"@openzeppelin/contracts/access/Ownable.sol\":2357:2387  _transferOwnership(address(0)) */\n      jump\t// in\n    tag_153:\n        /* \"@openzeppelin/contracts/access/Ownable.sol\":2293:2394  function renounceOwnership() public virtual onlyOwner {... */\n      jump\t// out\n        /* \"@openzeppelin/contracts/access/Ownable.sol\":1638:1723  function owner() public view virtual returns (address) {... */\n    tag_40:\n        /* \"@openzeppelin/contracts/access/Ownable.sol\":1684:1691  address */\n      0x00\n        /* \"@openzeppelin/contracts/access/Ownable.sol\":1710:1716  _owner */\n      dup1\n      0x00\n      swap1\n      sload\n      swap1\n      0x0100\n      exp\n      swap1\n      div\n      0xffffffffffffffffffffffffffffffffffffffff\n      and\n        /* \"@openzeppelin/contracts/access/Ownable.sol\":1703:1716  return _owner */\n      swap1\n      pop\n        /* \"@openzeppelin/contracts/access/Ownable.sol\":1638:1723  function owner() public view virtual returns (address) {... */\n      swap1\n      jump\t// out\n        /* \"contracts/Voting.sol\":5843:5994  function getWinner() external view isStatus(WorkflowStatus.VotesTallied) returns (Proposal memory) {... */\n    tag_44:\n        /* \"contracts/Voting.sol\":5925:5940  Proposal memory */\n      tag_156\n      tag_157\n      jump\t// in\n    tag_156:\n        /* \"contracts/Voting.sol\":5887:5914  WorkflowStatus.VotesTallied */\n      0x05\n        /* \"contracts/Voting.sol\":1340:1347  _status */\n      dup1\n        /* \"contracts/Voting.sol\":1330:1347  status == _status */\n      0x05\n      dup2\n      gt\n      iszero\n      tag_159\n      jumpi\n      tag_160\n      tag_70\n      jump\t// in\n    tag_160:\n    tag_159:\n        /* \"contracts/Voting.sol\":1330:1336  status */\n      0x03\n      0x00\n      swap1\n      sload\n      swap1\n      0x0100\n      exp\n      swap1\n      div\n      0xff\n      and\n        /* \"contracts/Voting.sol\":1330:1347  status == _status */\n      0x05\n      dup2\n      gt\n      iszero\n      tag_161\n      jumpi\n      tag_162\n      tag_70\n      jump\t// in\n    tag_162:\n    tag_161:\n      eq\n        /* \"contracts/Voting.sol\":1322:1392  require(status == _status, \"You can't do this action, wait the phase\") */\n      tag_163\n      jumpi\n      mload(0x40)\n      0x08c379a000000000000000000000000000000000000000000000000000000000\n      dup2\n      mstore\n      0x04\n      add\n      tag_164\n      swap1\n      tag_75\n      jump\t// in\n    tag_164:\n      mload(0x40)\n      dup1\n      swap2\n      sub\n      swap1\n      revert\n    tag_163:\n        /* \"contracts/Voting.sol\":5959:5968  proposals */\n      0x02\n        /* \"contracts/Voting.sol\":5969:5986  winningProposalId */\n      sload(0x04)\n        /* \"contracts/Voting.sol\":5959:5987  proposals[winningProposalId] */\n      dup2\n      sload\n      dup2\n      lt\n      tag_166\n      jumpi\n      tag_167\n      tag_89\n      jump\t// in\n    tag_167:\n    tag_166:\n      swap1\n      0x00\n      mstore\n      keccak256(0x00, 0x20)\n      swap1\n      0x02\n      mul\n      add\n        /* \"contracts/Voting.sol\":5952:5987  return proposals[winningProposalId] */\n      mload(0x40)\n      dup1\n      0x40\n      add\n      0x40\n      mstore\n      swap1\n      dup2\n      0x00\n      dup3\n      add\n      dup1\n      sload\n      tag_169\n      swap1\n      tag_145\n      jump\t// in\n    tag_169:\n      dup1\n      0x1f\n      add\n      0x20\n      dup1\n      swap2\n      div\n      mul\n      0x20\n      add\n      mload(0x40)\n      swap1\n      dup2\n      add\n      0x40\n      mstore\n      dup1\n      swap3\n      swap2\n      swap1\n      dup2\n      dup2\n      mstore\n      0x20\n      add\n      dup3\n      dup1\n      sload\n      tag_170\n      swap1\n      tag_145\n      jump\t// in\n    tag_170:\n      dup1\n      iszero\n      tag_171\n      jumpi\n      dup1\n      0x1f\n      lt\n      tag_172\n      jumpi\n      0x0100\n      dup1\n      dup4\n      sload\n      div\n      mul\n      dup4\n      mstore\n      swap2\n      0x20\n      add\n      swap2\n      jump(tag_171)\n    tag_172:\n      dup3\n      add\n      swap2\n      swap1\n      0x00\n      mstore\n      keccak256(0x00, 0x20)\n      swap1\n    tag_173:\n      dup2\n      sload\n      dup2\n      mstore\n      swap1\n      0x01\n      add\n      swap1\n      0x20\n      add\n      dup1\n      dup4\n      gt\n      tag_173\n      jumpi\n      dup3\n      swap1\n      sub\n      0x1f\n      and\n      dup3\n      add\n      swap2\n    tag_171:\n      pop\n      pop\n      pop\n      pop\n      pop\n      dup2\n      mstore\n      0x20\n      add\n      0x01\n      dup3\n      add\n      sload\n      dup2\n      mstore\n      pop\n      pop\n      swap2\n      pop\n        /* \"contracts/Voting.sol\":5843:5994  function getWinner() external view isStatus(WorkflowStatus.VotesTallied) returns (Proposal memory) {... */\n      pop\n      swap1\n      jump\t// out\n        /* \"contracts/Voting.sol\":2186:2483  function endProposal() external onlyOwner {... */\n    tag_48:\n        /* \"@openzeppelin/contracts/access/Ownable.sol\":1531:1544  _checkOwner() */\n      tag_175\n        /* \"@openzeppelin/contracts/access/Ownable.sol\":1531:1542  _checkOwner */\n      tag_97\n        /* \"@openzeppelin/contracts/access/Ownable.sol\":1531:1544  _checkOwner() */\n      jump\t// in\n    tag_175:\n        /* \"contracts/Voting.sol\":2256:2299  WorkflowStatus.ProposalsRegistrationStarted */\n      0x01\n        /* \"contracts/Voting.sol\":2246:2299  status == WorkflowStatus.ProposalsRegistrationStarted */\n      0x05\n      dup2\n      gt\n      iszero\n      tag_177\n      jumpi\n      tag_178\n      tag_70\n      jump\t// in\n    tag_178:\n    tag_177:\n        /* \"contracts/Voting.sol\":2246:2252  status */\n      0x03\n      0x00\n      swap1\n      sload\n      swap1\n      0x0100\n      exp\n      swap1\n      div\n      0xff\n      and\n        /* \"contracts/Voting.sol\":2246:2299  status == WorkflowStatus.ProposalsRegistrationStarted */\n      0x05\n      dup2\n      gt\n      iszero\n      tag_179\n      jumpi\n      tag_180\n      tag_70\n      jump\t// in\n    tag_180:\n    tag_179:\n      eq\n        /* \"contracts/Voting.sol\":2238:2328  require(status == WorkflowStatus.ProposalsRegistrationStarted, \"It must proposal session\") */\n      tag_181\n      jumpi\n      mload(0x40)\n      0x08c379a000000000000000000000000000000000000000000000000000000000\n      dup2\n      mstore\n      0x04\n      add\n      tag_182\n      swap1\n      tag_183\n      jump\t// in\n    tag_182:\n      mload(0x40)\n      dup1\n      swap2\n      sub\n      swap1\n      revert\n    tag_181:\n        /* \"contracts/Voting.sol\":2347:2388  WorkflowStatus.ProposalsRegistrationEnded */\n      0x02\n        /* \"contracts/Voting.sol\":2338:2344  status */\n      0x03\n      0x00\n        /* \"contracts/Voting.sol\":2338:2388  status = WorkflowStatus.ProposalsRegistrationEnded */\n      0x0100\n      exp\n      dup2\n      sload\n      dup2\n      0xff\n      mul\n      not\n      and\n      swap1\n      dup4\n      0x05\n      dup2\n      gt\n      iszero\n      tag_184\n      jumpi\n      tag_185\n      tag_70\n      jump\t// in\n    tag_185:\n    tag_184:\n      mul\n      or\n      swap1\n      sstore\n      pop\n        /* \"contracts/Voting.sol\":2403:2476  WorkflowStatusChange(WorkflowStatus.ProposalsRegistrationStarted, status) */\n      0x0a97a4ee45751e2abf3e4fc8946939630b11b371ea8ae39ccdc3056e98f5cc3f\n        /* \"contracts/Voting.sol\":2424:2467  WorkflowStatus.ProposalsRegistrationStarted */\n      0x01\n        /* \"contracts/Voting.sol\":2469:2475  status */\n      0x03\n      0x00\n      swap1\n      sload\n      swap1\n      0x0100\n      exp\n      swap1\n      div\n      0xff\n      and\n        /* \"contracts/Voting.sol\":2403:2476  WorkflowStatusChange(WorkflowStatus.ProposalsRegistrationStarted, status) */\n      mload(0x40)\n      tag_186\n      swap3\n      swap2\n      swap1\n      tag_109\n      jump\t// in\n    tag_186:\n      mload(0x40)\n      dup1\n      swap2\n      sub\n      swap1\n      log1\n        /* \"contracts/Voting.sol\":2186:2483  function endProposal() external onlyOwner {... */\n      jump\t// out\n        /* \"contracts/Voting.sol\":2876:3487  function talliedVote() external onlyOwner {... */\n    tag_50:\n        /* \"@openzeppelin/contracts/access/Ownable.sol\":1531:1544  _checkOwner() */\n      tag_188\n        /* \"@openzeppelin/contracts/access/Ownable.sol\":1531:1542  _checkOwner */\n      tag_97\n        /* \"@openzeppelin/contracts/access/Ownable.sol\":1531:1544  _checkOwner() */\n      jump\t// in\n    tag_188:\n        /* \"contracts/Voting.sol\":2946:2979  WorkflowStatus.VotingSessionEnded */\n      0x04\n        /* \"contracts/Voting.sol\":2936:2979  status == WorkflowStatus.VotingSessionEnded */\n      0x05\n      dup2\n      gt\n      iszero\n      tag_190\n      jumpi\n      tag_191\n      tag_70\n      jump\t// in\n    tag_191:\n    tag_190:\n        /* \"contracts/Voting.sol\":2936:2942  status */\n      0x03\n      0x00\n      swap1\n      sload\n      swap1\n      0x0100\n      exp\n      swap1\n      div\n      0xff\n      and\n        /* \"contracts/Voting.sol\":2936:2979  status == WorkflowStatus.VotingSessionEnded */\n      0x05\n      dup2\n      gt\n      iszero\n      tag_192\n      jumpi\n      tag_193\n      tag_70\n      jump\t// in\n    tag_193:\n    tag_192:\n      eq\n        /* \"contracts/Voting.sol\":2928:3017  require(status == WorkflowStatus.VotingSessionEnded, \"It must be the end of the session\") */\n      tag_194\n      jumpi\n      mload(0x40)\n      0x08c379a000000000000000000000000000000000000000000000000000000000\n      dup2\n      mstore\n      0x04\n      add\n      tag_195\n      swap1\n      tag_196\n      jump\t// in\n    tag_195:\n      mload(0x40)\n      dup1\n      swap2\n      sub\n      swap1\n      revert\n    tag_194:\n        /* \"contracts/Voting.sol\":3065:3087  Proposal memory winner */\n      tag_197\n      tag_157\n      jump\t// in\n    tag_197:\n        /* \"contracts/Voting.sol\":3102:3108  uint i */\n      0x00\n        /* \"contracts/Voting.sol\":3097:3356  for (uint i = 0 ; i < proposals.length ; i++) {... */\n    tag_198:\n        /* \"contracts/Voting.sol\":3119:3128  proposals */\n      0x02\n        /* \"contracts/Voting.sol\":3119:3135  proposals.length */\n      dup1\n      sload\n      swap1\n      pop\n        /* \"contracts/Voting.sol\":3115:3116  i */\n      dup2\n        /* \"contracts/Voting.sol\":3115:3135  i < proposals.length */\n      lt\n        /* \"contracts/Voting.sol\":3097:3356  for (uint i = 0 ; i < proposals.length ; i++) {... */\n      iszero\n      tag_199\n      jumpi\n        /* \"contracts/Voting.sol\":3180:3189  proposals */\n      0x02\n        /* \"contracts/Voting.sol\":3190:3191  i */\n      dup2\n        /* \"contracts/Voting.sol\":3180:3192  proposals[i] */\n      dup2\n      sload\n      dup2\n      lt\n      tag_201\n      jumpi\n      tag_202\n      tag_89\n      jump\t// in\n    tag_202:\n    tag_201:\n      swap1\n      0x00\n      mstore\n      keccak256(0x00, 0x20)\n      swap1\n      0x02\n      mul\n      add\n        /* \"contracts/Voting.sol\":3180:3202  proposals[i].voteCount */\n      0x01\n      add\n      sload\n        /* \"contracts/Voting.sol\":3161:3167  winner */\n      dup3\n        /* \"contracts/Voting.sol\":3161:3177  winner.voteCount */\n      0x20\n      add\n      mload\n        /* \"contracts/Voting.sol\":3161:3202  winner.voteCount < proposals[i].voteCount */\n      lt\n        /* \"contracts/Voting.sol\":3157:3346  if (winner.voteCount < proposals[i].voteCount) { // le nb de vote est supp on replace le gagnant ... */\n      iszero\n      tag_204\n      jumpi\n        /* \"contracts/Voting.sol\":3280:3289  proposals */\n      0x02\n        /* \"contracts/Voting.sol\":3290:3291  i */\n      dup2\n        /* \"contracts/Voting.sol\":3280:3292  proposals[i] */\n      dup2\n      sload\n      dup2\n      lt\n      tag_205\n      jumpi\n      tag_206\n      tag_89\n      jump\t// in\n    tag_206:\n    tag_205:\n      swap1\n      0x00\n      mstore\n      keccak256(0x00, 0x20)\n      swap1\n      0x02\n      mul\n      add\n        /* \"contracts/Voting.sol\":3271:3292  winner = proposals[i] */\n      mload(0x40)\n      dup1\n      0x40\n      add\n      0x40\n      mstore\n      swap1\n      dup2\n      0x00\n      dup3\n      add\n      dup1\n      sload\n      tag_208\n      swap1\n      tag_145\n      jump\t// in\n    tag_208:\n      dup1\n      0x1f\n      add\n      0x20\n      dup1\n      swap2\n      div\n      mul\n      0x20\n      add\n      mload(0x40)\n      swap1\n      dup2\n      add\n      0x40\n      mstore\n      dup1\n      swap3\n      swap2\n      swap1\n      dup2\n      dup2\n      mstore\n      0x20\n      add\n      dup3\n      dup1\n      sload\n      tag_209\n      swap1\n      tag_145\n      jump\t// in\n    tag_209:\n      dup1\n      iszero\n      tag_210\n      jumpi\n      dup1\n      0x1f\n      lt\n      tag_211\n      jumpi\n      0x0100\n      dup1\n      dup4\n      sload\n      div\n      mul\n      dup4\n      mstore\n      swap2\n      0x20\n      add\n      swap2\n      jump(tag_210)\n    tag_211:\n      dup3\n      add\n      swap2\n      swap1\n      0x00\n      mstore\n      keccak256(0x00, 0x20)\n      swap1\n    tag_212:\n      dup2\n      sload\n      dup2\n      mstore\n      swap1\n      0x01\n      add\n      swap1\n      0x20\n      add\n      dup1\n      dup4\n      gt\n      tag_212\n      jumpi\n      dup3\n      swap1\n      sub\n      0x1f\n      and\n      dup3\n      add\n      swap2\n    tag_210:\n      pop\n      pop\n      pop\n      pop\n      pop\n      dup2\n      mstore\n      0x20\n      add\n      0x01\n      dup3\n      add\n      sload\n      dup2\n      mstore\n      pop\n      pop\n      swap2\n      pop\n        /* \"contracts/Voting.sol\":3330:3331  i */\n      dup1\n        /* \"contracts/Voting.sol\":3310:3327  winningProposalId */\n      0x04\n        /* \"contracts/Voting.sol\":3310:3331  winningProposalId = i */\n      dup2\n      swap1\n      sstore\n      pop\n        /* \"contracts/Voting.sol\":3157:3346  if (winner.voteCount < proposals[i].voteCount) { // le nb de vote est supp on replace le gagnant ... */\n    tag_204:\n        /* \"contracts/Voting.sol\":3138:3141  i++ */\n      dup1\n      dup1\n      tag_213\n      swap1\n      tag_214\n      jump\t// in\n    tag_213:\n      swap2\n      pop\n      pop\n        /* \"contracts/Voting.sol\":3097:3356  for (uint i = 0 ; i < proposals.length ; i++) {... */\n      jump(tag_198)\n    tag_199:\n      pop\n        /* \"contracts/Voting.sol\":3375:3402  WorkflowStatus.VotesTallied */\n      0x05\n        /* \"contracts/Voting.sol\":3366:3372  status */\n      0x03\n      0x00\n        /* \"contracts/Voting.sol\":3366:3402  status = WorkflowStatus.VotesTallied */\n      0x0100\n      exp\n      dup2\n      sload\n      dup2\n      0xff\n      mul\n      not\n      and\n      swap1\n      dup4\n      0x05\n      dup2\n      gt\n      iszero\n      tag_215\n      jumpi\n      tag_216\n      tag_70\n      jump\t// in\n    tag_216:\n    tag_215:\n      mul\n      or\n      swap1\n      sstore\n      pop\n        /* \"contracts/Voting.sol\":3417:3480  WorkflowStatusChange(WorkflowStatus.VotingSessionEnded, status) */\n      0x0a97a4ee45751e2abf3e4fc8946939630b11b371ea8ae39ccdc3056e98f5cc3f\n        /* \"contracts/Voting.sol\":3438:3471  WorkflowStatus.VotingSessionEnded */\n      0x04\n        /* \"contracts/Voting.sol\":3473:3479  status */\n      0x03\n      0x00\n      swap1\n      sload\n      swap1\n      0x0100\n      exp\n      swap1\n      div\n      0xff\n      and\n        /* \"contracts/Voting.sol\":3417:3480  WorkflowStatusChange(WorkflowStatus.VotingSessionEnded, status) */\n      mload(0x40)\n      tag_217\n      swap3\n      swap2\n      swap1\n      tag_109\n      jump\t// in\n    tag_217:\n      mload(0x40)\n      dup1\n      swap2\n      sub\n      swap1\n      log1\n        /* \"contracts/Voting.sol\":2918:3487  {... */\n      pop\n        /* \"contracts/Voting.sol\":2876:3487  function talliedVote() external onlyOwner {... */\n      jump\t// out\n        /* \"contracts/Voting.sol\":5370:5574  function getVoteTo(address _address) external view returns(Voter memory) {... */\n    tag_54:\n        /* \"contracts/Voting.sol\":5429:5441  Voter memory */\n      tag_218\n      tag_219\n      jump\t// in\n    tag_218:\n        /* \"contracts/Voting.sol\":5461:5470  whiteList */\n      0x01\n        /* \"contracts/Voting.sol\":5461:5482  whiteList[msg.sender] */\n      0x00\n        /* \"contracts/Voting.sol\":5471:5481  msg.sender */\n      caller\n        /* \"contracts/Voting.sol\":5461:5482  whiteList[msg.sender] */\n      0xffffffffffffffffffffffffffffffffffffffff\n      and\n      0xffffffffffffffffffffffffffffffffffffffff\n      and\n      dup2\n      mstore\n      0x20\n      add\n      swap1\n      dup2\n      mstore\n      0x20\n      add\n      0x00\n      keccak256\n        /* \"contracts/Voting.sol\":5461:5495  whiteList[msg.sender].isRegistered */\n      0x00\n      add\n      0x00\n      swap1\n      sload\n      swap1\n      0x0100\n      exp\n      swap1\n      div\n      0xff\n      and\n        /* \"contracts/Voting.sol\":5453:5531  require(whiteList[msg.sender].isRegistered, \"Your are not registered in list\") */\n      tag_221\n      jumpi\n      mload(0x40)\n      0x08c379a000000000000000000000000000000000000000000000000000000000\n      dup2\n      mstore\n      0x04\n      add\n      tag_222\n      swap1\n      tag_79\n      jump\t// in\n    tag_222:\n      mload(0x40)\n      dup1\n      swap2\n      sub\n      swap1\n      revert\n    tag_221:\n        /* \"contracts/Voting.sol\":5548:5557  whiteList */\n      0x01\n        /* \"contracts/Voting.sol\":5548:5567  whiteList[_address] */\n      0x00\n        /* \"contracts/Voting.sol\":5558:5566  _address */\n      dup4\n        /* \"contracts/Voting.sol\":5548:5567  whiteList[_address] */\n      0xffffffffffffffffffffffffffffffffffffffff\n      and\n      0xffffffffffffffffffffffffffffffffffffffff\n      and\n      dup2\n      mstore\n      0x20\n      add\n      swap1\n      dup2\n      mstore\n      0x20\n      add\n      0x00\n      keccak256\n        /* \"contracts/Voting.sol\":5541:5567  return whiteList[_address] */\n      mload(0x40)\n      dup1\n      0x60\n      add\n      0x40\n      mstore\n      swap1\n      dup2\n      0x00\n      dup3\n      add\n      0x00\n      swap1\n      sload\n      swap1\n      0x0100\n      exp\n      swap1\n      div\n      0xff\n      and\n      iszero\n      iszero\n      iszero\n      iszero\n      dup2\n      mstore\n      0x20\n      add\n      0x00\n      dup3\n      add\n      0x01\n      swap1\n      sload\n      swap1\n      0x0100\n      exp\n      swap1\n      div\n      0xff\n      and\n      iszero\n      iszero\n      iszero\n      iszero\n      dup2\n      mstore\n      0x20\n      add\n      0x01\n      dup3\n      add\n      sload\n      dup2\n      mstore\n      pop\n      pop\n      swap1\n      pop\n        /* \"contracts/Voting.sol\":5370:5574  function getVoteTo(address _address) external view returns(Voter memory) {... */\n      swap2\n      swap1\n      pop\n      jump\t// out\n        /* \"contracts/Voting.sol\":2543:2811  function endVote() external onlyOwner {... */\n    tag_58:\n        /* \"@openzeppelin/contracts/access/Ownable.sol\":1531:1544  _checkOwner() */\n      tag_224\n        /* \"@openzeppelin/contracts/access/Ownable.sol\":1531:1542  _checkOwner */\n      tag_97\n        /* \"@openzeppelin/contracts/access/Ownable.sol\":1531:1544  _checkOwner() */\n      jump\t// in\n    tag_224:\n        /* \"contracts/Voting.sol\":2609:2644  WorkflowStatus.VotingSessionStarted */\n      0x03\n        /* \"contracts/Voting.sol\":2599:2644  status == WorkflowStatus.VotingSessionStarted */\n      0x05\n      dup2\n      gt\n      iszero\n      tag_226\n      jumpi\n      tag_227\n      tag_70\n      jump\t// in\n    tag_227:\n    tag_226:\n        /* \"contracts/Voting.sol\":2599:2605  status */\n      0x03\n      0x00\n      swap1\n      sload\n      swap1\n      0x0100\n      exp\n      swap1\n      div\n      0xff\n      and\n        /* \"contracts/Voting.sol\":2599:2644  status == WorkflowStatus.VotingSessionStarted */\n      0x05\n      dup2\n      gt\n      iszero\n      tag_228\n      jumpi\n      tag_229\n      tag_70\n      jump\t// in\n    tag_229:\n    tag_228:\n      eq\n        /* \"contracts/Voting.sol\":2591:2674  require(status == WorkflowStatus.VotingSessionStarted, \"It must be voting session\") */\n      tag_230\n      jumpi\n      mload(0x40)\n      0x08c379a000000000000000000000000000000000000000000000000000000000\n      dup2\n      mstore\n      0x04\n      add\n      tag_231\n      swap1\n      tag_232\n      jump\t// in\n    tag_231:\n      mload(0x40)\n      dup1\n      swap2\n      sub\n      swap1\n      revert\n    tag_230:\n        /* \"contracts/Voting.sol\":2693:2726  WorkflowStatus.VotingSessionEnded */\n      0x04\n        /* \"contracts/Voting.sol\":2684:2690  status */\n      0x03\n      0x00\n        /* \"contracts/Voting.sol\":2684:2726  status = WorkflowStatus.VotingSessionEnded */\n      0x0100\n      exp\n      dup2\n      sload\n      dup2\n      0xff\n      mul\n      not\n      and\n      swap1\n      dup4\n      0x05\n      dup2\n      gt\n      iszero\n      tag_233\n      jumpi\n      tag_234\n      tag_70\n      jump\t// in\n    tag_234:\n    tag_233:\n      mul\n      or\n      swap1\n      sstore\n      pop\n        /* \"contracts/Voting.sol\":2741:2804  WorkflowStatusChange(WorkflowStatus.VotingSessionEnded, status) */\n      0x0a97a4ee45751e2abf3e4fc8946939630b11b371ea8ae39ccdc3056e98f5cc3f\n        /* \"contracts/Voting.sol\":2762:2795  WorkflowStatus.VotingSessionEnded */\n      0x04\n        /* \"contracts/Voting.sol\":2797:2803  status */\n      0x03\n      0x00\n      swap1\n      sload\n      swap1\n      0x0100\n      exp\n      swap1\n      div\n      0xff\n      and\n        /* \"contracts/Voting.sol\":2741:2804  WorkflowStatusChange(WorkflowStatus.VotingSessionEnded, status) */\n      mload(0x40)\n      tag_235\n      swap3\n      swap2\n      swap1\n      tag_109\n      jump\t// in\n    tag_235:\n      mload(0x40)\n      dup1\n      swap2\n      sub\n      swap1\n      log1\n        /* \"contracts/Voting.sol\":2543:2811  function endVote() external onlyOwner {... */\n      jump\t// out\n        /* \"@openzeppelin/contracts/access/Ownable.sol\":2543:2758  function transferOwnership(address newOwner) public virtual onlyOwner {... */\n    tag_61:\n        /* \"@openzeppelin/contracts/access/Ownable.sol\":1531:1544  _checkOwner() */\n      tag_237\n        /* \"@openzeppelin/contracts/access/Ownable.sol\":1531:1542  _checkOwner */\n      tag_97\n        /* \"@openzeppelin/contracts/access/Ownable.sol\":1531:1544  _checkOwner() */\n      jump\t// in\n    tag_237:\n        /* \"@openzeppelin/contracts/access/Ownable.sol\":2647:2648  0 */\n      0x00\n        /* \"@openzeppelin/contracts/access/Ownable.sol\":2627:2649  newOwner == address(0) */\n      0xffffffffffffffffffffffffffffffffffffffff\n      and\n        /* \"@openzeppelin/contracts/access/Ownable.sol\":2627:2635  newOwner */\n      dup2\n        /* \"@openzeppelin/contracts/access/Ownable.sol\":2627:2649  newOwner == address(0) */\n      0xffffffffffffffffffffffffffffffffffffffff\n      and\n      sub\n        /* \"@openzeppelin/contracts/access/Ownable.sol\":2623:2714  if (newOwner == address(0)) {... */\n      tag_239\n      jumpi\n        /* \"@openzeppelin/contracts/access/Ownable.sol\":2700:2701  0 */\n      0x00\n        /* \"@openzeppelin/contracts/access/Ownable.sol\":2672:2703  OwnableInvalidOwner(address(0)) */\n      mload(0x40)\n      0x1e4fbdf700000000000000000000000000000000000000000000000000000000\n      dup2\n      mstore\n      0x04\n      add\n      tag_240\n      swap2\n      swap1\n      tag_42\n      jump\t// in\n    tag_240:\n      mload(0x40)\n      dup1\n      swap2\n      sub\n      swap1\n      revert\n        /* \"@openzeppelin/contracts/access/Ownable.sol\":2623:2714  if (newOwner == address(0)) {... */\n    tag_239:\n        /* \"@openzeppelin/contracts/access/Ownable.sol\":2723:2751  _transferOwnership(newOwner) */\n      tag_241\n        /* \"@openzeppelin/contracts/access/Ownable.sol\":2742:2750  newOwner */\n      dup2\n        /* \"@openzeppelin/contracts/access/Ownable.sol\":2723:2741  _transferOwnership */\n      tag_154\n        /* \"@openzeppelin/contracts/access/Ownable.sol\":2723:2751  _transferOwnership(newOwner) */\n      jump\t// in\n    tag_241:\n        /* \"@openzeppelin/contracts/access/Ownable.sol\":2543:2758  function transferOwnership(address newOwner) public virtual onlyOwner {... */\n      pop\n      jump\t// out\n        /* \"contracts/Voting.sol\":3604:3802  function addVoter(address _address) external onlyOwner isStatus(WorkflowStatus.RegisteringVoters) {... */\n    tag_64:\n        /* \"@openzeppelin/contracts/access/Ownable.sol\":1531:1544  _checkOwner() */\n      tag_243\n        /* \"@openzeppelin/contracts/access/Ownable.sol\":1531:1542  _checkOwner */\n      tag_97\n        /* \"@openzeppelin/contracts/access/Ownable.sol\":1531:1544  _checkOwner() */\n      jump\t// in\n    tag_243:\n        /* \"contracts/Voting.sol\":3668:3700  WorkflowStatus.RegisteringVoters */\n      0x00\n        /* \"contracts/Voting.sol\":1340:1347  _status */\n      dup1\n        /* \"contracts/Voting.sol\":1330:1347  status == _status */\n      0x05\n      dup2\n      gt\n      iszero\n      tag_245\n      jumpi\n      tag_246\n      tag_70\n      jump\t// in\n    tag_246:\n    tag_245:\n        /* \"contracts/Voting.sol\":1330:1336  status */\n      0x03\n      0x00\n      swap1\n      sload\n      swap1\n      0x0100\n      exp\n      swap1\n      div\n      0xff\n      and\n        /* \"contracts/Voting.sol\":1330:1347  status == _status */\n      0x05\n      dup2\n      gt\n      iszero\n      tag_247\n      jumpi\n      tag_248\n      tag_70\n      jump\t// in\n    tag_248:\n    tag_247:\n      eq\n        /* \"contracts/Voting.sol\":1322:1392  require(status == _status, \"You can't do this action, wait the phase\") */\n      tag_249\n      jumpi\n      mload(0x40)\n      0x08c379a000000000000000000000000000000000000000000000000000000000\n      dup2\n      mstore\n      0x04\n      add\n      tag_250\n      swap1\n      tag_75\n      jump\t// in\n    tag_250:\n      mload(0x40)\n      dup1\n      swap2\n      sub\n      swap1\n      revert\n    tag_249:\n        /* \"contracts/Voting.sol\":3734:3755  Voter(true, false, 0) */\n      mload(0x40)\n      dup1\n      0x60\n      add\n      0x40\n      mstore\n      dup1\n        /* \"contracts/Voting.sol\":3740:3744  true */\n      0x01\n        /* \"contracts/Voting.sol\":3734:3755  Voter(true, false, 0) */\n      iszero\n      iszero\n      dup2\n      mstore\n      0x20\n      add\n        /* \"contracts/Voting.sol\":3746:3751  false */\n      0x00\n        /* \"contracts/Voting.sol\":3734:3755  Voter(true, false, 0) */\n      iszero\n      iszero\n      dup2\n      mstore\n      0x20\n      add\n        /* \"contracts/Voting.sol\":3753:3754  0 */\n      0x00\n        /* \"contracts/Voting.sol\":3734:3755  Voter(true, false, 0) */\n      dup2\n      mstore\n      pop\n        /* \"contracts/Voting.sol\":3712:3721  whiteList */\n      0x01\n        /* \"contracts/Voting.sol\":3712:3731  whiteList[_address] */\n      0x00\n        /* \"contracts/Voting.sol\":3722:3730  _address */\n      dup5\n        /* \"contracts/Voting.sol\":3712:3731  whiteList[_address] */\n      0xffffffffffffffffffffffffffffffffffffffff\n      and\n      0xffffffffffffffffffffffffffffffffffffffff\n      and\n      dup2\n      mstore\n      0x20\n      add\n      swap1\n      dup2\n      mstore\n      0x20\n      add\n      0x00\n      keccak256\n        /* \"contracts/Voting.sol\":3712:3755  whiteList[_address] = Voter(true, false, 0) */\n      0x00\n      dup3\n      add\n      mload\n      dup2\n      0x00\n      add\n      exp(0x0100, 0x00)\n      dup2\n      sload\n      dup2\n      0xff\n      mul\n      not\n      and\n      swap1\n      dup4\n      iszero\n      iszero\n      mul\n      or\n      swap1\n      sstore\n      pop\n      0x20\n      dup3\n      add\n      mload\n      dup2\n      0x00\n      add\n      exp(0x0100, 0x01)\n      dup2\n      sload\n      dup2\n      0xff\n      mul\n      not\n      and\n      swap1\n      dup4\n      iszero\n      iszero\n      mul\n      or\n      swap1\n      sstore\n      pop\n      0x40\n      dup3\n      add\n      mload\n      dup2\n      0x01\n      add\n      sstore\n      swap1\n      pop\n      pop\n        /* \"contracts/Voting.sol\":3770:3795  VoterRegistered(_address) */\n      0xb6be2187d059cc2a55fe29e0e503b566e1e0f8c8780096e185429350acffd3dd\n        /* \"contracts/Voting.sol\":3786:3794  _address */\n      dup3\n        /* \"contracts/Voting.sol\":3770:3795  VoterRegistered(_address) */\n      mload(0x40)\n      tag_252\n      swap2\n      swap1\n      tag_42\n      jump\t// in\n    tag_252:\n      mload(0x40)\n      dup1\n      swap2\n      sub\n      swap1\n      log1\n        /* \"@openzeppelin/contracts/access/Ownable.sol\":1554:1555  _ */\n      pop\n        /* \"contracts/Voting.sol\":3604:3802  function addVoter(address _address) external onlyOwner isStatus(WorkflowStatus.RegisteringVoters) {... */\n      pop\n      jump\t// out\n        /* \"contracts/Voting.sol\":5626:5797  function resetSession() external onlyOwner {... */\n    tag_66:\n        /* \"@openzeppelin/contracts/access/Ownable.sol\":1531:1544  _checkOwner() */\n      tag_254\n        /* \"@openzeppelin/contracts/access/Ownable.sol\":1531:1542  _checkOwner */\n      tag_97\n        /* \"@openzeppelin/contracts/access/Ownable.sol\":1531:1544  _checkOwner() */\n      jump\t// in\n    tag_254:\n        /* \"contracts/Voting.sol\":5688:5720  WorkflowStatus.RegisteringVoters */\n      0x00\n        /* \"contracts/Voting.sol\":5679:5685  status */\n      0x03\n      0x00\n        /* \"contracts/Voting.sol\":5679:5720  status = WorkflowStatus.RegisteringVoters */\n      0x0100\n      exp\n      dup2\n      sload\n      dup2\n      0xff\n      mul\n      not\n      and\n      swap1\n      dup4\n      0x05\n      dup2\n      gt\n      iszero\n      tag_256\n      jumpi\n      tag_257\n      tag_70\n      jump\t// in\n    tag_257:\n    tag_256:\n      mul\n      or\n      swap1\n      sstore\n      pop\n        /* \"contracts/Voting.sol\":5737:5746  proposals */\n      0x02\n      0x00\n        /* \"contracts/Voting.sol\":5730:5746  delete proposals */\n      tag_258\n      swap2\n      swap1\n      tag_259\n      jump\t// in\n    tag_258:\n        /* \"contracts/Voting.sol\":5626:5797  function resetSession() external onlyOwner {... */\n      jump\t// out\n        /* \"@openzeppelin/contracts/access/Ownable.sol\":1796:1958  function _checkOwner() internal view virtual {... */\n    tag_97:\n        /* \"@openzeppelin/contracts/access/Ownable.sol\":1866:1878  _msgSender() */\n      tag_261\n        /* \"@openzeppelin/contracts/access/Ownable.sol\":1866:1876  _msgSender */\n      tag_262\n        /* \"@openzeppelin/contracts/access/Ownable.sol\":1866:1878  _msgSender() */\n      jump\t// in\n    tag_261:\n        /* \"@openzeppelin/contracts/access/Ownable.sol\":1855:1878  owner() != _msgSender() */\n      0xffffffffffffffffffffffffffffffffffffffff\n      and\n        /* \"@openzeppelin/contracts/access/Ownable.sol\":1855:1862  owner() */\n      tag_263\n        /* \"@openzeppelin/contracts/access/Ownable.sol\":1855:1860  owner */\n      tag_40\n        /* \"@openzeppelin/contracts/access/Ownable.sol\":1855:1862  owner() */\n      jump\t// in\n    tag_263:\n        /* \"@openzeppelin/contracts/access/Ownable.sol\":1855:1878  owner() != _msgSender() */\n      0xffffffffffffffffffffffffffffffffffffffff\n      and\n      eq\n        /* \"@openzeppelin/contracts/access/Ownable.sol\":1851:1952  if (owner() != _msgSender()) {... */\n      tag_264\n      jumpi\n        /* \"@openzeppelin/contracts/access/Ownable.sol\":1928:1940  _msgSender() */\n      tag_265\n        /* \"@openzeppelin/contracts/access/Ownable.sol\":1928:1938  _msgSender */\n      tag_262\n        /* \"@openzeppelin/contracts/access/Ownable.sol\":1928:1940  _msgSender() */\n      jump\t// in\n    tag_265:\n        /* \"@openzeppelin/contracts/access/Ownable.sol\":1901:1941  OwnableUnauthorizedAccount(_msgSender()) */\n      mload(0x40)\n      0x118cdaa700000000000000000000000000000000000000000000000000000000\n      dup2\n      mstore\n      0x04\n      add\n      tag_266\n      swap2\n      swap1\n      tag_42\n      jump\t// in\n    tag_266:\n      mload(0x40)\n      dup1\n      swap2\n      sub\n      swap1\n      revert\n        /* \"@openzeppelin/contracts/access/Ownable.sol\":1851:1952  if (owner() != _msgSender()) {... */\n    tag_264:\n        /* \"@openzeppelin/contracts/access/Ownable.sol\":1796:1958  function _checkOwner() internal view virtual {... */\n      jump\t// out\n        /* \"@openzeppelin/contracts/access/Ownable.sol\":2912:3099  function _transferOwnership(address newOwner) internal virtual {... */\n    tag_154:\n        /* \"@openzeppelin/contracts/access/Ownable.sol\":2985:3001  address oldOwner */\n      0x00\n        /* \"@openzeppelin/contracts/access/Ownable.sol\":3004:3010  _owner */\n      dup1\n      0x00\n      swap1\n      sload\n      swap1\n      0x0100\n      exp\n      swap1\n      div\n      0xffffffffffffffffffffffffffffffffffffffff\n      and\n        /* \"@openzeppelin/contracts/access/Ownable.sol\":2985:3010  address oldOwner = _owner */\n      swap1\n      pop\n        /* \"@openzeppelin/contracts/access/Ownable.sol\":3029:3037  newOwner */\n      dup2\n        /* \"@openzeppelin/contracts/access/Ownable.sol\":3020:3026  _owner */\n      0x00\n      dup1\n        /* \"@openzeppelin/contracts/access/Ownable.sol\":3020:3037  _owner = newOwner */\n      0x0100\n      exp\n      dup2\n      sload\n      dup2\n      0xffffffffffffffffffffffffffffffffffffffff\n      mul\n      not\n      and\n      swap1\n      dup4\n      0xffffffffffffffffffffffffffffffffffffffff\n      and\n      mul\n      or\n      swap1\n      sstore\n      pop\n        /* \"@openzeppelin/contracts/access/Ownable.sol\":3083:3091  newOwner */\n      dup2\n        /* \"@openzeppelin/contracts/access/Ownable.sol\":3052:3092  OwnershipTransferred(oldOwner, newOwner) */\n      0xffffffffffffffffffffffffffffffffffffffff\n      and\n        /* \"@openzeppelin/contracts/access/Ownable.sol\":3073:3081  oldOwner */\n      dup2\n        /* \"@openzeppelin/contracts/access/Ownable.sol\":3052:3092  OwnershipTransferred(oldOwner, newOwner) */\n      0xffffffffffffffffffffffffffffffffffffffff\n      and\n      0x8be0079c531659141344cd1fd0a4f28419497f9722a3daafe3b4186f6b6457e0\n      mload(0x40)\n      mload(0x40)\n      dup1\n      swap2\n      sub\n      swap1\n      log3\n        /* \"@openzeppelin/contracts/access/Ownable.sol\":2975:3099  {... */\n      pop\n        /* \"@openzeppelin/contracts/access/Ownable.sol\":2912:3099  function _transferOwnership(address newOwner) internal virtual {... */\n      pop\n      jump\t// out\n        /* \"@openzeppelin/contracts/utils/Context.sol\":656:752  function _msgSender() internal view virtual returns (address) {... */\n    tag_262:\n        /* \"@openzeppelin/contracts/utils/Context.sol\":709:716  address */\n      0x00\n        /* \"@openzeppelin/contracts/utils/Context.sol\":735:745  msg.sender */\n      caller\n        /* \"@openzeppelin/contracts/utils/Context.sol\":728:745  return msg.sender */\n      swap1\n      pop\n        /* \"@openzeppelin/contracts/utils/Context.sol\":656:752  function _msgSender() internal view virtual returns (address) {... */\n      swap1\n      jump\t// out\n    tag_157:\n      mload(0x40)\n      dup1\n      0x40\n      add\n      0x40\n      mstore\n      dup1\n      0x60\n      dup2\n      mstore\n      0x20\n      add\n      0x00\n      dup2\n      mstore\n      pop\n      swap1\n      jump\t// out\n    tag_219:\n      mload(0x40)\n      dup1\n      0x60\n      add\n      0x40\n      mstore\n      dup1\n      iszero(iszero(0x00))\n      dup2\n      mstore\n      0x20\n      add\n      iszero(iszero(0x00))\n      dup2\n      mstore\n      0x20\n      add\n      0x00\n      dup2\n      mstore\n      pop\n      swap1\n      jump\t// out\n    tag_259:\n      pop\n      dup1\n      sload\n      0x00\n      dup3\n      sstore\n      0x02\n      mul\n      swap1\n      0x00\n      mstore\n      keccak256(0x00, 0x20)\n      swap1\n      dup2\n      add\n      swap1\n      tag_270\n      swap2\n      swap1\n      tag_271\n      jump\t// in\n    tag_270:\n      pop\n      jump\t// out\n    tag_271:\n    tag_272:\n      dup1\n      dup3\n      gt\n      iszero\n      tag_273\n      jumpi\n      0x00\n      dup1\n      dup3\n      add\n      0x00\n      tag_274\n      swap2\n      swap1\n      tag_275\n      jump\t// in\n    tag_274:\n      0x01\n      dup3\n      add\n      0x00\n      swap1\n      sstore\n      pop\n      0x02\n      add\n      jump(tag_272)\n    tag_273:\n      pop\n      swap1\n      jump\t// out\n    tag_275:\n      pop\n      dup1\n      sload\n      tag_276\n      swap1\n      tag_145\n      jump\t// in\n    tag_276:\n      0x00\n      dup3\n      sstore\n      dup1\n      0x1f\n      lt\n      tag_278\n      jumpi\n      pop\n      jump(tag_277)\n    tag_278:\n      0x1f\n      add\n      0x20\n      swap1\n      div\n      swap1\n      0x00\n      mstore\n      keccak256(0x00, 0x20)\n      swap1\n      dup2\n      add\n      swap1\n      tag_279\n      swap2\n      swap1\n      tag_280\n      jump\t// in\n    tag_279:\n    tag_277:\n      pop\n      jump\t// out\n    tag_280:\n    tag_281:\n      dup1\n      dup3\n      gt\n      iszero\n      tag_282\n      jumpi\n      0x00\n      dup2\n      0x00\n      swap1\n      sstore\n      pop\n      0x01\n      add\n      jump(tag_281)\n    tag_282:\n      pop\n      swap1\n      jump\t// out\n        /* \"#utility.yul\":88:205   */\n    tag_284:\n        /* \"#utility.yul\":197:198   */\n      0x00\n        /* \"#utility.yul\":194:195   */\n      dup1\n        /* \"#utility.yul\":187:199   */\n      revert\n        /* \"#utility.yul\":211:328   */\n    tag_285:\n        /* \"#utility.yul\":320:321   */\n      0x00\n        /* \"#utility.yul\":317:318   */\n      dup1\n        /* \"#utility.yul\":310:322   */\n      revert\n        /* \"#utility.yul\":334:411   */\n    tag_286:\n        /* \"#utility.yul\":371:378   */\n      0x00\n        /* \"#utility.yul\":400:405   */\n      dup2\n        /* \"#utility.yul\":389:405   */\n      swap1\n      pop\n        /* \"#utility.yul\":334:411   */\n      swap2\n      swap1\n      pop\n      jump\t// out\n        /* \"#utility.yul\":417:539   */\n    tag_287:\n        /* \"#utility.yul\":490:514   */\n      tag_363\n        /* \"#utility.yul\":508:513   */\n      dup2\n        /* \"#utility.yul\":490:514   */\n      tag_286\n      jump\t// in\n    tag_363:\n        /* \"#utility.yul\":483:488   */\n      dup2\n        /* \"#utility.yul\":480:515   */\n      eq\n        /* \"#utility.yul\":470:533   */\n      tag_364\n      jumpi\n        /* \"#utility.yul\":529:530   */\n      0x00\n        /* \"#utility.yul\":526:527   */\n      dup1\n        /* \"#utility.yul\":519:531   */\n      revert\n        /* \"#utility.yul\":470:533   */\n    tag_364:\n        /* \"#utility.yul\":417:539   */\n      pop\n      jump\t// out\n        /* \"#utility.yul\":545:684   */\n    tag_288:\n        /* \"#utility.yul\":591:596   */\n      0x00\n        /* \"#utility.yul\":629:635   */\n      dup2\n        /* \"#utility.yul\":616:636   */\n      calldataload\n        /* \"#utility.yul\":607:636   */\n      swap1\n      pop\n        /* \"#utility.yul\":645:678   */\n      tag_366\n        /* \"#utility.yul\":672:677   */\n      dup2\n        /* \"#utility.yul\":645:678   */\n      tag_287\n      jump\t// in\n    tag_366:\n        /* \"#utility.yul\":545:684   */\n      swap3\n      swap2\n      pop\n      pop\n      jump\t// out\n        /* \"#utility.yul\":690:1019   */\n    tag_23:\n        /* \"#utility.yul\":749:755   */\n      0x00\n        /* \"#utility.yul\":798:800   */\n      0x20\n        /* \"#utility.yul\":786:795   */\n      dup3\n        /* \"#utility.yul\":777:784   */\n      dup5\n        /* \"#utility.yul\":773:796   */\n      sub\n        /* \"#utility.yul\":769:801   */\n      slt\n        /* \"#utility.yul\":766:885   */\n      iszero\n      tag_368\n      jumpi\n        /* \"#utility.yul\":804:883   */\n      tag_369\n      tag_284\n      jump\t// in\n    tag_369:\n        /* \"#utility.yul\":766:885   */\n    tag_368:\n        /* \"#utility.yul\":924:925   */\n      0x00\n        /* \"#utility.yul\":949:1002   */\n      tag_370\n        /* \"#utility.yul\":994:1001   */\n      dup5\n        /* \"#utility.yul\":985:991   */\n      dup3\n        /* \"#utility.yul\":974:983   */\n      dup6\n        /* \"#utility.yul\":970:992   */\n      add\n        /* \"#utility.yul\":949:1002   */\n      tag_288\n      jump\t// in\n    tag_370:\n        /* \"#utility.yul\":939:1002   */\n      swap2\n      pop\n        /* \"#utility.yul\":895:1012   */\n      pop\n        /* \"#utility.yul\":690:1019   */\n      swap3\n      swap2\n      pop\n      pop\n      jump\t// out\n        /* \"#utility.yul\":1025:1142   */\n    tag_289:\n        /* \"#utility.yul\":1134:1135   */\n      0x00\n        /* \"#utility.yul\":1131:1132   */\n      dup1\n        /* \"#utility.yul\":1124:1136   */\n      revert\n        /* \"#utility.yul\":1148:1265   */\n    tag_290:\n        /* \"#utility.yul\":1257:1258   */\n      0x00\n        /* \"#utility.yul\":1254:1255   */\n      dup1\n        /* \"#utility.yul\":1247:1259   */\n      revert\n        /* \"#utility.yul\":1271:1388   */\n    tag_291:\n        /* \"#utility.yul\":1380:1381   */\n      0x00\n        /* \"#utility.yul\":1377:1378   */\n      dup1\n        /* \"#utility.yul\":1370:1382   */\n      revert\n        /* \"#utility.yul\":1408:1961   */\n    tag_292:\n        /* \"#utility.yul\":1466:1474   */\n      0x00\n        /* \"#utility.yul\":1476:1482   */\n      dup1\n        /* \"#utility.yul\":1526:1529   */\n      dup4\n        /* \"#utility.yul\":1519:1523   */\n      0x1f\n        /* \"#utility.yul\":1511:1517   */\n      dup5\n        /* \"#utility.yul\":1507:1524   */\n      add\n        /* \"#utility.yul\":1503:1530   */\n      slt\n        /* \"#utility.yul\":1493:1615   */\n      tag_375\n      jumpi\n        /* \"#utility.yul\":1534:1613   */\n      tag_376\n      tag_289\n      jump\t// in\n    tag_376:\n        /* \"#utility.yul\":1493:1615   */\n    tag_375:\n        /* \"#utility.yul\":1647:1653   */\n      dup3\n        /* \"#utility.yul\":1634:1654   */\n      calldataload\n        /* \"#utility.yul\":1624:1654   */\n      swap1\n      pop\n        /* \"#utility.yul\":1677:1695   */\n      0xffffffffffffffff\n        /* \"#utility.yul\":1669:1675   */\n      dup2\n        /* \"#utility.yul\":1666:1696   */\n      gt\n        /* \"#utility.yul\":1663:1780   */\n      iszero\n      tag_377\n      jumpi\n        /* \"#utility.yul\":1699:1778   */\n      tag_378\n      tag_290\n      jump\t// in\n    tag_378:\n        /* \"#utility.yul\":1663:1780   */\n    tag_377:\n        /* \"#utility.yul\":1813:1817   */\n      0x20\n        /* \"#utility.yul\":1805:1811   */\n      dup4\n        /* \"#utility.yul\":1801:1818   */\n      add\n        /* \"#utility.yul\":1789:1818   */\n      swap2\n      pop\n        /* \"#utility.yul\":1867:1870   */\n      dup4\n        /* \"#utility.yul\":1859:1863   */\n      0x01\n        /* \"#utility.yul\":1851:1857   */\n      dup3\n        /* \"#utility.yul\":1847:1864   */\n      mul\n        /* \"#utility.yul\":1837:1845   */\n      dup4\n        /* \"#utility.yul\":1833:1865   */\n      add\n        /* \"#utility.yul\":1830:1871   */\n      gt\n        /* \"#utility.yul\":1827:1955   */\n      iszero\n      tag_379\n      jumpi\n        /* \"#utility.yul\":1874:1953   */\n      tag_380\n      tag_291\n      jump\t// in\n    tag_380:\n        /* \"#utility.yul\":1827:1955   */\n    tag_379:\n        /* \"#utility.yul\":1408:1961   */\n      swap3\n      pop\n      swap3\n      swap1\n      pop\n      jump\t// out\n        /* \"#utility.yul\":1967:2496   */\n    tag_29:\n        /* \"#utility.yul\":2038:2044   */\n      0x00\n        /* \"#utility.yul\":2046:2052   */\n      dup1\n        /* \"#utility.yul\":2095:2097   */\n      0x20\n        /* \"#utility.yul\":2083:2092   */\n      dup4\n        /* \"#utility.yul\":2074:2081   */\n      dup6\n        /* \"#utility.yul\":2070:2093   */\n      sub\n        /* \"#utility.yul\":2066:2098   */\n      slt\n        /* \"#utility.yul\":2063:2182   */\n      iszero\n      tag_382\n      jumpi\n        /* \"#utility.yul\":2101:2180   */\n      tag_383\n      tag_284\n      jump\t// in\n    tag_383:\n        /* \"#utility.yul\":2063:2182   */\n    tag_382:\n        /* \"#utility.yul\":2249:2250   */\n      0x00\n        /* \"#utility.yul\":2238:2247   */\n      dup4\n        /* \"#utility.yul\":2234:2251   */\n      add\n        /* \"#utility.yul\":2221:2252   */\n      calldataload\n        /* \"#utility.yul\":2279:2297   */\n      0xffffffffffffffff\n        /* \"#utility.yul\":2271:2277   */\n      dup2\n        /* \"#utility.yul\":2268:2298   */\n      gt\n        /* \"#utility.yul\":2265:2382   */\n      iszero\n      tag_384\n      jumpi\n        /* \"#utility.yul\":2301:2380   */\n      tag_385\n      tag_285\n      jump\t// in\n    tag_385:\n        /* \"#utility.yul\":2265:2382   */\n    tag_384:\n        /* \"#utility.yul\":2414:2479   */\n      tag_386\n        /* \"#utility.yul\":2471:2478   */\n      dup6\n        /* \"#utility.yul\":2462:2468   */\n      dup3\n        /* \"#utility.yul\":2451:2460   */\n      dup7\n        /* \"#utility.yul\":2447:2469   */\n      add\n        /* \"#utility.yul\":2414:2479   */\n      tag_292\n      jump\t// in\n    tag_386:\n        /* \"#utility.yul\":2396:2479   */\n      swap3\n      pop\n      swap3\n      pop\n        /* \"#utility.yul\":2192:2489   */\n      pop\n        /* \"#utility.yul\":1967:2496   */\n      swap3\n      pop\n      swap3\n      swap1\n      pop\n      jump\t// out\n        /* \"#utility.yul\":2502:2641   */\n    tag_293:\n        /* \"#utility.yul\":2594:2600   */\n      0x00\n        /* \"#utility.yul\":2628:2633   */\n      dup2\n        /* \"#utility.yul\":2622:2634   */\n      mload\n        /* \"#utility.yul\":2612:2634   */\n      swap1\n      pop\n        /* \"#utility.yul\":2502:2641   */\n      swap2\n      swap1\n      pop\n      jump\t// out\n        /* \"#utility.yul\":2647:2856   */\n    tag_294:\n        /* \"#utility.yul\":2771:2782   */\n      0x00\n        /* \"#utility.yul\":2805:2811   */\n      dup3\n        /* \"#utility.yul\":2800:2803   */\n      dup3\n        /* \"#utility.yul\":2793:2812   */\n      mstore\n        /* \"#utility.yul\":2845:2849   */\n      0x20\n        /* \"#utility.yul\":2840:2843   */\n      dup3\n        /* \"#utility.yul\":2836:2850   */\n      add\n        /* \"#utility.yul\":2821:2850   */\n      swap1\n      pop\n        /* \"#utility.yul\":2647:2856   */\n      swap3\n      swap2\n      pop\n      pop\n      jump\t// out\n        /* \"#utility.yul\":2862:3019   */\n    tag_295:\n        /* \"#utility.yul\":2954:2958   */\n      0x00\n        /* \"#utility.yul\":2977:2980   */\n      dup2\n        /* \"#utility.yul\":2969:2980   */\n      swap1\n      pop\n        /* \"#utility.yul\":3007:3011   */\n      0x20\n        /* \"#utility.yul\":3002:3005   */\n      dup3\n        /* \"#utility.yul\":2998:3012   */\n      add\n        /* \"#utility.yul\":2990:3012   */\n      swap1\n      pop\n        /* \"#utility.yul\":2862:3019   */\n      swap2\n      swap1\n      pop\n      jump\t// out\n        /* \"#utility.yul\":3025:3124   */\n    tag_296:\n        /* \"#utility.yul\":3077:3083   */\n      0x00\n        /* \"#utility.yul\":3111:3116   */\n      dup2\n        /* \"#utility.yul\":3105:3117   */\n      mload\n        /* \"#utility.yul\":3095:3117   */\n      swap1\n      pop\n        /* \"#utility.yul\":3025:3124   */\n      swap2\n      swap1\n      pop\n      jump\t// out\n        /* \"#utility.yul\":3130:3289   */\n    tag_297:\n        /* \"#utility.yul\":3204:3215   */\n      0x00\n        /* \"#utility.yul\":3238:3244   */\n      dup3\n        /* \"#utility.yul\":3233:3236   */\n      dup3\n        /* \"#utility.yul\":3226:3245   */\n      mstore\n        /* \"#utility.yul\":3278:3282   */\n      0x20\n        /* \"#utility.yul\":3273:3276   */\n      dup3\n        /* \"#utility.yul\":3269:3283   */\n      add\n        /* \"#utility.yul\":3254:3283   */\n      swap1\n      pop\n        /* \"#utility.yul\":3130:3289   */\n      swap3\n      swap2\n      pop\n      pop\n      jump\t// out\n        /* \"#utility.yul\":3295:3541   */\n    tag_298:\n        /* \"#utility.yul\":3376:3377   */\n      0x00\n        /* \"#utility.yul\":3386:3499   */\n    tag_393:\n        /* \"#utility.yul\":3400:3406   */\n      dup4\n        /* \"#utility.yul\":3397:3398   */\n      dup2\n        /* \"#utility.yul\":3394:3407   */\n      lt\n        /* \"#utility.yul\":3386:3499   */\n      iszero\n      tag_395\n      jumpi\n        /* \"#utility.yul\":3485:3486   */\n      dup1\n        /* \"#utility.yul\":3480:3483   */\n      dup3\n        /* \"#utility.yul\":3476:3487   */\n      add\n        /* \"#utility.yul\":3470:3488   */\n      mload\n        /* \"#utility.yul\":3466:3467   */\n      dup2\n        /* \"#utility.yul\":3461:3464   */\n      dup5\n        /* \"#utility.yul\":3457:3468   */\n      add\n        /* \"#utility.yul\":3450:3489   */\n      mstore\n        /* \"#utility.yul\":3422:3424   */\n      0x20\n        /* \"#utility.yul\":3419:3420   */\n      dup2\n        /* \"#utility.yul\":3415:3425   */\n      add\n        /* \"#utility.yul\":3410:3425   */\n      swap1\n      pop\n        /* \"#utility.yul\":3386:3499   */\n      jump(tag_393)\n    tag_395:\n        /* \"#utility.yul\":3533:3534   */\n      0x00\n        /* \"#utility.yul\":3524:3530   */\n      dup5\n        /* \"#utility.yul\":3519:3522   */\n      dup5\n        /* \"#utility.yul\":3515:3531   */\n      add\n        /* \"#utility.yul\":3508:3535   */\n      mstore\n        /* \"#utility.yul\":3357:3541   */\n      pop\n        /* \"#utility.yul\":3295:3541   */\n      pop\n      pop\n      pop\n      jump\t// out\n        /* \"#utility.yul\":3547:3649   */\n    tag_299:\n        /* \"#utility.yul\":3588:3594   */\n      0x00\n        /* \"#utility.yul\":3639:3641   */\n      0x1f\n        /* \"#utility.yul\":3635:3642   */\n      not\n        /* \"#utility.yul\":3630:3632   */\n      0x1f\n        /* \"#utility.yul\":3623:3628   */\n      dup4\n        /* \"#utility.yul\":3619:3633   */\n      add\n        /* \"#utility.yul\":3615:3643   */\n      and\n        /* \"#utility.yul\":3605:3643   */\n      swap1\n      pop\n        /* \"#utility.yul\":3547:3649   */\n      swap2\n      swap1\n      pop\n      jump\t// out\n        /* \"#utility.yul\":3655:4012   */\n    tag_300:\n        /* \"#utility.yul\":3733:3736   */\n      0x00\n        /* \"#utility.yul\":3761:3800   */\n      tag_398\n        /* \"#utility.yul\":3794:3799   */\n      dup3\n        /* \"#utility.yul\":3761:3800   */\n      tag_296\n      jump\t// in\n    tag_398:\n        /* \"#utility.yul\":3816:3877   */\n      tag_399\n        /* \"#utility.yul\":3870:3876   */\n      dup2\n        /* \"#utility.yul\":3865:3868   */\n      dup6\n        /* \"#utility.yul\":3816:3877   */\n      tag_297\n      jump\t// in\n    tag_399:\n        /* \"#utility.yul\":3809:3877   */\n      swap4\n      pop\n        /* \"#utility.yul\":3886:3951   */\n      tag_400\n        /* \"#utility.yul\":3944:3950   */\n      dup2\n        /* \"#utility.yul\":3939:3942   */\n      dup6\n        /* \"#utility.yul\":3932:3936   */\n      0x20\n        /* \"#utility.yul\":3925:3930   */\n      dup7\n        /* \"#utility.yul\":3921:3937   */\n      add\n        /* \"#utility.yul\":3886:3951   */\n      tag_298\n      jump\t// in\n    tag_400:\n        /* \"#utility.yul\":3976:4005   */\n      tag_401\n        /* \"#utility.yul\":3998:4004   */\n      dup2\n        /* \"#utility.yul\":3976:4005   */\n      tag_299\n      jump\t// in\n    tag_401:\n        /* \"#utility.yul\":3971:3974   */\n      dup5\n        /* \"#utility.yul\":3967:4006   */\n      add\n        /* \"#utility.yul\":3960:4006   */\n      swap2\n      pop\n        /* \"#utility.yul\":3737:4012   */\n      pop\n        /* \"#utility.yul\":3655:4012   */\n      swap3\n      swap2\n      pop\n      pop\n      jump\t// out\n        /* \"#utility.yul\":4018:4126   */\n    tag_301:\n        /* \"#utility.yul\":4095:4119   */\n      tag_403\n        /* \"#utility.yul\":4113:4118   */\n      dup2\n        /* \"#utility.yul\":4095:4119   */\n      tag_286\n      jump\t// in\n    tag_403:\n        /* \"#utility.yul\":4090:4093   */\n      dup3\n        /* \"#utility.yul\":4083:4120   */\n      mstore\n        /* \"#utility.yul\":4018:4126   */\n      pop\n      pop\n      jump\t// out\n        /* \"#utility.yul\":4188:4796   */\n    tag_302:\n        /* \"#utility.yul\":4297:4300   */\n      0x00\n        /* \"#utility.yul\":4333:4337   */\n      0x40\n        /* \"#utility.yul\":4328:4331   */\n      dup4\n        /* \"#utility.yul\":4324:4338   */\n      add\n        /* \"#utility.yul\":4427:4431   */\n      0x00\n        /* \"#utility.yul\":4420:4425   */\n      dup4\n        /* \"#utility.yul\":4416:4432   */\n      add\n        /* \"#utility.yul\":4410:4433   */\n      mload\n        /* \"#utility.yul\":4480:4483   */\n      dup5\n        /* \"#utility.yul\":4474:4478   */\n      dup3\n        /* \"#utility.yul\":4470:4484   */\n      sub\n        /* \"#utility.yul\":4463:4467   */\n      0x00\n        /* \"#utility.yul\":4458:4461   */\n      dup7\n        /* \"#utility.yul\":4454:4468   */\n      add\n        /* \"#utility.yul\":4447:4485   */\n      mstore\n        /* \"#utility.yul\":4506:4579   */\n      tag_405\n        /* \"#utility.yul\":4574:4578   */\n      dup3\n        /* \"#utility.yul\":4560:4572   */\n      dup3\n        /* \"#utility.yul\":4506:4579   */\n      tag_300\n      jump\t// in\n    tag_405:\n        /* \"#utility.yul\":4498:4579   */\n      swap2\n      pop\n        /* \"#utility.yul\":4348:4590   */\n      pop\n        /* \"#utility.yul\":4677:4681   */\n      0x20\n        /* \"#utility.yul\":4670:4675   */\n      dup4\n        /* \"#utility.yul\":4666:4682   */\n      add\n        /* \"#utility.yul\":4660:4683   */\n      mload\n        /* \"#utility.yul\":4696:4759   */\n      tag_406\n        /* \"#utility.yul\":4753:4757   */\n      0x20\n        /* \"#utility.yul\":4748:4751   */\n      dup7\n        /* \"#utility.yul\":4744:4758   */\n      add\n        /* \"#utility.yul\":4730:4742   */\n      dup3\n        /* \"#utility.yul\":4696:4759   */\n      tag_301\n      jump\t// in\n    tag_406:\n        /* \"#utility.yul\":4600:4769   */\n      pop\n        /* \"#utility.yul\":4786:4790   */\n      dup1\n        /* \"#utility.yul\":4779:4790   */\n      swap2\n      pop\n        /* \"#utility.yul\":4302:4796   */\n      pop\n        /* \"#utility.yul\":4188:4796   */\n      swap3\n      swap2\n      pop\n      pop\n      jump\t// out\n        /* \"#utility.yul\":4802:5058   */\n    tag_303:\n        /* \"#utility.yul\":4921:4931   */\n      0x00\n        /* \"#utility.yul\":4956:5052   */\n      tag_408\n        /* \"#utility.yul\":5048:5051   */\n      dup4\n        /* \"#utility.yul\":5040:5046   */\n      dup4\n        /* \"#utility.yul\":4956:5052   */\n      tag_302\n      jump\t// in\n    tag_408:\n        /* \"#utility.yul\":4942:5052   */\n      swap1\n      pop\n        /* \"#utility.yul\":4802:5058   */\n      swap3\n      swap2\n      pop\n      pop\n      jump\t// out\n        /* \"#utility.yul\":5064:5202   */\n    tag_304:\n        /* \"#utility.yul\":5159:5163   */\n      0x00\n        /* \"#utility.yul\":5191:5195   */\n      0x20\n        /* \"#utility.yul\":5186:5189   */\n      dup3\n        /* \"#utility.yul\":5182:5196   */\n      add\n        /* \"#utility.yul\":5174:5196   */\n      swap1\n      pop\n        /* \"#utility.yul\":5064:5202   */\n      swap2\n      swap1\n      pop\n      jump\t// out\n        /* \"#utility.yul\":5268:6379   */\n    tag_305:\n        /* \"#utility.yul\":5437:5440   */\n      0x00\n        /* \"#utility.yul\":5466:5545   */\n      tag_411\n        /* \"#utility.yul\":5539:5544   */\n      dup3\n        /* \"#utility.yul\":5466:5545   */\n      tag_293\n      jump\t// in\n    tag_411:\n        /* \"#utility.yul\":5561:5672   */\n      tag_412\n        /* \"#utility.yul\":5665:5671   */\n      dup2\n        /* \"#utility.yul\":5660:5663   */\n      dup6\n        /* \"#utility.yul\":5561:5672   */\n      tag_294\n      jump\t// in\n    tag_412:\n        /* \"#utility.yul\":5554:5672   */\n      swap4\n      pop\n        /* \"#utility.yul\":5698:5701   */\n      dup4\n        /* \"#utility.yul\":5743:5747   */\n      0x20\n        /* \"#utility.yul\":5735:5741   */\n      dup3\n        /* \"#utility.yul\":5731:5748   */\n      mul\n        /* \"#utility.yul\":5726:5729   */\n      dup6\n        /* \"#utility.yul\":5722:5749   */\n      add\n        /* \"#utility.yul\":5773:5854   */\n      tag_413\n        /* \"#utility.yul\":5848:5853   */\n      dup6\n        /* \"#utility.yul\":5773:5854   */\n      tag_295\n      jump\t// in\n    tag_413:\n        /* \"#utility.yul\":5877:5884   */\n      dup1\n        /* \"#utility.yul\":5908:5909   */\n      0x00\n        /* \"#utility.yul\":5893:6334   */\n    tag_414:\n        /* \"#utility.yul\":5918:5924   */\n      dup6\n        /* \"#utility.yul\":5915:5916   */\n      dup2\n        /* \"#utility.yul\":5912:5925   */\n      lt\n        /* \"#utility.yul\":5893:6334   */\n      iszero\n      tag_416\n      jumpi\n        /* \"#utility.yul\":5989:5998   */\n      dup5\n        /* \"#utility.yul\":5983:5987   */\n      dup5\n        /* \"#utility.yul\":5979:5999   */\n      sub\n        /* \"#utility.yul\":5974:5977   */\n      dup10\n        /* \"#utility.yul\":5967:6000   */\n      mstore\n        /* \"#utility.yul\":6040:6046   */\n      dup2\n        /* \"#utility.yul\":6034:6047   */\n      mload\n        /* \"#utility.yul\":6068:6182   */\n      tag_417\n        /* \"#utility.yul\":6177:6181   */\n      dup6\n        /* \"#utility.yul\":6162:6175   */\n      dup3\n        /* \"#utility.yul\":6068:6182   */\n      tag_303\n      jump\t// in\n    tag_417:\n        /* \"#utility.yul\":6060:6182   */\n      swap5\n      pop\n        /* \"#utility.yul\":6205:6290   */\n      tag_418\n        /* \"#utility.yul\":6283:6289   */\n      dup4\n        /* \"#utility.yul\":6205:6290   */\n      tag_304\n      jump\t// in\n    tag_418:\n        /* \"#utility.yul\":6195:6290   */\n      swap3\n      pop\n        /* \"#utility.yul\":6319:6323   */\n      0x20\n        /* \"#utility.yul\":6314:6317   */\n      dup11\n        /* \"#utility.yul\":6310:6324   */\n      add\n        /* \"#utility.yul\":6303:6324   */\n      swap10\n      pop\n        /* \"#utility.yul\":5953:6334   */\n      pop\n        /* \"#utility.yul\":5940:5941   */\n      0x01\n        /* \"#utility.yul\":5937:5938   */\n      dup2\n        /* \"#utility.yul\":5933:5942   */\n      add\n        /* \"#utility.yul\":5928:5942   */\n      swap1\n      pop\n        /* \"#utility.yul\":5893:6334   */\n      jump(tag_414)\n    tag_416:\n        /* \"#utility.yul\":5897:5911   */\n      pop\n        /* \"#utility.yul\":6350:6354   */\n      dup3\n        /* \"#utility.yul\":6343:6354   */\n      swap8\n      pop\n        /* \"#utility.yul\":6370:6373   */\n      dup8\n        /* \"#utility.yul\":6363:6373   */\n      swap6\n      pop\n        /* \"#utility.yul\":5442:6379   */\n      pop\n      pop\n      pop\n      pop\n      pop\n        /* \"#utility.yul\":5268:6379   */\n      swap3\n      swap2\n      pop\n      pop\n      jump\t// out\n        /* \"#utility.yul\":6385:6858   */\n    tag_36:\n        /* \"#utility.yul\":6578:6582   */\n      0x00\n        /* \"#utility.yul\":6616:6618   */\n      0x20\n        /* \"#utility.yul\":6605:6614   */\n      dup3\n        /* \"#utility.yul\":6601:6619   */\n      add\n        /* \"#utility.yul\":6593:6619   */\n      swap1\n      pop\n        /* \"#utility.yul\":6665:6674   */\n      dup2\n        /* \"#utility.yul\":6659:6663   */\n      dup2\n        /* \"#utility.yul\":6655:6675   */\n      sub\n        /* \"#utility.yul\":6651:6652   */\n      0x00\n        /* \"#utility.yul\":6640:6649   */\n      dup4\n        /* \"#utility.yul\":6636:6653   */\n      add\n        /* \"#utility.yul\":6629:6676   */\n      mstore\n        /* \"#utility.yul\":6693:6851   */\n      tag_420\n        /* \"#utility.yul\":6846:6850   */\n      dup2\n        /* \"#utility.yul\":6837:6843   */\n      dup5\n        /* \"#utility.yul\":6693:6851   */\n      tag_305\n      jump\t// in\n    tag_420:\n        /* \"#utility.yul\":6685:6851   */\n      swap1\n      pop\n        /* \"#utility.yul\":6385:6858   */\n      swap3\n      swap2\n      pop\n      pop\n      jump\t// out\n        /* \"#utility.yul\":6864:6990   */\n    tag_306:\n        /* \"#utility.yul\":6901:6908   */\n      0x00\n        /* \"#utility.yul\":6941:6983   */\n      0xffffffffffffffffffffffffffffffffffffffff\n        /* \"#utility.yul\":6934:6939   */\n      dup3\n        /* \"#utility.yul\":6930:6984   */\n      and\n        /* \"#utility.yul\":6919:6984   */\n      swap1\n      pop\n        /* \"#utility.yul\":6864:6990   */\n      swap2\n      swap1\n      pop\n      jump\t// out\n        /* \"#utility.yul\":6996:7092   */\n    tag_307:\n        /* \"#utility.yul\":7033:7040   */\n      0x00\n        /* \"#utility.yul\":7062:7086   */\n      tag_423\n        /* \"#utility.yul\":7080:7085   */\n      dup3\n        /* \"#utility.yul\":7062:7086   */\n      tag_306\n      jump\t// in\n    tag_423:\n        /* \"#utility.yul\":7051:7086   */\n      swap1\n      pop\n        /* \"#utility.yul\":6996:7092   */\n      swap2\n      swap1\n      pop\n      jump\t// out\n        /* \"#utility.yul\":7098:7216   */\n    tag_308:\n        /* \"#utility.yul\":7185:7209   */\n      tag_425\n        /* \"#utility.yul\":7203:7208   */\n      dup2\n        /* \"#utility.yul\":7185:7209   */\n      tag_307\n      jump\t// in\n    tag_425:\n        /* \"#utility.yul\":7180:7183   */\n      dup3\n        /* \"#utility.yul\":7173:7210   */\n      mstore\n        /* \"#utility.yul\":7098:7216   */\n      pop\n      pop\n      jump\t// out\n        /* \"#utility.yul\":7222:7444   */\n    tag_42:\n        /* \"#utility.yul\":7315:7319   */\n      0x00\n        /* \"#utility.yul\":7353:7355   */\n      0x20\n        /* \"#utility.yul\":7342:7351   */\n      dup3\n        /* \"#utility.yul\":7338:7356   */\n      add\n        /* \"#utility.yul\":7330:7356   */\n      swap1\n      pop\n        /* \"#utility.yul\":7366:7437   */\n      tag_427\n        /* \"#utility.yul\":7434:7435   */\n      0x00\n        /* \"#utility.yul\":7423:7432   */\n      dup4\n        /* \"#utility.yul\":7419:7436   */\n      add\n        /* \"#utility.yul\":7410:7416   */\n      dup5\n        /* \"#utility.yul\":7366:7437   */\n      tag_308\n      jump\t// in\n    tag_427:\n        /* \"#utility.yul\":7222:7444   */\n      swap3\n      swap2\n      pop\n      pop\n      jump\t// out\n        /* \"#utility.yul\":7506:8124   */\n    tag_309:\n        /* \"#utility.yul\":7625:7628   */\n      0x00\n        /* \"#utility.yul\":7661:7665   */\n      0x40\n        /* \"#utility.yul\":7656:7659   */\n      dup4\n        /* \"#utility.yul\":7652:7666   */\n      add\n        /* \"#utility.yul\":7755:7759   */\n      0x00\n        /* \"#utility.yul\":7748:7753   */\n      dup4\n        /* \"#utility.yul\":7744:7760   */\n      add\n        /* \"#utility.yul\":7738:7761   */\n      mload\n        /* \"#utility.yul\":7808:7811   */\n      dup5\n        /* \"#utility.yul\":7802:7806   */\n      dup3\n        /* \"#utility.yul\":7798:7812   */\n      sub\n        /* \"#utility.yul\":7791:7795   */\n      0x00\n        /* \"#utility.yul\":7786:7789   */\n      dup7\n        /* \"#utility.yul\":7782:7796   */\n      add\n        /* \"#utility.yul\":7775:7813   */\n      mstore\n        /* \"#utility.yul\":7834:7907   */\n      tag_429\n        /* \"#utility.yul\":7902:7906   */\n      dup3\n        /* \"#utility.yul\":7888:7900   */\n      dup3\n        /* \"#utility.yul\":7834:7907   */\n      tag_300\n      jump\t// in\n    tag_429:\n        /* \"#utility.yul\":7826:7907   */\n      swap2\n      pop\n        /* \"#utility.yul\":7676:7918   */\n      pop\n        /* \"#utility.yul\":8005:8009   */\n      0x20\n        /* \"#utility.yul\":7998:8003   */\n      dup4\n        /* \"#utility.yul\":7994:8010   */\n      add\n        /* \"#utility.yul\":7988:8011   */\n      mload\n        /* \"#utility.yul\":8024:8087   */\n      tag_430\n        /* \"#utility.yul\":8081:8085   */\n      0x20\n        /* \"#utility.yul\":8076:8079   */\n      dup7\n        /* \"#utility.yul\":8072:8086   */\n      add\n        /* \"#utility.yul\":8058:8070   */\n      dup3\n        /* \"#utility.yul\":8024:8087   */\n      tag_301\n      jump\t// in\n    tag_430:\n        /* \"#utility.yul\":7928:8097   */\n      pop\n        /* \"#utility.yul\":8114:8118   */\n      dup1\n        /* \"#utility.yul\":8107:8118   */\n      swap2\n      pop\n        /* \"#utility.yul\":7630:8124   */\n      pop\n        /* \"#utility.yul\":7506:8124   */\n      swap3\n      swap2\n      pop\n      pop\n      jump\t// out\n        /* \"#utility.yul\":8130:8503   */\n    tag_46:\n        /* \"#utility.yul\":8273:8277   */\n      0x00\n        /* \"#utility.yul\":8311:8313   */\n      0x20\n        /* \"#utility.yul\":8300:8309   */\n      dup3\n        /* \"#utility.yul\":8296:8314   */\n      add\n        /* \"#utility.yul\":8288:8314   */\n      swap1\n      pop\n        /* \"#utility.yul\":8360:8369   */\n      dup2\n        /* \"#utility.yul\":8354:8358   */\n      dup2\n        /* \"#utility.yul\":8350:8370   */\n      sub\n        /* \"#utility.yul\":8346:8347   */\n      0x00\n        /* \"#utility.yul\":8335:8344   */\n      dup4\n        /* \"#utility.yul\":8331:8348   */\n      add\n        /* \"#utility.yul\":8324:8371   */\n      mstore\n        /* \"#utility.yul\":8388:8496   */\n      tag_432\n        /* \"#utility.yul\":8491:8495   */\n      dup2\n        /* \"#utility.yul\":8482:8488   */\n      dup5\n        /* \"#utility.yul\":8388:8496   */\n      tag_309\n      jump\t// in\n    tag_432:\n        /* \"#utility.yul\":8380:8496   */\n      swap1\n      pop\n        /* \"#utility.yul\":8130:8503   */\n      swap3\n      swap2\n      pop\n      pop\n      jump\t// out\n        /* \"#utility.yul\":8509:8631   */\n    tag_310:\n        /* \"#utility.yul\":8582:8606   */\n      tag_434\n        /* \"#utility.yul\":8600:8605   */\n      dup2\n        /* \"#utility.yul\":8582:8606   */\n      tag_307\n      jump\t// in\n    tag_434:\n        /* \"#utility.yul\":8575:8580   */\n      dup2\n        /* \"#utility.yul\":8572:8607   */\n      eq\n        /* \"#utility.yul\":8562:8625   */\n      tag_435\n      jumpi\n        /* \"#utility.yul\":8621:8622   */\n      0x00\n        /* \"#utility.yul\":8618:8619   */\n      dup1\n        /* \"#utility.yul\":8611:8623   */\n      revert\n        /* \"#utility.yul\":8562:8625   */\n    tag_435:\n        /* \"#utility.yul\":8509:8631   */\n      pop\n      jump\t// out\n        /* \"#utility.yul\":8637:8776   */\n    tag_311:\n        /* \"#utility.yul\":8683:8688   */\n      0x00\n        /* \"#utility.yul\":8721:8727   */\n      dup2\n        /* \"#utility.yul\":8708:8728   */\n      calldataload\n        /* \"#utility.yul\":8699:8728   */\n      swap1\n      pop\n        /* \"#utility.yul\":8737:8770   */\n      tag_437\n        /* \"#utility.yul\":8764:8769   */\n      dup2\n        /* \"#utility.yul\":8737:8770   */\n      tag_310\n      jump\t// in\n    tag_437:\n        /* \"#utility.yul\":8637:8776   */\n      swap3\n      swap2\n      pop\n      pop\n      jump\t// out\n        /* \"#utility.yul\":8782:9111   */\n    tag_53:\n        /* \"#utility.yul\":8841:8847   */\n      0x00\n        /* \"#utility.yul\":8890:8892   */\n      0x20\n        /* \"#utility.yul\":8878:8887   */\n      dup3\n        /* \"#utility.yul\":8869:8876   */\n      dup5\n        /* \"#utility.yul\":8865:8888   */\n      sub\n        /* \"#utility.yul\":8861:8893   */\n      slt\n        /* \"#utility.yul\":8858:8977   */\n      iszero\n      tag_439\n      jumpi\n        /* \"#utility.yul\":8896:8975   */\n      tag_440\n      tag_284\n      jump\t// in\n    tag_440:\n        /* \"#utility.yul\":8858:8977   */\n    tag_439:\n        /* \"#utility.yul\":9016:9017   */\n      0x00\n        /* \"#utility.yul\":9041:9094   */\n      tag_441\n        /* \"#utility.yul\":9086:9093   */\n      dup5\n        /* \"#utility.yul\":9077:9083   */\n      dup3\n        /* \"#utility.yul\":9066:9075   */\n      dup6\n        /* \"#utility.yul\":9062:9084   */\n      add\n        /* \"#utility.yul\":9041:9094   */\n      tag_311\n      jump\t// in\n    tag_441:\n        /* \"#utility.yul\":9031:9094   */\n      swap2\n      pop\n        /* \"#utility.yul\":8987:9104   */\n      pop\n        /* \"#utility.yul\":8782:9111   */\n      swap3\n      swap2\n      pop\n      pop\n      jump\t// out\n        /* \"#utility.yul\":9117:9207   */\n    tag_312:\n        /* \"#utility.yul\":9151:9158   */\n      0x00\n        /* \"#utility.yul\":9194:9199   */\n      dup2\n        /* \"#utility.yul\":9187:9200   */\n      iszero\n        /* \"#utility.yul\":9180:9201   */\n      iszero\n        /* \"#utility.yul\":9169:9201   */\n      swap1\n      pop\n        /* \"#utility.yul\":9117:9207   */\n      swap2\n      swap1\n      pop\n      jump\t// out\n        /* \"#utility.yul\":9213:9312   */\n    tag_313:\n        /* \"#utility.yul\":9284:9305   */\n      tag_444\n        /* \"#utility.yul\":9299:9304   */\n      dup2\n        /* \"#utility.yul\":9284:9305   */\n      tag_312\n      jump\t// in\n    tag_444:\n        /* \"#utility.yul\":9279:9282   */\n      dup3\n        /* \"#utility.yul\":9272:9306   */\n      mstore\n        /* \"#utility.yul\":9213:9312   */\n      pop\n      pop\n      jump\t// out\n        /* \"#utility.yul\":9368:10054   */\n    tag_314:\n        /* \"#utility.yul\":9509:9513   */\n      0x60\n        /* \"#utility.yul\":9504:9507   */\n      dup3\n        /* \"#utility.yul\":9500:9514   */\n      add\n        /* \"#utility.yul\":9604:9608   */\n      0x00\n        /* \"#utility.yul\":9597:9602   */\n      dup3\n        /* \"#utility.yul\":9593:9609   */\n      add\n        /* \"#utility.yul\":9587:9610   */\n      mload\n        /* \"#utility.yul\":9623:9680   */\n      tag_446\n        /* \"#utility.yul\":9674:9678   */\n      0x00\n        /* \"#utility.yul\":9669:9672   */\n      dup6\n        /* \"#utility.yul\":9665:9679   */\n      add\n        /* \"#utility.yul\":9651:9663   */\n      dup3\n        /* \"#utility.yul\":9623:9680   */\n      tag_313\n      jump\t// in\n    tag_446:\n        /* \"#utility.yul\":9524:9690   */\n      pop\n        /* \"#utility.yul\":9776:9780   */\n      0x20\n        /* \"#utility.yul\":9769:9774   */\n      dup3\n        /* \"#utility.yul\":9765:9781   */\n      add\n        /* \"#utility.yul\":9759:9782   */\n      mload\n        /* \"#utility.yul\":9795:9852   */\n      tag_447\n        /* \"#utility.yul\":9846:9850   */\n      0x20\n        /* \"#utility.yul\":9841:9844   */\n      dup6\n        /* \"#utility.yul\":9837:9851   */\n      add\n        /* \"#utility.yul\":9823:9835   */\n      dup3\n        /* \"#utility.yul\":9795:9852   */\n      tag_313\n      jump\t// in\n    tag_447:\n        /* \"#utility.yul\":9700:9862   */\n      pop\n        /* \"#utility.yul\":9955:9959   */\n      0x40\n        /* \"#utility.yul\":9948:9953   */\n      dup3\n        /* \"#utility.yul\":9944:9960   */\n      add\n        /* \"#utility.yul\":9938:9961   */\n      mload\n        /* \"#utility.yul\":9974:10037   */\n      tag_448\n        /* \"#utility.yul\":10031:10035   */\n      0x40\n        /* \"#utility.yul\":10026:10029   */\n      dup6\n        /* \"#utility.yul\":10022:10036   */\n      add\n        /* \"#utility.yul\":10008:10020   */\n      dup3\n        /* \"#utility.yul\":9974:10037   */\n      tag_301\n      jump\t// in\n    tag_448:\n        /* \"#utility.yul\":9872:10047   */\n      pop\n        /* \"#utility.yul\":9478:10054   */\n      pop\n        /* \"#utility.yul\":9368:10054   */\n      pop\n      pop\n      jump\t// out\n        /* \"#utility.yul\":10060:10370   */\n    tag_56:\n        /* \"#utility.yul\":10197:10201   */\n      0x00\n        /* \"#utility.yul\":10235:10237   */\n      0x60\n        /* \"#utility.yul\":10224:10233   */\n      dup3\n        /* \"#utility.yul\":10220:10238   */\n      add\n        /* \"#utility.yul\":10212:10238   */\n      swap1\n      pop\n        /* \"#utility.yul\":10248:10363   */\n      tag_450\n        /* \"#utility.yul\":10360:10361   */\n      0x00\n        /* \"#utility.yul\":10349:10358   */\n      dup4\n        /* \"#utility.yul\":10345:10362   */\n      add\n        /* \"#utility.yul\":10336:10342   */\n      dup5\n        /* \"#utility.yul\":10248:10363   */\n      tag_314\n      jump\t// in\n    tag_450:\n        /* \"#utility.yul\":10060:10370   */\n      swap3\n      swap2\n      pop\n      pop\n      jump\t// out\n        /* \"#utility.yul\":10376:10556   */\n    tag_70:\n        /* \"#utility.yul\":10424:10501   */\n      0x4e487b7100000000000000000000000000000000000000000000000000000000\n        /* \"#utility.yul\":10421:10422   */\n      0x00\n        /* \"#utility.yul\":10414:10502   */\n      mstore\n        /* \"#utility.yul\":10521:10525   */\n      0x21\n        /* \"#utility.yul\":10518:10519   */\n      0x04\n        /* \"#utility.yul\":10511:10526   */\n      mstore\n        /* \"#utility.yul\":10545:10549   */\n      0x24\n        /* \"#utility.yul\":10542:10543   */\n      0x00\n        /* \"#utility.yul\":10535:10550   */\n      revert\n        /* \"#utility.yul\":10562:10731   */\n    tag_315:\n        /* \"#utility.yul\":10646:10657   */\n      0x00\n        /* \"#utility.yul\":10680:10686   */\n      dup3\n        /* \"#utility.yul\":10675:10678   */\n      dup3\n        /* \"#utility.yul\":10668:10687   */\n      mstore\n        /* \"#utility.yul\":10720:10724   */\n      0x20\n        /* \"#utility.yul\":10715:10718   */\n      dup3\n        /* \"#utility.yul\":10711:10725   */\n      add\n        /* \"#utility.yul\":10696:10725   */\n      swap1\n      pop\n        /* \"#utility.yul\":10562:10731   */\n      swap3\n      swap2\n      pop\n      pop\n      jump\t// out\n        /* \"#utility.yul\":10737:10964   */\n    tag_316:\n        /* \"#utility.yul\":10877:10911   */\n      0x596f752063616e277420646f207468697320616374696f6e2c20776169742074\n        /* \"#utility.yul\":10873:10874   */\n      0x00\n        /* \"#utility.yul\":10865:10871   */\n      dup3\n        /* \"#utility.yul\":10861:10875   */\n      add\n        /* \"#utility.yul\":10854:10912   */\n      mstore\n        /* \"#utility.yul\":10946:10956   */\n      0x6865207068617365000000000000000000000000000000000000000000000000\n        /* \"#utility.yul\":10941:10943   */\n      0x20\n        /* \"#utility.yul\":10933:10939   */\n      dup3\n        /* \"#utility.yul\":10929:10944   */\n      add\n        /* \"#utility.yul\":10922:10957   */\n      mstore\n        /* \"#utility.yul\":10737:10964   */\n      pop\n      jump\t// out\n        /* \"#utility.yul\":10970:11336   */\n    tag_317:\n        /* \"#utility.yul\":11112:11115   */\n      0x00\n        /* \"#utility.yul\":11133:11200   */\n      tag_455\n        /* \"#utility.yul\":11197:11199   */\n      0x28\n        /* \"#utility.yul\":11192:11195   */\n      dup4\n        /* \"#utility.yul\":11133:11200   */\n      tag_315\n      jump\t// in\n    tag_455:\n        /* \"#utility.yul\":11126:11200   */\n      swap2\n      pop\n        /* \"#utility.yul\":11209:11302   */\n      tag_456\n        /* \"#utility.yul\":11298:11301   */\n      dup3\n        /* \"#utility.yul\":11209:11302   */\n      tag_316\n      jump\t// in\n    tag_456:\n        /* \"#utility.yul\":11327:11329   */\n      0x40\n        /* \"#utility.yul\":11322:11325   */\n      dup3\n        /* \"#utility.yul\":11318:11330   */\n      add\n        /* \"#utility.yul\":11311:11330   */\n      swap1\n      pop\n        /* \"#utility.yul\":10970:11336   */\n      swap2\n      swap1\n      pop\n      jump\t// out\n        /* \"#utility.yul\":11342:11761   */\n    tag_75:\n        /* \"#utility.yul\":11508:11512   */\n      0x00\n        /* \"#utility.yul\":11546:11548   */\n      0x20\n        /* \"#utility.yul\":11535:11544   */\n      dup3\n        /* \"#utility.yul\":11531:11549   */\n      add\n        /* \"#utility.yul\":11523:11549   */\n      swap1\n      pop\n        /* \"#utility.yul\":11595:11604   */\n      dup2\n        /* \"#utility.yul\":11589:11593   */\n      dup2\n        /* \"#utility.yul\":11585:11605   */\n      sub\n        /* \"#utility.yul\":11581:11582   */\n      0x00\n        /* \"#utility.yul\":11570:11579   */\n      dup4\n        /* \"#utility.yul\":11566:11583   */\n      add\n        /* \"#utility.yul\":11559:11606   */\n      mstore\n        /* \"#utility.yul\":11623:11754   */\n      tag_458\n        /* \"#utility.yul\":11749:11753   */\n      dup2\n        /* \"#utility.yul\":11623:11754   */\n      tag_317\n      jump\t// in\n    tag_458:\n        /* \"#utility.yul\":11615:11754   */\n      swap1\n      pop\n        /* \"#utility.yul\":11342:11761   */\n      swap2\n      swap1\n      pop\n      jump\t// out\n        /* \"#utility.yul\":11767:11948   */\n    tag_318:\n        /* \"#utility.yul\":11907:11940   */\n      0x596f757220617265206e6f74207265676973746572656420696e206c69737400\n        /* \"#utility.yul\":11903:11904   */\n      0x00\n        /* \"#utility.yul\":11895:11901   */\n      dup3\n        /* \"#utility.yul\":11891:11905   */\n      add\n        /* \"#utility.yul\":11884:11941   */\n      mstore\n        /* \"#utility.yul\":11767:11948   */\n      pop\n      jump\t// out\n        /* \"#utility.yul\":11954:12320   */\n    tag_319:\n        /* \"#utility.yul\":12096:12099   */\n      0x00\n        /* \"#utility.yul\":12117:12184   */\n      tag_461\n        /* \"#utility.yul\":12181:12183   */\n      0x1f\n        /* \"#utility.yul\":12176:12179   */\n      dup4\n        /* \"#utility.yul\":12117:12184   */\n      tag_315\n      jump\t// in\n    tag_461:\n        /* \"#utility.yul\":12110:12184   */\n      swap2\n      pop\n        /* \"#utility.yul\":12193:12286   */\n      tag_462\n        /* \"#utility.yul\":12282:12285   */\n      dup3\n        /* \"#utility.yul\":12193:12286   */\n      tag_318\n      jump\t// in\n    tag_462:\n        /* \"#utility.yul\":12311:12313   */\n      0x20\n        /* \"#utility.yul\":12306:12309   */\n      dup3\n        /* \"#utility.yul\":12302:12314   */\n      add\n        /* \"#utility.yul\":12295:12314   */\n      swap1\n      pop\n        /* \"#utility.yul\":11954:12320   */\n      swap2\n      swap1\n      pop\n      jump\t// out\n        /* \"#utility.yul\":12326:12745   */\n    tag_79:\n        /* \"#utility.yul\":12492:12496   */\n      0x00\n        /* \"#utility.yul\":12530:12532   */\n      0x20\n        /* \"#utility.yul\":12519:12528   */\n      dup3\n        /* \"#utility.yul\":12515:12533   */\n      add\n        /* \"#utility.yul\":12507:12533   */\n      swap1\n      pop\n        /* \"#utility.yul\":12579:12588   */\n      dup2\n        /* \"#utility.yul\":12573:12577   */\n      dup2\n        /* \"#utility.yul\":12569:12589   */\n      sub\n        /* \"#utility.yul\":12565:12566   */\n      0x00\n        /* \"#utility.yul\":12554:12563   */\n      dup4\n        /* \"#utility.yul\":12550:12567   */\n      add\n        /* \"#utility.yul\":12543:12590   */\n      mstore\n        /* \"#utility.yul\":12607:12738   */\n      tag_464\n        /* \"#utility.yul\":12733:12737   */\n      dup2\n        /* \"#utility.yul\":12607:12738   */\n      tag_319\n      jump\t// in\n    tag_464:\n        /* \"#utility.yul\":12599:12738   */\n      swap1\n      pop\n        /* \"#utility.yul\":12326:12745   */\n      swap2\n      swap1\n      pop\n      jump\t// out\n        /* \"#utility.yul\":12751:12923   */\n    tag_320:\n        /* \"#utility.yul\":12891:12915   */\n      0x596f75206861766520616c726561647920766f74656400000000000000000000\n        /* \"#utility.yul\":12887:12888   */\n      0x00\n        /* \"#utility.yul\":12879:12885   */\n      dup3\n        /* \"#utility.yul\":12875:12889   */\n      add\n        /* \"#utility.yul\":12868:12916   */\n      mstore\n        /* \"#utility.yul\":12751:12923   */\n      pop\n      jump\t// out\n        /* \"#utility.yul\":12929:13295   */\n    tag_321:\n        /* \"#utility.yul\":13071:13074   */\n      0x00\n        /* \"#utility.yul\":13092:13159   */\n      tag_467\n        /* \"#utility.yul\":13156:13158   */\n      0x16\n        /* \"#utility.yul\":13151:13154   */\n      dup4\n        /* \"#utility.yul\":13092:13159   */\n      tag_315\n      jump\t// in\n    tag_467:\n        /* \"#utility.yul\":13085:13159   */\n      swap2\n      pop\n        /* \"#utility.yul\":13168:13261   */\n      tag_468\n        /* \"#utility.yul\":13257:13260   */\n      dup3\n        /* \"#utility.yul\":13168:13261   */\n      tag_320\n      jump\t// in\n    tag_468:\n        /* \"#utility.yul\":13286:13288   */\n      0x20\n        /* \"#utility.yul\":13281:13284   */\n      dup3\n        /* \"#utility.yul\":13277:13289   */\n      add\n        /* \"#utility.yul\":13270:13289   */\n      swap1\n      pop\n        /* \"#utility.yul\":12929:13295   */\n      swap2\n      swap1\n      pop\n      jump\t// out\n        /* \"#utility.yul\":13301:13720   */\n    tag_82:\n        /* \"#utility.yul\":13467:13471   */\n      0x00\n        /* \"#utility.yul\":13505:13507   */\n      0x20\n        /* \"#utility.yul\":13494:13503   */\n      dup3\n        /* \"#utility.yul\":13490:13508   */\n      add\n        /* \"#utility.yul\":13482:13508   */\n      swap1\n      pop\n        /* \"#utility.yul\":13554:13563   */\n      dup2\n        /* \"#utility.yul\":13548:13552   */\n      dup2\n        /* \"#utility.yul\":13544:13564   */\n      sub\n        /* \"#utility.yul\":13540:13541   */\n      0x00\n        /* \"#utility.yul\":13529:13538   */\n      dup4\n        /* \"#utility.yul\":13525:13542   */\n      add\n        /* \"#utility.yul\":13518:13565   */\n      mstore\n        /* \"#utility.yul\":13582:13713   */\n      tag_470\n        /* \"#utility.yul\":13708:13712   */\n      dup2\n        /* \"#utility.yul\":13582:13713   */\n      tag_321\n      jump\t// in\n    tag_470:\n        /* \"#utility.yul\":13574:13713   */\n      swap1\n      pop\n        /* \"#utility.yul\":13301:13720   */\n      swap2\n      swap1\n      pop\n      jump\t// out\n        /* \"#utility.yul\":13726:13903   */\n    tag_322:\n        /* \"#utility.yul\":13866:13895   */\n      0x546869732070726f706f73616c20646f65736e27742065786973740000000000\n        /* \"#utility.yul\":13862:13863   */\n      0x00\n        /* \"#utility.yul\":13854:13860   */\n      dup3\n        /* \"#utility.yul\":13850:13864   */\n      add\n        /* \"#utility.yul\":13843:13896   */\n      mstore\n        /* \"#utility.yul\":13726:13903   */\n      pop\n      jump\t// out\n        /* \"#utility.yul\":13909:14275   */\n    tag_323:\n        /* \"#utility.yul\":14051:14054   */\n      0x00\n        /* \"#utility.yul\":14072:14139   */\n      tag_473\n        /* \"#utility.yul\":14136:14138   */\n      0x1b\n        /* \"#utility.yul\":14131:14134   */\n      dup4\n        /* \"#utility.yul\":14072:14139   */\n      tag_315\n      jump\t// in\n    tag_473:\n        /* \"#utility.yul\":14065:14139   */\n      swap2\n      pop\n        /* \"#utility.yul\":14148:14241   */\n      tag_474\n        /* \"#utility.yul\":14237:14240   */\n      dup3\n        /* \"#utility.yul\":14148:14241   */\n      tag_322\n      jump\t// in\n    tag_474:\n        /* \"#utility.yul\":14266:14268   */\n      0x20\n        /* \"#utility.yul\":14261:14264   */\n      dup3\n        /* \"#utility.yul\":14257:14269   */\n      add\n        /* \"#utility.yul\":14250:14269   */\n      swap1\n      pop\n        /* \"#utility.yul\":13909:14275   */\n      swap2\n      swap1\n      pop\n      jump\t// out\n        /* \"#utility.yul\":14281:14700   */\n    tag_86:\n        /* \"#utility.yul\":14447:14451   */\n      0x00\n        /* \"#utility.yul\":14485:14487   */\n      0x20\n        /* \"#utility.yul\":14474:14483   */\n      dup3\n        /* \"#utility.yul\":14470:14488   */\n      add\n        /* \"#utility.yul\":14462:14488   */\n      swap1\n      pop\n        /* \"#utility.yul\":14534:14543   */\n      dup2\n        /* \"#utility.yul\":14528:14532   */\n      dup2\n        /* \"#utility.yul\":14524:14544   */\n      sub\n        /* \"#utility.yul\":14520:14521   */\n      0x00\n        /* \"#utility.yul\":14509:14518   */\n      dup4\n        /* \"#utility.yul\":14505:14522   */\n      add\n        /* \"#utility.yul\":14498:14545   */\n      mstore\n        /* \"#utility.yul\":14562:14693   */\n      tag_476\n        /* \"#utility.yul\":14688:14692   */\n      dup2\n        /* \"#utility.yul\":14562:14693   */\n      tag_323\n      jump\t// in\n    tag_476:\n        /* \"#utility.yul\":14554:14693   */\n      swap1\n      pop\n        /* \"#utility.yul\":14281:14700   */\n      swap2\n      swap1\n      pop\n      jump\t// out\n        /* \"#utility.yul\":14706:14886   */\n    tag_89:\n        /* \"#utility.yul\":14754:14831   */\n      0x4e487b7100000000000000000000000000000000000000000000000000000000\n        /* \"#utility.yul\":14751:14752   */\n      0x00\n        /* \"#utility.yul\":14744:14832   */\n      mstore\n        /* \"#utility.yul\":14851:14855   */\n      0x32\n        /* \"#utility.yul\":14848:14849   */\n      0x04\n        /* \"#utility.yul\":14841:14856   */\n      mstore\n        /* \"#utility.yul\":14875:14879   */\n      0x24\n        /* \"#utility.yul\":14872:14873   */\n      0x00\n        /* \"#utility.yul\":14865:14880   */\n      revert\n        /* \"#utility.yul\":14892:15072   */\n    tag_324:\n        /* \"#utility.yul\":14940:15017   */\n      0x4e487b7100000000000000000000000000000000000000000000000000000000\n        /* \"#utility.yul\":14937:14938   */\n      0x00\n        /* \"#utility.yul\":14930:15018   */\n      mstore\n        /* \"#utility.yul\":15037:15041   */\n      0x11\n        /* \"#utility.yul\":15034:15035   */\n      0x04\n        /* \"#utility.yul\":15027:15042   */\n      mstore\n        /* \"#utility.yul\":15061:15065   */\n      0x24\n        /* \"#utility.yul\":15058:15059   */\n      0x00\n        /* \"#utility.yul\":15051:15066   */\n      revert\n        /* \"#utility.yul\":15078:15269   */\n    tag_92:\n        /* \"#utility.yul\":15118:15121   */\n      0x00\n        /* \"#utility.yul\":15137:15157   */\n      tag_480\n        /* \"#utility.yul\":15155:15156   */\n      dup3\n        /* \"#utility.yul\":15137:15157   */\n      tag_286\n      jump\t// in\n    tag_480:\n        /* \"#utility.yul\":15132:15157   */\n      swap2\n      pop\n        /* \"#utility.yul\":15171:15191   */\n      tag_481\n        /* \"#utility.yul\":15189:15190   */\n      dup4\n        /* \"#utility.yul\":15171:15191   */\n      tag_286\n      jump\t// in\n    tag_481:\n        /* \"#utility.yul\":15166:15191   */\n      swap3\n      pop\n        /* \"#utility.yul\":15214:15215   */\n      dup3\n        /* \"#utility.yul\":15211:15212   */\n      dup3\n        /* \"#utility.yul\":15207:15216   */\n      add\n        /* \"#utility.yul\":15200:15216   */\n      swap1\n      pop\n        /* \"#utility.yul\":15235:15238   */\n      dup1\n        /* \"#utility.yul\":15232:15233   */\n      dup3\n        /* \"#utility.yul\":15229:15239   */\n      gt\n        /* \"#utility.yul\":15226:15262   */\n      iszero\n      tag_482\n      jumpi\n        /* \"#utility.yul\":15242:15260   */\n      tag_483\n      tag_324\n      jump\t// in\n    tag_483:\n        /* \"#utility.yul\":15226:15262   */\n    tag_482:\n        /* \"#utility.yul\":15078:15269   */\n      swap3\n      swap2\n      pop\n      pop\n      jump\t// out\n        /* \"#utility.yul\":15275:15393   */\n    tag_325:\n        /* \"#utility.yul\":15362:15386   */\n      tag_485\n        /* \"#utility.yul\":15380:15385   */\n      dup2\n        /* \"#utility.yul\":15362:15386   */\n      tag_286\n      jump\t// in\n    tag_485:\n        /* \"#utility.yul\":15357:15360   */\n      dup3\n        /* \"#utility.yul\":15350:15387   */\n      mstore\n        /* \"#utility.yul\":15275:15393   */\n      pop\n      pop\n      jump\t// out\n        /* \"#utility.yul\":15399:15731   */\n    tag_94:\n        /* \"#utility.yul\":15520:15524   */\n      0x00\n        /* \"#utility.yul\":15558:15560   */\n      0x40\n        /* \"#utility.yul\":15547:15556   */\n      dup3\n        /* \"#utility.yul\":15543:15561   */\n      add\n        /* \"#utility.yul\":15535:15561   */\n      swap1\n      pop\n        /* \"#utility.yul\":15571:15642   */\n      tag_487\n        /* \"#utility.yul\":15639:15640   */\n      0x00\n        /* \"#utility.yul\":15628:15637   */\n      dup4\n        /* \"#utility.yul\":15624:15641   */\n      add\n        /* \"#utility.yul\":15615:15621   */\n      dup6\n        /* \"#utility.yul\":15571:15642   */\n      tag_308\n      jump\t// in\n    tag_487:\n        /* \"#utility.yul\":15652:15724   */\n      tag_488\n        /* \"#utility.yul\":15720:15722   */\n      0x20\n        /* \"#utility.yul\":15709:15718   */\n      dup4\n        /* \"#utility.yul\":15705:15723   */\n      add\n        /* \"#utility.yul\":15696:15702   */\n      dup5\n        /* \"#utility.yul\":15652:15724   */\n      tag_325\n      jump\t// in\n    tag_488:\n        /* \"#utility.yul\":15399:15731   */\n      swap4\n      swap3\n      pop\n      pop\n      pop\n      jump\t// out\n        /* \"#utility.yul\":15737:15959   */\n    tag_326:\n        /* \"#utility.yul\":15877:15911   */\n      0x4974206d757374206265207265676973746572696e6720766f74657220626566\n        /* \"#utility.yul\":15873:15874   */\n      0x00\n        /* \"#utility.yul\":15865:15871   */\n      dup3\n        /* \"#utility.yul\":15861:15875   */\n      add\n        /* \"#utility.yul\":15854:15912   */\n      mstore\n        /* \"#utility.yul\":15946:15951   */\n      0x6f72650000000000000000000000000000000000000000000000000000000000\n        /* \"#utility.yul\":15941:15943   */\n      0x20\n        /* \"#utility.yul\":15933:15939   */\n      dup3\n        /* \"#utility.yul\":15929:15944   */\n      add\n        /* \"#utility.yul\":15922:15952   */\n      mstore\n        /* \"#utility.yul\":15737:15959   */\n      pop\n      jump\t// out\n        /* \"#utility.yul\":15965:16331   */\n    tag_327:\n        /* \"#utility.yul\":16107:16110   */\n      0x00\n        /* \"#utility.yul\":16128:16195   */\n      tag_491\n        /* \"#utility.yul\":16192:16194   */\n      0x23\n        /* \"#utility.yul\":16187:16190   */\n      dup4\n        /* \"#utility.yul\":16128:16195   */\n      tag_315\n      jump\t// in\n    tag_491:\n        /* \"#utility.yul\":16121:16195   */\n      swap2\n      pop\n        /* \"#utility.yul\":16204:16297   */\n      tag_492\n        /* \"#utility.yul\":16293:16296   */\n      dup3\n        /* \"#utility.yul\":16204:16297   */\n      tag_326\n      jump\t// in\n    tag_492:\n        /* \"#utility.yul\":16322:16324   */\n      0x40\n        /* \"#utility.yul\":16317:16320   */\n      dup3\n        /* \"#utility.yul\":16313:16325   */\n      add\n        /* \"#utility.yul\":16306:16325   */\n      swap1\n      pop\n        /* \"#utility.yul\":15965:16331   */\n      swap2\n      swap1\n      pop\n      jump\t// out\n        /* \"#utility.yul\":16337:16756   */\n    tag_105:\n        /* \"#utility.yul\":16503:16507   */\n      0x00\n        /* \"#utility.yul\":16541:16543   */\n      0x20\n        /* \"#utility.yul\":16530:16539   */\n      dup3\n        /* \"#utility.yul\":16526:16544   */\n      add\n        /* \"#utility.yul\":16518:16544   */\n      swap1\n      pop\n        /* \"#utility.yul\":16590:16599   */\n      dup2\n        /* \"#utility.yul\":16584:16588   */\n      dup2\n        /* \"#utility.yul\":16580:16600   */\n      sub\n        /* \"#utility.yul\":16576:16577   */\n      0x00\n        /* \"#utility.yul\":16565:16574   */\n      dup4\n        /* \"#utility.yul\":16561:16578   */\n      add\n        /* \"#utility.yul\":16554:16601   */\n      mstore\n        /* \"#utility.yul\":16618:16749   */\n      tag_494\n        /* \"#utility.yul\":16744:16748   */\n      dup2\n        /* \"#utility.yul\":16618:16749   */\n      tag_327\n      jump\t// in\n    tag_494:\n        /* \"#utility.yul\":16610:16749   */\n      swap1\n      pop\n        /* \"#utility.yul\":16337:16756   */\n      swap2\n      swap1\n      pop\n      jump\t// out\n        /* \"#utility.yul\":16762:16885   */\n    tag_328:\n        /* \"#utility.yul\":16853:16854   */\n      0x06\n        /* \"#utility.yul\":16846:16851   */\n      dup2\n        /* \"#utility.yul\":16843:16855   */\n      lt\n        /* \"#utility.yul\":16833:16879   */\n      tag_496\n      jumpi\n        /* \"#utility.yul\":16859:16877   */\n      tag_497\n      tag_70\n      jump\t// in\n    tag_497:\n        /* \"#utility.yul\":16833:16879   */\n    tag_496:\n        /* \"#utility.yul\":16762:16885   */\n      pop\n      jump\t// out\n        /* \"#utility.yul\":16891:17038   */\n    tag_329:\n        /* \"#utility.yul\":16946:16953   */\n      0x00\n        /* \"#utility.yul\":16975:16980   */\n      dup2\n        /* \"#utility.yul\":16964:16980   */\n      swap1\n      pop\n        /* \"#utility.yul\":16981:17032   */\n      tag_499\n        /* \"#utility.yul\":17026:17031   */\n      dup3\n        /* \"#utility.yul\":16981:17032   */\n      tag_328\n      jump\t// in\n    tag_499:\n        /* \"#utility.yul\":16891:17038   */\n      swap2\n      swap1\n      pop\n      jump\t// out\n        /* \"#utility.yul\":17044:17191   */\n    tag_330:\n        /* \"#utility.yul\":17110:17119   */\n      0x00\n        /* \"#utility.yul\":17143:17185   */\n      tag_501\n        /* \"#utility.yul\":17179:17184   */\n      dup3\n        /* \"#utility.yul\":17143:17185   */\n      tag_329\n      jump\t// in\n    tag_501:\n        /* \"#utility.yul\":17130:17185   */\n      swap1\n      pop\n        /* \"#utility.yul\":17044:17191   */\n      swap2\n      swap1\n      pop\n      jump\t// out\n        /* \"#utility.yul\":17197:17360   */\n    tag_331:\n        /* \"#utility.yul\":17300:17353   */\n      tag_503\n        /* \"#utility.yul\":17347:17352   */\n      dup2\n        /* \"#utility.yul\":17300:17353   */\n      tag_330\n      jump\t// in\n    tag_503:\n        /* \"#utility.yul\":17295:17298   */\n      dup3\n        /* \"#utility.yul\":17288:17354   */\n      mstore\n        /* \"#utility.yul\":17197:17360   */\n      pop\n      pop\n      jump\t// out\n        /* \"#utility.yul\":17366:17762   */\n    tag_109:\n        /* \"#utility.yul\":17519:17523   */\n      0x00\n        /* \"#utility.yul\":17557:17559   */\n      0x40\n        /* \"#utility.yul\":17546:17555   */\n      dup3\n        /* \"#utility.yul\":17542:17560   */\n      add\n        /* \"#utility.yul\":17534:17560   */\n      swap1\n      pop\n        /* \"#utility.yul\":17570:17657   */\n      tag_505\n        /* \"#utility.yul\":17654:17655   */\n      0x00\n        /* \"#utility.yul\":17643:17652   */\n      dup4\n        /* \"#utility.yul\":17639:17656   */\n      add\n        /* \"#utility.yul\":17630:17636   */\n      dup6\n        /* \"#utility.yul\":17570:17657   */\n      tag_331\n      jump\t// in\n    tag_505:\n        /* \"#utility.yul\":17667:17755   */\n      tag_506\n        /* \"#utility.yul\":17751:17753   */\n      0x20\n        /* \"#utility.yul\":17740:17749   */\n      dup4\n        /* \"#utility.yul\":17736:17754   */\n      add\n        /* \"#utility.yul\":17727:17733   */\n      dup5\n        /* \"#utility.yul\":17667:17755   */\n      tag_331\n      jump\t// in\n    tag_506:\n        /* \"#utility.yul\":17366:17762   */\n      swap4\n      swap3\n      pop\n      pop\n      pop\n      jump\t// out\n        /* \"#utility.yul\":17768:17948   */\n    tag_332:\n        /* \"#utility.yul\":17816:17893   */\n      0x4e487b7100000000000000000000000000000000000000000000000000000000\n        /* \"#utility.yul\":17813:17814   */\n      0x00\n        /* \"#utility.yul\":17806:17894   */\n      mstore\n        /* \"#utility.yul\":17913:17917   */\n      0x41\n        /* \"#utility.yul\":17910:17911   */\n      0x04\n        /* \"#utility.yul\":17903:17918   */\n      mstore\n        /* \"#utility.yul\":17937:17941   */\n      0x24\n        /* \"#utility.yul\":17934:17935   */\n      0x00\n        /* \"#utility.yul\":17927:17942   */\n      revert\n        /* \"#utility.yul\":17954:18134   */\n    tag_333:\n        /* \"#utility.yul\":18002:18079   */\n      0x4e487b7100000000000000000000000000000000000000000000000000000000\n        /* \"#utility.yul\":17999:18000   */\n      0x00\n        /* \"#utility.yul\":17992:18080   */\n      mstore\n        /* \"#utility.yul\":18099:18103   */\n      0x22\n        /* \"#utility.yul\":18096:18097   */\n      0x04\n        /* \"#utility.yul\":18089:18104   */\n      mstore\n        /* \"#utility.yul\":18123:18127   */\n      0x24\n        /* \"#utility.yul\":18120:18121   */\n      0x00\n        /* \"#utility.yul\":18113:18128   */\n      revert\n        /* \"#utility.yul\":18140:18460   */\n    tag_145:\n        /* \"#utility.yul\":18184:18190   */\n      0x00\n        /* \"#utility.yul\":18221:18222   */\n      0x02\n        /* \"#utility.yul\":18215:18219   */\n      dup3\n        /* \"#utility.yul\":18211:18223   */\n      div\n        /* \"#utility.yul\":18201:18223   */\n      swap1\n      pop\n        /* \"#utility.yul\":18268:18269   */\n      0x01\n        /* \"#utility.yul\":18262:18266   */\n      dup3\n        /* \"#utility.yul\":18258:18270   */\n      and\n        /* \"#utility.yul\":18289:18307   */\n      dup1\n        /* \"#utility.yul\":18279:18360   */\n      tag_510\n      jumpi\n        /* \"#utility.yul\":18345:18349   */\n      0x7f\n        /* \"#utility.yul\":18337:18343   */\n      dup3\n        /* \"#utility.yul\":18333:18350   */\n      and\n        /* \"#utility.yul\":18323:18350   */\n      swap2\n      pop\n        /* \"#utility.yul\":18279:18360   */\n    tag_510:\n        /* \"#utility.yul\":18407:18409   */\n      0x20\n        /* \"#utility.yul\":18399:18405   */\n      dup3\n        /* \"#utility.yul\":18396:18410   */\n      lt\n        /* \"#utility.yul\":18376:18394   */\n      dup2\n        /* \"#utility.yul\":18373:18411   */\n      sub\n        /* \"#utility.yul\":18370:18454   */\n      tag_511\n      jumpi\n        /* \"#utility.yul\":18426:18444   */\n      tag_512\n      tag_333\n      jump\t// in\n    tag_512:\n        /* \"#utility.yul\":18370:18454   */\n    tag_511:\n        /* \"#utility.yul\":18191:18460   */\n      pop\n        /* \"#utility.yul\":18140:18460   */\n      swap2\n      swap1\n      pop\n      jump\t// out\n        /* \"#utility.yul\":18466:18607   */\n    tag_334:\n        /* \"#utility.yul\":18515:18519   */\n      0x00\n        /* \"#utility.yul\":18538:18541   */\n      dup2\n        /* \"#utility.yul\":18530:18541   */\n      swap1\n      pop\n        /* \"#utility.yul\":18561:18564   */\n      dup2\n        /* \"#utility.yul\":18558:18559   */\n      0x00\n        /* \"#utility.yul\":18551:18565   */\n      mstore\n        /* \"#utility.yul\":18595:18599   */\n      0x20\n        /* \"#utility.yul\":18592:18593   */\n      0x00\n        /* \"#utility.yul\":18582:18600   */\n      keccak256\n        /* \"#utility.yul\":18574:18600   */\n      swap1\n      pop\n        /* \"#utility.yul\":18466:18607   */\n      swap2\n      swap1\n      pop\n      jump\t// out\n        /* \"#utility.yul\":18613:18706   */\n    tag_335:\n        /* \"#utility.yul\":18650:18656   */\n      0x00\n        /* \"#utility.yul\":18697:18699   */\n      0x20\n        /* \"#utility.yul\":18692:18694   */\n      0x1f\n        /* \"#utility.yul\":18685:18690   */\n      dup4\n        /* \"#utility.yul\":18681:18695   */\n      add\n        /* \"#utility.yul\":18677:18700   */\n      div\n        /* \"#utility.yul\":18667:18700   */\n      swap1\n      pop\n        /* \"#utility.yul\":18613:18706   */\n      swap2\n      swap1\n      pop\n      jump\t// out\n        /* \"#utility.yul\":18712:18819   */\n    tag_336:\n        /* \"#utility.yul\":18756:18764   */\n      0x00\n        /* \"#utility.yul\":18806:18811   */\n      dup3\n        /* \"#utility.yul\":18800:18804   */\n      dup3\n        /* \"#utility.yul\":18796:18812   */\n      shl\n        /* \"#utility.yul\":18775:18812   */\n      swap1\n      pop\n        /* \"#utility.yul\":18712:18819   */\n      swap3\n      swap2\n      pop\n      pop\n      jump\t// out\n        /* \"#utility.yul\":18825:19218   */\n    tag_337:\n        /* \"#utility.yul\":18894:18900   */\n      0x00\n        /* \"#utility.yul\":18944:18945   */\n      0x08\n        /* \"#utility.yul\":18932:18942   */\n      dup4\n        /* \"#utility.yul\":18928:18946   */\n      mul\n        /* \"#utility.yul\":18967:19064   */\n      tag_517\n        /* \"#utility.yul\":18997:19063   */\n      0xffffffffffffffffffffffffffffffffffffffffffffffffffffffffffffffff\n        /* \"#utility.yul\":18986:18995   */\n      dup3\n        /* \"#utility.yul\":18967:19064   */\n      tag_336\n      jump\t// in\n    tag_517:\n        /* \"#utility.yul\":19085:19124   */\n      tag_518\n        /* \"#utility.yul\":19115:19123   */\n      dup7\n        /* \"#utility.yul\":19104:19113   */\n      dup4\n        /* \"#utility.yul\":19085:19124   */\n      tag_336\n      jump\t// in\n    tag_518:\n        /* \"#utility.yul\":19073:19124   */\n      swap6\n      pop\n        /* \"#utility.yul\":19157:19161   */\n      dup1\n        /* \"#utility.yul\":19153:19162   */\n      not\n        /* \"#utility.yul\":19146:19151   */\n      dup5\n        /* \"#utility.yul\":19142:19163   */\n      and\n        /* \"#utility.yul\":19133:19163   */\n      swap4\n      pop\n        /* \"#utility.yul\":19206:19210   */\n      dup1\n        /* \"#utility.yul\":19196:19204   */\n      dup7\n        /* \"#utility.yul\":19192:19211   */\n      and\n        /* \"#utility.yul\":19185:19190   */\n      dup5\n        /* \"#utility.yul\":19182:19212   */\n      or\n        /* \"#utility.yul\":19172:19212   */\n      swap3\n      pop\n        /* \"#utility.yul\":18901:19218   */\n      pop\n      pop\n        /* \"#utility.yul\":18825:19218   */\n      swap4\n      swap3\n      pop\n      pop\n      pop\n      jump\t// out\n        /* \"#utility.yul\":19224:19284   */\n    tag_338:\n        /* \"#utility.yul\":19252:19255   */\n      0x00\n        /* \"#utility.yul\":19273:19278   */\n      dup2\n        /* \"#utility.yul\":19266:19278   */\n      swap1\n      pop\n        /* \"#utility.yul\":19224:19284   */\n      swap2\n      swap1\n      pop\n      jump\t// out\n        /* \"#utility.yul\":19290:19432   */\n    tag_339:\n        /* \"#utility.yul\":19340:19349   */\n      0x00\n        /* \"#utility.yul\":19373:19426   */\n      tag_521\n        /* \"#utility.yul\":19391:19425   */\n      tag_522\n        /* \"#utility.yul\":19400:19424   */\n      tag_523\n        /* \"#utility.yul\":19418:19423   */\n      dup5\n        /* \"#utility.yul\":19400:19424   */\n      tag_286\n      jump\t// in\n    tag_523:\n        /* \"#utility.yul\":19391:19425   */\n      tag_338\n      jump\t// in\n    tag_522:\n        /* \"#utility.yul\":19373:19426   */\n      tag_286\n      jump\t// in\n    tag_521:\n        /* \"#utility.yul\":19360:19426   */\n      swap1\n      pop\n        /* \"#utility.yul\":19290:19432   */\n      swap2\n      swap1\n      pop\n      jump\t// out\n        /* \"#utility.yul\":19438:19513   */\n    tag_340:\n        /* \"#utility.yul\":19481:19484   */\n      0x00\n        /* \"#utility.yul\":19502:19507   */\n      dup2\n        /* \"#utility.yul\":19495:19507   */\n      swap1\n      pop\n        /* \"#utility.yul\":19438:19513   */\n      swap2\n      swap1\n      pop\n      jump\t// out\n        /* \"#utility.yul\":19519:19788   */\n    tag_341:\n        /* \"#utility.yul\":19629:19668   */\n      tag_526\n        /* \"#utility.yul\":19660:19667   */\n      dup4\n        /* \"#utility.yul\":19629:19668   */\n      tag_339\n      jump\t// in\n    tag_526:\n        /* \"#utility.yul\":19690:19781   */\n      tag_527\n        /* \"#utility.yul\":19739:19780   */\n      tag_528\n        /* \"#utility.yul\":19763:19779   */\n      dup3\n        /* \"#utility.yul\":19739:19780   */\n      tag_340\n      jump\t// in\n    tag_528:\n        /* \"#utility.yul\":19731:19737   */\n      dup5\n        /* \"#utility.yul\":19724:19728   */\n      dup5\n        /* \"#utility.yul\":19718:19729   */\n      sload\n        /* \"#utility.yul\":19690:19781   */\n      tag_337\n      jump\t// in\n    tag_527:\n        /* \"#utility.yul\":19684:19688   */\n      dup3\n        /* \"#utility.yul\":19677:19782   */\n      sstore\n        /* \"#utility.yul\":19595:19788   */\n      pop\n        /* \"#utility.yul\":19519:19788   */\n      pop\n      pop\n      pop\n      jump\t// out\n        /* \"#utility.yul\":19794:19867   */\n    tag_342:\n        /* \"#utility.yul\":19839:19842   */\n      0x00\n        /* \"#utility.yul\":19794:19867   */\n      swap1\n      jump\t// out\n        /* \"#utility.yul\":19873:20062   */\n    tag_343:\n        /* \"#utility.yul\":19950:19982   */\n      tag_531\n      tag_342\n      jump\t// in\n    tag_531:\n        /* \"#utility.yul\":19991:20056   */\n      tag_532\n        /* \"#utility.yul\":20049:20055   */\n      dup2\n        /* \"#utility.yul\":20041:20047   */\n      dup5\n        /* \"#utility.yul\":20035:20039   */\n      dup5\n        /* \"#utility.yul\":19991:20056   */\n      tag_341\n      jump\t// in\n    tag_532:\n        /* \"#utility.yul\":19926:20062   */\n      pop\n        /* \"#utility.yul\":19873:20062   */\n      pop\n      pop\n      jump\t// out\n        /* \"#utility.yul\":20068:20254   */\n    tag_344:\n        /* \"#utility.yul\":20128:20248   */\n    tag_534:\n        /* \"#utility.yul\":20145:20148   */\n      dup2\n        /* \"#utility.yul\":20138:20143   */\n      dup2\n        /* \"#utility.yul\":20135:20149   */\n      lt\n        /* \"#utility.yul\":20128:20248   */\n      iszero\n      tag_536\n      jumpi\n        /* \"#utility.yul\":20199:20238   */\n      tag_537\n        /* \"#utility.yul\":20236:20237   */\n      0x00\n        /* \"#utility.yul\":20229:20234   */\n      dup3\n        /* \"#utility.yul\":20199:20238   */\n      tag_343\n      jump\t// in\n    tag_537:\n        /* \"#utility.yul\":20172:20173   */\n      0x01\n        /* \"#utility.yul\":20165:20170   */\n      dup2\n        /* \"#utility.yul\":20161:20174   */\n      add\n        /* \"#utility.yul\":20152:20174   */\n      swap1\n      pop\n        /* \"#utility.yul\":20128:20248   */\n      jump(tag_534)\n    tag_536:\n        /* \"#utility.yul\":20068:20254   */\n      pop\n      pop\n      jump\t// out\n        /* \"#utility.yul\":20260:20803   */\n    tag_345:\n        /* \"#utility.yul\":20361:20363   */\n      0x1f\n        /* \"#utility.yul\":20356:20359   */\n      dup3\n        /* \"#utility.yul\":20353:20364   */\n      gt\n        /* \"#utility.yul\":20350:20796   */\n      iszero\n      tag_539\n      jumpi\n        /* \"#utility.yul\":20395:20433   */\n      tag_540\n        /* \"#utility.yul\":20427:20432   */\n      dup2\n        /* \"#utility.yul\":20395:20433   */\n      tag_334\n      jump\t// in\n    tag_540:\n        /* \"#utility.yul\":20479:20508   */\n      tag_541\n        /* \"#utility.yul\":20497:20507   */\n      dup5\n        /* \"#utility.yul\":20479:20508   */\n      tag_335\n      jump\t// in\n    tag_541:\n        /* \"#utility.yul\":20469:20477   */\n      dup2\n        /* \"#utility.yul\":20465:20509   */\n      add\n        /* \"#utility.yul\":20662:20664   */\n      0x20\n        /* \"#utility.yul\":20650:20660   */\n      dup6\n        /* \"#utility.yul\":20647:20665   */\n      lt\n        /* \"#utility.yul\":20644:20693   */\n      iszero\n      tag_542\n      jumpi\n        /* \"#utility.yul\":20683:20691   */\n      dup2\n        /* \"#utility.yul\":20668:20691   */\n      swap1\n      pop\n        /* \"#utility.yul\":20644:20693   */\n    tag_542:\n        /* \"#utility.yul\":20706:20786   */\n      tag_543\n        /* \"#utility.yul\":20762:20784   */\n      tag_544\n        /* \"#utility.yul\":20780:20783   */\n      dup6\n        /* \"#utility.yul\":20762:20784   */\n      tag_335\n      jump\t// in\n    tag_544:\n        /* \"#utility.yul\":20752:20760   */\n      dup4\n        /* \"#utility.yul\":20748:20785   */\n      add\n        /* \"#utility.yul\":20735:20746   */\n      dup3\n        /* \"#utility.yul\":20706:20786   */\n      tag_344\n      jump\t// in\n    tag_543:\n        /* \"#utility.yul\":20365:20796   */\n      pop\n      pop\n        /* \"#utility.yul\":20350:20796   */\n    tag_539:\n        /* \"#utility.yul\":20260:20803   */\n      pop\n      pop\n      pop\n      jump\t// out\n        /* \"#utility.yul\":20809:20926   */\n    tag_346:\n        /* \"#utility.yul\":20863:20871   */\n      0x00\n        /* \"#utility.yul\":20913:20918   */\n      dup3\n        /* \"#utility.yul\":20907:20911   */\n      dup3\n        /* \"#utility.yul\":20903:20919   */\n      shr\n        /* \"#utility.yul\":20882:20919   */\n      swap1\n      pop\n        /* \"#utility.yul\":20809:20926   */\n      swap3\n      swap2\n      pop\n      pop\n      jump\t// out\n        /* \"#utility.yul\":20932:21101   */\n    tag_347:\n        /* \"#utility.yul\":20976:20982   */\n      0x00\n        /* \"#utility.yul\":21009:21060   */\n      tag_547\n        /* \"#utility.yul\":21057:21058   */\n      0x00\n        /* \"#utility.yul\":21053:21059   */\n      not\n        /* \"#utility.yul\":21045:21050   */\n      dup5\n        /* \"#utility.yul\":21042:21043   */\n      0x08\n        /* \"#utility.yul\":21038:21051   */\n      mul\n        /* \"#utility.yul\":21009:21060   */\n      tag_346\n      jump\t// in\n    tag_547:\n        /* \"#utility.yul\":21005:21061   */\n      not\n        /* \"#utility.yul\":21090:21094   */\n      dup1\n        /* \"#utility.yul\":21084:21088   */\n      dup4\n        /* \"#utility.yul\":21080:21095   */\n      and\n        /* \"#utility.yul\":21070:21095   */\n      swap2\n      pop\n        /* \"#utility.yul\":20983:21101   */\n      pop\n        /* \"#utility.yul\":20932:21101   */\n      swap3\n      swap2\n      pop\n      pop\n      jump\t// out\n        /* \"#utility.yul\":21106:21401   */\n    tag_348:\n        /* \"#utility.yul\":21182:21186   */\n      0x00\n        /* \"#utility.yul\":21328:21357   */\n      tag_549\n        /* \"#utility.yul\":21353:21356   */\n      dup4\n        /* \"#utility.yul\":21347:21351   */\n      dup4\n        /* \"#utility.yul\":21328:21357   */\n      tag_347\n      jump\t// in\n    tag_549:\n        /* \"#utility.yul\":21320:21357   */\n      swap2\n      pop\n        /* \"#utility.yul\":21390:21393   */\n      dup3\n        /* \"#utility.yul\":21387:21388   */\n      0x02\n        /* \"#utility.yul\":21383:21394   */\n      mul\n        /* \"#utility.yul\":21377:21381   */\n      dup3\n        /* \"#utility.yul\":21374:21395   */\n      or\n        /* \"#utility.yul\":21366:21395   */\n      swap1\n      pop\n        /* \"#utility.yul\":21106:21401   */\n      swap3\n      swap2\n      pop\n      pop\n      jump\t// out\n        /* \"#utility.yul\":21406:22801   */\n    tag_122:\n        /* \"#utility.yul\":21523:21560   */\n      tag_551\n        /* \"#utility.yul\":21556:21559   */\n      dup3\n        /* \"#utility.yul\":21523:21560   */\n      tag_296\n      jump\t// in\n    tag_551:\n        /* \"#utility.yul\":21625:21643   */\n      0xffffffffffffffff\n        /* \"#utility.yul\":21617:21623   */\n      dup2\n        /* \"#utility.yul\":21614:21644   */\n      gt\n        /* \"#utility.yul\":21611:21667   */\n      iszero\n      tag_552\n      jumpi\n        /* \"#utility.yul\":21647:21665   */\n      tag_553\n      tag_332\n      jump\t// in\n    tag_553:\n        /* \"#utility.yul\":21611:21667   */\n    tag_552:\n        /* \"#utility.yul\":21691:21729   */\n      tag_554\n        /* \"#utility.yul\":21723:21727   */\n      dup3\n        /* \"#utility.yul\":21717:21728   */\n      sload\n        /* \"#utility.yul\":21691:21729   */\n      tag_145\n      jump\t// in\n    tag_554:\n        /* \"#utility.yul\":21776:21843   */\n      tag_555\n        /* \"#utility.yul\":21836:21842   */\n      dup3\n        /* \"#utility.yul\":21828:21834   */\n      dup3\n        /* \"#utility.yul\":21822:21826   */\n      dup6\n        /* \"#utility.yul\":21776:21843   */\n      tag_345\n      jump\t// in\n    tag_555:\n        /* \"#utility.yul\":21870:21871   */\n      0x00\n        /* \"#utility.yul\":21894:21898   */\n      0x20\n        /* \"#utility.yul\":21881:21898   */\n      swap1\n      pop\n        /* \"#utility.yul\":21926:21928   */\n      0x1f\n        /* \"#utility.yul\":21918:21924   */\n      dup4\n        /* \"#utility.yul\":21915:21929   */\n      gt\n        /* \"#utility.yul\":21943:21944   */\n      0x01\n        /* \"#utility.yul\":21938:22556   */\n      dup2\n      eq\n      tag_557\n      jumpi\n        /* \"#utility.yul\":22600:22601   */\n      0x00\n        /* \"#utility.yul\":22617:22623   */\n      dup5\n        /* \"#utility.yul\":22614:22691   */\n      iszero\n      tag_558\n      jumpi\n        /* \"#utility.yul\":22666:22675   */\n      dup3\n        /* \"#utility.yul\":22661:22664   */\n      dup8\n        /* \"#utility.yul\":22657:22676   */\n      add\n        /* \"#utility.yul\":22651:22677   */\n      mload\n        /* \"#utility.yul\":22642:22677   */\n      swap1\n      pop\n        /* \"#utility.yul\":22614:22691   */\n    tag_558:\n        /* \"#utility.yul\":22717:22784   */\n      tag_559\n        /* \"#utility.yul\":22777:22783   */\n      dup6\n        /* \"#utility.yul\":22770:22775   */\n      dup3\n        /* \"#utility.yul\":22717:22784   */\n      tag_348\n      jump\t// in\n    tag_559:\n        /* \"#utility.yul\":22711:22715   */\n      dup7\n        /* \"#utility.yul\":22704:22785   */\n      sstore\n        /* \"#utility.yul\":22573:22795   */\n      pop\n        /* \"#utility.yul\":21908:22795   */\n      jump(tag_556)\n        /* \"#utility.yul\":21938:22556   */\n    tag_557:\n        /* \"#utility.yul\":21990:21994   */\n      0x1f\n        /* \"#utility.yul\":21986:21995   */\n      not\n        /* \"#utility.yul\":21978:21984   */\n      dup5\n        /* \"#utility.yul\":21974:21996   */\n      and\n        /* \"#utility.yul\":22024:22061   */\n      tag_560\n        /* \"#utility.yul\":22056:22060   */\n      dup7\n        /* \"#utility.yul\":22024:22061   */\n      tag_334\n      jump\t// in\n    tag_560:\n        /* \"#utility.yul\":22083:22084   */\n      0x00\n        /* \"#utility.yul\":22097:22305   */\n    tag_561:\n        /* \"#utility.yul\":22111:22118   */\n      dup3\n        /* \"#utility.yul\":22108:22109   */\n      dup2\n        /* \"#utility.yul\":22105:22119   */\n      lt\n        /* \"#utility.yul\":22097:22305   */\n      iszero\n      tag_563\n      jumpi\n        /* \"#utility.yul\":22190:22199   */\n      dup5\n        /* \"#utility.yul\":22185:22188   */\n      dup10\n        /* \"#utility.yul\":22181:22200   */\n      add\n        /* \"#utility.yul\":22175:22201   */\n      mload\n        /* \"#utility.yul\":22167:22173   */\n      dup3\n        /* \"#utility.yul\":22160:22202   */\n      sstore\n        /* \"#utility.yul\":22241:22242   */\n      0x01\n        /* \"#utility.yul\":22233:22239   */\n      dup3\n        /* \"#utility.yul\":22229:22243   */\n      add\n        /* \"#utility.yul\":22219:22243   */\n      swap2\n      pop\n        /* \"#utility.yul\":22288:22290   */\n      0x20\n        /* \"#utility.yul\":22277:22286   */\n      dup6\n        /* \"#utility.yul\":22273:22291   */\n      add\n        /* \"#utility.yul\":22260:22291   */\n      swap5\n      pop\n        /* \"#utility.yul\":22134:22138   */\n      0x20\n        /* \"#utility.yul\":22131:22132   */\n      dup2\n        /* \"#utility.yul\":22127:22139   */\n      add\n        /* \"#utility.yul\":22122:22139   */\n      swap1\n      pop\n        /* \"#utility.yul\":22097:22305   */\n      jump(tag_561)\n    tag_563:\n        /* \"#utility.yul\":22333:22339   */\n      dup7\n        /* \"#utility.yul\":22324:22331   */\n      dup4\n        /* \"#utility.yul\":22321:22340   */\n      lt\n        /* \"#utility.yul\":22318:22497   */\n      iszero\n      tag_564\n      jumpi\n        /* \"#utility.yul\":22391:22400   */\n      dup5\n        /* \"#utility.yul\":22386:22389   */\n      dup10\n        /* \"#utility.yul\":22382:22401   */\n      add\n        /* \"#utility.yul\":22376:22402   */\n      mload\n        /* \"#utility.yul\":22434:22482   */\n      tag_565\n        /* \"#utility.yul\":22476:22480   */\n      0x1f\n        /* \"#utility.yul\":22468:22474   */\n      dup10\n        /* \"#utility.yul\":22464:22481   */\n      and\n        /* \"#utility.yul\":22453:22462   */\n      dup3\n        /* \"#utility.yul\":22434:22482   */\n      tag_347\n      jump\t// in\n    tag_565:\n        /* \"#utility.yul\":22426:22432   */\n      dup4\n        /* \"#utility.yul\":22419:22483   */\n      sstore\n        /* \"#utility.yul\":22341:22497   */\n      pop\n        /* \"#utility.yul\":22318:22497   */\n    tag_564:\n        /* \"#utility.yul\":22543:22544   */\n      0x01\n        /* \"#utility.yul\":22539:22540   */\n      0x02\n        /* \"#utility.yul\":22531:22537   */\n      dup9\n        /* \"#utility.yul\":22527:22541   */\n      mul\n        /* \"#utility.yul\":22523:22545   */\n      add\n        /* \"#utility.yul\":22517:22521   */\n      dup9\n        /* \"#utility.yul\":22510:22546   */\n      sstore\n        /* \"#utility.yul\":21945:22556   */\n      pop\n      pop\n      pop\n        /* \"#utility.yul\":21908:22795   */\n    tag_556:\n      pop\n        /* \"#utility.yul\":21498:22801   */\n      pop\n      pop\n      pop\n        /* \"#utility.yul\":21406:22801   */\n      pop\n      pop\n      jump\t// out\n        /* \"#utility.yul\":22807:23029   */\n    tag_124:\n        /* \"#utility.yul\":22900:22904   */\n      0x00\n        /* \"#utility.yul\":22938:22940   */\n      0x20\n        /* \"#utility.yul\":22927:22936   */\n      dup3\n        /* \"#utility.yul\":22923:22941   */\n      add\n        /* \"#utility.yul\":22915:22941   */\n      swap1\n      pop\n        /* \"#utility.yul\":22951:23022   */\n      tag_567\n        /* \"#utility.yul\":23019:23020   */\n      0x00\n        /* \"#utility.yul\":23008:23017   */\n      dup4\n        /* \"#utility.yul\":23004:23021   */\n      add\n        /* \"#utility.yul\":22995:23001   */\n      dup5\n        /* \"#utility.yul\":22951:23022   */\n      tag_325\n      jump\t// in\n    tag_567:\n        /* \"#utility.yul\":22807:23029   */\n      swap3\n      swap2\n      pop\n      pop\n      jump\t// out\n        /* \"#utility.yul\":23035:23259   */\n    tag_349:\n        /* \"#utility.yul\":23175:23209   */\n      0x4974206d7573742062652074686520656e64206f662070726f706f73616c2062\n        /* \"#utility.yul\":23171:23172   */\n      0x00\n        /* \"#utility.yul\":23163:23169   */\n      dup3\n        /* \"#utility.yul\":23159:23173   */\n      add\n        /* \"#utility.yul\":23152:23210   */\n      mstore\n        /* \"#utility.yul\":23244:23251   */\n      0x65666f7265000000000000000000000000000000000000000000000000000000\n        /* \"#utility.yul\":23239:23241   */\n      0x20\n        /* \"#utility.yul\":23231:23237   */\n      dup3\n        /* \"#utility.yul\":23227:23242   */\n      add\n        /* \"#utility.yul\":23220:23252   */\n      mstore\n        /* \"#utility.yul\":23035:23259   */\n      pop\n      jump\t// out\n        /* \"#utility.yul\":23265:23631   */\n    tag_350:\n        /* \"#utility.yul\":23407:23410   */\n      0x00\n        /* \"#utility.yul\":23428:23495   */\n      tag_570\n        /* \"#utility.yul\":23492:23494   */\n      0x25\n        /* \"#utility.yul\":23487:23490   */\n      dup4\n        /* \"#utility.yul\":23428:23495   */\n      tag_315\n      jump\t// in\n    tag_570:\n        /* \"#utility.yul\":23421:23495   */\n      swap2\n      pop\n        /* \"#utility.yul\":23504:23597   */\n      tag_571\n        /* \"#utility.yul\":23593:23596   */\n      dup3\n        /* \"#utility.yul\":23504:23597   */\n      tag_349\n      jump\t// in\n    tag_571:\n        /* \"#utility.yul\":23622:23624   */\n      0x40\n        /* \"#utility.yul\":23617:23620   */\n      dup3\n        /* \"#utility.yul\":23613:23625   */\n      add\n        /* \"#utility.yul\":23606:23625   */\n      swap1\n      pop\n        /* \"#utility.yul\":23265:23631   */\n      swap2\n      swap1\n      pop\n      jump\t// out\n        /* \"#utility.yul\":23637:24056   */\n    tag_134:\n        /* \"#utility.yul\":23803:23807   */\n      0x00\n        /* \"#utility.yul\":23841:23843   */\n      0x20\n        /* \"#utility.yul\":23830:23839   */\n      dup3\n        /* \"#utility.yul\":23826:23844   */\n      add\n        /* \"#utility.yul\":23818:23844   */\n      swap1\n      pop\n        /* \"#utility.yul\":23890:23899   */\n      dup2\n        /* \"#utility.yul\":23884:23888   */\n      dup2\n        /* \"#utility.yul\":23880:23900   */\n      sub\n        /* \"#utility.yul\":23876:23877   */\n      0x00\n        /* \"#utility.yul\":23865:23874   */\n      dup4\n        /* \"#utility.yul\":23861:23878   */\n      add\n        /* \"#utility.yul\":23854:23901   */\n      mstore\n        /* \"#utility.yul\":23918:24049   */\n      tag_573\n        /* \"#utility.yul\":24044:24048   */\n      dup2\n        /* \"#utility.yul\":23918:24049   */\n      tag_350\n      jump\t// in\n    tag_573:\n        /* \"#utility.yul\":23910:24049   */\n      swap1\n      pop\n        /* \"#utility.yul\":23637:24056   */\n      swap2\n      swap1\n      pop\n      jump\t// out\n        /* \"#utility.yul\":24062:24236   */\n    tag_351:\n        /* \"#utility.yul\":24202:24228   */\n      0x4974206d7573742070726f706f73616c2073657373696f6e0000000000000000\n        /* \"#utility.yul\":24198:24199   */\n      0x00\n        /* \"#utility.yul\":24190:24196   */\n      dup3\n        /* \"#utility.yul\":24186:24200   */\n      add\n        /* \"#utility.yul\":24179:24229   */\n      mstore\n        /* \"#utility.yul\":24062:24236   */\n      pop\n      jump\t// out\n        /* \"#utility.yul\":24242:24608   */\n    tag_352:\n        /* \"#utility.yul\":24384:24387   */\n      0x00\n        /* \"#utility.yul\":24405:24472   */\n      tag_576\n        /* \"#utility.yul\":24469:24471   */\n      0x18\n        /* \"#utility.yul\":24464:24467   */\n      dup4\n        /* \"#utility.yul\":24405:24472   */\n      tag_315\n      jump\t// in\n    tag_576:\n        /* \"#utility.yul\":24398:24472   */\n      swap2\n      pop\n        /* \"#utility.yul\":24481:24574   */\n      tag_577\n        /* \"#utility.yul\":24570:24573   */\n      dup3\n        /* \"#utility.yul\":24481:24574   */\n      tag_351\n      jump\t// in\n    tag_577:\n        /* \"#utility.yul\":24599:24601   */\n      0x20\n        /* \"#utility.yul\":24594:24597   */\n      dup3\n        /* \"#utility.yul\":24590:24602   */\n      add\n        /* \"#utility.yul\":24583:24602   */\n      swap1\n      pop\n        /* \"#utility.yul\":24242:24608   */\n      swap2\n      swap1\n      pop\n      jump\t// out\n        /* \"#utility.yul\":24614:25033   */\n    tag_183:\n        /* \"#utility.yul\":24780:24784   */\n      0x00\n        /* \"#utility.yul\":24818:24820   */\n      0x20\n        /* \"#utility.yul\":24807:24816   */\n      dup3\n        /* \"#utility.yul\":24803:24821   */\n      add\n        /* \"#utility.yul\":24795:24821   */\n      swap1\n      pop\n        /* \"#utility.yul\":24867:24876   */\n      dup2\n        /* \"#utility.yul\":24861:24865   */\n      dup2\n        /* \"#utility.yul\":24857:24877   */\n      sub\n        /* \"#utility.yul\":24853:24854   */\n      0x00\n        /* \"#utility.yul\":24842:24851   */\n      dup4\n        /* \"#utility.yul\":24838:24855   */\n      add\n        /* \"#utility.yul\":24831:24878   */\n      mstore\n        /* \"#utility.yul\":24895:25026   */\n      tag_579\n        /* \"#utility.yul\":25021:25025   */\n      dup2\n        /* \"#utility.yul\":24895:25026   */\n      tag_352\n      jump\t// in\n    tag_579:\n        /* \"#utility.yul\":24887:25026   */\n      swap1\n      pop\n        /* \"#utility.yul\":24614:25033   */\n      swap2\n      swap1\n      pop\n      jump\t// out\n        /* \"#utility.yul\":25039:25259   */\n    tag_353:\n        /* \"#utility.yul\":25179:25213   */\n      0x4974206d7573742062652074686520656e64206f66207468652073657373696f\n        /* \"#utility.yul\":25175:25176   */\n      0x00\n        /* \"#utility.yul\":25167:25173   */\n      dup3\n        /* \"#utility.yul\":25163:25177   */\n      add\n        /* \"#utility.yul\":25156:25214   */\n      mstore\n        /* \"#utility.yul\":25248:25251   */\n      0x6e00000000000000000000000000000000000000000000000000000000000000\n        /* \"#utility.yul\":25243:25245   */\n      0x20\n        /* \"#utility.yul\":25235:25241   */\n      dup3\n        /* \"#utility.yul\":25231:25246   */\n      add\n        /* \"#utility.yul\":25224:25252   */\n      mstore\n        /* \"#utility.yul\":25039:25259   */\n      pop\n      jump\t// out\n        /* \"#utility.yul\":25265:25631   */\n    tag_354:\n        /* \"#utility.yul\":25407:25410   */\n      0x00\n        /* \"#utility.yul\":25428:25495   */\n      tag_582\n        /* \"#utility.yul\":25492:25494   */\n      0x21\n        /* \"#utility.yul\":25487:25490   */\n      dup4\n        /* \"#utility.yul\":25428:25495   */\n      tag_315\n      jump\t// in\n    tag_582:\n        /* \"#utility.yul\":25421:25495   */\n      swap2\n      pop\n        /* \"#utility.yul\":25504:25597   */\n      tag_583\n        /* \"#utility.yul\":25593:25596   */\n      dup3\n        /* \"#utility.yul\":25504:25597   */\n      tag_353\n      jump\t// in\n    tag_583:\n        /* \"#utility.yul\":25622:25624   */\n      0x40\n        /* \"#utility.yul\":25617:25620   */\n      dup3\n        /* \"#utility.yul\":25613:25625   */\n      add\n        /* \"#utility.yul\":25606:25625   */\n      swap1\n      pop\n        /* \"#utility.yul\":25265:25631   */\n      swap2\n      swap1\n      pop\n      jump\t// out\n        /* \"#utility.yul\":25637:26056   */\n    tag_196:\n        /* \"#utility.yul\":25803:25807   */\n      0x00\n        /* \"#utility.yul\":25841:25843   */\n      0x20\n        /* \"#utility.yul\":25830:25839   */\n      dup3\n        /* \"#utility.yul\":25826:25844   */\n      add\n        /* \"#utility.yul\":25818:25844   */\n      swap1\n      pop\n        /* \"#utility.yul\":25890:25899   */\n      dup2\n        /* \"#utility.yul\":25884:25888   */\n      dup2\n        /* \"#utility.yul\":25880:25900   */\n      sub\n        /* \"#utility.yul\":25876:25877   */\n      0x00\n        /* \"#utility.yul\":25865:25874   */\n      dup4\n        /* \"#utility.yul\":25861:25878   */\n      add\n        /* \"#utility.yul\":25854:25901   */\n      mstore\n        /* \"#utility.yul\":25918:26049   */\n      tag_585\n        /* \"#utility.yul\":26044:26048   */\n      dup2\n        /* \"#utility.yul\":25918:26049   */\n      tag_354\n      jump\t// in\n    tag_585:\n        /* \"#utility.yul\":25910:26049   */\n      swap1\n      pop\n        /* \"#utility.yul\":25637:26056   */\n      swap2\n      swap1\n      pop\n      jump\t// out\n        /* \"#utility.yul\":26062:26295   */\n    tag_214:\n        /* \"#utility.yul\":26101:26104   */\n      0x00\n        /* \"#utility.yul\":26124:26148   */\n      tag_587\n        /* \"#utility.yul\":26142:26147   */\n      dup3\n        /* \"#utility.yul\":26124:26148   */\n      tag_286\n      jump\t// in\n    tag_587:\n        /* \"#utility.yul\":26115:26148   */\n      swap2\n      pop\n        /* \"#utility.yul\":26170:26236   */\n      0xffffffffffffffffffffffffffffffffffffffffffffffffffffffffffffffff\n        /* \"#utility.yul\":26163:26168   */\n      dup3\n        /* \"#utility.yul\":26160:26237   */\n      sub\n        /* \"#utility.yul\":26157:26260   */\n      tag_588\n      jumpi\n        /* \"#utility.yul\":26240:26258   */\n      tag_589\n      tag_324\n      jump\t// in\n    tag_589:\n        /* \"#utility.yul\":26157:26260   */\n    tag_588:\n        /* \"#utility.yul\":26287:26288   */\n      0x01\n        /* \"#utility.yul\":26280:26285   */\n      dup3\n        /* \"#utility.yul\":26276:26289   */\n      add\n        /* \"#utility.yul\":26269:26289   */\n      swap1\n      pop\n        /* \"#utility.yul\":26062:26295   */\n      swap2\n      swap1\n      pop\n      jump\t// out\n        /* \"#utility.yul\":26301:26476   */\n    tag_355:\n        /* \"#utility.yul\":26441:26468   */\n      0x4974206d75737420626520766f74696e672073657373696f6e00000000000000\n        /* \"#utility.yul\":26437:26438   */\n      0x00\n        /* \"#utility.yul\":26429:26435   */\n      dup3\n        /* \"#utility.yul\":26425:26439   */\n      add\n        /* \"#utility.yul\":26418:26469   */\n      mstore\n        /* \"#utility.yul\":26301:26476   */\n      pop\n      jump\t// out\n        /* \"#utility.yul\":26482:26848   */\n    tag_356:\n        /* \"#utility.yul\":26624:26627   */\n      0x00\n        /* \"#utility.yul\":26645:26712   */\n      tag_592\n        /* \"#utility.yul\":26709:26711   */\n      0x19\n        /* \"#utility.yul\":26704:26707   */\n      dup4\n        /* \"#utility.yul\":26645:26712   */\n      tag_315\n      jump\t// in\n    tag_592:\n        /* \"#utility.yul\":26638:26712   */\n      swap2\n      pop\n        /* \"#utility.yul\":26721:26814   */\n      tag_593\n        /* \"#utility.yul\":26810:26813   */\n      dup3\n        /* \"#utility.yul\":26721:26814   */\n      tag_355\n      jump\t// in\n    tag_593:\n        /* \"#utility.yul\":26839:26841   */\n      0x20\n        /* \"#utility.yul\":26834:26837   */\n      dup3\n        /* \"#utility.yul\":26830:26842   */\n      add\n        /* \"#utility.yul\":26823:26842   */\n      swap1\n      pop\n        /* \"#utility.yul\":26482:26848   */\n      swap2\n      swap1\n      pop\n      jump\t// out\n        /* \"#utility.yul\":26854:27273   */\n    tag_232:\n        /* \"#utility.yul\":27020:27024   */\n      0x00\n        /* \"#utility.yul\":27058:27060   */\n      0x20\n        /* \"#utility.yul\":27047:27056   */\n      dup3\n        /* \"#utility.yul\":27043:27061   */\n      add\n        /* \"#utility.yul\":27035:27061   */\n      swap1\n      pop\n        /* \"#utility.yul\":27107:27116   */\n      dup2\n        /* \"#utility.yul\":27101:27105   */\n      dup2\n        /* \"#utility.yul\":27097:27117   */\n      sub\n        /* \"#utility.yul\":27093:27094   */\n      0x00\n        /* \"#utility.yul\":27082:27091   */\n      dup4\n        /* \"#utility.yul\":27078:27095   */\n      add\n        /* \"#utility.yul\":27071:27118   */\n      mstore\n        /* \"#utility.yul\":27135:27266   */\n      tag_595\n        /* \"#utility.yul\":27261:27265   */\n      dup2\n        /* \"#utility.yul\":27135:27266   */\n      tag_356\n      jump\t// in\n    tag_595:\n        /* \"#utility.yul\":27127:27266   */\n      swap1\n      pop\n        /* \"#utility.yul\":26854:27273   */\n      swap2\n      swap1\n      pop\n      jump\t// out\n\n    auxdata: 0xa2646970667358221220e00fd598061d8d6e201535db17072bde95ae42ad1f501fd67505b9371f664e9c64736f6c63430008140033\n}\n",
				"bytecode": {
					"linkReferences": {},
					"object": "608060405234801562000010575f80fd5b50335f73ffffffffffffffffffffffffffffffffffffffff168173ffffffffffffffffffffffffffffffffffffffff160362000085575f6040517f1e4fbdf70000000000000000000000000000000000000000000000000000000081526004016200007c9190620001a1565b60405180910390fd5b62000096816200009d60201b60201c565b50620001bc565b5f805f9054906101000a900473ffffffffffffffffffffffffffffffffffffffff169050815f806101000a81548173ffffffffffffffffffffffffffffffffffffffff021916908373ffffffffffffffffffffffffffffffffffffffff1602179055508173ffffffffffffffffffffffffffffffffffffffff168173ffffffffffffffffffffffffffffffffffffffff167f8be0079c531659141344cd1fd0a4f28419497f9722a3daafe3b4186f6b6457e060405160405180910390a35050565b5f73ffffffffffffffffffffffffffffffffffffffff82169050919050565b5f62000189826200015e565b9050919050565b6200019b816200017d565b82525050565b5f602082019050620001b65f83018462000190565b92915050565b6122d580620001ca5f395ff3fe608060405234801561000f575f80fd5b50600436106100f3575f3560e01c80638e7ea5b211610095578063b922394611610064578063b9223946146101eb578063f2fde38b146101f5578063f4ab9adf14610211578063f8a3ce821461022d576100f3565b80638e7ea5b21461018957806398f6560b146101a75780639c6a46c4146101b1578063a587f077146101bb576100f3565b80634c0a6af0116100d15780634c0a6af01461013957806362564c4814610143578063715018a6146101615780638da5cb5b1461016b576100f3565b80630121b93f146100f7578063274da81f146101135780632fdae3c51461011d575b5f80fd5b610111600480360381019061010c919061159d565b610237565b005b61011b610531565b005b61013760048036038101906101329190611629565b610620565b005b610141610802565b005b61014b6108f2565b6040516101589190611802565b60405180910390f35b610169610a72565b005b610173610a85565b6040516101809190611861565b60405180910390f35b610191610aac565b60405161019e91906118b4565b60405180910390f35b6101af610bf6565b005b6101b9610ce7565b005b6101d560048036038101906101d091906118fe565b610f01565b6040516101e29190611983565b60405180910390f35b6101f3611020565b005b61020f600480360381019061020a91906118fe565b611111565b005b61022b600480360381019061022691906118fe565b611195565b005b6102356112f3565b005b600380600581111561024c5761024b61199c565b5b60035f9054906101000a900460ff16600581111561026d5761026c61199c565b5b146102ad576040517f08c379a00000000000000000000000000000000000000000000000000000000081526004016102a490611a49565b60405180910390fd5b60015f3373ffffffffffffffffffffffffffffffffffffffff1673ffffffffffffffffffffffffffffffffffffffff1681526020019081526020015f205f015f9054906101000a900460ff16610338576040517f08c379a000000000000000000000000000000000000000000000000000000000815260040161032f90611ab1565b60405180910390fd5b60015f3373ffffffffffffffffffffffffffffffffffffffff1673ffffffffffffffffffffffffffffffffffffffff1681526020019081526020015f205f0160019054906101000a900460ff16156103c5576040517f08c379a00000000000000000000000000000000000000000000000000000000081526004016103bc90611b19565b60405180910390fd5b5f600280549050141580156103df57506002805490508211155b61041e576040517f08c379a000000000000000000000000000000000000000000000000000000000815260040161041590611b81565b60405180910390fd5b6001805f3373ffffffffffffffffffffffffffffffffffffffff1673ffffffffffffffffffffffffffffffffffffffff1681526020019081526020015f205f0160016101000a81548160ff0219169083151502179055508160015f3373ffffffffffffffffffffffffffffffffffffffff1673ffffffffffffffffffffffffffffffffffffffff1681526020019081526020015f20600101819055506001600283815481106104d0576104cf611b9f565b5b905f5260205f2090600202016001015f8282546104ed9190611bf9565b925050819055507f4d99b957a2bc29a30ebd96a7be8e68fe50a3c701db28a91436490b7d53870ca43383604051610525929190611c3b565b60405180910390a15050565b610539611333565b5f600581111561054c5761054b61199c565b5b60035f9054906101000a900460ff16600581111561056d5761056c61199c565b5b146105ad576040517f08c379a00000000000000000000000000000000000000000000000000000000081526004016105a490611cd2565b60405180910390fd5b600160035f6101000a81548160ff021916908360058111156105d2576105d161199c565b5b02179055507f0a97a4ee45751e2abf3e4fc8946939630b11b371ea8ae39ccdc3056e98f5cc3f5f60035f9054906101000a900460ff16604051610616929190611d36565b60405180910390a1565b60018060058111156106355761063461199c565b5b60035f9054906101000a900460ff1660058111156106565761065561199c565b5b14610696576040517f08c379a000000000000000000000000000000000000000000000000000000000815260040161068d90611a49565b60405180910390fd5b60015f3373ffffffffffffffffffffffffffffffffffffffff1673ffffffffffffffffffffffffffffffffffffffff1681526020019081526020015f205f015f9054906101000a900460ff16610721576040517f08c379a000000000000000000000000000000000000000000000000000000000815260040161071890611ab1565b60405180910390fd5b6002604051806040016040528085858080601f0160208091040260200160405190810160405280939291908181526020018383808284375f81840152601f19601f8201169050808301925050505050505081526020015f815250908060018154018082558091505060019003905f5260205f2090600202015f909190919091505f820151815f0190816107b49190611f84565b506020820151816001015550507f92e393e9b54e2f801d3ea4beb0c5e71a21cc34a5d34b77d0fb8a3aa1650dc18f6002805490506040516107f59190612053565b60405180910390a1505050565b61080a611333565b6002600581111561081e5761081d61199c565b5b60035f9054906101000a900460ff16600581111561083f5761083e61199c565b5b1461087f576040517f08c379a0000000000000000000000000000000000000000000000000000000008152600401610876906120dc565b60405180910390fd5b6003805f6101000a81548160ff021916908360058111156108a3576108a261199c565b5b02179055507f0a97a4ee45751e2abf3e4fc8946939630b11b371ea8ae39ccdc3056e98f5cc3f600260035f9054906101000a900460ff166040516108e8929190611d36565b60405180910390a1565b606060015f3373ffffffffffffffffffffffffffffffffffffffff1673ffffffffffffffffffffffffffffffffffffffff1681526020019081526020015f205f015f9054906101000a900460ff1661097f576040517f08c379a000000000000000000000000000000000000000000000000000000000815260040161097690611ab1565b60405180910390fd5b6002805480602002602001604051908101604052809291908181526020015f905b82821015610a69578382905f5260205f2090600202016040518060400160405290815f820180546109d090611db7565b80601f01602080910402602001604051908101604052809291908181526020018280546109fc90611db7565b8015610a475780601f10610a1e57610100808354040283529160200191610a47565b820191905f5260205f20905b815481529060010190602001808311610a2a57829003601f168201915b50505050508152602001600182015481525050815260200190600101906109a0565b50505050905090565b610a7a611333565b610a835f6113ba565b565b5f805f9054906101000a900473ffffffffffffffffffffffffffffffffffffffff16905090565b610ab4611482565b6005806005811115610ac957610ac861199c565b5b60035f9054906101000a900460ff166005811115610aea57610ae961199c565b5b14610b2a576040517f08c379a0000000000000000000000000000000000000000000000000000000008152600401610b2190611a49565b60405180910390fd5b600260045481548110610b4057610b3f611b9f565b5b905f5260205f2090600202016040518060400160405290815f82018054610b6690611db7565b80601f0160208091040260200160405190810160405280929190818152602001828054610b9290611db7565b8015610bdd5780601f10610bb457610100808354040283529160200191610bdd565b820191905f5260205f20905b815481529060010190602001808311610bc057829003601f168201915b5050505050815260200160018201548152505091505090565b610bfe611333565b60016005811115610c1257610c1161199c565b5b60035f9054906101000a900460ff166005811115610c3357610c3261199c565b5b14610c73576040517f08c379a0000000000000000000000000000000000000000000000000000000008152600401610c6a90612144565b60405180910390fd5b600260035f6101000a81548160ff02191690836005811115610c9857610c9761199c565b5b02179055507f0a97a4ee45751e2abf3e4fc8946939630b11b371ea8ae39ccdc3056e98f5cc3f600160035f9054906101000a900460ff16604051610cdd929190611d36565b60405180910390a1565b610cef611333565b60046005811115610d0357610d0261199c565b5b60035f9054906101000a900460ff166005811115610d2457610d2361199c565b5b14610d64576040517f08c379a0000000000000000000000000000000000000000000000000000000008152600401610d5b906121d2565b60405180910390fd5b610d6c611482565b5f5b600280549050811015610e8b5760028181548110610d8f57610d8e611b9f565b5b905f5260205f2090600202016001015482602001511015610e785760028181548110610dbe57610dbd611b9f565b5b905f5260205f2090600202016040518060400160405290815f82018054610de490611db7565b80601f0160208091040260200160405190810160405280929190818152602001828054610e1090611db7565b8015610e5b5780601f10610e3257610100808354040283529160200191610e5b565b820191905f5260205f20905b815481529060010190602001808311610e3e57829003601f168201915b505050505081526020016001820154815250509150806004819055505b8080610e83906121f0565b915050610d6e565b50600560035f6101000a81548160ff02191690836005811115610eb157610eb061199c565b5b02179055507f0a97a4ee45751e2abf3e4fc8946939630b11b371ea8ae39ccdc3056e98f5cc3f600460035f9054906101000a900460ff16604051610ef6929190611d36565b60405180910390a150565b610f0961149b565b60015f3373ffffffffffffffffffffffffffffffffffffffff1673ffffffffffffffffffffffffffffffffffffffff1681526020019081526020015f205f015f9054906101000a900460ff16610f94576040517f08c379a0000000000000000000000000000000000000000000000000000000008152600401610f8b90611ab1565b60405180910390fd5b60015f8373ffffffffffffffffffffffffffffffffffffffff1673ffffffffffffffffffffffffffffffffffffffff1681526020019081526020015f206040518060600160405290815f82015f9054906101000a900460ff161515151581526020015f820160019054906101000a900460ff161515151581526020016001820154815250509050919050565b611028611333565b6003600581111561103c5761103b61199c565b5b60035f9054906101000a900460ff16600581111561105d5761105c61199c565b5b1461109d576040517f08c379a000000000000000000000000000000000000000000000000000000000815260040161109490612281565b60405180910390fd5b600460035f6101000a81548160ff021916908360058111156110c2576110c161199c565b5b02179055507f0a97a4ee45751e2abf3e4fc8946939630b11b371ea8ae39ccdc3056e98f5cc3f600460035f9054906101000a900460ff16604051611107929190611d36565b60405180910390a1565b611119611333565b5f73ffffffffffffffffffffffffffffffffffffffff168173ffffffffffffffffffffffffffffffffffffffff1603611189575f6040517f1e4fbdf70000000000000000000000000000000000000000000000000000000081526004016111809190611861565b60405180910390fd5b611192816113ba565b50565b61119d611333565b5f8060058111156111b1576111b061199c565b5b60035f9054906101000a900460ff1660058111156111d2576111d161199c565b5b14611212576040517f08c379a000000000000000000000000000000000000000000000000000000000815260040161120990611a49565b60405180910390fd5b60405180606001604052806001151581526020015f151581526020015f81525060015f8473ffffffffffffffffffffffffffffffffffffffff1673ffffffffffffffffffffffffffffffffffffffff1681526020019081526020015f205f820151815f015f6101000a81548160ff0219169083151502179055506020820151815f0160016101000a81548160ff021916908315150217905550604082015181600101559050507fb6be2187d059cc2a55fe29e0e503b566e1e0f8c8780096e185429350acffd3dd826040516112e79190611861565b60405180910390a15050565b6112fb611333565b5f60035f6101000a81548160ff0219169083600581111561131f5761131e61199c565b5b021790555060025f61133191906114bd565b565b61133b61147b565b73ffffffffffffffffffffffffffffffffffffffff16611359610a85565b73ffffffffffffffffffffffffffffffffffffffff16146113b85761137c61147b565b6040517f118cdaa70000000000000000000000000000000000000000000000000000000081526004016113af9190611861565b60405180910390fd5b565b5f805f9054906101000a900473ffffffffffffffffffffffffffffffffffffffff169050815f806101000a81548173ffffffffffffffffffffffffffffffffffffffff021916908373ffffffffffffffffffffffffffffffffffffffff1602179055508173ffffffffffffffffffffffffffffffffffffffff168173ffffffffffffffffffffffffffffffffffffffff167f8be0079c531659141344cd1fd0a4f28419497f9722a3daafe3b4186f6b6457e060405160405180910390a35050565b5f33905090565b6040518060400160405280606081526020015f81525090565b60405180606001604052805f151581526020015f151581526020015f81525090565b5080545f8255600202905f5260205f20908101906114db91906114de565b50565b5b80821115611506575f8082015f6114f6919061150a565b600182015f9055506002016114df565b5090565b50805461151690611db7565b5f825580601f106115275750611544565b601f0160209004905f5260205f20908101906115439190611547565b5b50565b5b8082111561155e575f815f905550600101611548565b5090565b5f80fd5b5f80fd5b5f819050919050565b61157c8161156a565b8114611586575f80fd5b50565b5f8135905061159781611573565b92915050565b5f602082840312156115b2576115b1611562565b5b5f6115bf84828501611589565b91505092915050565b5f80fd5b5f80fd5b5f80fd5b5f8083601f8401126115e9576115e86115c8565b5b8235905067ffffffffffffffff811115611606576116056115cc565b5b602083019150836001820283011115611622576116216115d0565b5b9250929050565b5f806020838503121561163f5761163e611562565b5b5f83013567ffffffffffffffff81111561165c5761165b611566565b5b611668858286016115d4565b92509250509250929050565b5f81519050919050565b5f82825260208201905092915050565b5f819050602082019050919050565b5f81519050919050565b5f82825260208201905092915050565b5f5b838110156116d45780820151818401526020810190506116b9565b5f8484015250505050565b5f601f19601f8301169050919050565b5f6116f98261169d565b61170381856116a7565b93506117138185602086016116b7565b61171c816116df565b840191505092915050565b6117308161156a565b82525050565b5f604083015f8301518482035f86015261175082826116ef565b91505060208301516117656020860182611727565b508091505092915050565b5f61177b8383611736565b905092915050565b5f602082019050919050565b5f61179982611674565b6117a3818561167e565b9350836020820285016117b58561168e565b805f5b858110156117f057848403895281516117d18582611770565b94506117dc83611783565b925060208a019950506001810190506117b8565b50829750879550505050505092915050565b5f6020820190508181035f83015261181a818461178f565b905092915050565b5f73ffffffffffffffffffffffffffffffffffffffff82169050919050565b5f61184b82611822565b9050919050565b61185b81611841565b82525050565b5f6020820190506118745f830184611852565b92915050565b5f604083015f8301518482035f86015261189482826116ef565b91505060208301516118a96020860182611727565b508091505092915050565b5f6020820190508181035f8301526118cc818461187a565b905092915050565b6118dd81611841565b81146118e7575f80fd5b50565b5f813590506118f8816118d4565b92915050565b5f6020828403121561191357611912611562565b5b5f611920848285016118ea565b91505092915050565b5f8115159050919050565b61193d81611929565b82525050565b606082015f8201516119575f850182611934565b50602082015161196a6020850182611934565b50604082015161197d6040850182611727565b50505050565b5f6060820190506119965f830184611943565b92915050565b7f4e487b71000000000000000000000000000000000000000000000000000000005f52602160045260245ffd5b5f82825260208201905092915050565b7f596f752063616e277420646f207468697320616374696f6e2c207761697420745f8201527f6865207068617365000000000000000000000000000000000000000000000000602082015250565b5f611a336028836119c9565b9150611a3e826119d9565b604082019050919050565b5f6020820190508181035f830152611a6081611a27565b9050919050565b7f596f757220617265206e6f74207265676973746572656420696e206c697374005f82015250565b5f611a9b601f836119c9565b9150611aa682611a67565b602082019050919050565b5f6020820190508181035f830152611ac881611a8f565b9050919050565b7f596f75206861766520616c726561647920766f746564000000000000000000005f82015250565b5f611b036016836119c9565b9150611b0e82611acf565b602082019050919050565b5f6020820190508181035f830152611b3081611af7565b9050919050565b7f546869732070726f706f73616c20646f65736e277420657869737400000000005f82015250565b5f611b6b601b836119c9565b9150611b7682611b37565b602082019050919050565b5f6020820190508181035f830152611b9881611b5f565b9050919050565b7f4e487b71000000000000000000000000000000000000000000000000000000005f52603260045260245ffd5b7f4e487b71000000000000000000000000000000000000000000000000000000005f52601160045260245ffd5b5f611c038261156a565b9150611c0e8361156a565b9250828201905080821115611c2657611c25611bcc565b5b92915050565b611c358161156a565b82525050565b5f604082019050611c4e5f830185611852565b611c5b6020830184611c2c565b9392505050565b7f4974206d757374206265207265676973746572696e6720766f746572206265665f8201527f6f72650000000000000000000000000000000000000000000000000000000000602082015250565b5f611cbc6023836119c9565b9150611cc782611c62565b604082019050919050565b5f6020820190508181035f830152611ce981611cb0565b9050919050565b60068110611d0157611d0061199c565b5b50565b5f819050611d1182611cf0565b919050565b5f611d2082611d04565b9050919050565b611d3081611d16565b82525050565b5f604082019050611d495f830185611d27565b611d566020830184611d27565b9392505050565b7f4e487b71000000000000000000000000000000000000000000000000000000005f52604160045260245ffd5b7f4e487b71000000000000000000000000000000000000000000000000000000005f52602260045260245ffd5b5f6002820490506001821680611dce57607f821691505b602082108103611de157611de0611d8a565b5b50919050565b5f819050815f5260205f209050919050565b5f6020601f8301049050919050565b5f82821b905092915050565b5f60088302611e437fffffffffffffffffffffffffffffffffffffffffffffffffffffffffffffffff82611e08565b611e4d8683611e08565b95508019841693508086168417925050509392505050565b5f819050919050565b5f611e88611e83611e7e8461156a565b611e65565b61156a565b9050919050565b5f819050919050565b611ea183611e6e565b611eb5611ead82611e8f565b848454611e14565b825550505050565b5f90565b611ec9611ebd565b611ed4818484611e98565b505050565b5b81811015611ef757611eec5f82611ec1565b600181019050611eda565b5050565b601f821115611f3c57611f0d81611de7565b611f1684611df9565b81016020851015611f25578190505b611f39611f3185611df9565b830182611ed9565b50505b505050565b5f82821c905092915050565b5f611f5c5f1984600802611f41565b1980831691505092915050565b5f611f748383611f4d565b9150826002028217905092915050565b611f8d8261169d565b67ffffffffffffffff811115611fa657611fa5611d5d565b5b611fb08254611db7565b611fbb828285611efb565b5f60209050601f831160018114611fec575f8415611fda578287015190505b611fe48582611f69565b86555061204b565b601f198416611ffa86611de7565b5f5b8281101561202157848901518255600182019150602085019450602081019050611ffc565b8683101561203e578489015161203a601f891682611f4d565b8355505b6001600288020188555050505b505050505050565b5f6020820190506120665f830184611c2c565b92915050565b7f4974206d7573742062652074686520656e64206f662070726f706f73616c20625f8201527f65666f7265000000000000000000000000000000000000000000000000000000602082015250565b5f6120c66025836119c9565b91506120d18261206c565b604082019050919050565b5f6020820190508181035f8301526120f3816120ba565b9050919050565b7f4974206d7573742070726f706f73616c2073657373696f6e00000000000000005f82015250565b5f61212e6018836119c9565b9150612139826120fa565b602082019050919050565b5f6020820190508181035f83015261215b81612122565b9050919050565b7f4974206d7573742062652074686520656e64206f66207468652073657373696f5f8201527f6e00000000000000000000000000000000000000000000000000000000000000602082015250565b5f6121bc6021836119c9565b91506121c782612162565b604082019050919050565b5f6020820190508181035f8301526121e9816121b0565b9050919050565b5f6121fa8261156a565b91507fffffffffffffffffffffffffffffffffffffffffffffffffffffffffffffffff820361222c5761222b611bcc565b5b600182019050919050565b7f4974206d75737420626520766f74696e672073657373696f6e000000000000005f82015250565b5f61226b6019836119c9565b915061227682612237565b602082019050919050565b5f6020820190508181035f8301526122988161225f565b905091905056fea2646970667358221220e00fd598061d8d6e201535db17072bde95ae42ad1f501fd67505b9371f664e9c64736f6c63430008140033",
					"opcodes": "PUSH1 0x80 PUSH1 0x40 MSTORE CALLVALUE DUP1 ISZERO PUSH3 0x10 JUMPI PUSH0 DUP1 REVERT JUMPDEST POP CALLER PUSH0 PUSH20 0xFFFFFFFFFFFFFFFFFFFFFFFFFFFFFFFFFFFFFFFF AND DUP2 PUSH20 0xFFFFFFFFFFFFFFFFFFFFFFFFFFFFFFFFFFFFFFFF AND SUB PUSH3 0x85 JUMPI PUSH0 PUSH1 0x40 MLOAD PUSH32 0x1E4FBDF700000000000000000000000000000000000000000000000000000000 DUP2 MSTORE PUSH1 0x4 ADD PUSH3 0x7C SWAP2 SWAP1 PUSH3 0x1A1 JUMP JUMPDEST PUSH1 0x40 MLOAD DUP1 SWAP2 SUB SWAP1 REVERT JUMPDEST PUSH3 0x96 DUP2 PUSH3 0x9D PUSH1 0x20 SHL PUSH1 0x20 SHR JUMP JUMPDEST POP PUSH3 0x1BC JUMP JUMPDEST PUSH0 DUP1 PUSH0 SWAP1 SLOAD SWAP1 PUSH2 0x100 EXP SWAP1 DIV PUSH20 0xFFFFFFFFFFFFFFFFFFFFFFFFFFFFFFFFFFFFFFFF AND SWAP1 POP DUP2 PUSH0 DUP1 PUSH2 0x100 EXP DUP2 SLOAD DUP2 PUSH20 0xFFFFFFFFFFFFFFFFFFFFFFFFFFFFFFFFFFFFFFFF MUL NOT AND SWAP1 DUP4 PUSH20 0xFFFFFFFFFFFFFFFFFFFFFFFFFFFFFFFFFFFFFFFF AND MUL OR SWAP1 SSTORE POP DUP2 PUSH20 0xFFFFFFFFFFFFFFFFFFFFFFFFFFFFFFFFFFFFFFFF AND DUP2 PUSH20 0xFFFFFFFFFFFFFFFFFFFFFFFFFFFFFFFFFFFFFFFF AND PUSH32 0x8BE0079C531659141344CD1FD0A4F28419497F9722A3DAAFE3B4186F6B6457E0 PUSH1 0x40 MLOAD PUSH1 0x40 MLOAD DUP1 SWAP2 SUB SWAP1 LOG3 POP POP JUMP JUMPDEST PUSH0 PUSH20 0xFFFFFFFFFFFFFFFFFFFFFFFFFFFFFFFFFFFFFFFF DUP3 AND SWAP1 POP SWAP2 SWAP1 POP JUMP JUMPDEST PUSH0 PUSH3 0x189 DUP3 PUSH3 0x15E JUMP JUMPDEST SWAP1 POP SWAP2 SWAP1 POP JUMP JUMPDEST PUSH3 0x19B DUP2 PUSH3 0x17D JUMP JUMPDEST DUP3 MSTORE POP POP JUMP JUMPDEST PUSH0 PUSH1 0x20 DUP3 ADD SWAP1 POP PUSH3 0x1B6 PUSH0 DUP4 ADD DUP5 PUSH3 0x190 JUMP JUMPDEST SWAP3 SWAP2 POP POP JUMP JUMPDEST PUSH2 0x22D5 DUP1 PUSH3 0x1CA PUSH0 CODECOPY PUSH0 RETURN INVALID PUSH1 0x80 PUSH1 0x40 MSTORE CALLVALUE DUP1 ISZERO PUSH2 0xF JUMPI PUSH0 DUP1 REVERT JUMPDEST POP PUSH1 0x4 CALLDATASIZE LT PUSH2 0xF3 JUMPI PUSH0 CALLDATALOAD PUSH1 0xE0 SHR DUP1 PUSH4 0x8E7EA5B2 GT PUSH2 0x95 JUMPI DUP1 PUSH4 0xB9223946 GT PUSH2 0x64 JUMPI DUP1 PUSH4 0xB9223946 EQ PUSH2 0x1EB JUMPI DUP1 PUSH4 0xF2FDE38B EQ PUSH2 0x1F5 JUMPI DUP1 PUSH4 0xF4AB9ADF EQ PUSH2 0x211 JUMPI DUP1 PUSH4 0xF8A3CE82 EQ PUSH2 0x22D JUMPI PUSH2 0xF3 JUMP JUMPDEST DUP1 PUSH4 0x8E7EA5B2 EQ PUSH2 0x189 JUMPI DUP1 PUSH4 0x98F6560B EQ PUSH2 0x1A7 JUMPI DUP1 PUSH4 0x9C6A46C4 EQ PUSH2 0x1B1 JUMPI DUP1 PUSH4 0xA587F077 EQ PUSH2 0x1BB JUMPI PUSH2 0xF3 JUMP JUMPDEST DUP1 PUSH4 0x4C0A6AF0 GT PUSH2 0xD1 JUMPI DUP1 PUSH4 0x4C0A6AF0 EQ PUSH2 0x139 JUMPI DUP1 PUSH4 0x62564C48 EQ PUSH2 0x143 JUMPI DUP1 PUSH4 0x715018A6 EQ PUSH2 0x161 JUMPI DUP1 PUSH4 0x8DA5CB5B EQ PUSH2 0x16B JUMPI PUSH2 0xF3 JUMP JUMPDEST DUP1 PUSH4 0x121B93F EQ PUSH2 0xF7 JUMPI DUP1 PUSH4 0x274DA81F EQ PUSH2 0x113 JUMPI DUP1 PUSH4 0x2FDAE3C5 EQ PUSH2 0x11D JUMPI JUMPDEST PUSH0 DUP1 REVERT JUMPDEST PUSH2 0x111 PUSH1 0x4 DUP1 CALLDATASIZE SUB DUP2 ADD SWAP1 PUSH2 0x10C SWAP2 SWAP1 PUSH2 0x159D JUMP JUMPDEST PUSH2 0x237 JUMP JUMPDEST STOP JUMPDEST PUSH2 0x11B PUSH2 0x531 JUMP JUMPDEST STOP JUMPDEST PUSH2 0x137 PUSH1 0x4 DUP1 CALLDATASIZE SUB DUP2 ADD SWAP1 PUSH2 0x132 SWAP2 SWAP1 PUSH2 0x1629 JUMP JUMPDEST PUSH2 0x620 JUMP JUMPDEST STOP JUMPDEST PUSH2 0x141 PUSH2 0x802 JUMP JUMPDEST STOP JUMPDEST PUSH2 0x14B PUSH2 0x8F2 JUMP JUMPDEST PUSH1 0x40 MLOAD PUSH2 0x158 SWAP2 SWAP1 PUSH2 0x1802 JUMP JUMPDEST PUSH1 0x40 MLOAD DUP1 SWAP2 SUB SWAP1 RETURN JUMPDEST PUSH2 0x169 PUSH2 0xA72 JUMP JUMPDEST STOP JUMPDEST PUSH2 0x173 PUSH2 0xA85 JUMP JUMPDEST PUSH1 0x40 MLOAD PUSH2 0x180 SWAP2 SWAP1 PUSH2 0x1861 JUMP JUMPDEST PUSH1 0x40 MLOAD DUP1 SWAP2 SUB SWAP1 RETURN JUMPDEST PUSH2 0x191 PUSH2 0xAAC JUMP JUMPDEST PUSH1 0x40 MLOAD PUSH2 0x19E SWAP2 SWAP1 PUSH2 0x18B4 JUMP JUMPDEST PUSH1 0x40 MLOAD DUP1 SWAP2 SUB SWAP1 RETURN JUMPDEST PUSH2 0x1AF PUSH2 0xBF6 JUMP JUMPDEST STOP JUMPDEST PUSH2 0x1B9 PUSH2 0xCE7 JUMP JUMPDEST STOP JUMPDEST PUSH2 0x1D5 PUSH1 0x4 DUP1 CALLDATASIZE SUB DUP2 ADD SWAP1 PUSH2 0x1D0 SWAP2 SWAP1 PUSH2 0x18FE JUMP JUMPDEST PUSH2 0xF01 JUMP JUMPDEST PUSH1 0x40 MLOAD PUSH2 0x1E2 SWAP2 SWAP1 PUSH2 0x1983 JUMP JUMPDEST PUSH1 0x40 MLOAD DUP1 SWAP2 SUB SWAP1 RETURN JUMPDEST PUSH2 0x1F3 PUSH2 0x1020 JUMP JUMPDEST STOP JUMPDEST PUSH2 0x20F PUSH1 0x4 DUP1 CALLDATASIZE SUB DUP2 ADD SWAP1 PUSH2 0x20A SWAP2 SWAP1 PUSH2 0x18FE JUMP JUMPDEST PUSH2 0x1111 JUMP JUMPDEST STOP JUMPDEST PUSH2 0x22B PUSH1 0x4 DUP1 CALLDATASIZE SUB DUP2 ADD SWAP1 PUSH2 0x226 SWAP2 SWAP1 PUSH2 0x18FE JUMP JUMPDEST PUSH2 0x1195 JUMP JUMPDEST STOP JUMPDEST PUSH2 0x235 PUSH2 0x12F3 JUMP JUMPDEST STOP JUMPDEST PUSH1 0x3 DUP1 PUSH1 0x5 DUP2 GT ISZERO PUSH2 0x24C JUMPI PUSH2 0x24B PUSH2 0x199C JUMP JUMPDEST JUMPDEST PUSH1 0x3 PUSH0 SWAP1 SLOAD SWAP1 PUSH2 0x100 EXP SWAP1 DIV PUSH1 0xFF AND PUSH1 0x5 DUP2 GT ISZERO PUSH2 0x26D JUMPI PUSH2 0x26C PUSH2 0x199C JUMP JUMPDEST JUMPDEST EQ PUSH2 0x2AD JUMPI PUSH1 0x40 MLOAD PUSH32 0x8C379A000000000000000000000000000000000000000000000000000000000 DUP2 MSTORE PUSH1 0x4 ADD PUSH2 0x2A4 SWAP1 PUSH2 0x1A49 JUMP JUMPDEST PUSH1 0x40 MLOAD DUP1 SWAP2 SUB SWAP1 REVERT JUMPDEST PUSH1 0x1 PUSH0 CALLER PUSH20 0xFFFFFFFFFFFFFFFFFFFFFFFFFFFFFFFFFFFFFFFF AND PUSH20 0xFFFFFFFFFFFFFFFFFFFFFFFFFFFFFFFFFFFFFFFF AND DUP2 MSTORE PUSH1 0x20 ADD SWAP1 DUP2 MSTORE PUSH1 0x20 ADD PUSH0 KECCAK256 PUSH0 ADD PUSH0 SWAP1 SLOAD SWAP1 PUSH2 0x100 EXP SWAP1 DIV PUSH1 0xFF AND PUSH2 0x338 JUMPI PUSH1 0x40 MLOAD PUSH32 0x8C379A000000000000000000000000000000000000000000000000000000000 DUP2 MSTORE PUSH1 0x4 ADD PUSH2 0x32F SWAP1 PUSH2 0x1AB1 JUMP JUMPDEST PUSH1 0x40 MLOAD DUP1 SWAP2 SUB SWAP1 REVERT JUMPDEST PUSH1 0x1 PUSH0 CALLER PUSH20 0xFFFFFFFFFFFFFFFFFFFFFFFFFFFFFFFFFFFFFFFF AND PUSH20 0xFFFFFFFFFFFFFFFFFFFFFFFFFFFFFFFFFFFFFFFF AND DUP2 MSTORE PUSH1 0x20 ADD SWAP1 DUP2 MSTORE PUSH1 0x20 ADD PUSH0 KECCAK256 PUSH0 ADD PUSH1 0x1 SWAP1 SLOAD SWAP1 PUSH2 0x100 EXP SWAP1 DIV PUSH1 0xFF AND ISZERO PUSH2 0x3C5 JUMPI PUSH1 0x40 MLOAD PUSH32 0x8C379A000000000000000000000000000000000000000000000000000000000 DUP2 MSTORE PUSH1 0x4 ADD PUSH2 0x3BC SWAP1 PUSH2 0x1B19 JUMP JUMPDEST PUSH1 0x40 MLOAD DUP1 SWAP2 SUB SWAP1 REVERT JUMPDEST PUSH0 PUSH1 0x2 DUP1 SLOAD SWAP1 POP EQ ISZERO DUP1 ISZERO PUSH2 0x3DF JUMPI POP PUSH1 0x2 DUP1 SLOAD SWAP1 POP DUP3 GT ISZERO JUMPDEST PUSH2 0x41E JUMPI PUSH1 0x40 MLOAD PUSH32 0x8C379A000000000000000000000000000000000000000000000000000000000 DUP2 MSTORE PUSH1 0x4 ADD PUSH2 0x415 SWAP1 PUSH2 0x1B81 JUMP JUMPDEST PUSH1 0x40 MLOAD DUP1 SWAP2 SUB SWAP1 REVERT JUMPDEST PUSH1 0x1 DUP1 PUSH0 CALLER PUSH20 0xFFFFFFFFFFFFFFFFFFFFFFFFFFFFFFFFFFFFFFFF AND PUSH20 0xFFFFFFFFFFFFFFFFFFFFFFFFFFFFFFFFFFFFFFFF AND DUP2 MSTORE PUSH1 0x20 ADD SWAP1 DUP2 MSTORE PUSH1 0x20 ADD PUSH0 KECCAK256 PUSH0 ADD PUSH1 0x1 PUSH2 0x100 EXP DUP2 SLOAD DUP2 PUSH1 0xFF MUL NOT AND SWAP1 DUP4 ISZERO ISZERO MUL OR SWAP1 SSTORE POP DUP2 PUSH1 0x1 PUSH0 CALLER PUSH20 0xFFFFFFFFFFFFFFFFFFFFFFFFFFFFFFFFFFFFFFFF AND PUSH20 0xFFFFFFFFFFFFFFFFFFFFFFFFFFFFFFFFFFFFFFFF AND DUP2 MSTORE PUSH1 0x20 ADD SWAP1 DUP2 MSTORE PUSH1 0x20 ADD PUSH0 KECCAK256 PUSH1 0x1 ADD DUP2 SWAP1 SSTORE POP PUSH1 0x1 PUSH1 0x2 DUP4 DUP2 SLOAD DUP2 LT PUSH2 0x4D0 JUMPI PUSH2 0x4CF PUSH2 0x1B9F JUMP JUMPDEST JUMPDEST SWAP1 PUSH0 MSTORE PUSH1 0x20 PUSH0 KECCAK256 SWAP1 PUSH1 0x2 MUL ADD PUSH1 0x1 ADD PUSH0 DUP3 DUP3 SLOAD PUSH2 0x4ED SWAP2 SWAP1 PUSH2 0x1BF9 JUMP JUMPDEST SWAP3 POP POP DUP2 SWAP1 SSTORE POP PUSH32 0x4D99B957A2BC29A30EBD96A7BE8E68FE50A3C701DB28A91436490B7D53870CA4 CALLER DUP4 PUSH1 0x40 MLOAD PUSH2 0x525 SWAP3 SWAP2 SWAP1 PUSH2 0x1C3B JUMP JUMPDEST PUSH1 0x40 MLOAD DUP1 SWAP2 SUB SWAP1 LOG1 POP POP JUMP JUMPDEST PUSH2 0x539 PUSH2 0x1333 JUMP JUMPDEST PUSH0 PUSH1 0x5 DUP2 GT ISZERO PUSH2 0x54C JUMPI PUSH2 0x54B PUSH2 0x199C JUMP JUMPDEST JUMPDEST PUSH1 0x3 PUSH0 SWAP1 SLOAD SWAP1 PUSH2 0x100 EXP SWAP1 DIV PUSH1 0xFF AND PUSH1 0x5 DUP2 GT ISZERO PUSH2 0x56D JUMPI PUSH2 0x56C PUSH2 0x199C JUMP JUMPDEST JUMPDEST EQ PUSH2 0x5AD JUMPI PUSH1 0x40 MLOAD PUSH32 0x8C379A000000000000000000000000000000000000000000000000000000000 DUP2 MSTORE PUSH1 0x4 ADD PUSH2 0x5A4 SWAP1 PUSH2 0x1CD2 JUMP JUMPDEST PUSH1 0x40 MLOAD DUP1 SWAP2 SUB SWAP1 REVERT JUMPDEST PUSH1 0x1 PUSH1 0x3 PUSH0 PUSH2 0x100 EXP DUP2 SLOAD DUP2 PUSH1 0xFF MUL NOT AND SWAP1 DUP4 PUSH1 0x5 DUP2 GT ISZERO PUSH2 0x5D2 JUMPI PUSH2 0x5D1 PUSH2 0x199C JUMP JUMPDEST JUMPDEST MUL OR SWAP1 SSTORE POP PUSH32 0xA97A4EE45751E2ABF3E4FC8946939630B11B371EA8AE39CCDC3056E98F5CC3F PUSH0 PUSH1 0x3 PUSH0 SWAP1 SLOAD SWAP1 PUSH2 0x100 EXP SWAP1 DIV PUSH1 0xFF AND PUSH1 0x40 MLOAD PUSH2 0x616 SWAP3 SWAP2 SWAP1 PUSH2 0x1D36 JUMP JUMPDEST PUSH1 0x40 MLOAD DUP1 SWAP2 SUB SWAP1 LOG1 JUMP JUMPDEST PUSH1 0x1 DUP1 PUSH1 0x5 DUP2 GT ISZERO PUSH2 0x635 JUMPI PUSH2 0x634 PUSH2 0x199C JUMP JUMPDEST JUMPDEST PUSH1 0x3 PUSH0 SWAP1 SLOAD SWAP1 PUSH2 0x100 EXP SWAP1 DIV PUSH1 0xFF AND PUSH1 0x5 DUP2 GT ISZERO PUSH2 0x656 JUMPI PUSH2 0x655 PUSH2 0x199C JUMP JUMPDEST JUMPDEST EQ PUSH2 0x696 JUMPI PUSH1 0x40 MLOAD PUSH32 0x8C379A000000000000000000000000000000000000000000000000000000000 DUP2 MSTORE PUSH1 0x4 ADD PUSH2 0x68D SWAP1 PUSH2 0x1A49 JUMP JUMPDEST PUSH1 0x40 MLOAD DUP1 SWAP2 SUB SWAP1 REVERT JUMPDEST PUSH1 0x1 PUSH0 CALLER PUSH20 0xFFFFFFFFFFFFFFFFFFFFFFFFFFFFFFFFFFFFFFFF AND PUSH20 0xFFFFFFFFFFFFFFFFFFFFFFFFFFFFFFFFFFFFFFFF AND DUP2 MSTORE PUSH1 0x20 ADD SWAP1 DUP2 MSTORE PUSH1 0x20 ADD PUSH0 KECCAK256 PUSH0 ADD PUSH0 SWAP1 SLOAD SWAP1 PUSH2 0x100 EXP SWAP1 DIV PUSH1 0xFF AND PUSH2 0x721 JUMPI PUSH1 0x40 MLOAD PUSH32 0x8C379A000000000000000000000000000000000000000000000000000000000 DUP2 MSTORE PUSH1 0x4 ADD PUSH2 0x718 SWAP1 PUSH2 0x1AB1 JUMP JUMPDEST PUSH1 0x40 MLOAD DUP1 SWAP2 SUB SWAP1 REVERT JUMPDEST PUSH1 0x2 PUSH1 0x40 MLOAD DUP1 PUSH1 0x40 ADD PUSH1 0x40 MSTORE DUP1 DUP6 DUP6 DUP1 DUP1 PUSH1 0x1F ADD PUSH1 0x20 DUP1 SWAP2 DIV MUL PUSH1 0x20 ADD PUSH1 0x40 MLOAD SWAP1 DUP2 ADD PUSH1 0x40 MSTORE DUP1 SWAP4 SWAP3 SWAP2 SWAP1 DUP2 DUP2 MSTORE PUSH1 0x20 ADD DUP4 DUP4 DUP1 DUP3 DUP5 CALLDATACOPY PUSH0 DUP2 DUP5 ADD MSTORE PUSH1 0x1F NOT PUSH1 0x1F DUP3 ADD AND SWAP1 POP DUP1 DUP4 ADD SWAP3 POP POP POP POP POP POP POP DUP2 MSTORE PUSH1 0x20 ADD PUSH0 DUP2 MSTORE POP SWAP1 DUP1 PUSH1 0x1 DUP2 SLOAD ADD DUP1 DUP3 SSTORE DUP1 SWAP2 POP POP PUSH1 0x1 SWAP1 SUB SWAP1 PUSH0 MSTORE PUSH1 0x20 PUSH0 KECCAK256 SWAP1 PUSH1 0x2 MUL ADD PUSH0 SWAP1 SWAP2 SWAP1 SWAP2 SWAP1 SWAP2 POP PUSH0 DUP3 ADD MLOAD DUP2 PUSH0 ADD SWAP1 DUP2 PUSH2 0x7B4 SWAP2 SWAP1 PUSH2 0x1F84 JUMP JUMPDEST POP PUSH1 0x20 DUP3 ADD MLOAD DUP2 PUSH1 0x1 ADD SSTORE POP POP PUSH32 0x92E393E9B54E2F801D3EA4BEB0C5E71A21CC34A5D34B77D0FB8A3AA1650DC18F PUSH1 0x2 DUP1 SLOAD SWAP1 POP PUSH1 0x40 MLOAD PUSH2 0x7F5 SWAP2 SWAP1 PUSH2 0x2053 JUMP JUMPDEST PUSH1 0x40 MLOAD DUP1 SWAP2 SUB SWAP1 LOG1 POP POP POP JUMP JUMPDEST PUSH2 0x80A PUSH2 0x1333 JUMP JUMPDEST PUSH1 0x2 PUSH1 0x5 DUP2 GT ISZERO PUSH2 0x81E JUMPI PUSH2 0x81D PUSH2 0x199C JUMP JUMPDEST JUMPDEST PUSH1 0x3 PUSH0 SWAP1 SLOAD SWAP1 PUSH2 0x100 EXP SWAP1 DIV PUSH1 0xFF AND PUSH1 0x5 DUP2 GT ISZERO PUSH2 0x83F JUMPI PUSH2 0x83E PUSH2 0x199C JUMP JUMPDEST JUMPDEST EQ PUSH2 0x87F JUMPI PUSH1 0x40 MLOAD PUSH32 0x8C379A000000000000000000000000000000000000000000000000000000000 DUP2 MSTORE PUSH1 0x4 ADD PUSH2 0x876 SWAP1 PUSH2 0x20DC JUMP JUMPDEST PUSH1 0x40 MLOAD DUP1 SWAP2 SUB SWAP1 REVERT JUMPDEST PUSH1 0x3 DUP1 PUSH0 PUSH2 0x100 EXP DUP2 SLOAD DUP2 PUSH1 0xFF MUL NOT AND SWAP1 DUP4 PUSH1 0x5 DUP2 GT ISZERO PUSH2 0x8A3 JUMPI PUSH2 0x8A2 PUSH2 0x199C JUMP JUMPDEST JUMPDEST MUL OR SWAP1 SSTORE POP PUSH32 0xA97A4EE45751E2ABF3E4FC8946939630B11B371EA8AE39CCDC3056E98F5CC3F PUSH1 0x2 PUSH1 0x3 PUSH0 SWAP1 SLOAD SWAP1 PUSH2 0x100 EXP SWAP1 DIV PUSH1 0xFF AND PUSH1 0x40 MLOAD PUSH2 0x8E8 SWAP3 SWAP2 SWAP1 PUSH2 0x1D36 JUMP JUMPDEST PUSH1 0x40 MLOAD DUP1 SWAP2 SUB SWAP1 LOG1 JUMP JUMPDEST PUSH1 0x60 PUSH1 0x1 PUSH0 CALLER PUSH20 0xFFFFFFFFFFFFFFFFFFFFFFFFFFFFFFFFFFFFFFFF AND PUSH20 0xFFFFFFFFFFFFFFFFFFFFFFFFFFFFFFFFFFFFFFFF AND DUP2 MSTORE PUSH1 0x20 ADD SWAP1 DUP2 MSTORE PUSH1 0x20 ADD PUSH0 KECCAK256 PUSH0 ADD PUSH0 SWAP1 SLOAD SWAP1 PUSH2 0x100 EXP SWAP1 DIV PUSH1 0xFF AND PUSH2 0x97F JUMPI PUSH1 0x40 MLOAD PUSH32 0x8C379A000000000000000000000000000000000000000000000000000000000 DUP2 MSTORE PUSH1 0x4 ADD PUSH2 0x976 SWAP1 PUSH2 0x1AB1 JUMP JUMPDEST PUSH1 0x40 MLOAD DUP1 SWAP2 SUB SWAP1 REVERT JUMPDEST PUSH1 0x2 DUP1 SLOAD DUP1 PUSH1 0x20 MUL PUSH1 0x20 ADD PUSH1 0x40 MLOAD SWAP1 DUP2 ADD PUSH1 0x40 MSTORE DUP1 SWAP3 SWAP2 SWAP1 DUP2 DUP2 MSTORE PUSH1 0x20 ADD PUSH0 SWAP1 JUMPDEST DUP3 DUP3 LT ISZERO PUSH2 0xA69 JUMPI DUP4 DUP3 SWAP1 PUSH0 MSTORE PUSH1 0x20 PUSH0 KECCAK256 SWAP1 PUSH1 0x2 MUL ADD PUSH1 0x40 MLOAD DUP1 PUSH1 0x40 ADD PUSH1 0x40 MSTORE SWAP1 DUP2 PUSH0 DUP3 ADD DUP1 SLOAD PUSH2 0x9D0 SWAP1 PUSH2 0x1DB7 JUMP JUMPDEST DUP1 PUSH1 0x1F ADD PUSH1 0x20 DUP1 SWAP2 DIV MUL PUSH1 0x20 ADD PUSH1 0x40 MLOAD SWAP1 DUP2 ADD PUSH1 0x40 MSTORE DUP1 SWAP3 SWAP2 SWAP1 DUP2 DUP2 MSTORE PUSH1 0x20 ADD DUP3 DUP1 SLOAD PUSH2 0x9FC SWAP1 PUSH2 0x1DB7 JUMP JUMPDEST DUP1 ISZERO PUSH2 0xA47 JUMPI DUP1 PUSH1 0x1F LT PUSH2 0xA1E JUMPI PUSH2 0x100 DUP1 DUP4 SLOAD DIV MUL DUP4 MSTORE SWAP2 PUSH1 0x20 ADD SWAP2 PUSH2 0xA47 JUMP JUMPDEST DUP3 ADD SWAP2 SWAP1 PUSH0 MSTORE PUSH1 0x20 PUSH0 KECCAK256 SWAP1 JUMPDEST DUP2 SLOAD DUP2 MSTORE SWAP1 PUSH1 0x1 ADD SWAP1 PUSH1 0x20 ADD DUP1 DUP4 GT PUSH2 0xA2A JUMPI DUP3 SWAP1 SUB PUSH1 0x1F AND DUP3 ADD SWAP2 JUMPDEST POP POP POP POP POP DUP2 MSTORE PUSH1 0x20 ADD PUSH1 0x1 DUP3 ADD SLOAD DUP2 MSTORE POP POP DUP2 MSTORE PUSH1 0x20 ADD SWAP1 PUSH1 0x1 ADD SWAP1 PUSH2 0x9A0 JUMP JUMPDEST POP POP POP POP SWAP1 POP SWAP1 JUMP JUMPDEST PUSH2 0xA7A PUSH2 0x1333 JUMP JUMPDEST PUSH2 0xA83 PUSH0 PUSH2 0x13BA JUMP JUMPDEST JUMP JUMPDEST PUSH0 DUP1 PUSH0 SWAP1 SLOAD SWAP1 PUSH2 0x100 EXP SWAP1 DIV PUSH20 0xFFFFFFFFFFFFFFFFFFFFFFFFFFFFFFFFFFFFFFFF AND SWAP1 POP SWAP1 JUMP JUMPDEST PUSH2 0xAB4 PUSH2 0x1482 JUMP JUMPDEST PUSH1 0x5 DUP1 PUSH1 0x5 DUP2 GT ISZERO PUSH2 0xAC9 JUMPI PUSH2 0xAC8 PUSH2 0x199C JUMP JUMPDEST JUMPDEST PUSH1 0x3 PUSH0 SWAP1 SLOAD SWAP1 PUSH2 0x100 EXP SWAP1 DIV PUSH1 0xFF AND PUSH1 0x5 DUP2 GT ISZERO PUSH2 0xAEA JUMPI PUSH2 0xAE9 PUSH2 0x199C JUMP JUMPDEST JUMPDEST EQ PUSH2 0xB2A JUMPI PUSH1 0x40 MLOAD PUSH32 0x8C379A000000000000000000000000000000000000000000000000000000000 DUP2 MSTORE PUSH1 0x4 ADD PUSH2 0xB21 SWAP1 PUSH2 0x1A49 JUMP JUMPDEST PUSH1 0x40 MLOAD DUP1 SWAP2 SUB SWAP1 REVERT JUMPDEST PUSH1 0x2 PUSH1 0x4 SLOAD DUP2 SLOAD DUP2 LT PUSH2 0xB40 JUMPI PUSH2 0xB3F PUSH2 0x1B9F JUMP JUMPDEST JUMPDEST SWAP1 PUSH0 MSTORE PUSH1 0x20 PUSH0 KECCAK256 SWAP1 PUSH1 0x2 MUL ADD PUSH1 0x40 MLOAD DUP1 PUSH1 0x40 ADD PUSH1 0x40 MSTORE SWAP1 DUP2 PUSH0 DUP3 ADD DUP1 SLOAD PUSH2 0xB66 SWAP1 PUSH2 0x1DB7 JUMP JUMPDEST DUP1 PUSH1 0x1F ADD PUSH1 0x20 DUP1 SWAP2 DIV MUL PUSH1 0x20 ADD PUSH1 0x40 MLOAD SWAP1 DUP2 ADD PUSH1 0x40 MSTORE DUP1 SWAP3 SWAP2 SWAP1 DUP2 DUP2 MSTORE PUSH1 0x20 ADD DUP3 DUP1 SLOAD PUSH2 0xB92 SWAP1 PUSH2 0x1DB7 JUMP JUMPDEST DUP1 ISZERO PUSH2 0xBDD JUMPI DUP1 PUSH1 0x1F LT PUSH2 0xBB4 JUMPI PUSH2 0x100 DUP1 DUP4 SLOAD DIV MUL DUP4 MSTORE SWAP2 PUSH1 0x20 ADD SWAP2 PUSH2 0xBDD JUMP JUMPDEST DUP3 ADD SWAP2 SWAP1 PUSH0 MSTORE PUSH1 0x20 PUSH0 KECCAK256 SWAP1 JUMPDEST DUP2 SLOAD DUP2 MSTORE SWAP1 PUSH1 0x1 ADD SWAP1 PUSH1 0x20 ADD DUP1 DUP4 GT PUSH2 0xBC0 JUMPI DUP3 SWAP1 SUB PUSH1 0x1F AND DUP3 ADD SWAP2 JUMPDEST POP POP POP POP POP DUP2 MSTORE PUSH1 0x20 ADD PUSH1 0x1 DUP3 ADD SLOAD DUP2 MSTORE POP POP SWAP2 POP POP SWAP1 JUMP JUMPDEST PUSH2 0xBFE PUSH2 0x1333 JUMP JUMPDEST PUSH1 0x1 PUSH1 0x5 DUP2 GT ISZERO PUSH2 0xC12 JUMPI PUSH2 0xC11 PUSH2 0x199C JUMP JUMPDEST JUMPDEST PUSH1 0x3 PUSH0 SWAP1 SLOAD SWAP1 PUSH2 0x100 EXP SWAP1 DIV PUSH1 0xFF AND PUSH1 0x5 DUP2 GT ISZERO PUSH2 0xC33 JUMPI PUSH2 0xC32 PUSH2 0x199C JUMP JUMPDEST JUMPDEST EQ PUSH2 0xC73 JUMPI PUSH1 0x40 MLOAD PUSH32 0x8C379A000000000000000000000000000000000000000000000000000000000 DUP2 MSTORE PUSH1 0x4 ADD PUSH2 0xC6A SWAP1 PUSH2 0x2144 JUMP JUMPDEST PUSH1 0x40 MLOAD DUP1 SWAP2 SUB SWAP1 REVERT JUMPDEST PUSH1 0x2 PUSH1 0x3 PUSH0 PUSH2 0x100 EXP DUP2 SLOAD DUP2 PUSH1 0xFF MUL NOT AND SWAP1 DUP4 PUSH1 0x5 DUP2 GT ISZERO PUSH2 0xC98 JUMPI PUSH2 0xC97 PUSH2 0x199C JUMP JUMPDEST JUMPDEST MUL OR SWAP1 SSTORE POP PUSH32 0xA97A4EE45751E2ABF3E4FC8946939630B11B371EA8AE39CCDC3056E98F5CC3F PUSH1 0x1 PUSH1 0x3 PUSH0 SWAP1 SLOAD SWAP1 PUSH2 0x100 EXP SWAP1 DIV PUSH1 0xFF AND PUSH1 0x40 MLOAD PUSH2 0xCDD SWAP3 SWAP2 SWAP1 PUSH2 0x1D36 JUMP JUMPDEST PUSH1 0x40 MLOAD DUP1 SWAP2 SUB SWAP1 LOG1 JUMP JUMPDEST PUSH2 0xCEF PUSH2 0x1333 JUMP JUMPDEST PUSH1 0x4 PUSH1 0x5 DUP2 GT ISZERO PUSH2 0xD03 JUMPI PUSH2 0xD02 PUSH2 0x199C JUMP JUMPDEST JUMPDEST PUSH1 0x3 PUSH0 SWAP1 SLOAD SWAP1 PUSH2 0x100 EXP SWAP1 DIV PUSH1 0xFF AND PUSH1 0x5 DUP2 GT ISZERO PUSH2 0xD24 JUMPI PUSH2 0xD23 PUSH2 0x199C JUMP JUMPDEST JUMPDEST EQ PUSH2 0xD64 JUMPI PUSH1 0x40 MLOAD PUSH32 0x8C379A000000000000000000000000000000000000000000000000000000000 DUP2 MSTORE PUSH1 0x4 ADD PUSH2 0xD5B SWAP1 PUSH2 0x21D2 JUMP JUMPDEST PUSH1 0x40 MLOAD DUP1 SWAP2 SUB SWAP1 REVERT JUMPDEST PUSH2 0xD6C PUSH2 0x1482 JUMP JUMPDEST PUSH0 JUMPDEST PUSH1 0x2 DUP1 SLOAD SWAP1 POP DUP2 LT ISZERO PUSH2 0xE8B JUMPI PUSH1 0x2 DUP2 DUP2 SLOAD DUP2 LT PUSH2 0xD8F JUMPI PUSH2 0xD8E PUSH2 0x1B9F JUMP JUMPDEST JUMPDEST SWAP1 PUSH0 MSTORE PUSH1 0x20 PUSH0 KECCAK256 SWAP1 PUSH1 0x2 MUL ADD PUSH1 0x1 ADD SLOAD DUP3 PUSH1 0x20 ADD MLOAD LT ISZERO PUSH2 0xE78 JUMPI PUSH1 0x2 DUP2 DUP2 SLOAD DUP2 LT PUSH2 0xDBE JUMPI PUSH2 0xDBD PUSH2 0x1B9F JUMP JUMPDEST JUMPDEST SWAP1 PUSH0 MSTORE PUSH1 0x20 PUSH0 KECCAK256 SWAP1 PUSH1 0x2 MUL ADD PUSH1 0x40 MLOAD DUP1 PUSH1 0x40 ADD PUSH1 0x40 MSTORE SWAP1 DUP2 PUSH0 DUP3 ADD DUP1 SLOAD PUSH2 0xDE4 SWAP1 PUSH2 0x1DB7 JUMP JUMPDEST DUP1 PUSH1 0x1F ADD PUSH1 0x20 DUP1 SWAP2 DIV MUL PUSH1 0x20 ADD PUSH1 0x40 MLOAD SWAP1 DUP2 ADD PUSH1 0x40 MSTORE DUP1 SWAP3 SWAP2 SWAP1 DUP2 DUP2 MSTORE PUSH1 0x20 ADD DUP3 DUP1 SLOAD PUSH2 0xE10 SWAP1 PUSH2 0x1DB7 JUMP JUMPDEST DUP1 ISZERO PUSH2 0xE5B JUMPI DUP1 PUSH1 0x1F LT PUSH2 0xE32 JUMPI PUSH2 0x100 DUP1 DUP4 SLOAD DIV MUL DUP4 MSTORE SWAP2 PUSH1 0x20 ADD SWAP2 PUSH2 0xE5B JUMP JUMPDEST DUP3 ADD SWAP2 SWAP1 PUSH0 MSTORE PUSH1 0x20 PUSH0 KECCAK256 SWAP1 JUMPDEST DUP2 SLOAD DUP2 MSTORE SWAP1 PUSH1 0x1 ADD SWAP1 PUSH1 0x20 ADD DUP1 DUP4 GT PUSH2 0xE3E JUMPI DUP3 SWAP1 SUB PUSH1 0x1F AND DUP3 ADD SWAP2 JUMPDEST POP POP POP POP POP DUP2 MSTORE PUSH1 0x20 ADD PUSH1 0x1 DUP3 ADD SLOAD DUP2 MSTORE POP POP SWAP2 POP DUP1 PUSH1 0x4 DUP2 SWAP1 SSTORE POP JUMPDEST DUP1 DUP1 PUSH2 0xE83 SWAP1 PUSH2 0x21F0 JUMP JUMPDEST SWAP2 POP POP PUSH2 0xD6E JUMP JUMPDEST POP PUSH1 0x5 PUSH1 0x3 PUSH0 PUSH2 0x100 EXP DUP2 SLOAD DUP2 PUSH1 0xFF MUL NOT AND SWAP1 DUP4 PUSH1 0x5 DUP2 GT ISZERO PUSH2 0xEB1 JUMPI PUSH2 0xEB0 PUSH2 0x199C JUMP JUMPDEST JUMPDEST MUL OR SWAP1 SSTORE POP PUSH32 0xA97A4EE45751E2ABF3E4FC8946939630B11B371EA8AE39CCDC3056E98F5CC3F PUSH1 0x4 PUSH1 0x3 PUSH0 SWAP1 SLOAD SWAP1 PUSH2 0x100 EXP SWAP1 DIV PUSH1 0xFF AND PUSH1 0x40 MLOAD PUSH2 0xEF6 SWAP3 SWAP2 SWAP1 PUSH2 0x1D36 JUMP JUMPDEST PUSH1 0x40 MLOAD DUP1 SWAP2 SUB SWAP1 LOG1 POP JUMP JUMPDEST PUSH2 0xF09 PUSH2 0x149B JUMP JUMPDEST PUSH1 0x1 PUSH0 CALLER PUSH20 0xFFFFFFFFFFFFFFFFFFFFFFFFFFFFFFFFFFFFFFFF AND PUSH20 0xFFFFFFFFFFFFFFFFFFFFFFFFFFFFFFFFFFFFFFFF AND DUP2 MSTORE PUSH1 0x20 ADD SWAP1 DUP2 MSTORE PUSH1 0x20 ADD PUSH0 KECCAK256 PUSH0 ADD PUSH0 SWAP1 SLOAD SWAP1 PUSH2 0x100 EXP SWAP1 DIV PUSH1 0xFF AND PUSH2 0xF94 JUMPI PUSH1 0x40 MLOAD PUSH32 0x8C379A000000000000000000000000000000000000000000000000000000000 DUP2 MSTORE PUSH1 0x4 ADD PUSH2 0xF8B SWAP1 PUSH2 0x1AB1 JUMP JUMPDEST PUSH1 0x40 MLOAD DUP1 SWAP2 SUB SWAP1 REVERT JUMPDEST PUSH1 0x1 PUSH0 DUP4 PUSH20 0xFFFFFFFFFFFFFFFFFFFFFFFFFFFFFFFFFFFFFFFF AND PUSH20 0xFFFFFFFFFFFFFFFFFFFFFFFFFFFFFFFFFFFFFFFF AND DUP2 MSTORE PUSH1 0x20 ADD SWAP1 DUP2 MSTORE PUSH1 0x20 ADD PUSH0 KECCAK256 PUSH1 0x40 MLOAD DUP1 PUSH1 0x60 ADD PUSH1 0x40 MSTORE SWAP1 DUP2 PUSH0 DUP3 ADD PUSH0 SWAP1 SLOAD SWAP1 PUSH2 0x100 EXP SWAP1 DIV PUSH1 0xFF AND ISZERO ISZERO ISZERO ISZERO DUP2 MSTORE PUSH1 0x20 ADD PUSH0 DUP3 ADD PUSH1 0x1 SWAP1 SLOAD SWAP1 PUSH2 0x100 EXP SWAP1 DIV PUSH1 0xFF AND ISZERO ISZERO ISZERO ISZERO DUP2 MSTORE PUSH1 0x20 ADD PUSH1 0x1 DUP3 ADD SLOAD DUP2 MSTORE POP POP SWAP1 POP SWAP2 SWAP1 POP JUMP JUMPDEST PUSH2 0x1028 PUSH2 0x1333 JUMP JUMPDEST PUSH1 0x3 PUSH1 0x5 DUP2 GT ISZERO PUSH2 0x103C JUMPI PUSH2 0x103B PUSH2 0x199C JUMP JUMPDEST JUMPDEST PUSH1 0x3 PUSH0 SWAP1 SLOAD SWAP1 PUSH2 0x100 EXP SWAP1 DIV PUSH1 0xFF AND PUSH1 0x5 DUP2 GT ISZERO PUSH2 0x105D JUMPI PUSH2 0x105C PUSH2 0x199C JUMP JUMPDEST JUMPDEST EQ PUSH2 0x109D JUMPI PUSH1 0x40 MLOAD PUSH32 0x8C379A000000000000000000000000000000000000000000000000000000000 DUP2 MSTORE PUSH1 0x4 ADD PUSH2 0x1094 SWAP1 PUSH2 0x2281 JUMP JUMPDEST PUSH1 0x40 MLOAD DUP1 SWAP2 SUB SWAP1 REVERT JUMPDEST PUSH1 0x4 PUSH1 0x3 PUSH0 PUSH2 0x100 EXP DUP2 SLOAD DUP2 PUSH1 0xFF MUL NOT AND SWAP1 DUP4 PUSH1 0x5 DUP2 GT ISZERO PUSH2 0x10C2 JUMPI PUSH2 0x10C1 PUSH2 0x199C JUMP JUMPDEST JUMPDEST MUL OR SWAP1 SSTORE POP PUSH32 0xA97A4EE45751E2ABF3E4FC8946939630B11B371EA8AE39CCDC3056E98F5CC3F PUSH1 0x4 PUSH1 0x3 PUSH0 SWAP1 SLOAD SWAP1 PUSH2 0x100 EXP SWAP1 DIV PUSH1 0xFF AND PUSH1 0x40 MLOAD PUSH2 0x1107 SWAP3 SWAP2 SWAP1 PUSH2 0x1D36 JUMP JUMPDEST PUSH1 0x40 MLOAD DUP1 SWAP2 SUB SWAP1 LOG1 JUMP JUMPDEST PUSH2 0x1119 PUSH2 0x1333 JUMP JUMPDEST PUSH0 PUSH20 0xFFFFFFFFFFFFFFFFFFFFFFFFFFFFFFFFFFFFFFFF AND DUP2 PUSH20 0xFFFFFFFFFFFFFFFFFFFFFFFFFFFFFFFFFFFFFFFF AND SUB PUSH2 0x1189 JUMPI PUSH0 PUSH1 0x40 MLOAD PUSH32 0x1E4FBDF700000000000000000000000000000000000000000000000000000000 DUP2 MSTORE PUSH1 0x4 ADD PUSH2 0x1180 SWAP2 SWAP1 PUSH2 0x1861 JUMP JUMPDEST PUSH1 0x40 MLOAD DUP1 SWAP2 SUB SWAP1 REVERT JUMPDEST PUSH2 0x1192 DUP2 PUSH2 0x13BA JUMP JUMPDEST POP JUMP JUMPDEST PUSH2 0x119D PUSH2 0x1333 JUMP JUMPDEST PUSH0 DUP1 PUSH1 0x5 DUP2 GT ISZERO PUSH2 0x11B1 JUMPI PUSH2 0x11B0 PUSH2 0x199C JUMP JUMPDEST JUMPDEST PUSH1 0x3 PUSH0 SWAP1 SLOAD SWAP1 PUSH2 0x100 EXP SWAP1 DIV PUSH1 0xFF AND PUSH1 0x5 DUP2 GT ISZERO PUSH2 0x11D2 JUMPI PUSH2 0x11D1 PUSH2 0x199C JUMP JUMPDEST JUMPDEST EQ PUSH2 0x1212 JUMPI PUSH1 0x40 MLOAD PUSH32 0x8C379A000000000000000000000000000000000000000000000000000000000 DUP2 MSTORE PUSH1 0x4 ADD PUSH2 0x1209 SWAP1 PUSH2 0x1A49 JUMP JUMPDEST PUSH1 0x40 MLOAD DUP1 SWAP2 SUB SWAP1 REVERT JUMPDEST PUSH1 0x40 MLOAD DUP1 PUSH1 0x60 ADD PUSH1 0x40 MSTORE DUP1 PUSH1 0x1 ISZERO ISZERO DUP2 MSTORE PUSH1 0x20 ADD PUSH0 ISZERO ISZERO DUP2 MSTORE PUSH1 0x20 ADD PUSH0 DUP2 MSTORE POP PUSH1 0x1 PUSH0 DUP5 PUSH20 0xFFFFFFFFFFFFFFFFFFFFFFFFFFFFFFFFFFFFFFFF AND PUSH20 0xFFFFFFFFFFFFFFFFFFFFFFFFFFFFFFFFFFFFFFFF AND DUP2 MSTORE PUSH1 0x20 ADD SWAP1 DUP2 MSTORE PUSH1 0x20 ADD PUSH0 KECCAK256 PUSH0 DUP3 ADD MLOAD DUP2 PUSH0 ADD PUSH0 PUSH2 0x100 EXP DUP2 SLOAD DUP2 PUSH1 0xFF MUL NOT AND SWAP1 DUP4 ISZERO ISZERO MUL OR SWAP1 SSTORE POP PUSH1 0x20 DUP3 ADD MLOAD DUP2 PUSH0 ADD PUSH1 0x1 PUSH2 0x100 EXP DUP2 SLOAD DUP2 PUSH1 0xFF MUL NOT AND SWAP1 DUP4 ISZERO ISZERO MUL OR SWAP1 SSTORE POP PUSH1 0x40 DUP3 ADD MLOAD DUP2 PUSH1 0x1 ADD SSTORE SWAP1 POP POP PUSH32 0xB6BE2187D059CC2A55FE29E0E503B566E1E0F8C8780096E185429350ACFFD3DD DUP3 PUSH1 0x40 MLOAD PUSH2 0x12E7 SWAP2 SWAP1 PUSH2 0x1861 JUMP JUMPDEST PUSH1 0x40 MLOAD DUP1 SWAP2 SUB SWAP1 LOG1 POP POP JUMP JUMPDEST PUSH2 0x12FB PUSH2 0x1333 JUMP JUMPDEST PUSH0 PUSH1 0x3 PUSH0 PUSH2 0x100 EXP DUP2 SLOAD DUP2 PUSH1 0xFF MUL NOT AND SWAP1 DUP4 PUSH1 0x5 DUP2 GT ISZERO PUSH2 0x131F JUMPI PUSH2 0x131E PUSH2 0x199C JUMP JUMPDEST JUMPDEST MUL OR SWAP1 SSTORE POP PUSH1 0x2 PUSH0 PUSH2 0x1331 SWAP2 SWAP1 PUSH2 0x14BD JUMP JUMPDEST JUMP JUMPDEST PUSH2 0x133B PUSH2 0x147B JUMP JUMPDEST PUSH20 0xFFFFFFFFFFFFFFFFFFFFFFFFFFFFFFFFFFFFFFFF AND PUSH2 0x1359 PUSH2 0xA85 JUMP JUMPDEST PUSH20 0xFFFFFFFFFFFFFFFFFFFFFFFFFFFFFFFFFFFFFFFF AND EQ PUSH2 0x13B8 JUMPI PUSH2 0x137C PUSH2 0x147B JUMP JUMPDEST PUSH1 0x40 MLOAD PUSH32 0x118CDAA700000000000000000000000000000000000000000000000000000000 DUP2 MSTORE PUSH1 0x4 ADD PUSH2 0x13AF SWAP2 SWAP1 PUSH2 0x1861 JUMP JUMPDEST PUSH1 0x40 MLOAD DUP1 SWAP2 SUB SWAP1 REVERT JUMPDEST JUMP JUMPDEST PUSH0 DUP1 PUSH0 SWAP1 SLOAD SWAP1 PUSH2 0x100 EXP SWAP1 DIV PUSH20 0xFFFFFFFFFFFFFFFFFFFFFFFFFFFFFFFFFFFFFFFF AND SWAP1 POP DUP2 PUSH0 DUP1 PUSH2 0x100 EXP DUP2 SLOAD DUP2 PUSH20 0xFFFFFFFFFFFFFFFFFFFFFFFFFFFFFFFFFFFFFFFF MUL NOT AND SWAP1 DUP4 PUSH20 0xFFFFFFFFFFFFFFFFFFFFFFFFFFFFFFFFFFFFFFFF AND MUL OR SWAP1 SSTORE POP DUP2 PUSH20 0xFFFFFFFFFFFFFFFFFFFFFFFFFFFFFFFFFFFFFFFF AND DUP2 PUSH20 0xFFFFFFFFFFFFFFFFFFFFFFFFFFFFFFFFFFFFFFFF AND PUSH32 0x8BE0079C531659141344CD1FD0A4F28419497F9722A3DAAFE3B4186F6B6457E0 PUSH1 0x40 MLOAD PUSH1 0x40 MLOAD DUP1 SWAP2 SUB SWAP1 LOG3 POP POP JUMP JUMPDEST PUSH0 CALLER SWAP1 POP SWAP1 JUMP JUMPDEST PUSH1 0x40 MLOAD DUP1 PUSH1 0x40 ADD PUSH1 0x40 MSTORE DUP1 PUSH1 0x60 DUP2 MSTORE PUSH1 0x20 ADD PUSH0 DUP2 MSTORE POP SWAP1 JUMP JUMPDEST PUSH1 0x40 MLOAD DUP1 PUSH1 0x60 ADD PUSH1 0x40 MSTORE DUP1 PUSH0 ISZERO ISZERO DUP2 MSTORE PUSH1 0x20 ADD PUSH0 ISZERO ISZERO DUP2 MSTORE PUSH1 0x20 ADD PUSH0 DUP2 MSTORE POP SWAP1 JUMP JUMPDEST POP DUP1 SLOAD PUSH0 DUP3 SSTORE PUSH1 0x2 MUL SWAP1 PUSH0 MSTORE PUSH1 0x20 PUSH0 KECCAK256 SWAP1 DUP2 ADD SWAP1 PUSH2 0x14DB SWAP2 SWAP1 PUSH2 0x14DE JUMP JUMPDEST POP JUMP JUMPDEST JUMPDEST DUP1 DUP3 GT ISZERO PUSH2 0x1506 JUMPI PUSH0 DUP1 DUP3 ADD PUSH0 PUSH2 0x14F6 SWAP2 SWAP1 PUSH2 0x150A JUMP JUMPDEST PUSH1 0x1 DUP3 ADD PUSH0 SWAP1 SSTORE POP PUSH1 0x2 ADD PUSH2 0x14DF JUMP JUMPDEST POP SWAP1 JUMP JUMPDEST POP DUP1 SLOAD PUSH2 0x1516 SWAP1 PUSH2 0x1DB7 JUMP JUMPDEST PUSH0 DUP3 SSTORE DUP1 PUSH1 0x1F LT PUSH2 0x1527 JUMPI POP PUSH2 0x1544 JUMP JUMPDEST PUSH1 0x1F ADD PUSH1 0x20 SWAP1 DIV SWAP1 PUSH0 MSTORE PUSH1 0x20 PUSH0 KECCAK256 SWAP1 DUP2 ADD SWAP1 PUSH2 0x1543 SWAP2 SWAP1 PUSH2 0x1547 JUMP JUMPDEST JUMPDEST POP JUMP JUMPDEST JUMPDEST DUP1 DUP3 GT ISZERO PUSH2 0x155E JUMPI PUSH0 DUP2 PUSH0 SWAP1 SSTORE POP PUSH1 0x1 ADD PUSH2 0x1548 JUMP JUMPDEST POP SWAP1 JUMP JUMPDEST PUSH0 DUP1 REVERT JUMPDEST PUSH0 DUP1 REVERT JUMPDEST PUSH0 DUP2 SWAP1 POP SWAP2 SWAP1 POP JUMP JUMPDEST PUSH2 0x157C DUP2 PUSH2 0x156A JUMP JUMPDEST DUP2 EQ PUSH2 0x1586 JUMPI PUSH0 DUP1 REVERT JUMPDEST POP JUMP JUMPDEST PUSH0 DUP2 CALLDATALOAD SWAP1 POP PUSH2 0x1597 DUP2 PUSH2 0x1573 JUMP JUMPDEST SWAP3 SWAP2 POP POP JUMP JUMPDEST PUSH0 PUSH1 0x20 DUP3 DUP5 SUB SLT ISZERO PUSH2 0x15B2 JUMPI PUSH2 0x15B1 PUSH2 0x1562 JUMP JUMPDEST JUMPDEST PUSH0 PUSH2 0x15BF DUP5 DUP3 DUP6 ADD PUSH2 0x1589 JUMP JUMPDEST SWAP2 POP POP SWAP3 SWAP2 POP POP JUMP JUMPDEST PUSH0 DUP1 REVERT JUMPDEST PUSH0 DUP1 REVERT JUMPDEST PUSH0 DUP1 REVERT JUMPDEST PUSH0 DUP1 DUP4 PUSH1 0x1F DUP5 ADD SLT PUSH2 0x15E9 JUMPI PUSH2 0x15E8 PUSH2 0x15C8 JUMP JUMPDEST JUMPDEST DUP3 CALLDATALOAD SWAP1 POP PUSH8 0xFFFFFFFFFFFFFFFF DUP2 GT ISZERO PUSH2 0x1606 JUMPI PUSH2 0x1605 PUSH2 0x15CC JUMP JUMPDEST JUMPDEST PUSH1 0x20 DUP4 ADD SWAP2 POP DUP4 PUSH1 0x1 DUP3 MUL DUP4 ADD GT ISZERO PUSH2 0x1622 JUMPI PUSH2 0x1621 PUSH2 0x15D0 JUMP JUMPDEST JUMPDEST SWAP3 POP SWAP3 SWAP1 POP JUMP JUMPDEST PUSH0 DUP1 PUSH1 0x20 DUP4 DUP6 SUB SLT ISZERO PUSH2 0x163F JUMPI PUSH2 0x163E PUSH2 0x1562 JUMP JUMPDEST JUMPDEST PUSH0 DUP4 ADD CALLDATALOAD PUSH8 0xFFFFFFFFFFFFFFFF DUP2 GT ISZERO PUSH2 0x165C JUMPI PUSH2 0x165B PUSH2 0x1566 JUMP JUMPDEST JUMPDEST PUSH2 0x1668 DUP6 DUP3 DUP7 ADD PUSH2 0x15D4 JUMP JUMPDEST SWAP3 POP SWAP3 POP POP SWAP3 POP SWAP3 SWAP1 POP JUMP JUMPDEST PUSH0 DUP2 MLOAD SWAP1 POP SWAP2 SWAP1 POP JUMP JUMPDEST PUSH0 DUP3 DUP3 MSTORE PUSH1 0x20 DUP3 ADD SWAP1 POP SWAP3 SWAP2 POP POP JUMP JUMPDEST PUSH0 DUP2 SWAP1 POP PUSH1 0x20 DUP3 ADD SWAP1 POP SWAP2 SWAP1 POP JUMP JUMPDEST PUSH0 DUP2 MLOAD SWAP1 POP SWAP2 SWAP1 POP JUMP JUMPDEST PUSH0 DUP3 DUP3 MSTORE PUSH1 0x20 DUP3 ADD SWAP1 POP SWAP3 SWAP2 POP POP JUMP JUMPDEST PUSH0 JUMPDEST DUP4 DUP2 LT ISZERO PUSH2 0x16D4 JUMPI DUP1 DUP3 ADD MLOAD DUP2 DUP5 ADD MSTORE PUSH1 0x20 DUP2 ADD SWAP1 POP PUSH2 0x16B9 JUMP JUMPDEST PUSH0 DUP5 DUP5 ADD MSTORE POP POP POP POP JUMP JUMPDEST PUSH0 PUSH1 0x1F NOT PUSH1 0x1F DUP4 ADD AND SWAP1 POP SWAP2 SWAP1 POP JUMP JUMPDEST PUSH0 PUSH2 0x16F9 DUP3 PUSH2 0x169D JUMP JUMPDEST PUSH2 0x1703 DUP2 DUP6 PUSH2 0x16A7 JUMP JUMPDEST SWAP4 POP PUSH2 0x1713 DUP2 DUP6 PUSH1 0x20 DUP7 ADD PUSH2 0x16B7 JUMP JUMPDEST PUSH2 0x171C DUP2 PUSH2 0x16DF JUMP JUMPDEST DUP5 ADD SWAP2 POP POP SWAP3 SWAP2 POP POP JUMP JUMPDEST PUSH2 0x1730 DUP2 PUSH2 0x156A JUMP JUMPDEST DUP3 MSTORE POP POP JUMP JUMPDEST PUSH0 PUSH1 0x40 DUP4 ADD PUSH0 DUP4 ADD MLOAD DUP5 DUP3 SUB PUSH0 DUP7 ADD MSTORE PUSH2 0x1750 DUP3 DUP3 PUSH2 0x16EF JUMP JUMPDEST SWAP2 POP POP PUSH1 0x20 DUP4 ADD MLOAD PUSH2 0x1765 PUSH1 0x20 DUP7 ADD DUP3 PUSH2 0x1727 JUMP JUMPDEST POP DUP1 SWAP2 POP POP SWAP3 SWAP2 POP POP JUMP JUMPDEST PUSH0 PUSH2 0x177B DUP4 DUP4 PUSH2 0x1736 JUMP JUMPDEST SWAP1 POP SWAP3 SWAP2 POP POP JUMP JUMPDEST PUSH0 PUSH1 0x20 DUP3 ADD SWAP1 POP SWAP2 SWAP1 POP JUMP JUMPDEST PUSH0 PUSH2 0x1799 DUP3 PUSH2 0x1674 JUMP JUMPDEST PUSH2 0x17A3 DUP2 DUP6 PUSH2 0x167E JUMP JUMPDEST SWAP4 POP DUP4 PUSH1 0x20 DUP3 MUL DUP6 ADD PUSH2 0x17B5 DUP6 PUSH2 0x168E JUMP JUMPDEST DUP1 PUSH0 JUMPDEST DUP6 DUP2 LT ISZERO PUSH2 0x17F0 JUMPI DUP5 DUP5 SUB DUP10 MSTORE DUP2 MLOAD PUSH2 0x17D1 DUP6 DUP3 PUSH2 0x1770 JUMP JUMPDEST SWAP5 POP PUSH2 0x17DC DUP4 PUSH2 0x1783 JUMP JUMPDEST SWAP3 POP PUSH1 0x20 DUP11 ADD SWAP10 POP POP PUSH1 0x1 DUP2 ADD SWAP1 POP PUSH2 0x17B8 JUMP JUMPDEST POP DUP3 SWAP8 POP DUP8 SWAP6 POP POP POP POP POP POP SWAP3 SWAP2 POP POP JUMP JUMPDEST PUSH0 PUSH1 0x20 DUP3 ADD SWAP1 POP DUP2 DUP2 SUB PUSH0 DUP4 ADD MSTORE PUSH2 0x181A DUP2 DUP5 PUSH2 0x178F JUMP JUMPDEST SWAP1 POP SWAP3 SWAP2 POP POP JUMP JUMPDEST PUSH0 PUSH20 0xFFFFFFFFFFFFFFFFFFFFFFFFFFFFFFFFFFFFFFFF DUP3 AND SWAP1 POP SWAP2 SWAP1 POP JUMP JUMPDEST PUSH0 PUSH2 0x184B DUP3 PUSH2 0x1822 JUMP JUMPDEST SWAP1 POP SWAP2 SWAP1 POP JUMP JUMPDEST PUSH2 0x185B DUP2 PUSH2 0x1841 JUMP JUMPDEST DUP3 MSTORE POP POP JUMP JUMPDEST PUSH0 PUSH1 0x20 DUP3 ADD SWAP1 POP PUSH2 0x1874 PUSH0 DUP4 ADD DUP5 PUSH2 0x1852 JUMP JUMPDEST SWAP3 SWAP2 POP POP JUMP JUMPDEST PUSH0 PUSH1 0x40 DUP4 ADD PUSH0 DUP4 ADD MLOAD DUP5 DUP3 SUB PUSH0 DUP7 ADD MSTORE PUSH2 0x1894 DUP3 DUP3 PUSH2 0x16EF JUMP JUMPDEST SWAP2 POP POP PUSH1 0x20 DUP4 ADD MLOAD PUSH2 0x18A9 PUSH1 0x20 DUP7 ADD DUP3 PUSH2 0x1727 JUMP JUMPDEST POP DUP1 SWAP2 POP POP SWAP3 SWAP2 POP POP JUMP JUMPDEST PUSH0 PUSH1 0x20 DUP3 ADD SWAP1 POP DUP2 DUP2 SUB PUSH0 DUP4 ADD MSTORE PUSH2 0x18CC DUP2 DUP5 PUSH2 0x187A JUMP JUMPDEST SWAP1 POP SWAP3 SWAP2 POP POP JUMP JUMPDEST PUSH2 0x18DD DUP2 PUSH2 0x1841 JUMP JUMPDEST DUP2 EQ PUSH2 0x18E7 JUMPI PUSH0 DUP1 REVERT JUMPDEST POP JUMP JUMPDEST PUSH0 DUP2 CALLDATALOAD SWAP1 POP PUSH2 0x18F8 DUP2 PUSH2 0x18D4 JUMP JUMPDEST SWAP3 SWAP2 POP POP JUMP JUMPDEST PUSH0 PUSH1 0x20 DUP3 DUP5 SUB SLT ISZERO PUSH2 0x1913 JUMPI PUSH2 0x1912 PUSH2 0x1562 JUMP JUMPDEST JUMPDEST PUSH0 PUSH2 0x1920 DUP5 DUP3 DUP6 ADD PUSH2 0x18EA JUMP JUMPDEST SWAP2 POP POP SWAP3 SWAP2 POP POP JUMP JUMPDEST PUSH0 DUP2 ISZERO ISZERO SWAP1 POP SWAP2 SWAP1 POP JUMP JUMPDEST PUSH2 0x193D DUP2 PUSH2 0x1929 JUMP JUMPDEST DUP3 MSTORE POP POP JUMP JUMPDEST PUSH1 0x60 DUP3 ADD PUSH0 DUP3 ADD MLOAD PUSH2 0x1957 PUSH0 DUP6 ADD DUP3 PUSH2 0x1934 JUMP JUMPDEST POP PUSH1 0x20 DUP3 ADD MLOAD PUSH2 0x196A PUSH1 0x20 DUP6 ADD DUP3 PUSH2 0x1934 JUMP JUMPDEST POP PUSH1 0x40 DUP3 ADD MLOAD PUSH2 0x197D PUSH1 0x40 DUP6 ADD DUP3 PUSH2 0x1727 JUMP JUMPDEST POP POP POP POP JUMP JUMPDEST PUSH0 PUSH1 0x60 DUP3 ADD SWAP1 POP PUSH2 0x1996 PUSH0 DUP4 ADD DUP5 PUSH2 0x1943 JUMP JUMPDEST SWAP3 SWAP2 POP POP JUMP JUMPDEST PUSH32 0x4E487B7100000000000000000000000000000000000000000000000000000000 PUSH0 MSTORE PUSH1 0x21 PUSH1 0x4 MSTORE PUSH1 0x24 PUSH0 REVERT JUMPDEST PUSH0 DUP3 DUP3 MSTORE PUSH1 0x20 DUP3 ADD SWAP1 POP SWAP3 SWAP2 POP POP JUMP JUMPDEST PUSH32 0x596F752063616E277420646F207468697320616374696F6E2C20776169742074 PUSH0 DUP3 ADD MSTORE PUSH32 0x6865207068617365000000000000000000000000000000000000000000000000 PUSH1 0x20 DUP3 ADD MSTORE POP JUMP JUMPDEST PUSH0 PUSH2 0x1A33 PUSH1 0x28 DUP4 PUSH2 0x19C9 JUMP JUMPDEST SWAP2 POP PUSH2 0x1A3E DUP3 PUSH2 0x19D9 JUMP JUMPDEST PUSH1 0x40 DUP3 ADD SWAP1 POP SWAP2 SWAP1 POP JUMP JUMPDEST PUSH0 PUSH1 0x20 DUP3 ADD SWAP1 POP DUP2 DUP2 SUB PUSH0 DUP4 ADD MSTORE PUSH2 0x1A60 DUP2 PUSH2 0x1A27 JUMP JUMPDEST SWAP1 POP SWAP2 SWAP1 POP JUMP JUMPDEST PUSH32 0x596F757220617265206E6F74207265676973746572656420696E206C69737400 PUSH0 DUP3 ADD MSTORE POP JUMP JUMPDEST PUSH0 PUSH2 0x1A9B PUSH1 0x1F DUP4 PUSH2 0x19C9 JUMP JUMPDEST SWAP2 POP PUSH2 0x1AA6 DUP3 PUSH2 0x1A67 JUMP JUMPDEST PUSH1 0x20 DUP3 ADD SWAP1 POP SWAP2 SWAP1 POP JUMP JUMPDEST PUSH0 PUSH1 0x20 DUP3 ADD SWAP1 POP DUP2 DUP2 SUB PUSH0 DUP4 ADD MSTORE PUSH2 0x1AC8 DUP2 PUSH2 0x1A8F JUMP JUMPDEST SWAP1 POP SWAP2 SWAP1 POP JUMP JUMPDEST PUSH32 0x596F75206861766520616C726561647920766F74656400000000000000000000 PUSH0 DUP3 ADD MSTORE POP JUMP JUMPDEST PUSH0 PUSH2 0x1B03 PUSH1 0x16 DUP4 PUSH2 0x19C9 JUMP JUMPDEST SWAP2 POP PUSH2 0x1B0E DUP3 PUSH2 0x1ACF JUMP JUMPDEST PUSH1 0x20 DUP3 ADD SWAP1 POP SWAP2 SWAP1 POP JUMP JUMPDEST PUSH0 PUSH1 0x20 DUP3 ADD SWAP1 POP DUP2 DUP2 SUB PUSH0 DUP4 ADD MSTORE PUSH2 0x1B30 DUP2 PUSH2 0x1AF7 JUMP JUMPDEST SWAP1 POP SWAP2 SWAP1 POP JUMP JUMPDEST PUSH32 0x546869732070726F706F73616C20646F65736E27742065786973740000000000 PUSH0 DUP3 ADD MSTORE POP JUMP JUMPDEST PUSH0 PUSH2 0x1B6B PUSH1 0x1B DUP4 PUSH2 0x19C9 JUMP JUMPDEST SWAP2 POP PUSH2 0x1B76 DUP3 PUSH2 0x1B37 JUMP JUMPDEST PUSH1 0x20 DUP3 ADD SWAP1 POP SWAP2 SWAP1 POP JUMP JUMPDEST PUSH0 PUSH1 0x20 DUP3 ADD SWAP1 POP DUP2 DUP2 SUB PUSH0 DUP4 ADD MSTORE PUSH2 0x1B98 DUP2 PUSH2 0x1B5F JUMP JUMPDEST SWAP1 POP SWAP2 SWAP1 POP JUMP JUMPDEST PUSH32 0x4E487B7100000000000000000000000000000000000000000000000000000000 PUSH0 MSTORE PUSH1 0x32 PUSH1 0x4 MSTORE PUSH1 0x24 PUSH0 REVERT JUMPDEST PUSH32 0x4E487B7100000000000000000000000000000000000000000000000000000000 PUSH0 MSTORE PUSH1 0x11 PUSH1 0x4 MSTORE PUSH1 0x24 PUSH0 REVERT JUMPDEST PUSH0 PUSH2 0x1C03 DUP3 PUSH2 0x156A JUMP JUMPDEST SWAP2 POP PUSH2 0x1C0E DUP4 PUSH2 0x156A JUMP JUMPDEST SWAP3 POP DUP3 DUP3 ADD SWAP1 POP DUP1 DUP3 GT ISZERO PUSH2 0x1C26 JUMPI PUSH2 0x1C25 PUSH2 0x1BCC JUMP JUMPDEST JUMPDEST SWAP3 SWAP2 POP POP JUMP JUMPDEST PUSH2 0x1C35 DUP2 PUSH2 0x156A JUMP JUMPDEST DUP3 MSTORE POP POP JUMP JUMPDEST PUSH0 PUSH1 0x40 DUP3 ADD SWAP1 POP PUSH2 0x1C4E PUSH0 DUP4 ADD DUP6 PUSH2 0x1852 JUMP JUMPDEST PUSH2 0x1C5B PUSH1 0x20 DUP4 ADD DUP5 PUSH2 0x1C2C JUMP JUMPDEST SWAP4 SWAP3 POP POP POP JUMP JUMPDEST PUSH32 0x4974206D757374206265207265676973746572696E6720766F74657220626566 PUSH0 DUP3 ADD MSTORE PUSH32 0x6F72650000000000000000000000000000000000000000000000000000000000 PUSH1 0x20 DUP3 ADD MSTORE POP JUMP JUMPDEST PUSH0 PUSH2 0x1CBC PUSH1 0x23 DUP4 PUSH2 0x19C9 JUMP JUMPDEST SWAP2 POP PUSH2 0x1CC7 DUP3 PUSH2 0x1C62 JUMP JUMPDEST PUSH1 0x40 DUP3 ADD SWAP1 POP SWAP2 SWAP1 POP JUMP JUMPDEST PUSH0 PUSH1 0x20 DUP3 ADD SWAP1 POP DUP2 DUP2 SUB PUSH0 DUP4 ADD MSTORE PUSH2 0x1CE9 DUP2 PUSH2 0x1CB0 JUMP JUMPDEST SWAP1 POP SWAP2 SWAP1 POP JUMP JUMPDEST PUSH1 0x6 DUP2 LT PUSH2 0x1D01 JUMPI PUSH2 0x1D00 PUSH2 0x199C JUMP JUMPDEST JUMPDEST POP JUMP JUMPDEST PUSH0 DUP2 SWAP1 POP PUSH2 0x1D11 DUP3 PUSH2 0x1CF0 JUMP JUMPDEST SWAP2 SWAP1 POP JUMP JUMPDEST PUSH0 PUSH2 0x1D20 DUP3 PUSH2 0x1D04 JUMP JUMPDEST SWAP1 POP SWAP2 SWAP1 POP JUMP JUMPDEST PUSH2 0x1D30 DUP2 PUSH2 0x1D16 JUMP JUMPDEST DUP3 MSTORE POP POP JUMP JUMPDEST PUSH0 PUSH1 0x40 DUP3 ADD SWAP1 POP PUSH2 0x1D49 PUSH0 DUP4 ADD DUP6 PUSH2 0x1D27 JUMP JUMPDEST PUSH2 0x1D56 PUSH1 0x20 DUP4 ADD DUP5 PUSH2 0x1D27 JUMP JUMPDEST SWAP4 SWAP3 POP POP POP JUMP JUMPDEST PUSH32 0x4E487B7100000000000000000000000000000000000000000000000000000000 PUSH0 MSTORE PUSH1 0x41 PUSH1 0x4 MSTORE PUSH1 0x24 PUSH0 REVERT JUMPDEST PUSH32 0x4E487B7100000000000000000000000000000000000000000000000000000000 PUSH0 MSTORE PUSH1 0x22 PUSH1 0x4 MSTORE PUSH1 0x24 PUSH0 REVERT JUMPDEST PUSH0 PUSH1 0x2 DUP3 DIV SWAP1 POP PUSH1 0x1 DUP3 AND DUP1 PUSH2 0x1DCE JUMPI PUSH1 0x7F DUP3 AND SWAP2 POP JUMPDEST PUSH1 0x20 DUP3 LT DUP2 SUB PUSH2 0x1DE1 JUMPI PUSH2 0x1DE0 PUSH2 0x1D8A JUMP JUMPDEST JUMPDEST POP SWAP2 SWAP1 POP JUMP JUMPDEST PUSH0 DUP2 SWAP1 POP DUP2 PUSH0 MSTORE PUSH1 0x20 PUSH0 KECCAK256 SWAP1 POP SWAP2 SWAP1 POP JUMP JUMPDEST PUSH0 PUSH1 0x20 PUSH1 0x1F DUP4 ADD DIV SWAP1 POP SWAP2 SWAP1 POP JUMP JUMPDEST PUSH0 DUP3 DUP3 SHL SWAP1 POP SWAP3 SWAP2 POP POP JUMP JUMPDEST PUSH0 PUSH1 0x8 DUP4 MUL PUSH2 0x1E43 PUSH32 0xFFFFFFFFFFFFFFFFFFFFFFFFFFFFFFFFFFFFFFFFFFFFFFFFFFFFFFFFFFFFFFFF DUP3 PUSH2 0x1E08 JUMP JUMPDEST PUSH2 0x1E4D DUP7 DUP4 PUSH2 0x1E08 JUMP JUMPDEST SWAP6 POP DUP1 NOT DUP5 AND SWAP4 POP DUP1 DUP7 AND DUP5 OR SWAP3 POP POP POP SWAP4 SWAP3 POP POP POP JUMP JUMPDEST PUSH0 DUP2 SWAP1 POP SWAP2 SWAP1 POP JUMP JUMPDEST PUSH0 PUSH2 0x1E88 PUSH2 0x1E83 PUSH2 0x1E7E DUP5 PUSH2 0x156A JUMP JUMPDEST PUSH2 0x1E65 JUMP JUMPDEST PUSH2 0x156A JUMP JUMPDEST SWAP1 POP SWAP2 SWAP1 POP JUMP JUMPDEST PUSH0 DUP2 SWAP1 POP SWAP2 SWAP1 POP JUMP JUMPDEST PUSH2 0x1EA1 DUP4 PUSH2 0x1E6E JUMP JUMPDEST PUSH2 0x1EB5 PUSH2 0x1EAD DUP3 PUSH2 0x1E8F JUMP JUMPDEST DUP5 DUP5 SLOAD PUSH2 0x1E14 JUMP JUMPDEST DUP3 SSTORE POP POP POP POP JUMP JUMPDEST PUSH0 SWAP1 JUMP JUMPDEST PUSH2 0x1EC9 PUSH2 0x1EBD JUMP JUMPDEST PUSH2 0x1ED4 DUP2 DUP5 DUP5 PUSH2 0x1E98 JUMP JUMPDEST POP POP POP JUMP JUMPDEST JUMPDEST DUP2 DUP2 LT ISZERO PUSH2 0x1EF7 JUMPI PUSH2 0x1EEC PUSH0 DUP3 PUSH2 0x1EC1 JUMP JUMPDEST PUSH1 0x1 DUP2 ADD SWAP1 POP PUSH2 0x1EDA JUMP JUMPDEST POP POP JUMP JUMPDEST PUSH1 0x1F DUP3 GT ISZERO PUSH2 0x1F3C JUMPI PUSH2 0x1F0D DUP2 PUSH2 0x1DE7 JUMP JUMPDEST PUSH2 0x1F16 DUP5 PUSH2 0x1DF9 JUMP JUMPDEST DUP2 ADD PUSH1 0x20 DUP6 LT ISZERO PUSH2 0x1F25 JUMPI DUP2 SWAP1 POP JUMPDEST PUSH2 0x1F39 PUSH2 0x1F31 DUP6 PUSH2 0x1DF9 JUMP JUMPDEST DUP4 ADD DUP3 PUSH2 0x1ED9 JUMP JUMPDEST POP POP JUMPDEST POP POP POP JUMP JUMPDEST PUSH0 DUP3 DUP3 SHR SWAP1 POP SWAP3 SWAP2 POP POP JUMP JUMPDEST PUSH0 PUSH2 0x1F5C PUSH0 NOT DUP5 PUSH1 0x8 MUL PUSH2 0x1F41 JUMP JUMPDEST NOT DUP1 DUP4 AND SWAP2 POP POP SWAP3 SWAP2 POP POP JUMP JUMPDEST PUSH0 PUSH2 0x1F74 DUP4 DUP4 PUSH2 0x1F4D JUMP JUMPDEST SWAP2 POP DUP3 PUSH1 0x2 MUL DUP3 OR SWAP1 POP SWAP3 SWAP2 POP POP JUMP JUMPDEST PUSH2 0x1F8D DUP3 PUSH2 0x169D JUMP JUMPDEST PUSH8 0xFFFFFFFFFFFFFFFF DUP2 GT ISZERO PUSH2 0x1FA6 JUMPI PUSH2 0x1FA5 PUSH2 0x1D5D JUMP JUMPDEST JUMPDEST PUSH2 0x1FB0 DUP3 SLOAD PUSH2 0x1DB7 JUMP JUMPDEST PUSH2 0x1FBB DUP3 DUP3 DUP6 PUSH2 0x1EFB JUMP JUMPDEST PUSH0 PUSH1 0x20 SWAP1 POP PUSH1 0x1F DUP4 GT PUSH1 0x1 DUP2 EQ PUSH2 0x1FEC JUMPI PUSH0 DUP5 ISZERO PUSH2 0x1FDA JUMPI DUP3 DUP8 ADD MLOAD SWAP1 POP JUMPDEST PUSH2 0x1FE4 DUP6 DUP3 PUSH2 0x1F69 JUMP JUMPDEST DUP7 SSTORE POP PUSH2 0x204B JUMP JUMPDEST PUSH1 0x1F NOT DUP5 AND PUSH2 0x1FFA DUP7 PUSH2 0x1DE7 JUMP JUMPDEST PUSH0 JUMPDEST DUP3 DUP2 LT ISZERO PUSH2 0x2021 JUMPI DUP5 DUP10 ADD MLOAD DUP3 SSTORE PUSH1 0x1 DUP3 ADD SWAP2 POP PUSH1 0x20 DUP6 ADD SWAP5 POP PUSH1 0x20 DUP2 ADD SWAP1 POP PUSH2 0x1FFC JUMP JUMPDEST DUP7 DUP4 LT ISZERO PUSH2 0x203E JUMPI DUP5 DUP10 ADD MLOAD PUSH2 0x203A PUSH1 0x1F DUP10 AND DUP3 PUSH2 0x1F4D JUMP JUMPDEST DUP4 SSTORE POP JUMPDEST PUSH1 0x1 PUSH1 0x2 DUP9 MUL ADD DUP9 SSTORE POP POP POP JUMPDEST POP POP POP POP POP POP JUMP JUMPDEST PUSH0 PUSH1 0x20 DUP3 ADD SWAP1 POP PUSH2 0x2066 PUSH0 DUP4 ADD DUP5 PUSH2 0x1C2C JUMP JUMPDEST SWAP3 SWAP2 POP POP JUMP JUMPDEST PUSH32 0x4974206D7573742062652074686520656E64206F662070726F706F73616C2062 PUSH0 DUP3 ADD MSTORE PUSH32 0x65666F7265000000000000000000000000000000000000000000000000000000 PUSH1 0x20 DUP3 ADD MSTORE POP JUMP JUMPDEST PUSH0 PUSH2 0x20C6 PUSH1 0x25 DUP4 PUSH2 0x19C9 JUMP JUMPDEST SWAP2 POP PUSH2 0x20D1 DUP3 PUSH2 0x206C JUMP JUMPDEST PUSH1 0x40 DUP3 ADD SWAP1 POP SWAP2 SWAP1 POP JUMP JUMPDEST PUSH0 PUSH1 0x20 DUP3 ADD SWAP1 POP DUP2 DUP2 SUB PUSH0 DUP4 ADD MSTORE PUSH2 0x20F3 DUP2 PUSH2 0x20BA JUMP JUMPDEST SWAP1 POP SWAP2 SWAP1 POP JUMP JUMPDEST PUSH32 0x4974206D7573742070726F706F73616C2073657373696F6E0000000000000000 PUSH0 DUP3 ADD MSTORE POP JUMP JUMPDEST PUSH0 PUSH2 0x212E PUSH1 0x18 DUP4 PUSH2 0x19C9 JUMP JUMPDEST SWAP2 POP PUSH2 0x2139 DUP3 PUSH2 0x20FA JUMP JUMPDEST PUSH1 0x20 DUP3 ADD SWAP1 POP SWAP2 SWAP1 POP JUMP JUMPDEST PUSH0 PUSH1 0x20 DUP3 ADD SWAP1 POP DUP2 DUP2 SUB PUSH0 DUP4 ADD MSTORE PUSH2 0x215B DUP2 PUSH2 0x2122 JUMP JUMPDEST SWAP1 POP SWAP2 SWAP1 POP JUMP JUMPDEST PUSH32 0x4974206D7573742062652074686520656E64206F66207468652073657373696F PUSH0 DUP3 ADD MSTORE PUSH32 0x6E00000000000000000000000000000000000000000000000000000000000000 PUSH1 0x20 DUP3 ADD MSTORE POP JUMP JUMPDEST PUSH0 PUSH2 0x21BC PUSH1 0x21 DUP4 PUSH2 0x19C9 JUMP JUMPDEST SWAP2 POP PUSH2 0x21C7 DUP3 PUSH2 0x2162 JUMP JUMPDEST PUSH1 0x40 DUP3 ADD SWAP1 POP SWAP2 SWAP1 POP JUMP JUMPDEST PUSH0 PUSH1 0x20 DUP3 ADD SWAP1 POP DUP2 DUP2 SUB PUSH0 DUP4 ADD MSTORE PUSH2 0x21E9 DUP2 PUSH2 0x21B0 JUMP JUMPDEST SWAP1 POP SWAP2 SWAP1 POP JUMP JUMPDEST PUSH0 PUSH2 0x21FA DUP3 PUSH2 0x156A JUMP JUMPDEST SWAP2 POP PUSH32 0xFFFFFFFFFFFFFFFFFFFFFFFFFFFFFFFFFFFFFFFFFFFFFFFFFFFFFFFFFFFFFFFF DUP3 SUB PUSH2 0x222C JUMPI PUSH2 0x222B PUSH2 0x1BCC JUMP JUMPDEST JUMPDEST PUSH1 0x1 DUP3 ADD SWAP1 POP SWAP2 SWAP1 POP JUMP JUMPDEST PUSH32 0x4974206D75737420626520766F74696E672073657373696F6E00000000000000 PUSH0 DUP3 ADD MSTORE POP JUMP JUMPDEST PUSH0 PUSH2 0x226B PUSH1 0x19 DUP4 PUSH2 0x19C9 JUMP JUMPDEST SWAP2 POP PUSH2 0x2276 DUP3 PUSH2 0x2237 JUMP JUMPDEST PUSH1 0x20 DUP3 ADD SWAP1 POP SWAP2 SWAP1 POP JUMP JUMPDEST PUSH0 PUSH1 0x20 DUP3 ADD SWAP1 POP DUP2 DUP2 SUB PUSH0 DUP4 ADD MSTORE PUSH2 0x2298 DUP2 PUSH2 0x225F JUMP JUMPDEST SWAP1 POP SWAP2 SWAP1 POP JUMP INVALID LOG2 PUSH5 0x6970667358 0x22 SLT KECCAK256 0xE0 0xF 0xD5 SWAP9 MOD SAR DUP14 PUSH15 0x201535DB17072BDE95AE42AD1F501F 0xD6 PUSH22 0x5B9371F664E9C64736F6C6343000814003300000000 "
				},
				"gasEstimates": {
					"creation": {
						"codeDepositCost": "1783400",
						"executionCost": "infinite",
						"totalCost": "infinite"
					},
					"external": {
						"addProposal(string)": "infinite",
						"addVoter(address)": "infinite",
						"endProposal()": "infinite",
						"endVote()": "infinite",
						"getProposals()": "infinite",
						"getVoteTo(address)": "infinite",
						"getWinner()": "infinite",
						"owner()": "2604",
						"renounceOwnership()": "infinite",
						"resetSession()": "infinite",
						"startProposal()": "infinite",
						"startVote()": "infinite",
						"talliedVote()": "infinite",
						"transferOwnership(address)": "infinite",
						"vote(uint256)": "infinite"
					}
				},
				"methodIdentifiers": {
					"addProposal(string)": "2fdae3c5",
					"addVoter(address)": "f4ab9adf",
					"endProposal()": "98f6560b",
					"endVote()": "b9223946",
					"getProposals()": "62564c48",
					"getVoteTo(address)": "a587f077",
					"getWinner()": "8e7ea5b2",
					"owner()": "8da5cb5b",
					"renounceOwnership()": "715018a6",
					"resetSession()": "f8a3ce82",
					"startProposal()": "274da81f",
					"startVote()": "4c0a6af0",
					"talliedVote()": "9c6a46c4",
					"transferOwnership(address)": "f2fde38b",
					"vote(uint256)": "0121b93f"
				}
			},
			"storageLayout": {
				"storage": [
					{
						"astId": 8,
						"contract": "contracts/Voting.sol:Voting",
						"label": "_owner",
						"offset": 0,
						"slot": "0",
						"type": "t_address"
					},
					{
						"astId": 236,
						"contract": "contracts/Voting.sol:Voting",
						"label": "whiteList",
						"offset": 0,
						"slot": "1",
						"type": "t_mapping(t_address,t_struct(Voter)197_storage)"
					},
					{
						"astId": 240,
						"contract": "contracts/Voting.sol:Voting",
						"label": "proposals",
						"offset": 0,
						"slot": "2",
						"type": "t_array(t_struct(Proposal)202_storage)dyn_storage"
					},
					{
						"astId": 243,
						"contract": "contracts/Voting.sol:Voting",
						"label": "status",
						"offset": 0,
						"slot": "3",
						"type": "t_enum(WorkflowStatus)209"
					},
					{
						"astId": 245,
						"contract": "contracts/Voting.sol:Voting",
						"label": "winningProposalId",
						"offset": 0,
						"slot": "4",
						"type": "t_uint256"
					}
				],
				"types": {
					"t_address": {
						"encoding": "inplace",
						"label": "address",
						"numberOfBytes": "20"
					},
					"t_array(t_struct(Proposal)202_storage)dyn_storage": {
						"base": "t_struct(Proposal)202_storage",
						"encoding": "dynamic_array",
						"label": "struct Voting.Proposal[]",
						"numberOfBytes": "32"
					},
					"t_bool": {
						"encoding": "inplace",
						"label": "bool",
						"numberOfBytes": "1"
					},
					"t_enum(WorkflowStatus)209": {
						"encoding": "inplace",
						"label": "enum Voting.WorkflowStatus",
						"numberOfBytes": "1"
					},
					"t_mapping(t_address,t_struct(Voter)197_storage)": {
						"encoding": "mapping",
						"key": "t_address",
						"label": "mapping(address => struct Voting.Voter)",
						"numberOfBytes": "32",
						"value": "t_struct(Voter)197_storage"
					},
					"t_string_storage": {
						"encoding": "bytes",
						"label": "string",
						"numberOfBytes": "32"
					},
					"t_struct(Proposal)202_storage": {
						"encoding": "inplace",
						"label": "struct Voting.Proposal",
						"members": [
							{
								"astId": 199,
								"contract": "contracts/Voting.sol:Voting",
								"label": "description",
								"offset": 0,
								"slot": "0",
								"type": "t_string_storage"
							},
							{
								"astId": 201,
								"contract": "contracts/Voting.sol:Voting",
								"label": "voteCount",
								"offset": 0,
								"slot": "1",
								"type": "t_uint256"
							}
						],
						"numberOfBytes": "64"
					},
					"t_struct(Voter)197_storage": {
						"encoding": "inplace",
						"label": "struct Voting.Voter",
						"members": [
							{
								"astId": 192,
								"contract": "contracts/Voting.sol:Voting",
								"label": "isRegistered",
								"offset": 0,
								"slot": "0",
								"type": "t_bool"
							},
							{
								"astId": 194,
								"contract": "contracts/Voting.sol:Voting",
								"label": "hasVoted",
								"offset": 1,
								"slot": "0",
								"type": "t_bool"
							},
							{
								"astId": 196,
								"contract": "contracts/Voting.sol:Voting",
								"label": "votedProposalId",
								"offset": 0,
								"slot": "1",
								"type": "t_uint256"
							}
						],
						"numberOfBytes": "64"
					},
					"t_uint256": {
						"encoding": "inplace",
						"label": "uint256",
						"numberOfBytes": "32"
					}
				}
			},
			"userdoc": {
				"kind": "user",
				"methods": {
					"addProposal(string)": {
						"notice": "Fonction permettant d'ajouter une proposition à la liste"
					},
					"addVoter(address)": {
						"notice": "Fonction permettant d'ajouter d'un votant à la liste"
					},
					"endProposal()": {
						"notice": "Permet de terminer les propositions"
					},
					"endVote()": {
						"notice": "Permet de terminer les votes"
					},
					"getProposals()": {
						"notice": "Fonction permettant de regarder la liste des propositions "
					},
					"getVoteTo(address)": {
						"notice": "Fonction permettant de regarder le vote d'une personne "
					},
					"getWinner()": {
						"notice": "Get le winner "
					},
					"resetSession()": {
						"notice": "Reset de la session "
					},
					"startProposal()": {
						"notice": "Permet de start les propositions"
					},
					"startVote()": {
						"notice": "Permet de start les votes"
					},
					"talliedVote()": {
						"notice": "Permet de rendre public les votes"
					},
					"vote(uint256)": {
						"notice": "Fonction permettant de voter pour une proposition et ajouter un vote à la proposition "
					}
				},
				"version": 1
			}
		}
	}
}