{
	"contracts/VotingPlus.sol": {
		"VotingPlus": {
			"abi": [
				{
					"inputs": [],
					"stateMutability": "nonpayable",
					"type": "constructor"
				},
				{
					"inputs": [
						{
							"internalType": "address",
							"name": "owner",
							"type": "address"
						}
					],
					"name": "OwnableInvalidOwner",
					"type": "error"
				},
				{
					"inputs": [
						{
							"internalType": "address",
							"name": "account",
							"type": "address"
						}
					],
					"name": "OwnableUnauthorizedAccount",
					"type": "error"
				},
				{
					"anonymous": false,
					"inputs": [
						{
							"indexed": true,
							"internalType": "address",
							"name": "previousOwner",
							"type": "address"
						},
						{
							"indexed": true,
							"internalType": "address",
							"name": "newOwner",
							"type": "address"
						}
					],
					"name": "OwnershipTransferred",
					"type": "event"
				},
				{
					"anonymous": false,
					"inputs": [
						{
							"indexed": false,
							"internalType": "uint256",
							"name": "proposalId",
							"type": "uint256"
						}
					],
					"name": "ProposalRegistered",
					"type": "event"
				},
				{
					"anonymous": false,
					"inputs": [
						{
							"indexed": false,
							"internalType": "address",
							"name": "voter",
							"type": "address"
						},
						{
							"indexed": false,
							"internalType": "uint256",
							"name": "proposalId",
							"type": "uint256"
						}
					],
					"name": "Voted",
					"type": "event"
				},
				{
					"anonymous": false,
					"inputs": [
						{
							"indexed": false,
							"internalType": "address",
							"name": "voterAddress",
							"type": "address"
						}
					],
					"name": "VoterRegistered",
					"type": "event"
				},
				{
					"anonymous": false,
					"inputs": [
						{
							"indexed": false,
							"internalType": "enum VotingPlus.WorkflowStatus",
							"name": "previousStatus",
							"type": "uint8"
						},
						{
							"indexed": false,
							"internalType": "enum VotingPlus.WorkflowStatus",
							"name": "newStatus",
							"type": "uint8"
						}
					],
					"name": "WorkflowStatusChange",
					"type": "event"
				},
				{
					"inputs": [
						{
							"internalType": "string",
							"name": "_description",
							"type": "string"
						}
					],
					"name": "addProposal",
					"outputs": [],
					"stateMutability": "nonpayable",
					"type": "function"
				},
				{
					"inputs": [
						{
							"internalType": "address",
							"name": "_address",
							"type": "address"
						}
					],
					"name": "addVoter",
					"outputs": [],
					"stateMutability": "nonpayable",
					"type": "function"
				},
				{
					"inputs": [],
					"name": "endProposal",
					"outputs": [],
					"stateMutability": "nonpayable",
					"type": "function"
				},
				{
					"inputs": [],
					"name": "endVote",
					"outputs": [],
					"stateMutability": "nonpayable",
					"type": "function"
				},
				{
					"inputs": [],
					"name": "getProposals",
					"outputs": [
						{
							"components": [
								{
									"internalType": "string",
									"name": "description",
									"type": "string"
								},
								{
									"internalType": "uint256",
									"name": "voteCount",
									"type": "uint256"
								}
							],
							"internalType": "struct VotingPlus.Proposal[]",
							"name": "",
							"type": "tuple[]"
						}
					],
					"stateMutability": "view",
					"type": "function"
				},
				{
					"inputs": [
						{
							"internalType": "address",
							"name": "_address",
							"type": "address"
						}
					],
					"name": "getVoteTo",
					"outputs": [
						{
							"components": [
								{
									"internalType": "bool",
									"name": "isRegistered",
									"type": "bool"
								},
								{
									"internalType": "bool",
									"name": "hasVoted",
									"type": "bool"
								},
								{
									"internalType": "uint256",
									"name": "votedProposalId",
									"type": "uint256"
								}
							],
							"internalType": "struct VotingPlus.Voter",
							"name": "",
							"type": "tuple"
						}
					],
					"stateMutability": "view",
					"type": "function"
				},
				{
					"inputs": [],
					"name": "getWinner",
					"outputs": [
						{
							"components": [
								{
									"internalType": "string",
									"name": "description",
									"type": "string"
								},
								{
									"internalType": "uint256",
									"name": "voteCount",
									"type": "uint256"
								}
							],
							"internalType": "struct VotingPlus.Proposal",
							"name": "",
							"type": "tuple"
						}
					],
					"stateMutability": "view",
					"type": "function"
				},
				{
					"inputs": [],
					"name": "owner",
					"outputs": [
						{
							"internalType": "address",
							"name": "",
							"type": "address"
						}
					],
					"stateMutability": "view",
					"type": "function"
				},
				{
					"inputs": [],
					"name": "renounceOwnership",
					"outputs": [],
					"stateMutability": "nonpayable",
					"type": "function"
				},
				{
					"inputs": [],
					"name": "resetSession",
					"outputs": [],
					"stateMutability": "nonpayable",
					"type": "function"
				},
				{
					"inputs": [],
					"name": "startProposal",
					"outputs": [],
					"stateMutability": "nonpayable",
					"type": "function"
				},
				{
					"inputs": [],
					"name": "startVote",
					"outputs": [],
					"stateMutability": "nonpayable",
					"type": "function"
				},
				{
					"inputs": [],
					"name": "talliedVote",
					"outputs": [],
					"stateMutability": "nonpayable",
					"type": "function"
				},
				{
					"inputs": [
						{
							"internalType": "address",
							"name": "newOwner",
							"type": "address"
						}
					],
					"name": "transferOwnership",
					"outputs": [],
					"stateMutability": "nonpayable",
					"type": "function"
				},
				{
					"inputs": [
						{
							"internalType": "uint256",
							"name": "_id",
							"type": "uint256"
						}
					],
					"name": "vote",
					"outputs": [],
					"stateMutability": "nonpayable",
					"type": "function"
				}
			],
			"devdoc": {
				"errors": {
					"OwnableInvalidOwner(address)": [
						{
							"details": "The owner is not a valid owner account. (eg. `address(0)`)"
						}
					],
					"OwnableUnauthorizedAccount(address)": [
						{
							"details": "The caller account is not authorized to perform an operation."
						}
					]
				},
				"kind": "dev",
				"methods": {
					"addProposal(string)": {
						"params": {
							"_description": "string"
						}
					},
					"addVoter(address)": {
						"params": {
							"_address": "address"
						}
					},
					"getProposals()": {
						"returns": {
							"_0": "Proposal[]"
						}
					},
					"getVoteTo(address)": {
						"params": {
							"_address": "address"
						},
						"returns": {
							"_0": "Voter"
						}
					},
					"getWinner()": {
						"returns": {
							"_0": "Proposal"
						}
					},
					"owner()": {
						"details": "Returns the address of the current owner."
					},
					"renounceOwnership()": {
						"details": "Leaves the contract without owner. It will not be possible to call `onlyOwner` functions. Can only be called by the current owner. NOTE: Renouncing ownership will leave the contract without an owner, thereby disabling any functionality that is only available to the owner."
					},
					"transferOwnership(address)": {
						"details": "Transfers ownership of the contract to a new account (`newOwner`). Can only be called by the current owner."
					},
					"vote(uint256)": {
						"params": {
							"_id": "uint"
						}
					}
				},
				"version": 1
			},
			"evm": {
				"assembly": "    /* \"contracts/VotingPlus.sol\":113:6751  contract VotingPlus is Ownable {... */\n  mstore(0x40, 0x80)\n    /* \"contracts/VotingPlus.sol\":151:192  constructor() Ownable(msg.sender) {... */\n  callvalue\n  dup1\n  iszero\n  tag_1\n  jumpi\n  0x00\n  dup1\n  revert\ntag_1:\n  pop\n    /* \"contracts/VotingPlus.sol\":173:183  msg.sender */\n  caller\n    /* \"@openzeppelin/contracts/access/Ownable.sol\":1297:1298  0 */\n  0x00\n    /* \"@openzeppelin/contracts/access/Ownable.sol\":1273:1299  initialOwner == address(0) */\n  0xffffffffffffffffffffffffffffffffffffffff\n  and\n    /* \"@openzeppelin/contracts/access/Ownable.sol\":1273:1285  initialOwner */\n  dup2\n    /* \"@openzeppelin/contracts/access/Ownable.sol\":1273:1299  initialOwner == address(0) */\n  0xffffffffffffffffffffffffffffffffffffffff\n  and\n  sub\n    /* \"@openzeppelin/contracts/access/Ownable.sol\":1269:1364  if (initialOwner == address(0)) {... */\n  tag_5\n  jumpi\n    /* \"@openzeppelin/contracts/access/Ownable.sol\":1350:1351  0 */\n  0x00\n    /* \"@openzeppelin/contracts/access/Ownable.sol\":1322:1353  OwnableInvalidOwner(address(0)) */\n  mload(0x40)\n  0x1e4fbdf700000000000000000000000000000000000000000000000000000000\n  dup2\n  mstore\n  0x04\n  add\n  tag_6\n  swap2\n  swap1\n  tag_7\n  jump\t// in\ntag_6:\n  mload(0x40)\n  dup1\n  swap2\n  sub\n  swap1\n  revert\n    /* \"@openzeppelin/contracts/access/Ownable.sol\":1269:1364  if (initialOwner == address(0)) {... */\ntag_5:\n    /* \"@openzeppelin/contracts/access/Ownable.sol\":1373:1405  _transferOwnership(initialOwner) */\n  tag_8\n    /* \"@openzeppelin/contracts/access/Ownable.sol\":1392:1404  initialOwner */\n  dup2\n    /* \"@openzeppelin/contracts/access/Ownable.sol\":1373:1391  _transferOwnership */\n  shl(0x20, tag_9)\n    /* \"@openzeppelin/contracts/access/Ownable.sol\":1373:1405  _transferOwnership(initialOwner) */\n  0x20\n  shr\n  jump\t// in\ntag_8:\n    /* \"@openzeppelin/contracts/access/Ownable.sol\":1225:1412  constructor(address initialOwner) {... */\n  pop\n    /* \"contracts/VotingPlus.sol\":113:6751  contract VotingPlus is Ownable {... */\n  jump(tag_11)\n    /* \"@openzeppelin/contracts/access/Ownable.sol\":2912:3099  function _transferOwnership(address newOwner) internal virtual {... */\ntag_9:\n    /* \"@openzeppelin/contracts/access/Ownable.sol\":2985:3001  address oldOwner */\n  0x00\n    /* \"@openzeppelin/contracts/access/Ownable.sol\":3004:3010  _owner */\n  dup1\n  0x00\n  swap1\n  sload\n  swap1\n  0x0100\n  exp\n  swap1\n  div\n  0xffffffffffffffffffffffffffffffffffffffff\n  and\n    /* \"@openzeppelin/contracts/access/Ownable.sol\":2985:3010  address oldOwner = _owner */\n  swap1\n  pop\n    /* \"@openzeppelin/contracts/access/Ownable.sol\":3029:3037  newOwner */\n  dup2\n    /* \"@openzeppelin/contracts/access/Ownable.sol\":3020:3026  _owner */\n  0x00\n  dup1\n    /* \"@openzeppelin/contracts/access/Ownable.sol\":3020:3037  _owner = newOwner */\n  0x0100\n  exp\n  dup2\n  sload\n  dup2\n  0xffffffffffffffffffffffffffffffffffffffff\n  mul\n  not\n  and\n  swap1\n  dup4\n  0xffffffffffffffffffffffffffffffffffffffff\n  and\n  mul\n  or\n  swap1\n  sstore\n  pop\n    /* \"@openzeppelin/contracts/access/Ownable.sol\":3083:3091  newOwner */\n  dup2\n    /* \"@openzeppelin/contracts/access/Ownable.sol\":3052:3092  OwnershipTransferred(oldOwner, newOwner) */\n  0xffffffffffffffffffffffffffffffffffffffff\n  and\n    /* \"@openzeppelin/contracts/access/Ownable.sol\":3073:3081  oldOwner */\n  dup2\n    /* \"@openzeppelin/contracts/access/Ownable.sol\":3052:3092  OwnershipTransferred(oldOwner, newOwner) */\n  0xffffffffffffffffffffffffffffffffffffffff\n  and\n  0x8be0079c531659141344cd1fd0a4f28419497f9722a3daafe3b4186f6b6457e0\n  mload(0x40)\n  mload(0x40)\n  dup1\n  swap2\n  sub\n  swap1\n  log3\n    /* \"@openzeppelin/contracts/access/Ownable.sol\":2975:3099  {... */\n  pop\n    /* \"@openzeppelin/contracts/access/Ownable.sol\":2912:3099  function _transferOwnership(address newOwner) internal virtual {... */\n  pop\n  jump\t// out\n    /* \"#utility.yul\":7:133   */\ntag_13:\n    /* \"#utility.yul\":44:51   */\n  0x00\n    /* \"#utility.yul\":84:126   */\n  0xffffffffffffffffffffffffffffffffffffffff\n    /* \"#utility.yul\":77:82   */\n  dup3\n    /* \"#utility.yul\":73:127   */\n  and\n    /* \"#utility.yul\":62:127   */\n  swap1\n  pop\n    /* \"#utility.yul\":7:133   */\n  swap2\n  swap1\n  pop\n  jump\t// out\n    /* \"#utility.yul\":139:235   */\ntag_14:\n    /* \"#utility.yul\":176:183   */\n  0x00\n    /* \"#utility.yul\":205:229   */\n  tag_19\n    /* \"#utility.yul\":223:228   */\n  dup3\n    /* \"#utility.yul\":205:229   */\n  tag_13\n  jump\t// in\ntag_19:\n    /* \"#utility.yul\":194:229   */\n  swap1\n  pop\n    /* \"#utility.yul\":139:235   */\n  swap2\n  swap1\n  pop\n  jump\t// out\n    /* \"#utility.yul\":241:359   */\ntag_15:\n    /* \"#utility.yul\":328:352   */\n  tag_21\n    /* \"#utility.yul\":346:351   */\n  dup2\n    /* \"#utility.yul\":328:352   */\n  tag_14\n  jump\t// in\ntag_21:\n    /* \"#utility.yul\":323:326   */\n  dup3\n    /* \"#utility.yul\":316:353   */\n  mstore\n    /* \"#utility.yul\":241:359   */\n  pop\n  pop\n  jump\t// out\n    /* \"#utility.yul\":365:587   */\ntag_7:\n    /* \"#utility.yul\":458:462   */\n  0x00\n    /* \"#utility.yul\":496:498   */\n  0x20\n    /* \"#utility.yul\":485:494   */\n  dup3\n    /* \"#utility.yul\":481:499   */\n  add\n    /* \"#utility.yul\":473:499   */\n  swap1\n  pop\n    /* \"#utility.yul\":509:580   */\n  tag_23\n    /* \"#utility.yul\":577:578   */\n  0x00\n    /* \"#utility.yul\":566:575   */\n  dup4\n    /* \"#utility.yul\":562:579   */\n  add\n    /* \"#utility.yul\":553:559   */\n  dup5\n    /* \"#utility.yul\":509:580   */\n  tag_15\n  jump\t// in\ntag_23:\n    /* \"#utility.yul\":365:587   */\n  swap3\n  swap2\n  pop\n  pop\n  jump\t// out\n    /* \"contracts/VotingPlus.sol\":113:6751  contract VotingPlus is Ownable {... */\ntag_11:\n  dataSize(sub_0)\n  dup1\n  dataOffset(sub_0)\n  0x00\n  codecopy\n  0x00\n  return\nstop\n\nsub_0: assembly {\n        /* \"contracts/VotingPlus.sol\":113:6751  contract VotingPlus is Ownable {... */\n      mstore(0x40, 0x80)\n      callvalue\n      dup1\n      iszero\n      tag_1\n      jumpi\n      0x00\n      dup1\n      revert\n    tag_1:\n      pop\n      jumpi(tag_2, lt(calldatasize, 0x04))\n      shr(0xe0, calldataload(0x00))\n      dup1\n      0x8e7ea5b2\n      gt\n      tag_18\n      jumpi\n      dup1\n      0xb9223946\n      gt\n      tag_19\n      jumpi\n      dup1\n      0xb9223946\n      eq\n      tag_14\n      jumpi\n      dup1\n      0xf2fde38b\n      eq\n      tag_15\n      jumpi\n      dup1\n      0xf4ab9adf\n      eq\n      tag_16\n      jumpi\n      dup1\n      0xf8a3ce82\n      eq\n      tag_17\n      jumpi\n      jump(tag_2)\n    tag_19:\n      dup1\n      0x8e7ea5b2\n      eq\n      tag_10\n      jumpi\n      dup1\n      0x98f6560b\n      eq\n      tag_11\n      jumpi\n      dup1\n      0x9c6a46c4\n      eq\n      tag_12\n      jumpi\n      dup1\n      0xa587f077\n      eq\n      tag_13\n      jumpi\n      jump(tag_2)\n    tag_18:\n      dup1\n      0x4c0a6af0\n      gt\n      tag_20\n      jumpi\n      dup1\n      0x4c0a6af0\n      eq\n      tag_6\n      jumpi\n      dup1\n      0x62564c48\n      eq\n      tag_7\n      jumpi\n      dup1\n      0x715018a6\n      eq\n      tag_8\n      jumpi\n      dup1\n      0x8da5cb5b\n      eq\n      tag_9\n      jumpi\n      jump(tag_2)\n    tag_20:\n      dup1\n      0x0121b93f\n      eq\n      tag_3\n      jumpi\n      dup1\n      0x274da81f\n      eq\n      tag_4\n      jumpi\n      dup1\n      0x2fdae3c5\n      eq\n      tag_5\n      jumpi\n    tag_2:\n      0x00\n      dup1\n      revert\n        /* \"contracts/VotingPlus.sol\":4680:5190  function vote(uint _id) external isAuthorize {... */\n    tag_3:\n      tag_21\n      0x04\n      dup1\n      calldatasize\n      sub\n      dup2\n      add\n      swap1\n      tag_22\n      swap2\n      swap1\n      tag_23\n      jump\t// in\n    tag_22:\n      tag_24\n      jump\t// in\n    tag_21:\n      stop\n        /* \"contracts/VotingPlus.sol\":1609:1899  function startProposal() external onlyOwner {... */\n    tag_4:\n      tag_25\n      tag_26\n      jump\t// in\n    tag_25:\n      stop\n        /* \"contracts/VotingPlus.sol\":4253:4537  function addProposal(string calldata _description) external isAuthorize {... */\n    tag_5:\n      tag_27\n      0x04\n      dup1\n      calldatasize\n      sub\n      dup2\n      add\n      swap1\n      tag_28\n      swap2\n      swap1\n      tag_29\n      jump\t// in\n    tag_28:\n      tag_30\n      jump\t// in\n    tag_27:\n      stop\n        /* \"contracts/VotingPlus.sol\":1956:2254  function startVote() external onlyOwner {... */\n    tag_6:\n      tag_31\n      tag_32\n      jump\t// in\n    tag_31:\n      stop\n        /* \"contracts/VotingPlus.sol\":5307:5482  function getProposals() external view isAuthorize returns(Proposal[] memory) {... */\n    tag_7:\n      tag_33\n      tag_34\n      jump\t// in\n    tag_33:\n      mload(0x40)\n      tag_35\n      swap2\n      swap1\n      tag_36\n      jump\t// in\n    tag_35:\n      mload(0x40)\n      dup1\n      swap2\n      sub\n      swap1\n      return\n        /* \"@openzeppelin/contracts/access/Ownable.sol\":2293:2394  function renounceOwnership() public virtual onlyOwner {... */\n    tag_8:\n      tag_37\n      tag_38\n      jump\t// in\n    tag_37:\n      stop\n        /* \"@openzeppelin/contracts/access/Ownable.sol\":1638:1723  function owner() public view virtual returns (address) {... */\n    tag_9:\n      tag_39\n      tag_40\n      jump\t// in\n    tag_39:\n      mload(0x40)\n      tag_41\n      swap2\n      swap1\n      tag_42\n      jump\t// in\n    tag_41:\n      mload(0x40)\n      dup1\n      swap2\n      sub\n      swap1\n      return\n        /* \"contracts/VotingPlus.sol\":5909:6108  function getWinner() external view returns (Proposal memory) {... */\n    tag_10:\n      tag_43\n      tag_44\n      jump\t// in\n    tag_43:\n      mload(0x40)\n      tag_45\n      swap2\n      swap1\n      tag_46\n      jump\t// in\n    tag_45:\n      mload(0x40)\n      dup1\n      swap2\n      sub\n      swap1\n      return\n        /* \"contracts/VotingPlus.sol\":2321:2621  function endProposal() external onlyOwner {... */\n    tag_11:\n      tag_47\n      tag_48\n      jump\t// in\n    tag_47:\n      stop\n        /* \"contracts/VotingPlus.sol\":3014:3625  function talliedVote() external onlyOwner {... */\n    tag_12:\n      tag_49\n      tag_50\n      jump\t// in\n    tag_49:\n      stop\n        /* \"contracts/VotingPlus.sol\":5623:5838  function getVoteTo(address _address) external view isAuthorize returns(Voter memory) {... */\n    tag_13:\n      tag_51\n      0x04\n      dup1\n      calldatasize\n      sub\n      dup2\n      add\n      swap1\n      tag_52\n      swap2\n      swap1\n      tag_53\n      jump\t// in\n    tag_52:\n      tag_54\n      jump\t// in\n    tag_51:\n      mload(0x40)\n      tag_55\n      swap2\n      swap1\n      tag_56\n      jump\t// in\n    tag_55:\n      mload(0x40)\n      dup1\n      swap2\n      sub\n      swap1\n      return\n        /* \"contracts/VotingPlus.sol\":2681:2949  function endVote() external onlyOwner {... */\n    tag_14:\n      tag_57\n      tag_58\n      jump\t// in\n    tag_57:\n      stop\n        /* \"@openzeppelin/contracts/access/Ownable.sol\":2543:2758  function transferOwnership(address newOwner) public virtual onlyOwner {... */\n    tag_15:\n      tag_59\n      0x04\n      dup1\n      calldatasize\n      sub\n      dup2\n      add\n      swap1\n      tag_60\n      swap2\n      swap1\n      tag_53\n      jump\t// in\n    tag_60:\n      tag_61\n      jump\t// in\n    tag_59:\n      stop\n        /* \"contracts/VotingPlus.sol\":3742:4129  function addVoter(address _address) external onlyOwner {... */\n    tag_16:\n      tag_62\n      0x04\n      dup1\n      calldatasize\n      sub\n      dup2\n      add\n      swap1\n      tag_63\n      swap2\n      swap1\n      tag_53\n      jump\t// in\n    tag_63:\n      tag_64\n      jump\t// in\n    tag_62:\n      stop\n        /* \"contracts/VotingPlus.sol\":6153:6748  function resetSession() external onlyOwner {... */\n    tag_17:\n      tag_65\n      tag_66\n      jump\t// in\n    tag_65:\n      stop\n        /* \"contracts/VotingPlus.sol\":4680:5190  function vote(uint _id) external isAuthorize {... */\n    tag_24:\n        /* \"contracts/VotingPlus.sol\":1452:1461  whiteList */\n      0x01\n        /* \"contracts/VotingPlus.sol\":1452:1466  whiteList.list */\n      0x00\n      add\n        /* \"contracts/VotingPlus.sol\":1452:1478  whiteList.list[msg.sender] */\n      0x00\n        /* \"contracts/VotingPlus.sol\":1467:1477  msg.sender */\n      caller\n        /* \"contracts/VotingPlus.sol\":1452:1478  whiteList.list[msg.sender] */\n      0xffffffffffffffffffffffffffffffffffffffff\n      and\n      0xffffffffffffffffffffffffffffffffffffffff\n      and\n      dup2\n      mstore\n      0x20\n      add\n      swap1\n      dup2\n      mstore\n      0x20\n      add\n      0x00\n      keccak256\n        /* \"contracts/VotingPlus.sol\":1452:1491  whiteList.list[msg.sender].isRegistered */\n      0x00\n      add\n      0x00\n      swap1\n      sload\n      swap1\n      0x0100\n      exp\n      swap1\n      div\n      0xff\n      and\n        /* \"contracts/VotingPlus.sol\":1444:1527  require(whiteList.list[msg.sender].isRegistered, \"Your are not registered in list\") */\n      tag_68\n      jumpi\n      mload(0x40)\n      0x08c379a000000000000000000000000000000000000000000000000000000000\n      dup2\n      mstore\n      0x04\n      add\n      tag_69\n      swap1\n      tag_70\n      jump\t// in\n    tag_69:\n      mload(0x40)\n      dup1\n      swap2\n      sub\n      swap1\n      revert\n    tag_68:\n        /* \"contracts/VotingPlus.sol\":4753:4788  WorkflowStatus.VotingSessionStarted */\n      0x03\n        /* \"contracts/VotingPlus.sol\":4743:4788  status == WorkflowStatus.VotingSessionStarted */\n      0x05\n      dup2\n      gt\n      iszero\n      tag_72\n      jumpi\n      tag_73\n      tag_74\n      jump\t// in\n    tag_73:\n    tag_72:\n        /* \"contracts/VotingPlus.sol\":4743:4749  status */\n      0x04\n      0x00\n      swap1\n      sload\n      swap1\n      0x0100\n      exp\n      swap1\n      div\n      0xff\n      and\n        /* \"contracts/VotingPlus.sol\":4743:4788  status == WorkflowStatus.VotingSessionStarted */\n      0x05\n      dup2\n      gt\n      iszero\n      tag_75\n      jumpi\n      tag_76\n      tag_74\n      jump\t// in\n    tag_76:\n    tag_75:\n      eq\n        /* \"contracts/VotingPlus.sol\":4735:4818  require(status == WorkflowStatus.VotingSessionStarted, \"It must be voting session\") */\n      tag_77\n      jumpi\n      mload(0x40)\n      0x08c379a000000000000000000000000000000000000000000000000000000000\n      dup2\n      mstore\n      0x04\n      add\n      tag_78\n      swap1\n      tag_79\n      jump\t// in\n    tag_78:\n      mload(0x40)\n      dup1\n      swap2\n      sub\n      swap1\n      revert\n    tag_77:\n        /* \"contracts/VotingPlus.sol\":4837:4846  whiteList */\n      0x01\n        /* \"contracts/VotingPlus.sol\":4837:4851  whiteList.list */\n      0x00\n      add\n        /* \"contracts/VotingPlus.sol\":4837:4863  whiteList.list[msg.sender] */\n      0x00\n        /* \"contracts/VotingPlus.sol\":4852:4862  msg.sender */\n      caller\n        /* \"contracts/VotingPlus.sol\":4837:4863  whiteList.list[msg.sender] */\n      0xffffffffffffffffffffffffffffffffffffffff\n      and\n      0xffffffffffffffffffffffffffffffffffffffff\n      and\n      dup2\n      mstore\n      0x20\n      add\n      swap1\n      dup2\n      mstore\n      0x20\n      add\n      0x00\n      keccak256\n        /* \"contracts/VotingPlus.sol\":4837:4872  whiteList.list[msg.sender].hasVoted */\n      0x00\n      add\n      0x01\n      swap1\n      sload\n      swap1\n      0x0100\n      exp\n      swap1\n      div\n      0xff\n      and\n        /* \"contracts/VotingPlus.sol\":4836:4872  !whiteList.list[msg.sender].hasVoted */\n      iszero\n        /* \"contracts/VotingPlus.sol\":4828:4899  require(!whiteList.list[msg.sender].hasVoted, \"You have already voted\") */\n      tag_80\n      jumpi\n      mload(0x40)\n      0x08c379a000000000000000000000000000000000000000000000000000000000\n      dup2\n      mstore\n      0x04\n      add\n      tag_81\n      swap1\n      tag_82\n      jump\t// in\n    tag_81:\n      mload(0x40)\n      dup1\n      swap2\n      sub\n      swap1\n      revert\n    tag_80:\n        /* \"contracts/VotingPlus.sol\":4937:4938  0 */\n      0x00\n        /* \"contracts/VotingPlus.sol\":4917:4926  proposals */\n      0x03\n        /* \"contracts/VotingPlus.sol\":4917:4933  proposals.length */\n      dup1\n      sload\n      swap1\n      pop\n        /* \"contracts/VotingPlus.sol\":4917:4938  proposals.length != 0 */\n      eq\n      iszero\n        /* \"contracts/VotingPlus.sol\":4917:4965  proposals.length != 0 && _id <= proposals.length */\n      dup1\n      iszero\n      tag_83\n      jumpi\n      pop\n        /* \"contracts/VotingPlus.sol\":4949:4958  proposals */\n      0x03\n        /* \"contracts/VotingPlus.sol\":4949:4965  proposals.length */\n      dup1\n      sload\n      swap1\n      pop\n        /* \"contracts/VotingPlus.sol\":4942:4945  _id */\n      dup2\n        /* \"contracts/VotingPlus.sol\":4942:4965  _id <= proposals.length */\n      gt\n      iszero\n        /* \"contracts/VotingPlus.sol\":4917:4965  proposals.length != 0 && _id <= proposals.length */\n    tag_83:\n        /* \"contracts/VotingPlus.sol\":4909:4997  require(proposals.length != 0 && _id <= proposals.length, \"This proposal doesn't exist\") */\n      tag_84\n      jumpi\n      mload(0x40)\n      0x08c379a000000000000000000000000000000000000000000000000000000000\n      dup2\n      mstore\n      0x04\n      add\n      tag_85\n      swap1\n      tag_86\n      jump\t// in\n    tag_85:\n      mload(0x40)\n      dup1\n      swap2\n      sub\n      swap1\n      revert\n    tag_84:\n        /* \"contracts/VotingPlus.sol\":5045:5049  true */\n      0x01\n        /* \"contracts/VotingPlus.sol\":5007:5016  whiteList */\n      dup1\n        /* \"contracts/VotingPlus.sol\":5007:5021  whiteList.list */\n      0x00\n      add\n        /* \"contracts/VotingPlus.sol\":5007:5033  whiteList.list[msg.sender] */\n      0x00\n        /* \"contracts/VotingPlus.sol\":5022:5032  msg.sender */\n      caller\n        /* \"contracts/VotingPlus.sol\":5007:5033  whiteList.list[msg.sender] */\n      0xffffffffffffffffffffffffffffffffffffffff\n      and\n      0xffffffffffffffffffffffffffffffffffffffff\n      and\n      dup2\n      mstore\n      0x20\n      add\n      swap1\n      dup2\n      mstore\n      0x20\n      add\n      0x00\n      keccak256\n        /* \"contracts/VotingPlus.sol\":5007:5042  whiteList.list[msg.sender].hasVoted */\n      0x00\n      add\n      0x01\n        /* \"contracts/VotingPlus.sol\":5007:5049  whiteList.list[msg.sender].hasVoted = true */\n      0x0100\n      exp\n      dup2\n      sload\n      dup2\n      0xff\n      mul\n      not\n      and\n      swap1\n      dup4\n      iszero\n      iszero\n      mul\n      or\n      swap1\n      sstore\n      pop\n        /* \"contracts/VotingPlus.sol\":5104:5107  _id */\n      dup1\n        /* \"contracts/VotingPlus.sol\":5059:5068  whiteList */\n      0x01\n        /* \"contracts/VotingPlus.sol\":5059:5073  whiteList.list */\n      0x00\n      add\n        /* \"contracts/VotingPlus.sol\":5059:5085  whiteList.list[msg.sender] */\n      0x00\n        /* \"contracts/VotingPlus.sol\":5074:5084  msg.sender */\n      caller\n        /* \"contracts/VotingPlus.sol\":5059:5085  whiteList.list[msg.sender] */\n      0xffffffffffffffffffffffffffffffffffffffff\n      and\n      0xffffffffffffffffffffffffffffffffffffffff\n      and\n      dup2\n      mstore\n      0x20\n      add\n      swap1\n      dup2\n      mstore\n      0x20\n      add\n      0x00\n      keccak256\n        /* \"contracts/VotingPlus.sol\":5059:5101  whiteList.list[msg.sender].votedProposalId */\n      0x01\n      add\n        /* \"contracts/VotingPlus.sol\":5059:5107  whiteList.list[msg.sender].votedProposalId = _id */\n      dup2\n      swap1\n      sstore\n      pop\n        /* \"contracts/VotingPlus.sol\":5145:5146  1 */\n      0x01\n        /* \"contracts/VotingPlus.sol\":5117:5126  proposals */\n      0x03\n        /* \"contracts/VotingPlus.sol\":5127:5130  _id */\n      dup3\n        /* \"contracts/VotingPlus.sol\":5117:5131  proposals[_id] */\n      dup2\n      sload\n      dup2\n      lt\n      tag_87\n      jumpi\n      tag_88\n      tag_89\n      jump\t// in\n    tag_88:\n    tag_87:\n      swap1\n      0x00\n      mstore\n      keccak256(0x00, 0x20)\n      swap1\n      0x02\n      mul\n      add\n        /* \"contracts/VotingPlus.sol\":5117:5141  proposals[_id].voteCount */\n      0x01\n      add\n      0x00\n        /* \"contracts/VotingPlus.sol\":5117:5146  proposals[_id].voteCount += 1 */\n      dup3\n      dup3\n      sload\n      tag_91\n      swap2\n      swap1\n      tag_92\n      jump\t// in\n    tag_91:\n      swap3\n      pop\n      pop\n      dup2\n      swap1\n      sstore\n      pop\n        /* \"contracts/VotingPlus.sol\":5161:5183  Voted(msg.sender, _id) */\n      0x4d99b957a2bc29a30ebd96a7be8e68fe50a3c701db28a91436490b7d53870ca4\n        /* \"contracts/VotingPlus.sol\":5167:5177  msg.sender */\n      caller\n        /* \"contracts/VotingPlus.sol\":5179:5182  _id */\n      dup3\n        /* \"contracts/VotingPlus.sol\":5161:5183  Voted(msg.sender, _id) */\n      mload(0x40)\n      tag_93\n      swap3\n      swap2\n      swap1\n      tag_94\n      jump\t// in\n    tag_93:\n      mload(0x40)\n      dup1\n      swap2\n      sub\n      swap1\n      log1\n        /* \"contracts/VotingPlus.sol\":4680:5190  function vote(uint _id) external isAuthorize {... */\n      pop\n      jump\t// out\n        /* \"contracts/VotingPlus.sol\":1609:1899  function startProposal() external onlyOwner {... */\n    tag_26:\n        /* \"@openzeppelin/contracts/access/Ownable.sol\":1531:1544  _checkOwner() */\n      tag_96\n        /* \"@openzeppelin/contracts/access/Ownable.sol\":1531:1542  _checkOwner */\n      tag_97\n        /* \"@openzeppelin/contracts/access/Ownable.sol\":1531:1544  _checkOwner() */\n      jump\t// in\n    tag_96:\n        /* \"contracts/VotingPlus.sol\":1681:1713  WorkflowStatus.RegisteringVoters */\n      0x00\n        /* \"contracts/VotingPlus.sol\":1671:1713  status == WorkflowStatus.RegisteringVoters */\n      0x05\n      dup2\n      gt\n      iszero\n      tag_99\n      jumpi\n      tag_100\n      tag_74\n      jump\t// in\n    tag_100:\n    tag_99:\n        /* \"contracts/VotingPlus.sol\":1671:1677  status */\n      0x04\n      0x00\n      swap1\n      sload\n      swap1\n      0x0100\n      exp\n      swap1\n      div\n      0xff\n      and\n        /* \"contracts/VotingPlus.sol\":1671:1713  status == WorkflowStatus.RegisteringVoters */\n      0x05\n      dup2\n      gt\n      iszero\n      tag_101\n      jumpi\n      tag_102\n      tag_74\n      jump\t// in\n    tag_102:\n    tag_101:\n      eq\n        /* \"contracts/VotingPlus.sol\":1663:1753  require(status == WorkflowStatus.RegisteringVoters, \"It must be registering voter before\") */\n      tag_103\n      jumpi\n      mload(0x40)\n      0x08c379a000000000000000000000000000000000000000000000000000000000\n      dup2\n      mstore\n      0x04\n      add\n      tag_104\n      swap1\n      tag_105\n      jump\t// in\n    tag_104:\n      mload(0x40)\n      dup1\n      swap2\n      sub\n      swap1\n      revert\n    tag_103:\n        /* \"contracts/VotingPlus.sol\":1772:1815  WorkflowStatus.ProposalsRegistrationStarted */\n      0x01\n        /* \"contracts/VotingPlus.sol\":1763:1769  status */\n      0x04\n      0x00\n        /* \"contracts/VotingPlus.sol\":1763:1815  status = WorkflowStatus.ProposalsRegistrationStarted */\n      0x0100\n      exp\n      dup2\n      sload\n      dup2\n      0xff\n      mul\n      not\n      and\n      swap1\n      dup4\n      0x05\n      dup2\n      gt\n      iszero\n      tag_106\n      jumpi\n      tag_107\n      tag_74\n      jump\t// in\n    tag_107:\n    tag_106:\n      mul\n      or\n      swap1\n      sstore\n      pop\n        /* \"contracts/VotingPlus.sol\":1830:1892  WorkflowStatusChange(WorkflowStatus.RegisteringVoters, status) */\n      0x0a97a4ee45751e2abf3e4fc8946939630b11b371ea8ae39ccdc3056e98f5cc3f\n        /* \"contracts/VotingPlus.sol\":1851:1883  WorkflowStatus.RegisteringVoters */\n      0x00\n        /* \"contracts/VotingPlus.sol\":1885:1891  status */\n      0x04\n      0x00\n      swap1\n      sload\n      swap1\n      0x0100\n      exp\n      swap1\n      div\n      0xff\n      and\n        /* \"contracts/VotingPlus.sol\":1830:1892  WorkflowStatusChange(WorkflowStatus.RegisteringVoters, status) */\n      mload(0x40)\n      tag_108\n      swap3\n      swap2\n      swap1\n      tag_109\n      jump\t// in\n    tag_108:\n      mload(0x40)\n      dup1\n      swap2\n      sub\n      swap1\n      log1\n        /* \"contracts/VotingPlus.sol\":1609:1899  function startProposal() external onlyOwner {... */\n      jump\t// out\n        /* \"contracts/VotingPlus.sol\":4253:4537  function addProposal(string calldata _description) external isAuthorize {... */\n    tag_30:\n        /* \"contracts/VotingPlus.sol\":1452:1461  whiteList */\n      0x01\n        /* \"contracts/VotingPlus.sol\":1452:1466  whiteList.list */\n      0x00\n      add\n        /* \"contracts/VotingPlus.sol\":1452:1478  whiteList.list[msg.sender] */\n      0x00\n        /* \"contracts/VotingPlus.sol\":1467:1477  msg.sender */\n      caller\n        /* \"contracts/VotingPlus.sol\":1452:1478  whiteList.list[msg.sender] */\n      0xffffffffffffffffffffffffffffffffffffffff\n      and\n      0xffffffffffffffffffffffffffffffffffffffff\n      and\n      dup2\n      mstore\n      0x20\n      add\n      swap1\n      dup2\n      mstore\n      0x20\n      add\n      0x00\n      keccak256\n        /* \"contracts/VotingPlus.sol\":1452:1491  whiteList.list[msg.sender].isRegistered */\n      0x00\n      add\n      0x00\n      swap1\n      sload\n      swap1\n      0x0100\n      exp\n      swap1\n      div\n      0xff\n      and\n        /* \"contracts/VotingPlus.sol\":1444:1527  require(whiteList.list[msg.sender].isRegistered, \"Your are not registered in list\") */\n      tag_111\n      jumpi\n      mload(0x40)\n      0x08c379a000000000000000000000000000000000000000000000000000000000\n      dup2\n      mstore\n      0x04\n      add\n      tag_112\n      swap1\n      tag_70\n      jump\t// in\n    tag_112:\n      mload(0x40)\n      dup1\n      swap2\n      sub\n      swap1\n      revert\n    tag_111:\n        /* \"contracts/VotingPlus.sol\":4353:4396  WorkflowStatus.ProposalsRegistrationStarted */\n      0x01\n        /* \"contracts/VotingPlus.sol\":4343:4396  status == WorkflowStatus.ProposalsRegistrationStarted */\n      0x05\n      dup2\n      gt\n      iszero\n      tag_114\n      jumpi\n      tag_115\n      tag_74\n      jump\t// in\n    tag_115:\n    tag_114:\n        /* \"contracts/VotingPlus.sol\":4343:4349  status */\n      0x04\n      0x00\n      swap1\n      sload\n      swap1\n      0x0100\n      exp\n      swap1\n      div\n      0xff\n      and\n        /* \"contracts/VotingPlus.sol\":4343:4396  status == WorkflowStatus.ProposalsRegistrationStarted */\n      0x05\n      dup2\n      gt\n      iszero\n      tag_116\n      jumpi\n      tag_117\n      tag_74\n      jump\t// in\n    tag_117:\n    tag_116:\n      eq\n        /* \"contracts/VotingPlus.sol\":4335:4428  require(status == WorkflowStatus.ProposalsRegistrationStarted, \"It must be proposal session\") */\n      tag_118\n      jumpi\n      mload(0x40)\n      0x08c379a000000000000000000000000000000000000000000000000000000000\n      dup2\n      mstore\n      0x04\n      add\n      tag_119\n      swap1\n      tag_120\n      jump\t// in\n    tag_119:\n      mload(0x40)\n      dup1\n      swap2\n      sub\n      swap1\n      revert\n    tag_118:\n        /* \"contracts/VotingPlus.sol\":4438:4447  proposals */\n      0x03\n        /* \"contracts/VotingPlus.sol\":4453:4478  Proposal(_description, 0) */\n      mload(0x40)\n      dup1\n      0x40\n      add\n      0x40\n      mstore\n      dup1\n        /* \"contracts/VotingPlus.sol\":4462:4474  _description */\n      dup5\n      dup5\n        /* \"contracts/VotingPlus.sol\":4453:4478  Proposal(_description, 0) */\n      dup1\n      dup1\n      0x1f\n      add\n      0x20\n      dup1\n      swap2\n      div\n      mul\n      0x20\n      add\n      mload(0x40)\n      swap1\n      dup2\n      add\n      0x40\n      mstore\n      dup1\n      swap4\n      swap3\n      swap2\n      swap1\n      dup2\n      dup2\n      mstore\n      0x20\n      add\n      dup4\n      dup4\n      dup1\n      dup3\n      dup5\n      calldatacopy\n      0x00\n      dup2\n      dup5\n      add\n      mstore\n      not(0x1f)\n      0x1f\n      dup3\n      add\n      and\n      swap1\n      pop\n      dup1\n      dup4\n      add\n      swap3\n      pop\n      pop\n      pop\n      pop\n      pop\n      pop\n      pop\n      dup2\n      mstore\n      0x20\n      add\n        /* \"contracts/VotingPlus.sol\":4476:4477  0 */\n      0x00\n        /* \"contracts/VotingPlus.sol\":4453:4478  Proposal(_description, 0) */\n      dup2\n      mstore\n      pop\n        /* \"contracts/VotingPlus.sol\":4438:4479  proposals.push(Proposal(_description, 0)) */\n      swap1\n      dup1\n      0x01\n      dup2\n      sload\n      add\n      dup1\n      dup3\n      sstore\n      dup1\n      swap2\n      pop\n      pop\n      0x01\n      swap1\n      sub\n      swap1\n      0x00\n      mstore\n      keccak256(0x00, 0x20)\n      swap1\n      0x02\n      mul\n      add\n      0x00\n      swap1\n      swap2\n      swap1\n      swap2\n      swap1\n      swap2\n      pop\n      0x00\n      dup3\n      add\n      mload\n      dup2\n      0x00\n      add\n      swap1\n      dup2\n      tag_122\n      swap2\n      swap1\n      tag_123\n      jump\t// in\n    tag_122:\n      pop\n      0x20\n      dup3\n      add\n      mload\n      dup2\n      0x01\n      add\n      sstore\n      pop\n      pop\n        /* \"contracts/VotingPlus.sol\":4494:4530  ProposalRegistered(proposals.length) */\n      0x92e393e9b54e2f801d3ea4beb0c5e71a21cc34a5d34b77d0fb8a3aa1650dc18f\n        /* \"contracts/VotingPlus.sol\":4513:4522  proposals */\n      0x03\n        /* \"contracts/VotingPlus.sol\":4513:4529  proposals.length */\n      dup1\n      sload\n      swap1\n      pop\n        /* \"contracts/VotingPlus.sol\":4494:4530  ProposalRegistered(proposals.length) */\n      mload(0x40)\n      tag_124\n      swap2\n      swap1\n      tag_125\n      jump\t// in\n    tag_124:\n      mload(0x40)\n      dup1\n      swap2\n      sub\n      swap1\n      log1\n        /* \"contracts/VotingPlus.sol\":4253:4537  function addProposal(string calldata _description) external isAuthorize {... */\n      pop\n      pop\n      jump\t// out\n        /* \"contracts/VotingPlus.sol\":1956:2254  function startVote() external onlyOwner {... */\n    tag_32:\n        /* \"@openzeppelin/contracts/access/Ownable.sol\":1531:1544  _checkOwner() */\n      tag_127\n        /* \"@openzeppelin/contracts/access/Ownable.sol\":1531:1542  _checkOwner */\n      tag_97\n        /* \"@openzeppelin/contracts/access/Ownable.sol\":1531:1544  _checkOwner() */\n      jump\t// in\n    tag_127:\n        /* \"contracts/VotingPlus.sol\":2024:2065  WorkflowStatus.ProposalsRegistrationEnded */\n      0x02\n        /* \"contracts/VotingPlus.sol\":2014:2065  status == WorkflowStatus.ProposalsRegistrationEnded */\n      0x05\n      dup2\n      gt\n      iszero\n      tag_129\n      jumpi\n      tag_130\n      tag_74\n      jump\t// in\n    tag_130:\n    tag_129:\n        /* \"contracts/VotingPlus.sol\":2014:2020  status */\n      0x04\n      0x00\n      swap1\n      sload\n      swap1\n      0x0100\n      exp\n      swap1\n      div\n      0xff\n      and\n        /* \"contracts/VotingPlus.sol\":2014:2065  status == WorkflowStatus.ProposalsRegistrationEnded */\n      0x05\n      dup2\n      gt\n      iszero\n      tag_131\n      jumpi\n      tag_132\n      tag_74\n      jump\t// in\n    tag_132:\n    tag_131:\n      eq\n        /* \"contracts/VotingPlus.sol\":2006:2107  require(status == WorkflowStatus.ProposalsRegistrationEnded, \"It must be the end of proposal before\") */\n      tag_133\n      jumpi\n      mload(0x40)\n      0x08c379a000000000000000000000000000000000000000000000000000000000\n      dup2\n      mstore\n      0x04\n      add\n      tag_134\n      swap1\n      tag_135\n      jump\t// in\n    tag_134:\n      mload(0x40)\n      dup1\n      swap2\n      sub\n      swap1\n      revert\n    tag_133:\n        /* \"contracts/VotingPlus.sol\":2126:2161  WorkflowStatus.VotingSessionStarted */\n      0x03\n        /* \"contracts/VotingPlus.sol\":2117:2123  status */\n      0x04\n      0x00\n        /* \"contracts/VotingPlus.sol\":2117:2161  status = WorkflowStatus.VotingSessionStarted */\n      0x0100\n      exp\n      dup2\n      sload\n      dup2\n      0xff\n      mul\n      not\n      and\n      swap1\n      dup4\n      0x05\n      dup2\n      gt\n      iszero\n      tag_136\n      jumpi\n      tag_137\n      tag_74\n      jump\t// in\n    tag_137:\n    tag_136:\n      mul\n      or\n      swap1\n      sstore\n      pop\n        /* \"contracts/VotingPlus.sol\":2176:2247  WorkflowStatusChange(WorkflowStatus.ProposalsRegistrationEnded, status) */\n      0x0a97a4ee45751e2abf3e4fc8946939630b11b371ea8ae39ccdc3056e98f5cc3f\n        /* \"contracts/VotingPlus.sol\":2197:2238  WorkflowStatus.ProposalsRegistrationEnded */\n      0x02\n        /* \"contracts/VotingPlus.sol\":2240:2246  status */\n      0x04\n      0x00\n      swap1\n      sload\n      swap1\n      0x0100\n      exp\n      swap1\n      div\n      0xff\n      and\n        /* \"contracts/VotingPlus.sol\":2176:2247  WorkflowStatusChange(WorkflowStatus.ProposalsRegistrationEnded, status) */\n      mload(0x40)\n      tag_138\n      swap3\n      swap2\n      swap1\n      tag_109\n      jump\t// in\n    tag_138:\n      mload(0x40)\n      dup1\n      swap2\n      sub\n      swap1\n      log1\n        /* \"contracts/VotingPlus.sol\":1956:2254  function startVote() external onlyOwner {... */\n      jump\t// out\n        /* \"contracts/VotingPlus.sol\":5307:5482  function getProposals() external view isAuthorize returns(Proposal[] memory) {... */\n    tag_34:\n        /* \"contracts/VotingPlus.sol\":5365:5382  Proposal[] memory */\n      0x60\n        /* \"contracts/VotingPlus.sol\":1452:1461  whiteList */\n      0x01\n        /* \"contracts/VotingPlus.sol\":1452:1466  whiteList.list */\n      0x00\n      add\n        /* \"contracts/VotingPlus.sol\":1452:1478  whiteList.list[msg.sender] */\n      0x00\n        /* \"contracts/VotingPlus.sol\":1467:1477  msg.sender */\n      caller\n        /* \"contracts/VotingPlus.sol\":1452:1478  whiteList.list[msg.sender] */\n      0xffffffffffffffffffffffffffffffffffffffff\n      and\n      0xffffffffffffffffffffffffffffffffffffffff\n      and\n      dup2\n      mstore\n      0x20\n      add\n      swap1\n      dup2\n      mstore\n      0x20\n      add\n      0x00\n      keccak256\n        /* \"contracts/VotingPlus.sol\":1452:1491  whiteList.list[msg.sender].isRegistered */\n      0x00\n      add\n      0x00\n      swap1\n      sload\n      swap1\n      0x0100\n      exp\n      swap1\n      div\n      0xff\n      and\n        /* \"contracts/VotingPlus.sol\":1444:1527  require(whiteList.list[msg.sender].isRegistered, \"Your are not registered in list\") */\n      tag_140\n      jumpi\n      mload(0x40)\n      0x08c379a000000000000000000000000000000000000000000000000000000000\n      dup2\n      mstore\n      0x04\n      add\n      tag_141\n      swap1\n      tag_70\n      jump\t// in\n    tag_141:\n      mload(0x40)\n      dup1\n      swap2\n      sub\n      swap1\n      revert\n    tag_140:\n        /* \"contracts/VotingPlus.sol\":5422:5423  0 */\n      0x00\n        /* \"contracts/VotingPlus.sol\":5402:5411  proposals */\n      0x03\n        /* \"contracts/VotingPlus.sol\":5402:5418  proposals.length */\n      dup1\n      sload\n      swap1\n      pop\n        /* \"contracts/VotingPlus.sol\":5402:5423  proposals.length != 0 */\n      sub\n        /* \"contracts/VotingPlus.sol\":5394:5449  require(proposals.length != 0, \"There aren't proposal\") */\n      tag_143\n      jumpi\n      mload(0x40)\n      0x08c379a000000000000000000000000000000000000000000000000000000000\n      dup2\n      mstore\n      0x04\n      add\n      tag_144\n      swap1\n      tag_145\n      jump\t// in\n    tag_144:\n      mload(0x40)\n      dup1\n      swap2\n      sub\n      swap1\n      revert\n    tag_143:\n        /* \"contracts/VotingPlus.sol\":5466:5475  proposals */\n      0x03\n        /* \"contracts/VotingPlus.sol\":5459:5475  return proposals */\n      dup1\n      sload\n      dup1\n      0x20\n      mul\n      0x20\n      add\n      mload(0x40)\n      swap1\n      dup2\n      add\n      0x40\n      mstore\n      dup1\n      swap3\n      swap2\n      swap1\n      dup2\n      dup2\n      mstore\n      0x20\n      add\n      0x00\n      swap1\n    tag_146:\n      dup3\n      dup3\n      lt\n      iszero\n      tag_147\n      jumpi\n      dup4\n      dup3\n      swap1\n      0x00\n      mstore\n      keccak256(0x00, 0x20)\n      swap1\n      0x02\n      mul\n      add\n      mload(0x40)\n      dup1\n      0x40\n      add\n      0x40\n      mstore\n      swap1\n      dup2\n      0x00\n      dup3\n      add\n      dup1\n      sload\n      tag_149\n      swap1\n      tag_150\n      jump\t// in\n    tag_149:\n      dup1\n      0x1f\n      add\n      0x20\n      dup1\n      swap2\n      div\n      mul\n      0x20\n      add\n      mload(0x40)\n      swap1\n      dup2\n      add\n      0x40\n      mstore\n      dup1\n      swap3\n      swap2\n      swap1\n      dup2\n      dup2\n      mstore\n      0x20\n      add\n      dup3\n      dup1\n      sload\n      tag_151\n      swap1\n      tag_150\n      jump\t// in\n    tag_151:\n      dup1\n      iszero\n      tag_152\n      jumpi\n      dup1\n      0x1f\n      lt\n      tag_153\n      jumpi\n      0x0100\n      dup1\n      dup4\n      sload\n      div\n      mul\n      dup4\n      mstore\n      swap2\n      0x20\n      add\n      swap2\n      jump(tag_152)\n    tag_153:\n      dup3\n      add\n      swap2\n      swap1\n      0x00\n      mstore\n      keccak256(0x00, 0x20)\n      swap1\n    tag_154:\n      dup2\n      sload\n      dup2\n      mstore\n      swap1\n      0x01\n      add\n      swap1\n      0x20\n      add\n      dup1\n      dup4\n      gt\n      tag_154\n      jumpi\n      dup3\n      swap1\n      sub\n      0x1f\n      and\n      dup3\n      add\n      swap2\n    tag_152:\n      pop\n      pop\n      pop\n      pop\n      pop\n      dup2\n      mstore\n      0x20\n      add\n      0x01\n      dup3\n      add\n      sload\n      dup2\n      mstore\n      pop\n      pop\n      dup2\n      mstore\n      0x20\n      add\n      swap1\n      0x01\n      add\n      swap1\n      jump(tag_146)\n    tag_147:\n      pop\n      pop\n      pop\n      pop\n      swap1\n      pop\n        /* \"contracts/VotingPlus.sol\":5307:5482  function getProposals() external view isAuthorize returns(Proposal[] memory) {... */\n      swap1\n      jump\t// out\n        /* \"@openzeppelin/contracts/access/Ownable.sol\":2293:2394  function renounceOwnership() public virtual onlyOwner {... */\n    tag_38:\n        /* \"@openzeppelin/contracts/access/Ownable.sol\":1531:1544  _checkOwner() */\n      tag_156\n        /* \"@openzeppelin/contracts/access/Ownable.sol\":1531:1542  _checkOwner */\n      tag_97\n        /* \"@openzeppelin/contracts/access/Ownable.sol\":1531:1544  _checkOwner() */\n      jump\t// in\n    tag_156:\n        /* \"@openzeppelin/contracts/access/Ownable.sol\":2357:2387  _transferOwnership(address(0)) */\n      tag_158\n        /* \"@openzeppelin/contracts/access/Ownable.sol\":2384:2385  0 */\n      0x00\n        /* \"@openzeppelin/contracts/access/Ownable.sol\":2357:2375  _transferOwnership */\n      tag_159\n        /* \"@openzeppelin/contracts/access/Ownable.sol\":2357:2387  _transferOwnership(address(0)) */\n      jump\t// in\n    tag_158:\n        /* \"@openzeppelin/contracts/access/Ownable.sol\":2293:2394  function renounceOwnership() public virtual onlyOwner {... */\n      jump\t// out\n        /* \"@openzeppelin/contracts/access/Ownable.sol\":1638:1723  function owner() public view virtual returns (address) {... */\n    tag_40:\n        /* \"@openzeppelin/contracts/access/Ownable.sol\":1684:1691  address */\n      0x00\n        /* \"@openzeppelin/contracts/access/Ownable.sol\":1710:1716  _owner */\n      dup1\n      0x00\n      swap1\n      sload\n      swap1\n      0x0100\n      exp\n      swap1\n      div\n      0xffffffffffffffffffffffffffffffffffffffff\n      and\n        /* \"@openzeppelin/contracts/access/Ownable.sol\":1703:1716  return _owner */\n      swap1\n      pop\n        /* \"@openzeppelin/contracts/access/Ownable.sol\":1638:1723  function owner() public view virtual returns (address) {... */\n      swap1\n      jump\t// out\n        /* \"contracts/VotingPlus.sol\":5909:6108  function getWinner() external view returns (Proposal memory) {... */\n    tag_44:\n        /* \"contracts/VotingPlus.sol\":5953:5968  Proposal memory */\n      tag_161\n      tag_162\n      jump\t// in\n    tag_161:\n        /* \"contracts/VotingPlus.sol\":5998:6025  WorkflowStatus.VotesTallied */\n      0x05\n        /* \"contracts/VotingPlus.sol\":5988:6025  status == WorkflowStatus.VotesTallied */\n      dup1\n      dup2\n      gt\n      iszero\n      tag_164\n      jumpi\n      tag_165\n      tag_74\n      jump\t// in\n    tag_165:\n    tag_164:\n        /* \"contracts/VotingPlus.sol\":5988:5994  status */\n      0x04\n      0x00\n      swap1\n      sload\n      swap1\n      0x0100\n      exp\n      swap1\n      div\n      0xff\n      and\n        /* \"contracts/VotingPlus.sol\":5988:6025  status == WorkflowStatus.VotesTallied */\n      0x05\n      dup2\n      gt\n      iszero\n      tag_166\n      jumpi\n      tag_167\n      tag_74\n      jump\t// in\n    tag_167:\n    tag_166:\n      eq\n        /* \"contracts/VotingPlus.sol\":5980:6056  require(status == WorkflowStatus.VotesTallied, \"It must be tallied session\") */\n      tag_168\n      jumpi\n      mload(0x40)\n      0x08c379a000000000000000000000000000000000000000000000000000000000\n      dup2\n      mstore\n      0x04\n      add\n      tag_169\n      swap1\n      tag_170\n      jump\t// in\n    tag_169:\n      mload(0x40)\n      dup1\n      swap2\n      sub\n      swap1\n      revert\n    tag_168:\n        /* \"contracts/VotingPlus.sol\":6073:6082  proposals */\n      0x03\n        /* \"contracts/VotingPlus.sol\":6083:6100  winningProposalId */\n      sload(0x05)\n        /* \"contracts/VotingPlus.sol\":6073:6101  proposals[winningProposalId] */\n      dup2\n      sload\n      dup2\n      lt\n      tag_171\n      jumpi\n      tag_172\n      tag_89\n      jump\t// in\n    tag_172:\n    tag_171:\n      swap1\n      0x00\n      mstore\n      keccak256(0x00, 0x20)\n      swap1\n      0x02\n      mul\n      add\n        /* \"contracts/VotingPlus.sol\":6066:6101  return proposals[winningProposalId] */\n      mload(0x40)\n      dup1\n      0x40\n      add\n      0x40\n      mstore\n      swap1\n      dup2\n      0x00\n      dup3\n      add\n      dup1\n      sload\n      tag_174\n      swap1\n      tag_150\n      jump\t// in\n    tag_174:\n      dup1\n      0x1f\n      add\n      0x20\n      dup1\n      swap2\n      div\n      mul\n      0x20\n      add\n      mload(0x40)\n      swap1\n      dup2\n      add\n      0x40\n      mstore\n      dup1\n      swap3\n      swap2\n      swap1\n      dup2\n      dup2\n      mstore\n      0x20\n      add\n      dup3\n      dup1\n      sload\n      tag_175\n      swap1\n      tag_150\n      jump\t// in\n    tag_175:\n      dup1\n      iszero\n      tag_176\n      jumpi\n      dup1\n      0x1f\n      lt\n      tag_177\n      jumpi\n      0x0100\n      dup1\n      dup4\n      sload\n      div\n      mul\n      dup4\n      mstore\n      swap2\n      0x20\n      add\n      swap2\n      jump(tag_176)\n    tag_177:\n      dup3\n      add\n      swap2\n      swap1\n      0x00\n      mstore\n      keccak256(0x00, 0x20)\n      swap1\n    tag_178:\n      dup2\n      sload\n      dup2\n      mstore\n      swap1\n      0x01\n      add\n      swap1\n      0x20\n      add\n      dup1\n      dup4\n      gt\n      tag_178\n      jumpi\n      dup3\n      swap1\n      sub\n      0x1f\n      and\n      dup3\n      add\n      swap2\n    tag_176:\n      pop\n      pop\n      pop\n      pop\n      pop\n      dup2\n      mstore\n      0x20\n      add\n      0x01\n      dup3\n      add\n      sload\n      dup2\n      mstore\n      pop\n      pop\n      swap1\n      pop\n        /* \"contracts/VotingPlus.sol\":5909:6108  function getWinner() external view returns (Proposal memory) {... */\n      swap1\n      jump\t// out\n        /* \"contracts/VotingPlus.sol\":2321:2621  function endProposal() external onlyOwner {... */\n    tag_48:\n        /* \"@openzeppelin/contracts/access/Ownable.sol\":1531:1544  _checkOwner() */\n      tag_180\n        /* \"@openzeppelin/contracts/access/Ownable.sol\":1531:1542  _checkOwner */\n      tag_97\n        /* \"@openzeppelin/contracts/access/Ownable.sol\":1531:1544  _checkOwner() */\n      jump\t// in\n    tag_180:\n        /* \"contracts/VotingPlus.sol\":2391:2434  WorkflowStatus.ProposalsRegistrationStarted */\n      0x01\n        /* \"contracts/VotingPlus.sol\":2381:2434  status == WorkflowStatus.ProposalsRegistrationStarted */\n      0x05\n      dup2\n      gt\n      iszero\n      tag_182\n      jumpi\n      tag_183\n      tag_74\n      jump\t// in\n    tag_183:\n    tag_182:\n        /* \"contracts/VotingPlus.sol\":2381:2387  status */\n      0x04\n      0x00\n      swap1\n      sload\n      swap1\n      0x0100\n      exp\n      swap1\n      div\n      0xff\n      and\n        /* \"contracts/VotingPlus.sol\":2381:2434  status == WorkflowStatus.ProposalsRegistrationStarted */\n      0x05\n      dup2\n      gt\n      iszero\n      tag_184\n      jumpi\n      tag_185\n      tag_74\n      jump\t// in\n    tag_185:\n    tag_184:\n      eq\n        /* \"contracts/VotingPlus.sol\":2373:2466  require(status == WorkflowStatus.ProposalsRegistrationStarted, \"It must be proposal session\") */\n      tag_186\n      jumpi\n      mload(0x40)\n      0x08c379a000000000000000000000000000000000000000000000000000000000\n      dup2\n      mstore\n      0x04\n      add\n      tag_187\n      swap1\n      tag_120\n      jump\t// in\n    tag_187:\n      mload(0x40)\n      dup1\n      swap2\n      sub\n      swap1\n      revert\n    tag_186:\n        /* \"contracts/VotingPlus.sol\":2485:2526  WorkflowStatus.ProposalsRegistrationEnded */\n      0x02\n        /* \"contracts/VotingPlus.sol\":2476:2482  status */\n      0x04\n      0x00\n        /* \"contracts/VotingPlus.sol\":2476:2526  status = WorkflowStatus.ProposalsRegistrationEnded */\n      0x0100\n      exp\n      dup2\n      sload\n      dup2\n      0xff\n      mul\n      not\n      and\n      swap1\n      dup4\n      0x05\n      dup2\n      gt\n      iszero\n      tag_188\n      jumpi\n      tag_189\n      tag_74\n      jump\t// in\n    tag_189:\n    tag_188:\n      mul\n      or\n      swap1\n      sstore\n      pop\n        /* \"contracts/VotingPlus.sol\":2541:2614  WorkflowStatusChange(WorkflowStatus.ProposalsRegistrationStarted, status) */\n      0x0a97a4ee45751e2abf3e4fc8946939630b11b371ea8ae39ccdc3056e98f5cc3f\n        /* \"contracts/VotingPlus.sol\":2562:2605  WorkflowStatus.ProposalsRegistrationStarted */\n      0x01\n        /* \"contracts/VotingPlus.sol\":2607:2613  status */\n      0x04\n      0x00\n      swap1\n      sload\n      swap1\n      0x0100\n      exp\n      swap1\n      div\n      0xff\n      and\n        /* \"contracts/VotingPlus.sol\":2541:2614  WorkflowStatusChange(WorkflowStatus.ProposalsRegistrationStarted, status) */\n      mload(0x40)\n      tag_190\n      swap3\n      swap2\n      swap1\n      tag_109\n      jump\t// in\n    tag_190:\n      mload(0x40)\n      dup1\n      swap2\n      sub\n      swap1\n      log1\n        /* \"contracts/VotingPlus.sol\":2321:2621  function endProposal() external onlyOwner {... */\n      jump\t// out\n        /* \"contracts/VotingPlus.sol\":3014:3625  function talliedVote() external onlyOwner {... */\n    tag_50:\n        /* \"@openzeppelin/contracts/access/Ownable.sol\":1531:1544  _checkOwner() */\n      tag_192\n        /* \"@openzeppelin/contracts/access/Ownable.sol\":1531:1542  _checkOwner */\n      tag_97\n        /* \"@openzeppelin/contracts/access/Ownable.sol\":1531:1544  _checkOwner() */\n      jump\t// in\n    tag_192:\n        /* \"contracts/VotingPlus.sol\":3084:3117  WorkflowStatus.VotingSessionEnded */\n      0x04\n        /* \"contracts/VotingPlus.sol\":3074:3117  status == WorkflowStatus.VotingSessionEnded */\n      0x05\n      dup2\n      gt\n      iszero\n      tag_194\n      jumpi\n      tag_195\n      tag_74\n      jump\t// in\n    tag_195:\n    tag_194:\n        /* \"contracts/VotingPlus.sol\":3074:3080  status */\n      0x04\n      0x00\n      swap1\n      sload\n      swap1\n      0x0100\n      exp\n      swap1\n      div\n      0xff\n      and\n        /* \"contracts/VotingPlus.sol\":3074:3117  status == WorkflowStatus.VotingSessionEnded */\n      0x05\n      dup2\n      gt\n      iszero\n      tag_196\n      jumpi\n      tag_197\n      tag_74\n      jump\t// in\n    tag_197:\n    tag_196:\n      eq\n        /* \"contracts/VotingPlus.sol\":3066:3155  require(status == WorkflowStatus.VotingSessionEnded, \"It must be the end of the session\") */\n      tag_198\n      jumpi\n      mload(0x40)\n      0x08c379a000000000000000000000000000000000000000000000000000000000\n      dup2\n      mstore\n      0x04\n      add\n      tag_199\n      swap1\n      tag_200\n      jump\t// in\n    tag_199:\n      mload(0x40)\n      dup1\n      swap2\n      sub\n      swap1\n      revert\n    tag_198:\n        /* \"contracts/VotingPlus.sol\":3203:3225  Proposal memory winner */\n      tag_201\n      tag_162\n      jump\t// in\n    tag_201:\n        /* \"contracts/VotingPlus.sol\":3240:3246  uint i */\n      0x00\n        /* \"contracts/VotingPlus.sol\":3235:3494  for (uint i = 0 ; i < proposals.length ; i++) {... */\n    tag_202:\n        /* \"contracts/VotingPlus.sol\":3257:3266  proposals */\n      0x03\n        /* \"contracts/VotingPlus.sol\":3257:3273  proposals.length */\n      dup1\n      sload\n      swap1\n      pop\n        /* \"contracts/VotingPlus.sol\":3253:3254  i */\n      dup2\n        /* \"contracts/VotingPlus.sol\":3253:3273  i < proposals.length */\n      lt\n        /* \"contracts/VotingPlus.sol\":3235:3494  for (uint i = 0 ; i < proposals.length ; i++) {... */\n      iszero\n      tag_203\n      jumpi\n        /* \"contracts/VotingPlus.sol\":3318:3327  proposals */\n      0x03\n        /* \"contracts/VotingPlus.sol\":3328:3329  i */\n      dup2\n        /* \"contracts/VotingPlus.sol\":3318:3330  proposals[i] */\n      dup2\n      sload\n      dup2\n      lt\n      tag_205\n      jumpi\n      tag_206\n      tag_89\n      jump\t// in\n    tag_206:\n    tag_205:\n      swap1\n      0x00\n      mstore\n      keccak256(0x00, 0x20)\n      swap1\n      0x02\n      mul\n      add\n        /* \"contracts/VotingPlus.sol\":3318:3340  proposals[i].voteCount */\n      0x01\n      add\n      sload\n        /* \"contracts/VotingPlus.sol\":3299:3305  winner */\n      dup3\n        /* \"contracts/VotingPlus.sol\":3299:3315  winner.voteCount */\n      0x20\n      add\n      mload\n        /* \"contracts/VotingPlus.sol\":3299:3340  winner.voteCount < proposals[i].voteCount */\n      lt\n        /* \"contracts/VotingPlus.sol\":3295:3484  if (winner.voteCount < proposals[i].voteCount) { // le nb de vote est supp on replace le gagnant ... */\n      iszero\n      tag_208\n      jumpi\n        /* \"contracts/VotingPlus.sol\":3418:3427  proposals */\n      0x03\n        /* \"contracts/VotingPlus.sol\":3428:3429  i */\n      dup2\n        /* \"contracts/VotingPlus.sol\":3418:3430  proposals[i] */\n      dup2\n      sload\n      dup2\n      lt\n      tag_209\n      jumpi\n      tag_210\n      tag_89\n      jump\t// in\n    tag_210:\n    tag_209:\n      swap1\n      0x00\n      mstore\n      keccak256(0x00, 0x20)\n      swap1\n      0x02\n      mul\n      add\n        /* \"contracts/VotingPlus.sol\":3409:3430  winner = proposals[i] */\n      mload(0x40)\n      dup1\n      0x40\n      add\n      0x40\n      mstore\n      swap1\n      dup2\n      0x00\n      dup3\n      add\n      dup1\n      sload\n      tag_212\n      swap1\n      tag_150\n      jump\t// in\n    tag_212:\n      dup1\n      0x1f\n      add\n      0x20\n      dup1\n      swap2\n      div\n      mul\n      0x20\n      add\n      mload(0x40)\n      swap1\n      dup2\n      add\n      0x40\n      mstore\n      dup1\n      swap3\n      swap2\n      swap1\n      dup2\n      dup2\n      mstore\n      0x20\n      add\n      dup3\n      dup1\n      sload\n      tag_213\n      swap1\n      tag_150\n      jump\t// in\n    tag_213:\n      dup1\n      iszero\n      tag_214\n      jumpi\n      dup1\n      0x1f\n      lt\n      tag_215\n      jumpi\n      0x0100\n      dup1\n      dup4\n      sload\n      div\n      mul\n      dup4\n      mstore\n      swap2\n      0x20\n      add\n      swap2\n      jump(tag_214)\n    tag_215:\n      dup3\n      add\n      swap2\n      swap1\n      0x00\n      mstore\n      keccak256(0x00, 0x20)\n      swap1\n    tag_216:\n      dup2\n      sload\n      dup2\n      mstore\n      swap1\n      0x01\n      add\n      swap1\n      0x20\n      add\n      dup1\n      dup4\n      gt\n      tag_216\n      jumpi\n      dup3\n      swap1\n      sub\n      0x1f\n      and\n      dup3\n      add\n      swap2\n    tag_214:\n      pop\n      pop\n      pop\n      pop\n      pop\n      dup2\n      mstore\n      0x20\n      add\n      0x01\n      dup3\n      add\n      sload\n      dup2\n      mstore\n      pop\n      pop\n      swap2\n      pop\n        /* \"contracts/VotingPlus.sol\":3468:3469  i */\n      dup1\n        /* \"contracts/VotingPlus.sol\":3448:3465  winningProposalId */\n      0x05\n        /* \"contracts/VotingPlus.sol\":3448:3469  winningProposalId = i */\n      dup2\n      swap1\n      sstore\n      pop\n        /* \"contracts/VotingPlus.sol\":3295:3484  if (winner.voteCount < proposals[i].voteCount) { // le nb de vote est supp on replace le gagnant ... */\n    tag_208:\n        /* \"contracts/VotingPlus.sol\":3276:3279  i++ */\n      dup1\n      dup1\n      tag_217\n      swap1\n      tag_218\n      jump\t// in\n    tag_217:\n      swap2\n      pop\n      pop\n        /* \"contracts/VotingPlus.sol\":3235:3494  for (uint i = 0 ; i < proposals.length ; i++) {... */\n      jump(tag_202)\n    tag_203:\n      pop\n        /* \"contracts/VotingPlus.sol\":3513:3540  WorkflowStatus.VotesTallied */\n      0x05\n        /* \"contracts/VotingPlus.sol\":3504:3510  status */\n      0x04\n      0x00\n        /* \"contracts/VotingPlus.sol\":3504:3540  status = WorkflowStatus.VotesTallied */\n      0x0100\n      exp\n      dup2\n      sload\n      dup2\n      0xff\n      mul\n      not\n      and\n      swap1\n      dup4\n      0x05\n      dup2\n      gt\n      iszero\n      tag_219\n      jumpi\n      tag_220\n      tag_74\n      jump\t// in\n    tag_220:\n    tag_219:\n      mul\n      or\n      swap1\n      sstore\n      pop\n        /* \"contracts/VotingPlus.sol\":3555:3618  WorkflowStatusChange(WorkflowStatus.VotingSessionEnded, status) */\n      0x0a97a4ee45751e2abf3e4fc8946939630b11b371ea8ae39ccdc3056e98f5cc3f\n        /* \"contracts/VotingPlus.sol\":3576:3609  WorkflowStatus.VotingSessionEnded */\n      0x04\n        /* \"contracts/VotingPlus.sol\":3611:3617  status */\n      dup1\n      0x00\n      swap1\n      sload\n      swap1\n      0x0100\n      exp\n      swap1\n      div\n      0xff\n      and\n        /* \"contracts/VotingPlus.sol\":3555:3618  WorkflowStatusChange(WorkflowStatus.VotingSessionEnded, status) */\n      mload(0x40)\n      tag_221\n      swap3\n      swap2\n      swap1\n      tag_109\n      jump\t// in\n    tag_221:\n      mload(0x40)\n      dup1\n      swap2\n      sub\n      swap1\n      log1\n        /* \"contracts/VotingPlus.sol\":3056:3625  {... */\n      pop\n        /* \"contracts/VotingPlus.sol\":3014:3625  function talliedVote() external onlyOwner {... */\n      jump\t// out\n        /* \"contracts/VotingPlus.sol\":5623:5838  function getVoteTo(address _address) external view isAuthorize returns(Voter memory) {... */\n    tag_54:\n        /* \"contracts/VotingPlus.sol\":5694:5706  Voter memory */\n      tag_222\n      tag_223\n      jump\t// in\n    tag_222:\n        /* \"contracts/VotingPlus.sol\":1452:1461  whiteList */\n      0x01\n        /* \"contracts/VotingPlus.sol\":1452:1466  whiteList.list */\n      0x00\n      add\n        /* \"contracts/VotingPlus.sol\":1452:1478  whiteList.list[msg.sender] */\n      0x00\n        /* \"contracts/VotingPlus.sol\":1467:1477  msg.sender */\n      caller\n        /* \"contracts/VotingPlus.sol\":1452:1478  whiteList.list[msg.sender] */\n      0xffffffffffffffffffffffffffffffffffffffff\n      and\n      0xffffffffffffffffffffffffffffffffffffffff\n      and\n      dup2\n      mstore\n      0x20\n      add\n      swap1\n      dup2\n      mstore\n      0x20\n      add\n      0x00\n      keccak256\n        /* \"contracts/VotingPlus.sol\":1452:1491  whiteList.list[msg.sender].isRegistered */\n      0x00\n      add\n      0x00\n      swap1\n      sload\n      swap1\n      0x0100\n      exp\n      swap1\n      div\n      0xff\n      and\n        /* \"contracts/VotingPlus.sol\":1444:1527  require(whiteList.list[msg.sender].isRegistered, \"Your are not registered in list\") */\n      tag_225\n      jumpi\n      mload(0x40)\n      0x08c379a000000000000000000000000000000000000000000000000000000000\n      dup2\n      mstore\n      0x04\n      add\n      tag_226\n      swap1\n      tag_70\n      jump\t// in\n    tag_226:\n      mload(0x40)\n      dup1\n      swap2\n      sub\n      swap1\n      revert\n    tag_225:\n        /* \"contracts/VotingPlus.sol\":5726:5735  whiteList */\n      0x01\n        /* \"contracts/VotingPlus.sol\":5726:5740  whiteList.list */\n      0x00\n      add\n        /* \"contracts/VotingPlus.sol\":5726:5752  whiteList.list[msg.sender] */\n      0x00\n        /* \"contracts/VotingPlus.sol\":5741:5751  msg.sender */\n      caller\n        /* \"contracts/VotingPlus.sol\":5726:5752  whiteList.list[msg.sender] */\n      0xffffffffffffffffffffffffffffffffffffffff\n      and\n      0xffffffffffffffffffffffffffffffffffffffff\n      and\n      dup2\n      mstore\n      0x20\n      add\n      swap1\n      dup2\n      mstore\n      0x20\n      add\n      0x00\n      keccak256\n        /* \"contracts/VotingPlus.sol\":5726:5761  whiteList.list[msg.sender].hasVoted */\n      0x00\n      add\n      0x01\n      swap1\n      sload\n      swap1\n      0x0100\n      exp\n      swap1\n      div\n      0xff\n      and\n        /* \"contracts/VotingPlus.sol\":5718:5790  require(whiteList.list[msg.sender].hasVoted, \"This person hasn't voted\") */\n      tag_228\n      jumpi\n      mload(0x40)\n      0x08c379a000000000000000000000000000000000000000000000000000000000\n      dup2\n      mstore\n      0x04\n      add\n      tag_229\n      swap1\n      tag_230\n      jump\t// in\n    tag_229:\n      mload(0x40)\n      dup1\n      swap2\n      sub\n      swap1\n      revert\n    tag_228:\n        /* \"contracts/VotingPlus.sol\":5807:5816  whiteList */\n      0x01\n        /* \"contracts/VotingPlus.sol\":5807:5821  whiteList.list */\n      0x00\n      add\n        /* \"contracts/VotingPlus.sol\":5807:5831  whiteList.list[_address] */\n      0x00\n        /* \"contracts/VotingPlus.sol\":5822:5830  _address */\n      dup4\n        /* \"contracts/VotingPlus.sol\":5807:5831  whiteList.list[_address] */\n      0xffffffffffffffffffffffffffffffffffffffff\n      and\n      0xffffffffffffffffffffffffffffffffffffffff\n      and\n      dup2\n      mstore\n      0x20\n      add\n      swap1\n      dup2\n      mstore\n      0x20\n      add\n      0x00\n      keccak256\n        /* \"contracts/VotingPlus.sol\":5800:5831  return whiteList.list[_address] */\n      mload(0x40)\n      dup1\n      0x60\n      add\n      0x40\n      mstore\n      swap1\n      dup2\n      0x00\n      dup3\n      add\n      0x00\n      swap1\n      sload\n      swap1\n      0x0100\n      exp\n      swap1\n      div\n      0xff\n      and\n      iszero\n      iszero\n      iszero\n      iszero\n      dup2\n      mstore\n      0x20\n      add\n      0x00\n      dup3\n      add\n      0x01\n      swap1\n      sload\n      swap1\n      0x0100\n      exp\n      swap1\n      div\n      0xff\n      and\n      iszero\n      iszero\n      iszero\n      iszero\n      dup2\n      mstore\n      0x20\n      add\n      0x01\n      dup3\n      add\n      sload\n      dup2\n      mstore\n      pop\n      pop\n      swap1\n      pop\n        /* \"contracts/VotingPlus.sol\":5623:5838  function getVoteTo(address _address) external view isAuthorize returns(Voter memory) {... */\n      swap2\n      swap1\n      pop\n      jump\t// out\n        /* \"contracts/VotingPlus.sol\":2681:2949  function endVote() external onlyOwner {... */\n    tag_58:\n        /* \"@openzeppelin/contracts/access/Ownable.sol\":1531:1544  _checkOwner() */\n      tag_232\n        /* \"@openzeppelin/contracts/access/Ownable.sol\":1531:1542  _checkOwner */\n      tag_97\n        /* \"@openzeppelin/contracts/access/Ownable.sol\":1531:1544  _checkOwner() */\n      jump\t// in\n    tag_232:\n        /* \"contracts/VotingPlus.sol\":2747:2782  WorkflowStatus.VotingSessionStarted */\n      0x03\n        /* \"contracts/VotingPlus.sol\":2737:2782  status == WorkflowStatus.VotingSessionStarted */\n      0x05\n      dup2\n      gt\n      iszero\n      tag_234\n      jumpi\n      tag_235\n      tag_74\n      jump\t// in\n    tag_235:\n    tag_234:\n        /* \"contracts/VotingPlus.sol\":2737:2743  status */\n      0x04\n      0x00\n      swap1\n      sload\n      swap1\n      0x0100\n      exp\n      swap1\n      div\n      0xff\n      and\n        /* \"contracts/VotingPlus.sol\":2737:2782  status == WorkflowStatus.VotingSessionStarted */\n      0x05\n      dup2\n      gt\n      iszero\n      tag_236\n      jumpi\n      tag_237\n      tag_74\n      jump\t// in\n    tag_237:\n    tag_236:\n      eq\n        /* \"contracts/VotingPlus.sol\":2729:2812  require(status == WorkflowStatus.VotingSessionStarted, \"It must be voting session\") */\n      tag_238\n      jumpi\n      mload(0x40)\n      0x08c379a000000000000000000000000000000000000000000000000000000000\n      dup2\n      mstore\n      0x04\n      add\n      tag_239\n      swap1\n      tag_79\n      jump\t// in\n    tag_239:\n      mload(0x40)\n      dup1\n      swap2\n      sub\n      swap1\n      revert\n    tag_238:\n        /* \"contracts/VotingPlus.sol\":2831:2864  WorkflowStatus.VotingSessionEnded */\n      0x04\n        /* \"contracts/VotingPlus.sol\":2822:2828  status */\n      dup1\n      0x00\n        /* \"contracts/VotingPlus.sol\":2822:2864  status = WorkflowStatus.VotingSessionEnded */\n      0x0100\n      exp\n      dup2\n      sload\n      dup2\n      0xff\n      mul\n      not\n      and\n      swap1\n      dup4\n      0x05\n      dup2\n      gt\n      iszero\n      tag_240\n      jumpi\n      tag_241\n      tag_74\n      jump\t// in\n    tag_241:\n    tag_240:\n      mul\n      or\n      swap1\n      sstore\n      pop\n        /* \"contracts/VotingPlus.sol\":2879:2942  WorkflowStatusChange(WorkflowStatus.VotingSessionEnded, status) */\n      0x0a97a4ee45751e2abf3e4fc8946939630b11b371ea8ae39ccdc3056e98f5cc3f\n        /* \"contracts/VotingPlus.sol\":2900:2933  WorkflowStatus.VotingSessionEnded */\n      0x04\n        /* \"contracts/VotingPlus.sol\":2935:2941  status */\n      dup1\n      0x00\n      swap1\n      sload\n      swap1\n      0x0100\n      exp\n      swap1\n      div\n      0xff\n      and\n        /* \"contracts/VotingPlus.sol\":2879:2942  WorkflowStatusChange(WorkflowStatus.VotingSessionEnded, status) */\n      mload(0x40)\n      tag_242\n      swap3\n      swap2\n      swap1\n      tag_109\n      jump\t// in\n    tag_242:\n      mload(0x40)\n      dup1\n      swap2\n      sub\n      swap1\n      log1\n        /* \"contracts/VotingPlus.sol\":2681:2949  function endVote() external onlyOwner {... */\n      jump\t// out\n        /* \"@openzeppelin/contracts/access/Ownable.sol\":2543:2758  function transferOwnership(address newOwner) public virtual onlyOwner {... */\n    tag_61:\n        /* \"@openzeppelin/contracts/access/Ownable.sol\":1531:1544  _checkOwner() */\n      tag_244\n        /* \"@openzeppelin/contracts/access/Ownable.sol\":1531:1542  _checkOwner */\n      tag_97\n        /* \"@openzeppelin/contracts/access/Ownable.sol\":1531:1544  _checkOwner() */\n      jump\t// in\n    tag_244:\n        /* \"@openzeppelin/contracts/access/Ownable.sol\":2647:2648  0 */\n      0x00\n        /* \"@openzeppelin/contracts/access/Ownable.sol\":2627:2649  newOwner == address(0) */\n      0xffffffffffffffffffffffffffffffffffffffff\n      and\n        /* \"@openzeppelin/contracts/access/Ownable.sol\":2627:2635  newOwner */\n      dup2\n        /* \"@openzeppelin/contracts/access/Ownable.sol\":2627:2649  newOwner == address(0) */\n      0xffffffffffffffffffffffffffffffffffffffff\n      and\n      sub\n        /* \"@openzeppelin/contracts/access/Ownable.sol\":2623:2714  if (newOwner == address(0)) {... */\n      tag_246\n      jumpi\n        /* \"@openzeppelin/contracts/access/Ownable.sol\":2700:2701  0 */\n      0x00\n        /* \"@openzeppelin/contracts/access/Ownable.sol\":2672:2703  OwnableInvalidOwner(address(0)) */\n      mload(0x40)\n      0x1e4fbdf700000000000000000000000000000000000000000000000000000000\n      dup2\n      mstore\n      0x04\n      add\n      tag_247\n      swap2\n      swap1\n      tag_42\n      jump\t// in\n    tag_247:\n      mload(0x40)\n      dup1\n      swap2\n      sub\n      swap1\n      revert\n        /* \"@openzeppelin/contracts/access/Ownable.sol\":2623:2714  if (newOwner == address(0)) {... */\n    tag_246:\n        /* \"@openzeppelin/contracts/access/Ownable.sol\":2723:2751  _transferOwnership(newOwner) */\n      tag_248\n        /* \"@openzeppelin/contracts/access/Ownable.sol\":2742:2750  newOwner */\n      dup2\n        /* \"@openzeppelin/contracts/access/Ownable.sol\":2723:2741  _transferOwnership */\n      tag_159\n        /* \"@openzeppelin/contracts/access/Ownable.sol\":2723:2751  _transferOwnership(newOwner) */\n      jump\t// in\n    tag_248:\n        /* \"@openzeppelin/contracts/access/Ownable.sol\":2543:2758  function transferOwnership(address newOwner) public virtual onlyOwner {... */\n      pop\n      jump\t// out\n        /* \"contracts/VotingPlus.sol\":3742:4129  function addVoter(address _address) external onlyOwner {... */\n    tag_64:\n        /* \"@openzeppelin/contracts/access/Ownable.sol\":1531:1544  _checkOwner() */\n      tag_250\n        /* \"@openzeppelin/contracts/access/Ownable.sol\":1531:1542  _checkOwner */\n      tag_97\n        /* \"@openzeppelin/contracts/access/Ownable.sol\":1531:1544  _checkOwner() */\n      jump\t// in\n    tag_250:\n        /* \"contracts/VotingPlus.sol\":3825:3857  WorkflowStatus.RegisteringVoters */\n      0x00\n        /* \"contracts/VotingPlus.sol\":3815:3857  status == WorkflowStatus.RegisteringVoters */\n      0x05\n      dup2\n      gt\n      iszero\n      tag_252\n      jumpi\n      tag_253\n      tag_74\n      jump\t// in\n    tag_253:\n    tag_252:\n        /* \"contracts/VotingPlus.sol\":3815:3821  status */\n      0x04\n      0x00\n      swap1\n      sload\n      swap1\n      0x0100\n      exp\n      swap1\n      div\n      0xff\n      and\n        /* \"contracts/VotingPlus.sol\":3815:3857  status == WorkflowStatus.RegisteringVoters */\n      0x05\n      dup2\n      gt\n      iszero\n      tag_254\n      jumpi\n      tag_255\n      tag_74\n      jump\t// in\n    tag_255:\n    tag_254:\n      eq\n        /* \"contracts/VotingPlus.sol\":3807:3890  require(status == WorkflowStatus.RegisteringVoters, \"It must be registering voter\") */\n      tag_256\n      jumpi\n      mload(0x40)\n      0x08c379a000000000000000000000000000000000000000000000000000000000\n      dup2\n      mstore\n      0x04\n      add\n      tag_257\n      swap1\n      tag_258\n      jump\t// in\n    tag_257:\n      mload(0x40)\n      dup1\n      swap2\n      sub\n      swap1\n      revert\n    tag_256:\n        /* \"contracts/VotingPlus.sol\":3909:3918  whiteList */\n      0x01\n        /* \"contracts/VotingPlus.sol\":3909:3923  whiteList.list */\n      0x00\n      add\n        /* \"contracts/VotingPlus.sol\":3909:3933  whiteList.list[_address] */\n      0x00\n        /* \"contracts/VotingPlus.sol\":3924:3932  _address */\n      dup3\n        /* \"contracts/VotingPlus.sol\":3909:3933  whiteList.list[_address] */\n      0xffffffffffffffffffffffffffffffffffffffff\n      and\n      0xffffffffffffffffffffffffffffffffffffffff\n      and\n      dup2\n      mstore\n      0x20\n      add\n      swap1\n      dup2\n      mstore\n      0x20\n      add\n      0x00\n      keccak256\n        /* \"contracts/VotingPlus.sol\":3909:3946  whiteList.list[_address].isRegistered */\n      0x00\n      add\n      0x00\n      swap1\n      sload\n      swap1\n      0x0100\n      exp\n      swap1\n      div\n      0xff\n      and\n        /* \"contracts/VotingPlus.sol\":3908:3946  !whiteList.list[_address].isRegistered */\n      iszero\n        /* \"contracts/VotingPlus.sol\":3900:3985  require(!whiteList.list[_address].isRegistered, \"This address is already registered\") */\n      tag_259\n      jumpi\n      mload(0x40)\n      0x08c379a000000000000000000000000000000000000000000000000000000000\n      dup2\n      mstore\n      0x04\n      add\n      tag_260\n      swap1\n      tag_261\n      jump\t// in\n    tag_260:\n      mload(0x40)\n      dup1\n      swap2\n      sub\n      swap1\n      revert\n    tag_259:\n        /* \"contracts/VotingPlus.sol\":4022:4043  Voter(true, false, 0) */\n      mload(0x40)\n      dup1\n      0x60\n      add\n      0x40\n      mstore\n      dup1\n        /* \"contracts/VotingPlus.sol\":4028:4032  true */\n      0x01\n        /* \"contracts/VotingPlus.sol\":4022:4043  Voter(true, false, 0) */\n      iszero\n      iszero\n      dup2\n      mstore\n      0x20\n      add\n        /* \"contracts/VotingPlus.sol\":4034:4039  false */\n      0x00\n        /* \"contracts/VotingPlus.sol\":4022:4043  Voter(true, false, 0) */\n      iszero\n      iszero\n      dup2\n      mstore\n      0x20\n      add\n        /* \"contracts/VotingPlus.sol\":4041:4042  0 */\n      0x00\n        /* \"contracts/VotingPlus.sol\":4022:4043  Voter(true, false, 0) */\n      dup2\n      mstore\n      pop\n        /* \"contracts/VotingPlus.sol\":3995:4004  whiteList */\n      0x01\n        /* \"contracts/VotingPlus.sol\":3995:4009  whiteList.list */\n      0x00\n      add\n        /* \"contracts/VotingPlus.sol\":3995:4019  whiteList.list[_address] */\n      0x00\n        /* \"contracts/VotingPlus.sol\":4010:4018  _address */\n      dup4\n        /* \"contracts/VotingPlus.sol\":3995:4019  whiteList.list[_address] */\n      0xffffffffffffffffffffffffffffffffffffffff\n      and\n      0xffffffffffffffffffffffffffffffffffffffff\n      and\n      dup2\n      mstore\n      0x20\n      add\n      swap1\n      dup2\n      mstore\n      0x20\n      add\n      0x00\n      keccak256\n        /* \"contracts/VotingPlus.sol\":3995:4043  whiteList.list[_address] = Voter(true, false, 0) */\n      0x00\n      dup3\n      add\n      mload\n      dup2\n      0x00\n      add\n      exp(0x0100, 0x00)\n      dup2\n      sload\n      dup2\n      0xff\n      mul\n      not\n      and\n      swap1\n      dup4\n      iszero\n      iszero\n      mul\n      or\n      swap1\n      sstore\n      pop\n      0x20\n      dup3\n      add\n      mload\n      dup2\n      0x00\n      add\n      exp(0x0100, 0x01)\n      dup2\n      sload\n      dup2\n      0xff\n      mul\n      not\n      and\n      swap1\n      dup4\n      iszero\n      iszero\n      mul\n      or\n      swap1\n      sstore\n      pop\n      0x40\n      dup3\n      add\n      mload\n      dup2\n      0x01\n      add\n      sstore\n      swap1\n      pop\n      pop\n        /* \"contracts/VotingPlus.sol\":4053:4062  whiteList */\n      0x01\n        /* \"contracts/VotingPlus.sol\":4053:4067  whiteList.keys */\n      dup1\n      add\n        /* \"contracts/VotingPlus.sol\":4073:4081  _address */\n      dup2\n        /* \"contracts/VotingPlus.sol\":4053:4082  whiteList.keys.push(_address) */\n      swap1\n      dup1\n      0x01\n      dup2\n      sload\n      add\n      dup1\n      dup3\n      sstore\n      dup1\n      swap2\n      pop\n      pop\n      0x01\n      swap1\n      sub\n      swap1\n      0x00\n      mstore\n      keccak256(0x00, 0x20)\n      add\n      0x00\n      swap1\n      swap2\n      swap1\n      swap2\n      swap1\n      swap2\n      0x0100\n      exp\n      dup2\n      sload\n      dup2\n      0xffffffffffffffffffffffffffffffffffffffff\n      mul\n      not\n      and\n      swap1\n      dup4\n      0xffffffffffffffffffffffffffffffffffffffff\n      and\n      mul\n      or\n      swap1\n      sstore\n      pop\n        /* \"contracts/VotingPlus.sol\":4097:4122  VoterRegistered(_address) */\n      0xb6be2187d059cc2a55fe29e0e503b566e1e0f8c8780096e185429350acffd3dd\n        /* \"contracts/VotingPlus.sol\":4113:4121  _address */\n      dup2\n        /* \"contracts/VotingPlus.sol\":4097:4122  VoterRegistered(_address) */\n      mload(0x40)\n      tag_263\n      swap2\n      swap1\n      tag_42\n      jump\t// in\n    tag_263:\n      mload(0x40)\n      dup1\n      swap2\n      sub\n      swap1\n      log1\n        /* \"contracts/VotingPlus.sol\":3742:4129  function addVoter(address _address) external onlyOwner {... */\n      pop\n      jump\t// out\n        /* \"contracts/VotingPlus.sol\":6153:6748  function resetSession() external onlyOwner {... */\n    tag_66:\n        /* \"@openzeppelin/contracts/access/Ownable.sol\":1531:1544  _checkOwner() */\n      tag_265\n        /* \"@openzeppelin/contracts/access/Ownable.sol\":1531:1542  _checkOwner */\n      tag_97\n        /* \"@openzeppelin/contracts/access/Ownable.sol\":1531:1544  _checkOwner() */\n      jump\t// in\n    tag_265:\n        /* \"contracts/VotingPlus.sol\":6224:6251  WorkflowStatus.VotesTallied */\n      0x05\n        /* \"contracts/VotingPlus.sol\":6214:6251  status == WorkflowStatus.VotesTallied */\n      dup1\n      dup2\n      gt\n      iszero\n      tag_267\n      jumpi\n      tag_268\n      tag_74\n      jump\t// in\n    tag_268:\n    tag_267:\n        /* \"contracts/VotingPlus.sol\":6214:6220  status */\n      0x04\n      0x00\n      swap1\n      sload\n      swap1\n      0x0100\n      exp\n      swap1\n      div\n      0xff\n      and\n        /* \"contracts/VotingPlus.sol\":6214:6251  status == WorkflowStatus.VotesTallied */\n      0x05\n      dup2\n      gt\n      iszero\n      tag_269\n      jumpi\n      tag_270\n      tag_74\n      jump\t// in\n    tag_270:\n    tag_269:\n      eq\n        /* \"contracts/VotingPlus.sol\":6206:6282  require(status == WorkflowStatus.VotesTallied, \"It must be tallied session\") */\n      tag_271\n      jumpi\n      mload(0x40)\n      0x08c379a000000000000000000000000000000000000000000000000000000000\n      dup2\n      mstore\n      0x04\n      add\n      tag_272\n      swap1\n      tag_170\n      jump\t// in\n    tag_272:\n      mload(0x40)\n      dup1\n      swap2\n      sub\n      swap1\n      revert\n    tag_271:\n        /* \"contracts/VotingPlus.sol\":6301:6333  WorkflowStatus.RegisteringVoters */\n      0x00\n        /* \"contracts/VotingPlus.sol\":6292:6298  status */\n      0x04\n      0x00\n        /* \"contracts/VotingPlus.sol\":6292:6333  status = WorkflowStatus.RegisteringVoters */\n      0x0100\n      exp\n      dup2\n      sload\n      dup2\n      0xff\n      mul\n      not\n      and\n      swap1\n      dup4\n      0x05\n      dup2\n      gt\n      iszero\n      tag_273\n      jumpi\n      tag_274\n      tag_74\n      jump\t// in\n    tag_274:\n    tag_273:\n      mul\n      or\n      swap1\n      sstore\n      pop\n        /* \"contracts/VotingPlus.sol\":6373:6382  proposals */\n      0x03\n      0x00\n        /* \"contracts/VotingPlus.sol\":6366:6382  delete proposals */\n      tag_275\n      swap2\n      swap1\n      tag_276\n      jump\t// in\n    tag_275:\n        /* \"contracts/VotingPlus.sol\":6426:6443  winningProposalId */\n      0x05\n        /* \"contracts/VotingPlus.sol\":6419:6443  delete winningProposalId */\n      0x00\n      swap1\n      sstore\n        /* \"contracts/VotingPlus.sol\":6480:6486  uint i */\n      0x00\n        /* \"contracts/VotingPlus.sol\":6475:6632  for (uint i = 0; i < whiteList.keys.length; i++) {... */\n    tag_277:\n        /* \"contracts/VotingPlus.sol\":6496:6505  whiteList */\n      0x01\n        /* \"contracts/VotingPlus.sol\":6496:6510  whiteList.keys */\n      dup1\n      add\n        /* \"contracts/VotingPlus.sol\":6496:6517  whiteList.keys.length */\n      dup1\n      sload\n      swap1\n      pop\n        /* \"contracts/VotingPlus.sol\":6492:6493  i */\n      dup2\n        /* \"contracts/VotingPlus.sol\":6492:6517  i < whiteList.keys.length */\n      lt\n        /* \"contracts/VotingPlus.sol\":6475:6632  for (uint i = 0; i < whiteList.keys.length; i++) {... */\n      iszero\n      tag_278\n      jumpi\n        /* \"contracts/VotingPlus.sol\":6545:6554  whiteList */\n      0x01\n        /* \"contracts/VotingPlus.sol\":6545:6559  whiteList.list */\n      0x00\n      add\n        /* \"contracts/VotingPlus.sol\":6545:6578  whiteList.list[whiteList.keys[i]] */\n      0x00\n        /* \"contracts/VotingPlus.sol\":6560:6569  whiteList */\n      0x01\n        /* \"contracts/VotingPlus.sol\":6560:6574  whiteList.keys */\n      dup1\n      add\n        /* \"contracts/VotingPlus.sol\":6575:6576  i */\n      dup4\n        /* \"contracts/VotingPlus.sol\":6560:6577  whiteList.keys[i] */\n      dup2\n      sload\n      dup2\n      lt\n      tag_280\n      jumpi\n      tag_281\n      tag_89\n      jump\t// in\n    tag_281:\n    tag_280:\n      swap1\n      0x00\n      mstore\n      keccak256(0x00, 0x20)\n      add\n      0x00\n      swap1\n      sload\n      swap1\n      0x0100\n      exp\n      swap1\n      div\n      0xffffffffffffffffffffffffffffffffffffffff\n      and\n        /* \"contracts/VotingPlus.sol\":6545:6578  whiteList.list[whiteList.keys[i]] */\n      0xffffffffffffffffffffffffffffffffffffffff\n      and\n      0xffffffffffffffffffffffffffffffffffffffff\n      and\n      dup2\n      mstore\n      0x20\n      add\n      swap1\n      dup2\n      mstore\n      0x20\n      add\n      0x00\n      keccak256\n      0x00\n        /* \"contracts/VotingPlus.sol\":6538:6578  delete whiteList.list[whiteList.keys[i]] */\n      dup1\n      dup3\n      add\n      exp(0x0100, 0x00)\n      dup2\n      sload\n      swap1\n      0xff\n      mul\n      not\n      and\n      swap1\n      sstore\n      0x00\n      dup3\n      add\n      exp(0x0100, 0x01)\n      dup2\n      sload\n      swap1\n      0xff\n      mul\n      not\n      and\n      swap1\n      sstore\n      0x01\n      dup3\n      add\n      0x00\n      swap1\n      sstore\n      pop\n      pop\n        /* \"contracts/VotingPlus.sol\":6519:6522  i++ */\n      dup1\n      dup1\n      tag_283\n      swap1\n      tag_218\n      jump\t// in\n    tag_283:\n      swap2\n      pop\n      pop\n        /* \"contracts/VotingPlus.sol\":6475:6632  for (uint i = 0; i < whiteList.keys.length; i++) {... */\n      jump(tag_277)\n    tag_278:\n      pop\n        /* \"contracts/VotingPlus.sol\":6648:6657  whiteList */\n      0x01\n        /* \"contracts/VotingPlus.sol\":6648:6662  whiteList.keys */\n      dup1\n      add\n      0x00\n        /* \"contracts/VotingPlus.sol\":6641:6662  delete whiteList.keys */\n      tag_284\n      swap2\n      swap1\n      tag_285\n      jump\t// in\n    tag_284:\n        /* \"contracts/VotingPlus.sol\":6153:6748  function resetSession() external onlyOwner {... */\n      jump\t// out\n        /* \"@openzeppelin/contracts/access/Ownable.sol\":1796:1958  function _checkOwner() internal view virtual {... */\n    tag_97:\n        /* \"@openzeppelin/contracts/access/Ownable.sol\":1866:1878  _msgSender() */\n      tag_287\n        /* \"@openzeppelin/contracts/access/Ownable.sol\":1866:1876  _msgSender */\n      tag_288\n        /* \"@openzeppelin/contracts/access/Ownable.sol\":1866:1878  _msgSender() */\n      jump\t// in\n    tag_287:\n        /* \"@openzeppelin/contracts/access/Ownable.sol\":1855:1878  owner() != _msgSender() */\n      0xffffffffffffffffffffffffffffffffffffffff\n      and\n        /* \"@openzeppelin/contracts/access/Ownable.sol\":1855:1862  owner() */\n      tag_289\n        /* \"@openzeppelin/contracts/access/Ownable.sol\":1855:1860  owner */\n      tag_40\n        /* \"@openzeppelin/contracts/access/Ownable.sol\":1855:1862  owner() */\n      jump\t// in\n    tag_289:\n        /* \"@openzeppelin/contracts/access/Ownable.sol\":1855:1878  owner() != _msgSender() */\n      0xffffffffffffffffffffffffffffffffffffffff\n      and\n      eq\n        /* \"@openzeppelin/contracts/access/Ownable.sol\":1851:1952  if (owner() != _msgSender()) {... */\n      tag_290\n      jumpi\n        /* \"@openzeppelin/contracts/access/Ownable.sol\":1928:1940  _msgSender() */\n      tag_291\n        /* \"@openzeppelin/contracts/access/Ownable.sol\":1928:1938  _msgSender */\n      tag_288\n        /* \"@openzeppelin/contracts/access/Ownable.sol\":1928:1940  _msgSender() */\n      jump\t// in\n    tag_291:\n        /* \"@openzeppelin/contracts/access/Ownable.sol\":1901:1941  OwnableUnauthorizedAccount(_msgSender()) */\n      mload(0x40)\n      0x118cdaa700000000000000000000000000000000000000000000000000000000\n      dup2\n      mstore\n      0x04\n      add\n      tag_292\n      swap2\n      swap1\n      tag_42\n      jump\t// in\n    tag_292:\n      mload(0x40)\n      dup1\n      swap2\n      sub\n      swap1\n      revert\n        /* \"@openzeppelin/contracts/access/Ownable.sol\":1851:1952  if (owner() != _msgSender()) {... */\n    tag_290:\n        /* \"@openzeppelin/contracts/access/Ownable.sol\":1796:1958  function _checkOwner() internal view virtual {... */\n      jump\t// out\n        /* \"@openzeppelin/contracts/access/Ownable.sol\":2912:3099  function _transferOwnership(address newOwner) internal virtual {... */\n    tag_159:\n        /* \"@openzeppelin/contracts/access/Ownable.sol\":2985:3001  address oldOwner */\n      0x00\n        /* \"@openzeppelin/contracts/access/Ownable.sol\":3004:3010  _owner */\n      dup1\n      0x00\n      swap1\n      sload\n      swap1\n      0x0100\n      exp\n      swap1\n      div\n      0xffffffffffffffffffffffffffffffffffffffff\n      and\n        /* \"@openzeppelin/contracts/access/Ownable.sol\":2985:3010  address oldOwner = _owner */\n      swap1\n      pop\n        /* \"@openzeppelin/contracts/access/Ownable.sol\":3029:3037  newOwner */\n      dup2\n        /* \"@openzeppelin/contracts/access/Ownable.sol\":3020:3026  _owner */\n      0x00\n      dup1\n        /* \"@openzeppelin/contracts/access/Ownable.sol\":3020:3037  _owner = newOwner */\n      0x0100\n      exp\n      dup2\n      sload\n      dup2\n      0xffffffffffffffffffffffffffffffffffffffff\n      mul\n      not\n      and\n      swap1\n      dup4\n      0xffffffffffffffffffffffffffffffffffffffff\n      and\n      mul\n      or\n      swap1\n      sstore\n      pop\n        /* \"@openzeppelin/contracts/access/Ownable.sol\":3083:3091  newOwner */\n      dup2\n        /* \"@openzeppelin/contracts/access/Ownable.sol\":3052:3092  OwnershipTransferred(oldOwner, newOwner) */\n      0xffffffffffffffffffffffffffffffffffffffff\n      and\n        /* \"@openzeppelin/contracts/access/Ownable.sol\":3073:3081  oldOwner */\n      dup2\n        /* \"@openzeppelin/contracts/access/Ownable.sol\":3052:3092  OwnershipTransferred(oldOwner, newOwner) */\n      0xffffffffffffffffffffffffffffffffffffffff\n      and\n      0x8be0079c531659141344cd1fd0a4f28419497f9722a3daafe3b4186f6b6457e0\n      mload(0x40)\n      mload(0x40)\n      dup1\n      swap2\n      sub\n      swap1\n      log3\n        /* \"@openzeppelin/contracts/access/Ownable.sol\":2975:3099  {... */\n      pop\n        /* \"@openzeppelin/contracts/access/Ownable.sol\":2912:3099  function _transferOwnership(address newOwner) internal virtual {... */\n      pop\n      jump\t// out\n        /* \"@openzeppelin/contracts/utils/Context.sol\":656:752  function _msgSender() internal view virtual returns (address) {... */\n    tag_288:\n        /* \"@openzeppelin/contracts/utils/Context.sol\":709:716  address */\n      0x00\n        /* \"@openzeppelin/contracts/utils/Context.sol\":735:745  msg.sender */\n      caller\n        /* \"@openzeppelin/contracts/utils/Context.sol\":728:745  return msg.sender */\n      swap1\n      pop\n        /* \"@openzeppelin/contracts/utils/Context.sol\":656:752  function _msgSender() internal view virtual returns (address) {... */\n      swap1\n      jump\t// out\n    tag_162:\n      mload(0x40)\n      dup1\n      0x40\n      add\n      0x40\n      mstore\n      dup1\n      0x60\n      dup2\n      mstore\n      0x20\n      add\n      0x00\n      dup2\n      mstore\n      pop\n      swap1\n      jump\t// out\n    tag_223:\n      mload(0x40)\n      dup1\n      0x60\n      add\n      0x40\n      mstore\n      dup1\n      iszero(iszero(0x00))\n      dup2\n      mstore\n      0x20\n      add\n      iszero(iszero(0x00))\n      dup2\n      mstore\n      0x20\n      add\n      0x00\n      dup2\n      mstore\n      pop\n      swap1\n      jump\t// out\n    tag_276:\n      pop\n      dup1\n      sload\n      0x00\n      dup3\n      sstore\n      0x02\n      mul\n      swap1\n      0x00\n      mstore\n      keccak256(0x00, 0x20)\n      swap1\n      dup2\n      add\n      swap1\n      tag_296\n      swap2\n      swap1\n      tag_297\n      jump\t// in\n    tag_296:\n      pop\n      jump\t// out\n    tag_285:\n      pop\n      dup1\n      sload\n      0x00\n      dup3\n      sstore\n      swap1\n      0x00\n      mstore\n      keccak256(0x00, 0x20)\n      swap1\n      dup2\n      add\n      swap1\n      tag_299\n      swap2\n      swap1\n      tag_300\n      jump\t// in\n    tag_299:\n      pop\n      jump\t// out\n    tag_297:\n    tag_301:\n      dup1\n      dup3\n      gt\n      iszero\n      tag_302\n      jumpi\n      0x00\n      dup1\n      dup3\n      add\n      0x00\n      tag_303\n      swap2\n      swap1\n      tag_304\n      jump\t// in\n    tag_303:\n      0x01\n      dup3\n      add\n      0x00\n      swap1\n      sstore\n      pop\n      0x02\n      add\n      jump(tag_301)\n    tag_302:\n      pop\n      swap1\n      jump\t// out\n    tag_300:\n    tag_305:\n      dup1\n      dup3\n      gt\n      iszero\n      tag_306\n      jumpi\n      0x00\n      dup2\n      0x00\n      swap1\n      sstore\n      pop\n      0x01\n      add\n      jump(tag_305)\n    tag_306:\n      pop\n      swap1\n      jump\t// out\n    tag_304:\n      pop\n      dup1\n      sload\n      tag_307\n      swap1\n      tag_150\n      jump\t// in\n    tag_307:\n      0x00\n      dup3\n      sstore\n      dup1\n      0x1f\n      lt\n      tag_309\n      jumpi\n      pop\n      jump(tag_308)\n    tag_309:\n      0x1f\n      add\n      0x20\n      swap1\n      div\n      swap1\n      0x00\n      mstore\n      keccak256(0x00, 0x20)\n      swap1\n      dup2\n      add\n      swap1\n      tag_310\n      swap2\n      swap1\n      tag_300\n      jump\t// in\n    tag_310:\n    tag_308:\n      pop\n      jump\t// out\n        /* \"#utility.yul\":88:205   */\n    tag_312:\n        /* \"#utility.yul\":197:198   */\n      0x00\n        /* \"#utility.yul\":194:195   */\n      dup1\n        /* \"#utility.yul\":187:199   */\n      revert\n        /* \"#utility.yul\":211:328   */\n    tag_313:\n        /* \"#utility.yul\":320:321   */\n      0x00\n        /* \"#utility.yul\":317:318   */\n      dup1\n        /* \"#utility.yul\":310:322   */\n      revert\n        /* \"#utility.yul\":334:411   */\n    tag_314:\n        /* \"#utility.yul\":371:378   */\n      0x00\n        /* \"#utility.yul\":400:405   */\n      dup2\n        /* \"#utility.yul\":389:405   */\n      swap1\n      pop\n        /* \"#utility.yul\":334:411   */\n      swap2\n      swap1\n      pop\n      jump\t// out\n        /* \"#utility.yul\":417:539   */\n    tag_315:\n        /* \"#utility.yul\":490:514   */\n      tag_399\n        /* \"#utility.yul\":508:513   */\n      dup2\n        /* \"#utility.yul\":490:514   */\n      tag_314\n      jump\t// in\n    tag_399:\n        /* \"#utility.yul\":483:488   */\n      dup2\n        /* \"#utility.yul\":480:515   */\n      eq\n        /* \"#utility.yul\":470:533   */\n      tag_400\n      jumpi\n        /* \"#utility.yul\":529:530   */\n      0x00\n        /* \"#utility.yul\":526:527   */\n      dup1\n        /* \"#utility.yul\":519:531   */\n      revert\n        /* \"#utility.yul\":470:533   */\n    tag_400:\n        /* \"#utility.yul\":417:539   */\n      pop\n      jump\t// out\n        /* \"#utility.yul\":545:684   */\n    tag_316:\n        /* \"#utility.yul\":591:596   */\n      0x00\n        /* \"#utility.yul\":629:635   */\n      dup2\n        /* \"#utility.yul\":616:636   */\n      calldataload\n        /* \"#utility.yul\":607:636   */\n      swap1\n      pop\n        /* \"#utility.yul\":645:678   */\n      tag_402\n        /* \"#utility.yul\":672:677   */\n      dup2\n        /* \"#utility.yul\":645:678   */\n      tag_315\n      jump\t// in\n    tag_402:\n        /* \"#utility.yul\":545:684   */\n      swap3\n      swap2\n      pop\n      pop\n      jump\t// out\n        /* \"#utility.yul\":690:1019   */\n    tag_23:\n        /* \"#utility.yul\":749:755   */\n      0x00\n        /* \"#utility.yul\":798:800   */\n      0x20\n        /* \"#utility.yul\":786:795   */\n      dup3\n        /* \"#utility.yul\":777:784   */\n      dup5\n        /* \"#utility.yul\":773:796   */\n      sub\n        /* \"#utility.yul\":769:801   */\n      slt\n        /* \"#utility.yul\":766:885   */\n      iszero\n      tag_404\n      jumpi\n        /* \"#utility.yul\":804:883   */\n      tag_405\n      tag_312\n      jump\t// in\n    tag_405:\n        /* \"#utility.yul\":766:885   */\n    tag_404:\n        /* \"#utility.yul\":924:925   */\n      0x00\n        /* \"#utility.yul\":949:1002   */\n      tag_406\n        /* \"#utility.yul\":994:1001   */\n      dup5\n        /* \"#utility.yul\":985:991   */\n      dup3\n        /* \"#utility.yul\":974:983   */\n      dup6\n        /* \"#utility.yul\":970:992   */\n      add\n        /* \"#utility.yul\":949:1002   */\n      tag_316\n      jump\t// in\n    tag_406:\n        /* \"#utility.yul\":939:1002   */\n      swap2\n      pop\n        /* \"#utility.yul\":895:1012   */\n      pop\n        /* \"#utility.yul\":690:1019   */\n      swap3\n      swap2\n      pop\n      pop\n      jump\t// out\n        /* \"#utility.yul\":1025:1142   */\n    tag_317:\n        /* \"#utility.yul\":1134:1135   */\n      0x00\n        /* \"#utility.yul\":1131:1132   */\n      dup1\n        /* \"#utility.yul\":1124:1136   */\n      revert\n        /* \"#utility.yul\":1148:1265   */\n    tag_318:\n        /* \"#utility.yul\":1257:1258   */\n      0x00\n        /* \"#utility.yul\":1254:1255   */\n      dup1\n        /* \"#utility.yul\":1247:1259   */\n      revert\n        /* \"#utility.yul\":1271:1388   */\n    tag_319:\n        /* \"#utility.yul\":1380:1381   */\n      0x00\n        /* \"#utility.yul\":1377:1378   */\n      dup1\n        /* \"#utility.yul\":1370:1382   */\n      revert\n        /* \"#utility.yul\":1408:1961   */\n    tag_320:\n        /* \"#utility.yul\":1466:1474   */\n      0x00\n        /* \"#utility.yul\":1476:1482   */\n      dup1\n        /* \"#utility.yul\":1526:1529   */\n      dup4\n        /* \"#utility.yul\":1519:1523   */\n      0x1f\n        /* \"#utility.yul\":1511:1517   */\n      dup5\n        /* \"#utility.yul\":1507:1524   */\n      add\n        /* \"#utility.yul\":1503:1530   */\n      slt\n        /* \"#utility.yul\":1493:1615   */\n      tag_411\n      jumpi\n        /* \"#utility.yul\":1534:1613   */\n      tag_412\n      tag_317\n      jump\t// in\n    tag_412:\n        /* \"#utility.yul\":1493:1615   */\n    tag_411:\n        /* \"#utility.yul\":1647:1653   */\n      dup3\n        /* \"#utility.yul\":1634:1654   */\n      calldataload\n        /* \"#utility.yul\":1624:1654   */\n      swap1\n      pop\n        /* \"#utility.yul\":1677:1695   */\n      0xffffffffffffffff\n        /* \"#utility.yul\":1669:1675   */\n      dup2\n        /* \"#utility.yul\":1666:1696   */\n      gt\n        /* \"#utility.yul\":1663:1780   */\n      iszero\n      tag_413\n      jumpi\n        /* \"#utility.yul\":1699:1778   */\n      tag_414\n      tag_318\n      jump\t// in\n    tag_414:\n        /* \"#utility.yul\":1663:1780   */\n    tag_413:\n        /* \"#utility.yul\":1813:1817   */\n      0x20\n        /* \"#utility.yul\":1805:1811   */\n      dup4\n        /* \"#utility.yul\":1801:1818   */\n      add\n        /* \"#utility.yul\":1789:1818   */\n      swap2\n      pop\n        /* \"#utility.yul\":1867:1870   */\n      dup4\n        /* \"#utility.yul\":1859:1863   */\n      0x01\n        /* \"#utility.yul\":1851:1857   */\n      dup3\n        /* \"#utility.yul\":1847:1864   */\n      mul\n        /* \"#utility.yul\":1837:1845   */\n      dup4\n        /* \"#utility.yul\":1833:1865   */\n      add\n        /* \"#utility.yul\":1830:1871   */\n      gt\n        /* \"#utility.yul\":1827:1955   */\n      iszero\n      tag_415\n      jumpi\n        /* \"#utility.yul\":1874:1953   */\n      tag_416\n      tag_319\n      jump\t// in\n    tag_416:\n        /* \"#utility.yul\":1827:1955   */\n    tag_415:\n        /* \"#utility.yul\":1408:1961   */\n      swap3\n      pop\n      swap3\n      swap1\n      pop\n      jump\t// out\n        /* \"#utility.yul\":1967:2496   */\n    tag_29:\n        /* \"#utility.yul\":2038:2044   */\n      0x00\n        /* \"#utility.yul\":2046:2052   */\n      dup1\n        /* \"#utility.yul\":2095:2097   */\n      0x20\n        /* \"#utility.yul\":2083:2092   */\n      dup4\n        /* \"#utility.yul\":2074:2081   */\n      dup6\n        /* \"#utility.yul\":2070:2093   */\n      sub\n        /* \"#utility.yul\":2066:2098   */\n      slt\n        /* \"#utility.yul\":2063:2182   */\n      iszero\n      tag_418\n      jumpi\n        /* \"#utility.yul\":2101:2180   */\n      tag_419\n      tag_312\n      jump\t// in\n    tag_419:\n        /* \"#utility.yul\":2063:2182   */\n    tag_418:\n        /* \"#utility.yul\":2249:2250   */\n      0x00\n        /* \"#utility.yul\":2238:2247   */\n      dup4\n        /* \"#utility.yul\":2234:2251   */\n      add\n        /* \"#utility.yul\":2221:2252   */\n      calldataload\n        /* \"#utility.yul\":2279:2297   */\n      0xffffffffffffffff\n        /* \"#utility.yul\":2271:2277   */\n      dup2\n        /* \"#utility.yul\":2268:2298   */\n      gt\n        /* \"#utility.yul\":2265:2382   */\n      iszero\n      tag_420\n      jumpi\n        /* \"#utility.yul\":2301:2380   */\n      tag_421\n      tag_313\n      jump\t// in\n    tag_421:\n        /* \"#utility.yul\":2265:2382   */\n    tag_420:\n        /* \"#utility.yul\":2414:2479   */\n      tag_422\n        /* \"#utility.yul\":2471:2478   */\n      dup6\n        /* \"#utility.yul\":2462:2468   */\n      dup3\n        /* \"#utility.yul\":2451:2460   */\n      dup7\n        /* \"#utility.yul\":2447:2469   */\n      add\n        /* \"#utility.yul\":2414:2479   */\n      tag_320\n      jump\t// in\n    tag_422:\n        /* \"#utility.yul\":2396:2479   */\n      swap3\n      pop\n      swap3\n      pop\n        /* \"#utility.yul\":2192:2489   */\n      pop\n        /* \"#utility.yul\":1967:2496   */\n      swap3\n      pop\n      swap3\n      swap1\n      pop\n      jump\t// out\n        /* \"#utility.yul\":2502:2641   */\n    tag_321:\n        /* \"#utility.yul\":2594:2600   */\n      0x00\n        /* \"#utility.yul\":2628:2633   */\n      dup2\n        /* \"#utility.yul\":2622:2634   */\n      mload\n        /* \"#utility.yul\":2612:2634   */\n      swap1\n      pop\n        /* \"#utility.yul\":2502:2641   */\n      swap2\n      swap1\n      pop\n      jump\t// out\n        /* \"#utility.yul\":2647:2856   */\n    tag_322:\n        /* \"#utility.yul\":2771:2782   */\n      0x00\n        /* \"#utility.yul\":2805:2811   */\n      dup3\n        /* \"#utility.yul\":2800:2803   */\n      dup3\n        /* \"#utility.yul\":2793:2812   */\n      mstore\n        /* \"#utility.yul\":2845:2849   */\n      0x20\n        /* \"#utility.yul\":2840:2843   */\n      dup3\n        /* \"#utility.yul\":2836:2850   */\n      add\n        /* \"#utility.yul\":2821:2850   */\n      swap1\n      pop\n        /* \"#utility.yul\":2647:2856   */\n      swap3\n      swap2\n      pop\n      pop\n      jump\t// out\n        /* \"#utility.yul\":2862:3019   */\n    tag_323:\n        /* \"#utility.yul\":2954:2958   */\n      0x00\n        /* \"#utility.yul\":2977:2980   */\n      dup2\n        /* \"#utility.yul\":2969:2980   */\n      swap1\n      pop\n        /* \"#utility.yul\":3007:3011   */\n      0x20\n        /* \"#utility.yul\":3002:3005   */\n      dup3\n        /* \"#utility.yul\":2998:3012   */\n      add\n        /* \"#utility.yul\":2990:3012   */\n      swap1\n      pop\n        /* \"#utility.yul\":2862:3019   */\n      swap2\n      swap1\n      pop\n      jump\t// out\n        /* \"#utility.yul\":3025:3124   */\n    tag_324:\n        /* \"#utility.yul\":3077:3083   */\n      0x00\n        /* \"#utility.yul\":3111:3116   */\n      dup2\n        /* \"#utility.yul\":3105:3117   */\n      mload\n        /* \"#utility.yul\":3095:3117   */\n      swap1\n      pop\n        /* \"#utility.yul\":3025:3124   */\n      swap2\n      swap1\n      pop\n      jump\t// out\n        /* \"#utility.yul\":3130:3289   */\n    tag_325:\n        /* \"#utility.yul\":3204:3215   */\n      0x00\n        /* \"#utility.yul\":3238:3244   */\n      dup3\n        /* \"#utility.yul\":3233:3236   */\n      dup3\n        /* \"#utility.yul\":3226:3245   */\n      mstore\n        /* \"#utility.yul\":3278:3282   */\n      0x20\n        /* \"#utility.yul\":3273:3276   */\n      dup3\n        /* \"#utility.yul\":3269:3283   */\n      add\n        /* \"#utility.yul\":3254:3283   */\n      swap1\n      pop\n        /* \"#utility.yul\":3130:3289   */\n      swap3\n      swap2\n      pop\n      pop\n      jump\t// out\n        /* \"#utility.yul\":3295:3541   */\n    tag_326:\n        /* \"#utility.yul\":3376:3377   */\n      0x00\n        /* \"#utility.yul\":3386:3499   */\n    tag_429:\n        /* \"#utility.yul\":3400:3406   */\n      dup4\n        /* \"#utility.yul\":3397:3398   */\n      dup2\n        /* \"#utility.yul\":3394:3407   */\n      lt\n        /* \"#utility.yul\":3386:3499   */\n      iszero\n      tag_431\n      jumpi\n        /* \"#utility.yul\":3485:3486   */\n      dup1\n        /* \"#utility.yul\":3480:3483   */\n      dup3\n        /* \"#utility.yul\":3476:3487   */\n      add\n        /* \"#utility.yul\":3470:3488   */\n      mload\n        /* \"#utility.yul\":3466:3467   */\n      dup2\n        /* \"#utility.yul\":3461:3464   */\n      dup5\n        /* \"#utility.yul\":3457:3468   */\n      add\n        /* \"#utility.yul\":3450:3489   */\n      mstore\n        /* \"#utility.yul\":3422:3424   */\n      0x20\n        /* \"#utility.yul\":3419:3420   */\n      dup2\n        /* \"#utility.yul\":3415:3425   */\n      add\n        /* \"#utility.yul\":3410:3425   */\n      swap1\n      pop\n        /* \"#utility.yul\":3386:3499   */\n      jump(tag_429)\n    tag_431:\n        /* \"#utility.yul\":3533:3534   */\n      0x00\n        /* \"#utility.yul\":3524:3530   */\n      dup5\n        /* \"#utility.yul\":3519:3522   */\n      dup5\n        /* \"#utility.yul\":3515:3531   */\n      add\n        /* \"#utility.yul\":3508:3535   */\n      mstore\n        /* \"#utility.yul\":3357:3541   */\n      pop\n        /* \"#utility.yul\":3295:3541   */\n      pop\n      pop\n      pop\n      jump\t// out\n        /* \"#utility.yul\":3547:3649   */\n    tag_327:\n        /* \"#utility.yul\":3588:3594   */\n      0x00\n        /* \"#utility.yul\":3639:3641   */\n      0x1f\n        /* \"#utility.yul\":3635:3642   */\n      not\n        /* \"#utility.yul\":3630:3632   */\n      0x1f\n        /* \"#utility.yul\":3623:3628   */\n      dup4\n        /* \"#utility.yul\":3619:3633   */\n      add\n        /* \"#utility.yul\":3615:3643   */\n      and\n        /* \"#utility.yul\":3605:3643   */\n      swap1\n      pop\n        /* \"#utility.yul\":3547:3649   */\n      swap2\n      swap1\n      pop\n      jump\t// out\n        /* \"#utility.yul\":3655:4012   */\n    tag_328:\n        /* \"#utility.yul\":3733:3736   */\n      0x00\n        /* \"#utility.yul\":3761:3800   */\n      tag_434\n        /* \"#utility.yul\":3794:3799   */\n      dup3\n        /* \"#utility.yul\":3761:3800   */\n      tag_324\n      jump\t// in\n    tag_434:\n        /* \"#utility.yul\":3816:3877   */\n      tag_435\n        /* \"#utility.yul\":3870:3876   */\n      dup2\n        /* \"#utility.yul\":3865:3868   */\n      dup6\n        /* \"#utility.yul\":3816:3877   */\n      tag_325\n      jump\t// in\n    tag_435:\n        /* \"#utility.yul\":3809:3877   */\n      swap4\n      pop\n        /* \"#utility.yul\":3886:3951   */\n      tag_436\n        /* \"#utility.yul\":3944:3950   */\n      dup2\n        /* \"#utility.yul\":3939:3942   */\n      dup6\n        /* \"#utility.yul\":3932:3936   */\n      0x20\n        /* \"#utility.yul\":3925:3930   */\n      dup7\n        /* \"#utility.yul\":3921:3937   */\n      add\n        /* \"#utility.yul\":3886:3951   */\n      tag_326\n      jump\t// in\n    tag_436:\n        /* \"#utility.yul\":3976:4005   */\n      tag_437\n        /* \"#utility.yul\":3998:4004   */\n      dup2\n        /* \"#utility.yul\":3976:4005   */\n      tag_327\n      jump\t// in\n    tag_437:\n        /* \"#utility.yul\":3971:3974   */\n      dup5\n        /* \"#utility.yul\":3967:4006   */\n      add\n        /* \"#utility.yul\":3960:4006   */\n      swap2\n      pop\n        /* \"#utility.yul\":3737:4012   */\n      pop\n        /* \"#utility.yul\":3655:4012   */\n      swap3\n      swap2\n      pop\n      pop\n      jump\t// out\n        /* \"#utility.yul\":4018:4126   */\n    tag_329:\n        /* \"#utility.yul\":4095:4119   */\n      tag_439\n        /* \"#utility.yul\":4113:4118   */\n      dup2\n        /* \"#utility.yul\":4095:4119   */\n      tag_314\n      jump\t// in\n    tag_439:\n        /* \"#utility.yul\":4090:4093   */\n      dup3\n        /* \"#utility.yul\":4083:4120   */\n      mstore\n        /* \"#utility.yul\":4018:4126   */\n      pop\n      pop\n      jump\t// out\n        /* \"#utility.yul\":4196:4804   */\n    tag_330:\n        /* \"#utility.yul\":4305:4308   */\n      0x00\n        /* \"#utility.yul\":4341:4345   */\n      0x40\n        /* \"#utility.yul\":4336:4339   */\n      dup4\n        /* \"#utility.yul\":4332:4346   */\n      add\n        /* \"#utility.yul\":4435:4439   */\n      0x00\n        /* \"#utility.yul\":4428:4433   */\n      dup4\n        /* \"#utility.yul\":4424:4440   */\n      add\n        /* \"#utility.yul\":4418:4441   */\n      mload\n        /* \"#utility.yul\":4488:4491   */\n      dup5\n        /* \"#utility.yul\":4482:4486   */\n      dup3\n        /* \"#utility.yul\":4478:4492   */\n      sub\n        /* \"#utility.yul\":4471:4475   */\n      0x00\n        /* \"#utility.yul\":4466:4469   */\n      dup7\n        /* \"#utility.yul\":4462:4476   */\n      add\n        /* \"#utility.yul\":4455:4493   */\n      mstore\n        /* \"#utility.yul\":4514:4587   */\n      tag_441\n        /* \"#utility.yul\":4582:4586   */\n      dup3\n        /* \"#utility.yul\":4568:4580   */\n      dup3\n        /* \"#utility.yul\":4514:4587   */\n      tag_328\n      jump\t// in\n    tag_441:\n        /* \"#utility.yul\":4506:4587   */\n      swap2\n      pop\n        /* \"#utility.yul\":4356:4598   */\n      pop\n        /* \"#utility.yul\":4685:4689   */\n      0x20\n        /* \"#utility.yul\":4678:4683   */\n      dup4\n        /* \"#utility.yul\":4674:4690   */\n      add\n        /* \"#utility.yul\":4668:4691   */\n      mload\n        /* \"#utility.yul\":4704:4767   */\n      tag_442\n        /* \"#utility.yul\":4761:4765   */\n      0x20\n        /* \"#utility.yul\":4756:4759   */\n      dup7\n        /* \"#utility.yul\":4752:4766   */\n      add\n        /* \"#utility.yul\":4738:4750   */\n      dup3\n        /* \"#utility.yul\":4704:4767   */\n      tag_329\n      jump\t// in\n    tag_442:\n        /* \"#utility.yul\":4608:4777   */\n      pop\n        /* \"#utility.yul\":4794:4798   */\n      dup1\n        /* \"#utility.yul\":4787:4798   */\n      swap2\n      pop\n        /* \"#utility.yul\":4310:4804   */\n      pop\n        /* \"#utility.yul\":4196:4804   */\n      swap3\n      swap2\n      pop\n      pop\n      jump\t// out\n        /* \"#utility.yul\":4810:5066   */\n    tag_331:\n        /* \"#utility.yul\":4929:4939   */\n      0x00\n        /* \"#utility.yul\":4964:5060   */\n      tag_444\n        /* \"#utility.yul\":5056:5059   */\n      dup4\n        /* \"#utility.yul\":5048:5054   */\n      dup4\n        /* \"#utility.yul\":4964:5060   */\n      tag_330\n      jump\t// in\n    tag_444:\n        /* \"#utility.yul\":4950:5060   */\n      swap1\n      pop\n        /* \"#utility.yul\":4810:5066   */\n      swap3\n      swap2\n      pop\n      pop\n      jump\t// out\n        /* \"#utility.yul\":5072:5210   */\n    tag_332:\n        /* \"#utility.yul\":5167:5171   */\n      0x00\n        /* \"#utility.yul\":5199:5203   */\n      0x20\n        /* \"#utility.yul\":5194:5197   */\n      dup3\n        /* \"#utility.yul\":5190:5204   */\n      add\n        /* \"#utility.yul\":5182:5204   */\n      swap1\n      pop\n        /* \"#utility.yul\":5072:5210   */\n      swap2\n      swap1\n      pop\n      jump\t// out\n        /* \"#utility.yul\":5284:6395   */\n    tag_333:\n        /* \"#utility.yul\":5453:5456   */\n      0x00\n        /* \"#utility.yul\":5482:5561   */\n      tag_447\n        /* \"#utility.yul\":5555:5560   */\n      dup3\n        /* \"#utility.yul\":5482:5561   */\n      tag_321\n      jump\t// in\n    tag_447:\n        /* \"#utility.yul\":5577:5688   */\n      tag_448\n        /* \"#utility.yul\":5681:5687   */\n      dup2\n        /* \"#utility.yul\":5676:5679   */\n      dup6\n        /* \"#utility.yul\":5577:5688   */\n      tag_322\n      jump\t// in\n    tag_448:\n        /* \"#utility.yul\":5570:5688   */\n      swap4\n      pop\n        /* \"#utility.yul\":5714:5717   */\n      dup4\n        /* \"#utility.yul\":5759:5763   */\n      0x20\n        /* \"#utility.yul\":5751:5757   */\n      dup3\n        /* \"#utility.yul\":5747:5764   */\n      mul\n        /* \"#utility.yul\":5742:5745   */\n      dup6\n        /* \"#utility.yul\":5738:5765   */\n      add\n        /* \"#utility.yul\":5789:5870   */\n      tag_449\n        /* \"#utility.yul\":5864:5869   */\n      dup6\n        /* \"#utility.yul\":5789:5870   */\n      tag_323\n      jump\t// in\n    tag_449:\n        /* \"#utility.yul\":5893:5900   */\n      dup1\n        /* \"#utility.yul\":5924:5925   */\n      0x00\n        /* \"#utility.yul\":5909:6350   */\n    tag_450:\n        /* \"#utility.yul\":5934:5940   */\n      dup6\n        /* \"#utility.yul\":5931:5932   */\n      dup2\n        /* \"#utility.yul\":5928:5941   */\n      lt\n        /* \"#utility.yul\":5909:6350   */\n      iszero\n      tag_452\n      jumpi\n        /* \"#utility.yul\":6005:6014   */\n      dup5\n        /* \"#utility.yul\":5999:6003   */\n      dup5\n        /* \"#utility.yul\":5995:6015   */\n      sub\n        /* \"#utility.yul\":5990:5993   */\n      dup10\n        /* \"#utility.yul\":5983:6016   */\n      mstore\n        /* \"#utility.yul\":6056:6062   */\n      dup2\n        /* \"#utility.yul\":6050:6063   */\n      mload\n        /* \"#utility.yul\":6084:6198   */\n      tag_453\n        /* \"#utility.yul\":6193:6197   */\n      dup6\n        /* \"#utility.yul\":6178:6191   */\n      dup3\n        /* \"#utility.yul\":6084:6198   */\n      tag_331\n      jump\t// in\n    tag_453:\n        /* \"#utility.yul\":6076:6198   */\n      swap5\n      pop\n        /* \"#utility.yul\":6221:6306   */\n      tag_454\n        /* \"#utility.yul\":6299:6305   */\n      dup4\n        /* \"#utility.yul\":6221:6306   */\n      tag_332\n      jump\t// in\n    tag_454:\n        /* \"#utility.yul\":6211:6306   */\n      swap3\n      pop\n        /* \"#utility.yul\":6335:6339   */\n      0x20\n        /* \"#utility.yul\":6330:6333   */\n      dup11\n        /* \"#utility.yul\":6326:6340   */\n      add\n        /* \"#utility.yul\":6319:6340   */\n      swap10\n      pop\n        /* \"#utility.yul\":5969:6350   */\n      pop\n        /* \"#utility.yul\":5956:5957   */\n      0x01\n        /* \"#utility.yul\":5953:5954   */\n      dup2\n        /* \"#utility.yul\":5949:5958   */\n      add\n        /* \"#utility.yul\":5944:5958   */\n      swap1\n      pop\n        /* \"#utility.yul\":5909:6350   */\n      jump(tag_450)\n    tag_452:\n        /* \"#utility.yul\":5913:5927   */\n      pop\n        /* \"#utility.yul\":6366:6370   */\n      dup3\n        /* \"#utility.yul\":6359:6370   */\n      swap8\n      pop\n        /* \"#utility.yul\":6386:6389   */\n      dup8\n        /* \"#utility.yul\":6379:6389   */\n      swap6\n      pop\n        /* \"#utility.yul\":5458:6395   */\n      pop\n      pop\n      pop\n      pop\n      pop\n        /* \"#utility.yul\":5284:6395   */\n      swap3\n      swap2\n      pop\n      pop\n      jump\t// out\n        /* \"#utility.yul\":6401:6874   */\n    tag_36:\n        /* \"#utility.yul\":6594:6598   */\n      0x00\n        /* \"#utility.yul\":6632:6634   */\n      0x20\n        /* \"#utility.yul\":6621:6630   */\n      dup3\n        /* \"#utility.yul\":6617:6635   */\n      add\n        /* \"#utility.yul\":6609:6635   */\n      swap1\n      pop\n        /* \"#utility.yul\":6681:6690   */\n      dup2\n        /* \"#utility.yul\":6675:6679   */\n      dup2\n        /* \"#utility.yul\":6671:6691   */\n      sub\n        /* \"#utility.yul\":6667:6668   */\n      0x00\n        /* \"#utility.yul\":6656:6665   */\n      dup4\n        /* \"#utility.yul\":6652:6669   */\n      add\n        /* \"#utility.yul\":6645:6692   */\n      mstore\n        /* \"#utility.yul\":6709:6867   */\n      tag_456\n        /* \"#utility.yul\":6862:6866   */\n      dup2\n        /* \"#utility.yul\":6853:6859   */\n      dup5\n        /* \"#utility.yul\":6709:6867   */\n      tag_333\n      jump\t// in\n    tag_456:\n        /* \"#utility.yul\":6701:6867   */\n      swap1\n      pop\n        /* \"#utility.yul\":6401:6874   */\n      swap3\n      swap2\n      pop\n      pop\n      jump\t// out\n        /* \"#utility.yul\":6880:7006   */\n    tag_334:\n        /* \"#utility.yul\":6917:6924   */\n      0x00\n        /* \"#utility.yul\":6957:6999   */\n      0xffffffffffffffffffffffffffffffffffffffff\n        /* \"#utility.yul\":6950:6955   */\n      dup3\n        /* \"#utility.yul\":6946:7000   */\n      and\n        /* \"#utility.yul\":6935:7000   */\n      swap1\n      pop\n        /* \"#utility.yul\":6880:7006   */\n      swap2\n      swap1\n      pop\n      jump\t// out\n        /* \"#utility.yul\":7012:7108   */\n    tag_335:\n        /* \"#utility.yul\":7049:7056   */\n      0x00\n        /* \"#utility.yul\":7078:7102   */\n      tag_459\n        /* \"#utility.yul\":7096:7101   */\n      dup3\n        /* \"#utility.yul\":7078:7102   */\n      tag_334\n      jump\t// in\n    tag_459:\n        /* \"#utility.yul\":7067:7102   */\n      swap1\n      pop\n        /* \"#utility.yul\":7012:7108   */\n      swap2\n      swap1\n      pop\n      jump\t// out\n        /* \"#utility.yul\":7114:7232   */\n    tag_336:\n        /* \"#utility.yul\":7201:7225   */\n      tag_461\n        /* \"#utility.yul\":7219:7224   */\n      dup2\n        /* \"#utility.yul\":7201:7225   */\n      tag_335\n      jump\t// in\n    tag_461:\n        /* \"#utility.yul\":7196:7199   */\n      dup3\n        /* \"#utility.yul\":7189:7226   */\n      mstore\n        /* \"#utility.yul\":7114:7232   */\n      pop\n      pop\n      jump\t// out\n        /* \"#utility.yul\":7238:7460   */\n    tag_42:\n        /* \"#utility.yul\":7331:7335   */\n      0x00\n        /* \"#utility.yul\":7369:7371   */\n      0x20\n        /* \"#utility.yul\":7358:7367   */\n      dup3\n        /* \"#utility.yul\":7354:7372   */\n      add\n        /* \"#utility.yul\":7346:7372   */\n      swap1\n      pop\n        /* \"#utility.yul\":7382:7453   */\n      tag_463\n        /* \"#utility.yul\":7450:7451   */\n      0x00\n        /* \"#utility.yul\":7439:7448   */\n      dup4\n        /* \"#utility.yul\":7435:7452   */\n      add\n        /* \"#utility.yul\":7426:7432   */\n      dup5\n        /* \"#utility.yul\":7382:7453   */\n      tag_336\n      jump\t// in\n    tag_463:\n        /* \"#utility.yul\":7238:7460   */\n      swap3\n      swap2\n      pop\n      pop\n      jump\t// out\n        /* \"#utility.yul\":7530:8148   */\n    tag_337:\n        /* \"#utility.yul\":7649:7652   */\n      0x00\n        /* \"#utility.yul\":7685:7689   */\n      0x40\n        /* \"#utility.yul\":7680:7683   */\n      dup4\n        /* \"#utility.yul\":7676:7690   */\n      add\n        /* \"#utility.yul\":7779:7783   */\n      0x00\n        /* \"#utility.yul\":7772:7777   */\n      dup4\n        /* \"#utility.yul\":7768:7784   */\n      add\n        /* \"#utility.yul\":7762:7785   */\n      mload\n        /* \"#utility.yul\":7832:7835   */\n      dup5\n        /* \"#utility.yul\":7826:7830   */\n      dup3\n        /* \"#utility.yul\":7822:7836   */\n      sub\n        /* \"#utility.yul\":7815:7819   */\n      0x00\n        /* \"#utility.yul\":7810:7813   */\n      dup7\n        /* \"#utility.yul\":7806:7820   */\n      add\n        /* \"#utility.yul\":7799:7837   */\n      mstore\n        /* \"#utility.yul\":7858:7931   */\n      tag_465\n        /* \"#utility.yul\":7926:7930   */\n      dup3\n        /* \"#utility.yul\":7912:7924   */\n      dup3\n        /* \"#utility.yul\":7858:7931   */\n      tag_328\n      jump\t// in\n    tag_465:\n        /* \"#utility.yul\":7850:7931   */\n      swap2\n      pop\n        /* \"#utility.yul\":7700:7942   */\n      pop\n        /* \"#utility.yul\":8029:8033   */\n      0x20\n        /* \"#utility.yul\":8022:8027   */\n      dup4\n        /* \"#utility.yul\":8018:8034   */\n      add\n        /* \"#utility.yul\":8012:8035   */\n      mload\n        /* \"#utility.yul\":8048:8111   */\n      tag_466\n        /* \"#utility.yul\":8105:8109   */\n      0x20\n        /* \"#utility.yul\":8100:8103   */\n      dup7\n        /* \"#utility.yul\":8096:8110   */\n      add\n        /* \"#utility.yul\":8082:8094   */\n      dup3\n        /* \"#utility.yul\":8048:8111   */\n      tag_329\n      jump\t// in\n    tag_466:\n        /* \"#utility.yul\":7952:8121   */\n      pop\n        /* \"#utility.yul\":8138:8142   */\n      dup1\n        /* \"#utility.yul\":8131:8142   */\n      swap2\n      pop\n        /* \"#utility.yul\":7654:8148   */\n      pop\n        /* \"#utility.yul\":7530:8148   */\n      swap3\n      swap2\n      pop\n      pop\n      jump\t// out\n        /* \"#utility.yul\":8154:8527   */\n    tag_46:\n        /* \"#utility.yul\":8297:8301   */\n      0x00\n        /* \"#utility.yul\":8335:8337   */\n      0x20\n        /* \"#utility.yul\":8324:8333   */\n      dup3\n        /* \"#utility.yul\":8320:8338   */\n      add\n        /* \"#utility.yul\":8312:8338   */\n      swap1\n      pop\n        /* \"#utility.yul\":8384:8393   */\n      dup2\n        /* \"#utility.yul\":8378:8382   */\n      dup2\n        /* \"#utility.yul\":8374:8394   */\n      sub\n        /* \"#utility.yul\":8370:8371   */\n      0x00\n        /* \"#utility.yul\":8359:8368   */\n      dup4\n        /* \"#utility.yul\":8355:8372   */\n      add\n        /* \"#utility.yul\":8348:8395   */\n      mstore\n        /* \"#utility.yul\":8412:8520   */\n      tag_468\n        /* \"#utility.yul\":8515:8519   */\n      dup2\n        /* \"#utility.yul\":8506:8512   */\n      dup5\n        /* \"#utility.yul\":8412:8520   */\n      tag_337\n      jump\t// in\n    tag_468:\n        /* \"#utility.yul\":8404:8520   */\n      swap1\n      pop\n        /* \"#utility.yul\":8154:8527   */\n      swap3\n      swap2\n      pop\n      pop\n      jump\t// out\n        /* \"#utility.yul\":8533:8655   */\n    tag_338:\n        /* \"#utility.yul\":8606:8630   */\n      tag_470\n        /* \"#utility.yul\":8624:8629   */\n      dup2\n        /* \"#utility.yul\":8606:8630   */\n      tag_335\n      jump\t// in\n    tag_470:\n        /* \"#utility.yul\":8599:8604   */\n      dup2\n        /* \"#utility.yul\":8596:8631   */\n      eq\n        /* \"#utility.yul\":8586:8649   */\n      tag_471\n      jumpi\n        /* \"#utility.yul\":8645:8646   */\n      0x00\n        /* \"#utility.yul\":8642:8643   */\n      dup1\n        /* \"#utility.yul\":8635:8647   */\n      revert\n        /* \"#utility.yul\":8586:8649   */\n    tag_471:\n        /* \"#utility.yul\":8533:8655   */\n      pop\n      jump\t// out\n        /* \"#utility.yul\":8661:8800   */\n    tag_339:\n        /* \"#utility.yul\":8707:8712   */\n      0x00\n        /* \"#utility.yul\":8745:8751   */\n      dup2\n        /* \"#utility.yul\":8732:8752   */\n      calldataload\n        /* \"#utility.yul\":8723:8752   */\n      swap1\n      pop\n        /* \"#utility.yul\":8761:8794   */\n      tag_473\n        /* \"#utility.yul\":8788:8793   */\n      dup2\n        /* \"#utility.yul\":8761:8794   */\n      tag_338\n      jump\t// in\n    tag_473:\n        /* \"#utility.yul\":8661:8800   */\n      swap3\n      swap2\n      pop\n      pop\n      jump\t// out\n        /* \"#utility.yul\":8806:9135   */\n    tag_53:\n        /* \"#utility.yul\":8865:8871   */\n      0x00\n        /* \"#utility.yul\":8914:8916   */\n      0x20\n        /* \"#utility.yul\":8902:8911   */\n      dup3\n        /* \"#utility.yul\":8893:8900   */\n      dup5\n        /* \"#utility.yul\":8889:8912   */\n      sub\n        /* \"#utility.yul\":8885:8917   */\n      slt\n        /* \"#utility.yul\":8882:9001   */\n      iszero\n      tag_475\n      jumpi\n        /* \"#utility.yul\":8920:8999   */\n      tag_476\n      tag_312\n      jump\t// in\n    tag_476:\n        /* \"#utility.yul\":8882:9001   */\n    tag_475:\n        /* \"#utility.yul\":9040:9041   */\n      0x00\n        /* \"#utility.yul\":9065:9118   */\n      tag_477\n        /* \"#utility.yul\":9110:9117   */\n      dup5\n        /* \"#utility.yul\":9101:9107   */\n      dup3\n        /* \"#utility.yul\":9090:9099   */\n      dup6\n        /* \"#utility.yul\":9086:9108   */\n      add\n        /* \"#utility.yul\":9065:9118   */\n      tag_339\n      jump\t// in\n    tag_477:\n        /* \"#utility.yul\":9055:9118   */\n      swap2\n      pop\n        /* \"#utility.yul\":9011:9128   */\n      pop\n        /* \"#utility.yul\":8806:9135   */\n      swap3\n      swap2\n      pop\n      pop\n      jump\t// out\n        /* \"#utility.yul\":9141:9231   */\n    tag_340:\n        /* \"#utility.yul\":9175:9182   */\n      0x00\n        /* \"#utility.yul\":9218:9223   */\n      dup2\n        /* \"#utility.yul\":9211:9224   */\n      iszero\n        /* \"#utility.yul\":9204:9225   */\n      iszero\n        /* \"#utility.yul\":9193:9225   */\n      swap1\n      pop\n        /* \"#utility.yul\":9141:9231   */\n      swap2\n      swap1\n      pop\n      jump\t// out\n        /* \"#utility.yul\":9237:9336   */\n    tag_341:\n        /* \"#utility.yul\":9308:9329   */\n      tag_480\n        /* \"#utility.yul\":9323:9328   */\n      dup2\n        /* \"#utility.yul\":9308:9329   */\n      tag_340\n      jump\t// in\n    tag_480:\n        /* \"#utility.yul\":9303:9306   */\n      dup3\n        /* \"#utility.yul\":9296:9330   */\n      mstore\n        /* \"#utility.yul\":9237:9336   */\n      pop\n      pop\n      jump\t// out\n        /* \"#utility.yul\":9400:10086   */\n    tag_342:\n        /* \"#utility.yul\":9541:9545   */\n      0x60\n        /* \"#utility.yul\":9536:9539   */\n      dup3\n        /* \"#utility.yul\":9532:9546   */\n      add\n        /* \"#utility.yul\":9636:9640   */\n      0x00\n        /* \"#utility.yul\":9629:9634   */\n      dup3\n        /* \"#utility.yul\":9625:9641   */\n      add\n        /* \"#utility.yul\":9619:9642   */\n      mload\n        /* \"#utility.yul\":9655:9712   */\n      tag_482\n        /* \"#utility.yul\":9706:9710   */\n      0x00\n        /* \"#utility.yul\":9701:9704   */\n      dup6\n        /* \"#utility.yul\":9697:9711   */\n      add\n        /* \"#utility.yul\":9683:9695   */\n      dup3\n        /* \"#utility.yul\":9655:9712   */\n      tag_341\n      jump\t// in\n    tag_482:\n        /* \"#utility.yul\":9556:9722   */\n      pop\n        /* \"#utility.yul\":9808:9812   */\n      0x20\n        /* \"#utility.yul\":9801:9806   */\n      dup3\n        /* \"#utility.yul\":9797:9813   */\n      add\n        /* \"#utility.yul\":9791:9814   */\n      mload\n        /* \"#utility.yul\":9827:9884   */\n      tag_483\n        /* \"#utility.yul\":9878:9882   */\n      0x20\n        /* \"#utility.yul\":9873:9876   */\n      dup6\n        /* \"#utility.yul\":9869:9883   */\n      add\n        /* \"#utility.yul\":9855:9867   */\n      dup3\n        /* \"#utility.yul\":9827:9884   */\n      tag_341\n      jump\t// in\n    tag_483:\n        /* \"#utility.yul\":9732:9894   */\n      pop\n        /* \"#utility.yul\":9987:9991   */\n      0x40\n        /* \"#utility.yul\":9980:9985   */\n      dup3\n        /* \"#utility.yul\":9976:9992   */\n      add\n        /* \"#utility.yul\":9970:9993   */\n      mload\n        /* \"#utility.yul\":10006:10069   */\n      tag_484\n        /* \"#utility.yul\":10063:10067   */\n      0x40\n        /* \"#utility.yul\":10058:10061   */\n      dup6\n        /* \"#utility.yul\":10054:10068   */\n      add\n        /* \"#utility.yul\":10040:10052   */\n      dup3\n        /* \"#utility.yul\":10006:10069   */\n      tag_329\n      jump\t// in\n    tag_484:\n        /* \"#utility.yul\":9904:10079   */\n      pop\n        /* \"#utility.yul\":9510:10086   */\n      pop\n        /* \"#utility.yul\":9400:10086   */\n      pop\n      pop\n      jump\t// out\n        /* \"#utility.yul\":10092:10402   */\n    tag_56:\n        /* \"#utility.yul\":10229:10233   */\n      0x00\n        /* \"#utility.yul\":10267:10269   */\n      0x60\n        /* \"#utility.yul\":10256:10265   */\n      dup3\n        /* \"#utility.yul\":10252:10270   */\n      add\n        /* \"#utility.yul\":10244:10270   */\n      swap1\n      pop\n        /* \"#utility.yul\":10280:10395   */\n      tag_486\n        /* \"#utility.yul\":10392:10393   */\n      0x00\n        /* \"#utility.yul\":10381:10390   */\n      dup4\n        /* \"#utility.yul\":10377:10394   */\n      add\n        /* \"#utility.yul\":10368:10374   */\n      dup5\n        /* \"#utility.yul\":10280:10395   */\n      tag_342\n      jump\t// in\n    tag_486:\n        /* \"#utility.yul\":10092:10402   */\n      swap3\n      swap2\n      pop\n      pop\n      jump\t// out\n        /* \"#utility.yul\":10408:10577   */\n    tag_343:\n        /* \"#utility.yul\":10492:10503   */\n      0x00\n        /* \"#utility.yul\":10526:10532   */\n      dup3\n        /* \"#utility.yul\":10521:10524   */\n      dup3\n        /* \"#utility.yul\":10514:10533   */\n      mstore\n        /* \"#utility.yul\":10566:10570   */\n      0x20\n        /* \"#utility.yul\":10561:10564   */\n      dup3\n        /* \"#utility.yul\":10557:10571   */\n      add\n        /* \"#utility.yul\":10542:10571   */\n      swap1\n      pop\n        /* \"#utility.yul\":10408:10577   */\n      swap3\n      swap2\n      pop\n      pop\n      jump\t// out\n        /* \"#utility.yul\":10583:10764   */\n    tag_344:\n        /* \"#utility.yul\":10723:10756   */\n      0x596f757220617265206e6f74207265676973746572656420696e206c69737400\n        /* \"#utility.yul\":10719:10720   */\n      0x00\n        /* \"#utility.yul\":10711:10717   */\n      dup3\n        /* \"#utility.yul\":10707:10721   */\n      add\n        /* \"#utility.yul\":10700:10757   */\n      mstore\n        /* \"#utility.yul\":10583:10764   */\n      pop\n      jump\t// out\n        /* \"#utility.yul\":10770:11136   */\n    tag_345:\n        /* \"#utility.yul\":10912:10915   */\n      0x00\n        /* \"#utility.yul\":10933:11000   */\n      tag_490\n        /* \"#utility.yul\":10997:10999   */\n      0x1f\n        /* \"#utility.yul\":10992:10995   */\n      dup4\n        /* \"#utility.yul\":10933:11000   */\n      tag_343\n      jump\t// in\n    tag_490:\n        /* \"#utility.yul\":10926:11000   */\n      swap2\n      pop\n        /* \"#utility.yul\":11009:11102   */\n      tag_491\n        /* \"#utility.yul\":11098:11101   */\n      dup3\n        /* \"#utility.yul\":11009:11102   */\n      tag_344\n      jump\t// in\n    tag_491:\n        /* \"#utility.yul\":11127:11129   */\n      0x20\n        /* \"#utility.yul\":11122:11125   */\n      dup3\n        /* \"#utility.yul\":11118:11130   */\n      add\n        /* \"#utility.yul\":11111:11130   */\n      swap1\n      pop\n        /* \"#utility.yul\":10770:11136   */\n      swap2\n      swap1\n      pop\n      jump\t// out\n        /* \"#utility.yul\":11142:11561   */\n    tag_70:\n        /* \"#utility.yul\":11308:11312   */\n      0x00\n        /* \"#utility.yul\":11346:11348   */\n      0x20\n        /* \"#utility.yul\":11335:11344   */\n      dup3\n        /* \"#utility.yul\":11331:11349   */\n      add\n        /* \"#utility.yul\":11323:11349   */\n      swap1\n      pop\n        /* \"#utility.yul\":11395:11404   */\n      dup2\n        /* \"#utility.yul\":11389:11393   */\n      dup2\n        /* \"#utility.yul\":11385:11405   */\n      sub\n        /* \"#utility.yul\":11381:11382   */\n      0x00\n        /* \"#utility.yul\":11370:11379   */\n      dup4\n        /* \"#utility.yul\":11366:11383   */\n      add\n        /* \"#utility.yul\":11359:11406   */\n      mstore\n        /* \"#utility.yul\":11423:11554   */\n      tag_493\n        /* \"#utility.yul\":11549:11553   */\n      dup2\n        /* \"#utility.yul\":11423:11554   */\n      tag_345\n      jump\t// in\n    tag_493:\n        /* \"#utility.yul\":11415:11554   */\n      swap1\n      pop\n        /* \"#utility.yul\":11142:11561   */\n      swap2\n      swap1\n      pop\n      jump\t// out\n        /* \"#utility.yul\":11567:11747   */\n    tag_74:\n        /* \"#utility.yul\":11615:11692   */\n      0x4e487b7100000000000000000000000000000000000000000000000000000000\n        /* \"#utility.yul\":11612:11613   */\n      0x00\n        /* \"#utility.yul\":11605:11693   */\n      mstore\n        /* \"#utility.yul\":11712:11716   */\n      0x21\n        /* \"#utility.yul\":11709:11710   */\n      0x04\n        /* \"#utility.yul\":11702:11717   */\n      mstore\n        /* \"#utility.yul\":11736:11740   */\n      0x24\n        /* \"#utility.yul\":11733:11734   */\n      0x00\n        /* \"#utility.yul\":11726:11741   */\n      revert\n        /* \"#utility.yul\":11753:11928   */\n    tag_346:\n        /* \"#utility.yul\":11893:11920   */\n      0x4974206d75737420626520766f74696e672073657373696f6e00000000000000\n        /* \"#utility.yul\":11889:11890   */\n      0x00\n        /* \"#utility.yul\":11881:11887   */\n      dup3\n        /* \"#utility.yul\":11877:11891   */\n      add\n        /* \"#utility.yul\":11870:11921   */\n      mstore\n        /* \"#utility.yul\":11753:11928   */\n      pop\n      jump\t// out\n        /* \"#utility.yul\":11934:12300   */\n    tag_347:\n        /* \"#utility.yul\":12076:12079   */\n      0x00\n        /* \"#utility.yul\":12097:12164   */\n      tag_497\n        /* \"#utility.yul\":12161:12163   */\n      0x19\n        /* \"#utility.yul\":12156:12159   */\n      dup4\n        /* \"#utility.yul\":12097:12164   */\n      tag_343\n      jump\t// in\n    tag_497:\n        /* \"#utility.yul\":12090:12164   */\n      swap2\n      pop\n        /* \"#utility.yul\":12173:12266   */\n      tag_498\n        /* \"#utility.yul\":12262:12265   */\n      dup3\n        /* \"#utility.yul\":12173:12266   */\n      tag_346\n      jump\t// in\n    tag_498:\n        /* \"#utility.yul\":12291:12293   */\n      0x20\n        /* \"#utility.yul\":12286:12289   */\n      dup3\n        /* \"#utility.yul\":12282:12294   */\n      add\n        /* \"#utility.yul\":12275:12294   */\n      swap1\n      pop\n        /* \"#utility.yul\":11934:12300   */\n      swap2\n      swap1\n      pop\n      jump\t// out\n        /* \"#utility.yul\":12306:12725   */\n    tag_79:\n        /* \"#utility.yul\":12472:12476   */\n      0x00\n        /* \"#utility.yul\":12510:12512   */\n      0x20\n        /* \"#utility.yul\":12499:12508   */\n      dup3\n        /* \"#utility.yul\":12495:12513   */\n      add\n        /* \"#utility.yul\":12487:12513   */\n      swap1\n      pop\n        /* \"#utility.yul\":12559:12568   */\n      dup2\n        /* \"#utility.yul\":12553:12557   */\n      dup2\n        /* \"#utility.yul\":12549:12569   */\n      sub\n        /* \"#utility.yul\":12545:12546   */\n      0x00\n        /* \"#utility.yul\":12534:12543   */\n      dup4\n        /* \"#utility.yul\":12530:12547   */\n      add\n        /* \"#utility.yul\":12523:12570   */\n      mstore\n        /* \"#utility.yul\":12587:12718   */\n      tag_500\n        /* \"#utility.yul\":12713:12717   */\n      dup2\n        /* \"#utility.yul\":12587:12718   */\n      tag_347\n      jump\t// in\n    tag_500:\n        /* \"#utility.yul\":12579:12718   */\n      swap1\n      pop\n        /* \"#utility.yul\":12306:12725   */\n      swap2\n      swap1\n      pop\n      jump\t// out\n        /* \"#utility.yul\":12731:12903   */\n    tag_348:\n        /* \"#utility.yul\":12871:12895   */\n      0x596f75206861766520616c726561647920766f74656400000000000000000000\n        /* \"#utility.yul\":12867:12868   */\n      0x00\n        /* \"#utility.yul\":12859:12865   */\n      dup3\n        /* \"#utility.yul\":12855:12869   */\n      add\n        /* \"#utility.yul\":12848:12896   */\n      mstore\n        /* \"#utility.yul\":12731:12903   */\n      pop\n      jump\t// out\n        /* \"#utility.yul\":12909:13275   */\n    tag_349:\n        /* \"#utility.yul\":13051:13054   */\n      0x00\n        /* \"#utility.yul\":13072:13139   */\n      tag_503\n        /* \"#utility.yul\":13136:13138   */\n      0x16\n        /* \"#utility.yul\":13131:13134   */\n      dup4\n        /* \"#utility.yul\":13072:13139   */\n      tag_343\n      jump\t// in\n    tag_503:\n        /* \"#utility.yul\":13065:13139   */\n      swap2\n      pop\n        /* \"#utility.yul\":13148:13241   */\n      tag_504\n        /* \"#utility.yul\":13237:13240   */\n      dup3\n        /* \"#utility.yul\":13148:13241   */\n      tag_348\n      jump\t// in\n    tag_504:\n        /* \"#utility.yul\":13266:13268   */\n      0x20\n        /* \"#utility.yul\":13261:13264   */\n      dup3\n        /* \"#utility.yul\":13257:13269   */\n      add\n        /* \"#utility.yul\":13250:13269   */\n      swap1\n      pop\n        /* \"#utility.yul\":12909:13275   */\n      swap2\n      swap1\n      pop\n      jump\t// out\n        /* \"#utility.yul\":13281:13700   */\n    tag_82:\n        /* \"#utility.yul\":13447:13451   */\n      0x00\n        /* \"#utility.yul\":13485:13487   */\n      0x20\n        /* \"#utility.yul\":13474:13483   */\n      dup3\n        /* \"#utility.yul\":13470:13488   */\n      add\n        /* \"#utility.yul\":13462:13488   */\n      swap1\n      pop\n        /* \"#utility.yul\":13534:13543   */\n      dup2\n        /* \"#utility.yul\":13528:13532   */\n      dup2\n        /* \"#utility.yul\":13524:13544   */\n      sub\n        /* \"#utility.yul\":13520:13521   */\n      0x00\n        /* \"#utility.yul\":13509:13518   */\n      dup4\n        /* \"#utility.yul\":13505:13522   */\n      add\n        /* \"#utility.yul\":13498:13545   */\n      mstore\n        /* \"#utility.yul\":13562:13693   */\n      tag_506\n        /* \"#utility.yul\":13688:13692   */\n      dup2\n        /* \"#utility.yul\":13562:13693   */\n      tag_349\n      jump\t// in\n    tag_506:\n        /* \"#utility.yul\":13554:13693   */\n      swap1\n      pop\n        /* \"#utility.yul\":13281:13700   */\n      swap2\n      swap1\n      pop\n      jump\t// out\n        /* \"#utility.yul\":13706:13883   */\n    tag_350:\n        /* \"#utility.yul\":13846:13875   */\n      0x546869732070726f706f73616c20646f65736e27742065786973740000000000\n        /* \"#utility.yul\":13842:13843   */\n      0x00\n        /* \"#utility.yul\":13834:13840   */\n      dup3\n        /* \"#utility.yul\":13830:13844   */\n      add\n        /* \"#utility.yul\":13823:13876   */\n      mstore\n        /* \"#utility.yul\":13706:13883   */\n      pop\n      jump\t// out\n        /* \"#utility.yul\":13889:14255   */\n    tag_351:\n        /* \"#utility.yul\":14031:14034   */\n      0x00\n        /* \"#utility.yul\":14052:14119   */\n      tag_509\n        /* \"#utility.yul\":14116:14118   */\n      0x1b\n        /* \"#utility.yul\":14111:14114   */\n      dup4\n        /* \"#utility.yul\":14052:14119   */\n      tag_343\n      jump\t// in\n    tag_509:\n        /* \"#utility.yul\":14045:14119   */\n      swap2\n      pop\n        /* \"#utility.yul\":14128:14221   */\n      tag_510\n        /* \"#utility.yul\":14217:14220   */\n      dup3\n        /* \"#utility.yul\":14128:14221   */\n      tag_350\n      jump\t// in\n    tag_510:\n        /* \"#utility.yul\":14246:14248   */\n      0x20\n        /* \"#utility.yul\":14241:14244   */\n      dup3\n        /* \"#utility.yul\":14237:14249   */\n      add\n        /* \"#utility.yul\":14230:14249   */\n      swap1\n      pop\n        /* \"#utility.yul\":13889:14255   */\n      swap2\n      swap1\n      pop\n      jump\t// out\n        /* \"#utility.yul\":14261:14680   */\n    tag_86:\n        /* \"#utility.yul\":14427:14431   */\n      0x00\n        /* \"#utility.yul\":14465:14467   */\n      0x20\n        /* \"#utility.yul\":14454:14463   */\n      dup3\n        /* \"#utility.yul\":14450:14468   */\n      add\n        /* \"#utility.yul\":14442:14468   */\n      swap1\n      pop\n        /* \"#utility.yul\":14514:14523   */\n      dup2\n        /* \"#utility.yul\":14508:14512   */\n      dup2\n        /* \"#utility.yul\":14504:14524   */\n      sub\n        /* \"#utility.yul\":14500:14501   */\n      0x00\n        /* \"#utility.yul\":14489:14498   */\n      dup4\n        /* \"#utility.yul\":14485:14502   */\n      add\n        /* \"#utility.yul\":14478:14525   */\n      mstore\n        /* \"#utility.yul\":14542:14673   */\n      tag_512\n        /* \"#utility.yul\":14668:14672   */\n      dup2\n        /* \"#utility.yul\":14542:14673   */\n      tag_351\n      jump\t// in\n    tag_512:\n        /* \"#utility.yul\":14534:14673   */\n      swap1\n      pop\n        /* \"#utility.yul\":14261:14680   */\n      swap2\n      swap1\n      pop\n      jump\t// out\n        /* \"#utility.yul\":14686:14866   */\n    tag_89:\n        /* \"#utility.yul\":14734:14811   */\n      0x4e487b7100000000000000000000000000000000000000000000000000000000\n        /* \"#utility.yul\":14731:14732   */\n      0x00\n        /* \"#utility.yul\":14724:14812   */\n      mstore\n        /* \"#utility.yul\":14831:14835   */\n      0x32\n        /* \"#utility.yul\":14828:14829   */\n      0x04\n        /* \"#utility.yul\":14821:14836   */\n      mstore\n        /* \"#utility.yul\":14855:14859   */\n      0x24\n        /* \"#utility.yul\":14852:14853   */\n      0x00\n        /* \"#utility.yul\":14845:14860   */\n      revert\n        /* \"#utility.yul\":14872:15052   */\n    tag_352:\n        /* \"#utility.yul\":14920:14997   */\n      0x4e487b7100000000000000000000000000000000000000000000000000000000\n        /* \"#utility.yul\":14917:14918   */\n      0x00\n        /* \"#utility.yul\":14910:14998   */\n      mstore\n        /* \"#utility.yul\":15017:15021   */\n      0x11\n        /* \"#utility.yul\":15014:15015   */\n      0x04\n        /* \"#utility.yul\":15007:15022   */\n      mstore\n        /* \"#utility.yul\":15041:15045   */\n      0x24\n        /* \"#utility.yul\":15038:15039   */\n      0x00\n        /* \"#utility.yul\":15031:15046   */\n      revert\n        /* \"#utility.yul\":15058:15249   */\n    tag_92:\n        /* \"#utility.yul\":15098:15101   */\n      0x00\n        /* \"#utility.yul\":15117:15137   */\n      tag_516\n        /* \"#utility.yul\":15135:15136   */\n      dup3\n        /* \"#utility.yul\":15117:15137   */\n      tag_314\n      jump\t// in\n    tag_516:\n        /* \"#utility.yul\":15112:15137   */\n      swap2\n      pop\n        /* \"#utility.yul\":15151:15171   */\n      tag_517\n        /* \"#utility.yul\":15169:15170   */\n      dup4\n        /* \"#utility.yul\":15151:15171   */\n      tag_314\n      jump\t// in\n    tag_517:\n        /* \"#utility.yul\":15146:15171   */\n      swap3\n      pop\n        /* \"#utility.yul\":15194:15195   */\n      dup3\n        /* \"#utility.yul\":15191:15192   */\n      dup3\n        /* \"#utility.yul\":15187:15196   */\n      add\n        /* \"#utility.yul\":15180:15196   */\n      swap1\n      pop\n        /* \"#utility.yul\":15215:15218   */\n      dup1\n        /* \"#utility.yul\":15212:15213   */\n      dup3\n        /* \"#utility.yul\":15209:15219   */\n      gt\n        /* \"#utility.yul\":15206:15242   */\n      iszero\n      tag_518\n      jumpi\n        /* \"#utility.yul\":15222:15240   */\n      tag_519\n      tag_352\n      jump\t// in\n    tag_519:\n        /* \"#utility.yul\":15206:15242   */\n    tag_518:\n        /* \"#utility.yul\":15058:15249   */\n      swap3\n      swap2\n      pop\n      pop\n      jump\t// out\n        /* \"#utility.yul\":15255:15373   */\n    tag_353:\n        /* \"#utility.yul\":15342:15366   */\n      tag_521\n        /* \"#utility.yul\":15360:15365   */\n      dup2\n        /* \"#utility.yul\":15342:15366   */\n      tag_314\n      jump\t// in\n    tag_521:\n        /* \"#utility.yul\":15337:15340   */\n      dup3\n        /* \"#utility.yul\":15330:15367   */\n      mstore\n        /* \"#utility.yul\":15255:15373   */\n      pop\n      pop\n      jump\t// out\n        /* \"#utility.yul\":15379:15711   */\n    tag_94:\n        /* \"#utility.yul\":15500:15504   */\n      0x00\n        /* \"#utility.yul\":15538:15540   */\n      0x40\n        /* \"#utility.yul\":15527:15536   */\n      dup3\n        /* \"#utility.yul\":15523:15541   */\n      add\n        /* \"#utility.yul\":15515:15541   */\n      swap1\n      pop\n        /* \"#utility.yul\":15551:15622   */\n      tag_523\n        /* \"#utility.yul\":15619:15620   */\n      0x00\n        /* \"#utility.yul\":15608:15617   */\n      dup4\n        /* \"#utility.yul\":15604:15621   */\n      add\n        /* \"#utility.yul\":15595:15601   */\n      dup6\n        /* \"#utility.yul\":15551:15622   */\n      tag_336\n      jump\t// in\n    tag_523:\n        /* \"#utility.yul\":15632:15704   */\n      tag_524\n        /* \"#utility.yul\":15700:15702   */\n      0x20\n        /* \"#utility.yul\":15689:15698   */\n      dup4\n        /* \"#utility.yul\":15685:15703   */\n      add\n        /* \"#utility.yul\":15676:15682   */\n      dup5\n        /* \"#utility.yul\":15632:15704   */\n      tag_353\n      jump\t// in\n    tag_524:\n        /* \"#utility.yul\":15379:15711   */\n      swap4\n      swap3\n      pop\n      pop\n      pop\n      jump\t// out\n        /* \"#utility.yul\":15717:15939   */\n    tag_354:\n        /* \"#utility.yul\":15857:15891   */\n      0x4974206d757374206265207265676973746572696e6720766f74657220626566\n        /* \"#utility.yul\":15853:15854   */\n      0x00\n        /* \"#utility.yul\":15845:15851   */\n      dup3\n        /* \"#utility.yul\":15841:15855   */\n      add\n        /* \"#utility.yul\":15834:15892   */\n      mstore\n        /* \"#utility.yul\":15926:15931   */\n      0x6f72650000000000000000000000000000000000000000000000000000000000\n        /* \"#utility.yul\":15921:15923   */\n      0x20\n        /* \"#utility.yul\":15913:15919   */\n      dup3\n        /* \"#utility.yul\":15909:15924   */\n      add\n        /* \"#utility.yul\":15902:15932   */\n      mstore\n        /* \"#utility.yul\":15717:15939   */\n      pop\n      jump\t// out\n        /* \"#utility.yul\":15945:16311   */\n    tag_355:\n        /* \"#utility.yul\":16087:16090   */\n      0x00\n        /* \"#utility.yul\":16108:16175   */\n      tag_527\n        /* \"#utility.yul\":16172:16174   */\n      0x23\n        /* \"#utility.yul\":16167:16170   */\n      dup4\n        /* \"#utility.yul\":16108:16175   */\n      tag_343\n      jump\t// in\n    tag_527:\n        /* \"#utility.yul\":16101:16175   */\n      swap2\n      pop\n        /* \"#utility.yul\":16184:16277   */\n      tag_528\n        /* \"#utility.yul\":16273:16276   */\n      dup3\n        /* \"#utility.yul\":16184:16277   */\n      tag_354\n      jump\t// in\n    tag_528:\n        /* \"#utility.yul\":16302:16304   */\n      0x40\n        /* \"#utility.yul\":16297:16300   */\n      dup3\n        /* \"#utility.yul\":16293:16305   */\n      add\n        /* \"#utility.yul\":16286:16305   */\n      swap1\n      pop\n        /* \"#utility.yul\":15945:16311   */\n      swap2\n      swap1\n      pop\n      jump\t// out\n        /* \"#utility.yul\":16317:16736   */\n    tag_105:\n        /* \"#utility.yul\":16483:16487   */\n      0x00\n        /* \"#utility.yul\":16521:16523   */\n      0x20\n        /* \"#utility.yul\":16510:16519   */\n      dup3\n        /* \"#utility.yul\":16506:16524   */\n      add\n        /* \"#utility.yul\":16498:16524   */\n      swap1\n      pop\n        /* \"#utility.yul\":16570:16579   */\n      dup2\n        /* \"#utility.yul\":16564:16568   */\n      dup2\n        /* \"#utility.yul\":16560:16580   */\n      sub\n        /* \"#utility.yul\":16556:16557   */\n      0x00\n        /* \"#utility.yul\":16545:16554   */\n      dup4\n        /* \"#utility.yul\":16541:16558   */\n      add\n        /* \"#utility.yul\":16534:16581   */\n      mstore\n        /* \"#utility.yul\":16598:16729   */\n      tag_530\n        /* \"#utility.yul\":16724:16728   */\n      dup2\n        /* \"#utility.yul\":16598:16729   */\n      tag_355\n      jump\t// in\n    tag_530:\n        /* \"#utility.yul\":16590:16729   */\n      swap1\n      pop\n        /* \"#utility.yul\":16317:16736   */\n      swap2\n      swap1\n      pop\n      jump\t// out\n        /* \"#utility.yul\":16742:16865   */\n    tag_356:\n        /* \"#utility.yul\":16833:16834   */\n      0x06\n        /* \"#utility.yul\":16826:16831   */\n      dup2\n        /* \"#utility.yul\":16823:16835   */\n      lt\n        /* \"#utility.yul\":16813:16859   */\n      tag_532\n      jumpi\n        /* \"#utility.yul\":16839:16857   */\n      tag_533\n      tag_74\n      jump\t// in\n    tag_533:\n        /* \"#utility.yul\":16813:16859   */\n    tag_532:\n        /* \"#utility.yul\":16742:16865   */\n      pop\n      jump\t// out\n        /* \"#utility.yul\":16871:17018   */\n    tag_357:\n        /* \"#utility.yul\":16926:16933   */\n      0x00\n        /* \"#utility.yul\":16955:16960   */\n      dup2\n        /* \"#utility.yul\":16944:16960   */\n      swap1\n      pop\n        /* \"#utility.yul\":16961:17012   */\n      tag_535\n        /* \"#utility.yul\":17006:17011   */\n      dup3\n        /* \"#utility.yul\":16961:17012   */\n      tag_356\n      jump\t// in\n    tag_535:\n        /* \"#utility.yul\":16871:17018   */\n      swap2\n      swap1\n      pop\n      jump\t// out\n        /* \"#utility.yul\":17024:17171   */\n    tag_358:\n        /* \"#utility.yul\":17090:17099   */\n      0x00\n        /* \"#utility.yul\":17123:17165   */\n      tag_537\n        /* \"#utility.yul\":17159:17164   */\n      dup3\n        /* \"#utility.yul\":17123:17165   */\n      tag_357\n      jump\t// in\n    tag_537:\n        /* \"#utility.yul\":17110:17165   */\n      swap1\n      pop\n        /* \"#utility.yul\":17024:17171   */\n      swap2\n      swap1\n      pop\n      jump\t// out\n        /* \"#utility.yul\":17177:17340   */\n    tag_359:\n        /* \"#utility.yul\":17280:17333   */\n      tag_539\n        /* \"#utility.yul\":17327:17332   */\n      dup2\n        /* \"#utility.yul\":17280:17333   */\n      tag_358\n      jump\t// in\n    tag_539:\n        /* \"#utility.yul\":17275:17278   */\n      dup3\n        /* \"#utility.yul\":17268:17334   */\n      mstore\n        /* \"#utility.yul\":17177:17340   */\n      pop\n      pop\n      jump\t// out\n        /* \"#utility.yul\":17346:17742   */\n    tag_109:\n        /* \"#utility.yul\":17499:17503   */\n      0x00\n        /* \"#utility.yul\":17537:17539   */\n      0x40\n        /* \"#utility.yul\":17526:17535   */\n      dup3\n        /* \"#utility.yul\":17522:17540   */\n      add\n        /* \"#utility.yul\":17514:17540   */\n      swap1\n      pop\n        /* \"#utility.yul\":17550:17637   */\n      tag_541\n        /* \"#utility.yul\":17634:17635   */\n      0x00\n        /* \"#utility.yul\":17623:17632   */\n      dup4\n        /* \"#utility.yul\":17619:17636   */\n      add\n        /* \"#utility.yul\":17610:17616   */\n      dup6\n        /* \"#utility.yul\":17550:17637   */\n      tag_359\n      jump\t// in\n    tag_541:\n        /* \"#utility.yul\":17647:17735   */\n      tag_542\n        /* \"#utility.yul\":17731:17733   */\n      0x20\n        /* \"#utility.yul\":17720:17729   */\n      dup4\n        /* \"#utility.yul\":17716:17734   */\n      add\n        /* \"#utility.yul\":17707:17713   */\n      dup5\n        /* \"#utility.yul\":17647:17735   */\n      tag_359\n      jump\t// in\n    tag_542:\n        /* \"#utility.yul\":17346:17742   */\n      swap4\n      swap3\n      pop\n      pop\n      pop\n      jump\t// out\n        /* \"#utility.yul\":17748:17925   */\n    tag_360:\n        /* \"#utility.yul\":17888:17917   */\n      0x4974206d7573742062652070726f706f73616c2073657373696f6e0000000000\n        /* \"#utility.yul\":17884:17885   */\n      0x00\n        /* \"#utility.yul\":17876:17882   */\n      dup3\n        /* \"#utility.yul\":17872:17886   */\n      add\n        /* \"#utility.yul\":17865:17918   */\n      mstore\n        /* \"#utility.yul\":17748:17925   */\n      pop\n      jump\t// out\n        /* \"#utility.yul\":17931:18297   */\n    tag_361:\n        /* \"#utility.yul\":18073:18076   */\n      0x00\n        /* \"#utility.yul\":18094:18161   */\n      tag_545\n        /* \"#utility.yul\":18158:18160   */\n      0x1b\n        /* \"#utility.yul\":18153:18156   */\n      dup4\n        /* \"#utility.yul\":18094:18161   */\n      tag_343\n      jump\t// in\n    tag_545:\n        /* \"#utility.yul\":18087:18161   */\n      swap2\n      pop\n        /* \"#utility.yul\":18170:18263   */\n      tag_546\n        /* \"#utility.yul\":18259:18262   */\n      dup3\n        /* \"#utility.yul\":18170:18263   */\n      tag_360\n      jump\t// in\n    tag_546:\n        /* \"#utility.yul\":18288:18290   */\n      0x20\n        /* \"#utility.yul\":18283:18286   */\n      dup3\n        /* \"#utility.yul\":18279:18291   */\n      add\n        /* \"#utility.yul\":18272:18291   */\n      swap1\n      pop\n        /* \"#utility.yul\":17931:18297   */\n      swap2\n      swap1\n      pop\n      jump\t// out\n        /* \"#utility.yul\":18303:18722   */\n    tag_120:\n        /* \"#utility.yul\":18469:18473   */\n      0x00\n        /* \"#utility.yul\":18507:18509   */\n      0x20\n        /* \"#utility.yul\":18496:18505   */\n      dup3\n        /* \"#utility.yul\":18492:18510   */\n      add\n        /* \"#utility.yul\":18484:18510   */\n      swap1\n      pop\n        /* \"#utility.yul\":18556:18565   */\n      dup2\n        /* \"#utility.yul\":18550:18554   */\n      dup2\n        /* \"#utility.yul\":18546:18566   */\n      sub\n        /* \"#utility.yul\":18542:18543   */\n      0x00\n        /* \"#utility.yul\":18531:18540   */\n      dup4\n        /* \"#utility.yul\":18527:18544   */\n      add\n        /* \"#utility.yul\":18520:18567   */\n      mstore\n        /* \"#utility.yul\":18584:18715   */\n      tag_548\n        /* \"#utility.yul\":18710:18714   */\n      dup2\n        /* \"#utility.yul\":18584:18715   */\n      tag_361\n      jump\t// in\n    tag_548:\n        /* \"#utility.yul\":18576:18715   */\n      swap1\n      pop\n        /* \"#utility.yul\":18303:18722   */\n      swap2\n      swap1\n      pop\n      jump\t// out\n        /* \"#utility.yul\":18728:18908   */\n    tag_362:\n        /* \"#utility.yul\":18776:18853   */\n      0x4e487b7100000000000000000000000000000000000000000000000000000000\n        /* \"#utility.yul\":18773:18774   */\n      0x00\n        /* \"#utility.yul\":18766:18854   */\n      mstore\n        /* \"#utility.yul\":18873:18877   */\n      0x41\n        /* \"#utility.yul\":18870:18871   */\n      0x04\n        /* \"#utility.yul\":18863:18878   */\n      mstore\n        /* \"#utility.yul\":18897:18901   */\n      0x24\n        /* \"#utility.yul\":18894:18895   */\n      0x00\n        /* \"#utility.yul\":18887:18902   */\n      revert\n        /* \"#utility.yul\":18914:19094   */\n    tag_363:\n        /* \"#utility.yul\":18962:19039   */\n      0x4e487b7100000000000000000000000000000000000000000000000000000000\n        /* \"#utility.yul\":18959:18960   */\n      0x00\n        /* \"#utility.yul\":18952:19040   */\n      mstore\n        /* \"#utility.yul\":19059:19063   */\n      0x22\n        /* \"#utility.yul\":19056:19057   */\n      0x04\n        /* \"#utility.yul\":19049:19064   */\n      mstore\n        /* \"#utility.yul\":19083:19087   */\n      0x24\n        /* \"#utility.yul\":19080:19081   */\n      0x00\n        /* \"#utility.yul\":19073:19088   */\n      revert\n        /* \"#utility.yul\":19100:19420   */\n    tag_150:\n        /* \"#utility.yul\":19144:19150   */\n      0x00\n        /* \"#utility.yul\":19181:19182   */\n      0x02\n        /* \"#utility.yul\":19175:19179   */\n      dup3\n        /* \"#utility.yul\":19171:19183   */\n      div\n        /* \"#utility.yul\":19161:19183   */\n      swap1\n      pop\n        /* \"#utility.yul\":19228:19229   */\n      0x01\n        /* \"#utility.yul\":19222:19226   */\n      dup3\n        /* \"#utility.yul\":19218:19230   */\n      and\n        /* \"#utility.yul\":19249:19267   */\n      dup1\n        /* \"#utility.yul\":19239:19320   */\n      tag_552\n      jumpi\n        /* \"#utility.yul\":19305:19309   */\n      0x7f\n        /* \"#utility.yul\":19297:19303   */\n      dup3\n        /* \"#utility.yul\":19293:19310   */\n      and\n        /* \"#utility.yul\":19283:19310   */\n      swap2\n      pop\n        /* \"#utility.yul\":19239:19320   */\n    tag_552:\n        /* \"#utility.yul\":19367:19369   */\n      0x20\n        /* \"#utility.yul\":19359:19365   */\n      dup3\n        /* \"#utility.yul\":19356:19370   */\n      lt\n        /* \"#utility.yul\":19336:19354   */\n      dup2\n        /* \"#utility.yul\":19333:19371   */\n      sub\n        /* \"#utility.yul\":19330:19414   */\n      tag_553\n      jumpi\n        /* \"#utility.yul\":19386:19404   */\n      tag_554\n      tag_363\n      jump\t// in\n    tag_554:\n        /* \"#utility.yul\":19330:19414   */\n    tag_553:\n        /* \"#utility.yul\":19151:19420   */\n      pop\n        /* \"#utility.yul\":19100:19420   */\n      swap2\n      swap1\n      pop\n      jump\t// out\n        /* \"#utility.yul\":19426:19567   */\n    tag_364:\n        /* \"#utility.yul\":19475:19479   */\n      0x00\n        /* \"#utility.yul\":19498:19501   */\n      dup2\n        /* \"#utility.yul\":19490:19501   */\n      swap1\n      pop\n        /* \"#utility.yul\":19521:19524   */\n      dup2\n        /* \"#utility.yul\":19518:19519   */\n      0x00\n        /* \"#utility.yul\":19511:19525   */\n      mstore\n        /* \"#utility.yul\":19555:19559   */\n      0x20\n        /* \"#utility.yul\":19552:19553   */\n      0x00\n        /* \"#utility.yul\":19542:19560   */\n      keccak256\n        /* \"#utility.yul\":19534:19560   */\n      swap1\n      pop\n        /* \"#utility.yul\":19426:19567   */\n      swap2\n      swap1\n      pop\n      jump\t// out\n        /* \"#utility.yul\":19573:19666   */\n    tag_365:\n        /* \"#utility.yul\":19610:19616   */\n      0x00\n        /* \"#utility.yul\":19657:19659   */\n      0x20\n        /* \"#utility.yul\":19652:19654   */\n      0x1f\n        /* \"#utility.yul\":19645:19650   */\n      dup4\n        /* \"#utility.yul\":19641:19655   */\n      add\n        /* \"#utility.yul\":19637:19660   */\n      div\n        /* \"#utility.yul\":19627:19660   */\n      swap1\n      pop\n        /* \"#utility.yul\":19573:19666   */\n      swap2\n      swap1\n      pop\n      jump\t// out\n        /* \"#utility.yul\":19672:19779   */\n    tag_366:\n        /* \"#utility.yul\":19716:19724   */\n      0x00\n        /* \"#utility.yul\":19766:19771   */\n      dup3\n        /* \"#utility.yul\":19760:19764   */\n      dup3\n        /* \"#utility.yul\":19756:19772   */\n      shl\n        /* \"#utility.yul\":19735:19772   */\n      swap1\n      pop\n        /* \"#utility.yul\":19672:19779   */\n      swap3\n      swap2\n      pop\n      pop\n      jump\t// out\n        /* \"#utility.yul\":19785:20178   */\n    tag_367:\n        /* \"#utility.yul\":19854:19860   */\n      0x00\n        /* \"#utility.yul\":19904:19905   */\n      0x08\n        /* \"#utility.yul\":19892:19902   */\n      dup4\n        /* \"#utility.yul\":19888:19906   */\n      mul\n        /* \"#utility.yul\":19927:20024   */\n      tag_559\n        /* \"#utility.yul\":19957:20023   */\n      0xffffffffffffffffffffffffffffffffffffffffffffffffffffffffffffffff\n        /* \"#utility.yul\":19946:19955   */\n      dup3\n        /* \"#utility.yul\":19927:20024   */\n      tag_366\n      jump\t// in\n    tag_559:\n        /* \"#utility.yul\":20045:20084   */\n      tag_560\n        /* \"#utility.yul\":20075:20083   */\n      dup7\n        /* \"#utility.yul\":20064:20073   */\n      dup4\n        /* \"#utility.yul\":20045:20084   */\n      tag_366\n      jump\t// in\n    tag_560:\n        /* \"#utility.yul\":20033:20084   */\n      swap6\n      pop\n        /* \"#utility.yul\":20117:20121   */\n      dup1\n        /* \"#utility.yul\":20113:20122   */\n      not\n        /* \"#utility.yul\":20106:20111   */\n      dup5\n        /* \"#utility.yul\":20102:20123   */\n      and\n        /* \"#utility.yul\":20093:20123   */\n      swap4\n      pop\n        /* \"#utility.yul\":20166:20170   */\n      dup1\n        /* \"#utility.yul\":20156:20164   */\n      dup7\n        /* \"#utility.yul\":20152:20171   */\n      and\n        /* \"#utility.yul\":20145:20150   */\n      dup5\n        /* \"#utility.yul\":20142:20172   */\n      or\n        /* \"#utility.yul\":20132:20172   */\n      swap3\n      pop\n        /* \"#utility.yul\":19861:20178   */\n      pop\n      pop\n        /* \"#utility.yul\":19785:20178   */\n      swap4\n      swap3\n      pop\n      pop\n      pop\n      jump\t// out\n        /* \"#utility.yul\":20184:20244   */\n    tag_368:\n        /* \"#utility.yul\":20212:20215   */\n      0x00\n        /* \"#utility.yul\":20233:20238   */\n      dup2\n        /* \"#utility.yul\":20226:20238   */\n      swap1\n      pop\n        /* \"#utility.yul\":20184:20244   */\n      swap2\n      swap1\n      pop\n      jump\t// out\n        /* \"#utility.yul\":20250:20392   */\n    tag_369:\n        /* \"#utility.yul\":20300:20309   */\n      0x00\n        /* \"#utility.yul\":20333:20386   */\n      tag_563\n        /* \"#utility.yul\":20351:20385   */\n      tag_564\n        /* \"#utility.yul\":20360:20384   */\n      tag_565\n        /* \"#utility.yul\":20378:20383   */\n      dup5\n        /* \"#utility.yul\":20360:20384   */\n      tag_314\n      jump\t// in\n    tag_565:\n        /* \"#utility.yul\":20351:20385   */\n      tag_368\n      jump\t// in\n    tag_564:\n        /* \"#utility.yul\":20333:20386   */\n      tag_314\n      jump\t// in\n    tag_563:\n        /* \"#utility.yul\":20320:20386   */\n      swap1\n      pop\n        /* \"#utility.yul\":20250:20392   */\n      swap2\n      swap1\n      pop\n      jump\t// out\n        /* \"#utility.yul\":20398:20473   */\n    tag_370:\n        /* \"#utility.yul\":20441:20444   */\n      0x00\n        /* \"#utility.yul\":20462:20467   */\n      dup2\n        /* \"#utility.yul\":20455:20467   */\n      swap1\n      pop\n        /* \"#utility.yul\":20398:20473   */\n      swap2\n      swap1\n      pop\n      jump\t// out\n        /* \"#utility.yul\":20479:20748   */\n    tag_371:\n        /* \"#utility.yul\":20589:20628   */\n      tag_568\n        /* \"#utility.yul\":20620:20627   */\n      dup4\n        /* \"#utility.yul\":20589:20628   */\n      tag_369\n      jump\t// in\n    tag_568:\n        /* \"#utility.yul\":20650:20741   */\n      tag_569\n        /* \"#utility.yul\":20699:20740   */\n      tag_570\n        /* \"#utility.yul\":20723:20739   */\n      dup3\n        /* \"#utility.yul\":20699:20740   */\n      tag_370\n      jump\t// in\n    tag_570:\n        /* \"#utility.yul\":20691:20697   */\n      dup5\n        /* \"#utility.yul\":20684:20688   */\n      dup5\n        /* \"#utility.yul\":20678:20689   */\n      sload\n        /* \"#utility.yul\":20650:20741   */\n      tag_367\n      jump\t// in\n    tag_569:\n        /* \"#utility.yul\":20644:20648   */\n      dup3\n        /* \"#utility.yul\":20637:20742   */\n      sstore\n        /* \"#utility.yul\":20555:20748   */\n      pop\n        /* \"#utility.yul\":20479:20748   */\n      pop\n      pop\n      pop\n      jump\t// out\n        /* \"#utility.yul\":20754:20827   */\n    tag_372:\n        /* \"#utility.yul\":20799:20802   */\n      0x00\n        /* \"#utility.yul\":20754:20827   */\n      swap1\n      jump\t// out\n        /* \"#utility.yul\":20833:21022   */\n    tag_373:\n        /* \"#utility.yul\":20910:20942   */\n      tag_573\n      tag_372\n      jump\t// in\n    tag_573:\n        /* \"#utility.yul\":20951:21016   */\n      tag_574\n        /* \"#utility.yul\":21009:21015   */\n      dup2\n        /* \"#utility.yul\":21001:21007   */\n      dup5\n        /* \"#utility.yul\":20995:20999   */\n      dup5\n        /* \"#utility.yul\":20951:21016   */\n      tag_371\n      jump\t// in\n    tag_574:\n        /* \"#utility.yul\":20886:21022   */\n      pop\n        /* \"#utility.yul\":20833:21022   */\n      pop\n      pop\n      jump\t// out\n        /* \"#utility.yul\":21028:21214   */\n    tag_374:\n        /* \"#utility.yul\":21088:21208   */\n    tag_576:\n        /* \"#utility.yul\":21105:21108   */\n      dup2\n        /* \"#utility.yul\":21098:21103   */\n      dup2\n        /* \"#utility.yul\":21095:21109   */\n      lt\n        /* \"#utility.yul\":21088:21208   */\n      iszero\n      tag_578\n      jumpi\n        /* \"#utility.yul\":21159:21198   */\n      tag_579\n        /* \"#utility.yul\":21196:21197   */\n      0x00\n        /* \"#utility.yul\":21189:21194   */\n      dup3\n        /* \"#utility.yul\":21159:21198   */\n      tag_373\n      jump\t// in\n    tag_579:\n        /* \"#utility.yul\":21132:21133   */\n      0x01\n        /* \"#utility.yul\":21125:21130   */\n      dup2\n        /* \"#utility.yul\":21121:21134   */\n      add\n        /* \"#utility.yul\":21112:21134   */\n      swap1\n      pop\n        /* \"#utility.yul\":21088:21208   */\n      jump(tag_576)\n    tag_578:\n        /* \"#utility.yul\":21028:21214   */\n      pop\n      pop\n      jump\t// out\n        /* \"#utility.yul\":21220:21763   */\n    tag_375:\n        /* \"#utility.yul\":21321:21323   */\n      0x1f\n        /* \"#utility.yul\":21316:21319   */\n      dup3\n        /* \"#utility.yul\":21313:21324   */\n      gt\n        /* \"#utility.yul\":21310:21756   */\n      iszero\n      tag_581\n      jumpi\n        /* \"#utility.yul\":21355:21393   */\n      tag_582\n        /* \"#utility.yul\":21387:21392   */\n      dup2\n        /* \"#utility.yul\":21355:21393   */\n      tag_364\n      jump\t// in\n    tag_582:\n        /* \"#utility.yul\":21439:21468   */\n      tag_583\n        /* \"#utility.yul\":21457:21467   */\n      dup5\n        /* \"#utility.yul\":21439:21468   */\n      tag_365\n      jump\t// in\n    tag_583:\n        /* \"#utility.yul\":21429:21437   */\n      dup2\n        /* \"#utility.yul\":21425:21469   */\n      add\n        /* \"#utility.yul\":21622:21624   */\n      0x20\n        /* \"#utility.yul\":21610:21620   */\n      dup6\n        /* \"#utility.yul\":21607:21625   */\n      lt\n        /* \"#utility.yul\":21604:21653   */\n      iszero\n      tag_584\n      jumpi\n        /* \"#utility.yul\":21643:21651   */\n      dup2\n        /* \"#utility.yul\":21628:21651   */\n      swap1\n      pop\n        /* \"#utility.yul\":21604:21653   */\n    tag_584:\n        /* \"#utility.yul\":21666:21746   */\n      tag_585\n        /* \"#utility.yul\":21722:21744   */\n      tag_586\n        /* \"#utility.yul\":21740:21743   */\n      dup6\n        /* \"#utility.yul\":21722:21744   */\n      tag_365\n      jump\t// in\n    tag_586:\n        /* \"#utility.yul\":21712:21720   */\n      dup4\n        /* \"#utility.yul\":21708:21745   */\n      add\n        /* \"#utility.yul\":21695:21706   */\n      dup3\n        /* \"#utility.yul\":21666:21746   */\n      tag_374\n      jump\t// in\n    tag_585:\n        /* \"#utility.yul\":21325:21756   */\n      pop\n      pop\n        /* \"#utility.yul\":21310:21756   */\n    tag_581:\n        /* \"#utility.yul\":21220:21763   */\n      pop\n      pop\n      pop\n      jump\t// out\n        /* \"#utility.yul\":21769:21886   */\n    tag_376:\n        /* \"#utility.yul\":21823:21831   */\n      0x00\n        /* \"#utility.yul\":21873:21878   */\n      dup3\n        /* \"#utility.yul\":21867:21871   */\n      dup3\n        /* \"#utility.yul\":21863:21879   */\n      shr\n        /* \"#utility.yul\":21842:21879   */\n      swap1\n      pop\n        /* \"#utility.yul\":21769:21886   */\n      swap3\n      swap2\n      pop\n      pop\n      jump\t// out\n        /* \"#utility.yul\":21892:22061   */\n    tag_377:\n        /* \"#utility.yul\":21936:21942   */\n      0x00\n        /* \"#utility.yul\":21969:22020   */\n      tag_589\n        /* \"#utility.yul\":22017:22018   */\n      0x00\n        /* \"#utility.yul\":22013:22019   */\n      not\n        /* \"#utility.yul\":22005:22010   */\n      dup5\n        /* \"#utility.yul\":22002:22003   */\n      0x08\n        /* \"#utility.yul\":21998:22011   */\n      mul\n        /* \"#utility.yul\":21969:22020   */\n      tag_376\n      jump\t// in\n    tag_589:\n        /* \"#utility.yul\":21965:22021   */\n      not\n        /* \"#utility.yul\":22050:22054   */\n      dup1\n        /* \"#utility.yul\":22044:22048   */\n      dup4\n        /* \"#utility.yul\":22040:22055   */\n      and\n        /* \"#utility.yul\":22030:22055   */\n      swap2\n      pop\n        /* \"#utility.yul\":21943:22061   */\n      pop\n        /* \"#utility.yul\":21892:22061   */\n      swap3\n      swap2\n      pop\n      pop\n      jump\t// out\n        /* \"#utility.yul\":22066:22361   */\n    tag_378:\n        /* \"#utility.yul\":22142:22146   */\n      0x00\n        /* \"#utility.yul\":22288:22317   */\n      tag_591\n        /* \"#utility.yul\":22313:22316   */\n      dup4\n        /* \"#utility.yul\":22307:22311   */\n      dup4\n        /* \"#utility.yul\":22288:22317   */\n      tag_377\n      jump\t// in\n    tag_591:\n        /* \"#utility.yul\":22280:22317   */\n      swap2\n      pop\n        /* \"#utility.yul\":22350:22353   */\n      dup3\n        /* \"#utility.yul\":22347:22348   */\n      0x02\n        /* \"#utility.yul\":22343:22354   */\n      mul\n        /* \"#utility.yul\":22337:22341   */\n      dup3\n        /* \"#utility.yul\":22334:22355   */\n      or\n        /* \"#utility.yul\":22326:22355   */\n      swap1\n      pop\n        /* \"#utility.yul\":22066:22361   */\n      swap3\n      swap2\n      pop\n      pop\n      jump\t// out\n        /* \"#utility.yul\":22366:23761   */\n    tag_123:\n        /* \"#utility.yul\":22483:22520   */\n      tag_593\n        /* \"#utility.yul\":22516:22519   */\n      dup3\n        /* \"#utility.yul\":22483:22520   */\n      tag_324\n      jump\t// in\n    tag_593:\n        /* \"#utility.yul\":22585:22603   */\n      0xffffffffffffffff\n        /* \"#utility.yul\":22577:22583   */\n      dup2\n        /* \"#utility.yul\":22574:22604   */\n      gt\n        /* \"#utility.yul\":22571:22627   */\n      iszero\n      tag_594\n      jumpi\n        /* \"#utility.yul\":22607:22625   */\n      tag_595\n      tag_362\n      jump\t// in\n    tag_595:\n        /* \"#utility.yul\":22571:22627   */\n    tag_594:\n        /* \"#utility.yul\":22651:22689   */\n      tag_596\n        /* \"#utility.yul\":22683:22687   */\n      dup3\n        /* \"#utility.yul\":22677:22688   */\n      sload\n        /* \"#utility.yul\":22651:22689   */\n      tag_150\n      jump\t// in\n    tag_596:\n        /* \"#utility.yul\":22736:22803   */\n      tag_597\n        /* \"#utility.yul\":22796:22802   */\n      dup3\n        /* \"#utility.yul\":22788:22794   */\n      dup3\n        /* \"#utility.yul\":22782:22786   */\n      dup6\n        /* \"#utility.yul\":22736:22803   */\n      tag_375\n      jump\t// in\n    tag_597:\n        /* \"#utility.yul\":22830:22831   */\n      0x00\n        /* \"#utility.yul\":22854:22858   */\n      0x20\n        /* \"#utility.yul\":22841:22858   */\n      swap1\n      pop\n        /* \"#utility.yul\":22886:22888   */\n      0x1f\n        /* \"#utility.yul\":22878:22884   */\n      dup4\n        /* \"#utility.yul\":22875:22889   */\n      gt\n        /* \"#utility.yul\":22903:22904   */\n      0x01\n        /* \"#utility.yul\":22898:23516   */\n      dup2\n      eq\n      tag_599\n      jumpi\n        /* \"#utility.yul\":23560:23561   */\n      0x00\n        /* \"#utility.yul\":23577:23583   */\n      dup5\n        /* \"#utility.yul\":23574:23651   */\n      iszero\n      tag_600\n      jumpi\n        /* \"#utility.yul\":23626:23635   */\n      dup3\n        /* \"#utility.yul\":23621:23624   */\n      dup8\n        /* \"#utility.yul\":23617:23636   */\n      add\n        /* \"#utility.yul\":23611:23637   */\n      mload\n        /* \"#utility.yul\":23602:23637   */\n      swap1\n      pop\n        /* \"#utility.yul\":23574:23651   */\n    tag_600:\n        /* \"#utility.yul\":23677:23744   */\n      tag_601\n        /* \"#utility.yul\":23737:23743   */\n      dup6\n        /* \"#utility.yul\":23730:23735   */\n      dup3\n        /* \"#utility.yul\":23677:23744   */\n      tag_378\n      jump\t// in\n    tag_601:\n        /* \"#utility.yul\":23671:23675   */\n      dup7\n        /* \"#utility.yul\":23664:23745   */\n      sstore\n        /* \"#utility.yul\":23533:23755   */\n      pop\n        /* \"#utility.yul\":22868:23755   */\n      jump(tag_598)\n        /* \"#utility.yul\":22898:23516   */\n    tag_599:\n        /* \"#utility.yul\":22950:22954   */\n      0x1f\n        /* \"#utility.yul\":22946:22955   */\n      not\n        /* \"#utility.yul\":22938:22944   */\n      dup5\n        /* \"#utility.yul\":22934:22956   */\n      and\n        /* \"#utility.yul\":22984:23021   */\n      tag_602\n        /* \"#utility.yul\":23016:23020   */\n      dup7\n        /* \"#utility.yul\":22984:23021   */\n      tag_364\n      jump\t// in\n    tag_602:\n        /* \"#utility.yul\":23043:23044   */\n      0x00\n        /* \"#utility.yul\":23057:23265   */\n    tag_603:\n        /* \"#utility.yul\":23071:23078   */\n      dup3\n        /* \"#utility.yul\":23068:23069   */\n      dup2\n        /* \"#utility.yul\":23065:23079   */\n      lt\n        /* \"#utility.yul\":23057:23265   */\n      iszero\n      tag_605\n      jumpi\n        /* \"#utility.yul\":23150:23159   */\n      dup5\n        /* \"#utility.yul\":23145:23148   */\n      dup10\n        /* \"#utility.yul\":23141:23160   */\n      add\n        /* \"#utility.yul\":23135:23161   */\n      mload\n        /* \"#utility.yul\":23127:23133   */\n      dup3\n        /* \"#utility.yul\":23120:23162   */\n      sstore\n        /* \"#utility.yul\":23201:23202   */\n      0x01\n        /* \"#utility.yul\":23193:23199   */\n      dup3\n        /* \"#utility.yul\":23189:23203   */\n      add\n        /* \"#utility.yul\":23179:23203   */\n      swap2\n      pop\n        /* \"#utility.yul\":23248:23250   */\n      0x20\n        /* \"#utility.yul\":23237:23246   */\n      dup6\n        /* \"#utility.yul\":23233:23251   */\n      add\n        /* \"#utility.yul\":23220:23251   */\n      swap5\n      pop\n        /* \"#utility.yul\":23094:23098   */\n      0x20\n        /* \"#utility.yul\":23091:23092   */\n      dup2\n        /* \"#utility.yul\":23087:23099   */\n      add\n        /* \"#utility.yul\":23082:23099   */\n      swap1\n      pop\n        /* \"#utility.yul\":23057:23265   */\n      jump(tag_603)\n    tag_605:\n        /* \"#utility.yul\":23293:23299   */\n      dup7\n        /* \"#utility.yul\":23284:23291   */\n      dup4\n        /* \"#utility.yul\":23281:23300   */\n      lt\n        /* \"#utility.yul\":23278:23457   */\n      iszero\n      tag_606\n      jumpi\n        /* \"#utility.yul\":23351:23360   */\n      dup5\n        /* \"#utility.yul\":23346:23349   */\n      dup10\n        /* \"#utility.yul\":23342:23361   */\n      add\n        /* \"#utility.yul\":23336:23362   */\n      mload\n        /* \"#utility.yul\":23394:23442   */\n      tag_607\n        /* \"#utility.yul\":23436:23440   */\n      0x1f\n        /* \"#utility.yul\":23428:23434   */\n      dup10\n        /* \"#utility.yul\":23424:23441   */\n      and\n        /* \"#utility.yul\":23413:23422   */\n      dup3\n        /* \"#utility.yul\":23394:23442   */\n      tag_377\n      jump\t// in\n    tag_607:\n        /* \"#utility.yul\":23386:23392   */\n      dup4\n        /* \"#utility.yul\":23379:23443   */\n      sstore\n        /* \"#utility.yul\":23301:23457   */\n      pop\n        /* \"#utility.yul\":23278:23457   */\n    tag_606:\n        /* \"#utility.yul\":23503:23504   */\n      0x01\n        /* \"#utility.yul\":23499:23500   */\n      0x02\n        /* \"#utility.yul\":23491:23497   */\n      dup9\n        /* \"#utility.yul\":23487:23501   */\n      mul\n        /* \"#utility.yul\":23483:23505   */\n      add\n        /* \"#utility.yul\":23477:23481   */\n      dup9\n        /* \"#utility.yul\":23470:23506   */\n      sstore\n        /* \"#utility.yul\":22905:23516   */\n      pop\n      pop\n      pop\n        /* \"#utility.yul\":22868:23755   */\n    tag_598:\n      pop\n        /* \"#utility.yul\":22458:23761   */\n      pop\n      pop\n      pop\n        /* \"#utility.yul\":22366:23761   */\n      pop\n      pop\n      jump\t// out\n        /* \"#utility.yul\":23767:23989   */\n    tag_125:\n        /* \"#utility.yul\":23860:23864   */\n      0x00\n        /* \"#utility.yul\":23898:23900   */\n      0x20\n        /* \"#utility.yul\":23887:23896   */\n      dup3\n        /* \"#utility.yul\":23883:23901   */\n      add\n        /* \"#utility.yul\":23875:23901   */\n      swap1\n      pop\n        /* \"#utility.yul\":23911:23982   */\n      tag_609\n        /* \"#utility.yul\":23979:23980   */\n      0x00\n        /* \"#utility.yul\":23968:23977   */\n      dup4\n        /* \"#utility.yul\":23964:23981   */\n      add\n        /* \"#utility.yul\":23955:23961   */\n      dup5\n        /* \"#utility.yul\":23911:23982   */\n      tag_353\n      jump\t// in\n    tag_609:\n        /* \"#utility.yul\":23767:23989   */\n      swap3\n      swap2\n      pop\n      pop\n      jump\t// out\n        /* \"#utility.yul\":23995:24219   */\n    tag_379:\n        /* \"#utility.yul\":24135:24169   */\n      0x4974206d7573742062652074686520656e64206f662070726f706f73616c2062\n        /* \"#utility.yul\":24131:24132   */\n      0x00\n        /* \"#utility.yul\":24123:24129   */\n      dup3\n        /* \"#utility.yul\":24119:24133   */\n      add\n        /* \"#utility.yul\":24112:24170   */\n      mstore\n        /* \"#utility.yul\":24204:24211   */\n      0x65666f7265000000000000000000000000000000000000000000000000000000\n        /* \"#utility.yul\":24199:24201   */\n      0x20\n        /* \"#utility.yul\":24191:24197   */\n      dup3\n        /* \"#utility.yul\":24187:24202   */\n      add\n        /* \"#utility.yul\":24180:24212   */\n      mstore\n        /* \"#utility.yul\":23995:24219   */\n      pop\n      jump\t// out\n        /* \"#utility.yul\":24225:24591   */\n    tag_380:\n        /* \"#utility.yul\":24367:24370   */\n      0x00\n        /* \"#utility.yul\":24388:24455   */\n      tag_612\n        /* \"#utility.yul\":24452:24454   */\n      0x25\n        /* \"#utility.yul\":24447:24450   */\n      dup4\n        /* \"#utility.yul\":24388:24455   */\n      tag_343\n      jump\t// in\n    tag_612:\n        /* \"#utility.yul\":24381:24455   */\n      swap2\n      pop\n        /* \"#utility.yul\":24464:24557   */\n      tag_613\n        /* \"#utility.yul\":24553:24556   */\n      dup3\n        /* \"#utility.yul\":24464:24557   */\n      tag_379\n      jump\t// in\n    tag_613:\n        /* \"#utility.yul\":24582:24584   */\n      0x40\n        /* \"#utility.yul\":24577:24580   */\n      dup3\n        /* \"#utility.yul\":24573:24585   */\n      add\n        /* \"#utility.yul\":24566:24585   */\n      swap1\n      pop\n        /* \"#utility.yul\":24225:24591   */\n      swap2\n      swap1\n      pop\n      jump\t// out\n        /* \"#utility.yul\":24597:25016   */\n    tag_135:\n        /* \"#utility.yul\":24763:24767   */\n      0x00\n        /* \"#utility.yul\":24801:24803   */\n      0x20\n        /* \"#utility.yul\":24790:24799   */\n      dup3\n        /* \"#utility.yul\":24786:24804   */\n      add\n        /* \"#utility.yul\":24778:24804   */\n      swap1\n      pop\n        /* \"#utility.yul\":24850:24859   */\n      dup2\n        /* \"#utility.yul\":24844:24848   */\n      dup2\n        /* \"#utility.yul\":24840:24860   */\n      sub\n        /* \"#utility.yul\":24836:24837   */\n      0x00\n        /* \"#utility.yul\":24825:24834   */\n      dup4\n        /* \"#utility.yul\":24821:24838   */\n      add\n        /* \"#utility.yul\":24814:24861   */\n      mstore\n        /* \"#utility.yul\":24878:25009   */\n      tag_615\n        /* \"#utility.yul\":25004:25008   */\n      dup2\n        /* \"#utility.yul\":24878:25009   */\n      tag_380\n      jump\t// in\n    tag_615:\n        /* \"#utility.yul\":24870:25009   */\n      swap1\n      pop\n        /* \"#utility.yul\":24597:25016   */\n      swap2\n      swap1\n      pop\n      jump\t// out\n        /* \"#utility.yul\":25022:25193   */\n    tag_381:\n        /* \"#utility.yul\":25162:25185   */\n      0x5468657265206172656e27742070726f706f73616c0000000000000000000000\n        /* \"#utility.yul\":25158:25159   */\n      0x00\n        /* \"#utility.yul\":25150:25156   */\n      dup3\n        /* \"#utility.yul\":25146:25160   */\n      add\n        /* \"#utility.yul\":25139:25186   */\n      mstore\n        /* \"#utility.yul\":25022:25193   */\n      pop\n      jump\t// out\n        /* \"#utility.yul\":25199:25565   */\n    tag_382:\n        /* \"#utility.yul\":25341:25344   */\n      0x00\n        /* \"#utility.yul\":25362:25429   */\n      tag_618\n        /* \"#utility.yul\":25426:25428   */\n      0x15\n        /* \"#utility.yul\":25421:25424   */\n      dup4\n        /* \"#utility.yul\":25362:25429   */\n      tag_343\n      jump\t// in\n    tag_618:\n        /* \"#utility.yul\":25355:25429   */\n      swap2\n      pop\n        /* \"#utility.yul\":25438:25531   */\n      tag_619\n        /* \"#utility.yul\":25527:25530   */\n      dup3\n        /* \"#utility.yul\":25438:25531   */\n      tag_381\n      jump\t// in\n    tag_619:\n        /* \"#utility.yul\":25556:25558   */\n      0x20\n        /* \"#utility.yul\":25551:25554   */\n      dup3\n        /* \"#utility.yul\":25547:25559   */\n      add\n        /* \"#utility.yul\":25540:25559   */\n      swap1\n      pop\n        /* \"#utility.yul\":25199:25565   */\n      swap2\n      swap1\n      pop\n      jump\t// out\n        /* \"#utility.yul\":25571:25990   */\n    tag_145:\n        /* \"#utility.yul\":25737:25741   */\n      0x00\n        /* \"#utility.yul\":25775:25777   */\n      0x20\n        /* \"#utility.yul\":25764:25773   */\n      dup3\n        /* \"#utility.yul\":25760:25778   */\n      add\n        /* \"#utility.yul\":25752:25778   */\n      swap1\n      pop\n        /* \"#utility.yul\":25824:25833   */\n      dup2\n        /* \"#utility.yul\":25818:25822   */\n      dup2\n        /* \"#utility.yul\":25814:25834   */\n      sub\n        /* \"#utility.yul\":25810:25811   */\n      0x00\n        /* \"#utility.yul\":25799:25808   */\n      dup4\n        /* \"#utility.yul\":25795:25812   */\n      add\n        /* \"#utility.yul\":25788:25835   */\n      mstore\n        /* \"#utility.yul\":25852:25983   */\n      tag_621\n        /* \"#utility.yul\":25978:25982   */\n      dup2\n        /* \"#utility.yul\":25852:25983   */\n      tag_382\n      jump\t// in\n    tag_621:\n        /* \"#utility.yul\":25844:25983   */\n      swap1\n      pop\n        /* \"#utility.yul\":25571:25990   */\n      swap2\n      swap1\n      pop\n      jump\t// out\n        /* \"#utility.yul\":25996:26172   */\n    tag_383:\n        /* \"#utility.yul\":26136:26164   */\n      0x4974206d7573742062652074616c6c6965642073657373696f6e000000000000\n        /* \"#utility.yul\":26132:26133   */\n      0x00\n        /* \"#utility.yul\":26124:26130   */\n      dup3\n        /* \"#utility.yul\":26120:26134   */\n      add\n        /* \"#utility.yul\":26113:26165   */\n      mstore\n        /* \"#utility.yul\":25996:26172   */\n      pop\n      jump\t// out\n        /* \"#utility.yul\":26178:26544   */\n    tag_384:\n        /* \"#utility.yul\":26320:26323   */\n      0x00\n        /* \"#utility.yul\":26341:26408   */\n      tag_624\n        /* \"#utility.yul\":26405:26407   */\n      0x1a\n        /* \"#utility.yul\":26400:26403   */\n      dup4\n        /* \"#utility.yul\":26341:26408   */\n      tag_343\n      jump\t// in\n    tag_624:\n        /* \"#utility.yul\":26334:26408   */\n      swap2\n      pop\n        /* \"#utility.yul\":26417:26510   */\n      tag_625\n        /* \"#utility.yul\":26506:26509   */\n      dup3\n        /* \"#utility.yul\":26417:26510   */\n      tag_383\n      jump\t// in\n    tag_625:\n        /* \"#utility.yul\":26535:26537   */\n      0x20\n        /* \"#utility.yul\":26530:26533   */\n      dup3\n        /* \"#utility.yul\":26526:26538   */\n      add\n        /* \"#utility.yul\":26519:26538   */\n      swap1\n      pop\n        /* \"#utility.yul\":26178:26544   */\n      swap2\n      swap1\n      pop\n      jump\t// out\n        /* \"#utility.yul\":26550:26969   */\n    tag_170:\n        /* \"#utility.yul\":26716:26720   */\n      0x00\n        /* \"#utility.yul\":26754:26756   */\n      0x20\n        /* \"#utility.yul\":26743:26752   */\n      dup3\n        /* \"#utility.yul\":26739:26757   */\n      add\n        /* \"#utility.yul\":26731:26757   */\n      swap1\n      pop\n        /* \"#utility.yul\":26803:26812   */\n      dup2\n        /* \"#utility.yul\":26797:26801   */\n      dup2\n        /* \"#utility.yul\":26793:26813   */\n      sub\n        /* \"#utility.yul\":26789:26790   */\n      0x00\n        /* \"#utility.yul\":26778:26787   */\n      dup4\n        /* \"#utility.yul\":26774:26791   */\n      add\n        /* \"#utility.yul\":26767:26814   */\n      mstore\n        /* \"#utility.yul\":26831:26962   */\n      tag_627\n        /* \"#utility.yul\":26957:26961   */\n      dup2\n        /* \"#utility.yul\":26831:26962   */\n      tag_384\n      jump\t// in\n    tag_627:\n        /* \"#utility.yul\":26823:26962   */\n      swap1\n      pop\n        /* \"#utility.yul\":26550:26969   */\n      swap2\n      swap1\n      pop\n      jump\t// out\n        /* \"#utility.yul\":26975:27195   */\n    tag_385:\n        /* \"#utility.yul\":27115:27149   */\n      0x4974206d7573742062652074686520656e64206f66207468652073657373696f\n        /* \"#utility.yul\":27111:27112   */\n      0x00\n        /* \"#utility.yul\":27103:27109   */\n      dup3\n        /* \"#utility.yul\":27099:27113   */\n      add\n        /* \"#utility.yul\":27092:27150   */\n      mstore\n        /* \"#utility.yul\":27184:27187   */\n      0x6e00000000000000000000000000000000000000000000000000000000000000\n        /* \"#utility.yul\":27179:27181   */\n      0x20\n        /* \"#utility.yul\":27171:27177   */\n      dup3\n        /* \"#utility.yul\":27167:27182   */\n      add\n        /* \"#utility.yul\":27160:27188   */\n      mstore\n        /* \"#utility.yul\":26975:27195   */\n      pop\n      jump\t// out\n        /* \"#utility.yul\":27201:27567   */\n    tag_386:\n        /* \"#utility.yul\":27343:27346   */\n      0x00\n        /* \"#utility.yul\":27364:27431   */\n      tag_630\n        /* \"#utility.yul\":27428:27430   */\n      0x21\n        /* \"#utility.yul\":27423:27426   */\n      dup4\n        /* \"#utility.yul\":27364:27431   */\n      tag_343\n      jump\t// in\n    tag_630:\n        /* \"#utility.yul\":27357:27431   */\n      swap2\n      pop\n        /* \"#utility.yul\":27440:27533   */\n      tag_631\n        /* \"#utility.yul\":27529:27532   */\n      dup3\n        /* \"#utility.yul\":27440:27533   */\n      tag_385\n      jump\t// in\n    tag_631:\n        /* \"#utility.yul\":27558:27560   */\n      0x40\n        /* \"#utility.yul\":27553:27556   */\n      dup3\n        /* \"#utility.yul\":27549:27561   */\n      add\n        /* \"#utility.yul\":27542:27561   */\n      swap1\n      pop\n        /* \"#utility.yul\":27201:27567   */\n      swap2\n      swap1\n      pop\n      jump\t// out\n        /* \"#utility.yul\":27573:27992   */\n    tag_200:\n        /* \"#utility.yul\":27739:27743   */\n      0x00\n        /* \"#utility.yul\":27777:27779   */\n      0x20\n        /* \"#utility.yul\":27766:27775   */\n      dup3\n        /* \"#utility.yul\":27762:27780   */\n      add\n        /* \"#utility.yul\":27754:27780   */\n      swap1\n      pop\n        /* \"#utility.yul\":27826:27835   */\n      dup2\n        /* \"#utility.yul\":27820:27824   */\n      dup2\n        /* \"#utility.yul\":27816:27836   */\n      sub\n        /* \"#utility.yul\":27812:27813   */\n      0x00\n        /* \"#utility.yul\":27801:27810   */\n      dup4\n        /* \"#utility.yul\":27797:27814   */\n      add\n        /* \"#utility.yul\":27790:27837   */\n      mstore\n        /* \"#utility.yul\":27854:27985   */\n      tag_633\n        /* \"#utility.yul\":27980:27984   */\n      dup2\n        /* \"#utility.yul\":27854:27985   */\n      tag_386\n      jump\t// in\n    tag_633:\n        /* \"#utility.yul\":27846:27985   */\n      swap1\n      pop\n        /* \"#utility.yul\":27573:27992   */\n      swap2\n      swap1\n      pop\n      jump\t// out\n        /* \"#utility.yul\":27998:28231   */\n    tag_218:\n        /* \"#utility.yul\":28037:28040   */\n      0x00\n        /* \"#utility.yul\":28060:28084   */\n      tag_635\n        /* \"#utility.yul\":28078:28083   */\n      dup3\n        /* \"#utility.yul\":28060:28084   */\n      tag_314\n      jump\t// in\n    tag_635:\n        /* \"#utility.yul\":28051:28084   */\n      swap2\n      pop\n        /* \"#utility.yul\":28106:28172   */\n      0xffffffffffffffffffffffffffffffffffffffffffffffffffffffffffffffff\n        /* \"#utility.yul\":28099:28104   */\n      dup3\n        /* \"#utility.yul\":28096:28173   */\n      sub\n        /* \"#utility.yul\":28093:28196   */\n      tag_636\n      jumpi\n        /* \"#utility.yul\":28176:28194   */\n      tag_637\n      tag_352\n      jump\t// in\n    tag_637:\n        /* \"#utility.yul\":28093:28196   */\n    tag_636:\n        /* \"#utility.yul\":28223:28224   */\n      0x01\n        /* \"#utility.yul\":28216:28221   */\n      dup3\n        /* \"#utility.yul\":28212:28225   */\n      add\n        /* \"#utility.yul\":28205:28225   */\n      swap1\n      pop\n        /* \"#utility.yul\":27998:28231   */\n      swap2\n      swap1\n      pop\n      jump\t// out\n        /* \"#utility.yul\":28237:28411   */\n    tag_387:\n        /* \"#utility.yul\":28377:28403   */\n      0x5468697320706572736f6e206861736e277420766f7465640000000000000000\n        /* \"#utility.yul\":28373:28374   */\n      0x00\n        /* \"#utility.yul\":28365:28371   */\n      dup3\n        /* \"#utility.yul\":28361:28375   */\n      add\n        /* \"#utility.yul\":28354:28404   */\n      mstore\n        /* \"#utility.yul\":28237:28411   */\n      pop\n      jump\t// out\n        /* \"#utility.yul\":28417:28783   */\n    tag_388:\n        /* \"#utility.yul\":28559:28562   */\n      0x00\n        /* \"#utility.yul\":28580:28647   */\n      tag_640\n        /* \"#utility.yul\":28644:28646   */\n      0x18\n        /* \"#utility.yul\":28639:28642   */\n      dup4\n        /* \"#utility.yul\":28580:28647   */\n      tag_343\n      jump\t// in\n    tag_640:\n        /* \"#utility.yul\":28573:28647   */\n      swap2\n      pop\n        /* \"#utility.yul\":28656:28749   */\n      tag_641\n        /* \"#utility.yul\":28745:28748   */\n      dup3\n        /* \"#utility.yul\":28656:28749   */\n      tag_387\n      jump\t// in\n    tag_641:\n        /* \"#utility.yul\":28774:28776   */\n      0x20\n        /* \"#utility.yul\":28769:28772   */\n      dup3\n        /* \"#utility.yul\":28765:28777   */\n      add\n        /* \"#utility.yul\":28758:28777   */\n      swap1\n      pop\n        /* \"#utility.yul\":28417:28783   */\n      swap2\n      swap1\n      pop\n      jump\t// out\n        /* \"#utility.yul\":28789:29208   */\n    tag_230:\n        /* \"#utility.yul\":28955:28959   */\n      0x00\n        /* \"#utility.yul\":28993:28995   */\n      0x20\n        /* \"#utility.yul\":28982:28991   */\n      dup3\n        /* \"#utility.yul\":28978:28996   */\n      add\n        /* \"#utility.yul\":28970:28996   */\n      swap1\n      pop\n        /* \"#utility.yul\":29042:29051   */\n      dup2\n        /* \"#utility.yul\":29036:29040   */\n      dup2\n        /* \"#utility.yul\":29032:29052   */\n      sub\n        /* \"#utility.yul\":29028:29029   */\n      0x00\n        /* \"#utility.yul\":29017:29026   */\n      dup4\n        /* \"#utility.yul\":29013:29030   */\n      add\n        /* \"#utility.yul\":29006:29053   */\n      mstore\n        /* \"#utility.yul\":29070:29201   */\n      tag_643\n        /* \"#utility.yul\":29196:29200   */\n      dup2\n        /* \"#utility.yul\":29070:29201   */\n      tag_388\n      jump\t// in\n    tag_643:\n        /* \"#utility.yul\":29062:29201   */\n      swap1\n      pop\n        /* \"#utility.yul\":28789:29208   */\n      swap2\n      swap1\n      pop\n      jump\t// out\n        /* \"#utility.yul\":29214:29392   */\n    tag_389:\n        /* \"#utility.yul\":29354:29384   */\n      0x4974206d757374206265207265676973746572696e6720766f74657200000000\n        /* \"#utility.yul\":29350:29351   */\n      0x00\n        /* \"#utility.yul\":29342:29348   */\n      dup3\n        /* \"#utility.yul\":29338:29352   */\n      add\n        /* \"#utility.yul\":29331:29385   */\n      mstore\n        /* \"#utility.yul\":29214:29392   */\n      pop\n      jump\t// out\n        /* \"#utility.yul\":29398:29764   */\n    tag_390:\n        /* \"#utility.yul\":29540:29543   */\n      0x00\n        /* \"#utility.yul\":29561:29628   */\n      tag_646\n        /* \"#utility.yul\":29625:29627   */\n      0x1c\n        /* \"#utility.yul\":29620:29623   */\n      dup4\n        /* \"#utility.yul\":29561:29628   */\n      tag_343\n      jump\t// in\n    tag_646:\n        /* \"#utility.yul\":29554:29628   */\n      swap2\n      pop\n        /* \"#utility.yul\":29637:29730   */\n      tag_647\n        /* \"#utility.yul\":29726:29729   */\n      dup3\n        /* \"#utility.yul\":29637:29730   */\n      tag_389\n      jump\t// in\n    tag_647:\n        /* \"#utility.yul\":29755:29757   */\n      0x20\n        /* \"#utility.yul\":29750:29753   */\n      dup3\n        /* \"#utility.yul\":29746:29758   */\n      add\n        /* \"#utility.yul\":29739:29758   */\n      swap1\n      pop\n        /* \"#utility.yul\":29398:29764   */\n      swap2\n      swap1\n      pop\n      jump\t// out\n        /* \"#utility.yul\":29770:30189   */\n    tag_258:\n        /* \"#utility.yul\":29936:29940   */\n      0x00\n        /* \"#utility.yul\":29974:29976   */\n      0x20\n        /* \"#utility.yul\":29963:29972   */\n      dup3\n        /* \"#utility.yul\":29959:29977   */\n      add\n        /* \"#utility.yul\":29951:29977   */\n      swap1\n      pop\n        /* \"#utility.yul\":30023:30032   */\n      dup2\n        /* \"#utility.yul\":30017:30021   */\n      dup2\n        /* \"#utility.yul\":30013:30033   */\n      sub\n        /* \"#utility.yul\":30009:30010   */\n      0x00\n        /* \"#utility.yul\":29998:30007   */\n      dup4\n        /* \"#utility.yul\":29994:30011   */\n      add\n        /* \"#utility.yul\":29987:30034   */\n      mstore\n        /* \"#utility.yul\":30051:30182   */\n      tag_649\n        /* \"#utility.yul\":30177:30181   */\n      dup2\n        /* \"#utility.yul\":30051:30182   */\n      tag_390\n      jump\t// in\n    tag_649:\n        /* \"#utility.yul\":30043:30182   */\n      swap1\n      pop\n        /* \"#utility.yul\":29770:30189   */\n      swap2\n      swap1\n      pop\n      jump\t// out\n        /* \"#utility.yul\":30195:30416   */\n    tag_391:\n        /* \"#utility.yul\":30335:30369   */\n      0x54686973206164647265737320697320616c7265616479207265676973746572\n        /* \"#utility.yul\":30331:30332   */\n      0x00\n        /* \"#utility.yul\":30323:30329   */\n      dup3\n        /* \"#utility.yul\":30319:30333   */\n      add\n        /* \"#utility.yul\":30312:30370   */\n      mstore\n        /* \"#utility.yul\":30404:30408   */\n      0x6564000000000000000000000000000000000000000000000000000000000000\n        /* \"#utility.yul\":30399:30401   */\n      0x20\n        /* \"#utility.yul\":30391:30397   */\n      dup3\n        /* \"#utility.yul\":30387:30402   */\n      add\n        /* \"#utility.yul\":30380:30409   */\n      mstore\n        /* \"#utility.yul\":30195:30416   */\n      pop\n      jump\t// out\n        /* \"#utility.yul\":30422:30788   */\n    tag_392:\n        /* \"#utility.yul\":30564:30567   */\n      0x00\n        /* \"#utility.yul\":30585:30652   */\n      tag_652\n        /* \"#utility.yul\":30649:30651   */\n      0x22\n        /* \"#utility.yul\":30644:30647   */\n      dup4\n        /* \"#utility.yul\":30585:30652   */\n      tag_343\n      jump\t// in\n    tag_652:\n        /* \"#utility.yul\":30578:30652   */\n      swap2\n      pop\n        /* \"#utility.yul\":30661:30754   */\n      tag_653\n        /* \"#utility.yul\":30750:30753   */\n      dup3\n        /* \"#utility.yul\":30661:30754   */\n      tag_391\n      jump\t// in\n    tag_653:\n        /* \"#utility.yul\":30779:30781   */\n      0x40\n        /* \"#utility.yul\":30774:30777   */\n      dup3\n        /* \"#utility.yul\":30770:30782   */\n      add\n        /* \"#utility.yul\":30763:30782   */\n      swap1\n      pop\n        /* \"#utility.yul\":30422:30788   */\n      swap2\n      swap1\n      pop\n      jump\t// out\n        /* \"#utility.yul\":30794:31213   */\n    tag_261:\n        /* \"#utility.yul\":30960:30964   */\n      0x00\n        /* \"#utility.yul\":30998:31000   */\n      0x20\n        /* \"#utility.yul\":30987:30996   */\n      dup3\n        /* \"#utility.yul\":30983:31001   */\n      add\n        /* \"#utility.yul\":30975:31001   */\n      swap1\n      pop\n        /* \"#utility.yul\":31047:31056   */\n      dup2\n        /* \"#utility.yul\":31041:31045   */\n      dup2\n        /* \"#utility.yul\":31037:31057   */\n      sub\n        /* \"#utility.yul\":31033:31034   */\n      0x00\n        /* \"#utility.yul\":31022:31031   */\n      dup4\n        /* \"#utility.yul\":31018:31035   */\n      add\n        /* \"#utility.yul\":31011:31058   */\n      mstore\n        /* \"#utility.yul\":31075:31206   */\n      tag_655\n        /* \"#utility.yul\":31201:31205   */\n      dup2\n        /* \"#utility.yul\":31075:31206   */\n      tag_392\n      jump\t// in\n    tag_655:\n        /* \"#utility.yul\":31067:31206   */\n      swap1\n      pop\n        /* \"#utility.yul\":30794:31213   */\n      swap2\n      swap1\n      pop\n      jump\t// out\n\n    auxdata: 0xa2646970667358221220fae4729f0adc42d32161ac5857150c56bc07c590f663e5932855b5e72af9adc064736f6c63430008140033\n}\n",
				"bytecode": {
					"linkReferences": {},
					"object": "608060405234801562000010575f80fd5b50335f73ffffffffffffffffffffffffffffffffffffffff168173ffffffffffffffffffffffffffffffffffffffff160362000085575f6040517f1e4fbdf70000000000000000000000000000000000000000000000000000000081526004016200007c9190620001a1565b60405180910390fd5b62000096816200009d60201b60201c565b50620001bc565b5f805f9054906101000a900473ffffffffffffffffffffffffffffffffffffffff169050815f806101000a81548173ffffffffffffffffffffffffffffffffffffffff021916908373ffffffffffffffffffffffffffffffffffffffff1602179055508173ffffffffffffffffffffffffffffffffffffffff168173ffffffffffffffffffffffffffffffffffffffff167f8be0079c531659141344cd1fd0a4f28419497f9722a3daafe3b4186f6b6457e060405160405180910390a35050565b5f73ffffffffffffffffffffffffffffffffffffffff82169050919050565b5f62000189826200015e565b9050919050565b6200019b816200017d565b82525050565b5f602082019050620001b65f83018462000190565b92915050565b6127b780620001ca5f395ff3fe608060405234801561000f575f80fd5b50600436106100f3575f3560e01c80638e7ea5b211610095578063b922394611610064578063b9223946146101eb578063f2fde38b146101f5578063f4ab9adf14610211578063f8a3ce821461022d576100f3565b80638e7ea5b21461018957806398f6560b146101a75780639c6a46c4146101b1578063a587f077146101bb576100f3565b80634c0a6af0116100d15780634c0a6af01461013957806362564c4814610143578063715018a6146101615780638da5cb5b1461016b576100f3565b80630121b93f146100f7578063274da81f146101135780632fdae3c51461011d575b5f80fd5b610111600480360381019061010c91906118df565b610237565b005b61011b610537565b005b6101376004803603810190610132919061196b565b610626565b005b610141610808565b005b61014b6108f9565b6040516101589190611b44565b60405180910390f35b610169610ac2565b005b610173610ad5565b6040516101809190611ba3565b60405180910390f35b610191610afc565b60405161019e9190611bf6565b60405180910390f35b6101af610c43565b005b6101b9610d34565b005b6101d560048036038101906101d09190611c40565b610f4d565b6040516101e29190611cc5565b60405180910390f35b6101f36110fe565b005b61020f600480360381019061020a9190611c40565b6111ed565b005b61022b60048036038101906102269190611c40565b611271565b005b6102356114bf565b005b60015f015f3373ffffffffffffffffffffffffffffffffffffffff1673ffffffffffffffffffffffffffffffffffffffff1681526020019081526020015f205f015f9054906101000a900460ff166102c4576040517f08c379a00000000000000000000000000000000000000000000000000000000081526004016102bb90611d38565b60405180910390fd5b600360058111156102d8576102d7611d56565b5b60045f9054906101000a900460ff1660058111156102f9576102f8611d56565b5b14610339576040517f08c379a000000000000000000000000000000000000000000000000000000000815260040161033090611dcd565b60405180910390fd5b60015f015f3373ffffffffffffffffffffffffffffffffffffffff1673ffffffffffffffffffffffffffffffffffffffff1681526020019081526020015f205f0160019054906101000a900460ff16156103c8576040517f08c379a00000000000000000000000000000000000000000000000000000000081526004016103bf90611e35565b60405180910390fd5b5f600380549050141580156103e257506003805490508111155b610421576040517f08c379a000000000000000000000000000000000000000000000000000000000815260040161041890611e9d565b60405180910390fd5b6001805f015f3373ffffffffffffffffffffffffffffffffffffffff1673ffffffffffffffffffffffffffffffffffffffff1681526020019081526020015f205f0160016101000a81548160ff0219169083151502179055508060015f015f3373ffffffffffffffffffffffffffffffffffffffff1673ffffffffffffffffffffffffffffffffffffffff1681526020019081526020015f20600101819055506001600382815481106104d7576104d6611ebb565b5b905f5260205f2090600202016001015f8282546104f49190611f15565b925050819055507f4d99b957a2bc29a30ebd96a7be8e68fe50a3c701db28a91436490b7d53870ca4338260405161052c929190611f57565b60405180910390a150565b61053f611657565b5f600581111561055257610551611d56565b5b60045f9054906101000a900460ff16600581111561057357610572611d56565b5b146105b3576040517f08c379a00000000000000000000000000000000000000000000000000000000081526004016105aa90611fee565b60405180910390fd5b600160045f6101000a81548160ff021916908360058111156105d8576105d7611d56565b5b02179055507f0a97a4ee45751e2abf3e4fc8946939630b11b371ea8ae39ccdc3056e98f5cc3f5f60045f9054906101000a900460ff1660405161061c929190612052565b60405180910390a1565b60015f015f3373ffffffffffffffffffffffffffffffffffffffff1673ffffffffffffffffffffffffffffffffffffffff1681526020019081526020015f205f015f9054906101000a900460ff166106b3576040517f08c379a00000000000000000000000000000000000000000000000000000000081526004016106aa90611d38565b60405180910390fd5b600160058111156106c7576106c6611d56565b5b60045f9054906101000a900460ff1660058111156106e8576106e7611d56565b5b14610728576040517f08c379a000000000000000000000000000000000000000000000000000000000815260040161071f906120c3565b60405180910390fd5b6003604051806040016040528084848080601f0160208091040260200160405190810160405280939291908181526020018383808284375f81840152601f19601f8201169050808301925050505050505081526020015f815250908060018154018082558091505060019003905f5260205f2090600202015f909190919091505f820151815f0190816107bb9190612308565b506020820151816001015550507f92e393e9b54e2f801d3ea4beb0c5e71a21cc34a5d34b77d0fb8a3aa1650dc18f6003805490506040516107fc91906123d7565b60405180910390a15050565b610810611657565b6002600581111561082457610823611d56565b5b60045f9054906101000a900460ff16600581111561084557610844611d56565b5b14610885576040517f08c379a000000000000000000000000000000000000000000000000000000000815260040161087c90612460565b60405180910390fd5b600360045f6101000a81548160ff021916908360058111156108aa576108a9611d56565b5b02179055507f0a97a4ee45751e2abf3e4fc8946939630b11b371ea8ae39ccdc3056e98f5cc3f600260045f9054906101000a900460ff166040516108ef929190612052565b60405180910390a1565b606060015f015f3373ffffffffffffffffffffffffffffffffffffffff1673ffffffffffffffffffffffffffffffffffffffff1681526020019081526020015f205f015f9054906101000a900460ff16610988576040517f08c379a000000000000000000000000000000000000000000000000000000000815260040161097f90611d38565b60405180910390fd5b5f600380549050036109cf576040517f08c379a00000000000000000000000000000000000000000000000000000000081526004016109c6906124c8565b60405180910390fd5b6003805480602002602001604051908101604052809291908181526020015f905b82821015610ab9578382905f5260205f2090600202016040518060400160405290815f82018054610a209061213b565b80601f0160208091040260200160405190810160405280929190818152602001828054610a4c9061213b565b8015610a975780601f10610a6e57610100808354040283529160200191610a97565b820191905f5260205f20905b815481529060010190602001808311610a7a57829003601f168201915b50505050508152602001600182015481525050815260200190600101906109f0565b50505050905090565b610aca611657565b610ad35f6116de565b565b5f805f9054906101000a900473ffffffffffffffffffffffffffffffffffffffff16905090565b610b046117a6565b600580811115610b1757610b16611d56565b5b60045f9054906101000a900460ff166005811115610b3857610b37611d56565b5b14610b78576040517f08c379a0000000000000000000000000000000000000000000000000000000008152600401610b6f90612530565b60405180910390fd5b600360055481548110610b8e57610b8d611ebb565b5b905f5260205f2090600202016040518060400160405290815f82018054610bb49061213b565b80601f0160208091040260200160405190810160405280929190818152602001828054610be09061213b565b8015610c2b5780601f10610c0257610100808354040283529160200191610c2b565b820191905f5260205f20905b815481529060010190602001808311610c0e57829003601f168201915b50505050508152602001600182015481525050905090565b610c4b611657565b60016005811115610c5f57610c5e611d56565b5b60045f9054906101000a900460ff166005811115610c8057610c7f611d56565b5b14610cc0576040517f08c379a0000000000000000000000000000000000000000000000000000000008152600401610cb7906120c3565b60405180910390fd5b600260045f6101000a81548160ff02191690836005811115610ce557610ce4611d56565b5b02179055507f0a97a4ee45751e2abf3e4fc8946939630b11b371ea8ae39ccdc3056e98f5cc3f600160045f9054906101000a900460ff16604051610d2a929190612052565b60405180910390a1565b610d3c611657565b60046005811115610d5057610d4f611d56565b5b60045f9054906101000a900460ff166005811115610d7157610d70611d56565b5b14610db1576040517f08c379a0000000000000000000000000000000000000000000000000000000008152600401610da8906125be565b60405180910390fd5b610db96117a6565b5f5b600380549050811015610ed85760038181548110610ddc57610ddb611ebb565b5b905f5260205f2090600202016001015482602001511015610ec55760038181548110610e0b57610e0a611ebb565b5b905f5260205f2090600202016040518060400160405290815f82018054610e319061213b565b80601f0160208091040260200160405190810160405280929190818152602001828054610e5d9061213b565b8015610ea85780601f10610e7f57610100808354040283529160200191610ea8565b820191905f5260205f20905b815481529060010190602001808311610e8b57829003601f168201915b505050505081526020016001820154815250509150806005819055505b8080610ed0906125dc565b915050610dbb565b50600560045f6101000a81548160ff02191690836005811115610efe57610efd611d56565b5b02179055507f0a97a4ee45751e2abf3e4fc8946939630b11b371ea8ae39ccdc3056e98f5cc3f6004805f9054906101000a900460ff16604051610f42929190612052565b60405180910390a150565b610f556117bf565b60015f015f3373ffffffffffffffffffffffffffffffffffffffff1673ffffffffffffffffffffffffffffffffffffffff1681526020019081526020015f205f015f9054906101000a900460ff16610fe2576040517f08c379a0000000000000000000000000000000000000000000000000000000008152600401610fd990611d38565b60405180910390fd5b60015f015f3373ffffffffffffffffffffffffffffffffffffffff1673ffffffffffffffffffffffffffffffffffffffff1681526020019081526020015f205f0160019054906101000a900460ff16611070576040517f08c379a00000000000000000000000000000000000000000000000000000000081526004016110679061266d565b60405180910390fd5b60015f015f8373ffffffffffffffffffffffffffffffffffffffff1673ffffffffffffffffffffffffffffffffffffffff1681526020019081526020015f206040518060600160405290815f82015f9054906101000a900460ff161515151581526020015f820160019054906101000a900460ff161515151581526020016001820154815250509050919050565b611106611657565b6003600581111561111a57611119611d56565b5b60045f9054906101000a900460ff16600581111561113b5761113a611d56565b5b1461117b576040517f08c379a000000000000000000000000000000000000000000000000000000000815260040161117290611dcd565b60405180910390fd5b6004805f6101000a81548160ff0219169083600581111561119f5761119e611d56565b5b02179055507f0a97a4ee45751e2abf3e4fc8946939630b11b371ea8ae39ccdc3056e98f5cc3f6004805f9054906101000a900460ff166040516111e3929190612052565b60405180910390a1565b6111f5611657565b5f73ffffffffffffffffffffffffffffffffffffffff168173ffffffffffffffffffffffffffffffffffffffff1603611265575f6040517f1e4fbdf700000000000000000000000000000000000000000000000000000000815260040161125c9190611ba3565b60405180910390fd5b61126e816116de565b50565b611279611657565b5f600581111561128c5761128b611d56565b5b60045f9054906101000a900460ff1660058111156112ad576112ac611d56565b5b146112ed576040517f08c379a00000000000000000000000000000000000000000000000000000000081526004016112e4906126d5565b60405180910390fd5b60015f015f8273ffffffffffffffffffffffffffffffffffffffff1673ffffffffffffffffffffffffffffffffffffffff1681526020019081526020015f205f015f9054906101000a900460ff161561137b576040517f08c379a000000000000000000000000000000000000000000000000000000000815260040161137290612763565b60405180910390fd5b60405180606001604052806001151581526020015f151581526020015f81525060015f015f8373ffffffffffffffffffffffffffffffffffffffff1673ffffffffffffffffffffffffffffffffffffffff1681526020019081526020015f205f820151815f015f6101000a81548160ff0219169083151502179055506020820151815f0160016101000a81548160ff021916908315150217905550604082015181600101559050506001800181908060018154018082558091505060019003905f5260205f20015f9091909190916101000a81548173ffffffffffffffffffffffffffffffffffffffff021916908373ffffffffffffffffffffffffffffffffffffffff1602179055507fb6be2187d059cc2a55fe29e0e503b566e1e0f8c8780096e185429350acffd3dd816040516114b49190611ba3565b60405180910390a150565b6114c7611657565b6005808111156114da576114d9611d56565b5b60045f9054906101000a900460ff1660058111156114fb576114fa611d56565b5b1461153b576040517f08c379a000000000000000000000000000000000000000000000000000000000815260040161153290612530565b60405180910390fd5b5f60045f6101000a81548160ff0219169083600581111561155f5761155e611d56565b5b021790555060035f61157191906117e1565b60055f90555f5b60018001805490508110156116455760015f015f6001800183815481106115a2576115a1611ebb565b5b905f5260205f20015f9054906101000a900473ffffffffffffffffffffffffffffffffffffffff1673ffffffffffffffffffffffffffffffffffffffff1673ffffffffffffffffffffffffffffffffffffffff1681526020019081526020015f205f8082015f6101000a81549060ff02191690555f820160016101000a81549060ff0219169055600182015f90555050808061163d906125dc565b915050611578565b50600180015f6116559190611802565b565b61165f61179f565b73ffffffffffffffffffffffffffffffffffffffff1661167d610ad5565b73ffffffffffffffffffffffffffffffffffffffff16146116dc576116a061179f565b6040517f118cdaa70000000000000000000000000000000000000000000000000000000081526004016116d39190611ba3565b60405180910390fd5b565b5f805f9054906101000a900473ffffffffffffffffffffffffffffffffffffffff169050815f806101000a81548173ffffffffffffffffffffffffffffffffffffffff021916908373ffffffffffffffffffffffffffffffffffffffff1602179055508173ffffffffffffffffffffffffffffffffffffffff168173ffffffffffffffffffffffffffffffffffffffff167f8be0079c531659141344cd1fd0a4f28419497f9722a3daafe3b4186f6b6457e060405160405180910390a35050565b5f33905090565b6040518060400160405280606081526020015f81525090565b60405180606001604052805f151581526020015f151581526020015f81525090565b5080545f8255600202905f5260205f20908101906117ff9190611820565b50565b5080545f8255905f5260205f209081019061181d919061184c565b50565b5b80821115611848575f8082015f6118389190611867565b600182015f905550600201611821565b5090565b5b80821115611863575f815f90555060010161184d565b5090565b5080546118739061213b565b5f825580601f1061188457506118a1565b601f0160209004905f5260205f20908101906118a0919061184c565b5b50565b5f80fd5b5f80fd5b5f819050919050565b6118be816118ac565b81146118c8575f80fd5b50565b5f813590506118d9816118b5565b92915050565b5f602082840312156118f4576118f36118a4565b5b5f611901848285016118cb565b91505092915050565b5f80fd5b5f80fd5b5f80fd5b5f8083601f84011261192b5761192a61190a565b5b8235905067ffffffffffffffff8111156119485761194761190e565b5b60208301915083600182028301111561196457611963611912565b5b9250929050565b5f8060208385031215611981576119806118a4565b5b5f83013567ffffffffffffffff81111561199e5761199d6118a8565b5b6119aa85828601611916565b92509250509250929050565b5f81519050919050565b5f82825260208201905092915050565b5f819050602082019050919050565b5f81519050919050565b5f82825260208201905092915050565b5f5b83811015611a165780820151818401526020810190506119fb565b5f8484015250505050565b5f601f19601f8301169050919050565b5f611a3b826119df565b611a4581856119e9565b9350611a558185602086016119f9565b611a5e81611a21565b840191505092915050565b611a72816118ac565b82525050565b5f604083015f8301518482035f860152611a928282611a31565b9150506020830151611aa76020860182611a69565b508091505092915050565b5f611abd8383611a78565b905092915050565b5f602082019050919050565b5f611adb826119b6565b611ae581856119c0565b935083602082028501611af7856119d0565b805f5b85811015611b325784840389528151611b138582611ab2565b9450611b1e83611ac5565b925060208a01995050600181019050611afa565b50829750879550505050505092915050565b5f6020820190508181035f830152611b5c8184611ad1565b905092915050565b5f73ffffffffffffffffffffffffffffffffffffffff82169050919050565b5f611b8d82611b64565b9050919050565b611b9d81611b83565b82525050565b5f602082019050611bb65f830184611b94565b92915050565b5f604083015f8301518482035f860152611bd68282611a31565b9150506020830151611beb6020860182611a69565b508091505092915050565b5f6020820190508181035f830152611c0e8184611bbc565b905092915050565b611c1f81611b83565b8114611c29575f80fd5b50565b5f81359050611c3a81611c16565b92915050565b5f60208284031215611c5557611c546118a4565b5b5f611c6284828501611c2c565b91505092915050565b5f8115159050919050565b611c7f81611c6b565b82525050565b606082015f820151611c995f850182611c76565b506020820151611cac6020850182611c76565b506040820151611cbf6040850182611a69565b50505050565b5f606082019050611cd85f830184611c85565b92915050565b5f82825260208201905092915050565b7f596f757220617265206e6f74207265676973746572656420696e206c697374005f82015250565b5f611d22601f83611cde565b9150611d2d82611cee565b602082019050919050565b5f6020820190508181035f830152611d4f81611d16565b9050919050565b7f4e487b71000000000000000000000000000000000000000000000000000000005f52602160045260245ffd5b7f4974206d75737420626520766f74696e672073657373696f6e000000000000005f82015250565b5f611db7601983611cde565b9150611dc282611d83565b602082019050919050565b5f6020820190508181035f830152611de481611dab565b9050919050565b7f596f75206861766520616c726561647920766f746564000000000000000000005f82015250565b5f611e1f601683611cde565b9150611e2a82611deb565b602082019050919050565b5f6020820190508181035f830152611e4c81611e13565b9050919050565b7f546869732070726f706f73616c20646f65736e277420657869737400000000005f82015250565b5f611e87601b83611cde565b9150611e9282611e53565b602082019050919050565b5f6020820190508181035f830152611eb481611e7b565b9050919050565b7f4e487b71000000000000000000000000000000000000000000000000000000005f52603260045260245ffd5b7f4e487b71000000000000000000000000000000000000000000000000000000005f52601160045260245ffd5b5f611f1f826118ac565b9150611f2a836118ac565b9250828201905080821115611f4257611f41611ee8565b5b92915050565b611f51816118ac565b82525050565b5f604082019050611f6a5f830185611b94565b611f776020830184611f48565b9392505050565b7f4974206d757374206265207265676973746572696e6720766f746572206265665f8201527f6f72650000000000000000000000000000000000000000000000000000000000602082015250565b5f611fd8602383611cde565b9150611fe382611f7e565b604082019050919050565b5f6020820190508181035f83015261200581611fcc565b9050919050565b6006811061201d5761201c611d56565b5b50565b5f81905061202d8261200c565b919050565b5f61203c82612020565b9050919050565b61204c81612032565b82525050565b5f6040820190506120655f830185612043565b6120726020830184612043565b9392505050565b7f4974206d7573742062652070726f706f73616c2073657373696f6e00000000005f82015250565b5f6120ad601b83611cde565b91506120b882612079565b602082019050919050565b5f6020820190508181035f8301526120da816120a1565b9050919050565b7f4e487b71000000000000000000000000000000000000000000000000000000005f52604160045260245ffd5b7f4e487b71000000000000000000000000000000000000000000000000000000005f52602260045260245ffd5b5f600282049050600182168061215257607f821691505b6020821081036121655761216461210e565b5b50919050565b5f819050815f5260205f209050919050565b5f6020601f8301049050919050565b5f82821b905092915050565b5f600883026121c77fffffffffffffffffffffffffffffffffffffffffffffffffffffffffffffffff8261218c565b6121d1868361218c565b95508019841693508086168417925050509392505050565b5f819050919050565b5f61220c612207612202846118ac565b6121e9565b6118ac565b9050919050565b5f819050919050565b612225836121f2565b61223961223182612213565b848454612198565b825550505050565b5f90565b61224d612241565b61225881848461221c565b505050565b5b8181101561227b576122705f82612245565b60018101905061225e565b5050565b601f8211156122c0576122918161216b565b61229a8461217d565b810160208510156122a9578190505b6122bd6122b58561217d565b83018261225d565b50505b505050565b5f82821c905092915050565b5f6122e05f19846008026122c5565b1980831691505092915050565b5f6122f883836122d1565b9150826002028217905092915050565b612311826119df565b67ffffffffffffffff81111561232a576123296120e1565b5b612334825461213b565b61233f82828561227f565b5f60209050601f831160018114612370575f841561235e578287015190505b61236885826122ed565b8655506123cf565b601f19841661237e8661216b565b5f5b828110156123a557848901518255600182019150602085019450602081019050612380565b868310156123c257848901516123be601f8916826122d1565b8355505b6001600288020188555050505b505050505050565b5f6020820190506123ea5f830184611f48565b92915050565b7f4974206d7573742062652074686520656e64206f662070726f706f73616c20625f8201527f65666f7265000000000000000000000000000000000000000000000000000000602082015250565b5f61244a602583611cde565b9150612455826123f0565b604082019050919050565b5f6020820190508181035f8301526124778161243e565b9050919050565b7f5468657265206172656e27742070726f706f73616c00000000000000000000005f82015250565b5f6124b2601583611cde565b91506124bd8261247e565b602082019050919050565b5f6020820190508181035f8301526124df816124a6565b9050919050565b7f4974206d7573742062652074616c6c6965642073657373696f6e0000000000005f82015250565b5f61251a601a83611cde565b9150612525826124e6565b602082019050919050565b5f6020820190508181035f8301526125478161250e565b9050919050565b7f4974206d7573742062652074686520656e64206f66207468652073657373696f5f8201527f6e00000000000000000000000000000000000000000000000000000000000000602082015250565b5f6125a8602183611cde565b91506125b38261254e565b604082019050919050565b5f6020820190508181035f8301526125d58161259c565b9050919050565b5f6125e6826118ac565b91507fffffffffffffffffffffffffffffffffffffffffffffffffffffffffffffffff820361261857612617611ee8565b5b600182019050919050565b7f5468697320706572736f6e206861736e277420766f74656400000000000000005f82015250565b5f612657601883611cde565b915061266282612623565b602082019050919050565b5f6020820190508181035f8301526126848161264b565b9050919050565b7f4974206d757374206265207265676973746572696e6720766f746572000000005f82015250565b5f6126bf601c83611cde565b91506126ca8261268b565b602082019050919050565b5f6020820190508181035f8301526126ec816126b3565b9050919050565b7f54686973206164647265737320697320616c72656164792072656769737465725f8201527f6564000000000000000000000000000000000000000000000000000000000000602082015250565b5f61274d602283611cde565b9150612758826126f3565b604082019050919050565b5f6020820190508181035f83015261277a81612741565b905091905056fea2646970667358221220fae4729f0adc42d32161ac5857150c56bc07c590f663e5932855b5e72af9adc064736f6c63430008140033",
					"opcodes": "PUSH1 0x80 PUSH1 0x40 MSTORE CALLVALUE DUP1 ISZERO PUSH3 0x10 JUMPI PUSH0 DUP1 REVERT JUMPDEST POP CALLER PUSH0 PUSH20 0xFFFFFFFFFFFFFFFFFFFFFFFFFFFFFFFFFFFFFFFF AND DUP2 PUSH20 0xFFFFFFFFFFFFFFFFFFFFFFFFFFFFFFFFFFFFFFFF AND SUB PUSH3 0x85 JUMPI PUSH0 PUSH1 0x40 MLOAD PUSH32 0x1E4FBDF700000000000000000000000000000000000000000000000000000000 DUP2 MSTORE PUSH1 0x4 ADD PUSH3 0x7C SWAP2 SWAP1 PUSH3 0x1A1 JUMP JUMPDEST PUSH1 0x40 MLOAD DUP1 SWAP2 SUB SWAP1 REVERT JUMPDEST PUSH3 0x96 DUP2 PUSH3 0x9D PUSH1 0x20 SHL PUSH1 0x20 SHR JUMP JUMPDEST POP PUSH3 0x1BC JUMP JUMPDEST PUSH0 DUP1 PUSH0 SWAP1 SLOAD SWAP1 PUSH2 0x100 EXP SWAP1 DIV PUSH20 0xFFFFFFFFFFFFFFFFFFFFFFFFFFFFFFFFFFFFFFFF AND SWAP1 POP DUP2 PUSH0 DUP1 PUSH2 0x100 EXP DUP2 SLOAD DUP2 PUSH20 0xFFFFFFFFFFFFFFFFFFFFFFFFFFFFFFFFFFFFFFFF MUL NOT AND SWAP1 DUP4 PUSH20 0xFFFFFFFFFFFFFFFFFFFFFFFFFFFFFFFFFFFFFFFF AND MUL OR SWAP1 SSTORE POP DUP2 PUSH20 0xFFFFFFFFFFFFFFFFFFFFFFFFFFFFFFFFFFFFFFFF AND DUP2 PUSH20 0xFFFFFFFFFFFFFFFFFFFFFFFFFFFFFFFFFFFFFFFF AND PUSH32 0x8BE0079C531659141344CD1FD0A4F28419497F9722A3DAAFE3B4186F6B6457E0 PUSH1 0x40 MLOAD PUSH1 0x40 MLOAD DUP1 SWAP2 SUB SWAP1 LOG3 POP POP JUMP JUMPDEST PUSH0 PUSH20 0xFFFFFFFFFFFFFFFFFFFFFFFFFFFFFFFFFFFFFFFF DUP3 AND SWAP1 POP SWAP2 SWAP1 POP JUMP JUMPDEST PUSH0 PUSH3 0x189 DUP3 PUSH3 0x15E JUMP JUMPDEST SWAP1 POP SWAP2 SWAP1 POP JUMP JUMPDEST PUSH3 0x19B DUP2 PUSH3 0x17D JUMP JUMPDEST DUP3 MSTORE POP POP JUMP JUMPDEST PUSH0 PUSH1 0x20 DUP3 ADD SWAP1 POP PUSH3 0x1B6 PUSH0 DUP4 ADD DUP5 PUSH3 0x190 JUMP JUMPDEST SWAP3 SWAP2 POP POP JUMP JUMPDEST PUSH2 0x27B7 DUP1 PUSH3 0x1CA PUSH0 CODECOPY PUSH0 RETURN INVALID PUSH1 0x80 PUSH1 0x40 MSTORE CALLVALUE DUP1 ISZERO PUSH2 0xF JUMPI PUSH0 DUP1 REVERT JUMPDEST POP PUSH1 0x4 CALLDATASIZE LT PUSH2 0xF3 JUMPI PUSH0 CALLDATALOAD PUSH1 0xE0 SHR DUP1 PUSH4 0x8E7EA5B2 GT PUSH2 0x95 JUMPI DUP1 PUSH4 0xB9223946 GT PUSH2 0x64 JUMPI DUP1 PUSH4 0xB9223946 EQ PUSH2 0x1EB JUMPI DUP1 PUSH4 0xF2FDE38B EQ PUSH2 0x1F5 JUMPI DUP1 PUSH4 0xF4AB9ADF EQ PUSH2 0x211 JUMPI DUP1 PUSH4 0xF8A3CE82 EQ PUSH2 0x22D JUMPI PUSH2 0xF3 JUMP JUMPDEST DUP1 PUSH4 0x8E7EA5B2 EQ PUSH2 0x189 JUMPI DUP1 PUSH4 0x98F6560B EQ PUSH2 0x1A7 JUMPI DUP1 PUSH4 0x9C6A46C4 EQ PUSH2 0x1B1 JUMPI DUP1 PUSH4 0xA587F077 EQ PUSH2 0x1BB JUMPI PUSH2 0xF3 JUMP JUMPDEST DUP1 PUSH4 0x4C0A6AF0 GT PUSH2 0xD1 JUMPI DUP1 PUSH4 0x4C0A6AF0 EQ PUSH2 0x139 JUMPI DUP1 PUSH4 0x62564C48 EQ PUSH2 0x143 JUMPI DUP1 PUSH4 0x715018A6 EQ PUSH2 0x161 JUMPI DUP1 PUSH4 0x8DA5CB5B EQ PUSH2 0x16B JUMPI PUSH2 0xF3 JUMP JUMPDEST DUP1 PUSH4 0x121B93F EQ PUSH2 0xF7 JUMPI DUP1 PUSH4 0x274DA81F EQ PUSH2 0x113 JUMPI DUP1 PUSH4 0x2FDAE3C5 EQ PUSH2 0x11D JUMPI JUMPDEST PUSH0 DUP1 REVERT JUMPDEST PUSH2 0x111 PUSH1 0x4 DUP1 CALLDATASIZE SUB DUP2 ADD SWAP1 PUSH2 0x10C SWAP2 SWAP1 PUSH2 0x18DF JUMP JUMPDEST PUSH2 0x237 JUMP JUMPDEST STOP JUMPDEST PUSH2 0x11B PUSH2 0x537 JUMP JUMPDEST STOP JUMPDEST PUSH2 0x137 PUSH1 0x4 DUP1 CALLDATASIZE SUB DUP2 ADD SWAP1 PUSH2 0x132 SWAP2 SWAP1 PUSH2 0x196B JUMP JUMPDEST PUSH2 0x626 JUMP JUMPDEST STOP JUMPDEST PUSH2 0x141 PUSH2 0x808 JUMP JUMPDEST STOP JUMPDEST PUSH2 0x14B PUSH2 0x8F9 JUMP JUMPDEST PUSH1 0x40 MLOAD PUSH2 0x158 SWAP2 SWAP1 PUSH2 0x1B44 JUMP JUMPDEST PUSH1 0x40 MLOAD DUP1 SWAP2 SUB SWAP1 RETURN JUMPDEST PUSH2 0x169 PUSH2 0xAC2 JUMP JUMPDEST STOP JUMPDEST PUSH2 0x173 PUSH2 0xAD5 JUMP JUMPDEST PUSH1 0x40 MLOAD PUSH2 0x180 SWAP2 SWAP1 PUSH2 0x1BA3 JUMP JUMPDEST PUSH1 0x40 MLOAD DUP1 SWAP2 SUB SWAP1 RETURN JUMPDEST PUSH2 0x191 PUSH2 0xAFC JUMP JUMPDEST PUSH1 0x40 MLOAD PUSH2 0x19E SWAP2 SWAP1 PUSH2 0x1BF6 JUMP JUMPDEST PUSH1 0x40 MLOAD DUP1 SWAP2 SUB SWAP1 RETURN JUMPDEST PUSH2 0x1AF PUSH2 0xC43 JUMP JUMPDEST STOP JUMPDEST PUSH2 0x1B9 PUSH2 0xD34 JUMP JUMPDEST STOP JUMPDEST PUSH2 0x1D5 PUSH1 0x4 DUP1 CALLDATASIZE SUB DUP2 ADD SWAP1 PUSH2 0x1D0 SWAP2 SWAP1 PUSH2 0x1C40 JUMP JUMPDEST PUSH2 0xF4D JUMP JUMPDEST PUSH1 0x40 MLOAD PUSH2 0x1E2 SWAP2 SWAP1 PUSH2 0x1CC5 JUMP JUMPDEST PUSH1 0x40 MLOAD DUP1 SWAP2 SUB SWAP1 RETURN JUMPDEST PUSH2 0x1F3 PUSH2 0x10FE JUMP JUMPDEST STOP JUMPDEST PUSH2 0x20F PUSH1 0x4 DUP1 CALLDATASIZE SUB DUP2 ADD SWAP1 PUSH2 0x20A SWAP2 SWAP1 PUSH2 0x1C40 JUMP JUMPDEST PUSH2 0x11ED JUMP JUMPDEST STOP JUMPDEST PUSH2 0x22B PUSH1 0x4 DUP1 CALLDATASIZE SUB DUP2 ADD SWAP1 PUSH2 0x226 SWAP2 SWAP1 PUSH2 0x1C40 JUMP JUMPDEST PUSH2 0x1271 JUMP JUMPDEST STOP JUMPDEST PUSH2 0x235 PUSH2 0x14BF JUMP JUMPDEST STOP JUMPDEST PUSH1 0x1 PUSH0 ADD PUSH0 CALLER PUSH20 0xFFFFFFFFFFFFFFFFFFFFFFFFFFFFFFFFFFFFFFFF AND PUSH20 0xFFFFFFFFFFFFFFFFFFFFFFFFFFFFFFFFFFFFFFFF AND DUP2 MSTORE PUSH1 0x20 ADD SWAP1 DUP2 MSTORE PUSH1 0x20 ADD PUSH0 KECCAK256 PUSH0 ADD PUSH0 SWAP1 SLOAD SWAP1 PUSH2 0x100 EXP SWAP1 DIV PUSH1 0xFF AND PUSH2 0x2C4 JUMPI PUSH1 0x40 MLOAD PUSH32 0x8C379A000000000000000000000000000000000000000000000000000000000 DUP2 MSTORE PUSH1 0x4 ADD PUSH2 0x2BB SWAP1 PUSH2 0x1D38 JUMP JUMPDEST PUSH1 0x40 MLOAD DUP1 SWAP2 SUB SWAP1 REVERT JUMPDEST PUSH1 0x3 PUSH1 0x5 DUP2 GT ISZERO PUSH2 0x2D8 JUMPI PUSH2 0x2D7 PUSH2 0x1D56 JUMP JUMPDEST JUMPDEST PUSH1 0x4 PUSH0 SWAP1 SLOAD SWAP1 PUSH2 0x100 EXP SWAP1 DIV PUSH1 0xFF AND PUSH1 0x5 DUP2 GT ISZERO PUSH2 0x2F9 JUMPI PUSH2 0x2F8 PUSH2 0x1D56 JUMP JUMPDEST JUMPDEST EQ PUSH2 0x339 JUMPI PUSH1 0x40 MLOAD PUSH32 0x8C379A000000000000000000000000000000000000000000000000000000000 DUP2 MSTORE PUSH1 0x4 ADD PUSH2 0x330 SWAP1 PUSH2 0x1DCD JUMP JUMPDEST PUSH1 0x40 MLOAD DUP1 SWAP2 SUB SWAP1 REVERT JUMPDEST PUSH1 0x1 PUSH0 ADD PUSH0 CALLER PUSH20 0xFFFFFFFFFFFFFFFFFFFFFFFFFFFFFFFFFFFFFFFF AND PUSH20 0xFFFFFFFFFFFFFFFFFFFFFFFFFFFFFFFFFFFFFFFF AND DUP2 MSTORE PUSH1 0x20 ADD SWAP1 DUP2 MSTORE PUSH1 0x20 ADD PUSH0 KECCAK256 PUSH0 ADD PUSH1 0x1 SWAP1 SLOAD SWAP1 PUSH2 0x100 EXP SWAP1 DIV PUSH1 0xFF AND ISZERO PUSH2 0x3C8 JUMPI PUSH1 0x40 MLOAD PUSH32 0x8C379A000000000000000000000000000000000000000000000000000000000 DUP2 MSTORE PUSH1 0x4 ADD PUSH2 0x3BF SWAP1 PUSH2 0x1E35 JUMP JUMPDEST PUSH1 0x40 MLOAD DUP1 SWAP2 SUB SWAP1 REVERT JUMPDEST PUSH0 PUSH1 0x3 DUP1 SLOAD SWAP1 POP EQ ISZERO DUP1 ISZERO PUSH2 0x3E2 JUMPI POP PUSH1 0x3 DUP1 SLOAD SWAP1 POP DUP2 GT ISZERO JUMPDEST PUSH2 0x421 JUMPI PUSH1 0x40 MLOAD PUSH32 0x8C379A000000000000000000000000000000000000000000000000000000000 DUP2 MSTORE PUSH1 0x4 ADD PUSH2 0x418 SWAP1 PUSH2 0x1E9D JUMP JUMPDEST PUSH1 0x40 MLOAD DUP1 SWAP2 SUB SWAP1 REVERT JUMPDEST PUSH1 0x1 DUP1 PUSH0 ADD PUSH0 CALLER PUSH20 0xFFFFFFFFFFFFFFFFFFFFFFFFFFFFFFFFFFFFFFFF AND PUSH20 0xFFFFFFFFFFFFFFFFFFFFFFFFFFFFFFFFFFFFFFFF AND DUP2 MSTORE PUSH1 0x20 ADD SWAP1 DUP2 MSTORE PUSH1 0x20 ADD PUSH0 KECCAK256 PUSH0 ADD PUSH1 0x1 PUSH2 0x100 EXP DUP2 SLOAD DUP2 PUSH1 0xFF MUL NOT AND SWAP1 DUP4 ISZERO ISZERO MUL OR SWAP1 SSTORE POP DUP1 PUSH1 0x1 PUSH0 ADD PUSH0 CALLER PUSH20 0xFFFFFFFFFFFFFFFFFFFFFFFFFFFFFFFFFFFFFFFF AND PUSH20 0xFFFFFFFFFFFFFFFFFFFFFFFFFFFFFFFFFFFFFFFF AND DUP2 MSTORE PUSH1 0x20 ADD SWAP1 DUP2 MSTORE PUSH1 0x20 ADD PUSH0 KECCAK256 PUSH1 0x1 ADD DUP2 SWAP1 SSTORE POP PUSH1 0x1 PUSH1 0x3 DUP3 DUP2 SLOAD DUP2 LT PUSH2 0x4D7 JUMPI PUSH2 0x4D6 PUSH2 0x1EBB JUMP JUMPDEST JUMPDEST SWAP1 PUSH0 MSTORE PUSH1 0x20 PUSH0 KECCAK256 SWAP1 PUSH1 0x2 MUL ADD PUSH1 0x1 ADD PUSH0 DUP3 DUP3 SLOAD PUSH2 0x4F4 SWAP2 SWAP1 PUSH2 0x1F15 JUMP JUMPDEST SWAP3 POP POP DUP2 SWAP1 SSTORE POP PUSH32 0x4D99B957A2BC29A30EBD96A7BE8E68FE50A3C701DB28A91436490B7D53870CA4 CALLER DUP3 PUSH1 0x40 MLOAD PUSH2 0x52C SWAP3 SWAP2 SWAP1 PUSH2 0x1F57 JUMP JUMPDEST PUSH1 0x40 MLOAD DUP1 SWAP2 SUB SWAP1 LOG1 POP JUMP JUMPDEST PUSH2 0x53F PUSH2 0x1657 JUMP JUMPDEST PUSH0 PUSH1 0x5 DUP2 GT ISZERO PUSH2 0x552 JUMPI PUSH2 0x551 PUSH2 0x1D56 JUMP JUMPDEST JUMPDEST PUSH1 0x4 PUSH0 SWAP1 SLOAD SWAP1 PUSH2 0x100 EXP SWAP1 DIV PUSH1 0xFF AND PUSH1 0x5 DUP2 GT ISZERO PUSH2 0x573 JUMPI PUSH2 0x572 PUSH2 0x1D56 JUMP JUMPDEST JUMPDEST EQ PUSH2 0x5B3 JUMPI PUSH1 0x40 MLOAD PUSH32 0x8C379A000000000000000000000000000000000000000000000000000000000 DUP2 MSTORE PUSH1 0x4 ADD PUSH2 0x5AA SWAP1 PUSH2 0x1FEE JUMP JUMPDEST PUSH1 0x40 MLOAD DUP1 SWAP2 SUB SWAP1 REVERT JUMPDEST PUSH1 0x1 PUSH1 0x4 PUSH0 PUSH2 0x100 EXP DUP2 SLOAD DUP2 PUSH1 0xFF MUL NOT AND SWAP1 DUP4 PUSH1 0x5 DUP2 GT ISZERO PUSH2 0x5D8 JUMPI PUSH2 0x5D7 PUSH2 0x1D56 JUMP JUMPDEST JUMPDEST MUL OR SWAP1 SSTORE POP PUSH32 0xA97A4EE45751E2ABF3E4FC8946939630B11B371EA8AE39CCDC3056E98F5CC3F PUSH0 PUSH1 0x4 PUSH0 SWAP1 SLOAD SWAP1 PUSH2 0x100 EXP SWAP1 DIV PUSH1 0xFF AND PUSH1 0x40 MLOAD PUSH2 0x61C SWAP3 SWAP2 SWAP1 PUSH2 0x2052 JUMP JUMPDEST PUSH1 0x40 MLOAD DUP1 SWAP2 SUB SWAP1 LOG1 JUMP JUMPDEST PUSH1 0x1 PUSH0 ADD PUSH0 CALLER PUSH20 0xFFFFFFFFFFFFFFFFFFFFFFFFFFFFFFFFFFFFFFFF AND PUSH20 0xFFFFFFFFFFFFFFFFFFFFFFFFFFFFFFFFFFFFFFFF AND DUP2 MSTORE PUSH1 0x20 ADD SWAP1 DUP2 MSTORE PUSH1 0x20 ADD PUSH0 KECCAK256 PUSH0 ADD PUSH0 SWAP1 SLOAD SWAP1 PUSH2 0x100 EXP SWAP1 DIV PUSH1 0xFF AND PUSH2 0x6B3 JUMPI PUSH1 0x40 MLOAD PUSH32 0x8C379A000000000000000000000000000000000000000000000000000000000 DUP2 MSTORE PUSH1 0x4 ADD PUSH2 0x6AA SWAP1 PUSH2 0x1D38 JUMP JUMPDEST PUSH1 0x40 MLOAD DUP1 SWAP2 SUB SWAP1 REVERT JUMPDEST PUSH1 0x1 PUSH1 0x5 DUP2 GT ISZERO PUSH2 0x6C7 JUMPI PUSH2 0x6C6 PUSH2 0x1D56 JUMP JUMPDEST JUMPDEST PUSH1 0x4 PUSH0 SWAP1 SLOAD SWAP1 PUSH2 0x100 EXP SWAP1 DIV PUSH1 0xFF AND PUSH1 0x5 DUP2 GT ISZERO PUSH2 0x6E8 JUMPI PUSH2 0x6E7 PUSH2 0x1D56 JUMP JUMPDEST JUMPDEST EQ PUSH2 0x728 JUMPI PUSH1 0x40 MLOAD PUSH32 0x8C379A000000000000000000000000000000000000000000000000000000000 DUP2 MSTORE PUSH1 0x4 ADD PUSH2 0x71F SWAP1 PUSH2 0x20C3 JUMP JUMPDEST PUSH1 0x40 MLOAD DUP1 SWAP2 SUB SWAP1 REVERT JUMPDEST PUSH1 0x3 PUSH1 0x40 MLOAD DUP1 PUSH1 0x40 ADD PUSH1 0x40 MSTORE DUP1 DUP5 DUP5 DUP1 DUP1 PUSH1 0x1F ADD PUSH1 0x20 DUP1 SWAP2 DIV MUL PUSH1 0x20 ADD PUSH1 0x40 MLOAD SWAP1 DUP2 ADD PUSH1 0x40 MSTORE DUP1 SWAP4 SWAP3 SWAP2 SWAP1 DUP2 DUP2 MSTORE PUSH1 0x20 ADD DUP4 DUP4 DUP1 DUP3 DUP5 CALLDATACOPY PUSH0 DUP2 DUP5 ADD MSTORE PUSH1 0x1F NOT PUSH1 0x1F DUP3 ADD AND SWAP1 POP DUP1 DUP4 ADD SWAP3 POP POP POP POP POP POP POP DUP2 MSTORE PUSH1 0x20 ADD PUSH0 DUP2 MSTORE POP SWAP1 DUP1 PUSH1 0x1 DUP2 SLOAD ADD DUP1 DUP3 SSTORE DUP1 SWAP2 POP POP PUSH1 0x1 SWAP1 SUB SWAP1 PUSH0 MSTORE PUSH1 0x20 PUSH0 KECCAK256 SWAP1 PUSH1 0x2 MUL ADD PUSH0 SWAP1 SWAP2 SWAP1 SWAP2 SWAP1 SWAP2 POP PUSH0 DUP3 ADD MLOAD DUP2 PUSH0 ADD SWAP1 DUP2 PUSH2 0x7BB SWAP2 SWAP1 PUSH2 0x2308 JUMP JUMPDEST POP PUSH1 0x20 DUP3 ADD MLOAD DUP2 PUSH1 0x1 ADD SSTORE POP POP PUSH32 0x92E393E9B54E2F801D3EA4BEB0C5E71A21CC34A5D34B77D0FB8A3AA1650DC18F PUSH1 0x3 DUP1 SLOAD SWAP1 POP PUSH1 0x40 MLOAD PUSH2 0x7FC SWAP2 SWAP1 PUSH2 0x23D7 JUMP JUMPDEST PUSH1 0x40 MLOAD DUP1 SWAP2 SUB SWAP1 LOG1 POP POP JUMP JUMPDEST PUSH2 0x810 PUSH2 0x1657 JUMP JUMPDEST PUSH1 0x2 PUSH1 0x5 DUP2 GT ISZERO PUSH2 0x824 JUMPI PUSH2 0x823 PUSH2 0x1D56 JUMP JUMPDEST JUMPDEST PUSH1 0x4 PUSH0 SWAP1 SLOAD SWAP1 PUSH2 0x100 EXP SWAP1 DIV PUSH1 0xFF AND PUSH1 0x5 DUP2 GT ISZERO PUSH2 0x845 JUMPI PUSH2 0x844 PUSH2 0x1D56 JUMP JUMPDEST JUMPDEST EQ PUSH2 0x885 JUMPI PUSH1 0x40 MLOAD PUSH32 0x8C379A000000000000000000000000000000000000000000000000000000000 DUP2 MSTORE PUSH1 0x4 ADD PUSH2 0x87C SWAP1 PUSH2 0x2460 JUMP JUMPDEST PUSH1 0x40 MLOAD DUP1 SWAP2 SUB SWAP1 REVERT JUMPDEST PUSH1 0x3 PUSH1 0x4 PUSH0 PUSH2 0x100 EXP DUP2 SLOAD DUP2 PUSH1 0xFF MUL NOT AND SWAP1 DUP4 PUSH1 0x5 DUP2 GT ISZERO PUSH2 0x8AA JUMPI PUSH2 0x8A9 PUSH2 0x1D56 JUMP JUMPDEST JUMPDEST MUL OR SWAP1 SSTORE POP PUSH32 0xA97A4EE45751E2ABF3E4FC8946939630B11B371EA8AE39CCDC3056E98F5CC3F PUSH1 0x2 PUSH1 0x4 PUSH0 SWAP1 SLOAD SWAP1 PUSH2 0x100 EXP SWAP1 DIV PUSH1 0xFF AND PUSH1 0x40 MLOAD PUSH2 0x8EF SWAP3 SWAP2 SWAP1 PUSH2 0x2052 JUMP JUMPDEST PUSH1 0x40 MLOAD DUP1 SWAP2 SUB SWAP1 LOG1 JUMP JUMPDEST PUSH1 0x60 PUSH1 0x1 PUSH0 ADD PUSH0 CALLER PUSH20 0xFFFFFFFFFFFFFFFFFFFFFFFFFFFFFFFFFFFFFFFF AND PUSH20 0xFFFFFFFFFFFFFFFFFFFFFFFFFFFFFFFFFFFFFFFF AND DUP2 MSTORE PUSH1 0x20 ADD SWAP1 DUP2 MSTORE PUSH1 0x20 ADD PUSH0 KECCAK256 PUSH0 ADD PUSH0 SWAP1 SLOAD SWAP1 PUSH2 0x100 EXP SWAP1 DIV PUSH1 0xFF AND PUSH2 0x988 JUMPI PUSH1 0x40 MLOAD PUSH32 0x8C379A000000000000000000000000000000000000000000000000000000000 DUP2 MSTORE PUSH1 0x4 ADD PUSH2 0x97F SWAP1 PUSH2 0x1D38 JUMP JUMPDEST PUSH1 0x40 MLOAD DUP1 SWAP2 SUB SWAP1 REVERT JUMPDEST PUSH0 PUSH1 0x3 DUP1 SLOAD SWAP1 POP SUB PUSH2 0x9CF JUMPI PUSH1 0x40 MLOAD PUSH32 0x8C379A000000000000000000000000000000000000000000000000000000000 DUP2 MSTORE PUSH1 0x4 ADD PUSH2 0x9C6 SWAP1 PUSH2 0x24C8 JUMP JUMPDEST PUSH1 0x40 MLOAD DUP1 SWAP2 SUB SWAP1 REVERT JUMPDEST PUSH1 0x3 DUP1 SLOAD DUP1 PUSH1 0x20 MUL PUSH1 0x20 ADD PUSH1 0x40 MLOAD SWAP1 DUP2 ADD PUSH1 0x40 MSTORE DUP1 SWAP3 SWAP2 SWAP1 DUP2 DUP2 MSTORE PUSH1 0x20 ADD PUSH0 SWAP1 JUMPDEST DUP3 DUP3 LT ISZERO PUSH2 0xAB9 JUMPI DUP4 DUP3 SWAP1 PUSH0 MSTORE PUSH1 0x20 PUSH0 KECCAK256 SWAP1 PUSH1 0x2 MUL ADD PUSH1 0x40 MLOAD DUP1 PUSH1 0x40 ADD PUSH1 0x40 MSTORE SWAP1 DUP2 PUSH0 DUP3 ADD DUP1 SLOAD PUSH2 0xA20 SWAP1 PUSH2 0x213B JUMP JUMPDEST DUP1 PUSH1 0x1F ADD PUSH1 0x20 DUP1 SWAP2 DIV MUL PUSH1 0x20 ADD PUSH1 0x40 MLOAD SWAP1 DUP2 ADD PUSH1 0x40 MSTORE DUP1 SWAP3 SWAP2 SWAP1 DUP2 DUP2 MSTORE PUSH1 0x20 ADD DUP3 DUP1 SLOAD PUSH2 0xA4C SWAP1 PUSH2 0x213B JUMP JUMPDEST DUP1 ISZERO PUSH2 0xA97 JUMPI DUP1 PUSH1 0x1F LT PUSH2 0xA6E JUMPI PUSH2 0x100 DUP1 DUP4 SLOAD DIV MUL DUP4 MSTORE SWAP2 PUSH1 0x20 ADD SWAP2 PUSH2 0xA97 JUMP JUMPDEST DUP3 ADD SWAP2 SWAP1 PUSH0 MSTORE PUSH1 0x20 PUSH0 KECCAK256 SWAP1 JUMPDEST DUP2 SLOAD DUP2 MSTORE SWAP1 PUSH1 0x1 ADD SWAP1 PUSH1 0x20 ADD DUP1 DUP4 GT PUSH2 0xA7A JUMPI DUP3 SWAP1 SUB PUSH1 0x1F AND DUP3 ADD SWAP2 JUMPDEST POP POP POP POP POP DUP2 MSTORE PUSH1 0x20 ADD PUSH1 0x1 DUP3 ADD SLOAD DUP2 MSTORE POP POP DUP2 MSTORE PUSH1 0x20 ADD SWAP1 PUSH1 0x1 ADD SWAP1 PUSH2 0x9F0 JUMP JUMPDEST POP POP POP POP SWAP1 POP SWAP1 JUMP JUMPDEST PUSH2 0xACA PUSH2 0x1657 JUMP JUMPDEST PUSH2 0xAD3 PUSH0 PUSH2 0x16DE JUMP JUMPDEST JUMP JUMPDEST PUSH0 DUP1 PUSH0 SWAP1 SLOAD SWAP1 PUSH2 0x100 EXP SWAP1 DIV PUSH20 0xFFFFFFFFFFFFFFFFFFFFFFFFFFFFFFFFFFFFFFFF AND SWAP1 POP SWAP1 JUMP JUMPDEST PUSH2 0xB04 PUSH2 0x17A6 JUMP JUMPDEST PUSH1 0x5 DUP1 DUP2 GT ISZERO PUSH2 0xB17 JUMPI PUSH2 0xB16 PUSH2 0x1D56 JUMP JUMPDEST JUMPDEST PUSH1 0x4 PUSH0 SWAP1 SLOAD SWAP1 PUSH2 0x100 EXP SWAP1 DIV PUSH1 0xFF AND PUSH1 0x5 DUP2 GT ISZERO PUSH2 0xB38 JUMPI PUSH2 0xB37 PUSH2 0x1D56 JUMP JUMPDEST JUMPDEST EQ PUSH2 0xB78 JUMPI PUSH1 0x40 MLOAD PUSH32 0x8C379A000000000000000000000000000000000000000000000000000000000 DUP2 MSTORE PUSH1 0x4 ADD PUSH2 0xB6F SWAP1 PUSH2 0x2530 JUMP JUMPDEST PUSH1 0x40 MLOAD DUP1 SWAP2 SUB SWAP1 REVERT JUMPDEST PUSH1 0x3 PUSH1 0x5 SLOAD DUP2 SLOAD DUP2 LT PUSH2 0xB8E JUMPI PUSH2 0xB8D PUSH2 0x1EBB JUMP JUMPDEST JUMPDEST SWAP1 PUSH0 MSTORE PUSH1 0x20 PUSH0 KECCAK256 SWAP1 PUSH1 0x2 MUL ADD PUSH1 0x40 MLOAD DUP1 PUSH1 0x40 ADD PUSH1 0x40 MSTORE SWAP1 DUP2 PUSH0 DUP3 ADD DUP1 SLOAD PUSH2 0xBB4 SWAP1 PUSH2 0x213B JUMP JUMPDEST DUP1 PUSH1 0x1F ADD PUSH1 0x20 DUP1 SWAP2 DIV MUL PUSH1 0x20 ADD PUSH1 0x40 MLOAD SWAP1 DUP2 ADD PUSH1 0x40 MSTORE DUP1 SWAP3 SWAP2 SWAP1 DUP2 DUP2 MSTORE PUSH1 0x20 ADD DUP3 DUP1 SLOAD PUSH2 0xBE0 SWAP1 PUSH2 0x213B JUMP JUMPDEST DUP1 ISZERO PUSH2 0xC2B JUMPI DUP1 PUSH1 0x1F LT PUSH2 0xC02 JUMPI PUSH2 0x100 DUP1 DUP4 SLOAD DIV MUL DUP4 MSTORE SWAP2 PUSH1 0x20 ADD SWAP2 PUSH2 0xC2B JUMP JUMPDEST DUP3 ADD SWAP2 SWAP1 PUSH0 MSTORE PUSH1 0x20 PUSH0 KECCAK256 SWAP1 JUMPDEST DUP2 SLOAD DUP2 MSTORE SWAP1 PUSH1 0x1 ADD SWAP1 PUSH1 0x20 ADD DUP1 DUP4 GT PUSH2 0xC0E JUMPI DUP3 SWAP1 SUB PUSH1 0x1F AND DUP3 ADD SWAP2 JUMPDEST POP POP POP POP POP DUP2 MSTORE PUSH1 0x20 ADD PUSH1 0x1 DUP3 ADD SLOAD DUP2 MSTORE POP POP SWAP1 POP SWAP1 JUMP JUMPDEST PUSH2 0xC4B PUSH2 0x1657 JUMP JUMPDEST PUSH1 0x1 PUSH1 0x5 DUP2 GT ISZERO PUSH2 0xC5F JUMPI PUSH2 0xC5E PUSH2 0x1D56 JUMP JUMPDEST JUMPDEST PUSH1 0x4 PUSH0 SWAP1 SLOAD SWAP1 PUSH2 0x100 EXP SWAP1 DIV PUSH1 0xFF AND PUSH1 0x5 DUP2 GT ISZERO PUSH2 0xC80 JUMPI PUSH2 0xC7F PUSH2 0x1D56 JUMP JUMPDEST JUMPDEST EQ PUSH2 0xCC0 JUMPI PUSH1 0x40 MLOAD PUSH32 0x8C379A000000000000000000000000000000000000000000000000000000000 DUP2 MSTORE PUSH1 0x4 ADD PUSH2 0xCB7 SWAP1 PUSH2 0x20C3 JUMP JUMPDEST PUSH1 0x40 MLOAD DUP1 SWAP2 SUB SWAP1 REVERT JUMPDEST PUSH1 0x2 PUSH1 0x4 PUSH0 PUSH2 0x100 EXP DUP2 SLOAD DUP2 PUSH1 0xFF MUL NOT AND SWAP1 DUP4 PUSH1 0x5 DUP2 GT ISZERO PUSH2 0xCE5 JUMPI PUSH2 0xCE4 PUSH2 0x1D56 JUMP JUMPDEST JUMPDEST MUL OR SWAP1 SSTORE POP PUSH32 0xA97A4EE45751E2ABF3E4FC8946939630B11B371EA8AE39CCDC3056E98F5CC3F PUSH1 0x1 PUSH1 0x4 PUSH0 SWAP1 SLOAD SWAP1 PUSH2 0x100 EXP SWAP1 DIV PUSH1 0xFF AND PUSH1 0x40 MLOAD PUSH2 0xD2A SWAP3 SWAP2 SWAP1 PUSH2 0x2052 JUMP JUMPDEST PUSH1 0x40 MLOAD DUP1 SWAP2 SUB SWAP1 LOG1 JUMP JUMPDEST PUSH2 0xD3C PUSH2 0x1657 JUMP JUMPDEST PUSH1 0x4 PUSH1 0x5 DUP2 GT ISZERO PUSH2 0xD50 JUMPI PUSH2 0xD4F PUSH2 0x1D56 JUMP JUMPDEST JUMPDEST PUSH1 0x4 PUSH0 SWAP1 SLOAD SWAP1 PUSH2 0x100 EXP SWAP1 DIV PUSH1 0xFF AND PUSH1 0x5 DUP2 GT ISZERO PUSH2 0xD71 JUMPI PUSH2 0xD70 PUSH2 0x1D56 JUMP JUMPDEST JUMPDEST EQ PUSH2 0xDB1 JUMPI PUSH1 0x40 MLOAD PUSH32 0x8C379A000000000000000000000000000000000000000000000000000000000 DUP2 MSTORE PUSH1 0x4 ADD PUSH2 0xDA8 SWAP1 PUSH2 0x25BE JUMP JUMPDEST PUSH1 0x40 MLOAD DUP1 SWAP2 SUB SWAP1 REVERT JUMPDEST PUSH2 0xDB9 PUSH2 0x17A6 JUMP JUMPDEST PUSH0 JUMPDEST PUSH1 0x3 DUP1 SLOAD SWAP1 POP DUP2 LT ISZERO PUSH2 0xED8 JUMPI PUSH1 0x3 DUP2 DUP2 SLOAD DUP2 LT PUSH2 0xDDC JUMPI PUSH2 0xDDB PUSH2 0x1EBB JUMP JUMPDEST JUMPDEST SWAP1 PUSH0 MSTORE PUSH1 0x20 PUSH0 KECCAK256 SWAP1 PUSH1 0x2 MUL ADD PUSH1 0x1 ADD SLOAD DUP3 PUSH1 0x20 ADD MLOAD LT ISZERO PUSH2 0xEC5 JUMPI PUSH1 0x3 DUP2 DUP2 SLOAD DUP2 LT PUSH2 0xE0B JUMPI PUSH2 0xE0A PUSH2 0x1EBB JUMP JUMPDEST JUMPDEST SWAP1 PUSH0 MSTORE PUSH1 0x20 PUSH0 KECCAK256 SWAP1 PUSH1 0x2 MUL ADD PUSH1 0x40 MLOAD DUP1 PUSH1 0x40 ADD PUSH1 0x40 MSTORE SWAP1 DUP2 PUSH0 DUP3 ADD DUP1 SLOAD PUSH2 0xE31 SWAP1 PUSH2 0x213B JUMP JUMPDEST DUP1 PUSH1 0x1F ADD PUSH1 0x20 DUP1 SWAP2 DIV MUL PUSH1 0x20 ADD PUSH1 0x40 MLOAD SWAP1 DUP2 ADD PUSH1 0x40 MSTORE DUP1 SWAP3 SWAP2 SWAP1 DUP2 DUP2 MSTORE PUSH1 0x20 ADD DUP3 DUP1 SLOAD PUSH2 0xE5D SWAP1 PUSH2 0x213B JUMP JUMPDEST DUP1 ISZERO PUSH2 0xEA8 JUMPI DUP1 PUSH1 0x1F LT PUSH2 0xE7F JUMPI PUSH2 0x100 DUP1 DUP4 SLOAD DIV MUL DUP4 MSTORE SWAP2 PUSH1 0x20 ADD SWAP2 PUSH2 0xEA8 JUMP JUMPDEST DUP3 ADD SWAP2 SWAP1 PUSH0 MSTORE PUSH1 0x20 PUSH0 KECCAK256 SWAP1 JUMPDEST DUP2 SLOAD DUP2 MSTORE SWAP1 PUSH1 0x1 ADD SWAP1 PUSH1 0x20 ADD DUP1 DUP4 GT PUSH2 0xE8B JUMPI DUP3 SWAP1 SUB PUSH1 0x1F AND DUP3 ADD SWAP2 JUMPDEST POP POP POP POP POP DUP2 MSTORE PUSH1 0x20 ADD PUSH1 0x1 DUP3 ADD SLOAD DUP2 MSTORE POP POP SWAP2 POP DUP1 PUSH1 0x5 DUP2 SWAP1 SSTORE POP JUMPDEST DUP1 DUP1 PUSH2 0xED0 SWAP1 PUSH2 0x25DC JUMP JUMPDEST SWAP2 POP POP PUSH2 0xDBB JUMP JUMPDEST POP PUSH1 0x5 PUSH1 0x4 PUSH0 PUSH2 0x100 EXP DUP2 SLOAD DUP2 PUSH1 0xFF MUL NOT AND SWAP1 DUP4 PUSH1 0x5 DUP2 GT ISZERO PUSH2 0xEFE JUMPI PUSH2 0xEFD PUSH2 0x1D56 JUMP JUMPDEST JUMPDEST MUL OR SWAP1 SSTORE POP PUSH32 0xA97A4EE45751E2ABF3E4FC8946939630B11B371EA8AE39CCDC3056E98F5CC3F PUSH1 0x4 DUP1 PUSH0 SWAP1 SLOAD SWAP1 PUSH2 0x100 EXP SWAP1 DIV PUSH1 0xFF AND PUSH1 0x40 MLOAD PUSH2 0xF42 SWAP3 SWAP2 SWAP1 PUSH2 0x2052 JUMP JUMPDEST PUSH1 0x40 MLOAD DUP1 SWAP2 SUB SWAP1 LOG1 POP JUMP JUMPDEST PUSH2 0xF55 PUSH2 0x17BF JUMP JUMPDEST PUSH1 0x1 PUSH0 ADD PUSH0 CALLER PUSH20 0xFFFFFFFFFFFFFFFFFFFFFFFFFFFFFFFFFFFFFFFF AND PUSH20 0xFFFFFFFFFFFFFFFFFFFFFFFFFFFFFFFFFFFFFFFF AND DUP2 MSTORE PUSH1 0x20 ADD SWAP1 DUP2 MSTORE PUSH1 0x20 ADD PUSH0 KECCAK256 PUSH0 ADD PUSH0 SWAP1 SLOAD SWAP1 PUSH2 0x100 EXP SWAP1 DIV PUSH1 0xFF AND PUSH2 0xFE2 JUMPI PUSH1 0x40 MLOAD PUSH32 0x8C379A000000000000000000000000000000000000000000000000000000000 DUP2 MSTORE PUSH1 0x4 ADD PUSH2 0xFD9 SWAP1 PUSH2 0x1D38 JUMP JUMPDEST PUSH1 0x40 MLOAD DUP1 SWAP2 SUB SWAP1 REVERT JUMPDEST PUSH1 0x1 PUSH0 ADD PUSH0 CALLER PUSH20 0xFFFFFFFFFFFFFFFFFFFFFFFFFFFFFFFFFFFFFFFF AND PUSH20 0xFFFFFFFFFFFFFFFFFFFFFFFFFFFFFFFFFFFFFFFF AND DUP2 MSTORE PUSH1 0x20 ADD SWAP1 DUP2 MSTORE PUSH1 0x20 ADD PUSH0 KECCAK256 PUSH0 ADD PUSH1 0x1 SWAP1 SLOAD SWAP1 PUSH2 0x100 EXP SWAP1 DIV PUSH1 0xFF AND PUSH2 0x1070 JUMPI PUSH1 0x40 MLOAD PUSH32 0x8C379A000000000000000000000000000000000000000000000000000000000 DUP2 MSTORE PUSH1 0x4 ADD PUSH2 0x1067 SWAP1 PUSH2 0x266D JUMP JUMPDEST PUSH1 0x40 MLOAD DUP1 SWAP2 SUB SWAP1 REVERT JUMPDEST PUSH1 0x1 PUSH0 ADD PUSH0 DUP4 PUSH20 0xFFFFFFFFFFFFFFFFFFFFFFFFFFFFFFFFFFFFFFFF AND PUSH20 0xFFFFFFFFFFFFFFFFFFFFFFFFFFFFFFFFFFFFFFFF AND DUP2 MSTORE PUSH1 0x20 ADD SWAP1 DUP2 MSTORE PUSH1 0x20 ADD PUSH0 KECCAK256 PUSH1 0x40 MLOAD DUP1 PUSH1 0x60 ADD PUSH1 0x40 MSTORE SWAP1 DUP2 PUSH0 DUP3 ADD PUSH0 SWAP1 SLOAD SWAP1 PUSH2 0x100 EXP SWAP1 DIV PUSH1 0xFF AND ISZERO ISZERO ISZERO ISZERO DUP2 MSTORE PUSH1 0x20 ADD PUSH0 DUP3 ADD PUSH1 0x1 SWAP1 SLOAD SWAP1 PUSH2 0x100 EXP SWAP1 DIV PUSH1 0xFF AND ISZERO ISZERO ISZERO ISZERO DUP2 MSTORE PUSH1 0x20 ADD PUSH1 0x1 DUP3 ADD SLOAD DUP2 MSTORE POP POP SWAP1 POP SWAP2 SWAP1 POP JUMP JUMPDEST PUSH2 0x1106 PUSH2 0x1657 JUMP JUMPDEST PUSH1 0x3 PUSH1 0x5 DUP2 GT ISZERO PUSH2 0x111A JUMPI PUSH2 0x1119 PUSH2 0x1D56 JUMP JUMPDEST JUMPDEST PUSH1 0x4 PUSH0 SWAP1 SLOAD SWAP1 PUSH2 0x100 EXP SWAP1 DIV PUSH1 0xFF AND PUSH1 0x5 DUP2 GT ISZERO PUSH2 0x113B JUMPI PUSH2 0x113A PUSH2 0x1D56 JUMP JUMPDEST JUMPDEST EQ PUSH2 0x117B JUMPI PUSH1 0x40 MLOAD PUSH32 0x8C379A000000000000000000000000000000000000000000000000000000000 DUP2 MSTORE PUSH1 0x4 ADD PUSH2 0x1172 SWAP1 PUSH2 0x1DCD JUMP JUMPDEST PUSH1 0x40 MLOAD DUP1 SWAP2 SUB SWAP1 REVERT JUMPDEST PUSH1 0x4 DUP1 PUSH0 PUSH2 0x100 EXP DUP2 SLOAD DUP2 PUSH1 0xFF MUL NOT AND SWAP1 DUP4 PUSH1 0x5 DUP2 GT ISZERO PUSH2 0x119F JUMPI PUSH2 0x119E PUSH2 0x1D56 JUMP JUMPDEST JUMPDEST MUL OR SWAP1 SSTORE POP PUSH32 0xA97A4EE45751E2ABF3E4FC8946939630B11B371EA8AE39CCDC3056E98F5CC3F PUSH1 0x4 DUP1 PUSH0 SWAP1 SLOAD SWAP1 PUSH2 0x100 EXP SWAP1 DIV PUSH1 0xFF AND PUSH1 0x40 MLOAD PUSH2 0x11E3 SWAP3 SWAP2 SWAP1 PUSH2 0x2052 JUMP JUMPDEST PUSH1 0x40 MLOAD DUP1 SWAP2 SUB SWAP1 LOG1 JUMP JUMPDEST PUSH2 0x11F5 PUSH2 0x1657 JUMP JUMPDEST PUSH0 PUSH20 0xFFFFFFFFFFFFFFFFFFFFFFFFFFFFFFFFFFFFFFFF AND DUP2 PUSH20 0xFFFFFFFFFFFFFFFFFFFFFFFFFFFFFFFFFFFFFFFF AND SUB PUSH2 0x1265 JUMPI PUSH0 PUSH1 0x40 MLOAD PUSH32 0x1E4FBDF700000000000000000000000000000000000000000000000000000000 DUP2 MSTORE PUSH1 0x4 ADD PUSH2 0x125C SWAP2 SWAP1 PUSH2 0x1BA3 JUMP JUMPDEST PUSH1 0x40 MLOAD DUP1 SWAP2 SUB SWAP1 REVERT JUMPDEST PUSH2 0x126E DUP2 PUSH2 0x16DE JUMP JUMPDEST POP JUMP JUMPDEST PUSH2 0x1279 PUSH2 0x1657 JUMP JUMPDEST PUSH0 PUSH1 0x5 DUP2 GT ISZERO PUSH2 0x128C JUMPI PUSH2 0x128B PUSH2 0x1D56 JUMP JUMPDEST JUMPDEST PUSH1 0x4 PUSH0 SWAP1 SLOAD SWAP1 PUSH2 0x100 EXP SWAP1 DIV PUSH1 0xFF AND PUSH1 0x5 DUP2 GT ISZERO PUSH2 0x12AD JUMPI PUSH2 0x12AC PUSH2 0x1D56 JUMP JUMPDEST JUMPDEST EQ PUSH2 0x12ED JUMPI PUSH1 0x40 MLOAD PUSH32 0x8C379A000000000000000000000000000000000000000000000000000000000 DUP2 MSTORE PUSH1 0x4 ADD PUSH2 0x12E4 SWAP1 PUSH2 0x26D5 JUMP JUMPDEST PUSH1 0x40 MLOAD DUP1 SWAP2 SUB SWAP1 REVERT JUMPDEST PUSH1 0x1 PUSH0 ADD PUSH0 DUP3 PUSH20 0xFFFFFFFFFFFFFFFFFFFFFFFFFFFFFFFFFFFFFFFF AND PUSH20 0xFFFFFFFFFFFFFFFFFFFFFFFFFFFFFFFFFFFFFFFF AND DUP2 MSTORE PUSH1 0x20 ADD SWAP1 DUP2 MSTORE PUSH1 0x20 ADD PUSH0 KECCAK256 PUSH0 ADD PUSH0 SWAP1 SLOAD SWAP1 PUSH2 0x100 EXP SWAP1 DIV PUSH1 0xFF AND ISZERO PUSH2 0x137B JUMPI PUSH1 0x40 MLOAD PUSH32 0x8C379A000000000000000000000000000000000000000000000000000000000 DUP2 MSTORE PUSH1 0x4 ADD PUSH2 0x1372 SWAP1 PUSH2 0x2763 JUMP JUMPDEST PUSH1 0x40 MLOAD DUP1 SWAP2 SUB SWAP1 REVERT JUMPDEST PUSH1 0x40 MLOAD DUP1 PUSH1 0x60 ADD PUSH1 0x40 MSTORE DUP1 PUSH1 0x1 ISZERO ISZERO DUP2 MSTORE PUSH1 0x20 ADD PUSH0 ISZERO ISZERO DUP2 MSTORE PUSH1 0x20 ADD PUSH0 DUP2 MSTORE POP PUSH1 0x1 PUSH0 ADD PUSH0 DUP4 PUSH20 0xFFFFFFFFFFFFFFFFFFFFFFFFFFFFFFFFFFFFFFFF AND PUSH20 0xFFFFFFFFFFFFFFFFFFFFFFFFFFFFFFFFFFFFFFFF AND DUP2 MSTORE PUSH1 0x20 ADD SWAP1 DUP2 MSTORE PUSH1 0x20 ADD PUSH0 KECCAK256 PUSH0 DUP3 ADD MLOAD DUP2 PUSH0 ADD PUSH0 PUSH2 0x100 EXP DUP2 SLOAD DUP2 PUSH1 0xFF MUL NOT AND SWAP1 DUP4 ISZERO ISZERO MUL OR SWAP1 SSTORE POP PUSH1 0x20 DUP3 ADD MLOAD DUP2 PUSH0 ADD PUSH1 0x1 PUSH2 0x100 EXP DUP2 SLOAD DUP2 PUSH1 0xFF MUL NOT AND SWAP1 DUP4 ISZERO ISZERO MUL OR SWAP1 SSTORE POP PUSH1 0x40 DUP3 ADD MLOAD DUP2 PUSH1 0x1 ADD SSTORE SWAP1 POP POP PUSH1 0x1 DUP1 ADD DUP2 SWAP1 DUP1 PUSH1 0x1 DUP2 SLOAD ADD DUP1 DUP3 SSTORE DUP1 SWAP2 POP POP PUSH1 0x1 SWAP1 SUB SWAP1 PUSH0 MSTORE PUSH1 0x20 PUSH0 KECCAK256 ADD PUSH0 SWAP1 SWAP2 SWAP1 SWAP2 SWAP1 SWAP2 PUSH2 0x100 EXP DUP2 SLOAD DUP2 PUSH20 0xFFFFFFFFFFFFFFFFFFFFFFFFFFFFFFFFFFFFFFFF MUL NOT AND SWAP1 DUP4 PUSH20 0xFFFFFFFFFFFFFFFFFFFFFFFFFFFFFFFFFFFFFFFF AND MUL OR SWAP1 SSTORE POP PUSH32 0xB6BE2187D059CC2A55FE29E0E503B566E1E0F8C8780096E185429350ACFFD3DD DUP2 PUSH1 0x40 MLOAD PUSH2 0x14B4 SWAP2 SWAP1 PUSH2 0x1BA3 JUMP JUMPDEST PUSH1 0x40 MLOAD DUP1 SWAP2 SUB SWAP1 LOG1 POP JUMP JUMPDEST PUSH2 0x14C7 PUSH2 0x1657 JUMP JUMPDEST PUSH1 0x5 DUP1 DUP2 GT ISZERO PUSH2 0x14DA JUMPI PUSH2 0x14D9 PUSH2 0x1D56 JUMP JUMPDEST JUMPDEST PUSH1 0x4 PUSH0 SWAP1 SLOAD SWAP1 PUSH2 0x100 EXP SWAP1 DIV PUSH1 0xFF AND PUSH1 0x5 DUP2 GT ISZERO PUSH2 0x14FB JUMPI PUSH2 0x14FA PUSH2 0x1D56 JUMP JUMPDEST JUMPDEST EQ PUSH2 0x153B JUMPI PUSH1 0x40 MLOAD PUSH32 0x8C379A000000000000000000000000000000000000000000000000000000000 DUP2 MSTORE PUSH1 0x4 ADD PUSH2 0x1532 SWAP1 PUSH2 0x2530 JUMP JUMPDEST PUSH1 0x40 MLOAD DUP1 SWAP2 SUB SWAP1 REVERT JUMPDEST PUSH0 PUSH1 0x4 PUSH0 PUSH2 0x100 EXP DUP2 SLOAD DUP2 PUSH1 0xFF MUL NOT AND SWAP1 DUP4 PUSH1 0x5 DUP2 GT ISZERO PUSH2 0x155F JUMPI PUSH2 0x155E PUSH2 0x1D56 JUMP JUMPDEST JUMPDEST MUL OR SWAP1 SSTORE POP PUSH1 0x3 PUSH0 PUSH2 0x1571 SWAP2 SWAP1 PUSH2 0x17E1 JUMP JUMPDEST PUSH1 0x5 PUSH0 SWAP1 SSTORE PUSH0 JUMPDEST PUSH1 0x1 DUP1 ADD DUP1 SLOAD SWAP1 POP DUP2 LT ISZERO PUSH2 0x1645 JUMPI PUSH1 0x1 PUSH0 ADD PUSH0 PUSH1 0x1 DUP1 ADD DUP4 DUP2 SLOAD DUP2 LT PUSH2 0x15A2 JUMPI PUSH2 0x15A1 PUSH2 0x1EBB JUMP JUMPDEST JUMPDEST SWAP1 PUSH0 MSTORE PUSH1 0x20 PUSH0 KECCAK256 ADD PUSH0 SWAP1 SLOAD SWAP1 PUSH2 0x100 EXP SWAP1 DIV PUSH20 0xFFFFFFFFFFFFFFFFFFFFFFFFFFFFFFFFFFFFFFFF AND PUSH20 0xFFFFFFFFFFFFFFFFFFFFFFFFFFFFFFFFFFFFFFFF AND PUSH20 0xFFFFFFFFFFFFFFFFFFFFFFFFFFFFFFFFFFFFFFFF AND DUP2 MSTORE PUSH1 0x20 ADD SWAP1 DUP2 MSTORE PUSH1 0x20 ADD PUSH0 KECCAK256 PUSH0 DUP1 DUP3 ADD PUSH0 PUSH2 0x100 EXP DUP2 SLOAD SWAP1 PUSH1 0xFF MUL NOT AND SWAP1 SSTORE PUSH0 DUP3 ADD PUSH1 0x1 PUSH2 0x100 EXP DUP2 SLOAD SWAP1 PUSH1 0xFF MUL NOT AND SWAP1 SSTORE PUSH1 0x1 DUP3 ADD PUSH0 SWAP1 SSTORE POP POP DUP1 DUP1 PUSH2 0x163D SWAP1 PUSH2 0x25DC JUMP JUMPDEST SWAP2 POP POP PUSH2 0x1578 JUMP JUMPDEST POP PUSH1 0x1 DUP1 ADD PUSH0 PUSH2 0x1655 SWAP2 SWAP1 PUSH2 0x1802 JUMP JUMPDEST JUMP JUMPDEST PUSH2 0x165F PUSH2 0x179F JUMP JUMPDEST PUSH20 0xFFFFFFFFFFFFFFFFFFFFFFFFFFFFFFFFFFFFFFFF AND PUSH2 0x167D PUSH2 0xAD5 JUMP JUMPDEST PUSH20 0xFFFFFFFFFFFFFFFFFFFFFFFFFFFFFFFFFFFFFFFF AND EQ PUSH2 0x16DC JUMPI PUSH2 0x16A0 PUSH2 0x179F JUMP JUMPDEST PUSH1 0x40 MLOAD PUSH32 0x118CDAA700000000000000000000000000000000000000000000000000000000 DUP2 MSTORE PUSH1 0x4 ADD PUSH2 0x16D3 SWAP2 SWAP1 PUSH2 0x1BA3 JUMP JUMPDEST PUSH1 0x40 MLOAD DUP1 SWAP2 SUB SWAP1 REVERT JUMPDEST JUMP JUMPDEST PUSH0 DUP1 PUSH0 SWAP1 SLOAD SWAP1 PUSH2 0x100 EXP SWAP1 DIV PUSH20 0xFFFFFFFFFFFFFFFFFFFFFFFFFFFFFFFFFFFFFFFF AND SWAP1 POP DUP2 PUSH0 DUP1 PUSH2 0x100 EXP DUP2 SLOAD DUP2 PUSH20 0xFFFFFFFFFFFFFFFFFFFFFFFFFFFFFFFFFFFFFFFF MUL NOT AND SWAP1 DUP4 PUSH20 0xFFFFFFFFFFFFFFFFFFFFFFFFFFFFFFFFFFFFFFFF AND MUL OR SWAP1 SSTORE POP DUP2 PUSH20 0xFFFFFFFFFFFFFFFFFFFFFFFFFFFFFFFFFFFFFFFF AND DUP2 PUSH20 0xFFFFFFFFFFFFFFFFFFFFFFFFFFFFFFFFFFFFFFFF AND PUSH32 0x8BE0079C531659141344CD1FD0A4F28419497F9722A3DAAFE3B4186F6B6457E0 PUSH1 0x40 MLOAD PUSH1 0x40 MLOAD DUP1 SWAP2 SUB SWAP1 LOG3 POP POP JUMP JUMPDEST PUSH0 CALLER SWAP1 POP SWAP1 JUMP JUMPDEST PUSH1 0x40 MLOAD DUP1 PUSH1 0x40 ADD PUSH1 0x40 MSTORE DUP1 PUSH1 0x60 DUP2 MSTORE PUSH1 0x20 ADD PUSH0 DUP2 MSTORE POP SWAP1 JUMP JUMPDEST PUSH1 0x40 MLOAD DUP1 PUSH1 0x60 ADD PUSH1 0x40 MSTORE DUP1 PUSH0 ISZERO ISZERO DUP2 MSTORE PUSH1 0x20 ADD PUSH0 ISZERO ISZERO DUP2 MSTORE PUSH1 0x20 ADD PUSH0 DUP2 MSTORE POP SWAP1 JUMP JUMPDEST POP DUP1 SLOAD PUSH0 DUP3 SSTORE PUSH1 0x2 MUL SWAP1 PUSH0 MSTORE PUSH1 0x20 PUSH0 KECCAK256 SWAP1 DUP2 ADD SWAP1 PUSH2 0x17FF SWAP2 SWAP1 PUSH2 0x1820 JUMP JUMPDEST POP JUMP JUMPDEST POP DUP1 SLOAD PUSH0 DUP3 SSTORE SWAP1 PUSH0 MSTORE PUSH1 0x20 PUSH0 KECCAK256 SWAP1 DUP2 ADD SWAP1 PUSH2 0x181D SWAP2 SWAP1 PUSH2 0x184C JUMP JUMPDEST POP JUMP JUMPDEST JUMPDEST DUP1 DUP3 GT ISZERO PUSH2 0x1848 JUMPI PUSH0 DUP1 DUP3 ADD PUSH0 PUSH2 0x1838 SWAP2 SWAP1 PUSH2 0x1867 JUMP JUMPDEST PUSH1 0x1 DUP3 ADD PUSH0 SWAP1 SSTORE POP PUSH1 0x2 ADD PUSH2 0x1821 JUMP JUMPDEST POP SWAP1 JUMP JUMPDEST JUMPDEST DUP1 DUP3 GT ISZERO PUSH2 0x1863 JUMPI PUSH0 DUP2 PUSH0 SWAP1 SSTORE POP PUSH1 0x1 ADD PUSH2 0x184D JUMP JUMPDEST POP SWAP1 JUMP JUMPDEST POP DUP1 SLOAD PUSH2 0x1873 SWAP1 PUSH2 0x213B JUMP JUMPDEST PUSH0 DUP3 SSTORE DUP1 PUSH1 0x1F LT PUSH2 0x1884 JUMPI POP PUSH2 0x18A1 JUMP JUMPDEST PUSH1 0x1F ADD PUSH1 0x20 SWAP1 DIV SWAP1 PUSH0 MSTORE PUSH1 0x20 PUSH0 KECCAK256 SWAP1 DUP2 ADD SWAP1 PUSH2 0x18A0 SWAP2 SWAP1 PUSH2 0x184C JUMP JUMPDEST JUMPDEST POP JUMP JUMPDEST PUSH0 DUP1 REVERT JUMPDEST PUSH0 DUP1 REVERT JUMPDEST PUSH0 DUP2 SWAP1 POP SWAP2 SWAP1 POP JUMP JUMPDEST PUSH2 0x18BE DUP2 PUSH2 0x18AC JUMP JUMPDEST DUP2 EQ PUSH2 0x18C8 JUMPI PUSH0 DUP1 REVERT JUMPDEST POP JUMP JUMPDEST PUSH0 DUP2 CALLDATALOAD SWAP1 POP PUSH2 0x18D9 DUP2 PUSH2 0x18B5 JUMP JUMPDEST SWAP3 SWAP2 POP POP JUMP JUMPDEST PUSH0 PUSH1 0x20 DUP3 DUP5 SUB SLT ISZERO PUSH2 0x18F4 JUMPI PUSH2 0x18F3 PUSH2 0x18A4 JUMP JUMPDEST JUMPDEST PUSH0 PUSH2 0x1901 DUP5 DUP3 DUP6 ADD PUSH2 0x18CB JUMP JUMPDEST SWAP2 POP POP SWAP3 SWAP2 POP POP JUMP JUMPDEST PUSH0 DUP1 REVERT JUMPDEST PUSH0 DUP1 REVERT JUMPDEST PUSH0 DUP1 REVERT JUMPDEST PUSH0 DUP1 DUP4 PUSH1 0x1F DUP5 ADD SLT PUSH2 0x192B JUMPI PUSH2 0x192A PUSH2 0x190A JUMP JUMPDEST JUMPDEST DUP3 CALLDATALOAD SWAP1 POP PUSH8 0xFFFFFFFFFFFFFFFF DUP2 GT ISZERO PUSH2 0x1948 JUMPI PUSH2 0x1947 PUSH2 0x190E JUMP JUMPDEST JUMPDEST PUSH1 0x20 DUP4 ADD SWAP2 POP DUP4 PUSH1 0x1 DUP3 MUL DUP4 ADD GT ISZERO PUSH2 0x1964 JUMPI PUSH2 0x1963 PUSH2 0x1912 JUMP JUMPDEST JUMPDEST SWAP3 POP SWAP3 SWAP1 POP JUMP JUMPDEST PUSH0 DUP1 PUSH1 0x20 DUP4 DUP6 SUB SLT ISZERO PUSH2 0x1981 JUMPI PUSH2 0x1980 PUSH2 0x18A4 JUMP JUMPDEST JUMPDEST PUSH0 DUP4 ADD CALLDATALOAD PUSH8 0xFFFFFFFFFFFFFFFF DUP2 GT ISZERO PUSH2 0x199E JUMPI PUSH2 0x199D PUSH2 0x18A8 JUMP JUMPDEST JUMPDEST PUSH2 0x19AA DUP6 DUP3 DUP7 ADD PUSH2 0x1916 JUMP JUMPDEST SWAP3 POP SWAP3 POP POP SWAP3 POP SWAP3 SWAP1 POP JUMP JUMPDEST PUSH0 DUP2 MLOAD SWAP1 POP SWAP2 SWAP1 POP JUMP JUMPDEST PUSH0 DUP3 DUP3 MSTORE PUSH1 0x20 DUP3 ADD SWAP1 POP SWAP3 SWAP2 POP POP JUMP JUMPDEST PUSH0 DUP2 SWAP1 POP PUSH1 0x20 DUP3 ADD SWAP1 POP SWAP2 SWAP1 POP JUMP JUMPDEST PUSH0 DUP2 MLOAD SWAP1 POP SWAP2 SWAP1 POP JUMP JUMPDEST PUSH0 DUP3 DUP3 MSTORE PUSH1 0x20 DUP3 ADD SWAP1 POP SWAP3 SWAP2 POP POP JUMP JUMPDEST PUSH0 JUMPDEST DUP4 DUP2 LT ISZERO PUSH2 0x1A16 JUMPI DUP1 DUP3 ADD MLOAD DUP2 DUP5 ADD MSTORE PUSH1 0x20 DUP2 ADD SWAP1 POP PUSH2 0x19FB JUMP JUMPDEST PUSH0 DUP5 DUP5 ADD MSTORE POP POP POP POP JUMP JUMPDEST PUSH0 PUSH1 0x1F NOT PUSH1 0x1F DUP4 ADD AND SWAP1 POP SWAP2 SWAP1 POP JUMP JUMPDEST PUSH0 PUSH2 0x1A3B DUP3 PUSH2 0x19DF JUMP JUMPDEST PUSH2 0x1A45 DUP2 DUP6 PUSH2 0x19E9 JUMP JUMPDEST SWAP4 POP PUSH2 0x1A55 DUP2 DUP6 PUSH1 0x20 DUP7 ADD PUSH2 0x19F9 JUMP JUMPDEST PUSH2 0x1A5E DUP2 PUSH2 0x1A21 JUMP JUMPDEST DUP5 ADD SWAP2 POP POP SWAP3 SWAP2 POP POP JUMP JUMPDEST PUSH2 0x1A72 DUP2 PUSH2 0x18AC JUMP JUMPDEST DUP3 MSTORE POP POP JUMP JUMPDEST PUSH0 PUSH1 0x40 DUP4 ADD PUSH0 DUP4 ADD MLOAD DUP5 DUP3 SUB PUSH0 DUP7 ADD MSTORE PUSH2 0x1A92 DUP3 DUP3 PUSH2 0x1A31 JUMP JUMPDEST SWAP2 POP POP PUSH1 0x20 DUP4 ADD MLOAD PUSH2 0x1AA7 PUSH1 0x20 DUP7 ADD DUP3 PUSH2 0x1A69 JUMP JUMPDEST POP DUP1 SWAP2 POP POP SWAP3 SWAP2 POP POP JUMP JUMPDEST PUSH0 PUSH2 0x1ABD DUP4 DUP4 PUSH2 0x1A78 JUMP JUMPDEST SWAP1 POP SWAP3 SWAP2 POP POP JUMP JUMPDEST PUSH0 PUSH1 0x20 DUP3 ADD SWAP1 POP SWAP2 SWAP1 POP JUMP JUMPDEST PUSH0 PUSH2 0x1ADB DUP3 PUSH2 0x19B6 JUMP JUMPDEST PUSH2 0x1AE5 DUP2 DUP6 PUSH2 0x19C0 JUMP JUMPDEST SWAP4 POP DUP4 PUSH1 0x20 DUP3 MUL DUP6 ADD PUSH2 0x1AF7 DUP6 PUSH2 0x19D0 JUMP JUMPDEST DUP1 PUSH0 JUMPDEST DUP6 DUP2 LT ISZERO PUSH2 0x1B32 JUMPI DUP5 DUP5 SUB DUP10 MSTORE DUP2 MLOAD PUSH2 0x1B13 DUP6 DUP3 PUSH2 0x1AB2 JUMP JUMPDEST SWAP5 POP PUSH2 0x1B1E DUP4 PUSH2 0x1AC5 JUMP JUMPDEST SWAP3 POP PUSH1 0x20 DUP11 ADD SWAP10 POP POP PUSH1 0x1 DUP2 ADD SWAP1 POP PUSH2 0x1AFA JUMP JUMPDEST POP DUP3 SWAP8 POP DUP8 SWAP6 POP POP POP POP POP POP SWAP3 SWAP2 POP POP JUMP JUMPDEST PUSH0 PUSH1 0x20 DUP3 ADD SWAP1 POP DUP2 DUP2 SUB PUSH0 DUP4 ADD MSTORE PUSH2 0x1B5C DUP2 DUP5 PUSH2 0x1AD1 JUMP JUMPDEST SWAP1 POP SWAP3 SWAP2 POP POP JUMP JUMPDEST PUSH0 PUSH20 0xFFFFFFFFFFFFFFFFFFFFFFFFFFFFFFFFFFFFFFFF DUP3 AND SWAP1 POP SWAP2 SWAP1 POP JUMP JUMPDEST PUSH0 PUSH2 0x1B8D DUP3 PUSH2 0x1B64 JUMP JUMPDEST SWAP1 POP SWAP2 SWAP1 POP JUMP JUMPDEST PUSH2 0x1B9D DUP2 PUSH2 0x1B83 JUMP JUMPDEST DUP3 MSTORE POP POP JUMP JUMPDEST PUSH0 PUSH1 0x20 DUP3 ADD SWAP1 POP PUSH2 0x1BB6 PUSH0 DUP4 ADD DUP5 PUSH2 0x1B94 JUMP JUMPDEST SWAP3 SWAP2 POP POP JUMP JUMPDEST PUSH0 PUSH1 0x40 DUP4 ADD PUSH0 DUP4 ADD MLOAD DUP5 DUP3 SUB PUSH0 DUP7 ADD MSTORE PUSH2 0x1BD6 DUP3 DUP3 PUSH2 0x1A31 JUMP JUMPDEST SWAP2 POP POP PUSH1 0x20 DUP4 ADD MLOAD PUSH2 0x1BEB PUSH1 0x20 DUP7 ADD DUP3 PUSH2 0x1A69 JUMP JUMPDEST POP DUP1 SWAP2 POP POP SWAP3 SWAP2 POP POP JUMP JUMPDEST PUSH0 PUSH1 0x20 DUP3 ADD SWAP1 POP DUP2 DUP2 SUB PUSH0 DUP4 ADD MSTORE PUSH2 0x1C0E DUP2 DUP5 PUSH2 0x1BBC JUMP JUMPDEST SWAP1 POP SWAP3 SWAP2 POP POP JUMP JUMPDEST PUSH2 0x1C1F DUP2 PUSH2 0x1B83 JUMP JUMPDEST DUP2 EQ PUSH2 0x1C29 JUMPI PUSH0 DUP1 REVERT JUMPDEST POP JUMP JUMPDEST PUSH0 DUP2 CALLDATALOAD SWAP1 POP PUSH2 0x1C3A DUP2 PUSH2 0x1C16 JUMP JUMPDEST SWAP3 SWAP2 POP POP JUMP JUMPDEST PUSH0 PUSH1 0x20 DUP3 DUP5 SUB SLT ISZERO PUSH2 0x1C55 JUMPI PUSH2 0x1C54 PUSH2 0x18A4 JUMP JUMPDEST JUMPDEST PUSH0 PUSH2 0x1C62 DUP5 DUP3 DUP6 ADD PUSH2 0x1C2C JUMP JUMPDEST SWAP2 POP POP SWAP3 SWAP2 POP POP JUMP JUMPDEST PUSH0 DUP2 ISZERO ISZERO SWAP1 POP SWAP2 SWAP1 POP JUMP JUMPDEST PUSH2 0x1C7F DUP2 PUSH2 0x1C6B JUMP JUMPDEST DUP3 MSTORE POP POP JUMP JUMPDEST PUSH1 0x60 DUP3 ADD PUSH0 DUP3 ADD MLOAD PUSH2 0x1C99 PUSH0 DUP6 ADD DUP3 PUSH2 0x1C76 JUMP JUMPDEST POP PUSH1 0x20 DUP3 ADD MLOAD PUSH2 0x1CAC PUSH1 0x20 DUP6 ADD DUP3 PUSH2 0x1C76 JUMP JUMPDEST POP PUSH1 0x40 DUP3 ADD MLOAD PUSH2 0x1CBF PUSH1 0x40 DUP6 ADD DUP3 PUSH2 0x1A69 JUMP JUMPDEST POP POP POP POP JUMP JUMPDEST PUSH0 PUSH1 0x60 DUP3 ADD SWAP1 POP PUSH2 0x1CD8 PUSH0 DUP4 ADD DUP5 PUSH2 0x1C85 JUMP JUMPDEST SWAP3 SWAP2 POP POP JUMP JUMPDEST PUSH0 DUP3 DUP3 MSTORE PUSH1 0x20 DUP3 ADD SWAP1 POP SWAP3 SWAP2 POP POP JUMP JUMPDEST PUSH32 0x596F757220617265206E6F74207265676973746572656420696E206C69737400 PUSH0 DUP3 ADD MSTORE POP JUMP JUMPDEST PUSH0 PUSH2 0x1D22 PUSH1 0x1F DUP4 PUSH2 0x1CDE JUMP JUMPDEST SWAP2 POP PUSH2 0x1D2D DUP3 PUSH2 0x1CEE JUMP JUMPDEST PUSH1 0x20 DUP3 ADD SWAP1 POP SWAP2 SWAP1 POP JUMP JUMPDEST PUSH0 PUSH1 0x20 DUP3 ADD SWAP1 POP DUP2 DUP2 SUB PUSH0 DUP4 ADD MSTORE PUSH2 0x1D4F DUP2 PUSH2 0x1D16 JUMP JUMPDEST SWAP1 POP SWAP2 SWAP1 POP JUMP JUMPDEST PUSH32 0x4E487B7100000000000000000000000000000000000000000000000000000000 PUSH0 MSTORE PUSH1 0x21 PUSH1 0x4 MSTORE PUSH1 0x24 PUSH0 REVERT JUMPDEST PUSH32 0x4974206D75737420626520766F74696E672073657373696F6E00000000000000 PUSH0 DUP3 ADD MSTORE POP JUMP JUMPDEST PUSH0 PUSH2 0x1DB7 PUSH1 0x19 DUP4 PUSH2 0x1CDE JUMP JUMPDEST SWAP2 POP PUSH2 0x1DC2 DUP3 PUSH2 0x1D83 JUMP JUMPDEST PUSH1 0x20 DUP3 ADD SWAP1 POP SWAP2 SWAP1 POP JUMP JUMPDEST PUSH0 PUSH1 0x20 DUP3 ADD SWAP1 POP DUP2 DUP2 SUB PUSH0 DUP4 ADD MSTORE PUSH2 0x1DE4 DUP2 PUSH2 0x1DAB JUMP JUMPDEST SWAP1 POP SWAP2 SWAP1 POP JUMP JUMPDEST PUSH32 0x596F75206861766520616C726561647920766F74656400000000000000000000 PUSH0 DUP3 ADD MSTORE POP JUMP JUMPDEST PUSH0 PUSH2 0x1E1F PUSH1 0x16 DUP4 PUSH2 0x1CDE JUMP JUMPDEST SWAP2 POP PUSH2 0x1E2A DUP3 PUSH2 0x1DEB JUMP JUMPDEST PUSH1 0x20 DUP3 ADD SWAP1 POP SWAP2 SWAP1 POP JUMP JUMPDEST PUSH0 PUSH1 0x20 DUP3 ADD SWAP1 POP DUP2 DUP2 SUB PUSH0 DUP4 ADD MSTORE PUSH2 0x1E4C DUP2 PUSH2 0x1E13 JUMP JUMPDEST SWAP1 POP SWAP2 SWAP1 POP JUMP JUMPDEST PUSH32 0x546869732070726F706F73616C20646F65736E27742065786973740000000000 PUSH0 DUP3 ADD MSTORE POP JUMP JUMPDEST PUSH0 PUSH2 0x1E87 PUSH1 0x1B DUP4 PUSH2 0x1CDE JUMP JUMPDEST SWAP2 POP PUSH2 0x1E92 DUP3 PUSH2 0x1E53 JUMP JUMPDEST PUSH1 0x20 DUP3 ADD SWAP1 POP SWAP2 SWAP1 POP JUMP JUMPDEST PUSH0 PUSH1 0x20 DUP3 ADD SWAP1 POP DUP2 DUP2 SUB PUSH0 DUP4 ADD MSTORE PUSH2 0x1EB4 DUP2 PUSH2 0x1E7B JUMP JUMPDEST SWAP1 POP SWAP2 SWAP1 POP JUMP JUMPDEST PUSH32 0x4E487B7100000000000000000000000000000000000000000000000000000000 PUSH0 MSTORE PUSH1 0x32 PUSH1 0x4 MSTORE PUSH1 0x24 PUSH0 REVERT JUMPDEST PUSH32 0x4E487B7100000000000000000000000000000000000000000000000000000000 PUSH0 MSTORE PUSH1 0x11 PUSH1 0x4 MSTORE PUSH1 0x24 PUSH0 REVERT JUMPDEST PUSH0 PUSH2 0x1F1F DUP3 PUSH2 0x18AC JUMP JUMPDEST SWAP2 POP PUSH2 0x1F2A DUP4 PUSH2 0x18AC JUMP JUMPDEST SWAP3 POP DUP3 DUP3 ADD SWAP1 POP DUP1 DUP3 GT ISZERO PUSH2 0x1F42 JUMPI PUSH2 0x1F41 PUSH2 0x1EE8 JUMP JUMPDEST JUMPDEST SWAP3 SWAP2 POP POP JUMP JUMPDEST PUSH2 0x1F51 DUP2 PUSH2 0x18AC JUMP JUMPDEST DUP3 MSTORE POP POP JUMP JUMPDEST PUSH0 PUSH1 0x40 DUP3 ADD SWAP1 POP PUSH2 0x1F6A PUSH0 DUP4 ADD DUP6 PUSH2 0x1B94 JUMP JUMPDEST PUSH2 0x1F77 PUSH1 0x20 DUP4 ADD DUP5 PUSH2 0x1F48 JUMP JUMPDEST SWAP4 SWAP3 POP POP POP JUMP JUMPDEST PUSH32 0x4974206D757374206265207265676973746572696E6720766F74657220626566 PUSH0 DUP3 ADD MSTORE PUSH32 0x6F72650000000000000000000000000000000000000000000000000000000000 PUSH1 0x20 DUP3 ADD MSTORE POP JUMP JUMPDEST PUSH0 PUSH2 0x1FD8 PUSH1 0x23 DUP4 PUSH2 0x1CDE JUMP JUMPDEST SWAP2 POP PUSH2 0x1FE3 DUP3 PUSH2 0x1F7E JUMP JUMPDEST PUSH1 0x40 DUP3 ADD SWAP1 POP SWAP2 SWAP1 POP JUMP JUMPDEST PUSH0 PUSH1 0x20 DUP3 ADD SWAP1 POP DUP2 DUP2 SUB PUSH0 DUP4 ADD MSTORE PUSH2 0x2005 DUP2 PUSH2 0x1FCC JUMP JUMPDEST SWAP1 POP SWAP2 SWAP1 POP JUMP JUMPDEST PUSH1 0x6 DUP2 LT PUSH2 0x201D JUMPI PUSH2 0x201C PUSH2 0x1D56 JUMP JUMPDEST JUMPDEST POP JUMP JUMPDEST PUSH0 DUP2 SWAP1 POP PUSH2 0x202D DUP3 PUSH2 0x200C JUMP JUMPDEST SWAP2 SWAP1 POP JUMP JUMPDEST PUSH0 PUSH2 0x203C DUP3 PUSH2 0x2020 JUMP JUMPDEST SWAP1 POP SWAP2 SWAP1 POP JUMP JUMPDEST PUSH2 0x204C DUP2 PUSH2 0x2032 JUMP JUMPDEST DUP3 MSTORE POP POP JUMP JUMPDEST PUSH0 PUSH1 0x40 DUP3 ADD SWAP1 POP PUSH2 0x2065 PUSH0 DUP4 ADD DUP6 PUSH2 0x2043 JUMP JUMPDEST PUSH2 0x2072 PUSH1 0x20 DUP4 ADD DUP5 PUSH2 0x2043 JUMP JUMPDEST SWAP4 SWAP3 POP POP POP JUMP JUMPDEST PUSH32 0x4974206D7573742062652070726F706F73616C2073657373696F6E0000000000 PUSH0 DUP3 ADD MSTORE POP JUMP JUMPDEST PUSH0 PUSH2 0x20AD PUSH1 0x1B DUP4 PUSH2 0x1CDE JUMP JUMPDEST SWAP2 POP PUSH2 0x20B8 DUP3 PUSH2 0x2079 JUMP JUMPDEST PUSH1 0x20 DUP3 ADD SWAP1 POP SWAP2 SWAP1 POP JUMP JUMPDEST PUSH0 PUSH1 0x20 DUP3 ADD SWAP1 POP DUP2 DUP2 SUB PUSH0 DUP4 ADD MSTORE PUSH2 0x20DA DUP2 PUSH2 0x20A1 JUMP JUMPDEST SWAP1 POP SWAP2 SWAP1 POP JUMP JUMPDEST PUSH32 0x4E487B7100000000000000000000000000000000000000000000000000000000 PUSH0 MSTORE PUSH1 0x41 PUSH1 0x4 MSTORE PUSH1 0x24 PUSH0 REVERT JUMPDEST PUSH32 0x4E487B7100000000000000000000000000000000000000000000000000000000 PUSH0 MSTORE PUSH1 0x22 PUSH1 0x4 MSTORE PUSH1 0x24 PUSH0 REVERT JUMPDEST PUSH0 PUSH1 0x2 DUP3 DIV SWAP1 POP PUSH1 0x1 DUP3 AND DUP1 PUSH2 0x2152 JUMPI PUSH1 0x7F DUP3 AND SWAP2 POP JUMPDEST PUSH1 0x20 DUP3 LT DUP2 SUB PUSH2 0x2165 JUMPI PUSH2 0x2164 PUSH2 0x210E JUMP JUMPDEST JUMPDEST POP SWAP2 SWAP1 POP JUMP JUMPDEST PUSH0 DUP2 SWAP1 POP DUP2 PUSH0 MSTORE PUSH1 0x20 PUSH0 KECCAK256 SWAP1 POP SWAP2 SWAP1 POP JUMP JUMPDEST PUSH0 PUSH1 0x20 PUSH1 0x1F DUP4 ADD DIV SWAP1 POP SWAP2 SWAP1 POP JUMP JUMPDEST PUSH0 DUP3 DUP3 SHL SWAP1 POP SWAP3 SWAP2 POP POP JUMP JUMPDEST PUSH0 PUSH1 0x8 DUP4 MUL PUSH2 0x21C7 PUSH32 0xFFFFFFFFFFFFFFFFFFFFFFFFFFFFFFFFFFFFFFFFFFFFFFFFFFFFFFFFFFFFFFFF DUP3 PUSH2 0x218C JUMP JUMPDEST PUSH2 0x21D1 DUP7 DUP4 PUSH2 0x218C JUMP JUMPDEST SWAP6 POP DUP1 NOT DUP5 AND SWAP4 POP DUP1 DUP7 AND DUP5 OR SWAP3 POP POP POP SWAP4 SWAP3 POP POP POP JUMP JUMPDEST PUSH0 DUP2 SWAP1 POP SWAP2 SWAP1 POP JUMP JUMPDEST PUSH0 PUSH2 0x220C PUSH2 0x2207 PUSH2 0x2202 DUP5 PUSH2 0x18AC JUMP JUMPDEST PUSH2 0x21E9 JUMP JUMPDEST PUSH2 0x18AC JUMP JUMPDEST SWAP1 POP SWAP2 SWAP1 POP JUMP JUMPDEST PUSH0 DUP2 SWAP1 POP SWAP2 SWAP1 POP JUMP JUMPDEST PUSH2 0x2225 DUP4 PUSH2 0x21F2 JUMP JUMPDEST PUSH2 0x2239 PUSH2 0x2231 DUP3 PUSH2 0x2213 JUMP JUMPDEST DUP5 DUP5 SLOAD PUSH2 0x2198 JUMP JUMPDEST DUP3 SSTORE POP POP POP POP JUMP JUMPDEST PUSH0 SWAP1 JUMP JUMPDEST PUSH2 0x224D PUSH2 0x2241 JUMP JUMPDEST PUSH2 0x2258 DUP2 DUP5 DUP5 PUSH2 0x221C JUMP JUMPDEST POP POP POP JUMP JUMPDEST JUMPDEST DUP2 DUP2 LT ISZERO PUSH2 0x227B JUMPI PUSH2 0x2270 PUSH0 DUP3 PUSH2 0x2245 JUMP JUMPDEST PUSH1 0x1 DUP2 ADD SWAP1 POP PUSH2 0x225E JUMP JUMPDEST POP POP JUMP JUMPDEST PUSH1 0x1F DUP3 GT ISZERO PUSH2 0x22C0 JUMPI PUSH2 0x2291 DUP2 PUSH2 0x216B JUMP JUMPDEST PUSH2 0x229A DUP5 PUSH2 0x217D JUMP JUMPDEST DUP2 ADD PUSH1 0x20 DUP6 LT ISZERO PUSH2 0x22A9 JUMPI DUP2 SWAP1 POP JUMPDEST PUSH2 0x22BD PUSH2 0x22B5 DUP6 PUSH2 0x217D JUMP JUMPDEST DUP4 ADD DUP3 PUSH2 0x225D JUMP JUMPDEST POP POP JUMPDEST POP POP POP JUMP JUMPDEST PUSH0 DUP3 DUP3 SHR SWAP1 POP SWAP3 SWAP2 POP POP JUMP JUMPDEST PUSH0 PUSH2 0x22E0 PUSH0 NOT DUP5 PUSH1 0x8 MUL PUSH2 0x22C5 JUMP JUMPDEST NOT DUP1 DUP4 AND SWAP2 POP POP SWAP3 SWAP2 POP POP JUMP JUMPDEST PUSH0 PUSH2 0x22F8 DUP4 DUP4 PUSH2 0x22D1 JUMP JUMPDEST SWAP2 POP DUP3 PUSH1 0x2 MUL DUP3 OR SWAP1 POP SWAP3 SWAP2 POP POP JUMP JUMPDEST PUSH2 0x2311 DUP3 PUSH2 0x19DF JUMP JUMPDEST PUSH8 0xFFFFFFFFFFFFFFFF DUP2 GT ISZERO PUSH2 0x232A JUMPI PUSH2 0x2329 PUSH2 0x20E1 JUMP JUMPDEST JUMPDEST PUSH2 0x2334 DUP3 SLOAD PUSH2 0x213B JUMP JUMPDEST PUSH2 0x233F DUP3 DUP3 DUP6 PUSH2 0x227F JUMP JUMPDEST PUSH0 PUSH1 0x20 SWAP1 POP PUSH1 0x1F DUP4 GT PUSH1 0x1 DUP2 EQ PUSH2 0x2370 JUMPI PUSH0 DUP5 ISZERO PUSH2 0x235E JUMPI DUP3 DUP8 ADD MLOAD SWAP1 POP JUMPDEST PUSH2 0x2368 DUP6 DUP3 PUSH2 0x22ED JUMP JUMPDEST DUP7 SSTORE POP PUSH2 0x23CF JUMP JUMPDEST PUSH1 0x1F NOT DUP5 AND PUSH2 0x237E DUP7 PUSH2 0x216B JUMP JUMPDEST PUSH0 JUMPDEST DUP3 DUP2 LT ISZERO PUSH2 0x23A5 JUMPI DUP5 DUP10 ADD MLOAD DUP3 SSTORE PUSH1 0x1 DUP3 ADD SWAP2 POP PUSH1 0x20 DUP6 ADD SWAP5 POP PUSH1 0x20 DUP2 ADD SWAP1 POP PUSH2 0x2380 JUMP JUMPDEST DUP7 DUP4 LT ISZERO PUSH2 0x23C2 JUMPI DUP5 DUP10 ADD MLOAD PUSH2 0x23BE PUSH1 0x1F DUP10 AND DUP3 PUSH2 0x22D1 JUMP JUMPDEST DUP4 SSTORE POP JUMPDEST PUSH1 0x1 PUSH1 0x2 DUP9 MUL ADD DUP9 SSTORE POP POP POP JUMPDEST POP POP POP POP POP POP JUMP JUMPDEST PUSH0 PUSH1 0x20 DUP3 ADD SWAP1 POP PUSH2 0x23EA PUSH0 DUP4 ADD DUP5 PUSH2 0x1F48 JUMP JUMPDEST SWAP3 SWAP2 POP POP JUMP JUMPDEST PUSH32 0x4974206D7573742062652074686520656E64206F662070726F706F73616C2062 PUSH0 DUP3 ADD MSTORE PUSH32 0x65666F7265000000000000000000000000000000000000000000000000000000 PUSH1 0x20 DUP3 ADD MSTORE POP JUMP JUMPDEST PUSH0 PUSH2 0x244A PUSH1 0x25 DUP4 PUSH2 0x1CDE JUMP JUMPDEST SWAP2 POP PUSH2 0x2455 DUP3 PUSH2 0x23F0 JUMP JUMPDEST PUSH1 0x40 DUP3 ADD SWAP1 POP SWAP2 SWAP1 POP JUMP JUMPDEST PUSH0 PUSH1 0x20 DUP3 ADD SWAP1 POP DUP2 DUP2 SUB PUSH0 DUP4 ADD MSTORE PUSH2 0x2477 DUP2 PUSH2 0x243E JUMP JUMPDEST SWAP1 POP SWAP2 SWAP1 POP JUMP JUMPDEST PUSH32 0x5468657265206172656E27742070726F706F73616C0000000000000000000000 PUSH0 DUP3 ADD MSTORE POP JUMP JUMPDEST PUSH0 PUSH2 0x24B2 PUSH1 0x15 DUP4 PUSH2 0x1CDE JUMP JUMPDEST SWAP2 POP PUSH2 0x24BD DUP3 PUSH2 0x247E JUMP JUMPDEST PUSH1 0x20 DUP3 ADD SWAP1 POP SWAP2 SWAP1 POP JUMP JUMPDEST PUSH0 PUSH1 0x20 DUP3 ADD SWAP1 POP DUP2 DUP2 SUB PUSH0 DUP4 ADD MSTORE PUSH2 0x24DF DUP2 PUSH2 0x24A6 JUMP JUMPDEST SWAP1 POP SWAP2 SWAP1 POP JUMP JUMPDEST PUSH32 0x4974206D7573742062652074616C6C6965642073657373696F6E000000000000 PUSH0 DUP3 ADD MSTORE POP JUMP JUMPDEST PUSH0 PUSH2 0x251A PUSH1 0x1A DUP4 PUSH2 0x1CDE JUMP JUMPDEST SWAP2 POP PUSH2 0x2525 DUP3 PUSH2 0x24E6 JUMP JUMPDEST PUSH1 0x20 DUP3 ADD SWAP1 POP SWAP2 SWAP1 POP JUMP JUMPDEST PUSH0 PUSH1 0x20 DUP3 ADD SWAP1 POP DUP2 DUP2 SUB PUSH0 DUP4 ADD MSTORE PUSH2 0x2547 DUP2 PUSH2 0x250E JUMP JUMPDEST SWAP1 POP SWAP2 SWAP1 POP JUMP JUMPDEST PUSH32 0x4974206D7573742062652074686520656E64206F66207468652073657373696F PUSH0 DUP3 ADD MSTORE PUSH32 0x6E00000000000000000000000000000000000000000000000000000000000000 PUSH1 0x20 DUP3 ADD MSTORE POP JUMP JUMPDEST PUSH0 PUSH2 0x25A8 PUSH1 0x21 DUP4 PUSH2 0x1CDE JUMP JUMPDEST SWAP2 POP PUSH2 0x25B3 DUP3 PUSH2 0x254E JUMP JUMPDEST PUSH1 0x40 DUP3 ADD SWAP1 POP SWAP2 SWAP1 POP JUMP JUMPDEST PUSH0 PUSH1 0x20 DUP3 ADD SWAP1 POP DUP2 DUP2 SUB PUSH0 DUP4 ADD MSTORE PUSH2 0x25D5 DUP2 PUSH2 0x259C JUMP JUMPDEST SWAP1 POP SWAP2 SWAP1 POP JUMP JUMPDEST PUSH0 PUSH2 0x25E6 DUP3 PUSH2 0x18AC JUMP JUMPDEST SWAP2 POP PUSH32 0xFFFFFFFFFFFFFFFFFFFFFFFFFFFFFFFFFFFFFFFFFFFFFFFFFFFFFFFFFFFFFFFF DUP3 SUB PUSH2 0x2618 JUMPI PUSH2 0x2617 PUSH2 0x1EE8 JUMP JUMPDEST JUMPDEST PUSH1 0x1 DUP3 ADD SWAP1 POP SWAP2 SWAP1 POP JUMP JUMPDEST PUSH32 0x5468697320706572736F6E206861736E277420766F7465640000000000000000 PUSH0 DUP3 ADD MSTORE POP JUMP JUMPDEST PUSH0 PUSH2 0x2657 PUSH1 0x18 DUP4 PUSH2 0x1CDE JUMP JUMPDEST SWAP2 POP PUSH2 0x2662 DUP3 PUSH2 0x2623 JUMP JUMPDEST PUSH1 0x20 DUP3 ADD SWAP1 POP SWAP2 SWAP1 POP JUMP JUMPDEST PUSH0 PUSH1 0x20 DUP3 ADD SWAP1 POP DUP2 DUP2 SUB PUSH0 DUP4 ADD MSTORE PUSH2 0x2684 DUP2 PUSH2 0x264B JUMP JUMPDEST SWAP1 POP SWAP2 SWAP1 POP JUMP JUMPDEST PUSH32 0x4974206D757374206265207265676973746572696E6720766F74657200000000 PUSH0 DUP3 ADD MSTORE POP JUMP JUMPDEST PUSH0 PUSH2 0x26BF PUSH1 0x1C DUP4 PUSH2 0x1CDE JUMP JUMPDEST SWAP2 POP PUSH2 0x26CA DUP3 PUSH2 0x268B JUMP JUMPDEST PUSH1 0x20 DUP3 ADD SWAP1 POP SWAP2 SWAP1 POP JUMP JUMPDEST PUSH0 PUSH1 0x20 DUP3 ADD SWAP1 POP DUP2 DUP2 SUB PUSH0 DUP4 ADD MSTORE PUSH2 0x26EC DUP2 PUSH2 0x26B3 JUMP JUMPDEST SWAP1 POP SWAP2 SWAP1 POP JUMP JUMPDEST PUSH32 0x54686973206164647265737320697320616C7265616479207265676973746572 PUSH0 DUP3 ADD MSTORE PUSH32 0x6564000000000000000000000000000000000000000000000000000000000000 PUSH1 0x20 DUP3 ADD MSTORE POP JUMP JUMPDEST PUSH0 PUSH2 0x274D PUSH1 0x22 DUP4 PUSH2 0x1CDE JUMP JUMPDEST SWAP2 POP PUSH2 0x2758 DUP3 PUSH2 0x26F3 JUMP JUMPDEST PUSH1 0x40 DUP3 ADD SWAP1 POP SWAP2 SWAP1 POP JUMP JUMPDEST PUSH0 PUSH1 0x20 DUP3 ADD SWAP1 POP DUP2 DUP2 SUB PUSH0 DUP4 ADD MSTORE PUSH2 0x277A DUP2 PUSH2 0x2741 JUMP JUMPDEST SWAP1 POP SWAP2 SWAP1 POP JUMP INVALID LOG2 PUSH5 0x6970667358 0x22 SLT KECCAK256 STATICCALL 0xE4 PUSH19 0x9F0ADC42D32161AC5857150C56BC07C590F663 0xE5 SWAP4 0x28 SSTORE 0xB5 0xE7 0x2A 0xF9 0xAD 0xC0 PUSH5 0x736F6C6343 STOP ADDMOD EQ STOP CALLER "
				},
				"gasEstimates": {
					"creation": {
						"codeDepositCost": "2033400",
						"executionCost": "infinite",
						"totalCost": "infinite"
					},
					"external": {
						"addProposal(string)": "infinite",
						"addVoter(address)": "infinite",
						"endProposal()": "infinite",
						"endVote()": "infinite",
						"getProposals()": "infinite",
						"getVoteTo(address)": "infinite",
						"getWinner()": "infinite",
						"owner()": "2604",
						"renounceOwnership()": "infinite",
						"resetSession()": "infinite",
						"startProposal()": "infinite",
						"startVote()": "infinite",
						"talliedVote()": "infinite",
						"transferOwnership(address)": "infinite",
						"vote(uint256)": "infinite"
					}
				},
				"methodIdentifiers": {
					"addProposal(string)": "2fdae3c5",
					"addVoter(address)": "f4ab9adf",
					"endProposal()": "98f6560b",
					"endVote()": "b9223946",
					"getProposals()": "62564c48",
					"getVoteTo(address)": "a587f077",
					"getWinner()": "8e7ea5b2",
					"owner()": "8da5cb5b",
					"renounceOwnership()": "715018a6",
					"resetSession()": "f8a3ce82",
					"startProposal()": "274da81f",
					"startVote()": "4c0a6af0",
					"talliedVote()": "9c6a46c4",
					"transferOwnership(address)": "f2fde38b",
					"vote(uint256)": "0121b93f"
				}
			},
			"storageLayout": {
				"storage": [
					{
						"astId": 8,
						"contract": "contracts/VotingPlus.sol:VotingPlus",
						"label": "_owner",
						"offset": 0,
						"slot": "0",
						"type": "t_address"
					},
					{
						"astId": 243,
						"contract": "contracts/VotingPlus.sol:VotingPlus",
						"label": "whiteList",
						"offset": 0,
						"slot": "1",
						"type": "t_struct(WhiteListMap)218_storage"
					},
					{
						"astId": 247,
						"contract": "contracts/VotingPlus.sol:VotingPlus",
						"label": "proposals",
						"offset": 0,
						"slot": "3",
						"type": "t_array(t_struct(Proposal)202_storage)dyn_storage"
					},
					{
						"astId": 250,
						"contract": "contracts/VotingPlus.sol:VotingPlus",
						"label": "status",
						"offset": 0,
						"slot": "4",
						"type": "t_enum(WorkflowStatus)209"
					},
					{
						"astId": 252,
						"contract": "contracts/VotingPlus.sol:VotingPlus",
						"label": "winningProposalId",
						"offset": 0,
						"slot": "5",
						"type": "t_uint256"
					}
				],
				"types": {
					"t_address": {
						"encoding": "inplace",
						"label": "address",
						"numberOfBytes": "20"
					},
					"t_array(t_address)dyn_storage": {
						"base": "t_address",
						"encoding": "dynamic_array",
						"label": "address[]",
						"numberOfBytes": "32"
					},
					"t_array(t_struct(Proposal)202_storage)dyn_storage": {
						"base": "t_struct(Proposal)202_storage",
						"encoding": "dynamic_array",
						"label": "struct VotingPlus.Proposal[]",
						"numberOfBytes": "32"
					},
					"t_bool": {
						"encoding": "inplace",
						"label": "bool",
						"numberOfBytes": "1"
					},
					"t_enum(WorkflowStatus)209": {
						"encoding": "inplace",
						"label": "enum VotingPlus.WorkflowStatus",
						"numberOfBytes": "1"
					},
					"t_mapping(t_address,t_struct(Voter)197_storage)": {
						"encoding": "mapping",
						"key": "t_address",
						"label": "mapping(address => struct VotingPlus.Voter)",
						"numberOfBytes": "32",
						"value": "t_struct(Voter)197_storage"
					},
					"t_string_storage": {
						"encoding": "bytes",
						"label": "string",
						"numberOfBytes": "32"
					},
					"t_struct(Proposal)202_storage": {
						"encoding": "inplace",
						"label": "struct VotingPlus.Proposal",
						"members": [
							{
								"astId": 199,
								"contract": "contracts/VotingPlus.sol:VotingPlus",
								"label": "description",
								"offset": 0,
								"slot": "0",
								"type": "t_string_storage"
							},
							{
								"astId": 201,
								"contract": "contracts/VotingPlus.sol:VotingPlus",
								"label": "voteCount",
								"offset": 0,
								"slot": "1",
								"type": "t_uint256"
							}
						],
						"numberOfBytes": "64"
					},
					"t_struct(Voter)197_storage": {
						"encoding": "inplace",
						"label": "struct VotingPlus.Voter",
						"members": [
							{
								"astId": 192,
								"contract": "contracts/VotingPlus.sol:VotingPlus",
								"label": "isRegistered",
								"offset": 0,
								"slot": "0",
								"type": "t_bool"
							},
							{
								"astId": 194,
								"contract": "contracts/VotingPlus.sol:VotingPlus",
								"label": "hasVoted",
								"offset": 1,
								"slot": "0",
								"type": "t_bool"
							},
							{
								"astId": 196,
								"contract": "contracts/VotingPlus.sol:VotingPlus",
								"label": "votedProposalId",
								"offset": 0,
								"slot": "1",
								"type": "t_uint256"
							}
						],
						"numberOfBytes": "64"
					},
					"t_struct(WhiteListMap)218_storage": {
						"encoding": "inplace",
						"label": "struct VotingPlus.WhiteListMap",
						"members": [
							{
								"astId": 214,
								"contract": "contracts/VotingPlus.sol:VotingPlus",
								"label": "list",
								"offset": 0,
								"slot": "0",
								"type": "t_mapping(t_address,t_struct(Voter)197_storage)"
							},
							{
								"astId": 217,
								"contract": "contracts/VotingPlus.sol:VotingPlus",
								"label": "keys",
								"offset": 0,
								"slot": "1",
								"type": "t_array(t_address)dyn_storage"
							}
						],
						"numberOfBytes": "64"
					},
					"t_uint256": {
						"encoding": "inplace",
						"label": "uint256",
						"numberOfBytes": "32"
					}
				}
			},
			"userdoc": {
				"kind": "user",
				"methods": {
					"addProposal(string)": {
						"notice": "Fonction permettant d'ajouter une proposition à la liste"
					},
					"addVoter(address)": {
						"notice": "Fonction permettant d'ajouter d'un votant à la liste"
					},
					"endProposal()": {
						"notice": "Permet de terminer les propositions"
					},
					"endVote()": {
						"notice": "Permet de terminer les votes"
					},
					"getProposals()": {
						"notice": "Fonction permettant de regarder la liste des propositions "
					},
					"getVoteTo(address)": {
						"notice": "Fonction permettant de regarder le vote d'une personne "
					},
					"getWinner()": {
						"notice": "Get le winner "
					},
					"resetSession()": {
						"notice": "Reset session"
					},
					"startProposal()": {
						"notice": "Permet de start les propositions"
					},
					"startVote()": {
						"notice": "Permet de start les votes"
					},
					"talliedVote()": {
						"notice": "Permet de rendre public les votes"
					},
					"vote(uint256)": {
						"notice": "Fonction permettant de voter pour une proposition et ajouter un vote à la proposition "
					}
				},
				"version": 1
			}
		}
	}
}